{
	"data": {
		"bytecode": {
			"linkReferences": {},
			"object": "6101a0604052348015610010575f5ffd5b506040516168b43803806168b483398181016040528101906100329190610517565b806201518062093a80683635c9adc5dea000006040518060400160405280600d81526020017f4372656453706865726544414f000000000000000000000000000000000000008152508061008a6101e560201b60201c565b61009d5f8361022260201b90919060201c565b61012081815250506100b960018261022260201b90919060201c565b6101408181525050818051906020012060e08181525050808051906020012061010081815250504660a081815250506100f661026f60201b60201c565b608081815250503073ffffffffffffffffffffffffffffffffffffffff1660c08173ffffffffffffffffffffffffffffffffffffffff168152505050508060039081610142919061077f565b5050610153836102c960201b60201c565b6101628261033c60201b60201c565b610171816103f560201b60201c565b5050508073ffffffffffffffffffffffffffffffffffffffff166101608173ffffffffffffffffffffffffffffffffffffffff1681525050508073ffffffffffffffffffffffffffffffffffffffff166101808173ffffffffffffffffffffffffffffffffffffffff168152505050610b35565b60606040518060400160405280600181526020017f3100000000000000000000000000000000000000000000000000000000000000815250905090565b5f6020835110156102435761023c8361043a60201b60201c565b9050610269565b826102538361049f60201b60201c565b5f019081610261919061077f565b5060ff5f1b90505b92915050565b5f7f8b73c3c69bb8fe3d512ecc4cf759cc79239f7b179b0ffacaa9a75d522b39400f60e0516101005146306040516020016102ae959493929190610884565b60405160208183030381529060405280519060200120905090565b7fc565b045403dc03c2eea82b81a0465edad9e2e7fc4d97e11421c209da93d7a9360085f9054906101000a900465ffffffffffff168260405161030d929190610916565b60405180910390a18060085f6101000a81548165ffffffffffff021916908365ffffffffffff16021790555050565b5f8163ffffffff1603610386575f6040517ff1cfbf0500000000000000000000000000000000000000000000000000000000815260040161037d9190610976565b60405180910390fd5b7f7e3f7f0708a84de9203036abaa450dccc85ad5ff52f78c170f3edb55cf5e8828600860069054906101000a900463ffffffff16826040516103c99291906109ce565b60405180910390a180600860066101000a81548163ffffffff021916908363ffffffff16021790555050565b7fccb45da8d5717e6c4544694297c4ba5cf151d455c9bb0ed4fc7a38411bc05461600754826040516104289291906109f5565b60405180910390a18060078190555050565b5f5f829050601f8151111561048657826040517f305a27a900000000000000000000000000000000000000000000000000000000815260040161047d9190610a82565b60405180910390fd5b80518161049290610acf565b5f1c175f1b915050919050565b5f819050919050565b5f5ffd5b5f73ffffffffffffffffffffffffffffffffffffffff82169050919050565b5f6104d5826104ac565b9050919050565b5f6104e6826104cb565b9050919050565b6104f6816104dc565b8114610500575f5ffd5b50565b5f81519050610511816104ed565b92915050565b5f6020828403121561052c5761052b6104a8565b5b5f61053984828501610503565b91505092915050565b5f81519050919050565b7f4e487b71000000000000000000000000000000000000000000000000000000005f52604160045260245ffd5b7f4e487b71000000000000000000000000000000000000000000000000000000005f52602260045260245ffd5b5f60028204905060018216806105bd57607f821691505b6020821081036105d0576105cf610579565b5b50919050565b5f819050815f5260205f209050919050565b5f6020601f8301049050919050565b5f82821b905092915050565b5f600883026106327fffffffffffffffffffffffffffffffffffffffffffffffffffffffffffffffff826105f7565b61063c86836105f7565b95508019841693508086168417925050509392505050565b5f819050919050565b5f819050919050565b5f61068061067b61067684610654565b61065d565b610654565b9050919050565b5f819050919050565b61069983610666565b6106ad6106a582610687565b848454610603565b825550505050565b5f5f905090565b6106c46106b5565b6106cf818484610690565b505050565b5b818110156106f2576106e75f826106bc565b6001810190506106d5565b5050565b601f82111561073757610708816105d6565b610711846105e8565b81016020851015610720578190505b61073461072c856105e8565b8301826106d4565b50505b505050565b5f82821c905092915050565b5f6107575f198460080261073c565b1980831691505092915050565b5f61076f8383610748565b9150826002028217905092915050565b61078882610542565b67ffffffffffffffff8111156107a1576107a061054c565b5b6107ab82546105a6565b6107b68282856106f6565b5f60209050601f8311600181146107e7575f84156107d5578287015190505b6107df8582610764565b865550610846565b601f1984166107f5866105d6565b5f5b8281101561081c578489015182556001820191506020850194506020810190506107f7565b868310156108395784890151610835601f891682610748565b8355505b6001600288020188555050505b505050505050565b5f819050919050565b6108608161084e565b82525050565b61086f81610654565b82525050565b61087e816104cb565b82525050565b5f60a0820190506108975f830188610857565b6108a46020830187610857565b6108b16040830186610857565b6108be6060830185610866565b6108cb6080830184610875565b9695505050505050565b5f65ffffffffffff82169050919050565b5f6109006108fb6108f6846108d5565b61065d565b610654565b9050919050565b610910816108e6565b82525050565b5f6040820190506109295f830185610907565b6109366020830184610907565b9392505050565b5f819050919050565b5f61096061095b6109568461093d565b61065d565b610654565b9050919050565b61097081610946565b82525050565b5f6020820190506109895f830184610967565b92915050565b5f63ffffffff82169050919050565b5f6109b86109b36109ae8461098f565b61065d565b610654565b9050919050565b6109c88161099e565b82525050565b5f6040820190506109e15f8301856109bf565b6109ee60208301846109bf565b9392505050565b5f604082019050610a085f830185610866565b610a156020830184610866565b9392505050565b5f82825260208201905092915050565b8281835e5f83830152505050565b5f601f19601f8301169050919050565b5f610a5482610542565b610a5e8185610a1c565b9350610a6e818560208601610a2c565b610a7781610a3a565b840191505092915050565b5f6020820190508181035f830152610a9a8184610a4a565b905092915050565b5f81519050919050565b5f819050602082019050919050565b5f610ac6825161084e565b80915050919050565b5f610ad982610aa2565b82610ae384610aac565b9050610aee81610abb565b92506020821015610b2e57610b297fffffffffffffffffffffffffffffffffffffffffffffffffffffffffffffffff836020036008026105f7565b831692505b5050919050565b60805160a05160c05160e0516101005161012051610140516101605161018051615d13610ba15f395f8181611b4e0152611e5401525f611ef301525f612c0001525f612bc501525f6136c101525f6136a001525f612e2101525f612e7701525f612ea00152615d135ff3fe60806040526004361061026a575f3560e01c80637ecebe0011610143578063c01f9e37116100b5578063e540d01d11610079578063e540d01d14610ab9578063eb9019d414610ae1578063ece40cc114610b1d578063f23a6e6114610b45578063f8ce560a14610b81578063fc0c546a14610bbd576102dd565b8063c01f9e37146109d1578063c28bc2fa14610a0d578063c59057e414610a29578063dd4e2ba514610a65578063deaaa7cc14610a8f576102dd565b8063a8f8a66811610107578063a8f8a6681461088d578063a9a95294146108c9578063ab58fb8e14610905578063af98375314610941578063b58131b01461096b578063bc197c8114610995576102dd565b80637ecebe001461077f57806384b0196e146107bb5780638ff262e3146107eb57806391ddadf4146108275780639a802a6d14610851576102dd565b806343859632116101dc57806356781388116101a0578063567813881461062b5780635b8d0e0d146106675780635f398a14146106a357806379051887146106df5780637b3c71d3146107075780637d5e81e214610743576102dd565b80634385963214610521578063452115d61461055d5780634bf5d7e914610599578063544ffc9c146105c357806354fd4d5014610601576102dd565b8063160cbed71161022e578063160cbed7146103e95780632656227d146104255780632d63f693146104555780632fe3e261146104915780633932abb1146104bb5780633e4f49e6146104e5576102dd565b806301ffc9a7146102e157806302a251a31461031d57806306fdde0314610347578063143489d014610371578063150b7a02146103ad576102dd565b366102dd573073ffffffffffffffffffffffffffffffffffffffff1661028e610be7565b73ffffffffffffffffffffffffffffffffffffffff16146102db576040517fe90a651e00000000000000000000000000000000000000000000000000000000815260040160405180910390fd5b005b5f5ffd5b3480156102ec575f5ffd5b5061030760048036038101906103029190613af7565b610bee565b6040516103149190613b3c565b60405180910390f35b348015610328575f5ffd5b50610331610d40565b60405161033e9190613b6d565b60405180910390f35b348015610352575f5ffd5b5061035b610d5f565b6040516103689190613bf6565b60405180910390f35b34801561037c575f5ffd5b5061039760048036038101906103929190613c40565b610def565b6040516103a49190613caa565b60405180910390f35b3480156103b8575f5ffd5b506103d360048036038101906103ce9190613e19565b610e2a565b6040516103e09190613ea8565b60405180910390f35b3480156103f4575f5ffd5b5061040f600480360381019061040a9190614156565b610ea9565b60405161041c9190613b6d565b60405180910390f35b61043f600480360381019061043a9190614156565b610f9f565b60405161044c9190613b6d565b60405180910390f35b348015610460575f5ffd5b5061047b60048036038101906104769190613c40565b61117c565b6040516104889190613b6d565b60405180910390f35b34801561049c575f5ffd5b506104a56111b2565b6040516104b2919061421d565b60405180910390f35b3480156104c6575f5ffd5b506104cf6111d6565b6040516104dc9190613b6d565b60405180910390f35b3480156104f0575f5ffd5b5061050b60048036038101906105069190613c40565b6111f8565b60405161051891906142a9565b60405180910390f35b34801561052c575f5ffd5b50610547600480360381019061054291906142c2565b61134f565b6040516105549190613b3c565b60405180910390f35b348015610568575f5ffd5b50610583600480360381019061057e9190614156565b6113b4565b6040516105909190613b6d565b60405180910390f35b3480156105a4575f5ffd5b506105ad611434565b6040516105ba9190613bf6565b60405180910390f35b3480156105ce575f5ffd5b506105e960048036038101906105e49190613c40565b6114f1565b6040516105f893929190614300565b60405180910390f35b34801561060c575f5ffd5b50610615611524565b6040516106229190613bf6565b60405180910390f35b348015610636575f5ffd5b50610651600480360381019061064c919061436b565b611561565b60405161065e9190613b6d565b60405180910390f35b348015610672575f5ffd5b5061068d60048036038101906106889190614402565b611590565b60405161069a9190613b6d565b60405180910390f35b3480156106ae575f5ffd5b506106c960048036038101906106c491906144e4565b6116bf565b6040516106d69190613b6d565b60405180910390f35b3480156106ea575f5ffd5b50610705600480360381019061070091906145bf565b611727565b005b348015610712575f5ffd5b5061072d600480360381019061072891906145ea565b61173b565b60405161073a9190613b6d565b60405180910390f35b34801561074e575f5ffd5b50610769600480360381019061076491906146f9565b6117a1565b6040516107769190613b6d565b60405180910390f35b34801561078a575f5ffd5b506107a560048036038101906107a091906147cd565b611897565b6040516107b29190613b6d565b60405180910390f35b3480156107c6575f5ffd5b506107cf6118dd565b6040516107e297969594939291906148e9565b60405180910390f35b3480156107f6575f5ffd5b50610811600480360381019061080c919061496b565b611982565b60405161081e9190613b6d565b60405180910390f35b348015610832575f5ffd5b5061083b611a56565b60405161084891906149fa565b60405180910390f35b34801561085c575f5ffd5b5061087760048036038101906108729190614a13565b611ae1565b6040516108849190613b6d565b60405180910390f35b348015610898575f5ffd5b506108b360048036038101906108ae9190614156565b611af6565b6040516108c09190613b6d565b60405180910390f35b3480156108d4575f5ffd5b506108ef60048036038101906108ea9190613c40565b611b0d565b6040516108fc9190613b3c565b60405180910390f35b348015610910575f5ffd5b5061092b60048036038101906109269190613c40565b611b16565b6040516109389190613b6d565b60405180910390f35b34801561094c575f5ffd5b50610955611b4c565b6040516109629190614ada565b60405180910390f35b348015610976575f5ffd5b5061097f611b70565b60405161098c9190613b6d565b60405180910390f35b3480156109a0575f5ffd5b506109bb60048036038101906109b69190614af3565b611b7e565b6040516109c89190613ea8565b60405180910390f35b3480156109dc575f5ffd5b506109f760048036038101906109f29190613c40565b611bfe565b604051610a049190613b6d565b60405180910390f35b610a276004803603810190610a229190614c13565b611c68565b005b348015610a34575f5ffd5b50610a4f6004803603810190610a4a9190614156565b611cf1565b604051610a5c9190613b6d565b60405180910390f35b348015610a70575f5ffd5b50610a79611d2b565b604051610a869190613bf6565b60405180910390f35b348015610a9a575f5ffd5b50610aa3611d68565b604051610ab0919061421d565b60405180910390f35b348015610ac4575f5ffd5b50610adf6004803603810190610ada9190614cbd565b611d8c565b005b348015610aec575f5ffd5b50610b076004803603810190610b029190614ce8565b611da0565b604051610b149190613b6d565b60405180910390f35b348015610b28575f5ffd5b50610b436004803603810190610b3e9190613c40565b611dbb565b005b348015610b50575f5ffd5b50610b6b6004803603810190610b669190614d26565b611dcf565b604051610b789190613ea8565b60405180910390f35b348015610b8c575f5ffd5b50610ba76004803603810190610ba29190613c40565b611e4f565b604051610bb49190613b6d565b60405180910390f35b348015610bc8575f5ffd5b50610bd1611ef0565b604051610bde9190614dd9565b60405180910390f35b5f30905090565b5f7fcdbdfcee000000000000000000000000000000000000000000000000000000007bffffffffffffffffffffffffffffffffffffffffffffffffffffffff1916827bffffffffffffffffffffffffffffffffffffffffffffffffffffffff19161480610cc1575063a8f8a66860e01b7fcdbdfcee00000000000000000000000000000000000000000000000000000000187bffffffffffffffffffffffffffffffffffffffffffffffffffffffff1916827bffffffffffffffffffffffffffffffffffffffffffffffffffffffff1916145b80610d2957507f4e2312e0000000000000000000000000000000000000000000000000000000007bffffffffffffffffffffffffffffffffffffffffffffffffffffffff1916827bffffffffffffffffffffffffffffffffffffffffffffffffffffffff1916145b80610d395750610d3882611f17565b5b9050919050565b5f600860069054906101000a900463ffffffff1663ffffffff16905090565b606060038054610d6e90614e1f565b80601f0160208091040260200160405190810160405280929190818152602001828054610d9a90614e1f565b8015610de55780601f10610dbc57610100808354040283529160200191610de5565b820191905f5260205f20905b815481529060010190602001808311610dc857829003601f168201915b5050505050905090565b5f60045f8381526020019081526020015f205f015f9054906101000a900473ffffffffffffffffffffffffffffffffffffffff169050919050565b5f3073ffffffffffffffffffffffffffffffffffffffff16610e4a610be7565b73ffffffffffffffffffffffffffffffffffffffff1614610e97576040517fe90a651e00000000000000000000000000000000000000000000000000000000815260040160405180910390fd5b63150b7a0260e01b9050949350505050565b5f5f610eb786868686611af6565b9050610ecc81610ec76004611f80565b611fa4565b505f610edb828888888861200f565b90505f8165ffffffffffff1614610f60578060045f8481526020019081526020015f206001015f6101000a81548165ffffffffffff021916908365ffffffffffff1602179055507f9a2e42fd6722813d69113e7d0079d3d940171428df7373df9c7f7617cfda28928282604051610f53929190614e7f565b60405180910390a1610f92565b6040517f90884a4600000000000000000000000000000000000000000000000000000000815260040160405180910390fd5b8192505050949350505050565b5f5f610fad86868686611af6565b9050610fcd81610fbd6005611f80565b610fc76004611f80565b17611fa4565b50600160045f8381526020019081526020015f205f01601e6101000a81548160ff0219169083151502179055503073ffffffffffffffffffffffffffffffffffffffff16611019610be7565b73ffffffffffffffffffffffffffffffffffffffff16146110d2575f5f90505b86518110156110d0573073ffffffffffffffffffffffffffffffffffffffff1687828151811061106c5761106b614ea6565b5b602002602001015173ffffffffffffffffffffffffffffffffffffffff16036110c5576110c48582815181106110a5576110a4614ea6565b5b602002602001015180519060200120600561201c90919063ffffffff16565b5b806001019050611039565b505b6110df8187878787612114565b3073ffffffffffffffffffffffffffffffffffffffff166110fe610be7565b73ffffffffffffffffffffffffffffffffffffffff1614158015611129575061112760056121fc565b155b15611139576111386005612268565b5b7f712ae1383f79ac853f8d882153778e0260ef8f03b504e2866e0593e04d2b291f816040516111689190613b6d565b60405180910390a180915050949350505050565b5f60045f8381526020019081526020015f205f0160149054906101000a900465ffffffffffff1665ffffffffffff169050919050565b7f3e83946653575f9a39005e1545185629e92736b7528ab20ca3816f315424a81181565b5f60085f9054906101000a900465ffffffffffff1665ffffffffffff16905090565b5f5f60045f8481526020019081526020015f2090505f815f01601e9054906101000a900460ff1690505f825f01601f9054906101000a900460ff1690508115611247576007935050505061134a565b8015611259576002935050505061134a565b5f6112638661117c565b90505f81036112a957856040517f6ad060750000000000000000000000000000000000000000000000000000000081526004016112a09190613b6d565b60405180910390fd5b5f6112b2611a56565b65ffffffffffff1690508082106112d0575f9550505050505061134a565b5f6112da88611bfe565b90508181106112f2576001965050505050505061134a565b6112fb886122de565b158061130d575061130b88612322565b155b15611321576003965050505050505061134a565b5f61132b89611b16565b0361133f576004965050505050505061134a565b600596505050505050505b919050565b5f60095f8481526020019081526020015f206003015f8373ffffffffffffffffffffffffffffffffffffffff1673ffffffffffffffffffffffffffffffffffffffff1681526020019081526020015f205f9054906101000a900460ff16905092915050565b5f5f6113c286868686611af6565b90505f6113cd612349565b90506113d98282612350565b61141c5781816040517f8fe5d8a9000000000000000000000000000000000000000000000000000000008152600401611413929190614ed3565b60405180910390fd5b611428878787876123c7565b92505050949350505050565b606061143e611ef0565b73ffffffffffffffffffffffffffffffffffffffff16634bf5d7e96040518163ffffffff1660e01b81526004015f60405180830381865afa9250505080156114a857506040513d5f823e3d601f19601f820116820180604052508101906114a59190614f68565b60015b6114e9576040518060400160405280601d81526020017f6d6f64653d626c6f636b6e756d6265722666726f6d3d64656661756c7400000081525090506114ee565b809150505b90565b5f5f5f5f60095f8681526020019081526020015f209050805f015481600101548260020154935093509350509193909250565b60606040518060400160405280600181526020017f3100000000000000000000000000000000000000000000000000000000000000815250905090565b5f5f61156b612349565b905061158784828560405180602001604052805f8152506124a9565b91505092915050565b5f5f61161d876116177f3e83946653575f9a39005e1545185629e92736b7528ab20ca3816f315424a8118c8c8c6115c68e6124c8565b8d8d6040516115d6929190614fdd565b60405180910390208c805190602001206040516020016115fc9796959493929190615004565b6040516020818303038152906040528051906020012061251b565b85612534565b90508061166157866040517f94ab6c070000000000000000000000000000000000000000000000000000000081526004016116589190613caa565b60405180910390fd5b6116b189888a89898080601f0160208091040260200160405190810160405280939291908181526020018383808284375f81840152601f19601f82011690508083019250505050505050886125e0565b915050979650505050505050565b5f5f6116c9612349565b905061171b87828888888080601f0160208091040260200160405190810160405280939291908181526020018383808284375f81840152601f19601f82011690508083019250505050505050876125e0565b91505095945050505050565b61172f6126ea565b611738816127df565b50565b5f5f611745612349565b905061179686828787878080601f0160208091040260200160405190810160405280939291908181526020018383808284375f81840152601f19601f820116905080830192505050505050506124a9565b915050949350505050565b5f5f6117ab612349565b90506117b78184612852565b6117f857806040517fd9b395570000000000000000000000000000000000000000000000000000000081526004016117ef9190613caa565b60405180910390fd5b5f611801611b70565b90505f81111561187e575f61183183600161181a611a56565b611824919061509e565b65ffffffffffff16611da0565b90508181101561187c578281836040517fc242ee16000000000000000000000000000000000000000000000000000000008152600401611873939291906150d7565b60405180910390fd5b505b61188b8787878786612938565b92505050949350505050565b5f60025f8373ffffffffffffffffffffffffffffffffffffffff1673ffffffffffffffffffffffffffffffffffffffff1681526020019081526020015f20549050919050565b5f6060805f5f5f60606118ee612bbd565b6118f6612bf7565b46305f5f1b5f67ffffffffffffffff81111561191557611914613cf5565b5b6040519080825280602002602001820160405280156119435781602001602082028036833780820191505090505b507f0f00000000000000000000000000000000000000000000000000000000000000959493929190965096509650965096509650965090919293949596565b5f5f6119ed846119e77ff2aad550cf55f045cb27e9c559f9889fdfb6e6cdaa032301d6ea397784ae51d78989896119b88b6124c8565b6040516020016119cc95949392919061510c565b6040516020818303038152906040528051906020012061251b565b85612534565b905080611a3157836040517f94ab6c07000000000000000000000000000000000000000000000000000000008152600401611a289190613caa565b60405180910390fd5b611a4b86858760405180602001604052805f8152506124a9565b915050949350505050565b5f611a5f611ef0565b73ffffffffffffffffffffffffffffffffffffffff166391ddadf46040518163ffffffff1660e01b8152600401602060405180830381865afa925050508015611ac657506040513d601f19601f82011682018060405250810190611ac39190615171565b60015b611ad957611ad2612c32565b9050611ade565b809150505b90565b5f611aed848484612c41565b90509392505050565b5f611b0385858585611cf1565b9050949350505050565b5f5f9050919050565b5f60045f8381526020019081526020015f206001015f9054906101000a900465ffffffffffff1665ffffffffffff169050919050565b7f000000000000000000000000000000000000000000000000000000000000000081565b5f611b79612ccc565b905090565b5f3073ffffffffffffffffffffffffffffffffffffffff16611b9e610be7565b73ffffffffffffffffffffffffffffffffffffffff1614611beb576040517fe90a651e00000000000000000000000000000000000000000000000000000000815260040160405180910390fd5b63bc197c8160e01b905095945050505050565b5f60045f8381526020019081526020015f205f01601a9054906101000a900463ffffffff1663ffffffff1660045f8481526020019081526020015f205f0160149054906101000a900465ffffffffffff16611c59919061519c565b65ffffffffffff169050919050565b611c706126ea565b5f5f8573ffffffffffffffffffffffffffffffffffffffff16858585604051611c9a929190614fdd565b5f6040518083038185875af1925050503d805f8114611cd4576040519150601f19603f3d011682016040523d82523d5f602084013e611cd9565b606091505b5091509150611ce88282612cd5565b50505050505050565b5f84848484604051602001611d099493929190615399565b604051602081830303815290604052805190602001205f1c9050949350505050565b60606040518060400160405280602081526020017f737570706f72743d627261766f2671756f72756d3d666f722c6162737461696e815250905090565b7ff2aad550cf55f045cb27e9c559f9889fdfb6e6cdaa032301d6ea397784ae51d781565b611d946126ea565b611d9d81612cf9565b50565b5f611db38383611dae612db2565b612c41565b905092915050565b611dc36126ea565b611dcc81612dc8565b50565b5f3073ffffffffffffffffffffffffffffffffffffffff16611def610be7565b73ffffffffffffffffffffffffffffffffffffffff1614611e3c576040517fe90a651e00000000000000000000000000000000000000000000000000000000815260040160405180910390fd5b63f23a6e6160e01b905095945050505050565b5f60647f000000000000000000000000000000000000000000000000000000000000000073ffffffffffffffffffffffffffffffffffffffff166318160ddd6040518163ffffffff1660e01b8152600401602060405180830381865afa158015611ebb573d5f5f3e3d5ffd5b505050506040513d601f19601f82011682018060405250810190611edf9190615405565b611ee9919061545d565b9050919050565b5f7f0000000000000000000000000000000000000000000000000000000000000000905090565b5f7f01ffc9a7000000000000000000000000000000000000000000000000000000007bffffffffffffffffffffffffffffffffffffffffffffffffffffffff1916827bffffffffffffffffffffffffffffffffffffffffffffffffffffffff1916149050919050565b5f816007811115611f9457611f93614236565b5b60ff166001901b5f1b9050919050565b5f5f611faf846111f8565b90505f5f1b83611fbe83611f80565b1603612005578381846040517f31b75e4d000000000000000000000000000000000000000000000000000000008152600401611ffc9392919061548d565b60405180910390fd5b8091505092915050565b5f5f905095945050505050565b5f825f0160109054906101000a90046fffffffffffffffffffffffffffffffff169050825f015f9054906101000a90046fffffffffffffffffffffffffffffffff166fffffffffffffffffffffffffffffffff16600182016fffffffffffffffffffffffffffffffff1603612096576120956041612e0d565b5b81836001015f836fffffffffffffffffffffffffffffffff166fffffffffffffffffffffffffffffffff1681526020019081526020015f208190555060018101835f0160106101000a8154816fffffffffffffffffffffffffffffffff02191690836fffffffffffffffffffffffffffffffff160217905550505050565b5f5f90505b84518110156121f4575f5f86838151811061213757612136614ea6565b5b602002602001015173ffffffffffffffffffffffffffffffffffffffff1686848151811061216857612167614ea6565b5b602002602001015186858151811061218357612182614ea6565b5b602002602001015160405161219891906154f2565b5f6040518083038185875af1925050503d805f81146121d2576040519150601f19603f3d011682016040523d82523d5f602084013e6121d7565b606091505b50915091506121e68282612cd5565b505050806001019050612119565b505050505050565b5f815f015f9054906101000a90046fffffffffffffffffffffffffffffffff166fffffffffffffffffffffffffffffffff16825f0160109054906101000a90046fffffffffffffffffffffffffffffffff166fffffffffffffffffffffffffffffffff16149050919050565b5f815f015f6101000a8154816fffffffffffffffffffffffffffffffff02191690836fffffffffffffffffffffffffffffffff1602179055505f815f0160106101000a8154816fffffffffffffffffffffffffffffffff02191690836fffffffffffffffffffffffffffffffff16021790555050565b5f5f60095f8481526020019081526020015f209050806002015481600101546123079190615508565b6123186123138561117c565b611e4f565b1115915050919050565b5f5f60095f8481526020019081526020015f209050805f0154816001015411915050919050565b5f33905090565b5f5f600781111561236457612363614236565b5b61236d846111f8565b600781111561237f5761237e614236565b5b1480156123bf575061239083610def565b73ffffffffffffffffffffffffffffffffffffffff168273ffffffffffffffffffffffffffffffffffffffff16145b905092915050565b5f5f6123d586868686611af6565b9050612439816123e56007611f80565b6123ef6006611f80565b6123f96002611f80565b60018060078081111561240f5761240e614236565b5b612419919061553b565b6002612425919061569e565b61242f91906156e8565b5f1b181818611fa4565b50600160045f8381526020019081526020015f205f01601f6101000a81548160ff0219169083151502179055507f789cf55be980739dad1d0699b93b58e806b51c9d96619bfa8fe0a28abaa7b30c816040516124959190613b6d565b60405180910390a180915050949350505050565b5f6124be858585856124b9612db2565b6125e0565b9050949350505050565b5f60025f8373ffffffffffffffffffffffffffffffffffffffff1673ffffffffffffffffffffffffffffffffffffffff1681526020019081526020015f205f815480929190600101919050559050919050565b5f61252d612527612e1e565b83612ed4565b9050919050565b5f5f8473ffffffffffffffffffffffffffffffffffffffff163b036125cb575f5f61255f8585612f14565b50915091505f600381111561257757612576614236565b5b81600381111561258a57612589614236565b5b1480156125c257508573ffffffffffffffffffffffffffffffffffffffff168273ffffffffffffffffffffffffffffffffffffffff16145b925050506125d9565b6125d6848484612f69565b90505b9392505050565b5f6125f4866125ef6001611f80565b611fa4565b505f612609866126038961117c565b85612c41565b90505f6126198888888588613088565b90505f84510361267c578673ffffffffffffffffffffffffffffffffffffffff167fb8e138887d0aa13bab447e82de9d5c1777041ecd21ca36ba824ff1e6c07ddda48988848960405161266f949392919061571b565b60405180910390a26126d3565b8673ffffffffffffffffffffffffffffffffffffffff167fe2babfbac5889a709b63bb7f598b324e08bc5a4fb9ec647fb3cbc9ec07eb871289888489896040516126ca9594939291906157ad565b60405180910390a25b6126dc8861327d565b809250505095945050505050565b6126f2612349565b73ffffffffffffffffffffffffffffffffffffffff16612710610be7565b73ffffffffffffffffffffffffffffffffffffffff161461276f57612733612349565b6040517f47096e470000000000000000000000000000000000000000000000000000000081526004016127669190613caa565b60405180910390fd5b3073ffffffffffffffffffffffffffffffffffffffff1661278e610be7565b73ffffffffffffffffffffffffffffffffffffffff16146127dd575f6127b2613280565b6040516127c0929190614fdd565b604051809103902090505b806127d6600561328c565b036127cb57505b565b7fc565b045403dc03c2eea82b81a0465edad9e2e7fc4d97e11421c209da93d7a9360085f9054906101000a900465ffffffffffff168260405161282392919061580c565b60405180910390a18060085f6101000a81548165ffffffffffff021916908365ffffffffffff16021790555050565b5f5f82519050603481101561286b576001915050612932565b5f61287984603484036133ba565b90507f2370726f706f7365723d0000000000000000000000000000000000000000000075ffffffffffffffffffffffffffffffffffffffffffff19168175ffffffffffffffffffffffffffffffffffffffffffff1916146128df57600192505050612932565b5f5f6128ef86602a8603866133ca565b9150915081158061292b57508673ffffffffffffffffffffffffffffffffffffffff168173ffffffffffffffffffffffffffffffffffffffff16145b9450505050505b92915050565b5f61294c8686868680519060200120611af6565b90508451865114158061296157508351865114155b8061296c57505f8651145b156129b5578551845186516040517f447b05d00000000000000000000000000000000000000000000000000000000081526004016129ac93929190614300565b60405180910390fd5b5f60045f8381526020019081526020015f205f0160149054906101000a900465ffffffffffff1665ffffffffffff1614612a3457806129f3826111f8565b5f5f1b6040517f31b75e4d000000000000000000000000000000000000000000000000000000008152600401612a2b9392919061548d565b60405180910390fd5b5f612a3d6111d6565b612a45611a56565b65ffffffffffff16612a579190615508565b90505f612a62610d40565b90505f60045f8581526020019081526020015f20905084815f015f6101000a81548173ffffffffffffffffffffffffffffffffffffffff021916908373ffffffffffffffffffffffffffffffffffffffff160217905550612ac2836134db565b815f0160146101000a81548165ffffffffffff021916908365ffffffffffff160217905550612af082613534565b815f01601a6101000a81548163ffffffff021916908363ffffffff1602179055507f7d84a6263ae0d98d3329bd7b46bb4e8d6f98cd35a7adb45c274c8b7fd5ebd5e084868b8b8d5167ffffffffffffffff811115612b5157612b50613cf5565b5b604051908082528060200260200182016040528015612b8457816020015b6060815260200190600190039081612b6f5790505b508c89898b612b939190615508565b8e604051612ba999989796959493929190615936565b60405180910390a150505095945050505050565b6060612bf25f7f000000000000000000000000000000000000000000000000000000000000000061358b90919063ffffffff16565b905090565b6060612c2d60017f000000000000000000000000000000000000000000000000000000000000000061358b90919063ffffffff16565b905090565b5f612c3c436134db565b905090565b5f612c4a611ef0565b73ffffffffffffffffffffffffffffffffffffffff16633a46b1a885856040518363ffffffff1660e01b8152600401612c849291906159e4565b602060405180830381865afa158015612c9f573d5f5f3e3d5ffd5b505050506040513d601f19601f82011682018060405250810190612cc39190615405565b90509392505050565b5f600754905090565b606082612cea57612ce582613638565b612cf2565b819050612cf3565b5b92915050565b5f8163ffffffff1603612d43575f6040517ff1cfbf05000000000000000000000000000000000000000000000000000000008152600401612d3a9190615a44565b60405180910390fd5b7f7e3f7f0708a84de9203036abaa450dccc85ad5ff52f78c170f3edb55cf5e8828600860069054906101000a900463ffffffff1682604051612d86929190615a8d565b60405180910390a180600860066101000a81548163ffffffff021916908363ffffffff16021790555050565b606060405180602001604052805f815250905090565b7fccb45da8d5717e6c4544694297c4ba5cf151d455c9bb0ed4fc7a38411bc0546160075482604051612dfb929190615ab4565b60405180910390a18060078190555050565b634e487b715f52806020526024601cfd5b5f7f000000000000000000000000000000000000000000000000000000000000000073ffffffffffffffffffffffffffffffffffffffff163073ffffffffffffffffffffffffffffffffffffffff16148015612e9957507f000000000000000000000000000000000000000000000000000000000000000046145b15612ec6577f00000000000000000000000000000000000000000000000000000000000000009050612ed1565b612ece61367c565b90505b90565b5f6040517f190100000000000000000000000000000000000000000000000000000000000081528360028201528260228201526042812091505092915050565b5f5f5f6041845103612f54575f5f5f602087015192506040870151915060608701515f1a9050612f4688828585613711565b955095509550505050612f62565b5f600285515f1b9250925092505b9250925092565b5f5f5f8573ffffffffffffffffffffffffffffffffffffffff168585604051602401612f96929190615adb565b604051602081830303815290604052631626ba7e60e01b6020820180517bffffffffffffffffffffffffffffffffffffffffffffffffffffffff8381831617835250505050604051612fe891906154f2565b5f60405180830381855afa9150503d805f8114613020576040519150601f19603f3d011682016040523d82523d5f602084013e613025565b606091505b509150915081801561303957506020815110155b801561307d5750631626ba7e60e01b7bffffffffffffffffffffffffffffffffffffffffffffffffffffffff19168180602001905181019061307b9190615b1d565b145b925050509392505050565b5f5f60095f8881526020019081526020015f209050806003015f8773ffffffffffffffffffffffffffffffffffffffff1673ffffffffffffffffffffffffffffffffffffffff1681526020019081526020015f205f9054906101000a900460ff161561312b57856040517f71c6af490000000000000000000000000000000000000000000000000000000081526004016131229190613caa565b60405180910390fd5b6001816003015f8873ffffffffffffffffffffffffffffffffffffffff1673ffffffffffffffffffffffffffffffffffffffff1681526020019081526020015f205f6101000a81548160ff0219169083151502179055505f600281111561319557613194614236565b5b60ff168560ff16036131bf5783815f015f8282546131b39190615508565b92505081905550613270565b600160028111156131d3576131d2614236565b5b60ff168560ff16036131fe5783816001015f8282546131f29190615508565b9250508190555061326f565b60028081111561321157613210614236565b5b60ff168560ff160361323c5783816002015f8282546132309190615508565b9250508190555061326e565b6040517f06b337c200000000000000000000000000000000000000000000000000000000815260040160405180910390fd5b5b5b8391505095945050505050565b50565b365f5f36915091509091565b5f5f825f015f9054906101000a90046fffffffffffffffffffffffffffffffff169050825f0160109054906101000a90046fffffffffffffffffffffffffffffffff166fffffffffffffffffffffffffffffffff16816fffffffffffffffffffffffffffffffff1603613304576133036031612e0d565b5b826001015f826fffffffffffffffffffffffffffffffff166fffffffffffffffffffffffffffffffff1681526020019081526020015f20549150826001015f826fffffffffffffffffffffffffffffffff166fffffffffffffffffffffffffffffffff1681526020019081526020015f205f905560018101835f015f6101000a8154816fffffffffffffffffffffffffffffffff02191690836fffffffffffffffffffffffffffffffff16021790555050919050565b5f81602001830151905092915050565b5f5f84518311806133da57508284115b156133ea575f5f915091506134d3565b5f6001856133f89190615508565b8411801561347057507f30780000000000000000000000000000000000000000000000000000000000007dffffffffffffffffffffffffffffffffffffffffffffffffffffffffffff191661344d87876137f8565b7dffffffffffffffffffffffffffffffffffffffffffffffffffffffffffff1916145b90505f6002613480831515613808565b61348a9190615b48565b60286134969190615508565b90508086866134a591906156e8565b036134ca575f5f6134b7898989613813565b91509150818195509550505050506134d3565b5f5f9350935050505b935093915050565b5f65ffffffffffff801682111561352c576030826040517f6dfcc650000000000000000000000000000000000000000000000000000000008152600401613523929190615bc2565b60405180910390fd5b819050919050565b5f63ffffffff8016821115613583576020826040517f6dfcc65000000000000000000000000000000000000000000000000000000000815260040161357a929190615c22565b60405180910390fd5b819050919050565b606060ff5f1b83146135a7576135a083613941565b9050613632565b8180546135b390614e1f565b80601f01602080910402602001604051908101604052809291908181526020018280546135df90614e1f565b801561362a5780601f106136015761010080835404028352916020019161362a565b820191905f5260205f20905b81548152906001019060200180831161360d57829003601f168201915b505050505090505b92915050565b5f8151111561364a5780518082602001fd5b6040517fd6bda27500000000000000000000000000000000000000000000000000000000815260040160405180910390fd5b5f7f8b73c3c69bb8fe3d512ecc4cf759cc79239f7b179b0ffacaa9a75d522b39400f7f00000000000000000000000000000000000000000000000000000000000000007f000000000000000000000000000000000000000000000000000000000000000046306040516020016136f6959493929190615c49565b60405160208183030381529060405280519060200120905090565b5f5f5f7f7fffffffffffffffffffffffffffffff5d576e7357a4501ddfe92f46681b20a0845f1c111561374d575f6003859250925092506137ee565b5f6001888888886040515f81526020016040526040516137709493929190615c9a565b6020604051602081039080840390855afa158015613790573d5f5f3e3d5ffd5b5050506020604051035190505f73ffffffffffffffffffffffffffffffffffffffff168173ffffffffffffffffffffffffffffffffffffffff16036137e1575f60015f5f1b935093509350506137ee565b805f5f5f1b935093509350505b9450945094915050565b5f81602001830151905092915050565b5f8115159050919050565b5f5f5f8590505f6001866138279190615508565b8511801561389f57507f30780000000000000000000000000000000000000000000000000000000000007dffffffffffffffffffffffffffffffffffffffffffffffffffffffffffff191661387c83886137f8565b7dffffffffffffffffffffffffffffffffffffffffffffffffffffffffffff1916145b90505f60026138af831515613808565b6138b99190615b48565b90505f5f90505f82896138cc9190615508565b90505b8781101561392c575f6138ea6138e587846137f8565b6139b3565b9050600f8160ff161115613909575f5f97509750505050505050613939565b6010836139169190615b48565b92508060ff1683019250508060010190506138cf565b5060018195509550505050505b935093915050565b60605f61394d83613a43565b90505f602067ffffffffffffffff81111561396b5761396a613cf5565b5b6040519080825280601f01601f19166020018201604052801561399d5781602001600182028036833780820191505090505b5090508181528360208201528092505050919050565b5f5f8260f81c9050602f8160ff161180156139d15750603a8160ff16105b156139e157603081039050613a39565b60608160ff161180156139f7575060678160ff16105b15613a0757605781039050613a38565b60408160ff16118015613a1d575060478160ff16105b15613a2d57603781039050613a37565b60ff915050613a3e565b5b5b809150505b919050565b5f5f60ff835f1c169050601f811115613a88576040517fb3512b0c00000000000000000000000000000000000000000000000000000000815260040160405180910390fd5b80915050919050565b5f604051905090565b5f5ffd5b5f5ffd5b5f7fffffffff0000000000000000000000000000000000000000000000000000000082169050919050565b613ad681613aa2565b8114613ae0575f5ffd5b50565b5f81359050613af181613acd565b92915050565b5f60208284031215613b0c57613b0b613a9a565b5b5f613b1984828501613ae3565b91505092915050565b5f8115159050919050565b613b3681613b22565b82525050565b5f602082019050613b4f5f830184613b2d565b92915050565b5f819050919050565b613b6781613b55565b82525050565b5f602082019050613b805f830184613b5e565b92915050565b5f81519050919050565b5f82825260208201905092915050565b8281835e5f83830152505050565b5f601f19601f8301169050919050565b5f613bc882613b86565b613bd28185613b90565b9350613be2818560208601613ba0565b613beb81613bae565b840191505092915050565b5f6020820190508181035f830152613c0e8184613bbe565b905092915050565b613c1f81613b55565b8114613c29575f5ffd5b50565b5f81359050613c3a81613c16565b92915050565b5f60208284031215613c5557613c54613a9a565b5b5f613c6284828501613c2c565b91505092915050565b5f73ffffffffffffffffffffffffffffffffffffffff82169050919050565b5f613c9482613c6b565b9050919050565b613ca481613c8a565b82525050565b5f602082019050613cbd5f830184613c9b565b92915050565b613ccc81613c8a565b8114613cd6575f5ffd5b50565b5f81359050613ce781613cc3565b92915050565b5f5ffd5b5f5ffd5b7f4e487b71000000000000000000000000000000000000000000000000000000005f52604160045260245ffd5b613d2b82613bae565b810181811067ffffffffffffffff82111715613d4a57613d49613cf5565b5b80604052505050565b5f613d5c613a91565b9050613d688282613d22565b919050565b5f67ffffffffffffffff821115613d8757613d86613cf5565b5b613d9082613bae565b9050602081019050919050565b828183375f83830152505050565b5f613dbd613db884613d6d565b613d53565b905082815260208101848484011115613dd957613dd8613cf1565b5b613de4848285613d9d565b509392505050565b5f82601f830112613e0057613dff613ced565b5b8135613e10848260208601613dab565b91505092915050565b5f5f5f5f60808587031215613e3157613e30613a9a565b5b5f613e3e87828801613cd9565b9450506020613e4f87828801613cd9565b9350506040613e6087828801613c2c565b925050606085013567ffffffffffffffff811115613e8157613e80613a9e565b5b613e8d87828801613dec565b91505092959194509250565b613ea281613aa2565b82525050565b5f602082019050613ebb5f830184613e99565b92915050565b5f67ffffffffffffffff821115613edb57613eda613cf5565b5b602082029050602081019050919050565b5f5ffd5b5f613f02613efd84613ec1565b613d53565b90508083825260208201905060208402830185811115613f2557613f24613eec565b5b835b81811015613f4e5780613f3a8882613cd9565b845260208401935050602081019050613f27565b5050509392505050565b5f82601f830112613f6c57613f6b613ced565b5b8135613f7c848260208601613ef0565b91505092915050565b5f67ffffffffffffffff821115613f9f57613f9e613cf5565b5b602082029050602081019050919050565b5f613fc2613fbd84613f85565b613d53565b90508083825260208201905060208402830185811115613fe557613fe4613eec565b5b835b8181101561400e5780613ffa8882613c2c565b845260208401935050602081019050613fe7565b5050509392505050565b5f82601f83011261402c5761402b613ced565b5b813561403c848260208601613fb0565b91505092915050565b5f67ffffffffffffffff82111561405f5761405e613cf5565b5b602082029050602081019050919050565b5f61408261407d84614045565b613d53565b905080838252602082019050602084028301858111156140a5576140a4613eec565b5b835b818110156140ec57803567ffffffffffffffff8111156140ca576140c9613ced565b5b8086016140d78982613dec565b855260208501945050506020810190506140a7565b5050509392505050565b5f82601f83011261410a57614109613ced565b5b813561411a848260208601614070565b91505092915050565b5f819050919050565b61413581614123565b811461413f575f5ffd5b50565b5f813590506141508161412c565b92915050565b5f5f5f5f6080858703121561416e5761416d613a9a565b5b5f85013567ffffffffffffffff81111561418b5761418a613a9e565b5b61419787828801613f58565b945050602085013567ffffffffffffffff8111156141b8576141b7613a9e565b5b6141c487828801614018565b935050604085013567ffffffffffffffff8111156141e5576141e4613a9e565b5b6141f1878288016140f6565b925050606061420287828801614142565b91505092959194509250565b61421781614123565b82525050565b5f6020820190506142305f83018461420e565b92915050565b7f4e487b71000000000000000000000000000000000000000000000000000000005f52602160045260245ffd5b6008811061427457614273614236565b5b50565b5f81905061428482614263565b919050565b5f61429382614277565b9050919050565b6142a381614289565b82525050565b5f6020820190506142bc5f83018461429a565b92915050565b5f5f604083850312156142d8576142d7613a9a565b5b5f6142e585828601613c2c565b92505060206142f685828601613cd9565b9150509250929050565b5f6060820190506143135f830186613b5e565b6143206020830185613b5e565b61432d6040830184613b5e565b949350505050565b5f60ff82169050919050565b61434a81614335565b8114614354575f5ffd5b50565b5f8135905061436581614341565b92915050565b5f5f6040838503121561438157614380613a9a565b5b5f61438e85828601613c2c565b925050602061439f85828601614357565b9150509250929050565b5f5ffd5b5f5f83601f8401126143c2576143c1613ced565b5b8235905067ffffffffffffffff8111156143df576143de6143a9565b5b6020830191508360018202830111156143fb576143fa613eec565b5b9250929050565b5f5f5f5f5f5f5f60c0888a03121561441d5761441c613a9a565b5b5f61442a8a828b01613c2c565b975050602061443b8a828b01614357565b965050604061444c8a828b01613cd9565b955050606088013567ffffffffffffffff81111561446d5761446c613a9e565b5b6144798a828b016143ad565b9450945050608088013567ffffffffffffffff81111561449c5761449b613a9e565b5b6144a88a828b01613dec565b92505060a088013567ffffffffffffffff8111156144c9576144c8613a9e565b5b6144d58a828b01613dec565b91505092959891949750929550565b5f5f5f5f5f608086880312156144fd576144fc613a9a565b5b5f61450a88828901613c2c565b955050602061451b88828901614357565b945050604086013567ffffffffffffffff81111561453c5761453b613a9e565b5b614548888289016143ad565b9350935050606086013567ffffffffffffffff81111561456b5761456a613a9e565b5b61457788828901613dec565b9150509295509295909350565b5f65ffffffffffff82169050919050565b61459e81614584565b81146145a8575f5ffd5b50565b5f813590506145b981614595565b92915050565b5f602082840312156145d4576145d3613a9a565b5b5f6145e1848285016145ab565b91505092915050565b5f5f5f5f6060858703121561460257614601613a9a565b5b5f61460f87828801613c2c565b945050602061462087828801614357565b935050604085013567ffffffffffffffff81111561464157614640613a9e565b5b61464d878288016143ad565b925092505092959194509250565b5f67ffffffffffffffff82111561467557614674613cf5565b5b61467e82613bae565b9050602081019050919050565b5f61469d6146988461465b565b613d53565b9050828152602081018484840111156146b9576146b8613cf1565b5b6146c4848285613d9d565b509392505050565b5f82601f8301126146e0576146df613ced565b5b81356146f084826020860161468b565b91505092915050565b5f5f5f5f6080858703121561471157614710613a9a565b5b5f85013567ffffffffffffffff81111561472e5761472d613a9e565b5b61473a87828801613f58565b945050602085013567ffffffffffffffff81111561475b5761475a613a9e565b5b61476787828801614018565b935050604085013567ffffffffffffffff81111561478857614787613a9e565b5b614794878288016140f6565b925050606085013567ffffffffffffffff8111156147b5576147b4613a9e565b5b6147c1878288016146cc565b91505092959194509250565b5f602082840312156147e2576147e1613a9a565b5b5f6147ef84828501613cd9565b91505092915050565b5f7fff0000000000000000000000000000000000000000000000000000000000000082169050919050565b61482c816147f8565b82525050565b5f81519050919050565b5f82825260208201905092915050565b5f819050602082019050919050565b61486481613b55565b82525050565b5f614875838361485b565b60208301905092915050565b5f602082019050919050565b5f61489782614832565b6148a1818561483c565b93506148ac8361484c565b805f5b838110156148dc5781516148c3888261486a565b97506148ce83614881565b9250506001810190506148af565b5085935050505092915050565b5f60e0820190506148fc5f83018a614823565b818103602083015261490e8189613bbe565b905081810360408301526149228188613bbe565b90506149316060830187613b5e565b61493e6080830186613c9b565b61494b60a083018561420e565b81810360c083015261495d818461488d565b905098975050505050505050565b5f5f5f5f6080858703121561498357614982613a9a565b5b5f61499087828801613c2c565b94505060206149a187828801614357565b93505060406149b287828801613cd9565b925050606085013567ffffffffffffffff8111156149d3576149d2613a9e565b5b6149df87828801613dec565b91505092959194509250565b6149f481614584565b82525050565b5f602082019050614a0d5f8301846149eb565b92915050565b5f5f5f60608486031215614a2a57614a29613a9a565b5b5f614a3786828701613cd9565b9350506020614a4886828701613c2c565b925050604084013567ffffffffffffffff811115614a6957614a68613a9e565b5b614a7586828701613dec565b9150509250925092565b5f819050919050565b5f614aa2614a9d614a9884613c6b565b614a7f565b613c6b565b9050919050565b5f614ab382614a88565b9050919050565b5f614ac482614aa9565b9050919050565b614ad481614aba565b82525050565b5f602082019050614aed5f830184614acb565b92915050565b5f5f5f5f5f60a08688031215614b0c57614b0b613a9a565b5b5f614b1988828901613cd9565b9550506020614b2a88828901613cd9565b945050604086013567ffffffffffffffff811115614b4b57614b4a613a9e565b5b614b5788828901614018565b935050606086013567ffffffffffffffff811115614b7857614b77613a9e565b5b614b8488828901614018565b925050608086013567ffffffffffffffff811115614ba557614ba4613a9e565b5b614bb188828901613dec565b9150509295509295909350565b5f5f83601f840112614bd357614bd2613ced565b5b8235905067ffffffffffffffff811115614bf057614bef6143a9565b5b602083019150836001820283011115614c0c57614c0b613eec565b5b9250929050565b5f5f5f5f60608587031215614c2b57614c2a613a9a565b5b5f614c3887828801613cd9565b9450506020614c4987828801613c2c565b935050604085013567ffffffffffffffff811115614c6a57614c69613a9e565b5b614c7687828801614bbe565b925092505092959194509250565b5f63ffffffff82169050919050565b614c9c81614c84565b8114614ca6575f5ffd5b50565b5f81359050614cb781614c93565b92915050565b5f60208284031215614cd257614cd1613a9a565b5b5f614cdf84828501614ca9565b91505092915050565b5f5f60408385031215614cfe57614cfd613a9a565b5b5f614d0b85828601613cd9565b9250506020614d1c85828601613c2c565b9150509250929050565b5f5f5f5f5f60a08688031215614d3f57614d3e613a9a565b5b5f614d4c88828901613cd9565b9550506020614d5d88828901613cd9565b9450506040614d6e88828901613c2c565b9350506060614d7f88828901613c2c565b925050608086013567ffffffffffffffff811115614da057614d9f613a9e565b5b614dac88828901613dec565b9150509295509295909350565b5f614dc382614aa9565b9050919050565b614dd381614db9565b82525050565b5f602082019050614dec5f830184614dca565b92915050565b7f4e487b71000000000000000000000000000000000000000000000000000000005f52602260045260245ffd5b5f6002820490506001821680614e3657607f821691505b602082108103614e4957614e48614df2565b5b50919050565b5f614e69614e64614e5f84614584565b614a7f565b613b55565b9050919050565b614e7981614e4f565b82525050565b5f604082019050614e925f830185613b5e565b614e9f6020830184614e70565b9392505050565b7f4e487b71000000000000000000000000000000000000000000000000000000005f52603260045260245ffd5b5f604082019050614ee65f830185613b5e565b614ef36020830184613c9b565b9392505050565b5f614f0c614f078461465b565b613d53565b905082815260208101848484011115614f2857614f27613cf1565b5b614f33848285613ba0565b509392505050565b5f82601f830112614f4f57614f4e613ced565b5b8151614f5f848260208601614efa565b91505092915050565b5f60208284031215614f7d57614f7c613a9a565b5b5f82015167ffffffffffffffff811115614f9a57614f99613a9e565b5b614fa684828501614f3b565b91505092915050565b5f81905092915050565b5f614fc48385614faf565b9350614fd1838584613d9d565b82840190509392505050565b5f614fe9828486614fb9565b91508190509392505050565b614ffe81614335565b82525050565b5f60e0820190506150175f83018a61420e565b6150246020830189613b5e565b6150316040830188614ff5565b61503e6060830187613c9b565b61504b6080830186613b5e565b61505860a083018561420e565b61506560c083018461420e565b98975050505050505050565b7f4e487b71000000000000000000000000000000000000000000000000000000005f52601160045260245ffd5b5f6150a882614584565b91506150b383614584565b9250828203905065ffffffffffff8111156150d1576150d0615071565b5b92915050565b5f6060820190506150ea5f830186613c9b565b6150f76020830185613b5e565b6151046040830184613b5e565b949350505050565b5f60a08201905061511f5f83018861420e565b61512c6020830187613b5e565b6151396040830186614ff5565b6151466060830185613c9b565b6151536080830184613b5e565b9695505050505050565b5f8151905061516b81614595565b92915050565b5f6020828403121561518657615185613a9a565b5b5f6151938482850161515d565b91505092915050565b5f6151a682614584565b91506151b183614584565b9250828201905065ffffffffffff8111156151cf576151ce615071565b5b92915050565b5f81519050919050565b5f82825260208201905092915050565b5f819050602082019050919050565b61520781613c8a565b82525050565b5f61521883836151fe565b60208301905092915050565b5f602082019050919050565b5f61523a826151d5565b61524481856151df565b935061524f836151ef565b805f5b8381101561527f578151615266888261520d565b975061527183615224565b925050600181019050615252565b5085935050505092915050565b5f81519050919050565b5f82825260208201905092915050565b5f819050602082019050919050565b5f81519050919050565b5f82825260208201905092915050565b5f6152d9826152b5565b6152e381856152bf565b93506152f3818560208601613ba0565b6152fc81613bae565b840191505092915050565b5f61531283836152cf565b905092915050565b5f602082019050919050565b5f6153308261528c565b61533a8185615296565b93508360208202850161534c856152a6565b805f5b8581101561538757848403895281516153688582615307565b94506153738361531a565b925060208a0199505060018101905061534f565b50829750879550505050505092915050565b5f6080820190508181035f8301526153b18187615230565b905081810360208301526153c5818661488d565b905081810360408301526153d98185615326565b90506153e8606083018461420e565b95945050505050565b5f815190506153ff81613c16565b92915050565b5f6020828403121561541a57615419613a9a565b5b5f615427848285016153f1565b91505092915050565b7f4e487b71000000000000000000000000000000000000000000000000000000005f52601260045260245ffd5b5f61546782613b55565b915061547283613b55565b92508261548257615481615430565b5b828204905092915050565b5f6060820190506154a05f830186613b5e565b6154ad602083018561429a565b6154ba604083018461420e565b949350505050565b5f6154cc826152b5565b6154d68185614faf565b93506154e6818560208601613ba0565b80840191505092915050565b5f6154fd82846154c2565b915081905092915050565b5f61551282613b55565b915061551d83613b55565b925082820190508082111561553557615534615071565b5b92915050565b5f61554582614335565b915061555083614335565b9250828201905060ff81111561556957615568615071565b5b92915050565b5f8160011c9050919050565b5f5f8291508390505b60018511156155c4578086048111156155a05761559f615071565b5b60018516156155af5780820291505b80810290506155bd8561556f565b9450615584565b94509492505050565b5f826155dc5760019050615697565b816155e9575f9050615697565b81600181146155ff576002811461560957615638565b6001915050615697565b60ff84111561561b5761561a615071565b5b8360020a91508482111561563257615631615071565b5b50615697565b5060208310610133831016604e8410600b841016171561566d5782820a90508381111561566857615667615071565b5b615697565b61567a848484600161557b565b9250905081840481111561569157615690615071565b5b81810290505b9392505050565b5f6156a882613b55565b91506156b383614335565b92506156e07fffffffffffffffffffffffffffffffffffffffffffffffffffffffffffffffff84846155cd565b905092915050565b5f6156f282613b55565b91506156fd83613b55565b925082820390508181111561571557615714615071565b5b92915050565b5f60808201905061572e5f830187613b5e565b61573b6020830186614ff5565b6157486040830185613b5e565b818103606083015261575a8184613bbe565b905095945050505050565b5f82825260208201905092915050565b5f61577f826152b5565b6157898185615765565b9350615799818560208601613ba0565b6157a281613bae565b840191505092915050565b5f60a0820190506157c05f830188613b5e565b6157cd6020830187614ff5565b6157da6040830186613b5e565b81810360608301526157ec8185613bbe565b905081810360808301526158008184615775565b90509695505050505050565b5f60408201905061581f5f830185614e70565b61582c6020830184614e70565b9392505050565b5f81519050919050565b5f82825260208201905092915050565b5f819050602082019050919050565b5f82825260208201905092915050565b5f61587682613b86565b615880818561585c565b9350615890818560208601613ba0565b61589981613bae565b840191505092915050565b5f6158af838361586c565b905092915050565b5f602082019050919050565b5f6158cd82615833565b6158d7818561583d565b9350836020820285016158e98561584d565b805f5b85811015615924578484038952815161590585826158a4565b9450615910836158b7565b925060208a019950506001810190506158ec565b50829750879550505050505092915050565b5f6101208201905061594a5f83018c613b5e565b615957602083018b613c9b565b8181036040830152615969818a615230565b9050818103606083015261597d818961488d565b9050818103608083015261599181886158c3565b905081810360a08301526159a58187615326565b90506159b460c0830186613b5e565b6159c160e0830185613b5e565b8181036101008301526159d48184613bbe565b90509a9950505050505050505050565b5f6040820190506159f75f830185613c9b565b615a046020830184613b5e565b9392505050565b5f819050919050565b5f615a2e615a29615a2484615a0b565b614a7f565b613b55565b9050919050565b615a3e81615a14565b82525050565b5f602082019050615a575f830184615a35565b92915050565b5f615a77615a72615a6d84614c84565b614a7f565b613b55565b9050919050565b615a8781615a5d565b82525050565b5f604082019050615aa05f830185615a7e565b615aad6020830184615a7e565b9392505050565b5f604082019050615ac75f830185613b5e565b615ad46020830184613b5e565b9392505050565b5f604082019050615aee5f83018561420e565b8181036020830152615b008184615775565b90509392505050565b5f81519050615b178161412c565b92915050565b5f60208284031215615b3257615b31613a9a565b5b5f615b3f84828501615b09565b91505092915050565b5f615b5282613b55565b9150615b5d83613b55565b9250828202615b6b81613b55565b91508282048414831517615b8257615b81615071565b5b5092915050565b5f819050919050565b5f615bac615ba7615ba284615b89565b614a7f565b614335565b9050919050565b615bbc81615b92565b82525050565b5f604082019050615bd55f830185615bb3565b615be26020830184613b5e565b9392505050565b5f819050919050565b5f615c0c615c07615c0284615be9565b614a7f565b614335565b9050919050565b615c1c81615bf2565b82525050565b5f604082019050615c355f830185615c13565b615c426020830184613b5e565b9392505050565b5f60a082019050615c5c5f83018861420e565b615c69602083018761420e565b615c76604083018661420e565b615c836060830185613b5e565b615c906080830184613c9b565b9695505050505050565b5f608082019050615cad5f83018761420e565b615cba6020830186614ff5565b615cc7604083018561420e565b615cd4606083018461420e565b9594505050505056fea2646970667358221220c44a843060b9fb3841aaaf6b14a31e7d29ef3420ae79864d9e21bdcf57c2107364736f6c634300081e0033",
			"opcodes": "PUSH2 0x1A0 PUSH1 0x40 MSTORE CALLVALUE DUP1 ISZERO PUSH2 0x10 JUMPI PUSH0 PUSH0 REVERT JUMPDEST POP PUSH1 0x40 MLOAD PUSH2 0x68B4 CODESIZE SUB DUP1 PUSH2 0x68B4 DUP4 CODECOPY DUP2 DUP2 ADD PUSH1 0x40 MSTORE DUP2 ADD SWAP1 PUSH2 0x32 SWAP2 SWAP1 PUSH2 0x517 JUMP JUMPDEST DUP1 PUSH3 0x15180 PUSH3 0x93A80 PUSH9 0x3635C9ADC5DEA00000 PUSH1 0x40 MLOAD DUP1 PUSH1 0x40 ADD PUSH1 0x40 MSTORE DUP1 PUSH1 0xD DUP2 MSTORE PUSH1 0x20 ADD PUSH32 0x4372656453706865726544414F00000000000000000000000000000000000000 DUP2 MSTORE POP DUP1 PUSH2 0x8A PUSH2 0x1E5 PUSH1 0x20 SHL PUSH1 0x20 SHR JUMP JUMPDEST PUSH2 0x9D PUSH0 DUP4 PUSH2 0x222 PUSH1 0x20 SHL SWAP1 SWAP2 SWAP1 PUSH1 0x20 SHR JUMP JUMPDEST PUSH2 0x120 DUP2 DUP2 MSTORE POP POP PUSH2 0xB9 PUSH1 0x1 DUP3 PUSH2 0x222 PUSH1 0x20 SHL SWAP1 SWAP2 SWAP1 PUSH1 0x20 SHR JUMP JUMPDEST PUSH2 0x140 DUP2 DUP2 MSTORE POP POP DUP2 DUP1 MLOAD SWAP1 PUSH1 0x20 ADD KECCAK256 PUSH1 0xE0 DUP2 DUP2 MSTORE POP POP DUP1 DUP1 MLOAD SWAP1 PUSH1 0x20 ADD KECCAK256 PUSH2 0x100 DUP2 DUP2 MSTORE POP POP CHAINID PUSH1 0xA0 DUP2 DUP2 MSTORE POP POP PUSH2 0xF6 PUSH2 0x26F PUSH1 0x20 SHL PUSH1 0x20 SHR JUMP JUMPDEST PUSH1 0x80 DUP2 DUP2 MSTORE POP POP ADDRESS PUSH20 0xFFFFFFFFFFFFFFFFFFFFFFFFFFFFFFFFFFFFFFFF AND PUSH1 0xC0 DUP2 PUSH20 0xFFFFFFFFFFFFFFFFFFFFFFFFFFFFFFFFFFFFFFFF AND DUP2 MSTORE POP POP POP POP DUP1 PUSH1 0x3 SWAP1 DUP2 PUSH2 0x142 SWAP2 SWAP1 PUSH2 0x77F JUMP JUMPDEST POP POP PUSH2 0x153 DUP4 PUSH2 0x2C9 PUSH1 0x20 SHL PUSH1 0x20 SHR JUMP JUMPDEST PUSH2 0x162 DUP3 PUSH2 0x33C PUSH1 0x20 SHL PUSH1 0x20 SHR JUMP JUMPDEST PUSH2 0x171 DUP2 PUSH2 0x3F5 PUSH1 0x20 SHL PUSH1 0x20 SHR JUMP JUMPDEST POP POP POP DUP1 PUSH20 0xFFFFFFFFFFFFFFFFFFFFFFFFFFFFFFFFFFFFFFFF AND PUSH2 0x160 DUP2 PUSH20 0xFFFFFFFFFFFFFFFFFFFFFFFFFFFFFFFFFFFFFFFF AND DUP2 MSTORE POP POP POP DUP1 PUSH20 0xFFFFFFFFFFFFFFFFFFFFFFFFFFFFFFFFFFFFFFFF AND PUSH2 0x180 DUP2 PUSH20 0xFFFFFFFFFFFFFFFFFFFFFFFFFFFFFFFFFFFFFFFF AND DUP2 MSTORE POP POP POP PUSH2 0xB35 JUMP JUMPDEST PUSH1 0x60 PUSH1 0x40 MLOAD DUP1 PUSH1 0x40 ADD PUSH1 0x40 MSTORE DUP1 PUSH1 0x1 DUP2 MSTORE PUSH1 0x20 ADD PUSH32 0x3100000000000000000000000000000000000000000000000000000000000000 DUP2 MSTORE POP SWAP1 POP SWAP1 JUMP JUMPDEST PUSH0 PUSH1 0x20 DUP4 MLOAD LT ISZERO PUSH2 0x243 JUMPI PUSH2 0x23C DUP4 PUSH2 0x43A PUSH1 0x20 SHL PUSH1 0x20 SHR JUMP JUMPDEST SWAP1 POP PUSH2 0x269 JUMP JUMPDEST DUP3 PUSH2 0x253 DUP4 PUSH2 0x49F PUSH1 0x20 SHL PUSH1 0x20 SHR JUMP JUMPDEST PUSH0 ADD SWAP1 DUP2 PUSH2 0x261 SWAP2 SWAP1 PUSH2 0x77F JUMP JUMPDEST POP PUSH1 0xFF PUSH0 SHL SWAP1 POP JUMPDEST SWAP3 SWAP2 POP POP JUMP JUMPDEST PUSH0 PUSH32 0x8B73C3C69BB8FE3D512ECC4CF759CC79239F7B179B0FFACAA9A75D522B39400F PUSH1 0xE0 MLOAD PUSH2 0x100 MLOAD CHAINID ADDRESS PUSH1 0x40 MLOAD PUSH1 0x20 ADD PUSH2 0x2AE SWAP6 SWAP5 SWAP4 SWAP3 SWAP2 SWAP1 PUSH2 0x884 JUMP JUMPDEST PUSH1 0x40 MLOAD PUSH1 0x20 DUP2 DUP4 SUB SUB DUP2 MSTORE SWAP1 PUSH1 0x40 MSTORE DUP1 MLOAD SWAP1 PUSH1 0x20 ADD KECCAK256 SWAP1 POP SWAP1 JUMP JUMPDEST PUSH32 0xC565B045403DC03C2EEA82B81A0465EDAD9E2E7FC4D97E11421C209DA93D7A93 PUSH1 0x8 PUSH0 SWAP1 SLOAD SWAP1 PUSH2 0x100 EXP SWAP1 DIV PUSH6 0xFFFFFFFFFFFF AND DUP3 PUSH1 0x40 MLOAD PUSH2 0x30D SWAP3 SWAP2 SWAP1 PUSH2 0x916 JUMP JUMPDEST PUSH1 0x40 MLOAD DUP1 SWAP2 SUB SWAP1 LOG1 DUP1 PUSH1 0x8 PUSH0 PUSH2 0x100 EXP DUP2 SLOAD DUP2 PUSH6 0xFFFFFFFFFFFF MUL NOT AND SWAP1 DUP4 PUSH6 0xFFFFFFFFFFFF AND MUL OR SWAP1 SSTORE POP POP JUMP JUMPDEST PUSH0 DUP2 PUSH4 0xFFFFFFFF AND SUB PUSH2 0x386 JUMPI PUSH0 PUSH1 0x40 MLOAD PUSH32 0xF1CFBF0500000000000000000000000000000000000000000000000000000000 DUP2 MSTORE PUSH1 0x4 ADD PUSH2 0x37D SWAP2 SWAP1 PUSH2 0x976 JUMP JUMPDEST PUSH1 0x40 MLOAD DUP1 SWAP2 SUB SWAP1 REVERT JUMPDEST PUSH32 0x7E3F7F0708A84DE9203036ABAA450DCCC85AD5FF52F78C170F3EDB55CF5E8828 PUSH1 0x8 PUSH1 0x6 SWAP1 SLOAD SWAP1 PUSH2 0x100 EXP SWAP1 DIV PUSH4 0xFFFFFFFF AND DUP3 PUSH1 0x40 MLOAD PUSH2 0x3C9 SWAP3 SWAP2 SWAP1 PUSH2 0x9CE JUMP JUMPDEST PUSH1 0x40 MLOAD DUP1 SWAP2 SUB SWAP1 LOG1 DUP1 PUSH1 0x8 PUSH1 0x6 PUSH2 0x100 EXP DUP2 SLOAD DUP2 PUSH4 0xFFFFFFFF MUL NOT AND SWAP1 DUP4 PUSH4 0xFFFFFFFF AND MUL OR SWAP1 SSTORE POP POP JUMP JUMPDEST PUSH32 0xCCB45DA8D5717E6C4544694297C4BA5CF151D455C9BB0ED4FC7A38411BC05461 PUSH1 0x7 SLOAD DUP3 PUSH1 0x40 MLOAD PUSH2 0x428 SWAP3 SWAP2 SWAP1 PUSH2 0x9F5 JUMP JUMPDEST PUSH1 0x40 MLOAD DUP1 SWAP2 SUB SWAP1 LOG1 DUP1 PUSH1 0x7 DUP2 SWAP1 SSTORE POP POP JUMP JUMPDEST PUSH0 PUSH0 DUP3 SWAP1 POP PUSH1 0x1F DUP2 MLOAD GT ISZERO PUSH2 0x486 JUMPI DUP3 PUSH1 0x40 MLOAD PUSH32 0x305A27A900000000000000000000000000000000000000000000000000000000 DUP2 MSTORE PUSH1 0x4 ADD PUSH2 0x47D SWAP2 SWAP1 PUSH2 0xA82 JUMP JUMPDEST PUSH1 0x40 MLOAD DUP1 SWAP2 SUB SWAP1 REVERT JUMPDEST DUP1 MLOAD DUP2 PUSH2 0x492 SWAP1 PUSH2 0xACF JUMP JUMPDEST PUSH0 SHR OR PUSH0 SHL SWAP2 POP POP SWAP2 SWAP1 POP JUMP JUMPDEST PUSH0 DUP2 SWAP1 POP SWAP2 SWAP1 POP JUMP JUMPDEST PUSH0 PUSH0 REVERT JUMPDEST PUSH0 PUSH20 0xFFFFFFFFFFFFFFFFFFFFFFFFFFFFFFFFFFFFFFFF DUP3 AND SWAP1 POP SWAP2 SWAP1 POP JUMP JUMPDEST PUSH0 PUSH2 0x4D5 DUP3 PUSH2 0x4AC JUMP JUMPDEST SWAP1 POP SWAP2 SWAP1 POP JUMP JUMPDEST PUSH0 PUSH2 0x4E6 DUP3 PUSH2 0x4CB JUMP JUMPDEST SWAP1 POP SWAP2 SWAP1 POP JUMP JUMPDEST PUSH2 0x4F6 DUP2 PUSH2 0x4DC JUMP JUMPDEST DUP2 EQ PUSH2 0x500 JUMPI PUSH0 PUSH0 REVERT JUMPDEST POP JUMP JUMPDEST PUSH0 DUP2 MLOAD SWAP1 POP PUSH2 0x511 DUP2 PUSH2 0x4ED JUMP JUMPDEST SWAP3 SWAP2 POP POP JUMP JUMPDEST PUSH0 PUSH1 0x20 DUP3 DUP5 SUB SLT ISZERO PUSH2 0x52C JUMPI PUSH2 0x52B PUSH2 0x4A8 JUMP JUMPDEST JUMPDEST PUSH0 PUSH2 0x539 DUP5 DUP3 DUP6 ADD PUSH2 0x503 JUMP JUMPDEST SWAP2 POP POP SWAP3 SWAP2 POP POP JUMP JUMPDEST PUSH0 DUP2 MLOAD SWAP1 POP SWAP2 SWAP1 POP JUMP JUMPDEST PUSH32 0x4E487B7100000000000000000000000000000000000000000000000000000000 PUSH0 MSTORE PUSH1 0x41 PUSH1 0x4 MSTORE PUSH1 0x24 PUSH0 REVERT JUMPDEST PUSH32 0x4E487B7100000000000000000000000000000000000000000000000000000000 PUSH0 MSTORE PUSH1 0x22 PUSH1 0x4 MSTORE PUSH1 0x24 PUSH0 REVERT JUMPDEST PUSH0 PUSH1 0x2 DUP3 DIV SWAP1 POP PUSH1 0x1 DUP3 AND DUP1 PUSH2 0x5BD JUMPI PUSH1 0x7F DUP3 AND SWAP2 POP JUMPDEST PUSH1 0x20 DUP3 LT DUP2 SUB PUSH2 0x5D0 JUMPI PUSH2 0x5CF PUSH2 0x579 JUMP JUMPDEST JUMPDEST POP SWAP2 SWAP1 POP JUMP JUMPDEST PUSH0 DUP2 SWAP1 POP DUP2 PUSH0 MSTORE PUSH1 0x20 PUSH0 KECCAK256 SWAP1 POP SWAP2 SWAP1 POP JUMP JUMPDEST PUSH0 PUSH1 0x20 PUSH1 0x1F DUP4 ADD DIV SWAP1 POP SWAP2 SWAP1 POP JUMP JUMPDEST PUSH0 DUP3 DUP3 SHL SWAP1 POP SWAP3 SWAP2 POP POP JUMP JUMPDEST PUSH0 PUSH1 0x8 DUP4 MUL PUSH2 0x632 PUSH32 0xFFFFFFFFFFFFFFFFFFFFFFFFFFFFFFFFFFFFFFFFFFFFFFFFFFFFFFFFFFFFFFFF DUP3 PUSH2 0x5F7 JUMP JUMPDEST PUSH2 0x63C DUP7 DUP4 PUSH2 0x5F7 JUMP JUMPDEST SWAP6 POP DUP1 NOT DUP5 AND SWAP4 POP DUP1 DUP7 AND DUP5 OR SWAP3 POP POP POP SWAP4 SWAP3 POP POP POP JUMP JUMPDEST PUSH0 DUP2 SWAP1 POP SWAP2 SWAP1 POP JUMP JUMPDEST PUSH0 DUP2 SWAP1 POP SWAP2 SWAP1 POP JUMP JUMPDEST PUSH0 PUSH2 0x680 PUSH2 0x67B PUSH2 0x676 DUP5 PUSH2 0x654 JUMP JUMPDEST PUSH2 0x65D JUMP JUMPDEST PUSH2 0x654 JUMP JUMPDEST SWAP1 POP SWAP2 SWAP1 POP JUMP JUMPDEST PUSH0 DUP2 SWAP1 POP SWAP2 SWAP1 POP JUMP JUMPDEST PUSH2 0x699 DUP4 PUSH2 0x666 JUMP JUMPDEST PUSH2 0x6AD PUSH2 0x6A5 DUP3 PUSH2 0x687 JUMP JUMPDEST DUP5 DUP5 SLOAD PUSH2 0x603 JUMP JUMPDEST DUP3 SSTORE POP POP POP POP JUMP JUMPDEST PUSH0 PUSH0 SWAP1 POP SWAP1 JUMP JUMPDEST PUSH2 0x6C4 PUSH2 0x6B5 JUMP JUMPDEST PUSH2 0x6CF DUP2 DUP5 DUP5 PUSH2 0x690 JUMP JUMPDEST POP POP POP JUMP JUMPDEST JUMPDEST DUP2 DUP2 LT ISZERO PUSH2 0x6F2 JUMPI PUSH2 0x6E7 PUSH0 DUP3 PUSH2 0x6BC JUMP JUMPDEST PUSH1 0x1 DUP2 ADD SWAP1 POP PUSH2 0x6D5 JUMP JUMPDEST POP POP JUMP JUMPDEST PUSH1 0x1F DUP3 GT ISZERO PUSH2 0x737 JUMPI PUSH2 0x708 DUP2 PUSH2 0x5D6 JUMP JUMPDEST PUSH2 0x711 DUP5 PUSH2 0x5E8 JUMP JUMPDEST DUP2 ADD PUSH1 0x20 DUP6 LT ISZERO PUSH2 0x720 JUMPI DUP2 SWAP1 POP JUMPDEST PUSH2 0x734 PUSH2 0x72C DUP6 PUSH2 0x5E8 JUMP JUMPDEST DUP4 ADD DUP3 PUSH2 0x6D4 JUMP JUMPDEST POP POP JUMPDEST POP POP POP JUMP JUMPDEST PUSH0 DUP3 DUP3 SHR SWAP1 POP SWAP3 SWAP2 POP POP JUMP JUMPDEST PUSH0 PUSH2 0x757 PUSH0 NOT DUP5 PUSH1 0x8 MUL PUSH2 0x73C JUMP JUMPDEST NOT DUP1 DUP4 AND SWAP2 POP POP SWAP3 SWAP2 POP POP JUMP JUMPDEST PUSH0 PUSH2 0x76F DUP4 DUP4 PUSH2 0x748 JUMP JUMPDEST SWAP2 POP DUP3 PUSH1 0x2 MUL DUP3 OR SWAP1 POP SWAP3 SWAP2 POP POP JUMP JUMPDEST PUSH2 0x788 DUP3 PUSH2 0x542 JUMP JUMPDEST PUSH8 0xFFFFFFFFFFFFFFFF DUP2 GT ISZERO PUSH2 0x7A1 JUMPI PUSH2 0x7A0 PUSH2 0x54C JUMP JUMPDEST JUMPDEST PUSH2 0x7AB DUP3 SLOAD PUSH2 0x5A6 JUMP JUMPDEST PUSH2 0x7B6 DUP3 DUP3 DUP6 PUSH2 0x6F6 JUMP JUMPDEST PUSH0 PUSH1 0x20 SWAP1 POP PUSH1 0x1F DUP4 GT PUSH1 0x1 DUP2 EQ PUSH2 0x7E7 JUMPI PUSH0 DUP5 ISZERO PUSH2 0x7D5 JUMPI DUP3 DUP8 ADD MLOAD SWAP1 POP JUMPDEST PUSH2 0x7DF DUP6 DUP3 PUSH2 0x764 JUMP JUMPDEST DUP7 SSTORE POP PUSH2 0x846 JUMP JUMPDEST PUSH1 0x1F NOT DUP5 AND PUSH2 0x7F5 DUP7 PUSH2 0x5D6 JUMP JUMPDEST PUSH0 JUMPDEST DUP3 DUP2 LT ISZERO PUSH2 0x81C JUMPI DUP5 DUP10 ADD MLOAD DUP3 SSTORE PUSH1 0x1 DUP3 ADD SWAP2 POP PUSH1 0x20 DUP6 ADD SWAP5 POP PUSH1 0x20 DUP2 ADD SWAP1 POP PUSH2 0x7F7 JUMP JUMPDEST DUP7 DUP4 LT ISZERO PUSH2 0x839 JUMPI DUP5 DUP10 ADD MLOAD PUSH2 0x835 PUSH1 0x1F DUP10 AND DUP3 PUSH2 0x748 JUMP JUMPDEST DUP4 SSTORE POP JUMPDEST PUSH1 0x1 PUSH1 0x2 DUP9 MUL ADD DUP9 SSTORE POP POP POP JUMPDEST POP POP POP POP POP POP JUMP JUMPDEST PUSH0 DUP2 SWAP1 POP SWAP2 SWAP1 POP JUMP JUMPDEST PUSH2 0x860 DUP2 PUSH2 0x84E JUMP JUMPDEST DUP3 MSTORE POP POP JUMP JUMPDEST PUSH2 0x86F DUP2 PUSH2 0x654 JUMP JUMPDEST DUP3 MSTORE POP POP JUMP JUMPDEST PUSH2 0x87E DUP2 PUSH2 0x4CB JUMP JUMPDEST DUP3 MSTORE POP POP JUMP JUMPDEST PUSH0 PUSH1 0xA0 DUP3 ADD SWAP1 POP PUSH2 0x897 PUSH0 DUP4 ADD DUP9 PUSH2 0x857 JUMP JUMPDEST PUSH2 0x8A4 PUSH1 0x20 DUP4 ADD DUP8 PUSH2 0x857 JUMP JUMPDEST PUSH2 0x8B1 PUSH1 0x40 DUP4 ADD DUP7 PUSH2 0x857 JUMP JUMPDEST PUSH2 0x8BE PUSH1 0x60 DUP4 ADD DUP6 PUSH2 0x866 JUMP JUMPDEST PUSH2 0x8CB PUSH1 0x80 DUP4 ADD DUP5 PUSH2 0x875 JUMP JUMPDEST SWAP7 SWAP6 POP POP POP POP POP POP JUMP JUMPDEST PUSH0 PUSH6 0xFFFFFFFFFFFF DUP3 AND SWAP1 POP SWAP2 SWAP1 POP JUMP JUMPDEST PUSH0 PUSH2 0x900 PUSH2 0x8FB PUSH2 0x8F6 DUP5 PUSH2 0x8D5 JUMP JUMPDEST PUSH2 0x65D JUMP JUMPDEST PUSH2 0x654 JUMP JUMPDEST SWAP1 POP SWAP2 SWAP1 POP JUMP JUMPDEST PUSH2 0x910 DUP2 PUSH2 0x8E6 JUMP JUMPDEST DUP3 MSTORE POP POP JUMP JUMPDEST PUSH0 PUSH1 0x40 DUP3 ADD SWAP1 POP PUSH2 0x929 PUSH0 DUP4 ADD DUP6 PUSH2 0x907 JUMP JUMPDEST PUSH2 0x936 PUSH1 0x20 DUP4 ADD DUP5 PUSH2 0x907 JUMP JUMPDEST SWAP4 SWAP3 POP POP POP JUMP JUMPDEST PUSH0 DUP2 SWAP1 POP SWAP2 SWAP1 POP JUMP JUMPDEST PUSH0 PUSH2 0x960 PUSH2 0x95B PUSH2 0x956 DUP5 PUSH2 0x93D JUMP JUMPDEST PUSH2 0x65D JUMP JUMPDEST PUSH2 0x654 JUMP JUMPDEST SWAP1 POP SWAP2 SWAP1 POP JUMP JUMPDEST PUSH2 0x970 DUP2 PUSH2 0x946 JUMP JUMPDEST DUP3 MSTORE POP POP JUMP JUMPDEST PUSH0 PUSH1 0x20 DUP3 ADD SWAP1 POP PUSH2 0x989 PUSH0 DUP4 ADD DUP5 PUSH2 0x967 JUMP JUMPDEST SWAP3 SWAP2 POP POP JUMP JUMPDEST PUSH0 PUSH4 0xFFFFFFFF DUP3 AND SWAP1 POP SWAP2 SWAP1 POP JUMP JUMPDEST PUSH0 PUSH2 0x9B8 PUSH2 0x9B3 PUSH2 0x9AE DUP5 PUSH2 0x98F JUMP JUMPDEST PUSH2 0x65D JUMP JUMPDEST PUSH2 0x654 JUMP JUMPDEST SWAP1 POP SWAP2 SWAP1 POP JUMP JUMPDEST PUSH2 0x9C8 DUP2 PUSH2 0x99E JUMP JUMPDEST DUP3 MSTORE POP POP JUMP JUMPDEST PUSH0 PUSH1 0x40 DUP3 ADD SWAP1 POP PUSH2 0x9E1 PUSH0 DUP4 ADD DUP6 PUSH2 0x9BF JUMP JUMPDEST PUSH2 0x9EE PUSH1 0x20 DUP4 ADD DUP5 PUSH2 0x9BF JUMP JUMPDEST SWAP4 SWAP3 POP POP POP JUMP JUMPDEST PUSH0 PUSH1 0x40 DUP3 ADD SWAP1 POP PUSH2 0xA08 PUSH0 DUP4 ADD DUP6 PUSH2 0x866 JUMP JUMPDEST PUSH2 0xA15 PUSH1 0x20 DUP4 ADD DUP5 PUSH2 0x866 JUMP JUMPDEST SWAP4 SWAP3 POP POP POP JUMP JUMPDEST PUSH0 DUP3 DUP3 MSTORE PUSH1 0x20 DUP3 ADD SWAP1 POP SWAP3 SWAP2 POP POP JUMP JUMPDEST DUP3 DUP2 DUP4 MCOPY PUSH0 DUP4 DUP4 ADD MSTORE POP POP POP JUMP JUMPDEST PUSH0 PUSH1 0x1F NOT PUSH1 0x1F DUP4 ADD AND SWAP1 POP SWAP2 SWAP1 POP JUMP JUMPDEST PUSH0 PUSH2 0xA54 DUP3 PUSH2 0x542 JUMP JUMPDEST PUSH2 0xA5E DUP2 DUP6 PUSH2 0xA1C JUMP JUMPDEST SWAP4 POP PUSH2 0xA6E DUP2 DUP6 PUSH1 0x20 DUP7 ADD PUSH2 0xA2C JUMP JUMPDEST PUSH2 0xA77 DUP2 PUSH2 0xA3A JUMP JUMPDEST DUP5 ADD SWAP2 POP POP SWAP3 SWAP2 POP POP JUMP JUMPDEST PUSH0 PUSH1 0x20 DUP3 ADD SWAP1 POP DUP2 DUP2 SUB PUSH0 DUP4 ADD MSTORE PUSH2 0xA9A DUP2 DUP5 PUSH2 0xA4A JUMP JUMPDEST SWAP1 POP SWAP3 SWAP2 POP POP JUMP JUMPDEST PUSH0 DUP2 MLOAD SWAP1 POP SWAP2 SWAP1 POP JUMP JUMPDEST PUSH0 DUP2 SWAP1 POP PUSH1 0x20 DUP3 ADD SWAP1 POP SWAP2 SWAP1 POP JUMP JUMPDEST PUSH0 PUSH2 0xAC6 DUP3 MLOAD PUSH2 0x84E JUMP JUMPDEST DUP1 SWAP2 POP POP SWAP2 SWAP1 POP JUMP JUMPDEST PUSH0 PUSH2 0xAD9 DUP3 PUSH2 0xAA2 JUMP JUMPDEST DUP3 PUSH2 0xAE3 DUP5 PUSH2 0xAAC JUMP JUMPDEST SWAP1 POP PUSH2 0xAEE DUP2 PUSH2 0xABB JUMP JUMPDEST SWAP3 POP PUSH1 0x20 DUP3 LT ISZERO PUSH2 0xB2E JUMPI PUSH2 0xB29 PUSH32 0xFFFFFFFFFFFFFFFFFFFFFFFFFFFFFFFFFFFFFFFFFFFFFFFFFFFFFFFFFFFFFFFF DUP4 PUSH1 0x20 SUB PUSH1 0x8 MUL PUSH2 0x5F7 JUMP JUMPDEST DUP4 AND SWAP3 POP JUMPDEST POP POP SWAP2 SWAP1 POP JUMP JUMPDEST PUSH1 0x80 MLOAD PUSH1 0xA0 MLOAD PUSH1 0xC0 MLOAD PUSH1 0xE0 MLOAD PUSH2 0x100 MLOAD PUSH2 0x120 MLOAD PUSH2 0x140 MLOAD PUSH2 0x160 MLOAD PUSH2 0x180 MLOAD PUSH2 0x5D13 PUSH2 0xBA1 PUSH0 CODECOPY PUSH0 DUP2 DUP2 PUSH2 0x1B4E ADD MSTORE PUSH2 0x1E54 ADD MSTORE PUSH0 PUSH2 0x1EF3 ADD MSTORE PUSH0 PUSH2 0x2C00 ADD MSTORE PUSH0 PUSH2 0x2BC5 ADD MSTORE PUSH0 PUSH2 0x36C1 ADD MSTORE PUSH0 PUSH2 0x36A0 ADD MSTORE PUSH0 PUSH2 0x2E21 ADD MSTORE PUSH0 PUSH2 0x2E77 ADD MSTORE PUSH0 PUSH2 0x2EA0 ADD MSTORE PUSH2 0x5D13 PUSH0 RETURN INVALID PUSH1 0x80 PUSH1 0x40 MSTORE PUSH1 0x4 CALLDATASIZE LT PUSH2 0x26A JUMPI PUSH0 CALLDATALOAD PUSH1 0xE0 SHR DUP1 PUSH4 0x7ECEBE00 GT PUSH2 0x143 JUMPI DUP1 PUSH4 0xC01F9E37 GT PUSH2 0xB5 JUMPI DUP1 PUSH4 0xE540D01D GT PUSH2 0x79 JUMPI DUP1 PUSH4 0xE540D01D EQ PUSH2 0xAB9 JUMPI DUP1 PUSH4 0xEB9019D4 EQ PUSH2 0xAE1 JUMPI DUP1 PUSH4 0xECE40CC1 EQ PUSH2 0xB1D JUMPI DUP1 PUSH4 0xF23A6E61 EQ PUSH2 0xB45 JUMPI DUP1 PUSH4 0xF8CE560A EQ PUSH2 0xB81 JUMPI DUP1 PUSH4 0xFC0C546A EQ PUSH2 0xBBD JUMPI PUSH2 0x2DD JUMP JUMPDEST DUP1 PUSH4 0xC01F9E37 EQ PUSH2 0x9D1 JUMPI DUP1 PUSH4 0xC28BC2FA EQ PUSH2 0xA0D JUMPI DUP1 PUSH4 0xC59057E4 EQ PUSH2 0xA29 JUMPI DUP1 PUSH4 0xDD4E2BA5 EQ PUSH2 0xA65 JUMPI DUP1 PUSH4 0xDEAAA7CC EQ PUSH2 0xA8F JUMPI PUSH2 0x2DD JUMP JUMPDEST DUP1 PUSH4 0xA8F8A668 GT PUSH2 0x107 JUMPI DUP1 PUSH4 0xA8F8A668 EQ PUSH2 0x88D JUMPI DUP1 PUSH4 0xA9A95294 EQ PUSH2 0x8C9 JUMPI DUP1 PUSH4 0xAB58FB8E EQ PUSH2 0x905 JUMPI DUP1 PUSH4 0xAF983753 EQ PUSH2 0x941 JUMPI DUP1 PUSH4 0xB58131B0 EQ PUSH2 0x96B JUMPI DUP1 PUSH4 0xBC197C81 EQ PUSH2 0x995 JUMPI PUSH2 0x2DD JUMP JUMPDEST DUP1 PUSH4 0x7ECEBE00 EQ PUSH2 0x77F JUMPI DUP1 PUSH4 0x84B0196E EQ PUSH2 0x7BB JUMPI DUP1 PUSH4 0x8FF262E3 EQ PUSH2 0x7EB JUMPI DUP1 PUSH4 0x91DDADF4 EQ PUSH2 0x827 JUMPI DUP1 PUSH4 0x9A802A6D EQ PUSH2 0x851 JUMPI PUSH2 0x2DD JUMP JUMPDEST DUP1 PUSH4 0x43859632 GT PUSH2 0x1DC JUMPI DUP1 PUSH4 0x56781388 GT PUSH2 0x1A0 JUMPI DUP1 PUSH4 0x56781388 EQ PUSH2 0x62B JUMPI DUP1 PUSH4 0x5B8D0E0D EQ PUSH2 0x667 JUMPI DUP1 PUSH4 0x5F398A14 EQ PUSH2 0x6A3 JUMPI DUP1 PUSH4 0x79051887 EQ PUSH2 0x6DF JUMPI DUP1 PUSH4 0x7B3C71D3 EQ PUSH2 0x707 JUMPI DUP1 PUSH4 0x7D5E81E2 EQ PUSH2 0x743 JUMPI PUSH2 0x2DD JUMP JUMPDEST DUP1 PUSH4 0x43859632 EQ PUSH2 0x521 JUMPI DUP1 PUSH4 0x452115D6 EQ PUSH2 0x55D JUMPI DUP1 PUSH4 0x4BF5D7E9 EQ PUSH2 0x599 JUMPI DUP1 PUSH4 0x544FFC9C EQ PUSH2 0x5C3 JUMPI DUP1 PUSH4 0x54FD4D50 EQ PUSH2 0x601 JUMPI PUSH2 0x2DD JUMP JUMPDEST DUP1 PUSH4 0x160CBED7 GT PUSH2 0x22E JUMPI DUP1 PUSH4 0x160CBED7 EQ PUSH2 0x3E9 JUMPI DUP1 PUSH4 0x2656227D EQ PUSH2 0x425 JUMPI DUP1 PUSH4 0x2D63F693 EQ PUSH2 0x455 JUMPI DUP1 PUSH4 0x2FE3E261 EQ PUSH2 0x491 JUMPI DUP1 PUSH4 0x3932ABB1 EQ PUSH2 0x4BB JUMPI DUP1 PUSH4 0x3E4F49E6 EQ PUSH2 0x4E5 JUMPI PUSH2 0x2DD JUMP JUMPDEST DUP1 PUSH4 0x1FFC9A7 EQ PUSH2 0x2E1 JUMPI DUP1 PUSH4 0x2A251A3 EQ PUSH2 0x31D JUMPI DUP1 PUSH4 0x6FDDE03 EQ PUSH2 0x347 JUMPI DUP1 PUSH4 0x143489D0 EQ PUSH2 0x371 JUMPI DUP1 PUSH4 0x150B7A02 EQ PUSH2 0x3AD JUMPI PUSH2 0x2DD JUMP JUMPDEST CALLDATASIZE PUSH2 0x2DD JUMPI ADDRESS PUSH20 0xFFFFFFFFFFFFFFFFFFFFFFFFFFFFFFFFFFFFFFFF AND PUSH2 0x28E PUSH2 0xBE7 JUMP JUMPDEST PUSH20 0xFFFFFFFFFFFFFFFFFFFFFFFFFFFFFFFFFFFFFFFF AND EQ PUSH2 0x2DB JUMPI PUSH1 0x40 MLOAD PUSH32 0xE90A651E00000000000000000000000000000000000000000000000000000000 DUP2 MSTORE PUSH1 0x4 ADD PUSH1 0x40 MLOAD DUP1 SWAP2 SUB SWAP1 REVERT JUMPDEST STOP JUMPDEST PUSH0 PUSH0 REVERT JUMPDEST CALLVALUE DUP1 ISZERO PUSH2 0x2EC JUMPI PUSH0 PUSH0 REVERT JUMPDEST POP PUSH2 0x307 PUSH1 0x4 DUP1 CALLDATASIZE SUB DUP2 ADD SWAP1 PUSH2 0x302 SWAP2 SWAP1 PUSH2 0x3AF7 JUMP JUMPDEST PUSH2 0xBEE JUMP JUMPDEST PUSH1 0x40 MLOAD PUSH2 0x314 SWAP2 SWAP1 PUSH2 0x3B3C JUMP JUMPDEST PUSH1 0x40 MLOAD DUP1 SWAP2 SUB SWAP1 RETURN JUMPDEST CALLVALUE DUP1 ISZERO PUSH2 0x328 JUMPI PUSH0 PUSH0 REVERT JUMPDEST POP PUSH2 0x331 PUSH2 0xD40 JUMP JUMPDEST PUSH1 0x40 MLOAD PUSH2 0x33E SWAP2 SWAP1 PUSH2 0x3B6D JUMP JUMPDEST PUSH1 0x40 MLOAD DUP1 SWAP2 SUB SWAP1 RETURN JUMPDEST CALLVALUE DUP1 ISZERO PUSH2 0x352 JUMPI PUSH0 PUSH0 REVERT JUMPDEST POP PUSH2 0x35B PUSH2 0xD5F JUMP JUMPDEST PUSH1 0x40 MLOAD PUSH2 0x368 SWAP2 SWAP1 PUSH2 0x3BF6 JUMP JUMPDEST PUSH1 0x40 MLOAD DUP1 SWAP2 SUB SWAP1 RETURN JUMPDEST CALLVALUE DUP1 ISZERO PUSH2 0x37C JUMPI PUSH0 PUSH0 REVERT JUMPDEST POP PUSH2 0x397 PUSH1 0x4 DUP1 CALLDATASIZE SUB DUP2 ADD SWAP1 PUSH2 0x392 SWAP2 SWAP1 PUSH2 0x3C40 JUMP JUMPDEST PUSH2 0xDEF JUMP JUMPDEST PUSH1 0x40 MLOAD PUSH2 0x3A4 SWAP2 SWAP1 PUSH2 0x3CAA JUMP JUMPDEST PUSH1 0x40 MLOAD DUP1 SWAP2 SUB SWAP1 RETURN JUMPDEST CALLVALUE DUP1 ISZERO PUSH2 0x3B8 JUMPI PUSH0 PUSH0 REVERT JUMPDEST POP PUSH2 0x3D3 PUSH1 0x4 DUP1 CALLDATASIZE SUB DUP2 ADD SWAP1 PUSH2 0x3CE SWAP2 SWAP1 PUSH2 0x3E19 JUMP JUMPDEST PUSH2 0xE2A JUMP JUMPDEST PUSH1 0x40 MLOAD PUSH2 0x3E0 SWAP2 SWAP1 PUSH2 0x3EA8 JUMP JUMPDEST PUSH1 0x40 MLOAD DUP1 SWAP2 SUB SWAP1 RETURN JUMPDEST CALLVALUE DUP1 ISZERO PUSH2 0x3F4 JUMPI PUSH0 PUSH0 REVERT JUMPDEST POP PUSH2 0x40F PUSH1 0x4 DUP1 CALLDATASIZE SUB DUP2 ADD SWAP1 PUSH2 0x40A SWAP2 SWAP1 PUSH2 0x4156 JUMP JUMPDEST PUSH2 0xEA9 JUMP JUMPDEST PUSH1 0x40 MLOAD PUSH2 0x41C SWAP2 SWAP1 PUSH2 0x3B6D JUMP JUMPDEST PUSH1 0x40 MLOAD DUP1 SWAP2 SUB SWAP1 RETURN JUMPDEST PUSH2 0x43F PUSH1 0x4 DUP1 CALLDATASIZE SUB DUP2 ADD SWAP1 PUSH2 0x43A SWAP2 SWAP1 PUSH2 0x4156 JUMP JUMPDEST PUSH2 0xF9F JUMP JUMPDEST PUSH1 0x40 MLOAD PUSH2 0x44C SWAP2 SWAP1 PUSH2 0x3B6D JUMP JUMPDEST PUSH1 0x40 MLOAD DUP1 SWAP2 SUB SWAP1 RETURN JUMPDEST CALLVALUE DUP1 ISZERO PUSH2 0x460 JUMPI PUSH0 PUSH0 REVERT JUMPDEST POP PUSH2 0x47B PUSH1 0x4 DUP1 CALLDATASIZE SUB DUP2 ADD SWAP1 PUSH2 0x476 SWAP2 SWAP1 PUSH2 0x3C40 JUMP JUMPDEST PUSH2 0x117C JUMP JUMPDEST PUSH1 0x40 MLOAD PUSH2 0x488 SWAP2 SWAP1 PUSH2 0x3B6D JUMP JUMPDEST PUSH1 0x40 MLOAD DUP1 SWAP2 SUB SWAP1 RETURN JUMPDEST CALLVALUE DUP1 ISZERO PUSH2 0x49C JUMPI PUSH0 PUSH0 REVERT JUMPDEST POP PUSH2 0x4A5 PUSH2 0x11B2 JUMP JUMPDEST PUSH1 0x40 MLOAD PUSH2 0x4B2 SWAP2 SWAP1 PUSH2 0x421D JUMP JUMPDEST PUSH1 0x40 MLOAD DUP1 SWAP2 SUB SWAP1 RETURN JUMPDEST CALLVALUE DUP1 ISZERO PUSH2 0x4C6 JUMPI PUSH0 PUSH0 REVERT JUMPDEST POP PUSH2 0x4CF PUSH2 0x11D6 JUMP JUMPDEST PUSH1 0x40 MLOAD PUSH2 0x4DC SWAP2 SWAP1 PUSH2 0x3B6D JUMP JUMPDEST PUSH1 0x40 MLOAD DUP1 SWAP2 SUB SWAP1 RETURN JUMPDEST CALLVALUE DUP1 ISZERO PUSH2 0x4F0 JUMPI PUSH0 PUSH0 REVERT JUMPDEST POP PUSH2 0x50B PUSH1 0x4 DUP1 CALLDATASIZE SUB DUP2 ADD SWAP1 PUSH2 0x506 SWAP2 SWAP1 PUSH2 0x3C40 JUMP JUMPDEST PUSH2 0x11F8 JUMP JUMPDEST PUSH1 0x40 MLOAD PUSH2 0x518 SWAP2 SWAP1 PUSH2 0x42A9 JUMP JUMPDEST PUSH1 0x40 MLOAD DUP1 SWAP2 SUB SWAP1 RETURN JUMPDEST CALLVALUE DUP1 ISZERO PUSH2 0x52C JUMPI PUSH0 PUSH0 REVERT JUMPDEST POP PUSH2 0x547 PUSH1 0x4 DUP1 CALLDATASIZE SUB DUP2 ADD SWAP1 PUSH2 0x542 SWAP2 SWAP1 PUSH2 0x42C2 JUMP JUMPDEST PUSH2 0x134F JUMP JUMPDEST PUSH1 0x40 MLOAD PUSH2 0x554 SWAP2 SWAP1 PUSH2 0x3B3C JUMP JUMPDEST PUSH1 0x40 MLOAD DUP1 SWAP2 SUB SWAP1 RETURN JUMPDEST CALLVALUE DUP1 ISZERO PUSH2 0x568 JUMPI PUSH0 PUSH0 REVERT JUMPDEST POP PUSH2 0x583 PUSH1 0x4 DUP1 CALLDATASIZE SUB DUP2 ADD SWAP1 PUSH2 0x57E SWAP2 SWAP1 PUSH2 0x4156 JUMP JUMPDEST PUSH2 0x13B4 JUMP JUMPDEST PUSH1 0x40 MLOAD PUSH2 0x590 SWAP2 SWAP1 PUSH2 0x3B6D JUMP JUMPDEST PUSH1 0x40 MLOAD DUP1 SWAP2 SUB SWAP1 RETURN JUMPDEST CALLVALUE DUP1 ISZERO PUSH2 0x5A4 JUMPI PUSH0 PUSH0 REVERT JUMPDEST POP PUSH2 0x5AD PUSH2 0x1434 JUMP JUMPDEST PUSH1 0x40 MLOAD PUSH2 0x5BA SWAP2 SWAP1 PUSH2 0x3BF6 JUMP JUMPDEST PUSH1 0x40 MLOAD DUP1 SWAP2 SUB SWAP1 RETURN JUMPDEST CALLVALUE DUP1 ISZERO PUSH2 0x5CE JUMPI PUSH0 PUSH0 REVERT JUMPDEST POP PUSH2 0x5E9 PUSH1 0x4 DUP1 CALLDATASIZE SUB DUP2 ADD SWAP1 PUSH2 0x5E4 SWAP2 SWAP1 PUSH2 0x3C40 JUMP JUMPDEST PUSH2 0x14F1 JUMP JUMPDEST PUSH1 0x40 MLOAD PUSH2 0x5F8 SWAP4 SWAP3 SWAP2 SWAP1 PUSH2 0x4300 JUMP JUMPDEST PUSH1 0x40 MLOAD DUP1 SWAP2 SUB SWAP1 RETURN JUMPDEST CALLVALUE DUP1 ISZERO PUSH2 0x60C JUMPI PUSH0 PUSH0 REVERT JUMPDEST POP PUSH2 0x615 PUSH2 0x1524 JUMP JUMPDEST PUSH1 0x40 MLOAD PUSH2 0x622 SWAP2 SWAP1 PUSH2 0x3BF6 JUMP JUMPDEST PUSH1 0x40 MLOAD DUP1 SWAP2 SUB SWAP1 RETURN JUMPDEST CALLVALUE DUP1 ISZERO PUSH2 0x636 JUMPI PUSH0 PUSH0 REVERT JUMPDEST POP PUSH2 0x651 PUSH1 0x4 DUP1 CALLDATASIZE SUB DUP2 ADD SWAP1 PUSH2 0x64C SWAP2 SWAP1 PUSH2 0x436B JUMP JUMPDEST PUSH2 0x1561 JUMP JUMPDEST PUSH1 0x40 MLOAD PUSH2 0x65E SWAP2 SWAP1 PUSH2 0x3B6D JUMP JUMPDEST PUSH1 0x40 MLOAD DUP1 SWAP2 SUB SWAP1 RETURN JUMPDEST CALLVALUE DUP1 ISZERO PUSH2 0x672 JUMPI PUSH0 PUSH0 REVERT JUMPDEST POP PUSH2 0x68D PUSH1 0x4 DUP1 CALLDATASIZE SUB DUP2 ADD SWAP1 PUSH2 0x688 SWAP2 SWAP1 PUSH2 0x4402 JUMP JUMPDEST PUSH2 0x1590 JUMP JUMPDEST PUSH1 0x40 MLOAD PUSH2 0x69A SWAP2 SWAP1 PUSH2 0x3B6D JUMP JUMPDEST PUSH1 0x40 MLOAD DUP1 SWAP2 SUB SWAP1 RETURN JUMPDEST CALLVALUE DUP1 ISZERO PUSH2 0x6AE JUMPI PUSH0 PUSH0 REVERT JUMPDEST POP PUSH2 0x6C9 PUSH1 0x4 DUP1 CALLDATASIZE SUB DUP2 ADD SWAP1 PUSH2 0x6C4 SWAP2 SWAP1 PUSH2 0x44E4 JUMP JUMPDEST PUSH2 0x16BF JUMP JUMPDEST PUSH1 0x40 MLOAD PUSH2 0x6D6 SWAP2 SWAP1 PUSH2 0x3B6D JUMP JUMPDEST PUSH1 0x40 MLOAD DUP1 SWAP2 SUB SWAP1 RETURN JUMPDEST CALLVALUE DUP1 ISZERO PUSH2 0x6EA JUMPI PUSH0 PUSH0 REVERT JUMPDEST POP PUSH2 0x705 PUSH1 0x4 DUP1 CALLDATASIZE SUB DUP2 ADD SWAP1 PUSH2 0x700 SWAP2 SWAP1 PUSH2 0x45BF JUMP JUMPDEST PUSH2 0x1727 JUMP JUMPDEST STOP JUMPDEST CALLVALUE DUP1 ISZERO PUSH2 0x712 JUMPI PUSH0 PUSH0 REVERT JUMPDEST POP PUSH2 0x72D PUSH1 0x4 DUP1 CALLDATASIZE SUB DUP2 ADD SWAP1 PUSH2 0x728 SWAP2 SWAP1 PUSH2 0x45EA JUMP JUMPDEST PUSH2 0x173B JUMP JUMPDEST PUSH1 0x40 MLOAD PUSH2 0x73A SWAP2 SWAP1 PUSH2 0x3B6D JUMP JUMPDEST PUSH1 0x40 MLOAD DUP1 SWAP2 SUB SWAP1 RETURN JUMPDEST CALLVALUE DUP1 ISZERO PUSH2 0x74E JUMPI PUSH0 PUSH0 REVERT JUMPDEST POP PUSH2 0x769 PUSH1 0x4 DUP1 CALLDATASIZE SUB DUP2 ADD SWAP1 PUSH2 0x764 SWAP2 SWAP1 PUSH2 0x46F9 JUMP JUMPDEST PUSH2 0x17A1 JUMP JUMPDEST PUSH1 0x40 MLOAD PUSH2 0x776 SWAP2 SWAP1 PUSH2 0x3B6D JUMP JUMPDEST PUSH1 0x40 MLOAD DUP1 SWAP2 SUB SWAP1 RETURN JUMPDEST CALLVALUE DUP1 ISZERO PUSH2 0x78A JUMPI PUSH0 PUSH0 REVERT JUMPDEST POP PUSH2 0x7A5 PUSH1 0x4 DUP1 CALLDATASIZE SUB DUP2 ADD SWAP1 PUSH2 0x7A0 SWAP2 SWAP1 PUSH2 0x47CD JUMP JUMPDEST PUSH2 0x1897 JUMP JUMPDEST PUSH1 0x40 MLOAD PUSH2 0x7B2 SWAP2 SWAP1 PUSH2 0x3B6D JUMP JUMPDEST PUSH1 0x40 MLOAD DUP1 SWAP2 SUB SWAP1 RETURN JUMPDEST CALLVALUE DUP1 ISZERO PUSH2 0x7C6 JUMPI PUSH0 PUSH0 REVERT JUMPDEST POP PUSH2 0x7CF PUSH2 0x18DD JUMP JUMPDEST PUSH1 0x40 MLOAD PUSH2 0x7E2 SWAP8 SWAP7 SWAP6 SWAP5 SWAP4 SWAP3 SWAP2 SWAP1 PUSH2 0x48E9 JUMP JUMPDEST PUSH1 0x40 MLOAD DUP1 SWAP2 SUB SWAP1 RETURN JUMPDEST CALLVALUE DUP1 ISZERO PUSH2 0x7F6 JUMPI PUSH0 PUSH0 REVERT JUMPDEST POP PUSH2 0x811 PUSH1 0x4 DUP1 CALLDATASIZE SUB DUP2 ADD SWAP1 PUSH2 0x80C SWAP2 SWAP1 PUSH2 0x496B JUMP JUMPDEST PUSH2 0x1982 JUMP JUMPDEST PUSH1 0x40 MLOAD PUSH2 0x81E SWAP2 SWAP1 PUSH2 0x3B6D JUMP JUMPDEST PUSH1 0x40 MLOAD DUP1 SWAP2 SUB SWAP1 RETURN JUMPDEST CALLVALUE DUP1 ISZERO PUSH2 0x832 JUMPI PUSH0 PUSH0 REVERT JUMPDEST POP PUSH2 0x83B PUSH2 0x1A56 JUMP JUMPDEST PUSH1 0x40 MLOAD PUSH2 0x848 SWAP2 SWAP1 PUSH2 0x49FA JUMP JUMPDEST PUSH1 0x40 MLOAD DUP1 SWAP2 SUB SWAP1 RETURN JUMPDEST CALLVALUE DUP1 ISZERO PUSH2 0x85C JUMPI PUSH0 PUSH0 REVERT JUMPDEST POP PUSH2 0x877 PUSH1 0x4 DUP1 CALLDATASIZE SUB DUP2 ADD SWAP1 PUSH2 0x872 SWAP2 SWAP1 PUSH2 0x4A13 JUMP JUMPDEST PUSH2 0x1AE1 JUMP JUMPDEST PUSH1 0x40 MLOAD PUSH2 0x884 SWAP2 SWAP1 PUSH2 0x3B6D JUMP JUMPDEST PUSH1 0x40 MLOAD DUP1 SWAP2 SUB SWAP1 RETURN JUMPDEST CALLVALUE DUP1 ISZERO PUSH2 0x898 JUMPI PUSH0 PUSH0 REVERT JUMPDEST POP PUSH2 0x8B3 PUSH1 0x4 DUP1 CALLDATASIZE SUB DUP2 ADD SWAP1 PUSH2 0x8AE SWAP2 SWAP1 PUSH2 0x4156 JUMP JUMPDEST PUSH2 0x1AF6 JUMP JUMPDEST PUSH1 0x40 MLOAD PUSH2 0x8C0 SWAP2 SWAP1 PUSH2 0x3B6D JUMP JUMPDEST PUSH1 0x40 MLOAD DUP1 SWAP2 SUB SWAP1 RETURN JUMPDEST CALLVALUE DUP1 ISZERO PUSH2 0x8D4 JUMPI PUSH0 PUSH0 REVERT JUMPDEST POP PUSH2 0x8EF PUSH1 0x4 DUP1 CALLDATASIZE SUB DUP2 ADD SWAP1 PUSH2 0x8EA SWAP2 SWAP1 PUSH2 0x3C40 JUMP JUMPDEST PUSH2 0x1B0D JUMP JUMPDEST PUSH1 0x40 MLOAD PUSH2 0x8FC SWAP2 SWAP1 PUSH2 0x3B3C JUMP JUMPDEST PUSH1 0x40 MLOAD DUP1 SWAP2 SUB SWAP1 RETURN JUMPDEST CALLVALUE DUP1 ISZERO PUSH2 0x910 JUMPI PUSH0 PUSH0 REVERT JUMPDEST POP PUSH2 0x92B PUSH1 0x4 DUP1 CALLDATASIZE SUB DUP2 ADD SWAP1 PUSH2 0x926 SWAP2 SWAP1 PUSH2 0x3C40 JUMP JUMPDEST PUSH2 0x1B16 JUMP JUMPDEST PUSH1 0x40 MLOAD PUSH2 0x938 SWAP2 SWAP1 PUSH2 0x3B6D JUMP JUMPDEST PUSH1 0x40 MLOAD DUP1 SWAP2 SUB SWAP1 RETURN JUMPDEST CALLVALUE DUP1 ISZERO PUSH2 0x94C JUMPI PUSH0 PUSH0 REVERT JUMPDEST POP PUSH2 0x955 PUSH2 0x1B4C JUMP JUMPDEST PUSH1 0x40 MLOAD PUSH2 0x962 SWAP2 SWAP1 PUSH2 0x4ADA JUMP JUMPDEST PUSH1 0x40 MLOAD DUP1 SWAP2 SUB SWAP1 RETURN JUMPDEST CALLVALUE DUP1 ISZERO PUSH2 0x976 JUMPI PUSH0 PUSH0 REVERT JUMPDEST POP PUSH2 0x97F PUSH2 0x1B70 JUMP JUMPDEST PUSH1 0x40 MLOAD PUSH2 0x98C SWAP2 SWAP1 PUSH2 0x3B6D JUMP JUMPDEST PUSH1 0x40 MLOAD DUP1 SWAP2 SUB SWAP1 RETURN JUMPDEST CALLVALUE DUP1 ISZERO PUSH2 0x9A0 JUMPI PUSH0 PUSH0 REVERT JUMPDEST POP PUSH2 0x9BB PUSH1 0x4 DUP1 CALLDATASIZE SUB DUP2 ADD SWAP1 PUSH2 0x9B6 SWAP2 SWAP1 PUSH2 0x4AF3 JUMP JUMPDEST PUSH2 0x1B7E JUMP JUMPDEST PUSH1 0x40 MLOAD PUSH2 0x9C8 SWAP2 SWAP1 PUSH2 0x3EA8 JUMP JUMPDEST PUSH1 0x40 MLOAD DUP1 SWAP2 SUB SWAP1 RETURN JUMPDEST CALLVALUE DUP1 ISZERO PUSH2 0x9DC JUMPI PUSH0 PUSH0 REVERT JUMPDEST POP PUSH2 0x9F7 PUSH1 0x4 DUP1 CALLDATASIZE SUB DUP2 ADD SWAP1 PUSH2 0x9F2 SWAP2 SWAP1 PUSH2 0x3C40 JUMP JUMPDEST PUSH2 0x1BFE JUMP JUMPDEST PUSH1 0x40 MLOAD PUSH2 0xA04 SWAP2 SWAP1 PUSH2 0x3B6D JUMP JUMPDEST PUSH1 0x40 MLOAD DUP1 SWAP2 SUB SWAP1 RETURN JUMPDEST PUSH2 0xA27 PUSH1 0x4 DUP1 CALLDATASIZE SUB DUP2 ADD SWAP1 PUSH2 0xA22 SWAP2 SWAP1 PUSH2 0x4C13 JUMP JUMPDEST PUSH2 0x1C68 JUMP JUMPDEST STOP JUMPDEST CALLVALUE DUP1 ISZERO PUSH2 0xA34 JUMPI PUSH0 PUSH0 REVERT JUMPDEST POP PUSH2 0xA4F PUSH1 0x4 DUP1 CALLDATASIZE SUB DUP2 ADD SWAP1 PUSH2 0xA4A SWAP2 SWAP1 PUSH2 0x4156 JUMP JUMPDEST PUSH2 0x1CF1 JUMP JUMPDEST PUSH1 0x40 MLOAD PUSH2 0xA5C SWAP2 SWAP1 PUSH2 0x3B6D JUMP JUMPDEST PUSH1 0x40 MLOAD DUP1 SWAP2 SUB SWAP1 RETURN JUMPDEST CALLVALUE DUP1 ISZERO PUSH2 0xA70 JUMPI PUSH0 PUSH0 REVERT JUMPDEST POP PUSH2 0xA79 PUSH2 0x1D2B JUMP JUMPDEST PUSH1 0x40 MLOAD PUSH2 0xA86 SWAP2 SWAP1 PUSH2 0x3BF6 JUMP JUMPDEST PUSH1 0x40 MLOAD DUP1 SWAP2 SUB SWAP1 RETURN JUMPDEST CALLVALUE DUP1 ISZERO PUSH2 0xA9A JUMPI PUSH0 PUSH0 REVERT JUMPDEST POP PUSH2 0xAA3 PUSH2 0x1D68 JUMP JUMPDEST PUSH1 0x40 MLOAD PUSH2 0xAB0 SWAP2 SWAP1 PUSH2 0x421D JUMP JUMPDEST PUSH1 0x40 MLOAD DUP1 SWAP2 SUB SWAP1 RETURN JUMPDEST CALLVALUE DUP1 ISZERO PUSH2 0xAC4 JUMPI PUSH0 PUSH0 REVERT JUMPDEST POP PUSH2 0xADF PUSH1 0x4 DUP1 CALLDATASIZE SUB DUP2 ADD SWAP1 PUSH2 0xADA SWAP2 SWAP1 PUSH2 0x4CBD JUMP JUMPDEST PUSH2 0x1D8C JUMP JUMPDEST STOP JUMPDEST CALLVALUE DUP1 ISZERO PUSH2 0xAEC JUMPI PUSH0 PUSH0 REVERT JUMPDEST POP PUSH2 0xB07 PUSH1 0x4 DUP1 CALLDATASIZE SUB DUP2 ADD SWAP1 PUSH2 0xB02 SWAP2 SWAP1 PUSH2 0x4CE8 JUMP JUMPDEST PUSH2 0x1DA0 JUMP JUMPDEST PUSH1 0x40 MLOAD PUSH2 0xB14 SWAP2 SWAP1 PUSH2 0x3B6D JUMP JUMPDEST PUSH1 0x40 MLOAD DUP1 SWAP2 SUB SWAP1 RETURN JUMPDEST CALLVALUE DUP1 ISZERO PUSH2 0xB28 JUMPI PUSH0 PUSH0 REVERT JUMPDEST POP PUSH2 0xB43 PUSH1 0x4 DUP1 CALLDATASIZE SUB DUP2 ADD SWAP1 PUSH2 0xB3E SWAP2 SWAP1 PUSH2 0x3C40 JUMP JUMPDEST PUSH2 0x1DBB JUMP JUMPDEST STOP JUMPDEST CALLVALUE DUP1 ISZERO PUSH2 0xB50 JUMPI PUSH0 PUSH0 REVERT JUMPDEST POP PUSH2 0xB6B PUSH1 0x4 DUP1 CALLDATASIZE SUB DUP2 ADD SWAP1 PUSH2 0xB66 SWAP2 SWAP1 PUSH2 0x4D26 JUMP JUMPDEST PUSH2 0x1DCF JUMP JUMPDEST PUSH1 0x40 MLOAD PUSH2 0xB78 SWAP2 SWAP1 PUSH2 0x3EA8 JUMP JUMPDEST PUSH1 0x40 MLOAD DUP1 SWAP2 SUB SWAP1 RETURN JUMPDEST CALLVALUE DUP1 ISZERO PUSH2 0xB8C JUMPI PUSH0 PUSH0 REVERT JUMPDEST POP PUSH2 0xBA7 PUSH1 0x4 DUP1 CALLDATASIZE SUB DUP2 ADD SWAP1 PUSH2 0xBA2 SWAP2 SWAP1 PUSH2 0x3C40 JUMP JUMPDEST PUSH2 0x1E4F JUMP JUMPDEST PUSH1 0x40 MLOAD PUSH2 0xBB4 SWAP2 SWAP1 PUSH2 0x3B6D JUMP JUMPDEST PUSH1 0x40 MLOAD DUP1 SWAP2 SUB SWAP1 RETURN JUMPDEST CALLVALUE DUP1 ISZERO PUSH2 0xBC8 JUMPI PUSH0 PUSH0 REVERT JUMPDEST POP PUSH2 0xBD1 PUSH2 0x1EF0 JUMP JUMPDEST PUSH1 0x40 MLOAD PUSH2 0xBDE SWAP2 SWAP1 PUSH2 0x4DD9 JUMP JUMPDEST PUSH1 0x40 MLOAD DUP1 SWAP2 SUB SWAP1 RETURN JUMPDEST PUSH0 ADDRESS SWAP1 POP SWAP1 JUMP JUMPDEST PUSH0 PUSH32 0xCDBDFCEE00000000000000000000000000000000000000000000000000000000 PUSH28 0xFFFFFFFFFFFFFFFFFFFFFFFFFFFFFFFFFFFFFFFFFFFFFFFFFFFFFFFF NOT AND DUP3 PUSH28 0xFFFFFFFFFFFFFFFFFFFFFFFFFFFFFFFFFFFFFFFFFFFFFFFFFFFFFFFF NOT AND EQ DUP1 PUSH2 0xCC1 JUMPI POP PUSH4 0xA8F8A668 PUSH1 0xE0 SHL PUSH32 0xCDBDFCEE00000000000000000000000000000000000000000000000000000000 XOR PUSH28 0xFFFFFFFFFFFFFFFFFFFFFFFFFFFFFFFFFFFFFFFFFFFFFFFFFFFFFFFF NOT AND DUP3 PUSH28 0xFFFFFFFFFFFFFFFFFFFFFFFFFFFFFFFFFFFFFFFFFFFFFFFFFFFFFFFF NOT AND EQ JUMPDEST DUP1 PUSH2 0xD29 JUMPI POP PUSH32 0x4E2312E000000000000000000000000000000000000000000000000000000000 PUSH28 0xFFFFFFFFFFFFFFFFFFFFFFFFFFFFFFFFFFFFFFFFFFFFFFFFFFFFFFFF NOT AND DUP3 PUSH28 0xFFFFFFFFFFFFFFFFFFFFFFFFFFFFFFFFFFFFFFFFFFFFFFFFFFFFFFFF NOT AND EQ JUMPDEST DUP1 PUSH2 0xD39 JUMPI POP PUSH2 0xD38 DUP3 PUSH2 0x1F17 JUMP JUMPDEST JUMPDEST SWAP1 POP SWAP2 SWAP1 POP JUMP JUMPDEST PUSH0 PUSH1 0x8 PUSH1 0x6 SWAP1 SLOAD SWAP1 PUSH2 0x100 EXP SWAP1 DIV PUSH4 0xFFFFFFFF AND PUSH4 0xFFFFFFFF AND SWAP1 POP SWAP1 JUMP JUMPDEST PUSH1 0x60 PUSH1 0x3 DUP1 SLOAD PUSH2 0xD6E SWAP1 PUSH2 0x4E1F JUMP JUMPDEST DUP1 PUSH1 0x1F ADD PUSH1 0x20 DUP1 SWAP2 DIV MUL PUSH1 0x20 ADD PUSH1 0x40 MLOAD SWAP1 DUP2 ADD PUSH1 0x40 MSTORE DUP1 SWAP3 SWAP2 SWAP1 DUP2 DUP2 MSTORE PUSH1 0x20 ADD DUP3 DUP1 SLOAD PUSH2 0xD9A SWAP1 PUSH2 0x4E1F JUMP JUMPDEST DUP1 ISZERO PUSH2 0xDE5 JUMPI DUP1 PUSH1 0x1F LT PUSH2 0xDBC JUMPI PUSH2 0x100 DUP1 DUP4 SLOAD DIV MUL DUP4 MSTORE SWAP2 PUSH1 0x20 ADD SWAP2 PUSH2 0xDE5 JUMP JUMPDEST DUP3 ADD SWAP2 SWAP1 PUSH0 MSTORE PUSH1 0x20 PUSH0 KECCAK256 SWAP1 JUMPDEST DUP2 SLOAD DUP2 MSTORE SWAP1 PUSH1 0x1 ADD SWAP1 PUSH1 0x20 ADD DUP1 DUP4 GT PUSH2 0xDC8 JUMPI DUP3 SWAP1 SUB PUSH1 0x1F AND DUP3 ADD SWAP2 JUMPDEST POP POP POP POP POP SWAP1 POP SWAP1 JUMP JUMPDEST PUSH0 PUSH1 0x4 PUSH0 DUP4 DUP2 MSTORE PUSH1 0x20 ADD SWAP1 DUP2 MSTORE PUSH1 0x20 ADD PUSH0 KECCAK256 PUSH0 ADD PUSH0 SWAP1 SLOAD SWAP1 PUSH2 0x100 EXP SWAP1 DIV PUSH20 0xFFFFFFFFFFFFFFFFFFFFFFFFFFFFFFFFFFFFFFFF AND SWAP1 POP SWAP2 SWAP1 POP JUMP JUMPDEST PUSH0 ADDRESS PUSH20 0xFFFFFFFFFFFFFFFFFFFFFFFFFFFFFFFFFFFFFFFF AND PUSH2 0xE4A PUSH2 0xBE7 JUMP JUMPDEST PUSH20 0xFFFFFFFFFFFFFFFFFFFFFFFFFFFFFFFFFFFFFFFF AND EQ PUSH2 0xE97 JUMPI PUSH1 0x40 MLOAD PUSH32 0xE90A651E00000000000000000000000000000000000000000000000000000000 DUP2 MSTORE PUSH1 0x4 ADD PUSH1 0x40 MLOAD DUP1 SWAP2 SUB SWAP1 REVERT JUMPDEST PUSH4 0x150B7A02 PUSH1 0xE0 SHL SWAP1 POP SWAP5 SWAP4 POP POP POP POP JUMP JUMPDEST PUSH0 PUSH0 PUSH2 0xEB7 DUP7 DUP7 DUP7 DUP7 PUSH2 0x1AF6 JUMP JUMPDEST SWAP1 POP PUSH2 0xECC DUP2 PUSH2 0xEC7 PUSH1 0x4 PUSH2 0x1F80 JUMP JUMPDEST PUSH2 0x1FA4 JUMP JUMPDEST POP PUSH0 PUSH2 0xEDB DUP3 DUP9 DUP9 DUP9 DUP9 PUSH2 0x200F JUMP JUMPDEST SWAP1 POP PUSH0 DUP2 PUSH6 0xFFFFFFFFFFFF AND EQ PUSH2 0xF60 JUMPI DUP1 PUSH1 0x4 PUSH0 DUP5 DUP2 MSTORE PUSH1 0x20 ADD SWAP1 DUP2 MSTORE PUSH1 0x20 ADD PUSH0 KECCAK256 PUSH1 0x1 ADD PUSH0 PUSH2 0x100 EXP DUP2 SLOAD DUP2 PUSH6 0xFFFFFFFFFFFF MUL NOT AND SWAP1 DUP4 PUSH6 0xFFFFFFFFFFFF AND MUL OR SWAP1 SSTORE POP PUSH32 0x9A2E42FD6722813D69113E7D0079D3D940171428DF7373DF9C7F7617CFDA2892 DUP3 DUP3 PUSH1 0x40 MLOAD PUSH2 0xF53 SWAP3 SWAP2 SWAP1 PUSH2 0x4E7F JUMP JUMPDEST PUSH1 0x40 MLOAD DUP1 SWAP2 SUB SWAP1 LOG1 PUSH2 0xF92 JUMP JUMPDEST PUSH1 0x40 MLOAD PUSH32 0x90884A4600000000000000000000000000000000000000000000000000000000 DUP2 MSTORE PUSH1 0x4 ADD PUSH1 0x40 MLOAD DUP1 SWAP2 SUB SWAP1 REVERT JUMPDEST DUP2 SWAP3 POP POP POP SWAP5 SWAP4 POP POP POP POP JUMP JUMPDEST PUSH0 PUSH0 PUSH2 0xFAD DUP7 DUP7 DUP7 DUP7 PUSH2 0x1AF6 JUMP JUMPDEST SWAP1 POP PUSH2 0xFCD DUP2 PUSH2 0xFBD PUSH1 0x5 PUSH2 0x1F80 JUMP JUMPDEST PUSH2 0xFC7 PUSH1 0x4 PUSH2 0x1F80 JUMP JUMPDEST OR PUSH2 0x1FA4 JUMP JUMPDEST POP PUSH1 0x1 PUSH1 0x4 PUSH0 DUP4 DUP2 MSTORE PUSH1 0x20 ADD SWAP1 DUP2 MSTORE PUSH1 0x20 ADD PUSH0 KECCAK256 PUSH0 ADD PUSH1 0x1E PUSH2 0x100 EXP DUP2 SLOAD DUP2 PUSH1 0xFF MUL NOT AND SWAP1 DUP4 ISZERO ISZERO MUL OR SWAP1 SSTORE POP ADDRESS PUSH20 0xFFFFFFFFFFFFFFFFFFFFFFFFFFFFFFFFFFFFFFFF AND PUSH2 0x1019 PUSH2 0xBE7 JUMP JUMPDEST PUSH20 0xFFFFFFFFFFFFFFFFFFFFFFFFFFFFFFFFFFFFFFFF AND EQ PUSH2 0x10D2 JUMPI PUSH0 PUSH0 SWAP1 POP JUMPDEST DUP7 MLOAD DUP2 LT ISZERO PUSH2 0x10D0 JUMPI ADDRESS PUSH20 0xFFFFFFFFFFFFFFFFFFFFFFFFFFFFFFFFFFFFFFFF AND DUP8 DUP3 DUP2 MLOAD DUP2 LT PUSH2 0x106C JUMPI PUSH2 0x106B PUSH2 0x4EA6 JUMP JUMPDEST JUMPDEST PUSH1 0x20 MUL PUSH1 0x20 ADD ADD MLOAD PUSH20 0xFFFFFFFFFFFFFFFFFFFFFFFFFFFFFFFFFFFFFFFF AND SUB PUSH2 0x10C5 JUMPI PUSH2 0x10C4 DUP6 DUP3 DUP2 MLOAD DUP2 LT PUSH2 0x10A5 JUMPI PUSH2 0x10A4 PUSH2 0x4EA6 JUMP JUMPDEST JUMPDEST PUSH1 0x20 MUL PUSH1 0x20 ADD ADD MLOAD DUP1 MLOAD SWAP1 PUSH1 0x20 ADD KECCAK256 PUSH1 0x5 PUSH2 0x201C SWAP1 SWAP2 SWAP1 PUSH4 0xFFFFFFFF AND JUMP JUMPDEST JUMPDEST DUP1 PUSH1 0x1 ADD SWAP1 POP PUSH2 0x1039 JUMP JUMPDEST POP JUMPDEST PUSH2 0x10DF DUP2 DUP8 DUP8 DUP8 DUP8 PUSH2 0x2114 JUMP JUMPDEST ADDRESS PUSH20 0xFFFFFFFFFFFFFFFFFFFFFFFFFFFFFFFFFFFFFFFF AND PUSH2 0x10FE PUSH2 0xBE7 JUMP JUMPDEST PUSH20 0xFFFFFFFFFFFFFFFFFFFFFFFFFFFFFFFFFFFFFFFF AND EQ ISZERO DUP1 ISZERO PUSH2 0x1129 JUMPI POP PUSH2 0x1127 PUSH1 0x5 PUSH2 0x21FC JUMP JUMPDEST ISZERO JUMPDEST ISZERO PUSH2 0x1139 JUMPI PUSH2 0x1138 PUSH1 0x5 PUSH2 0x2268 JUMP JUMPDEST JUMPDEST PUSH32 0x712AE1383F79AC853F8D882153778E0260EF8F03B504E2866E0593E04D2B291F DUP2 PUSH1 0x40 MLOAD PUSH2 0x1168 SWAP2 SWAP1 PUSH2 0x3B6D JUMP JUMPDEST PUSH1 0x40 MLOAD DUP1 SWAP2 SUB SWAP1 LOG1 DUP1 SWAP2 POP POP SWAP5 SWAP4 POP POP POP POP JUMP JUMPDEST PUSH0 PUSH1 0x4 PUSH0 DUP4 DUP2 MSTORE PUSH1 0x20 ADD SWAP1 DUP2 MSTORE PUSH1 0x20 ADD PUSH0 KECCAK256 PUSH0 ADD PUSH1 0x14 SWAP1 SLOAD SWAP1 PUSH2 0x100 EXP SWAP1 DIV PUSH6 0xFFFFFFFFFFFF AND PUSH6 0xFFFFFFFFFFFF AND SWAP1 POP SWAP2 SWAP1 POP JUMP JUMPDEST PUSH32 0x3E83946653575F9A39005E1545185629E92736B7528AB20CA3816F315424A811 DUP2 JUMP JUMPDEST PUSH0 PUSH1 0x8 PUSH0 SWAP1 SLOAD SWAP1 PUSH2 0x100 EXP SWAP1 DIV PUSH6 0xFFFFFFFFFFFF AND PUSH6 0xFFFFFFFFFFFF AND SWAP1 POP SWAP1 JUMP JUMPDEST PUSH0 PUSH0 PUSH1 0x4 PUSH0 DUP5 DUP2 MSTORE PUSH1 0x20 ADD SWAP1 DUP2 MSTORE PUSH1 0x20 ADD PUSH0 KECCAK256 SWAP1 POP PUSH0 DUP2 PUSH0 ADD PUSH1 0x1E SWAP1 SLOAD SWAP1 PUSH2 0x100 EXP SWAP1 DIV PUSH1 0xFF AND SWAP1 POP PUSH0 DUP3 PUSH0 ADD PUSH1 0x1F SWAP1 SLOAD SWAP1 PUSH2 0x100 EXP SWAP1 DIV PUSH1 0xFF AND SWAP1 POP DUP2 ISZERO PUSH2 0x1247 JUMPI PUSH1 0x7 SWAP4 POP POP POP POP PUSH2 0x134A JUMP JUMPDEST DUP1 ISZERO PUSH2 0x1259 JUMPI PUSH1 0x2 SWAP4 POP POP POP POP PUSH2 0x134A JUMP JUMPDEST PUSH0 PUSH2 0x1263 DUP7 PUSH2 0x117C JUMP JUMPDEST SWAP1 POP PUSH0 DUP2 SUB PUSH2 0x12A9 JUMPI DUP6 PUSH1 0x40 MLOAD PUSH32 0x6AD0607500000000000000000000000000000000000000000000000000000000 DUP2 MSTORE PUSH1 0x4 ADD PUSH2 0x12A0 SWAP2 SWAP1 PUSH2 0x3B6D JUMP JUMPDEST PUSH1 0x40 MLOAD DUP1 SWAP2 SUB SWAP1 REVERT JUMPDEST PUSH0 PUSH2 0x12B2 PUSH2 0x1A56 JUMP JUMPDEST PUSH6 0xFFFFFFFFFFFF AND SWAP1 POP DUP1 DUP3 LT PUSH2 0x12D0 JUMPI PUSH0 SWAP6 POP POP POP POP POP POP PUSH2 0x134A JUMP JUMPDEST PUSH0 PUSH2 0x12DA DUP9 PUSH2 0x1BFE JUMP JUMPDEST SWAP1 POP DUP2 DUP2 LT PUSH2 0x12F2 JUMPI PUSH1 0x1 SWAP7 POP POP POP POP POP POP POP PUSH2 0x134A JUMP JUMPDEST PUSH2 0x12FB DUP9 PUSH2 0x22DE JUMP JUMPDEST ISZERO DUP1 PUSH2 0x130D JUMPI POP PUSH2 0x130B DUP9 PUSH2 0x2322 JUMP JUMPDEST ISZERO JUMPDEST ISZERO PUSH2 0x1321 JUMPI PUSH1 0x3 SWAP7 POP POP POP POP POP POP POP PUSH2 0x134A JUMP JUMPDEST PUSH0 PUSH2 0x132B DUP10 PUSH2 0x1B16 JUMP JUMPDEST SUB PUSH2 0x133F JUMPI PUSH1 0x4 SWAP7 POP POP POP POP POP POP POP PUSH2 0x134A JUMP JUMPDEST PUSH1 0x5 SWAP7 POP POP POP POP POP POP POP JUMPDEST SWAP2 SWAP1 POP JUMP JUMPDEST PUSH0 PUSH1 0x9 PUSH0 DUP5 DUP2 MSTORE PUSH1 0x20 ADD SWAP1 DUP2 MSTORE PUSH1 0x20 ADD PUSH0 KECCAK256 PUSH1 0x3 ADD PUSH0 DUP4 PUSH20 0xFFFFFFFFFFFFFFFFFFFFFFFFFFFFFFFFFFFFFFFF AND PUSH20 0xFFFFFFFFFFFFFFFFFFFFFFFFFFFFFFFFFFFFFFFF AND DUP2 MSTORE PUSH1 0x20 ADD SWAP1 DUP2 MSTORE PUSH1 0x20 ADD PUSH0 KECCAK256 PUSH0 SWAP1 SLOAD SWAP1 PUSH2 0x100 EXP SWAP1 DIV PUSH1 0xFF AND SWAP1 POP SWAP3 SWAP2 POP POP JUMP JUMPDEST PUSH0 PUSH0 PUSH2 0x13C2 DUP7 DUP7 DUP7 DUP7 PUSH2 0x1AF6 JUMP JUMPDEST SWAP1 POP PUSH0 PUSH2 0x13CD PUSH2 0x2349 JUMP JUMPDEST SWAP1 POP PUSH2 0x13D9 DUP3 DUP3 PUSH2 0x2350 JUMP JUMPDEST PUSH2 0x141C JUMPI DUP2 DUP2 PUSH1 0x40 MLOAD PUSH32 0x8FE5D8A900000000000000000000000000000000000000000000000000000000 DUP2 MSTORE PUSH1 0x4 ADD PUSH2 0x1413 SWAP3 SWAP2 SWAP1 PUSH2 0x4ED3 JUMP JUMPDEST PUSH1 0x40 MLOAD DUP1 SWAP2 SUB SWAP1 REVERT JUMPDEST PUSH2 0x1428 DUP8 DUP8 DUP8 DUP8 PUSH2 0x23C7 JUMP JUMPDEST SWAP3 POP POP POP SWAP5 SWAP4 POP POP POP POP JUMP JUMPDEST PUSH1 0x60 PUSH2 0x143E PUSH2 0x1EF0 JUMP JUMPDEST PUSH20 0xFFFFFFFFFFFFFFFFFFFFFFFFFFFFFFFFFFFFFFFF AND PUSH4 0x4BF5D7E9 PUSH1 0x40 MLOAD DUP2 PUSH4 0xFFFFFFFF AND PUSH1 0xE0 SHL DUP2 MSTORE PUSH1 0x4 ADD PUSH0 PUSH1 0x40 MLOAD DUP1 DUP4 SUB DUP2 DUP7 GAS STATICCALL SWAP3 POP POP POP DUP1 ISZERO PUSH2 0x14A8 JUMPI POP PUSH1 0x40 MLOAD RETURNDATASIZE PUSH0 DUP3 RETURNDATACOPY RETURNDATASIZE PUSH1 0x1F NOT PUSH1 0x1F DUP3 ADD AND DUP3 ADD DUP1 PUSH1 0x40 MSTORE POP DUP2 ADD SWAP1 PUSH2 0x14A5 SWAP2 SWAP1 PUSH2 0x4F68 JUMP JUMPDEST PUSH1 0x1 JUMPDEST PUSH2 0x14E9 JUMPI PUSH1 0x40 MLOAD DUP1 PUSH1 0x40 ADD PUSH1 0x40 MSTORE DUP1 PUSH1 0x1D DUP2 MSTORE PUSH1 0x20 ADD PUSH32 0x6D6F64653D626C6F636B6E756D6265722666726F6D3D64656661756C74000000 DUP2 MSTORE POP SWAP1 POP PUSH2 0x14EE JUMP JUMPDEST DUP1 SWAP2 POP POP JUMPDEST SWAP1 JUMP JUMPDEST PUSH0 PUSH0 PUSH0 PUSH0 PUSH1 0x9 PUSH0 DUP7 DUP2 MSTORE PUSH1 0x20 ADD SWAP1 DUP2 MSTORE PUSH1 0x20 ADD PUSH0 KECCAK256 SWAP1 POP DUP1 PUSH0 ADD SLOAD DUP2 PUSH1 0x1 ADD SLOAD DUP3 PUSH1 0x2 ADD SLOAD SWAP4 POP SWAP4 POP SWAP4 POP POP SWAP2 SWAP4 SWAP1 SWAP3 POP JUMP JUMPDEST PUSH1 0x60 PUSH1 0x40 MLOAD DUP1 PUSH1 0x40 ADD PUSH1 0x40 MSTORE DUP1 PUSH1 0x1 DUP2 MSTORE PUSH1 0x20 ADD PUSH32 0x3100000000000000000000000000000000000000000000000000000000000000 DUP2 MSTORE POP SWAP1 POP SWAP1 JUMP JUMPDEST PUSH0 PUSH0 PUSH2 0x156B PUSH2 0x2349 JUMP JUMPDEST SWAP1 POP PUSH2 0x1587 DUP5 DUP3 DUP6 PUSH1 0x40 MLOAD DUP1 PUSH1 0x20 ADD PUSH1 0x40 MSTORE DUP1 PUSH0 DUP2 MSTORE POP PUSH2 0x24A9 JUMP JUMPDEST SWAP2 POP POP SWAP3 SWAP2 POP POP JUMP JUMPDEST PUSH0 PUSH0 PUSH2 0x161D DUP8 PUSH2 0x1617 PUSH32 0x3E83946653575F9A39005E1545185629E92736B7528AB20CA3816F315424A811 DUP13 DUP13 DUP13 PUSH2 0x15C6 DUP15 PUSH2 0x24C8 JUMP JUMPDEST DUP14 DUP14 PUSH1 0x40 MLOAD PUSH2 0x15D6 SWAP3 SWAP2 SWAP1 PUSH2 0x4FDD JUMP JUMPDEST PUSH1 0x40 MLOAD DUP1 SWAP2 SUB SWAP1 KECCAK256 DUP13 DUP1 MLOAD SWAP1 PUSH1 0x20 ADD KECCAK256 PUSH1 0x40 MLOAD PUSH1 0x20 ADD PUSH2 0x15FC SWAP8 SWAP7 SWAP6 SWAP5 SWAP4 SWAP3 SWAP2 SWAP1 PUSH2 0x5004 JUMP JUMPDEST PUSH1 0x40 MLOAD PUSH1 0x20 DUP2 DUP4 SUB SUB DUP2 MSTORE SWAP1 PUSH1 0x40 MSTORE DUP1 MLOAD SWAP1 PUSH1 0x20 ADD KECCAK256 PUSH2 0x251B JUMP JUMPDEST DUP6 PUSH2 0x2534 JUMP JUMPDEST SWAP1 POP DUP1 PUSH2 0x1661 JUMPI DUP7 PUSH1 0x40 MLOAD PUSH32 0x94AB6C0700000000000000000000000000000000000000000000000000000000 DUP2 MSTORE PUSH1 0x4 ADD PUSH2 0x1658 SWAP2 SWAP1 PUSH2 0x3CAA JUMP JUMPDEST PUSH1 0x40 MLOAD DUP1 SWAP2 SUB SWAP1 REVERT JUMPDEST PUSH2 0x16B1 DUP10 DUP9 DUP11 DUP10 DUP10 DUP1 DUP1 PUSH1 0x1F ADD PUSH1 0x20 DUP1 SWAP2 DIV MUL PUSH1 0x20 ADD PUSH1 0x40 MLOAD SWAP1 DUP2 ADD PUSH1 0x40 MSTORE DUP1 SWAP4 SWAP3 SWAP2 SWAP1 DUP2 DUP2 MSTORE PUSH1 0x20 ADD DUP4 DUP4 DUP1 DUP3 DUP5 CALLDATACOPY PUSH0 DUP2 DUP5 ADD MSTORE PUSH1 0x1F NOT PUSH1 0x1F DUP3 ADD AND SWAP1 POP DUP1 DUP4 ADD SWAP3 POP POP POP POP POP POP POP DUP9 PUSH2 0x25E0 JUMP JUMPDEST SWAP2 POP POP SWAP8 SWAP7 POP POP POP POP POP POP POP JUMP JUMPDEST PUSH0 PUSH0 PUSH2 0x16C9 PUSH2 0x2349 JUMP JUMPDEST SWAP1 POP PUSH2 0x171B DUP8 DUP3 DUP9 DUP9 DUP9 DUP1 DUP1 PUSH1 0x1F ADD PUSH1 0x20 DUP1 SWAP2 DIV MUL PUSH1 0x20 ADD PUSH1 0x40 MLOAD SWAP1 DUP2 ADD PUSH1 0x40 MSTORE DUP1 SWAP4 SWAP3 SWAP2 SWAP1 DUP2 DUP2 MSTORE PUSH1 0x20 ADD DUP4 DUP4 DUP1 DUP3 DUP5 CALLDATACOPY PUSH0 DUP2 DUP5 ADD MSTORE PUSH1 0x1F NOT PUSH1 0x1F DUP3 ADD AND SWAP1 POP DUP1 DUP4 ADD SWAP3 POP POP POP POP POP POP POP DUP8 PUSH2 0x25E0 JUMP JUMPDEST SWAP2 POP POP SWAP6 SWAP5 POP POP POP POP POP JUMP JUMPDEST PUSH2 0x172F PUSH2 0x26EA JUMP JUMPDEST PUSH2 0x1738 DUP2 PUSH2 0x27DF JUMP JUMPDEST POP JUMP JUMPDEST PUSH0 PUSH0 PUSH2 0x1745 PUSH2 0x2349 JUMP JUMPDEST SWAP1 POP PUSH2 0x1796 DUP7 DUP3 DUP8 DUP8 DUP8 DUP1 DUP1 PUSH1 0x1F ADD PUSH1 0x20 DUP1 SWAP2 DIV MUL PUSH1 0x20 ADD PUSH1 0x40 MLOAD SWAP1 DUP2 ADD PUSH1 0x40 MSTORE DUP1 SWAP4 SWAP3 SWAP2 SWAP1 DUP2 DUP2 MSTORE PUSH1 0x20 ADD DUP4 DUP4 DUP1 DUP3 DUP5 CALLDATACOPY PUSH0 DUP2 DUP5 ADD MSTORE PUSH1 0x1F NOT PUSH1 0x1F DUP3 ADD AND SWAP1 POP DUP1 DUP4 ADD SWAP3 POP POP POP POP POP POP POP PUSH2 0x24A9 JUMP JUMPDEST SWAP2 POP POP SWAP5 SWAP4 POP POP POP POP JUMP JUMPDEST PUSH0 PUSH0 PUSH2 0x17AB PUSH2 0x2349 JUMP JUMPDEST SWAP1 POP PUSH2 0x17B7 DUP2 DUP5 PUSH2 0x2852 JUMP JUMPDEST PUSH2 0x17F8 JUMPI DUP1 PUSH1 0x40 MLOAD PUSH32 0xD9B3955700000000000000000000000000000000000000000000000000000000 DUP2 MSTORE PUSH1 0x4 ADD PUSH2 0x17EF SWAP2 SWAP1 PUSH2 0x3CAA JUMP JUMPDEST PUSH1 0x40 MLOAD DUP1 SWAP2 SUB SWAP1 REVERT JUMPDEST PUSH0 PUSH2 0x1801 PUSH2 0x1B70 JUMP JUMPDEST SWAP1 POP PUSH0 DUP2 GT ISZERO PUSH2 0x187E JUMPI PUSH0 PUSH2 0x1831 DUP4 PUSH1 0x1 PUSH2 0x181A PUSH2 0x1A56 JUMP JUMPDEST PUSH2 0x1824 SWAP2 SWAP1 PUSH2 0x509E JUMP JUMPDEST PUSH6 0xFFFFFFFFFFFF AND PUSH2 0x1DA0 JUMP JUMPDEST SWAP1 POP DUP2 DUP2 LT ISZERO PUSH2 0x187C JUMPI DUP3 DUP2 DUP4 PUSH1 0x40 MLOAD PUSH32 0xC242EE1600000000000000000000000000000000000000000000000000000000 DUP2 MSTORE PUSH1 0x4 ADD PUSH2 0x1873 SWAP4 SWAP3 SWAP2 SWAP1 PUSH2 0x50D7 JUMP JUMPDEST PUSH1 0x40 MLOAD DUP1 SWAP2 SUB SWAP1 REVERT JUMPDEST POP JUMPDEST PUSH2 0x188B DUP8 DUP8 DUP8 DUP8 DUP7 PUSH2 0x2938 JUMP JUMPDEST SWAP3 POP POP POP SWAP5 SWAP4 POP POP POP POP JUMP JUMPDEST PUSH0 PUSH1 0x2 PUSH0 DUP4 PUSH20 0xFFFFFFFFFFFFFFFFFFFFFFFFFFFFFFFFFFFFFFFF AND PUSH20 0xFFFFFFFFFFFFFFFFFFFFFFFFFFFFFFFFFFFFFFFF AND DUP2 MSTORE PUSH1 0x20 ADD SWAP1 DUP2 MSTORE PUSH1 0x20 ADD PUSH0 KECCAK256 SLOAD SWAP1 POP SWAP2 SWAP1 POP JUMP JUMPDEST PUSH0 PUSH1 0x60 DUP1 PUSH0 PUSH0 PUSH0 PUSH1 0x60 PUSH2 0x18EE PUSH2 0x2BBD JUMP JUMPDEST PUSH2 0x18F6 PUSH2 0x2BF7 JUMP JUMPDEST CHAINID ADDRESS PUSH0 PUSH0 SHL PUSH0 PUSH8 0xFFFFFFFFFFFFFFFF DUP2 GT ISZERO PUSH2 0x1915 JUMPI PUSH2 0x1914 PUSH2 0x3CF5 JUMP JUMPDEST JUMPDEST PUSH1 0x40 MLOAD SWAP1 DUP1 DUP3 MSTORE DUP1 PUSH1 0x20 MUL PUSH1 0x20 ADD DUP3 ADD PUSH1 0x40 MSTORE DUP1 ISZERO PUSH2 0x1943 JUMPI DUP2 PUSH1 0x20 ADD PUSH1 0x20 DUP3 MUL DUP1 CALLDATASIZE DUP4 CALLDATACOPY DUP1 DUP3 ADD SWAP2 POP POP SWAP1 POP JUMPDEST POP PUSH32 0xF00000000000000000000000000000000000000000000000000000000000000 SWAP6 SWAP5 SWAP4 SWAP3 SWAP2 SWAP1 SWAP7 POP SWAP7 POP SWAP7 POP SWAP7 POP SWAP7 POP SWAP7 POP SWAP7 POP SWAP1 SWAP2 SWAP3 SWAP4 SWAP5 SWAP6 SWAP7 JUMP JUMPDEST PUSH0 PUSH0 PUSH2 0x19ED DUP5 PUSH2 0x19E7 PUSH32 0xF2AAD550CF55F045CB27E9C559F9889FDFB6E6CDAA032301D6EA397784AE51D7 DUP10 DUP10 DUP10 PUSH2 0x19B8 DUP12 PUSH2 0x24C8 JUMP JUMPDEST PUSH1 0x40 MLOAD PUSH1 0x20 ADD PUSH2 0x19CC SWAP6 SWAP5 SWAP4 SWAP3 SWAP2 SWAP1 PUSH2 0x510C JUMP JUMPDEST PUSH1 0x40 MLOAD PUSH1 0x20 DUP2 DUP4 SUB SUB DUP2 MSTORE SWAP1 PUSH1 0x40 MSTORE DUP1 MLOAD SWAP1 PUSH1 0x20 ADD KECCAK256 PUSH2 0x251B JUMP JUMPDEST DUP6 PUSH2 0x2534 JUMP JUMPDEST SWAP1 POP DUP1 PUSH2 0x1A31 JUMPI DUP4 PUSH1 0x40 MLOAD PUSH32 0x94AB6C0700000000000000000000000000000000000000000000000000000000 DUP2 MSTORE PUSH1 0x4 ADD PUSH2 0x1A28 SWAP2 SWAP1 PUSH2 0x3CAA JUMP JUMPDEST PUSH1 0x40 MLOAD DUP1 SWAP2 SUB SWAP1 REVERT JUMPDEST PUSH2 0x1A4B DUP7 DUP6 DUP8 PUSH1 0x40 MLOAD DUP1 PUSH1 0x20 ADD PUSH1 0x40 MSTORE DUP1 PUSH0 DUP2 MSTORE POP PUSH2 0x24A9 JUMP JUMPDEST SWAP2 POP POP SWAP5 SWAP4 POP POP POP POP JUMP JUMPDEST PUSH0 PUSH2 0x1A5F PUSH2 0x1EF0 JUMP JUMPDEST PUSH20 0xFFFFFFFFFFFFFFFFFFFFFFFFFFFFFFFFFFFFFFFF AND PUSH4 0x91DDADF4 PUSH1 0x40 MLOAD DUP2 PUSH4 0xFFFFFFFF AND PUSH1 0xE0 SHL DUP2 MSTORE PUSH1 0x4 ADD PUSH1 0x20 PUSH1 0x40 MLOAD DUP1 DUP4 SUB DUP2 DUP7 GAS STATICCALL SWAP3 POP POP POP DUP1 ISZERO PUSH2 0x1AC6 JUMPI POP PUSH1 0x40 MLOAD RETURNDATASIZE PUSH1 0x1F NOT PUSH1 0x1F DUP3 ADD AND DUP3 ADD DUP1 PUSH1 0x40 MSTORE POP DUP2 ADD SWAP1 PUSH2 0x1AC3 SWAP2 SWAP1 PUSH2 0x5171 JUMP JUMPDEST PUSH1 0x1 JUMPDEST PUSH2 0x1AD9 JUMPI PUSH2 0x1AD2 PUSH2 0x2C32 JUMP JUMPDEST SWAP1 POP PUSH2 0x1ADE JUMP JUMPDEST DUP1 SWAP2 POP POP JUMPDEST SWAP1 JUMP JUMPDEST PUSH0 PUSH2 0x1AED DUP5 DUP5 DUP5 PUSH2 0x2C41 JUMP JUMPDEST SWAP1 POP SWAP4 SWAP3 POP POP POP JUMP JUMPDEST PUSH0 PUSH2 0x1B03 DUP6 DUP6 DUP6 DUP6 PUSH2 0x1CF1 JUMP JUMPDEST SWAP1 POP SWAP5 SWAP4 POP POP POP POP JUMP JUMPDEST PUSH0 PUSH0 SWAP1 POP SWAP2 SWAP1 POP JUMP JUMPDEST PUSH0 PUSH1 0x4 PUSH0 DUP4 DUP2 MSTORE PUSH1 0x20 ADD SWAP1 DUP2 MSTORE PUSH1 0x20 ADD PUSH0 KECCAK256 PUSH1 0x1 ADD PUSH0 SWAP1 SLOAD SWAP1 PUSH2 0x100 EXP SWAP1 DIV PUSH6 0xFFFFFFFFFFFF AND PUSH6 0xFFFFFFFFFFFF AND SWAP1 POP SWAP2 SWAP1 POP JUMP JUMPDEST PUSH32 0x0 DUP2 JUMP JUMPDEST PUSH0 PUSH2 0x1B79 PUSH2 0x2CCC JUMP JUMPDEST SWAP1 POP SWAP1 JUMP JUMPDEST PUSH0 ADDRESS PUSH20 0xFFFFFFFFFFFFFFFFFFFFFFFFFFFFFFFFFFFFFFFF AND PUSH2 0x1B9E PUSH2 0xBE7 JUMP JUMPDEST PUSH20 0xFFFFFFFFFFFFFFFFFFFFFFFFFFFFFFFFFFFFFFFF AND EQ PUSH2 0x1BEB JUMPI PUSH1 0x40 MLOAD PUSH32 0xE90A651E00000000000000000000000000000000000000000000000000000000 DUP2 MSTORE PUSH1 0x4 ADD PUSH1 0x40 MLOAD DUP1 SWAP2 SUB SWAP1 REVERT JUMPDEST PUSH4 0xBC197C81 PUSH1 0xE0 SHL SWAP1 POP SWAP6 SWAP5 POP POP POP POP POP JUMP JUMPDEST PUSH0 PUSH1 0x4 PUSH0 DUP4 DUP2 MSTORE PUSH1 0x20 ADD SWAP1 DUP2 MSTORE PUSH1 0x20 ADD PUSH0 KECCAK256 PUSH0 ADD PUSH1 0x1A SWAP1 SLOAD SWAP1 PUSH2 0x100 EXP SWAP1 DIV PUSH4 0xFFFFFFFF AND PUSH4 0xFFFFFFFF AND PUSH1 0x4 PUSH0 DUP5 DUP2 MSTORE PUSH1 0x20 ADD SWAP1 DUP2 MSTORE PUSH1 0x20 ADD PUSH0 KECCAK256 PUSH0 ADD PUSH1 0x14 SWAP1 SLOAD SWAP1 PUSH2 0x100 EXP SWAP1 DIV PUSH6 0xFFFFFFFFFFFF AND PUSH2 0x1C59 SWAP2 SWAP1 PUSH2 0x519C JUMP JUMPDEST PUSH6 0xFFFFFFFFFFFF AND SWAP1 POP SWAP2 SWAP1 POP JUMP JUMPDEST PUSH2 0x1C70 PUSH2 0x26EA JUMP JUMPDEST PUSH0 PUSH0 DUP6 PUSH20 0xFFFFFFFFFFFFFFFFFFFFFFFFFFFFFFFFFFFFFFFF AND DUP6 DUP6 DUP6 PUSH1 0x40 MLOAD PUSH2 0x1C9A SWAP3 SWAP2 SWAP1 PUSH2 0x4FDD JUMP JUMPDEST PUSH0 PUSH1 0x40 MLOAD DUP1 DUP4 SUB DUP2 DUP6 DUP8 GAS CALL SWAP3 POP POP POP RETURNDATASIZE DUP1 PUSH0 DUP2 EQ PUSH2 0x1CD4 JUMPI PUSH1 0x40 MLOAD SWAP2 POP PUSH1 0x1F NOT PUSH1 0x3F RETURNDATASIZE ADD AND DUP3 ADD PUSH1 0x40 MSTORE RETURNDATASIZE DUP3 MSTORE RETURNDATASIZE PUSH0 PUSH1 0x20 DUP5 ADD RETURNDATACOPY PUSH2 0x1CD9 JUMP JUMPDEST PUSH1 0x60 SWAP2 POP JUMPDEST POP SWAP2 POP SWAP2 POP PUSH2 0x1CE8 DUP3 DUP3 PUSH2 0x2CD5 JUMP JUMPDEST POP POP POP POP POP POP POP JUMP JUMPDEST PUSH0 DUP5 DUP5 DUP5 DUP5 PUSH1 0x40 MLOAD PUSH1 0x20 ADD PUSH2 0x1D09 SWAP5 SWAP4 SWAP3 SWAP2 SWAP1 PUSH2 0x5399 JUMP JUMPDEST PUSH1 0x40 MLOAD PUSH1 0x20 DUP2 DUP4 SUB SUB DUP2 MSTORE SWAP1 PUSH1 0x40 MSTORE DUP1 MLOAD SWAP1 PUSH1 0x20 ADD KECCAK256 PUSH0 SHR SWAP1 POP SWAP5 SWAP4 POP POP POP POP JUMP JUMPDEST PUSH1 0x60 PUSH1 0x40 MLOAD DUP1 PUSH1 0x40 ADD PUSH1 0x40 MSTORE DUP1 PUSH1 0x20 DUP2 MSTORE PUSH1 0x20 ADD PUSH32 0x737570706F72743D627261766F2671756F72756D3D666F722C6162737461696E DUP2 MSTORE POP SWAP1 POP SWAP1 JUMP JUMPDEST PUSH32 0xF2AAD550CF55F045CB27E9C559F9889FDFB6E6CDAA032301D6EA397784AE51D7 DUP2 JUMP JUMPDEST PUSH2 0x1D94 PUSH2 0x26EA JUMP JUMPDEST PUSH2 0x1D9D DUP2 PUSH2 0x2CF9 JUMP JUMPDEST POP JUMP JUMPDEST PUSH0 PUSH2 0x1DB3 DUP4 DUP4 PUSH2 0x1DAE PUSH2 0x2DB2 JUMP JUMPDEST PUSH2 0x2C41 JUMP JUMPDEST SWAP1 POP SWAP3 SWAP2 POP POP JUMP JUMPDEST PUSH2 0x1DC3 PUSH2 0x26EA JUMP JUMPDEST PUSH2 0x1DCC DUP2 PUSH2 0x2DC8 JUMP JUMPDEST POP JUMP JUMPDEST PUSH0 ADDRESS PUSH20 0xFFFFFFFFFFFFFFFFFFFFFFFFFFFFFFFFFFFFFFFF AND PUSH2 0x1DEF PUSH2 0xBE7 JUMP JUMPDEST PUSH20 0xFFFFFFFFFFFFFFFFFFFFFFFFFFFFFFFFFFFFFFFF AND EQ PUSH2 0x1E3C JUMPI PUSH1 0x40 MLOAD PUSH32 0xE90A651E00000000000000000000000000000000000000000000000000000000 DUP2 MSTORE PUSH1 0x4 ADD PUSH1 0x40 MLOAD DUP1 SWAP2 SUB SWAP1 REVERT JUMPDEST PUSH4 0xF23A6E61 PUSH1 0xE0 SHL SWAP1 POP SWAP6 SWAP5 POP POP POP POP POP JUMP JUMPDEST PUSH0 PUSH1 0x64 PUSH32 0x0 PUSH20 0xFFFFFFFFFFFFFFFFFFFFFFFFFFFFFFFFFFFFFFFF AND PUSH4 0x18160DDD PUSH1 0x40 MLOAD DUP2 PUSH4 0xFFFFFFFF AND PUSH1 0xE0 SHL DUP2 MSTORE PUSH1 0x4 ADD PUSH1 0x20 PUSH1 0x40 MLOAD DUP1 DUP4 SUB DUP2 DUP7 GAS STATICCALL ISZERO DUP1 ISZERO PUSH2 0x1EBB JUMPI RETURNDATASIZE PUSH0 PUSH0 RETURNDATACOPY RETURNDATASIZE PUSH0 REVERT JUMPDEST POP POP POP POP PUSH1 0x40 MLOAD RETURNDATASIZE PUSH1 0x1F NOT PUSH1 0x1F DUP3 ADD AND DUP3 ADD DUP1 PUSH1 0x40 MSTORE POP DUP2 ADD SWAP1 PUSH2 0x1EDF SWAP2 SWAP1 PUSH2 0x5405 JUMP JUMPDEST PUSH2 0x1EE9 SWAP2 SWAP1 PUSH2 0x545D JUMP JUMPDEST SWAP1 POP SWAP2 SWAP1 POP JUMP JUMPDEST PUSH0 PUSH32 0x0 SWAP1 POP SWAP1 JUMP JUMPDEST PUSH0 PUSH32 0x1FFC9A700000000000000000000000000000000000000000000000000000000 PUSH28 0xFFFFFFFFFFFFFFFFFFFFFFFFFFFFFFFFFFFFFFFFFFFFFFFFFFFFFFFF NOT AND DUP3 PUSH28 0xFFFFFFFFFFFFFFFFFFFFFFFFFFFFFFFFFFFFFFFFFFFFFFFFFFFFFFFF NOT AND EQ SWAP1 POP SWAP2 SWAP1 POP JUMP JUMPDEST PUSH0 DUP2 PUSH1 0x7 DUP2 GT ISZERO PUSH2 0x1F94 JUMPI PUSH2 0x1F93 PUSH2 0x4236 JUMP JUMPDEST JUMPDEST PUSH1 0xFF AND PUSH1 0x1 SWAP1 SHL PUSH0 SHL SWAP1 POP SWAP2 SWAP1 POP JUMP JUMPDEST PUSH0 PUSH0 PUSH2 0x1FAF DUP5 PUSH2 0x11F8 JUMP JUMPDEST SWAP1 POP PUSH0 PUSH0 SHL DUP4 PUSH2 0x1FBE DUP4 PUSH2 0x1F80 JUMP JUMPDEST AND SUB PUSH2 0x2005 JUMPI DUP4 DUP2 DUP5 PUSH1 0x40 MLOAD PUSH32 0x31B75E4D00000000000000000000000000000000000000000000000000000000 DUP2 MSTORE PUSH1 0x4 ADD PUSH2 0x1FFC SWAP4 SWAP3 SWAP2 SWAP1 PUSH2 0x548D JUMP JUMPDEST PUSH1 0x40 MLOAD DUP1 SWAP2 SUB SWAP1 REVERT JUMPDEST DUP1 SWAP2 POP POP SWAP3 SWAP2 POP POP JUMP JUMPDEST PUSH0 PUSH0 SWAP1 POP SWAP6 SWAP5 POP POP POP POP POP JUMP JUMPDEST PUSH0 DUP3 PUSH0 ADD PUSH1 0x10 SWAP1 SLOAD SWAP1 PUSH2 0x100 EXP SWAP1 DIV PUSH16 0xFFFFFFFFFFFFFFFFFFFFFFFFFFFFFFFF AND SWAP1 POP DUP3 PUSH0 ADD PUSH0 SWAP1 SLOAD SWAP1 PUSH2 0x100 EXP SWAP1 DIV PUSH16 0xFFFFFFFFFFFFFFFFFFFFFFFFFFFFFFFF AND PUSH16 0xFFFFFFFFFFFFFFFFFFFFFFFFFFFFFFFF AND PUSH1 0x1 DUP3 ADD PUSH16 0xFFFFFFFFFFFFFFFFFFFFFFFFFFFFFFFF AND SUB PUSH2 0x2096 JUMPI PUSH2 0x2095 PUSH1 0x41 PUSH2 0x2E0D JUMP JUMPDEST JUMPDEST DUP2 DUP4 PUSH1 0x1 ADD PUSH0 DUP4 PUSH16 0xFFFFFFFFFFFFFFFFFFFFFFFFFFFFFFFF AND PUSH16 0xFFFFFFFFFFFFFFFFFFFFFFFFFFFFFFFF AND DUP2 MSTORE PUSH1 0x20 ADD SWAP1 DUP2 MSTORE PUSH1 0x20 ADD PUSH0 KECCAK256 DUP2 SWAP1 SSTORE POP PUSH1 0x1 DUP2 ADD DUP4 PUSH0 ADD PUSH1 0x10 PUSH2 0x100 EXP DUP2 SLOAD DUP2 PUSH16 0xFFFFFFFFFFFFFFFFFFFFFFFFFFFFFFFF MUL NOT AND SWAP1 DUP4 PUSH16 0xFFFFFFFFFFFFFFFFFFFFFFFFFFFFFFFF AND MUL OR SWAP1 SSTORE POP POP POP POP JUMP JUMPDEST PUSH0 PUSH0 SWAP1 POP JUMPDEST DUP5 MLOAD DUP2 LT ISZERO PUSH2 0x21F4 JUMPI PUSH0 PUSH0 DUP7 DUP4 DUP2 MLOAD DUP2 LT PUSH2 0x2137 JUMPI PUSH2 0x2136 PUSH2 0x4EA6 JUMP JUMPDEST JUMPDEST PUSH1 0x20 MUL PUSH1 0x20 ADD ADD MLOAD PUSH20 0xFFFFFFFFFFFFFFFFFFFFFFFFFFFFFFFFFFFFFFFF AND DUP7 DUP5 DUP2 MLOAD DUP2 LT PUSH2 0x2168 JUMPI PUSH2 0x2167 PUSH2 0x4EA6 JUMP JUMPDEST JUMPDEST PUSH1 0x20 MUL PUSH1 0x20 ADD ADD MLOAD DUP7 DUP6 DUP2 MLOAD DUP2 LT PUSH2 0x2183 JUMPI PUSH2 0x2182 PUSH2 0x4EA6 JUMP JUMPDEST JUMPDEST PUSH1 0x20 MUL PUSH1 0x20 ADD ADD MLOAD PUSH1 0x40 MLOAD PUSH2 0x2198 SWAP2 SWAP1 PUSH2 0x54F2 JUMP JUMPDEST PUSH0 PUSH1 0x40 MLOAD DUP1 DUP4 SUB DUP2 DUP6 DUP8 GAS CALL SWAP3 POP POP POP RETURNDATASIZE DUP1 PUSH0 DUP2 EQ PUSH2 0x21D2 JUMPI PUSH1 0x40 MLOAD SWAP2 POP PUSH1 0x1F NOT PUSH1 0x3F RETURNDATASIZE ADD AND DUP3 ADD PUSH1 0x40 MSTORE RETURNDATASIZE DUP3 MSTORE RETURNDATASIZE PUSH0 PUSH1 0x20 DUP5 ADD RETURNDATACOPY PUSH2 0x21D7 JUMP JUMPDEST PUSH1 0x60 SWAP2 POP JUMPDEST POP SWAP2 POP SWAP2 POP PUSH2 0x21E6 DUP3 DUP3 PUSH2 0x2CD5 JUMP JUMPDEST POP POP POP DUP1 PUSH1 0x1 ADD SWAP1 POP PUSH2 0x2119 JUMP JUMPDEST POP POP POP POP POP POP JUMP JUMPDEST PUSH0 DUP2 PUSH0 ADD PUSH0 SWAP1 SLOAD SWAP1 PUSH2 0x100 EXP SWAP1 DIV PUSH16 0xFFFFFFFFFFFFFFFFFFFFFFFFFFFFFFFF AND PUSH16 0xFFFFFFFFFFFFFFFFFFFFFFFFFFFFFFFF AND DUP3 PUSH0 ADD PUSH1 0x10 SWAP1 SLOAD SWAP1 PUSH2 0x100 EXP SWAP1 DIV PUSH16 0xFFFFFFFFFFFFFFFFFFFFFFFFFFFFFFFF AND PUSH16 0xFFFFFFFFFFFFFFFFFFFFFFFFFFFFFFFF AND EQ SWAP1 POP SWAP2 SWAP1 POP JUMP JUMPDEST PUSH0 DUP2 PUSH0 ADD PUSH0 PUSH2 0x100 EXP DUP2 SLOAD DUP2 PUSH16 0xFFFFFFFFFFFFFFFFFFFFFFFFFFFFFFFF MUL NOT AND SWAP1 DUP4 PUSH16 0xFFFFFFFFFFFFFFFFFFFFFFFFFFFFFFFF AND MUL OR SWAP1 SSTORE POP PUSH0 DUP2 PUSH0 ADD PUSH1 0x10 PUSH2 0x100 EXP DUP2 SLOAD DUP2 PUSH16 0xFFFFFFFFFFFFFFFFFFFFFFFFFFFFFFFF MUL NOT AND SWAP1 DUP4 PUSH16 0xFFFFFFFFFFFFFFFFFFFFFFFFFFFFFFFF AND MUL OR SWAP1 SSTORE POP POP JUMP JUMPDEST PUSH0 PUSH0 PUSH1 0x9 PUSH0 DUP5 DUP2 MSTORE PUSH1 0x20 ADD SWAP1 DUP2 MSTORE PUSH1 0x20 ADD PUSH0 KECCAK256 SWAP1 POP DUP1 PUSH1 0x2 ADD SLOAD DUP2 PUSH1 0x1 ADD SLOAD PUSH2 0x2307 SWAP2 SWAP1 PUSH2 0x5508 JUMP JUMPDEST PUSH2 0x2318 PUSH2 0x2313 DUP6 PUSH2 0x117C JUMP JUMPDEST PUSH2 0x1E4F JUMP JUMPDEST GT ISZERO SWAP2 POP POP SWAP2 SWAP1 POP JUMP JUMPDEST PUSH0 PUSH0 PUSH1 0x9 PUSH0 DUP5 DUP2 MSTORE PUSH1 0x20 ADD SWAP1 DUP2 MSTORE PUSH1 0x20 ADD PUSH0 KECCAK256 SWAP1 POP DUP1 PUSH0 ADD SLOAD DUP2 PUSH1 0x1 ADD SLOAD GT SWAP2 POP POP SWAP2 SWAP1 POP JUMP JUMPDEST PUSH0 CALLER SWAP1 POP SWAP1 JUMP JUMPDEST PUSH0 PUSH0 PUSH1 0x7 DUP2 GT ISZERO PUSH2 0x2364 JUMPI PUSH2 0x2363 PUSH2 0x4236 JUMP JUMPDEST JUMPDEST PUSH2 0x236D DUP5 PUSH2 0x11F8 JUMP JUMPDEST PUSH1 0x7 DUP2 GT ISZERO PUSH2 0x237F JUMPI PUSH2 0x237E PUSH2 0x4236 JUMP JUMPDEST JUMPDEST EQ DUP1 ISZERO PUSH2 0x23BF JUMPI POP PUSH2 0x2390 DUP4 PUSH2 0xDEF JUMP JUMPDEST PUSH20 0xFFFFFFFFFFFFFFFFFFFFFFFFFFFFFFFFFFFFFFFF AND DUP3 PUSH20 0xFFFFFFFFFFFFFFFFFFFFFFFFFFFFFFFFFFFFFFFF AND EQ JUMPDEST SWAP1 POP SWAP3 SWAP2 POP POP JUMP JUMPDEST PUSH0 PUSH0 PUSH2 0x23D5 DUP7 DUP7 DUP7 DUP7 PUSH2 0x1AF6 JUMP JUMPDEST SWAP1 POP PUSH2 0x2439 DUP2 PUSH2 0x23E5 PUSH1 0x7 PUSH2 0x1F80 JUMP JUMPDEST PUSH2 0x23EF PUSH1 0x6 PUSH2 0x1F80 JUMP JUMPDEST PUSH2 0x23F9 PUSH1 0x2 PUSH2 0x1F80 JUMP JUMPDEST PUSH1 0x1 DUP1 PUSH1 0x7 DUP1 DUP2 GT ISZERO PUSH2 0x240F JUMPI PUSH2 0x240E PUSH2 0x4236 JUMP JUMPDEST JUMPDEST PUSH2 0x2419 SWAP2 SWAP1 PUSH2 0x553B JUMP JUMPDEST PUSH1 0x2 PUSH2 0x2425 SWAP2 SWAP1 PUSH2 0x569E JUMP JUMPDEST PUSH2 0x242F SWAP2 SWAP1 PUSH2 0x56E8 JUMP JUMPDEST PUSH0 SHL XOR XOR XOR PUSH2 0x1FA4 JUMP JUMPDEST POP PUSH1 0x1 PUSH1 0x4 PUSH0 DUP4 DUP2 MSTORE PUSH1 0x20 ADD SWAP1 DUP2 MSTORE PUSH1 0x20 ADD PUSH0 KECCAK256 PUSH0 ADD PUSH1 0x1F PUSH2 0x100 EXP DUP2 SLOAD DUP2 PUSH1 0xFF MUL NOT AND SWAP1 DUP4 ISZERO ISZERO MUL OR SWAP1 SSTORE POP PUSH32 0x789CF55BE980739DAD1D0699B93B58E806B51C9D96619BFA8FE0A28ABAA7B30C DUP2 PUSH1 0x40 MLOAD PUSH2 0x2495 SWAP2 SWAP1 PUSH2 0x3B6D JUMP JUMPDEST PUSH1 0x40 MLOAD DUP1 SWAP2 SUB SWAP1 LOG1 DUP1 SWAP2 POP POP SWAP5 SWAP4 POP POP POP POP JUMP JUMPDEST PUSH0 PUSH2 0x24BE DUP6 DUP6 DUP6 DUP6 PUSH2 0x24B9 PUSH2 0x2DB2 JUMP JUMPDEST PUSH2 0x25E0 JUMP JUMPDEST SWAP1 POP SWAP5 SWAP4 POP POP POP POP JUMP JUMPDEST PUSH0 PUSH1 0x2 PUSH0 DUP4 PUSH20 0xFFFFFFFFFFFFFFFFFFFFFFFFFFFFFFFFFFFFFFFF AND PUSH20 0xFFFFFFFFFFFFFFFFFFFFFFFFFFFFFFFFFFFFFFFF AND DUP2 MSTORE PUSH1 0x20 ADD SWAP1 DUP2 MSTORE PUSH1 0x20 ADD PUSH0 KECCAK256 PUSH0 DUP2 SLOAD DUP1 SWAP3 SWAP2 SWAP1 PUSH1 0x1 ADD SWAP2 SWAP1 POP SSTORE SWAP1 POP SWAP2 SWAP1 POP JUMP JUMPDEST PUSH0 PUSH2 0x252D PUSH2 0x2527 PUSH2 0x2E1E JUMP JUMPDEST DUP4 PUSH2 0x2ED4 JUMP JUMPDEST SWAP1 POP SWAP2 SWAP1 POP JUMP JUMPDEST PUSH0 PUSH0 DUP5 PUSH20 0xFFFFFFFFFFFFFFFFFFFFFFFFFFFFFFFFFFFFFFFF AND EXTCODESIZE SUB PUSH2 0x25CB JUMPI PUSH0 PUSH0 PUSH2 0x255F DUP6 DUP6 PUSH2 0x2F14 JUMP JUMPDEST POP SWAP2 POP SWAP2 POP PUSH0 PUSH1 0x3 DUP2 GT ISZERO PUSH2 0x2577 JUMPI PUSH2 0x2576 PUSH2 0x4236 JUMP JUMPDEST JUMPDEST DUP2 PUSH1 0x3 DUP2 GT ISZERO PUSH2 0x258A JUMPI PUSH2 0x2589 PUSH2 0x4236 JUMP JUMPDEST JUMPDEST EQ DUP1 ISZERO PUSH2 0x25C2 JUMPI POP DUP6 PUSH20 0xFFFFFFFFFFFFFFFFFFFFFFFFFFFFFFFFFFFFFFFF AND DUP3 PUSH20 0xFFFFFFFFFFFFFFFFFFFFFFFFFFFFFFFFFFFFFFFF AND EQ JUMPDEST SWAP3 POP POP POP PUSH2 0x25D9 JUMP JUMPDEST PUSH2 0x25D6 DUP5 DUP5 DUP5 PUSH2 0x2F69 JUMP JUMPDEST SWAP1 POP JUMPDEST SWAP4 SWAP3 POP POP POP JUMP JUMPDEST PUSH0 PUSH2 0x25F4 DUP7 PUSH2 0x25EF PUSH1 0x1 PUSH2 0x1F80 JUMP JUMPDEST PUSH2 0x1FA4 JUMP JUMPDEST POP PUSH0 PUSH2 0x2609 DUP7 PUSH2 0x2603 DUP10 PUSH2 0x117C JUMP JUMPDEST DUP6 PUSH2 0x2C41 JUMP JUMPDEST SWAP1 POP PUSH0 PUSH2 0x2619 DUP9 DUP9 DUP9 DUP6 DUP9 PUSH2 0x3088 JUMP JUMPDEST SWAP1 POP PUSH0 DUP5 MLOAD SUB PUSH2 0x267C JUMPI DUP7 PUSH20 0xFFFFFFFFFFFFFFFFFFFFFFFFFFFFFFFFFFFFFFFF AND PUSH32 0xB8E138887D0AA13BAB447E82DE9D5C1777041ECD21CA36BA824FF1E6C07DDDA4 DUP10 DUP9 DUP5 DUP10 PUSH1 0x40 MLOAD PUSH2 0x266F SWAP5 SWAP4 SWAP3 SWAP2 SWAP1 PUSH2 0x571B JUMP JUMPDEST PUSH1 0x40 MLOAD DUP1 SWAP2 SUB SWAP1 LOG2 PUSH2 0x26D3 JUMP JUMPDEST DUP7 PUSH20 0xFFFFFFFFFFFFFFFFFFFFFFFFFFFFFFFFFFFFFFFF AND PUSH32 0xE2BABFBAC5889A709B63BB7F598B324E08BC5A4FB9EC647FB3CBC9EC07EB8712 DUP10 DUP9 DUP5 DUP10 DUP10 PUSH1 0x40 MLOAD PUSH2 0x26CA SWAP6 SWAP5 SWAP4 SWAP3 SWAP2 SWAP1 PUSH2 0x57AD JUMP JUMPDEST PUSH1 0x40 MLOAD DUP1 SWAP2 SUB SWAP1 LOG2 JUMPDEST PUSH2 0x26DC DUP9 PUSH2 0x327D JUMP JUMPDEST DUP1 SWAP3 POP POP POP SWAP6 SWAP5 POP POP POP POP POP JUMP JUMPDEST PUSH2 0x26F2 PUSH2 0x2349 JUMP JUMPDEST PUSH20 0xFFFFFFFFFFFFFFFFFFFFFFFFFFFFFFFFFFFFFFFF AND PUSH2 0x2710 PUSH2 0xBE7 JUMP JUMPDEST PUSH20 0xFFFFFFFFFFFFFFFFFFFFFFFFFFFFFFFFFFFFFFFF AND EQ PUSH2 0x276F JUMPI PUSH2 0x2733 PUSH2 0x2349 JUMP JUMPDEST PUSH1 0x40 MLOAD PUSH32 0x47096E4700000000000000000000000000000000000000000000000000000000 DUP2 MSTORE PUSH1 0x4 ADD PUSH2 0x2766 SWAP2 SWAP1 PUSH2 0x3CAA JUMP JUMPDEST PUSH1 0x40 MLOAD DUP1 SWAP2 SUB SWAP1 REVERT JUMPDEST ADDRESS PUSH20 0xFFFFFFFFFFFFFFFFFFFFFFFFFFFFFFFFFFFFFFFF AND PUSH2 0x278E PUSH2 0xBE7 JUMP JUMPDEST PUSH20 0xFFFFFFFFFFFFFFFFFFFFFFFFFFFFFFFFFFFFFFFF AND EQ PUSH2 0x27DD JUMPI PUSH0 PUSH2 0x27B2 PUSH2 0x3280 JUMP JUMPDEST PUSH1 0x40 MLOAD PUSH2 0x27C0 SWAP3 SWAP2 SWAP1 PUSH2 0x4FDD JUMP JUMPDEST PUSH1 0x40 MLOAD DUP1 SWAP2 SUB SWAP1 KECCAK256 SWAP1 POP JUMPDEST DUP1 PUSH2 0x27D6 PUSH1 0x5 PUSH2 0x328C JUMP JUMPDEST SUB PUSH2 0x27CB JUMPI POP JUMPDEST JUMP JUMPDEST PUSH32 0xC565B045403DC03C2EEA82B81A0465EDAD9E2E7FC4D97E11421C209DA93D7A93 PUSH1 0x8 PUSH0 SWAP1 SLOAD SWAP1 PUSH2 0x100 EXP SWAP1 DIV PUSH6 0xFFFFFFFFFFFF AND DUP3 PUSH1 0x40 MLOAD PUSH2 0x2823 SWAP3 SWAP2 SWAP1 PUSH2 0x580C JUMP JUMPDEST PUSH1 0x40 MLOAD DUP1 SWAP2 SUB SWAP1 LOG1 DUP1 PUSH1 0x8 PUSH0 PUSH2 0x100 EXP DUP2 SLOAD DUP2 PUSH6 0xFFFFFFFFFFFF MUL NOT AND SWAP1 DUP4 PUSH6 0xFFFFFFFFFFFF AND MUL OR SWAP1 SSTORE POP POP JUMP JUMPDEST PUSH0 PUSH0 DUP3 MLOAD SWAP1 POP PUSH1 0x34 DUP2 LT ISZERO PUSH2 0x286B JUMPI PUSH1 0x1 SWAP2 POP POP PUSH2 0x2932 JUMP JUMPDEST PUSH0 PUSH2 0x2879 DUP5 PUSH1 0x34 DUP5 SUB PUSH2 0x33BA JUMP JUMPDEST SWAP1 POP PUSH32 0x2370726F706F7365723D00000000000000000000000000000000000000000000 PUSH22 0xFFFFFFFFFFFFFFFFFFFFFFFFFFFFFFFFFFFFFFFFFFFF NOT AND DUP2 PUSH22 0xFFFFFFFFFFFFFFFFFFFFFFFFFFFFFFFFFFFFFFFFFFFF NOT AND EQ PUSH2 0x28DF JUMPI PUSH1 0x1 SWAP3 POP POP POP PUSH2 0x2932 JUMP JUMPDEST PUSH0 PUSH0 PUSH2 0x28EF DUP7 PUSH1 0x2A DUP7 SUB DUP7 PUSH2 0x33CA JUMP JUMPDEST SWAP2 POP SWAP2 POP DUP2 ISZERO DUP1 PUSH2 0x292B JUMPI POP DUP7 PUSH20 0xFFFFFFFFFFFFFFFFFFFFFFFFFFFFFFFFFFFFFFFF AND DUP2 PUSH20 0xFFFFFFFFFFFFFFFFFFFFFFFFFFFFFFFFFFFFFFFF AND EQ JUMPDEST SWAP5 POP POP POP POP POP JUMPDEST SWAP3 SWAP2 POP POP JUMP JUMPDEST PUSH0 PUSH2 0x294C DUP7 DUP7 DUP7 DUP7 DUP1 MLOAD SWAP1 PUSH1 0x20 ADD KECCAK256 PUSH2 0x1AF6 JUMP JUMPDEST SWAP1 POP DUP5 MLOAD DUP7 MLOAD EQ ISZERO DUP1 PUSH2 0x2961 JUMPI POP DUP4 MLOAD DUP7 MLOAD EQ ISZERO JUMPDEST DUP1 PUSH2 0x296C JUMPI POP PUSH0 DUP7 MLOAD EQ JUMPDEST ISZERO PUSH2 0x29B5 JUMPI DUP6 MLOAD DUP5 MLOAD DUP7 MLOAD PUSH1 0x40 MLOAD PUSH32 0x447B05D000000000000000000000000000000000000000000000000000000000 DUP2 MSTORE PUSH1 0x4 ADD PUSH2 0x29AC SWAP4 SWAP3 SWAP2 SWAP1 PUSH2 0x4300 JUMP JUMPDEST PUSH1 0x40 MLOAD DUP1 SWAP2 SUB SWAP1 REVERT JUMPDEST PUSH0 PUSH1 0x4 PUSH0 DUP4 DUP2 MSTORE PUSH1 0x20 ADD SWAP1 DUP2 MSTORE PUSH1 0x20 ADD PUSH0 KECCAK256 PUSH0 ADD PUSH1 0x14 SWAP1 SLOAD SWAP1 PUSH2 0x100 EXP SWAP1 DIV PUSH6 0xFFFFFFFFFFFF AND PUSH6 0xFFFFFFFFFFFF AND EQ PUSH2 0x2A34 JUMPI DUP1 PUSH2 0x29F3 DUP3 PUSH2 0x11F8 JUMP JUMPDEST PUSH0 PUSH0 SHL PUSH1 0x40 MLOAD PUSH32 0x31B75E4D00000000000000000000000000000000000000000000000000000000 DUP2 MSTORE PUSH1 0x4 ADD PUSH2 0x2A2B SWAP4 SWAP3 SWAP2 SWAP1 PUSH2 0x548D JUMP JUMPDEST PUSH1 0x40 MLOAD DUP1 SWAP2 SUB SWAP1 REVERT JUMPDEST PUSH0 PUSH2 0x2A3D PUSH2 0x11D6 JUMP JUMPDEST PUSH2 0x2A45 PUSH2 0x1A56 JUMP JUMPDEST PUSH6 0xFFFFFFFFFFFF AND PUSH2 0x2A57 SWAP2 SWAP1 PUSH2 0x5508 JUMP JUMPDEST SWAP1 POP PUSH0 PUSH2 0x2A62 PUSH2 0xD40 JUMP JUMPDEST SWAP1 POP PUSH0 PUSH1 0x4 PUSH0 DUP6 DUP2 MSTORE PUSH1 0x20 ADD SWAP1 DUP2 MSTORE PUSH1 0x20 ADD PUSH0 KECCAK256 SWAP1 POP DUP5 DUP2 PUSH0 ADD PUSH0 PUSH2 0x100 EXP DUP2 SLOAD DUP2 PUSH20 0xFFFFFFFFFFFFFFFFFFFFFFFFFFFFFFFFFFFFFFFF MUL NOT AND SWAP1 DUP4 PUSH20 0xFFFFFFFFFFFFFFFFFFFFFFFFFFFFFFFFFFFFFFFF AND MUL OR SWAP1 SSTORE POP PUSH2 0x2AC2 DUP4 PUSH2 0x34DB JUMP JUMPDEST DUP2 PUSH0 ADD PUSH1 0x14 PUSH2 0x100 EXP DUP2 SLOAD DUP2 PUSH6 0xFFFFFFFFFFFF MUL NOT AND SWAP1 DUP4 PUSH6 0xFFFFFFFFFFFF AND MUL OR SWAP1 SSTORE POP PUSH2 0x2AF0 DUP3 PUSH2 0x3534 JUMP JUMPDEST DUP2 PUSH0 ADD PUSH1 0x1A PUSH2 0x100 EXP DUP2 SLOAD DUP2 PUSH4 0xFFFFFFFF MUL NOT AND SWAP1 DUP4 PUSH4 0xFFFFFFFF AND MUL OR SWAP1 SSTORE POP PUSH32 0x7D84A6263AE0D98D3329BD7B46BB4E8D6F98CD35A7ADB45C274C8B7FD5EBD5E0 DUP5 DUP7 DUP12 DUP12 DUP14 MLOAD PUSH8 0xFFFFFFFFFFFFFFFF DUP2 GT ISZERO PUSH2 0x2B51 JUMPI PUSH2 0x2B50 PUSH2 0x3CF5 JUMP JUMPDEST JUMPDEST PUSH1 0x40 MLOAD SWAP1 DUP1 DUP3 MSTORE DUP1 PUSH1 0x20 MUL PUSH1 0x20 ADD DUP3 ADD PUSH1 0x40 MSTORE DUP1 ISZERO PUSH2 0x2B84 JUMPI DUP2 PUSH1 0x20 ADD JUMPDEST PUSH1 0x60 DUP2 MSTORE PUSH1 0x20 ADD SWAP1 PUSH1 0x1 SWAP1 SUB SWAP1 DUP2 PUSH2 0x2B6F JUMPI SWAP1 POP JUMPDEST POP DUP13 DUP10 DUP10 DUP12 PUSH2 0x2B93 SWAP2 SWAP1 PUSH2 0x5508 JUMP JUMPDEST DUP15 PUSH1 0x40 MLOAD PUSH2 0x2BA9 SWAP10 SWAP9 SWAP8 SWAP7 SWAP6 SWAP5 SWAP4 SWAP3 SWAP2 SWAP1 PUSH2 0x5936 JUMP JUMPDEST PUSH1 0x40 MLOAD DUP1 SWAP2 SUB SWAP1 LOG1 POP POP POP SWAP6 SWAP5 POP POP POP POP POP JUMP JUMPDEST PUSH1 0x60 PUSH2 0x2BF2 PUSH0 PUSH32 0x0 PUSH2 0x358B SWAP1 SWAP2 SWAP1 PUSH4 0xFFFFFFFF AND JUMP JUMPDEST SWAP1 POP SWAP1 JUMP JUMPDEST PUSH1 0x60 PUSH2 0x2C2D PUSH1 0x1 PUSH32 0x0 PUSH2 0x358B SWAP1 SWAP2 SWAP1 PUSH4 0xFFFFFFFF AND JUMP JUMPDEST SWAP1 POP SWAP1 JUMP JUMPDEST PUSH0 PUSH2 0x2C3C NUMBER PUSH2 0x34DB JUMP JUMPDEST SWAP1 POP SWAP1 JUMP JUMPDEST PUSH0 PUSH2 0x2C4A PUSH2 0x1EF0 JUMP JUMPDEST PUSH20 0xFFFFFFFFFFFFFFFFFFFFFFFFFFFFFFFFFFFFFFFF AND PUSH4 0x3A46B1A8 DUP6 DUP6 PUSH1 0x40 MLOAD DUP4 PUSH4 0xFFFFFFFF AND PUSH1 0xE0 SHL DUP2 MSTORE PUSH1 0x4 ADD PUSH2 0x2C84 SWAP3 SWAP2 SWAP1 PUSH2 0x59E4 JUMP JUMPDEST PUSH1 0x20 PUSH1 0x40 MLOAD DUP1 DUP4 SUB DUP2 DUP7 GAS STATICCALL ISZERO DUP1 ISZERO PUSH2 0x2C9F JUMPI RETURNDATASIZE PUSH0 PUSH0 RETURNDATACOPY RETURNDATASIZE PUSH0 REVERT JUMPDEST POP POP POP POP PUSH1 0x40 MLOAD RETURNDATASIZE PUSH1 0x1F NOT PUSH1 0x1F DUP3 ADD AND DUP3 ADD DUP1 PUSH1 0x40 MSTORE POP DUP2 ADD SWAP1 PUSH2 0x2CC3 SWAP2 SWAP1 PUSH2 0x5405 JUMP JUMPDEST SWAP1 POP SWAP4 SWAP3 POP POP POP JUMP JUMPDEST PUSH0 PUSH1 0x7 SLOAD SWAP1 POP SWAP1 JUMP JUMPDEST PUSH1 0x60 DUP3 PUSH2 0x2CEA JUMPI PUSH2 0x2CE5 DUP3 PUSH2 0x3638 JUMP JUMPDEST PUSH2 0x2CF2 JUMP JUMPDEST DUP2 SWAP1 POP PUSH2 0x2CF3 JUMP JUMPDEST JUMPDEST SWAP3 SWAP2 POP POP JUMP JUMPDEST PUSH0 DUP2 PUSH4 0xFFFFFFFF AND SUB PUSH2 0x2D43 JUMPI PUSH0 PUSH1 0x40 MLOAD PUSH32 0xF1CFBF0500000000000000000000000000000000000000000000000000000000 DUP2 MSTORE PUSH1 0x4 ADD PUSH2 0x2D3A SWAP2 SWAP1 PUSH2 0x5A44 JUMP JUMPDEST PUSH1 0x40 MLOAD DUP1 SWAP2 SUB SWAP1 REVERT JUMPDEST PUSH32 0x7E3F7F0708A84DE9203036ABAA450DCCC85AD5FF52F78C170F3EDB55CF5E8828 PUSH1 0x8 PUSH1 0x6 SWAP1 SLOAD SWAP1 PUSH2 0x100 EXP SWAP1 DIV PUSH4 0xFFFFFFFF AND DUP3 PUSH1 0x40 MLOAD PUSH2 0x2D86 SWAP3 SWAP2 SWAP1 PUSH2 0x5A8D JUMP JUMPDEST PUSH1 0x40 MLOAD DUP1 SWAP2 SUB SWAP1 LOG1 DUP1 PUSH1 0x8 PUSH1 0x6 PUSH2 0x100 EXP DUP2 SLOAD DUP2 PUSH4 0xFFFFFFFF MUL NOT AND SWAP1 DUP4 PUSH4 0xFFFFFFFF AND MUL OR SWAP1 SSTORE POP POP JUMP JUMPDEST PUSH1 0x60 PUSH1 0x40 MLOAD DUP1 PUSH1 0x20 ADD PUSH1 0x40 MSTORE DUP1 PUSH0 DUP2 MSTORE POP SWAP1 POP SWAP1 JUMP JUMPDEST PUSH32 0xCCB45DA8D5717E6C4544694297C4BA5CF151D455C9BB0ED4FC7A38411BC05461 PUSH1 0x7 SLOAD DUP3 PUSH1 0x40 MLOAD PUSH2 0x2DFB SWAP3 SWAP2 SWAP1 PUSH2 0x5AB4 JUMP JUMPDEST PUSH1 0x40 MLOAD DUP1 SWAP2 SUB SWAP1 LOG1 DUP1 PUSH1 0x7 DUP2 SWAP1 SSTORE POP POP JUMP JUMPDEST PUSH4 0x4E487B71 PUSH0 MSTORE DUP1 PUSH1 0x20 MSTORE PUSH1 0x24 PUSH1 0x1C REVERT JUMPDEST PUSH0 PUSH32 0x0 PUSH20 0xFFFFFFFFFFFFFFFFFFFFFFFFFFFFFFFFFFFFFFFF AND ADDRESS PUSH20 0xFFFFFFFFFFFFFFFFFFFFFFFFFFFFFFFFFFFFFFFF AND EQ DUP1 ISZERO PUSH2 0x2E99 JUMPI POP PUSH32 0x0 CHAINID EQ JUMPDEST ISZERO PUSH2 0x2EC6 JUMPI PUSH32 0x0 SWAP1 POP PUSH2 0x2ED1 JUMP JUMPDEST PUSH2 0x2ECE PUSH2 0x367C JUMP JUMPDEST SWAP1 POP JUMPDEST SWAP1 JUMP JUMPDEST PUSH0 PUSH1 0x40 MLOAD PUSH32 0x1901000000000000000000000000000000000000000000000000000000000000 DUP2 MSTORE DUP4 PUSH1 0x2 DUP3 ADD MSTORE DUP3 PUSH1 0x22 DUP3 ADD MSTORE PUSH1 0x42 DUP2 KECCAK256 SWAP2 POP POP SWAP3 SWAP2 POP POP JUMP JUMPDEST PUSH0 PUSH0 PUSH0 PUSH1 0x41 DUP5 MLOAD SUB PUSH2 0x2F54 JUMPI PUSH0 PUSH0 PUSH0 PUSH1 0x20 DUP8 ADD MLOAD SWAP3 POP PUSH1 0x40 DUP8 ADD MLOAD SWAP2 POP PUSH1 0x60 DUP8 ADD MLOAD PUSH0 BYTE SWAP1 POP PUSH2 0x2F46 DUP9 DUP3 DUP6 DUP6 PUSH2 0x3711 JUMP JUMPDEST SWAP6 POP SWAP6 POP SWAP6 POP POP POP POP PUSH2 0x2F62 JUMP JUMPDEST PUSH0 PUSH1 0x2 DUP6 MLOAD PUSH0 SHL SWAP3 POP SWAP3 POP SWAP3 POP JUMPDEST SWAP3 POP SWAP3 POP SWAP3 JUMP JUMPDEST PUSH0 PUSH0 PUSH0 DUP6 PUSH20 0xFFFFFFFFFFFFFFFFFFFFFFFFFFFFFFFFFFFFFFFF AND DUP6 DUP6 PUSH1 0x40 MLOAD PUSH1 0x24 ADD PUSH2 0x2F96 SWAP3 SWAP2 SWAP1 PUSH2 0x5ADB JUMP JUMPDEST PUSH1 0x40 MLOAD PUSH1 0x20 DUP2 DUP4 SUB SUB DUP2 MSTORE SWAP1 PUSH1 0x40 MSTORE PUSH4 0x1626BA7E PUSH1 0xE0 SHL PUSH1 0x20 DUP3 ADD DUP1 MLOAD PUSH28 0xFFFFFFFFFFFFFFFFFFFFFFFFFFFFFFFFFFFFFFFFFFFFFFFFFFFFFFFF DUP4 DUP2 DUP4 AND OR DUP4 MSTORE POP POP POP POP PUSH1 0x40 MLOAD PUSH2 0x2FE8 SWAP2 SWAP1 PUSH2 0x54F2 JUMP JUMPDEST PUSH0 PUSH1 0x40 MLOAD DUP1 DUP4 SUB DUP2 DUP6 GAS STATICCALL SWAP2 POP POP RETURNDATASIZE DUP1 PUSH0 DUP2 EQ PUSH2 0x3020 JUMPI PUSH1 0x40 MLOAD SWAP2 POP PUSH1 0x1F NOT PUSH1 0x3F RETURNDATASIZE ADD AND DUP3 ADD PUSH1 0x40 MSTORE RETURNDATASIZE DUP3 MSTORE RETURNDATASIZE PUSH0 PUSH1 0x20 DUP5 ADD RETURNDATACOPY PUSH2 0x3025 JUMP JUMPDEST PUSH1 0x60 SWAP2 POP JUMPDEST POP SWAP2 POP SWAP2 POP DUP2 DUP1 ISZERO PUSH2 0x3039 JUMPI POP PUSH1 0x20 DUP2 MLOAD LT ISZERO JUMPDEST DUP1 ISZERO PUSH2 0x307D JUMPI POP PUSH4 0x1626BA7E PUSH1 0xE0 SHL PUSH28 0xFFFFFFFFFFFFFFFFFFFFFFFFFFFFFFFFFFFFFFFFFFFFFFFFFFFFFFFF NOT AND DUP2 DUP1 PUSH1 0x20 ADD SWAP1 MLOAD DUP2 ADD SWAP1 PUSH2 0x307B SWAP2 SWAP1 PUSH2 0x5B1D JUMP JUMPDEST EQ JUMPDEST SWAP3 POP POP POP SWAP4 SWAP3 POP POP POP JUMP JUMPDEST PUSH0 PUSH0 PUSH1 0x9 PUSH0 DUP9 DUP2 MSTORE PUSH1 0x20 ADD SWAP1 DUP2 MSTORE PUSH1 0x20 ADD PUSH0 KECCAK256 SWAP1 POP DUP1 PUSH1 0x3 ADD PUSH0 DUP8 PUSH20 0xFFFFFFFFFFFFFFFFFFFFFFFFFFFFFFFFFFFFFFFF AND PUSH20 0xFFFFFFFFFFFFFFFFFFFFFFFFFFFFFFFFFFFFFFFF AND DUP2 MSTORE PUSH1 0x20 ADD SWAP1 DUP2 MSTORE PUSH1 0x20 ADD PUSH0 KECCAK256 PUSH0 SWAP1 SLOAD SWAP1 PUSH2 0x100 EXP SWAP1 DIV PUSH1 0xFF AND ISZERO PUSH2 0x312B JUMPI DUP6 PUSH1 0x40 MLOAD PUSH32 0x71C6AF4900000000000000000000000000000000000000000000000000000000 DUP2 MSTORE PUSH1 0x4 ADD PUSH2 0x3122 SWAP2 SWAP1 PUSH2 0x3CAA JUMP JUMPDEST PUSH1 0x40 MLOAD DUP1 SWAP2 SUB SWAP1 REVERT JUMPDEST PUSH1 0x1 DUP2 PUSH1 0x3 ADD PUSH0 DUP9 PUSH20 0xFFFFFFFFFFFFFFFFFFFFFFFFFFFFFFFFFFFFFFFF AND PUSH20 0xFFFFFFFFFFFFFFFFFFFFFFFFFFFFFFFFFFFFFFFF AND DUP2 MSTORE PUSH1 0x20 ADD SWAP1 DUP2 MSTORE PUSH1 0x20 ADD PUSH0 KECCAK256 PUSH0 PUSH2 0x100 EXP DUP2 SLOAD DUP2 PUSH1 0xFF MUL NOT AND SWAP1 DUP4 ISZERO ISZERO MUL OR SWAP1 SSTORE POP PUSH0 PUSH1 0x2 DUP2 GT ISZERO PUSH2 0x3195 JUMPI PUSH2 0x3194 PUSH2 0x4236 JUMP JUMPDEST JUMPDEST PUSH1 0xFF AND DUP6 PUSH1 0xFF AND SUB PUSH2 0x31BF JUMPI DUP4 DUP2 PUSH0 ADD PUSH0 DUP3 DUP3 SLOAD PUSH2 0x31B3 SWAP2 SWAP1 PUSH2 0x5508 JUMP JUMPDEST SWAP3 POP POP DUP2 SWAP1 SSTORE POP PUSH2 0x3270 JUMP JUMPDEST PUSH1 0x1 PUSH1 0x2 DUP2 GT ISZERO PUSH2 0x31D3 JUMPI PUSH2 0x31D2 PUSH2 0x4236 JUMP JUMPDEST JUMPDEST PUSH1 0xFF AND DUP6 PUSH1 0xFF AND SUB PUSH2 0x31FE JUMPI DUP4 DUP2 PUSH1 0x1 ADD PUSH0 DUP3 DUP3 SLOAD PUSH2 0x31F2 SWAP2 SWAP1 PUSH2 0x5508 JUMP JUMPDEST SWAP3 POP POP DUP2 SWAP1 SSTORE POP PUSH2 0x326F JUMP JUMPDEST PUSH1 0x2 DUP1 DUP2 GT ISZERO PUSH2 0x3211 JUMPI PUSH2 0x3210 PUSH2 0x4236 JUMP JUMPDEST JUMPDEST PUSH1 0xFF AND DUP6 PUSH1 0xFF AND SUB PUSH2 0x323C JUMPI DUP4 DUP2 PUSH1 0x2 ADD PUSH0 DUP3 DUP3 SLOAD PUSH2 0x3230 SWAP2 SWAP1 PUSH2 0x5508 JUMP JUMPDEST SWAP3 POP POP DUP2 SWAP1 SSTORE POP PUSH2 0x326E JUMP JUMPDEST PUSH1 0x40 MLOAD PUSH32 0x6B337C200000000000000000000000000000000000000000000000000000000 DUP2 MSTORE PUSH1 0x4 ADD PUSH1 0x40 MLOAD DUP1 SWAP2 SUB SWAP1 REVERT JUMPDEST JUMPDEST JUMPDEST DUP4 SWAP2 POP POP SWAP6 SWAP5 POP POP POP POP POP JUMP JUMPDEST POP JUMP JUMPDEST CALLDATASIZE PUSH0 PUSH0 CALLDATASIZE SWAP2 POP SWAP2 POP SWAP1 SWAP2 JUMP JUMPDEST PUSH0 PUSH0 DUP3 PUSH0 ADD PUSH0 SWAP1 SLOAD SWAP1 PUSH2 0x100 EXP SWAP1 DIV PUSH16 0xFFFFFFFFFFFFFFFFFFFFFFFFFFFFFFFF AND SWAP1 POP DUP3 PUSH0 ADD PUSH1 0x10 SWAP1 SLOAD SWAP1 PUSH2 0x100 EXP SWAP1 DIV PUSH16 0xFFFFFFFFFFFFFFFFFFFFFFFFFFFFFFFF AND PUSH16 0xFFFFFFFFFFFFFFFFFFFFFFFFFFFFFFFF AND DUP2 PUSH16 0xFFFFFFFFFFFFFFFFFFFFFFFFFFFFFFFF AND SUB PUSH2 0x3304 JUMPI PUSH2 0x3303 PUSH1 0x31 PUSH2 0x2E0D JUMP JUMPDEST JUMPDEST DUP3 PUSH1 0x1 ADD PUSH0 DUP3 PUSH16 0xFFFFFFFFFFFFFFFFFFFFFFFFFFFFFFFF AND PUSH16 0xFFFFFFFFFFFFFFFFFFFFFFFFFFFFFFFF AND DUP2 MSTORE PUSH1 0x20 ADD SWAP1 DUP2 MSTORE PUSH1 0x20 ADD PUSH0 KECCAK256 SLOAD SWAP2 POP DUP3 PUSH1 0x1 ADD PUSH0 DUP3 PUSH16 0xFFFFFFFFFFFFFFFFFFFFFFFFFFFFFFFF AND PUSH16 0xFFFFFFFFFFFFFFFFFFFFFFFFFFFFFFFF AND DUP2 MSTORE PUSH1 0x20 ADD SWAP1 DUP2 MSTORE PUSH1 0x20 ADD PUSH0 KECCAK256 PUSH0 SWAP1 SSTORE PUSH1 0x1 DUP2 ADD DUP4 PUSH0 ADD PUSH0 PUSH2 0x100 EXP DUP2 SLOAD DUP2 PUSH16 0xFFFFFFFFFFFFFFFFFFFFFFFFFFFFFFFF MUL NOT AND SWAP1 DUP4 PUSH16 0xFFFFFFFFFFFFFFFFFFFFFFFFFFFFFFFF AND MUL OR SWAP1 SSTORE POP POP SWAP2 SWAP1 POP JUMP JUMPDEST PUSH0 DUP2 PUSH1 0x20 ADD DUP4 ADD MLOAD SWAP1 POP SWAP3 SWAP2 POP POP JUMP JUMPDEST PUSH0 PUSH0 DUP5 MLOAD DUP4 GT DUP1 PUSH2 0x33DA JUMPI POP DUP3 DUP5 GT JUMPDEST ISZERO PUSH2 0x33EA JUMPI PUSH0 PUSH0 SWAP2 POP SWAP2 POP PUSH2 0x34D3 JUMP JUMPDEST PUSH0 PUSH1 0x1 DUP6 PUSH2 0x33F8 SWAP2 SWAP1 PUSH2 0x5508 JUMP JUMPDEST DUP5 GT DUP1 ISZERO PUSH2 0x3470 JUMPI POP PUSH32 0x3078000000000000000000000000000000000000000000000000000000000000 PUSH30 0xFFFFFFFFFFFFFFFFFFFFFFFFFFFFFFFFFFFFFFFFFFFFFFFFFFFFFFFFFFFF NOT AND PUSH2 0x344D DUP8 DUP8 PUSH2 0x37F8 JUMP JUMPDEST PUSH30 0xFFFFFFFFFFFFFFFFFFFFFFFFFFFFFFFFFFFFFFFFFFFFFFFFFFFFFFFFFFFF NOT AND EQ JUMPDEST SWAP1 POP PUSH0 PUSH1 0x2 PUSH2 0x3480 DUP4 ISZERO ISZERO PUSH2 0x3808 JUMP JUMPDEST PUSH2 0x348A SWAP2 SWAP1 PUSH2 0x5B48 JUMP JUMPDEST PUSH1 0x28 PUSH2 0x3496 SWAP2 SWAP1 PUSH2 0x5508 JUMP JUMPDEST SWAP1 POP DUP1 DUP7 DUP7 PUSH2 0x34A5 SWAP2 SWAP1 PUSH2 0x56E8 JUMP JUMPDEST SUB PUSH2 0x34CA JUMPI PUSH0 PUSH0 PUSH2 0x34B7 DUP10 DUP10 DUP10 PUSH2 0x3813 JUMP JUMPDEST SWAP2 POP SWAP2 POP DUP2 DUP2 SWAP6 POP SWAP6 POP POP POP POP POP PUSH2 0x34D3 JUMP JUMPDEST PUSH0 PUSH0 SWAP4 POP SWAP4 POP POP POP JUMPDEST SWAP4 POP SWAP4 SWAP2 POP POP JUMP JUMPDEST PUSH0 PUSH6 0xFFFFFFFFFFFF DUP1 AND DUP3 GT ISZERO PUSH2 0x352C JUMPI PUSH1 0x30 DUP3 PUSH1 0x40 MLOAD PUSH32 0x6DFCC65000000000000000000000000000000000000000000000000000000000 DUP2 MSTORE PUSH1 0x4 ADD PUSH2 0x3523 SWAP3 SWAP2 SWAP1 PUSH2 0x5BC2 JUMP JUMPDEST PUSH1 0x40 MLOAD DUP1 SWAP2 SUB SWAP1 REVERT JUMPDEST DUP2 SWAP1 POP SWAP2 SWAP1 POP JUMP JUMPDEST PUSH0 PUSH4 0xFFFFFFFF DUP1 AND DUP3 GT ISZERO PUSH2 0x3583 JUMPI PUSH1 0x20 DUP3 PUSH1 0x40 MLOAD PUSH32 0x6DFCC65000000000000000000000000000000000000000000000000000000000 DUP2 MSTORE PUSH1 0x4 ADD PUSH2 0x357A SWAP3 SWAP2 SWAP1 PUSH2 0x5C22 JUMP JUMPDEST PUSH1 0x40 MLOAD DUP1 SWAP2 SUB SWAP1 REVERT JUMPDEST DUP2 SWAP1 POP SWAP2 SWAP1 POP JUMP JUMPDEST PUSH1 0x60 PUSH1 0xFF PUSH0 SHL DUP4 EQ PUSH2 0x35A7 JUMPI PUSH2 0x35A0 DUP4 PUSH2 0x3941 JUMP JUMPDEST SWAP1 POP PUSH2 0x3632 JUMP JUMPDEST DUP2 DUP1 SLOAD PUSH2 0x35B3 SWAP1 PUSH2 0x4E1F JUMP JUMPDEST DUP1 PUSH1 0x1F ADD PUSH1 0x20 DUP1 SWAP2 DIV MUL PUSH1 0x20 ADD PUSH1 0x40 MLOAD SWAP1 DUP2 ADD PUSH1 0x40 MSTORE DUP1 SWAP3 SWAP2 SWAP1 DUP2 DUP2 MSTORE PUSH1 0x20 ADD DUP3 DUP1 SLOAD PUSH2 0x35DF SWAP1 PUSH2 0x4E1F JUMP JUMPDEST DUP1 ISZERO PUSH2 0x362A JUMPI DUP1 PUSH1 0x1F LT PUSH2 0x3601 JUMPI PUSH2 0x100 DUP1 DUP4 SLOAD DIV MUL DUP4 MSTORE SWAP2 PUSH1 0x20 ADD SWAP2 PUSH2 0x362A JUMP JUMPDEST DUP3 ADD SWAP2 SWAP1 PUSH0 MSTORE PUSH1 0x20 PUSH0 KECCAK256 SWAP1 JUMPDEST DUP2 SLOAD DUP2 MSTORE SWAP1 PUSH1 0x1 ADD SWAP1 PUSH1 0x20 ADD DUP1 DUP4 GT PUSH2 0x360D JUMPI DUP3 SWAP1 SUB PUSH1 0x1F AND DUP3 ADD SWAP2 JUMPDEST POP POP POP POP POP SWAP1 POP JUMPDEST SWAP3 SWAP2 POP POP JUMP JUMPDEST PUSH0 DUP2 MLOAD GT ISZERO PUSH2 0x364A JUMPI DUP1 MLOAD DUP1 DUP3 PUSH1 0x20 ADD REVERT JUMPDEST PUSH1 0x40 MLOAD PUSH32 0xD6BDA27500000000000000000000000000000000000000000000000000000000 DUP2 MSTORE PUSH1 0x4 ADD PUSH1 0x40 MLOAD DUP1 SWAP2 SUB SWAP1 REVERT JUMPDEST PUSH0 PUSH32 0x8B73C3C69BB8FE3D512ECC4CF759CC79239F7B179B0FFACAA9A75D522B39400F PUSH32 0x0 PUSH32 0x0 CHAINID ADDRESS PUSH1 0x40 MLOAD PUSH1 0x20 ADD PUSH2 0x36F6 SWAP6 SWAP5 SWAP4 SWAP3 SWAP2 SWAP1 PUSH2 0x5C49 JUMP JUMPDEST PUSH1 0x40 MLOAD PUSH1 0x20 DUP2 DUP4 SUB SUB DUP2 MSTORE SWAP1 PUSH1 0x40 MSTORE DUP1 MLOAD SWAP1 PUSH1 0x20 ADD KECCAK256 SWAP1 POP SWAP1 JUMP JUMPDEST PUSH0 PUSH0 PUSH0 PUSH32 0x7FFFFFFFFFFFFFFFFFFFFFFFFFFFFFFF5D576E7357A4501DDFE92F46681B20A0 DUP5 PUSH0 SHR GT ISZERO PUSH2 0x374D JUMPI PUSH0 PUSH1 0x3 DUP6 SWAP3 POP SWAP3 POP SWAP3 POP PUSH2 0x37EE JUMP JUMPDEST PUSH0 PUSH1 0x1 DUP9 DUP9 DUP9 DUP9 PUSH1 0x40 MLOAD PUSH0 DUP2 MSTORE PUSH1 0x20 ADD PUSH1 0x40 MSTORE PUSH1 0x40 MLOAD PUSH2 0x3770 SWAP5 SWAP4 SWAP3 SWAP2 SWAP1 PUSH2 0x5C9A JUMP JUMPDEST PUSH1 0x20 PUSH1 0x40 MLOAD PUSH1 0x20 DUP2 SUB SWAP1 DUP1 DUP5 SUB SWAP1 DUP6 GAS STATICCALL ISZERO DUP1 ISZERO PUSH2 0x3790 JUMPI RETURNDATASIZE PUSH0 PUSH0 RETURNDATACOPY RETURNDATASIZE PUSH0 REVERT JUMPDEST POP POP POP PUSH1 0x20 PUSH1 0x40 MLOAD SUB MLOAD SWAP1 POP PUSH0 PUSH20 0xFFFFFFFFFFFFFFFFFFFFFFFFFFFFFFFFFFFFFFFF AND DUP2 PUSH20 0xFFFFFFFFFFFFFFFFFFFFFFFFFFFFFFFFFFFFFFFF AND SUB PUSH2 0x37E1 JUMPI PUSH0 PUSH1 0x1 PUSH0 PUSH0 SHL SWAP4 POP SWAP4 POP SWAP4 POP POP PUSH2 0x37EE JUMP JUMPDEST DUP1 PUSH0 PUSH0 PUSH0 SHL SWAP4 POP SWAP4 POP SWAP4 POP POP JUMPDEST SWAP5 POP SWAP5 POP SWAP5 SWAP2 POP POP JUMP JUMPDEST PUSH0 DUP2 PUSH1 0x20 ADD DUP4 ADD MLOAD SWAP1 POP SWAP3 SWAP2 POP POP JUMP JUMPDEST PUSH0 DUP2 ISZERO ISZERO SWAP1 POP SWAP2 SWAP1 POP JUMP JUMPDEST PUSH0 PUSH0 PUSH0 DUP6 SWAP1 POP PUSH0 PUSH1 0x1 DUP7 PUSH2 0x3827 SWAP2 SWAP1 PUSH2 0x5508 JUMP JUMPDEST DUP6 GT DUP1 ISZERO PUSH2 0x389F JUMPI POP PUSH32 0x3078000000000000000000000000000000000000000000000000000000000000 PUSH30 0xFFFFFFFFFFFFFFFFFFFFFFFFFFFFFFFFFFFFFFFFFFFFFFFFFFFFFFFFFFFF NOT AND PUSH2 0x387C DUP4 DUP9 PUSH2 0x37F8 JUMP JUMPDEST PUSH30 0xFFFFFFFFFFFFFFFFFFFFFFFFFFFFFFFFFFFFFFFFFFFFFFFFFFFFFFFFFFFF NOT AND EQ JUMPDEST SWAP1 POP PUSH0 PUSH1 0x2 PUSH2 0x38AF DUP4 ISZERO ISZERO PUSH2 0x3808 JUMP JUMPDEST PUSH2 0x38B9 SWAP2 SWAP1 PUSH2 0x5B48 JUMP JUMPDEST SWAP1 POP PUSH0 PUSH0 SWAP1 POP PUSH0 DUP3 DUP10 PUSH2 0x38CC SWAP2 SWAP1 PUSH2 0x5508 JUMP JUMPDEST SWAP1 POP JUMPDEST DUP8 DUP2 LT ISZERO PUSH2 0x392C JUMPI PUSH0 PUSH2 0x38EA PUSH2 0x38E5 DUP8 DUP5 PUSH2 0x37F8 JUMP JUMPDEST PUSH2 0x39B3 JUMP JUMPDEST SWAP1 POP PUSH1 0xF DUP2 PUSH1 0xFF AND GT ISZERO PUSH2 0x3909 JUMPI PUSH0 PUSH0 SWAP8 POP SWAP8 POP POP POP POP POP POP POP PUSH2 0x3939 JUMP JUMPDEST PUSH1 0x10 DUP4 PUSH2 0x3916 SWAP2 SWAP1 PUSH2 0x5B48 JUMP JUMPDEST SWAP3 POP DUP1 PUSH1 0xFF AND DUP4 ADD SWAP3 POP POP DUP1 PUSH1 0x1 ADD SWAP1 POP PUSH2 0x38CF JUMP JUMPDEST POP PUSH1 0x1 DUP2 SWAP6 POP SWAP6 POP POP POP POP POP JUMPDEST SWAP4 POP SWAP4 SWAP2 POP POP JUMP JUMPDEST PUSH1 0x60 PUSH0 PUSH2 0x394D DUP4 PUSH2 0x3A43 JUMP JUMPDEST SWAP1 POP PUSH0 PUSH1 0x20 PUSH8 0xFFFFFFFFFFFFFFFF DUP2 GT ISZERO PUSH2 0x396B JUMPI PUSH2 0x396A PUSH2 0x3CF5 JUMP JUMPDEST JUMPDEST PUSH1 0x40 MLOAD SWAP1 DUP1 DUP3 MSTORE DUP1 PUSH1 0x1F ADD PUSH1 0x1F NOT AND PUSH1 0x20 ADD DUP3 ADD PUSH1 0x40 MSTORE DUP1 ISZERO PUSH2 0x399D JUMPI DUP2 PUSH1 0x20 ADD PUSH1 0x1 DUP3 MUL DUP1 CALLDATASIZE DUP4 CALLDATACOPY DUP1 DUP3 ADD SWAP2 POP POP SWAP1 POP JUMPDEST POP SWAP1 POP DUP2 DUP2 MSTORE DUP4 PUSH1 0x20 DUP3 ADD MSTORE DUP1 SWAP3 POP POP POP SWAP2 SWAP1 POP JUMP JUMPDEST PUSH0 PUSH0 DUP3 PUSH1 0xF8 SHR SWAP1 POP PUSH1 0x2F DUP2 PUSH1 0xFF AND GT DUP1 ISZERO PUSH2 0x39D1 JUMPI POP PUSH1 0x3A DUP2 PUSH1 0xFF AND LT JUMPDEST ISZERO PUSH2 0x39E1 JUMPI PUSH1 0x30 DUP2 SUB SWAP1 POP PUSH2 0x3A39 JUMP JUMPDEST PUSH1 0x60 DUP2 PUSH1 0xFF AND GT DUP1 ISZERO PUSH2 0x39F7 JUMPI POP PUSH1 0x67 DUP2 PUSH1 0xFF AND LT JUMPDEST ISZERO PUSH2 0x3A07 JUMPI PUSH1 0x57 DUP2 SUB SWAP1 POP PUSH2 0x3A38 JUMP JUMPDEST PUSH1 0x40 DUP2 PUSH1 0xFF AND GT DUP1 ISZERO PUSH2 0x3A1D JUMPI POP PUSH1 0x47 DUP2 PUSH1 0xFF AND LT JUMPDEST ISZERO PUSH2 0x3A2D JUMPI PUSH1 0x37 DUP2 SUB SWAP1 POP PUSH2 0x3A37 JUMP JUMPDEST PUSH1 0xFF SWAP2 POP POP PUSH2 0x3A3E JUMP JUMPDEST JUMPDEST JUMPDEST DUP1 SWAP2 POP POP JUMPDEST SWAP2 SWAP1 POP JUMP JUMPDEST PUSH0 PUSH0 PUSH1 0xFF DUP4 PUSH0 SHR AND SWAP1 POP PUSH1 0x1F DUP2 GT ISZERO PUSH2 0x3A88 JUMPI PUSH1 0x40 MLOAD PUSH32 0xB3512B0C00000000000000000000000000000000000000000000000000000000 DUP2 MSTORE PUSH1 0x4 ADD PUSH1 0x40 MLOAD DUP1 SWAP2 SUB SWAP1 REVERT JUMPDEST DUP1 SWAP2 POP POP SWAP2 SWAP1 POP JUMP JUMPDEST PUSH0 PUSH1 0x40 MLOAD SWAP1 POP SWAP1 JUMP JUMPDEST PUSH0 PUSH0 REVERT JUMPDEST PUSH0 PUSH0 REVERT JUMPDEST PUSH0 PUSH32 0xFFFFFFFF00000000000000000000000000000000000000000000000000000000 DUP3 AND SWAP1 POP SWAP2 SWAP1 POP JUMP JUMPDEST PUSH2 0x3AD6 DUP2 PUSH2 0x3AA2 JUMP JUMPDEST DUP2 EQ PUSH2 0x3AE0 JUMPI PUSH0 PUSH0 REVERT JUMPDEST POP JUMP JUMPDEST PUSH0 DUP2 CALLDATALOAD SWAP1 POP PUSH2 0x3AF1 DUP2 PUSH2 0x3ACD JUMP JUMPDEST SWAP3 SWAP2 POP POP JUMP JUMPDEST PUSH0 PUSH1 0x20 DUP3 DUP5 SUB SLT ISZERO PUSH2 0x3B0C JUMPI PUSH2 0x3B0B PUSH2 0x3A9A JUMP JUMPDEST JUMPDEST PUSH0 PUSH2 0x3B19 DUP5 DUP3 DUP6 ADD PUSH2 0x3AE3 JUMP JUMPDEST SWAP2 POP POP SWAP3 SWAP2 POP POP JUMP JUMPDEST PUSH0 DUP2 ISZERO ISZERO SWAP1 POP SWAP2 SWAP1 POP JUMP JUMPDEST PUSH2 0x3B36 DUP2 PUSH2 0x3B22 JUMP JUMPDEST DUP3 MSTORE POP POP JUMP JUMPDEST PUSH0 PUSH1 0x20 DUP3 ADD SWAP1 POP PUSH2 0x3B4F PUSH0 DUP4 ADD DUP5 PUSH2 0x3B2D JUMP JUMPDEST SWAP3 SWAP2 POP POP JUMP JUMPDEST PUSH0 DUP2 SWAP1 POP SWAP2 SWAP1 POP JUMP JUMPDEST PUSH2 0x3B67 DUP2 PUSH2 0x3B55 JUMP JUMPDEST DUP3 MSTORE POP POP JUMP JUMPDEST PUSH0 PUSH1 0x20 DUP3 ADD SWAP1 POP PUSH2 0x3B80 PUSH0 DUP4 ADD DUP5 PUSH2 0x3B5E JUMP JUMPDEST SWAP3 SWAP2 POP POP JUMP JUMPDEST PUSH0 DUP2 MLOAD SWAP1 POP SWAP2 SWAP1 POP JUMP JUMPDEST PUSH0 DUP3 DUP3 MSTORE PUSH1 0x20 DUP3 ADD SWAP1 POP SWAP3 SWAP2 POP POP JUMP JUMPDEST DUP3 DUP2 DUP4 MCOPY PUSH0 DUP4 DUP4 ADD MSTORE POP POP POP JUMP JUMPDEST PUSH0 PUSH1 0x1F NOT PUSH1 0x1F DUP4 ADD AND SWAP1 POP SWAP2 SWAP1 POP JUMP JUMPDEST PUSH0 PUSH2 0x3BC8 DUP3 PUSH2 0x3B86 JUMP JUMPDEST PUSH2 0x3BD2 DUP2 DUP6 PUSH2 0x3B90 JUMP JUMPDEST SWAP4 POP PUSH2 0x3BE2 DUP2 DUP6 PUSH1 0x20 DUP7 ADD PUSH2 0x3BA0 JUMP JUMPDEST PUSH2 0x3BEB DUP2 PUSH2 0x3BAE JUMP JUMPDEST DUP5 ADD SWAP2 POP POP SWAP3 SWAP2 POP POP JUMP JUMPDEST PUSH0 PUSH1 0x20 DUP3 ADD SWAP1 POP DUP2 DUP2 SUB PUSH0 DUP4 ADD MSTORE PUSH2 0x3C0E DUP2 DUP5 PUSH2 0x3BBE JUMP JUMPDEST SWAP1 POP SWAP3 SWAP2 POP POP JUMP JUMPDEST PUSH2 0x3C1F DUP2 PUSH2 0x3B55 JUMP JUMPDEST DUP2 EQ PUSH2 0x3C29 JUMPI PUSH0 PUSH0 REVERT JUMPDEST POP JUMP JUMPDEST PUSH0 DUP2 CALLDATALOAD SWAP1 POP PUSH2 0x3C3A DUP2 PUSH2 0x3C16 JUMP JUMPDEST SWAP3 SWAP2 POP POP JUMP JUMPDEST PUSH0 PUSH1 0x20 DUP3 DUP5 SUB SLT ISZERO PUSH2 0x3C55 JUMPI PUSH2 0x3C54 PUSH2 0x3A9A JUMP JUMPDEST JUMPDEST PUSH0 PUSH2 0x3C62 DUP5 DUP3 DUP6 ADD PUSH2 0x3C2C JUMP JUMPDEST SWAP2 POP POP SWAP3 SWAP2 POP POP JUMP JUMPDEST PUSH0 PUSH20 0xFFFFFFFFFFFFFFFFFFFFFFFFFFFFFFFFFFFFFFFF DUP3 AND SWAP1 POP SWAP2 SWAP1 POP JUMP JUMPDEST PUSH0 PUSH2 0x3C94 DUP3 PUSH2 0x3C6B JUMP JUMPDEST SWAP1 POP SWAP2 SWAP1 POP JUMP JUMPDEST PUSH2 0x3CA4 DUP2 PUSH2 0x3C8A JUMP JUMPDEST DUP3 MSTORE POP POP JUMP JUMPDEST PUSH0 PUSH1 0x20 DUP3 ADD SWAP1 POP PUSH2 0x3CBD PUSH0 DUP4 ADD DUP5 PUSH2 0x3C9B JUMP JUMPDEST SWAP3 SWAP2 POP POP JUMP JUMPDEST PUSH2 0x3CCC DUP2 PUSH2 0x3C8A JUMP JUMPDEST DUP2 EQ PUSH2 0x3CD6 JUMPI PUSH0 PUSH0 REVERT JUMPDEST POP JUMP JUMPDEST PUSH0 DUP2 CALLDATALOAD SWAP1 POP PUSH2 0x3CE7 DUP2 PUSH2 0x3CC3 JUMP JUMPDEST SWAP3 SWAP2 POP POP JUMP JUMPDEST PUSH0 PUSH0 REVERT JUMPDEST PUSH0 PUSH0 REVERT JUMPDEST PUSH32 0x4E487B7100000000000000000000000000000000000000000000000000000000 PUSH0 MSTORE PUSH1 0x41 PUSH1 0x4 MSTORE PUSH1 0x24 PUSH0 REVERT JUMPDEST PUSH2 0x3D2B DUP3 PUSH2 0x3BAE JUMP JUMPDEST DUP2 ADD DUP2 DUP2 LT PUSH8 0xFFFFFFFFFFFFFFFF DUP3 GT OR ISZERO PUSH2 0x3D4A JUMPI PUSH2 0x3D49 PUSH2 0x3CF5 JUMP JUMPDEST JUMPDEST DUP1 PUSH1 0x40 MSTORE POP POP POP JUMP JUMPDEST PUSH0 PUSH2 0x3D5C PUSH2 0x3A91 JUMP JUMPDEST SWAP1 POP PUSH2 0x3D68 DUP3 DUP3 PUSH2 0x3D22 JUMP JUMPDEST SWAP2 SWAP1 POP JUMP JUMPDEST PUSH0 PUSH8 0xFFFFFFFFFFFFFFFF DUP3 GT ISZERO PUSH2 0x3D87 JUMPI PUSH2 0x3D86 PUSH2 0x3CF5 JUMP JUMPDEST JUMPDEST PUSH2 0x3D90 DUP3 PUSH2 0x3BAE JUMP JUMPDEST SWAP1 POP PUSH1 0x20 DUP2 ADD SWAP1 POP SWAP2 SWAP1 POP JUMP JUMPDEST DUP3 DUP2 DUP4 CALLDATACOPY PUSH0 DUP4 DUP4 ADD MSTORE POP POP POP JUMP JUMPDEST PUSH0 PUSH2 0x3DBD PUSH2 0x3DB8 DUP5 PUSH2 0x3D6D JUMP JUMPDEST PUSH2 0x3D53 JUMP JUMPDEST SWAP1 POP DUP3 DUP2 MSTORE PUSH1 0x20 DUP2 ADD DUP5 DUP5 DUP5 ADD GT ISZERO PUSH2 0x3DD9 JUMPI PUSH2 0x3DD8 PUSH2 0x3CF1 JUMP JUMPDEST JUMPDEST PUSH2 0x3DE4 DUP5 DUP3 DUP6 PUSH2 0x3D9D JUMP JUMPDEST POP SWAP4 SWAP3 POP POP POP JUMP JUMPDEST PUSH0 DUP3 PUSH1 0x1F DUP4 ADD SLT PUSH2 0x3E00 JUMPI PUSH2 0x3DFF PUSH2 0x3CED JUMP JUMPDEST JUMPDEST DUP2 CALLDATALOAD PUSH2 0x3E10 DUP5 DUP3 PUSH1 0x20 DUP7 ADD PUSH2 0x3DAB JUMP JUMPDEST SWAP2 POP POP SWAP3 SWAP2 POP POP JUMP JUMPDEST PUSH0 PUSH0 PUSH0 PUSH0 PUSH1 0x80 DUP6 DUP8 SUB SLT ISZERO PUSH2 0x3E31 JUMPI PUSH2 0x3E30 PUSH2 0x3A9A JUMP JUMPDEST JUMPDEST PUSH0 PUSH2 0x3E3E DUP8 DUP3 DUP9 ADD PUSH2 0x3CD9 JUMP JUMPDEST SWAP5 POP POP PUSH1 0x20 PUSH2 0x3E4F DUP8 DUP3 DUP9 ADD PUSH2 0x3CD9 JUMP JUMPDEST SWAP4 POP POP PUSH1 0x40 PUSH2 0x3E60 DUP8 DUP3 DUP9 ADD PUSH2 0x3C2C JUMP JUMPDEST SWAP3 POP POP PUSH1 0x60 DUP6 ADD CALLDATALOAD PUSH8 0xFFFFFFFFFFFFFFFF DUP2 GT ISZERO PUSH2 0x3E81 JUMPI PUSH2 0x3E80 PUSH2 0x3A9E JUMP JUMPDEST JUMPDEST PUSH2 0x3E8D DUP8 DUP3 DUP9 ADD PUSH2 0x3DEC JUMP JUMPDEST SWAP2 POP POP SWAP3 SWAP6 SWAP2 SWAP5 POP SWAP3 POP JUMP JUMPDEST PUSH2 0x3EA2 DUP2 PUSH2 0x3AA2 JUMP JUMPDEST DUP3 MSTORE POP POP JUMP JUMPDEST PUSH0 PUSH1 0x20 DUP3 ADD SWAP1 POP PUSH2 0x3EBB PUSH0 DUP4 ADD DUP5 PUSH2 0x3E99 JUMP JUMPDEST SWAP3 SWAP2 POP POP JUMP JUMPDEST PUSH0 PUSH8 0xFFFFFFFFFFFFFFFF DUP3 GT ISZERO PUSH2 0x3EDB JUMPI PUSH2 0x3EDA PUSH2 0x3CF5 JUMP JUMPDEST JUMPDEST PUSH1 0x20 DUP3 MUL SWAP1 POP PUSH1 0x20 DUP2 ADD SWAP1 POP SWAP2 SWAP1 POP JUMP JUMPDEST PUSH0 PUSH0 REVERT JUMPDEST PUSH0 PUSH2 0x3F02 PUSH2 0x3EFD DUP5 PUSH2 0x3EC1 JUMP JUMPDEST PUSH2 0x3D53 JUMP JUMPDEST SWAP1 POP DUP1 DUP4 DUP3 MSTORE PUSH1 0x20 DUP3 ADD SWAP1 POP PUSH1 0x20 DUP5 MUL DUP4 ADD DUP6 DUP2 GT ISZERO PUSH2 0x3F25 JUMPI PUSH2 0x3F24 PUSH2 0x3EEC JUMP JUMPDEST JUMPDEST DUP4 JUMPDEST DUP2 DUP2 LT ISZERO PUSH2 0x3F4E JUMPI DUP1 PUSH2 0x3F3A DUP9 DUP3 PUSH2 0x3CD9 JUMP JUMPDEST DUP5 MSTORE PUSH1 0x20 DUP5 ADD SWAP4 POP POP PUSH1 0x20 DUP2 ADD SWAP1 POP PUSH2 0x3F27 JUMP JUMPDEST POP POP POP SWAP4 SWAP3 POP POP POP JUMP JUMPDEST PUSH0 DUP3 PUSH1 0x1F DUP4 ADD SLT PUSH2 0x3F6C JUMPI PUSH2 0x3F6B PUSH2 0x3CED JUMP JUMPDEST JUMPDEST DUP2 CALLDATALOAD PUSH2 0x3F7C DUP5 DUP3 PUSH1 0x20 DUP7 ADD PUSH2 0x3EF0 JUMP JUMPDEST SWAP2 POP POP SWAP3 SWAP2 POP POP JUMP JUMPDEST PUSH0 PUSH8 0xFFFFFFFFFFFFFFFF DUP3 GT ISZERO PUSH2 0x3F9F JUMPI PUSH2 0x3F9E PUSH2 0x3CF5 JUMP JUMPDEST JUMPDEST PUSH1 0x20 DUP3 MUL SWAP1 POP PUSH1 0x20 DUP2 ADD SWAP1 POP SWAP2 SWAP1 POP JUMP JUMPDEST PUSH0 PUSH2 0x3FC2 PUSH2 0x3FBD DUP5 PUSH2 0x3F85 JUMP JUMPDEST PUSH2 0x3D53 JUMP JUMPDEST SWAP1 POP DUP1 DUP4 DUP3 MSTORE PUSH1 0x20 DUP3 ADD SWAP1 POP PUSH1 0x20 DUP5 MUL DUP4 ADD DUP6 DUP2 GT ISZERO PUSH2 0x3FE5 JUMPI PUSH2 0x3FE4 PUSH2 0x3EEC JUMP JUMPDEST JUMPDEST DUP4 JUMPDEST DUP2 DUP2 LT ISZERO PUSH2 0x400E JUMPI DUP1 PUSH2 0x3FFA DUP9 DUP3 PUSH2 0x3C2C JUMP JUMPDEST DUP5 MSTORE PUSH1 0x20 DUP5 ADD SWAP4 POP POP PUSH1 0x20 DUP2 ADD SWAP1 POP PUSH2 0x3FE7 JUMP JUMPDEST POP POP POP SWAP4 SWAP3 POP POP POP JUMP JUMPDEST PUSH0 DUP3 PUSH1 0x1F DUP4 ADD SLT PUSH2 0x402C JUMPI PUSH2 0x402B PUSH2 0x3CED JUMP JUMPDEST JUMPDEST DUP2 CALLDATALOAD PUSH2 0x403C DUP5 DUP3 PUSH1 0x20 DUP7 ADD PUSH2 0x3FB0 JUMP JUMPDEST SWAP2 POP POP SWAP3 SWAP2 POP POP JUMP JUMPDEST PUSH0 PUSH8 0xFFFFFFFFFFFFFFFF DUP3 GT ISZERO PUSH2 0x405F JUMPI PUSH2 0x405E PUSH2 0x3CF5 JUMP JUMPDEST JUMPDEST PUSH1 0x20 DUP3 MUL SWAP1 POP PUSH1 0x20 DUP2 ADD SWAP1 POP SWAP2 SWAP1 POP JUMP JUMPDEST PUSH0 PUSH2 0x4082 PUSH2 0x407D DUP5 PUSH2 0x4045 JUMP JUMPDEST PUSH2 0x3D53 JUMP JUMPDEST SWAP1 POP DUP1 DUP4 DUP3 MSTORE PUSH1 0x20 DUP3 ADD SWAP1 POP PUSH1 0x20 DUP5 MUL DUP4 ADD DUP6 DUP2 GT ISZERO PUSH2 0x40A5 JUMPI PUSH2 0x40A4 PUSH2 0x3EEC JUMP JUMPDEST JUMPDEST DUP4 JUMPDEST DUP2 DUP2 LT ISZERO PUSH2 0x40EC JUMPI DUP1 CALLDATALOAD PUSH8 0xFFFFFFFFFFFFFFFF DUP2 GT ISZERO PUSH2 0x40CA JUMPI PUSH2 0x40C9 PUSH2 0x3CED JUMP JUMPDEST JUMPDEST DUP1 DUP7 ADD PUSH2 0x40D7 DUP10 DUP3 PUSH2 0x3DEC JUMP JUMPDEST DUP6 MSTORE PUSH1 0x20 DUP6 ADD SWAP5 POP POP POP PUSH1 0x20 DUP2 ADD SWAP1 POP PUSH2 0x40A7 JUMP JUMPDEST POP POP POP SWAP4 SWAP3 POP POP POP JUMP JUMPDEST PUSH0 DUP3 PUSH1 0x1F DUP4 ADD SLT PUSH2 0x410A JUMPI PUSH2 0x4109 PUSH2 0x3CED JUMP JUMPDEST JUMPDEST DUP2 CALLDATALOAD PUSH2 0x411A DUP5 DUP3 PUSH1 0x20 DUP7 ADD PUSH2 0x4070 JUMP JUMPDEST SWAP2 POP POP SWAP3 SWAP2 POP POP JUMP JUMPDEST PUSH0 DUP2 SWAP1 POP SWAP2 SWAP1 POP JUMP JUMPDEST PUSH2 0x4135 DUP2 PUSH2 0x4123 JUMP JUMPDEST DUP2 EQ PUSH2 0x413F JUMPI PUSH0 PUSH0 REVERT JUMPDEST POP JUMP JUMPDEST PUSH0 DUP2 CALLDATALOAD SWAP1 POP PUSH2 0x4150 DUP2 PUSH2 0x412C JUMP JUMPDEST SWAP3 SWAP2 POP POP JUMP JUMPDEST PUSH0 PUSH0 PUSH0 PUSH0 PUSH1 0x80 DUP6 DUP8 SUB SLT ISZERO PUSH2 0x416E JUMPI PUSH2 0x416D PUSH2 0x3A9A JUMP JUMPDEST JUMPDEST PUSH0 DUP6 ADD CALLDATALOAD PUSH8 0xFFFFFFFFFFFFFFFF DUP2 GT ISZERO PUSH2 0x418B JUMPI PUSH2 0x418A PUSH2 0x3A9E JUMP JUMPDEST JUMPDEST PUSH2 0x4197 DUP8 DUP3 DUP9 ADD PUSH2 0x3F58 JUMP JUMPDEST SWAP5 POP POP PUSH1 0x20 DUP6 ADD CALLDATALOAD PUSH8 0xFFFFFFFFFFFFFFFF DUP2 GT ISZERO PUSH2 0x41B8 JUMPI PUSH2 0x41B7 PUSH2 0x3A9E JUMP JUMPDEST JUMPDEST PUSH2 0x41C4 DUP8 DUP3 DUP9 ADD PUSH2 0x4018 JUMP JUMPDEST SWAP4 POP POP PUSH1 0x40 DUP6 ADD CALLDATALOAD PUSH8 0xFFFFFFFFFFFFFFFF DUP2 GT ISZERO PUSH2 0x41E5 JUMPI PUSH2 0x41E4 PUSH2 0x3A9E JUMP JUMPDEST JUMPDEST PUSH2 0x41F1 DUP8 DUP3 DUP9 ADD PUSH2 0x40F6 JUMP JUMPDEST SWAP3 POP POP PUSH1 0x60 PUSH2 0x4202 DUP8 DUP3 DUP9 ADD PUSH2 0x4142 JUMP JUMPDEST SWAP2 POP POP SWAP3 SWAP6 SWAP2 SWAP5 POP SWAP3 POP JUMP JUMPDEST PUSH2 0x4217 DUP2 PUSH2 0x4123 JUMP JUMPDEST DUP3 MSTORE POP POP JUMP JUMPDEST PUSH0 PUSH1 0x20 DUP3 ADD SWAP1 POP PUSH2 0x4230 PUSH0 DUP4 ADD DUP5 PUSH2 0x420E JUMP JUMPDEST SWAP3 SWAP2 POP POP JUMP JUMPDEST PUSH32 0x4E487B7100000000000000000000000000000000000000000000000000000000 PUSH0 MSTORE PUSH1 0x21 PUSH1 0x4 MSTORE PUSH1 0x24 PUSH0 REVERT JUMPDEST PUSH1 0x8 DUP2 LT PUSH2 0x4274 JUMPI PUSH2 0x4273 PUSH2 0x4236 JUMP JUMPDEST JUMPDEST POP JUMP JUMPDEST PUSH0 DUP2 SWAP1 POP PUSH2 0x4284 DUP3 PUSH2 0x4263 JUMP JUMPDEST SWAP2 SWAP1 POP JUMP JUMPDEST PUSH0 PUSH2 0x4293 DUP3 PUSH2 0x4277 JUMP JUMPDEST SWAP1 POP SWAP2 SWAP1 POP JUMP JUMPDEST PUSH2 0x42A3 DUP2 PUSH2 0x4289 JUMP JUMPDEST DUP3 MSTORE POP POP JUMP JUMPDEST PUSH0 PUSH1 0x20 DUP3 ADD SWAP1 POP PUSH2 0x42BC PUSH0 DUP4 ADD DUP5 PUSH2 0x429A JUMP JUMPDEST SWAP3 SWAP2 POP POP JUMP JUMPDEST PUSH0 PUSH0 PUSH1 0x40 DUP4 DUP6 SUB SLT ISZERO PUSH2 0x42D8 JUMPI PUSH2 0x42D7 PUSH2 0x3A9A JUMP JUMPDEST JUMPDEST PUSH0 PUSH2 0x42E5 DUP6 DUP3 DUP7 ADD PUSH2 0x3C2C JUMP JUMPDEST SWAP3 POP POP PUSH1 0x20 PUSH2 0x42F6 DUP6 DUP3 DUP7 ADD PUSH2 0x3CD9 JUMP JUMPDEST SWAP2 POP POP SWAP3 POP SWAP3 SWAP1 POP JUMP JUMPDEST PUSH0 PUSH1 0x60 DUP3 ADD SWAP1 POP PUSH2 0x4313 PUSH0 DUP4 ADD DUP7 PUSH2 0x3B5E JUMP JUMPDEST PUSH2 0x4320 PUSH1 0x20 DUP4 ADD DUP6 PUSH2 0x3B5E JUMP JUMPDEST PUSH2 0x432D PUSH1 0x40 DUP4 ADD DUP5 PUSH2 0x3B5E JUMP JUMPDEST SWAP5 SWAP4 POP POP POP POP JUMP JUMPDEST PUSH0 PUSH1 0xFF DUP3 AND SWAP1 POP SWAP2 SWAP1 POP JUMP JUMPDEST PUSH2 0x434A DUP2 PUSH2 0x4335 JUMP JUMPDEST DUP2 EQ PUSH2 0x4354 JUMPI PUSH0 PUSH0 REVERT JUMPDEST POP JUMP JUMPDEST PUSH0 DUP2 CALLDATALOAD SWAP1 POP PUSH2 0x4365 DUP2 PUSH2 0x4341 JUMP JUMPDEST SWAP3 SWAP2 POP POP JUMP JUMPDEST PUSH0 PUSH0 PUSH1 0x40 DUP4 DUP6 SUB SLT ISZERO PUSH2 0x4381 JUMPI PUSH2 0x4380 PUSH2 0x3A9A JUMP JUMPDEST JUMPDEST PUSH0 PUSH2 0x438E DUP6 DUP3 DUP7 ADD PUSH2 0x3C2C JUMP JUMPDEST SWAP3 POP POP PUSH1 0x20 PUSH2 0x439F DUP6 DUP3 DUP7 ADD PUSH2 0x4357 JUMP JUMPDEST SWAP2 POP POP SWAP3 POP SWAP3 SWAP1 POP JUMP JUMPDEST PUSH0 PUSH0 REVERT JUMPDEST PUSH0 PUSH0 DUP4 PUSH1 0x1F DUP5 ADD SLT PUSH2 0x43C2 JUMPI PUSH2 0x43C1 PUSH2 0x3CED JUMP JUMPDEST JUMPDEST DUP3 CALLDATALOAD SWAP1 POP PUSH8 0xFFFFFFFFFFFFFFFF DUP2 GT ISZERO PUSH2 0x43DF JUMPI PUSH2 0x43DE PUSH2 0x43A9 JUMP JUMPDEST JUMPDEST PUSH1 0x20 DUP4 ADD SWAP2 POP DUP4 PUSH1 0x1 DUP3 MUL DUP4 ADD GT ISZERO PUSH2 0x43FB JUMPI PUSH2 0x43FA PUSH2 0x3EEC JUMP JUMPDEST JUMPDEST SWAP3 POP SWAP3 SWAP1 POP JUMP JUMPDEST PUSH0 PUSH0 PUSH0 PUSH0 PUSH0 PUSH0 PUSH0 PUSH1 0xC0 DUP9 DUP11 SUB SLT ISZERO PUSH2 0x441D JUMPI PUSH2 0x441C PUSH2 0x3A9A JUMP JUMPDEST JUMPDEST PUSH0 PUSH2 0x442A DUP11 DUP3 DUP12 ADD PUSH2 0x3C2C JUMP JUMPDEST SWAP8 POP POP PUSH1 0x20 PUSH2 0x443B DUP11 DUP3 DUP12 ADD PUSH2 0x4357 JUMP JUMPDEST SWAP7 POP POP PUSH1 0x40 PUSH2 0x444C DUP11 DUP3 DUP12 ADD PUSH2 0x3CD9 JUMP JUMPDEST SWAP6 POP POP PUSH1 0x60 DUP9 ADD CALLDATALOAD PUSH8 0xFFFFFFFFFFFFFFFF DUP2 GT ISZERO PUSH2 0x446D JUMPI PUSH2 0x446C PUSH2 0x3A9E JUMP JUMPDEST JUMPDEST PUSH2 0x4479 DUP11 DUP3 DUP12 ADD PUSH2 0x43AD JUMP JUMPDEST SWAP5 POP SWAP5 POP POP PUSH1 0x80 DUP9 ADD CALLDATALOAD PUSH8 0xFFFFFFFFFFFFFFFF DUP2 GT ISZERO PUSH2 0x449C JUMPI PUSH2 0x449B PUSH2 0x3A9E JUMP JUMPDEST JUMPDEST PUSH2 0x44A8 DUP11 DUP3 DUP12 ADD PUSH2 0x3DEC JUMP JUMPDEST SWAP3 POP POP PUSH1 0xA0 DUP9 ADD CALLDATALOAD PUSH8 0xFFFFFFFFFFFFFFFF DUP2 GT ISZERO PUSH2 0x44C9 JUMPI PUSH2 0x44C8 PUSH2 0x3A9E JUMP JUMPDEST JUMPDEST PUSH2 0x44D5 DUP11 DUP3 DUP12 ADD PUSH2 0x3DEC JUMP JUMPDEST SWAP2 POP POP SWAP3 SWAP6 SWAP9 SWAP2 SWAP5 SWAP8 POP SWAP3 SWAP6 POP JUMP JUMPDEST PUSH0 PUSH0 PUSH0 PUSH0 PUSH0 PUSH1 0x80 DUP7 DUP9 SUB SLT ISZERO PUSH2 0x44FD JUMPI PUSH2 0x44FC PUSH2 0x3A9A JUMP JUMPDEST JUMPDEST PUSH0 PUSH2 0x450A DUP9 DUP3 DUP10 ADD PUSH2 0x3C2C JUMP JUMPDEST SWAP6 POP POP PUSH1 0x20 PUSH2 0x451B DUP9 DUP3 DUP10 ADD PUSH2 0x4357 JUMP JUMPDEST SWAP5 POP POP PUSH1 0x40 DUP7 ADD CALLDATALOAD PUSH8 0xFFFFFFFFFFFFFFFF DUP2 GT ISZERO PUSH2 0x453C JUMPI PUSH2 0x453B PUSH2 0x3A9E JUMP JUMPDEST JUMPDEST PUSH2 0x4548 DUP9 DUP3 DUP10 ADD PUSH2 0x43AD JUMP JUMPDEST SWAP4 POP SWAP4 POP POP PUSH1 0x60 DUP7 ADD CALLDATALOAD PUSH8 0xFFFFFFFFFFFFFFFF DUP2 GT ISZERO PUSH2 0x456B JUMPI PUSH2 0x456A PUSH2 0x3A9E JUMP JUMPDEST JUMPDEST PUSH2 0x4577 DUP9 DUP3 DUP10 ADD PUSH2 0x3DEC JUMP JUMPDEST SWAP2 POP POP SWAP3 SWAP6 POP SWAP3 SWAP6 SWAP1 SWAP4 POP JUMP JUMPDEST PUSH0 PUSH6 0xFFFFFFFFFFFF DUP3 AND SWAP1 POP SWAP2 SWAP1 POP JUMP JUMPDEST PUSH2 0x459E DUP2 PUSH2 0x4584 JUMP JUMPDEST DUP2 EQ PUSH2 0x45A8 JUMPI PUSH0 PUSH0 REVERT JUMPDEST POP JUMP JUMPDEST PUSH0 DUP2 CALLDATALOAD SWAP1 POP PUSH2 0x45B9 DUP2 PUSH2 0x4595 JUMP JUMPDEST SWAP3 SWAP2 POP POP JUMP JUMPDEST PUSH0 PUSH1 0x20 DUP3 DUP5 SUB SLT ISZERO PUSH2 0x45D4 JUMPI PUSH2 0x45D3 PUSH2 0x3A9A JUMP JUMPDEST JUMPDEST PUSH0 PUSH2 0x45E1 DUP5 DUP3 DUP6 ADD PUSH2 0x45AB JUMP JUMPDEST SWAP2 POP POP SWAP3 SWAP2 POP POP JUMP JUMPDEST PUSH0 PUSH0 PUSH0 PUSH0 PUSH1 0x60 DUP6 DUP8 SUB SLT ISZERO PUSH2 0x4602 JUMPI PUSH2 0x4601 PUSH2 0x3A9A JUMP JUMPDEST JUMPDEST PUSH0 PUSH2 0x460F DUP8 DUP3 DUP9 ADD PUSH2 0x3C2C JUMP JUMPDEST SWAP5 POP POP PUSH1 0x20 PUSH2 0x4620 DUP8 DUP3 DUP9 ADD PUSH2 0x4357 JUMP JUMPDEST SWAP4 POP POP PUSH1 0x40 DUP6 ADD CALLDATALOAD PUSH8 0xFFFFFFFFFFFFFFFF DUP2 GT ISZERO PUSH2 0x4641 JUMPI PUSH2 0x4640 PUSH2 0x3A9E JUMP JUMPDEST JUMPDEST PUSH2 0x464D DUP8 DUP3 DUP9 ADD PUSH2 0x43AD JUMP JUMPDEST SWAP3 POP SWAP3 POP POP SWAP3 SWAP6 SWAP2 SWAP5 POP SWAP3 POP JUMP JUMPDEST PUSH0 PUSH8 0xFFFFFFFFFFFFFFFF DUP3 GT ISZERO PUSH2 0x4675 JUMPI PUSH2 0x4674 PUSH2 0x3CF5 JUMP JUMPDEST JUMPDEST PUSH2 0x467E DUP3 PUSH2 0x3BAE JUMP JUMPDEST SWAP1 POP PUSH1 0x20 DUP2 ADD SWAP1 POP SWAP2 SWAP1 POP JUMP JUMPDEST PUSH0 PUSH2 0x469D PUSH2 0x4698 DUP5 PUSH2 0x465B JUMP JUMPDEST PUSH2 0x3D53 JUMP JUMPDEST SWAP1 POP DUP3 DUP2 MSTORE PUSH1 0x20 DUP2 ADD DUP5 DUP5 DUP5 ADD GT ISZERO PUSH2 0x46B9 JUMPI PUSH2 0x46B8 PUSH2 0x3CF1 JUMP JUMPDEST JUMPDEST PUSH2 0x46C4 DUP5 DUP3 DUP6 PUSH2 0x3D9D JUMP JUMPDEST POP SWAP4 SWAP3 POP POP POP JUMP JUMPDEST PUSH0 DUP3 PUSH1 0x1F DUP4 ADD SLT PUSH2 0x46E0 JUMPI PUSH2 0x46DF PUSH2 0x3CED JUMP JUMPDEST JUMPDEST DUP2 CALLDATALOAD PUSH2 0x46F0 DUP5 DUP3 PUSH1 0x20 DUP7 ADD PUSH2 0x468B JUMP JUMPDEST SWAP2 POP POP SWAP3 SWAP2 POP POP JUMP JUMPDEST PUSH0 PUSH0 PUSH0 PUSH0 PUSH1 0x80 DUP6 DUP8 SUB SLT ISZERO PUSH2 0x4711 JUMPI PUSH2 0x4710 PUSH2 0x3A9A JUMP JUMPDEST JUMPDEST PUSH0 DUP6 ADD CALLDATALOAD PUSH8 0xFFFFFFFFFFFFFFFF DUP2 GT ISZERO PUSH2 0x472E JUMPI PUSH2 0x472D PUSH2 0x3A9E JUMP JUMPDEST JUMPDEST PUSH2 0x473A DUP8 DUP3 DUP9 ADD PUSH2 0x3F58 JUMP JUMPDEST SWAP5 POP POP PUSH1 0x20 DUP6 ADD CALLDATALOAD PUSH8 0xFFFFFFFFFFFFFFFF DUP2 GT ISZERO PUSH2 0x475B JUMPI PUSH2 0x475A PUSH2 0x3A9E JUMP JUMPDEST JUMPDEST PUSH2 0x4767 DUP8 DUP3 DUP9 ADD PUSH2 0x4018 JUMP JUMPDEST SWAP4 POP POP PUSH1 0x40 DUP6 ADD CALLDATALOAD PUSH8 0xFFFFFFFFFFFFFFFF DUP2 GT ISZERO PUSH2 0x4788 JUMPI PUSH2 0x4787 PUSH2 0x3A9E JUMP JUMPDEST JUMPDEST PUSH2 0x4794 DUP8 DUP3 DUP9 ADD PUSH2 0x40F6 JUMP JUMPDEST SWAP3 POP POP PUSH1 0x60 DUP6 ADD CALLDATALOAD PUSH8 0xFFFFFFFFFFFFFFFF DUP2 GT ISZERO PUSH2 0x47B5 JUMPI PUSH2 0x47B4 PUSH2 0x3A9E JUMP JUMPDEST JUMPDEST PUSH2 0x47C1 DUP8 DUP3 DUP9 ADD PUSH2 0x46CC JUMP JUMPDEST SWAP2 POP POP SWAP3 SWAP6 SWAP2 SWAP5 POP SWAP3 POP JUMP JUMPDEST PUSH0 PUSH1 0x20 DUP3 DUP5 SUB SLT ISZERO PUSH2 0x47E2 JUMPI PUSH2 0x47E1 PUSH2 0x3A9A JUMP JUMPDEST JUMPDEST PUSH0 PUSH2 0x47EF DUP5 DUP3 DUP6 ADD PUSH2 0x3CD9 JUMP JUMPDEST SWAP2 POP POP SWAP3 SWAP2 POP POP JUMP JUMPDEST PUSH0 PUSH32 0xFF00000000000000000000000000000000000000000000000000000000000000 DUP3 AND SWAP1 POP SWAP2 SWAP1 POP JUMP JUMPDEST PUSH2 0x482C DUP2 PUSH2 0x47F8 JUMP JUMPDEST DUP3 MSTORE POP POP JUMP JUMPDEST PUSH0 DUP2 MLOAD SWAP1 POP SWAP2 SWAP1 POP JUMP JUMPDEST PUSH0 DUP3 DUP3 MSTORE PUSH1 0x20 DUP3 ADD SWAP1 POP SWAP3 SWAP2 POP POP JUMP JUMPDEST PUSH0 DUP2 SWAP1 POP PUSH1 0x20 DUP3 ADD SWAP1 POP SWAP2 SWAP1 POP JUMP JUMPDEST PUSH2 0x4864 DUP2 PUSH2 0x3B55 JUMP JUMPDEST DUP3 MSTORE POP POP JUMP JUMPDEST PUSH0 PUSH2 0x4875 DUP4 DUP4 PUSH2 0x485B JUMP JUMPDEST PUSH1 0x20 DUP4 ADD SWAP1 POP SWAP3 SWAP2 POP POP JUMP JUMPDEST PUSH0 PUSH1 0x20 DUP3 ADD SWAP1 POP SWAP2 SWAP1 POP JUMP JUMPDEST PUSH0 PUSH2 0x4897 DUP3 PUSH2 0x4832 JUMP JUMPDEST PUSH2 0x48A1 DUP2 DUP6 PUSH2 0x483C JUMP JUMPDEST SWAP4 POP PUSH2 0x48AC DUP4 PUSH2 0x484C JUMP JUMPDEST DUP1 PUSH0 JUMPDEST DUP4 DUP2 LT ISZERO PUSH2 0x48DC JUMPI DUP2 MLOAD PUSH2 0x48C3 DUP9 DUP3 PUSH2 0x486A JUMP JUMPDEST SWAP8 POP PUSH2 0x48CE DUP4 PUSH2 0x4881 JUMP JUMPDEST SWAP3 POP POP PUSH1 0x1 DUP2 ADD SWAP1 POP PUSH2 0x48AF JUMP JUMPDEST POP DUP6 SWAP4 POP POP POP POP SWAP3 SWAP2 POP POP JUMP JUMPDEST PUSH0 PUSH1 0xE0 DUP3 ADD SWAP1 POP PUSH2 0x48FC PUSH0 DUP4 ADD DUP11 PUSH2 0x4823 JUMP JUMPDEST DUP2 DUP2 SUB PUSH1 0x20 DUP4 ADD MSTORE PUSH2 0x490E DUP2 DUP10 PUSH2 0x3BBE JUMP JUMPDEST SWAP1 POP DUP2 DUP2 SUB PUSH1 0x40 DUP4 ADD MSTORE PUSH2 0x4922 DUP2 DUP9 PUSH2 0x3BBE JUMP JUMPDEST SWAP1 POP PUSH2 0x4931 PUSH1 0x60 DUP4 ADD DUP8 PUSH2 0x3B5E JUMP JUMPDEST PUSH2 0x493E PUSH1 0x80 DUP4 ADD DUP7 PUSH2 0x3C9B JUMP JUMPDEST PUSH2 0x494B PUSH1 0xA0 DUP4 ADD DUP6 PUSH2 0x420E JUMP JUMPDEST DUP2 DUP2 SUB PUSH1 0xC0 DUP4 ADD MSTORE PUSH2 0x495D DUP2 DUP5 PUSH2 0x488D JUMP JUMPDEST SWAP1 POP SWAP9 SWAP8 POP POP POP POP POP POP POP POP JUMP JUMPDEST PUSH0 PUSH0 PUSH0 PUSH0 PUSH1 0x80 DUP6 DUP8 SUB SLT ISZERO PUSH2 0x4983 JUMPI PUSH2 0x4982 PUSH2 0x3A9A JUMP JUMPDEST JUMPDEST PUSH0 PUSH2 0x4990 DUP8 DUP3 DUP9 ADD PUSH2 0x3C2C JUMP JUMPDEST SWAP5 POP POP PUSH1 0x20 PUSH2 0x49A1 DUP8 DUP3 DUP9 ADD PUSH2 0x4357 JUMP JUMPDEST SWAP4 POP POP PUSH1 0x40 PUSH2 0x49B2 DUP8 DUP3 DUP9 ADD PUSH2 0x3CD9 JUMP JUMPDEST SWAP3 POP POP PUSH1 0x60 DUP6 ADD CALLDATALOAD PUSH8 0xFFFFFFFFFFFFFFFF DUP2 GT ISZERO PUSH2 0x49D3 JUMPI PUSH2 0x49D2 PUSH2 0x3A9E JUMP JUMPDEST JUMPDEST PUSH2 0x49DF DUP8 DUP3 DUP9 ADD PUSH2 0x3DEC JUMP JUMPDEST SWAP2 POP POP SWAP3 SWAP6 SWAP2 SWAP5 POP SWAP3 POP JUMP JUMPDEST PUSH2 0x49F4 DUP2 PUSH2 0x4584 JUMP JUMPDEST DUP3 MSTORE POP POP JUMP JUMPDEST PUSH0 PUSH1 0x20 DUP3 ADD SWAP1 POP PUSH2 0x4A0D PUSH0 DUP4 ADD DUP5 PUSH2 0x49EB JUMP JUMPDEST SWAP3 SWAP2 POP POP JUMP JUMPDEST PUSH0 PUSH0 PUSH0 PUSH1 0x60 DUP5 DUP7 SUB SLT ISZERO PUSH2 0x4A2A JUMPI PUSH2 0x4A29 PUSH2 0x3A9A JUMP JUMPDEST JUMPDEST PUSH0 PUSH2 0x4A37 DUP7 DUP3 DUP8 ADD PUSH2 0x3CD9 JUMP JUMPDEST SWAP4 POP POP PUSH1 0x20 PUSH2 0x4A48 DUP7 DUP3 DUP8 ADD PUSH2 0x3C2C JUMP JUMPDEST SWAP3 POP POP PUSH1 0x40 DUP5 ADD CALLDATALOAD PUSH8 0xFFFFFFFFFFFFFFFF DUP2 GT ISZERO PUSH2 0x4A69 JUMPI PUSH2 0x4A68 PUSH2 0x3A9E JUMP JUMPDEST JUMPDEST PUSH2 0x4A75 DUP7 DUP3 DUP8 ADD PUSH2 0x3DEC JUMP JUMPDEST SWAP2 POP POP SWAP3 POP SWAP3 POP SWAP3 JUMP JUMPDEST PUSH0 DUP2 SWAP1 POP SWAP2 SWAP1 POP JUMP JUMPDEST PUSH0 PUSH2 0x4AA2 PUSH2 0x4A9D PUSH2 0x4A98 DUP5 PUSH2 0x3C6B JUMP JUMPDEST PUSH2 0x4A7F JUMP JUMPDEST PUSH2 0x3C6B JUMP JUMPDEST SWAP1 POP SWAP2 SWAP1 POP JUMP JUMPDEST PUSH0 PUSH2 0x4AB3 DUP3 PUSH2 0x4A88 JUMP JUMPDEST SWAP1 POP SWAP2 SWAP1 POP JUMP JUMPDEST PUSH0 PUSH2 0x4AC4 DUP3 PUSH2 0x4AA9 JUMP JUMPDEST SWAP1 POP SWAP2 SWAP1 POP JUMP JUMPDEST PUSH2 0x4AD4 DUP2 PUSH2 0x4ABA JUMP JUMPDEST DUP3 MSTORE POP POP JUMP JUMPDEST PUSH0 PUSH1 0x20 DUP3 ADD SWAP1 POP PUSH2 0x4AED PUSH0 DUP4 ADD DUP5 PUSH2 0x4ACB JUMP JUMPDEST SWAP3 SWAP2 POP POP JUMP JUMPDEST PUSH0 PUSH0 PUSH0 PUSH0 PUSH0 PUSH1 0xA0 DUP7 DUP9 SUB SLT ISZERO PUSH2 0x4B0C JUMPI PUSH2 0x4B0B PUSH2 0x3A9A JUMP JUMPDEST JUMPDEST PUSH0 PUSH2 0x4B19 DUP9 DUP3 DUP10 ADD PUSH2 0x3CD9 JUMP JUMPDEST SWAP6 POP POP PUSH1 0x20 PUSH2 0x4B2A DUP9 DUP3 DUP10 ADD PUSH2 0x3CD9 JUMP JUMPDEST SWAP5 POP POP PUSH1 0x40 DUP7 ADD CALLDATALOAD PUSH8 0xFFFFFFFFFFFFFFFF DUP2 GT ISZERO PUSH2 0x4B4B JUMPI PUSH2 0x4B4A PUSH2 0x3A9E JUMP JUMPDEST JUMPDEST PUSH2 0x4B57 DUP9 DUP3 DUP10 ADD PUSH2 0x4018 JUMP JUMPDEST SWAP4 POP POP PUSH1 0x60 DUP7 ADD CALLDATALOAD PUSH8 0xFFFFFFFFFFFFFFFF DUP2 GT ISZERO PUSH2 0x4B78 JUMPI PUSH2 0x4B77 PUSH2 0x3A9E JUMP JUMPDEST JUMPDEST PUSH2 0x4B84 DUP9 DUP3 DUP10 ADD PUSH2 0x4018 JUMP JUMPDEST SWAP3 POP POP PUSH1 0x80 DUP7 ADD CALLDATALOAD PUSH8 0xFFFFFFFFFFFFFFFF DUP2 GT ISZERO PUSH2 0x4BA5 JUMPI PUSH2 0x4BA4 PUSH2 0x3A9E JUMP JUMPDEST JUMPDEST PUSH2 0x4BB1 DUP9 DUP3 DUP10 ADD PUSH2 0x3DEC JUMP JUMPDEST SWAP2 POP POP SWAP3 SWAP6 POP SWAP3 SWAP6 SWAP1 SWAP4 POP JUMP JUMPDEST PUSH0 PUSH0 DUP4 PUSH1 0x1F DUP5 ADD SLT PUSH2 0x4BD3 JUMPI PUSH2 0x4BD2 PUSH2 0x3CED JUMP JUMPDEST JUMPDEST DUP3 CALLDATALOAD SWAP1 POP PUSH8 0xFFFFFFFFFFFFFFFF DUP2 GT ISZERO PUSH2 0x4BF0 JUMPI PUSH2 0x4BEF PUSH2 0x43A9 JUMP JUMPDEST JUMPDEST PUSH1 0x20 DUP4 ADD SWAP2 POP DUP4 PUSH1 0x1 DUP3 MUL DUP4 ADD GT ISZERO PUSH2 0x4C0C JUMPI PUSH2 0x4C0B PUSH2 0x3EEC JUMP JUMPDEST JUMPDEST SWAP3 POP SWAP3 SWAP1 POP JUMP JUMPDEST PUSH0 PUSH0 PUSH0 PUSH0 PUSH1 0x60 DUP6 DUP8 SUB SLT ISZERO PUSH2 0x4C2B JUMPI PUSH2 0x4C2A PUSH2 0x3A9A JUMP JUMPDEST JUMPDEST PUSH0 PUSH2 0x4C38 DUP8 DUP3 DUP9 ADD PUSH2 0x3CD9 JUMP JUMPDEST SWAP5 POP POP PUSH1 0x20 PUSH2 0x4C49 DUP8 DUP3 DUP9 ADD PUSH2 0x3C2C JUMP JUMPDEST SWAP4 POP POP PUSH1 0x40 DUP6 ADD CALLDATALOAD PUSH8 0xFFFFFFFFFFFFFFFF DUP2 GT ISZERO PUSH2 0x4C6A JUMPI PUSH2 0x4C69 PUSH2 0x3A9E JUMP JUMPDEST JUMPDEST PUSH2 0x4C76 DUP8 DUP3 DUP9 ADD PUSH2 0x4BBE JUMP JUMPDEST SWAP3 POP SWAP3 POP POP SWAP3 SWAP6 SWAP2 SWAP5 POP SWAP3 POP JUMP JUMPDEST PUSH0 PUSH4 0xFFFFFFFF DUP3 AND SWAP1 POP SWAP2 SWAP1 POP JUMP JUMPDEST PUSH2 0x4C9C DUP2 PUSH2 0x4C84 JUMP JUMPDEST DUP2 EQ PUSH2 0x4CA6 JUMPI PUSH0 PUSH0 REVERT JUMPDEST POP JUMP JUMPDEST PUSH0 DUP2 CALLDATALOAD SWAP1 POP PUSH2 0x4CB7 DUP2 PUSH2 0x4C93 JUMP JUMPDEST SWAP3 SWAP2 POP POP JUMP JUMPDEST PUSH0 PUSH1 0x20 DUP3 DUP5 SUB SLT ISZERO PUSH2 0x4CD2 JUMPI PUSH2 0x4CD1 PUSH2 0x3A9A JUMP JUMPDEST JUMPDEST PUSH0 PUSH2 0x4CDF DUP5 DUP3 DUP6 ADD PUSH2 0x4CA9 JUMP JUMPDEST SWAP2 POP POP SWAP3 SWAP2 POP POP JUMP JUMPDEST PUSH0 PUSH0 PUSH1 0x40 DUP4 DUP6 SUB SLT ISZERO PUSH2 0x4CFE JUMPI PUSH2 0x4CFD PUSH2 0x3A9A JUMP JUMPDEST JUMPDEST PUSH0 PUSH2 0x4D0B DUP6 DUP3 DUP7 ADD PUSH2 0x3CD9 JUMP JUMPDEST SWAP3 POP POP PUSH1 0x20 PUSH2 0x4D1C DUP6 DUP3 DUP7 ADD PUSH2 0x3C2C JUMP JUMPDEST SWAP2 POP POP SWAP3 POP SWAP3 SWAP1 POP JUMP JUMPDEST PUSH0 PUSH0 PUSH0 PUSH0 PUSH0 PUSH1 0xA0 DUP7 DUP9 SUB SLT ISZERO PUSH2 0x4D3F JUMPI PUSH2 0x4D3E PUSH2 0x3A9A JUMP JUMPDEST JUMPDEST PUSH0 PUSH2 0x4D4C DUP9 DUP3 DUP10 ADD PUSH2 0x3CD9 JUMP JUMPDEST SWAP6 POP POP PUSH1 0x20 PUSH2 0x4D5D DUP9 DUP3 DUP10 ADD PUSH2 0x3CD9 JUMP JUMPDEST SWAP5 POP POP PUSH1 0x40 PUSH2 0x4D6E DUP9 DUP3 DUP10 ADD PUSH2 0x3C2C JUMP JUMPDEST SWAP4 POP POP PUSH1 0x60 PUSH2 0x4D7F DUP9 DUP3 DUP10 ADD PUSH2 0x3C2C JUMP JUMPDEST SWAP3 POP POP PUSH1 0x80 DUP7 ADD CALLDATALOAD PUSH8 0xFFFFFFFFFFFFFFFF DUP2 GT ISZERO PUSH2 0x4DA0 JUMPI PUSH2 0x4D9F PUSH2 0x3A9E JUMP JUMPDEST JUMPDEST PUSH2 0x4DAC DUP9 DUP3 DUP10 ADD PUSH2 0x3DEC JUMP JUMPDEST SWAP2 POP POP SWAP3 SWAP6 POP SWAP3 SWAP6 SWAP1 SWAP4 POP JUMP JUMPDEST PUSH0 PUSH2 0x4DC3 DUP3 PUSH2 0x4AA9 JUMP JUMPDEST SWAP1 POP SWAP2 SWAP1 POP JUMP JUMPDEST PUSH2 0x4DD3 DUP2 PUSH2 0x4DB9 JUMP JUMPDEST DUP3 MSTORE POP POP JUMP JUMPDEST PUSH0 PUSH1 0x20 DUP3 ADD SWAP1 POP PUSH2 0x4DEC PUSH0 DUP4 ADD DUP5 PUSH2 0x4DCA JUMP JUMPDEST SWAP3 SWAP2 POP POP JUMP JUMPDEST PUSH32 0x4E487B7100000000000000000000000000000000000000000000000000000000 PUSH0 MSTORE PUSH1 0x22 PUSH1 0x4 MSTORE PUSH1 0x24 PUSH0 REVERT JUMPDEST PUSH0 PUSH1 0x2 DUP3 DIV SWAP1 POP PUSH1 0x1 DUP3 AND DUP1 PUSH2 0x4E36 JUMPI PUSH1 0x7F DUP3 AND SWAP2 POP JUMPDEST PUSH1 0x20 DUP3 LT DUP2 SUB PUSH2 0x4E49 JUMPI PUSH2 0x4E48 PUSH2 0x4DF2 JUMP JUMPDEST JUMPDEST POP SWAP2 SWAP1 POP JUMP JUMPDEST PUSH0 PUSH2 0x4E69 PUSH2 0x4E64 PUSH2 0x4E5F DUP5 PUSH2 0x4584 JUMP JUMPDEST PUSH2 0x4A7F JUMP JUMPDEST PUSH2 0x3B55 JUMP JUMPDEST SWAP1 POP SWAP2 SWAP1 POP JUMP JUMPDEST PUSH2 0x4E79 DUP2 PUSH2 0x4E4F JUMP JUMPDEST DUP3 MSTORE POP POP JUMP JUMPDEST PUSH0 PUSH1 0x40 DUP3 ADD SWAP1 POP PUSH2 0x4E92 PUSH0 DUP4 ADD DUP6 PUSH2 0x3B5E JUMP JUMPDEST PUSH2 0x4E9F PUSH1 0x20 DUP4 ADD DUP5 PUSH2 0x4E70 JUMP JUMPDEST SWAP4 SWAP3 POP POP POP JUMP JUMPDEST PUSH32 0x4E487B7100000000000000000000000000000000000000000000000000000000 PUSH0 MSTORE PUSH1 0x32 PUSH1 0x4 MSTORE PUSH1 0x24 PUSH0 REVERT JUMPDEST PUSH0 PUSH1 0x40 DUP3 ADD SWAP1 POP PUSH2 0x4EE6 PUSH0 DUP4 ADD DUP6 PUSH2 0x3B5E JUMP JUMPDEST PUSH2 0x4EF3 PUSH1 0x20 DUP4 ADD DUP5 PUSH2 0x3C9B JUMP JUMPDEST SWAP4 SWAP3 POP POP POP JUMP JUMPDEST PUSH0 PUSH2 0x4F0C PUSH2 0x4F07 DUP5 PUSH2 0x465B JUMP JUMPDEST PUSH2 0x3D53 JUMP JUMPDEST SWAP1 POP DUP3 DUP2 MSTORE PUSH1 0x20 DUP2 ADD DUP5 DUP5 DUP5 ADD GT ISZERO PUSH2 0x4F28 JUMPI PUSH2 0x4F27 PUSH2 0x3CF1 JUMP JUMPDEST JUMPDEST PUSH2 0x4F33 DUP5 DUP3 DUP6 PUSH2 0x3BA0 JUMP JUMPDEST POP SWAP4 SWAP3 POP POP POP JUMP JUMPDEST PUSH0 DUP3 PUSH1 0x1F DUP4 ADD SLT PUSH2 0x4F4F JUMPI PUSH2 0x4F4E PUSH2 0x3CED JUMP JUMPDEST JUMPDEST DUP2 MLOAD PUSH2 0x4F5F DUP5 DUP3 PUSH1 0x20 DUP7 ADD PUSH2 0x4EFA JUMP JUMPDEST SWAP2 POP POP SWAP3 SWAP2 POP POP JUMP JUMPDEST PUSH0 PUSH1 0x20 DUP3 DUP5 SUB SLT ISZERO PUSH2 0x4F7D JUMPI PUSH2 0x4F7C PUSH2 0x3A9A JUMP JUMPDEST JUMPDEST PUSH0 DUP3 ADD MLOAD PUSH8 0xFFFFFFFFFFFFFFFF DUP2 GT ISZERO PUSH2 0x4F9A JUMPI PUSH2 0x4F99 PUSH2 0x3A9E JUMP JUMPDEST JUMPDEST PUSH2 0x4FA6 DUP5 DUP3 DUP6 ADD PUSH2 0x4F3B JUMP JUMPDEST SWAP2 POP POP SWAP3 SWAP2 POP POP JUMP JUMPDEST PUSH0 DUP2 SWAP1 POP SWAP3 SWAP2 POP POP JUMP JUMPDEST PUSH0 PUSH2 0x4FC4 DUP4 DUP6 PUSH2 0x4FAF JUMP JUMPDEST SWAP4 POP PUSH2 0x4FD1 DUP4 DUP6 DUP5 PUSH2 0x3D9D JUMP JUMPDEST DUP3 DUP5 ADD SWAP1 POP SWAP4 SWAP3 POP POP POP JUMP JUMPDEST PUSH0 PUSH2 0x4FE9 DUP3 DUP5 DUP7 PUSH2 0x4FB9 JUMP JUMPDEST SWAP2 POP DUP2 SWAP1 POP SWAP4 SWAP3 POP POP POP JUMP JUMPDEST PUSH2 0x4FFE DUP2 PUSH2 0x4335 JUMP JUMPDEST DUP3 MSTORE POP POP JUMP JUMPDEST PUSH0 PUSH1 0xE0 DUP3 ADD SWAP1 POP PUSH2 0x5017 PUSH0 DUP4 ADD DUP11 PUSH2 0x420E JUMP JUMPDEST PUSH2 0x5024 PUSH1 0x20 DUP4 ADD DUP10 PUSH2 0x3B5E JUMP JUMPDEST PUSH2 0x5031 PUSH1 0x40 DUP4 ADD DUP9 PUSH2 0x4FF5 JUMP JUMPDEST PUSH2 0x503E PUSH1 0x60 DUP4 ADD DUP8 PUSH2 0x3C9B JUMP JUMPDEST PUSH2 0x504B PUSH1 0x80 DUP4 ADD DUP7 PUSH2 0x3B5E JUMP JUMPDEST PUSH2 0x5058 PUSH1 0xA0 DUP4 ADD DUP6 PUSH2 0x420E JUMP JUMPDEST PUSH2 0x5065 PUSH1 0xC0 DUP4 ADD DUP5 PUSH2 0x420E JUMP JUMPDEST SWAP9 SWAP8 POP POP POP POP POP POP POP POP JUMP JUMPDEST PUSH32 0x4E487B7100000000000000000000000000000000000000000000000000000000 PUSH0 MSTORE PUSH1 0x11 PUSH1 0x4 MSTORE PUSH1 0x24 PUSH0 REVERT JUMPDEST PUSH0 PUSH2 0x50A8 DUP3 PUSH2 0x4584 JUMP JUMPDEST SWAP2 POP PUSH2 0x50B3 DUP4 PUSH2 0x4584 JUMP JUMPDEST SWAP3 POP DUP3 DUP3 SUB SWAP1 POP PUSH6 0xFFFFFFFFFFFF DUP2 GT ISZERO PUSH2 0x50D1 JUMPI PUSH2 0x50D0 PUSH2 0x5071 JUMP JUMPDEST JUMPDEST SWAP3 SWAP2 POP POP JUMP JUMPDEST PUSH0 PUSH1 0x60 DUP3 ADD SWAP1 POP PUSH2 0x50EA PUSH0 DUP4 ADD DUP7 PUSH2 0x3C9B JUMP JUMPDEST PUSH2 0x50F7 PUSH1 0x20 DUP4 ADD DUP6 PUSH2 0x3B5E JUMP JUMPDEST PUSH2 0x5104 PUSH1 0x40 DUP4 ADD DUP5 PUSH2 0x3B5E JUMP JUMPDEST SWAP5 SWAP4 POP POP POP POP JUMP JUMPDEST PUSH0 PUSH1 0xA0 DUP3 ADD SWAP1 POP PUSH2 0x511F PUSH0 DUP4 ADD DUP9 PUSH2 0x420E JUMP JUMPDEST PUSH2 0x512C PUSH1 0x20 DUP4 ADD DUP8 PUSH2 0x3B5E JUMP JUMPDEST PUSH2 0x5139 PUSH1 0x40 DUP4 ADD DUP7 PUSH2 0x4FF5 JUMP JUMPDEST PUSH2 0x5146 PUSH1 0x60 DUP4 ADD DUP6 PUSH2 0x3C9B JUMP JUMPDEST PUSH2 0x5153 PUSH1 0x80 DUP4 ADD DUP5 PUSH2 0x3B5E JUMP JUMPDEST SWAP7 SWAP6 POP POP POP POP POP POP JUMP JUMPDEST PUSH0 DUP2 MLOAD SWAP1 POP PUSH2 0x516B DUP2 PUSH2 0x4595 JUMP JUMPDEST SWAP3 SWAP2 POP POP JUMP JUMPDEST PUSH0 PUSH1 0x20 DUP3 DUP5 SUB SLT ISZERO PUSH2 0x5186 JUMPI PUSH2 0x5185 PUSH2 0x3A9A JUMP JUMPDEST JUMPDEST PUSH0 PUSH2 0x5193 DUP5 DUP3 DUP6 ADD PUSH2 0x515D JUMP JUMPDEST SWAP2 POP POP SWAP3 SWAP2 POP POP JUMP JUMPDEST PUSH0 PUSH2 0x51A6 DUP3 PUSH2 0x4584 JUMP JUMPDEST SWAP2 POP PUSH2 0x51B1 DUP4 PUSH2 0x4584 JUMP JUMPDEST SWAP3 POP DUP3 DUP3 ADD SWAP1 POP PUSH6 0xFFFFFFFFFFFF DUP2 GT ISZERO PUSH2 0x51CF JUMPI PUSH2 0x51CE PUSH2 0x5071 JUMP JUMPDEST JUMPDEST SWAP3 SWAP2 POP POP JUMP JUMPDEST PUSH0 DUP2 MLOAD SWAP1 POP SWAP2 SWAP1 POP JUMP JUMPDEST PUSH0 DUP3 DUP3 MSTORE PUSH1 0x20 DUP3 ADD SWAP1 POP SWAP3 SWAP2 POP POP JUMP JUMPDEST PUSH0 DUP2 SWAP1 POP PUSH1 0x20 DUP3 ADD SWAP1 POP SWAP2 SWAP1 POP JUMP JUMPDEST PUSH2 0x5207 DUP2 PUSH2 0x3C8A JUMP JUMPDEST DUP3 MSTORE POP POP JUMP JUMPDEST PUSH0 PUSH2 0x5218 DUP4 DUP4 PUSH2 0x51FE JUMP JUMPDEST PUSH1 0x20 DUP4 ADD SWAP1 POP SWAP3 SWAP2 POP POP JUMP JUMPDEST PUSH0 PUSH1 0x20 DUP3 ADD SWAP1 POP SWAP2 SWAP1 POP JUMP JUMPDEST PUSH0 PUSH2 0x523A DUP3 PUSH2 0x51D5 JUMP JUMPDEST PUSH2 0x5244 DUP2 DUP6 PUSH2 0x51DF JUMP JUMPDEST SWAP4 POP PUSH2 0x524F DUP4 PUSH2 0x51EF JUMP JUMPDEST DUP1 PUSH0 JUMPDEST DUP4 DUP2 LT ISZERO PUSH2 0x527F JUMPI DUP2 MLOAD PUSH2 0x5266 DUP9 DUP3 PUSH2 0x520D JUMP JUMPDEST SWAP8 POP PUSH2 0x5271 DUP4 PUSH2 0x5224 JUMP JUMPDEST SWAP3 POP POP PUSH1 0x1 DUP2 ADD SWAP1 POP PUSH2 0x5252 JUMP JUMPDEST POP DUP6 SWAP4 POP POP POP POP SWAP3 SWAP2 POP POP JUMP JUMPDEST PUSH0 DUP2 MLOAD SWAP1 POP SWAP2 SWAP1 POP JUMP JUMPDEST PUSH0 DUP3 DUP3 MSTORE PUSH1 0x20 DUP3 ADD SWAP1 POP SWAP3 SWAP2 POP POP JUMP JUMPDEST PUSH0 DUP2 SWAP1 POP PUSH1 0x20 DUP3 ADD SWAP1 POP SWAP2 SWAP1 POP JUMP JUMPDEST PUSH0 DUP2 MLOAD SWAP1 POP SWAP2 SWAP1 POP JUMP JUMPDEST PUSH0 DUP3 DUP3 MSTORE PUSH1 0x20 DUP3 ADD SWAP1 POP SWAP3 SWAP2 POP POP JUMP JUMPDEST PUSH0 PUSH2 0x52D9 DUP3 PUSH2 0x52B5 JUMP JUMPDEST PUSH2 0x52E3 DUP2 DUP6 PUSH2 0x52BF JUMP JUMPDEST SWAP4 POP PUSH2 0x52F3 DUP2 DUP6 PUSH1 0x20 DUP7 ADD PUSH2 0x3BA0 JUMP JUMPDEST PUSH2 0x52FC DUP2 PUSH2 0x3BAE JUMP JUMPDEST DUP5 ADD SWAP2 POP POP SWAP3 SWAP2 POP POP JUMP JUMPDEST PUSH0 PUSH2 0x5312 DUP4 DUP4 PUSH2 0x52CF JUMP JUMPDEST SWAP1 POP SWAP3 SWAP2 POP POP JUMP JUMPDEST PUSH0 PUSH1 0x20 DUP3 ADD SWAP1 POP SWAP2 SWAP1 POP JUMP JUMPDEST PUSH0 PUSH2 0x5330 DUP3 PUSH2 0x528C JUMP JUMPDEST PUSH2 0x533A DUP2 DUP6 PUSH2 0x5296 JUMP JUMPDEST SWAP4 POP DUP4 PUSH1 0x20 DUP3 MUL DUP6 ADD PUSH2 0x534C DUP6 PUSH2 0x52A6 JUMP JUMPDEST DUP1 PUSH0 JUMPDEST DUP6 DUP2 LT ISZERO PUSH2 0x5387 JUMPI DUP5 DUP5 SUB DUP10 MSTORE DUP2 MLOAD PUSH2 0x5368 DUP6 DUP3 PUSH2 0x5307 JUMP JUMPDEST SWAP5 POP PUSH2 0x5373 DUP4 PUSH2 0x531A JUMP JUMPDEST SWAP3 POP PUSH1 0x20 DUP11 ADD SWAP10 POP POP PUSH1 0x1 DUP2 ADD SWAP1 POP PUSH2 0x534F JUMP JUMPDEST POP DUP3 SWAP8 POP DUP8 SWAP6 POP POP POP POP POP POP SWAP3 SWAP2 POP POP JUMP JUMPDEST PUSH0 PUSH1 0x80 DUP3 ADD SWAP1 POP DUP2 DUP2 SUB PUSH0 DUP4 ADD MSTORE PUSH2 0x53B1 DUP2 DUP8 PUSH2 0x5230 JUMP JUMPDEST SWAP1 POP DUP2 DUP2 SUB PUSH1 0x20 DUP4 ADD MSTORE PUSH2 0x53C5 DUP2 DUP7 PUSH2 0x488D JUMP JUMPDEST SWAP1 POP DUP2 DUP2 SUB PUSH1 0x40 DUP4 ADD MSTORE PUSH2 0x53D9 DUP2 DUP6 PUSH2 0x5326 JUMP JUMPDEST SWAP1 POP PUSH2 0x53E8 PUSH1 0x60 DUP4 ADD DUP5 PUSH2 0x420E JUMP JUMPDEST SWAP6 SWAP5 POP POP POP POP POP JUMP JUMPDEST PUSH0 DUP2 MLOAD SWAP1 POP PUSH2 0x53FF DUP2 PUSH2 0x3C16 JUMP JUMPDEST SWAP3 SWAP2 POP POP JUMP JUMPDEST PUSH0 PUSH1 0x20 DUP3 DUP5 SUB SLT ISZERO PUSH2 0x541A JUMPI PUSH2 0x5419 PUSH2 0x3A9A JUMP JUMPDEST JUMPDEST PUSH0 PUSH2 0x5427 DUP5 DUP3 DUP6 ADD PUSH2 0x53F1 JUMP JUMPDEST SWAP2 POP POP SWAP3 SWAP2 POP POP JUMP JUMPDEST PUSH32 0x4E487B7100000000000000000000000000000000000000000000000000000000 PUSH0 MSTORE PUSH1 0x12 PUSH1 0x4 MSTORE PUSH1 0x24 PUSH0 REVERT JUMPDEST PUSH0 PUSH2 0x5467 DUP3 PUSH2 0x3B55 JUMP JUMPDEST SWAP2 POP PUSH2 0x5472 DUP4 PUSH2 0x3B55 JUMP JUMPDEST SWAP3 POP DUP3 PUSH2 0x5482 JUMPI PUSH2 0x5481 PUSH2 0x5430 JUMP JUMPDEST JUMPDEST DUP3 DUP3 DIV SWAP1 POP SWAP3 SWAP2 POP POP JUMP JUMPDEST PUSH0 PUSH1 0x60 DUP3 ADD SWAP1 POP PUSH2 0x54A0 PUSH0 DUP4 ADD DUP7 PUSH2 0x3B5E JUMP JUMPDEST PUSH2 0x54AD PUSH1 0x20 DUP4 ADD DUP6 PUSH2 0x429A JUMP JUMPDEST PUSH2 0x54BA PUSH1 0x40 DUP4 ADD DUP5 PUSH2 0x420E JUMP JUMPDEST SWAP5 SWAP4 POP POP POP POP JUMP JUMPDEST PUSH0 PUSH2 0x54CC DUP3 PUSH2 0x52B5 JUMP JUMPDEST PUSH2 0x54D6 DUP2 DUP6 PUSH2 0x4FAF JUMP JUMPDEST SWAP4 POP PUSH2 0x54E6 DUP2 DUP6 PUSH1 0x20 DUP7 ADD PUSH2 0x3BA0 JUMP JUMPDEST DUP1 DUP5 ADD SWAP2 POP POP SWAP3 SWAP2 POP POP JUMP JUMPDEST PUSH0 PUSH2 0x54FD DUP3 DUP5 PUSH2 0x54C2 JUMP JUMPDEST SWAP2 POP DUP2 SWAP1 POP SWAP3 SWAP2 POP POP JUMP JUMPDEST PUSH0 PUSH2 0x5512 DUP3 PUSH2 0x3B55 JUMP JUMPDEST SWAP2 POP PUSH2 0x551D DUP4 PUSH2 0x3B55 JUMP JUMPDEST SWAP3 POP DUP3 DUP3 ADD SWAP1 POP DUP1 DUP3 GT ISZERO PUSH2 0x5535 JUMPI PUSH2 0x5534 PUSH2 0x5071 JUMP JUMPDEST JUMPDEST SWAP3 SWAP2 POP POP JUMP JUMPDEST PUSH0 PUSH2 0x5545 DUP3 PUSH2 0x4335 JUMP JUMPDEST SWAP2 POP PUSH2 0x5550 DUP4 PUSH2 0x4335 JUMP JUMPDEST SWAP3 POP DUP3 DUP3 ADD SWAP1 POP PUSH1 0xFF DUP2 GT ISZERO PUSH2 0x5569 JUMPI PUSH2 0x5568 PUSH2 0x5071 JUMP JUMPDEST JUMPDEST SWAP3 SWAP2 POP POP JUMP JUMPDEST PUSH0 DUP2 PUSH1 0x1 SHR SWAP1 POP SWAP2 SWAP1 POP JUMP JUMPDEST PUSH0 PUSH0 DUP3 SWAP2 POP DUP4 SWAP1 POP JUMPDEST PUSH1 0x1 DUP6 GT ISZERO PUSH2 0x55C4 JUMPI DUP1 DUP7 DIV DUP2 GT ISZERO PUSH2 0x55A0 JUMPI PUSH2 0x559F PUSH2 0x5071 JUMP JUMPDEST JUMPDEST PUSH1 0x1 DUP6 AND ISZERO PUSH2 0x55AF JUMPI DUP1 DUP3 MUL SWAP2 POP JUMPDEST DUP1 DUP2 MUL SWAP1 POP PUSH2 0x55BD DUP6 PUSH2 0x556F JUMP JUMPDEST SWAP5 POP PUSH2 0x5584 JUMP JUMPDEST SWAP5 POP SWAP5 SWAP3 POP POP POP JUMP JUMPDEST PUSH0 DUP3 PUSH2 0x55DC JUMPI PUSH1 0x1 SWAP1 POP PUSH2 0x5697 JUMP JUMPDEST DUP2 PUSH2 0x55E9 JUMPI PUSH0 SWAP1 POP PUSH2 0x5697 JUMP JUMPDEST DUP2 PUSH1 0x1 DUP2 EQ PUSH2 0x55FF JUMPI PUSH1 0x2 DUP2 EQ PUSH2 0x5609 JUMPI PUSH2 0x5638 JUMP JUMPDEST PUSH1 0x1 SWAP2 POP POP PUSH2 0x5697 JUMP JUMPDEST PUSH1 0xFF DUP5 GT ISZERO PUSH2 0x561B JUMPI PUSH2 0x561A PUSH2 0x5071 JUMP JUMPDEST JUMPDEST DUP4 PUSH1 0x2 EXP SWAP2 POP DUP5 DUP3 GT ISZERO PUSH2 0x5632 JUMPI PUSH2 0x5631 PUSH2 0x5071 JUMP JUMPDEST JUMPDEST POP PUSH2 0x5697 JUMP JUMPDEST POP PUSH1 0x20 DUP4 LT PUSH2 0x133 DUP4 LT AND PUSH1 0x4E DUP5 LT PUSH1 0xB DUP5 LT AND OR ISZERO PUSH2 0x566D JUMPI DUP3 DUP3 EXP SWAP1 POP DUP4 DUP2 GT ISZERO PUSH2 0x5668 JUMPI PUSH2 0x5667 PUSH2 0x5071 JUMP JUMPDEST JUMPDEST PUSH2 0x5697 JUMP JUMPDEST PUSH2 0x567A DUP5 DUP5 DUP5 PUSH1 0x1 PUSH2 0x557B JUMP JUMPDEST SWAP3 POP SWAP1 POP DUP2 DUP5 DIV DUP2 GT ISZERO PUSH2 0x5691 JUMPI PUSH2 0x5690 PUSH2 0x5071 JUMP JUMPDEST JUMPDEST DUP2 DUP2 MUL SWAP1 POP JUMPDEST SWAP4 SWAP3 POP POP POP JUMP JUMPDEST PUSH0 PUSH2 0x56A8 DUP3 PUSH2 0x3B55 JUMP JUMPDEST SWAP2 POP PUSH2 0x56B3 DUP4 PUSH2 0x4335 JUMP JUMPDEST SWAP3 POP PUSH2 0x56E0 PUSH32 0xFFFFFFFFFFFFFFFFFFFFFFFFFFFFFFFFFFFFFFFFFFFFFFFFFFFFFFFFFFFFFFFF DUP5 DUP5 PUSH2 0x55CD JUMP JUMPDEST SWAP1 POP SWAP3 SWAP2 POP POP JUMP JUMPDEST PUSH0 PUSH2 0x56F2 DUP3 PUSH2 0x3B55 JUMP JUMPDEST SWAP2 POP PUSH2 0x56FD DUP4 PUSH2 0x3B55 JUMP JUMPDEST SWAP3 POP DUP3 DUP3 SUB SWAP1 POP DUP2 DUP2 GT ISZERO PUSH2 0x5715 JUMPI PUSH2 0x5714 PUSH2 0x5071 JUMP JUMPDEST JUMPDEST SWAP3 SWAP2 POP POP JUMP JUMPDEST PUSH0 PUSH1 0x80 DUP3 ADD SWAP1 POP PUSH2 0x572E PUSH0 DUP4 ADD DUP8 PUSH2 0x3B5E JUMP JUMPDEST PUSH2 0x573B PUSH1 0x20 DUP4 ADD DUP7 PUSH2 0x4FF5 JUMP JUMPDEST PUSH2 0x5748 PUSH1 0x40 DUP4 ADD DUP6 PUSH2 0x3B5E JUMP JUMPDEST DUP2 DUP2 SUB PUSH1 0x60 DUP4 ADD MSTORE PUSH2 0x575A DUP2 DUP5 PUSH2 0x3BBE JUMP JUMPDEST SWAP1 POP SWAP6 SWAP5 POP POP POP POP POP JUMP JUMPDEST PUSH0 DUP3 DUP3 MSTORE PUSH1 0x20 DUP3 ADD SWAP1 POP SWAP3 SWAP2 POP POP JUMP JUMPDEST PUSH0 PUSH2 0x577F DUP3 PUSH2 0x52B5 JUMP JUMPDEST PUSH2 0x5789 DUP2 DUP6 PUSH2 0x5765 JUMP JUMPDEST SWAP4 POP PUSH2 0x5799 DUP2 DUP6 PUSH1 0x20 DUP7 ADD PUSH2 0x3BA0 JUMP JUMPDEST PUSH2 0x57A2 DUP2 PUSH2 0x3BAE JUMP JUMPDEST DUP5 ADD SWAP2 POP POP SWAP3 SWAP2 POP POP JUMP JUMPDEST PUSH0 PUSH1 0xA0 DUP3 ADD SWAP1 POP PUSH2 0x57C0 PUSH0 DUP4 ADD DUP9 PUSH2 0x3B5E JUMP JUMPDEST PUSH2 0x57CD PUSH1 0x20 DUP4 ADD DUP8 PUSH2 0x4FF5 JUMP JUMPDEST PUSH2 0x57DA PUSH1 0x40 DUP4 ADD DUP7 PUSH2 0x3B5E JUMP JUMPDEST DUP2 DUP2 SUB PUSH1 0x60 DUP4 ADD MSTORE PUSH2 0x57EC DUP2 DUP6 PUSH2 0x3BBE JUMP JUMPDEST SWAP1 POP DUP2 DUP2 SUB PUSH1 0x80 DUP4 ADD MSTORE PUSH2 0x5800 DUP2 DUP5 PUSH2 0x5775 JUMP JUMPDEST SWAP1 POP SWAP7 SWAP6 POP POP POP POP POP POP JUMP JUMPDEST PUSH0 PUSH1 0x40 DUP3 ADD SWAP1 POP PUSH2 0x581F PUSH0 DUP4 ADD DUP6 PUSH2 0x4E70 JUMP JUMPDEST PUSH2 0x582C PUSH1 0x20 DUP4 ADD DUP5 PUSH2 0x4E70 JUMP JUMPDEST SWAP4 SWAP3 POP POP POP JUMP JUMPDEST PUSH0 DUP2 MLOAD SWAP1 POP SWAP2 SWAP1 POP JUMP JUMPDEST PUSH0 DUP3 DUP3 MSTORE PUSH1 0x20 DUP3 ADD SWAP1 POP SWAP3 SWAP2 POP POP JUMP JUMPDEST PUSH0 DUP2 SWAP1 POP PUSH1 0x20 DUP3 ADD SWAP1 POP SWAP2 SWAP1 POP JUMP JUMPDEST PUSH0 DUP3 DUP3 MSTORE PUSH1 0x20 DUP3 ADD SWAP1 POP SWAP3 SWAP2 POP POP JUMP JUMPDEST PUSH0 PUSH2 0x5876 DUP3 PUSH2 0x3B86 JUMP JUMPDEST PUSH2 0x5880 DUP2 DUP6 PUSH2 0x585C JUMP JUMPDEST SWAP4 POP PUSH2 0x5890 DUP2 DUP6 PUSH1 0x20 DUP7 ADD PUSH2 0x3BA0 JUMP JUMPDEST PUSH2 0x5899 DUP2 PUSH2 0x3BAE JUMP JUMPDEST DUP5 ADD SWAP2 POP POP SWAP3 SWAP2 POP POP JUMP JUMPDEST PUSH0 PUSH2 0x58AF DUP4 DUP4 PUSH2 0x586C JUMP JUMPDEST SWAP1 POP SWAP3 SWAP2 POP POP JUMP JUMPDEST PUSH0 PUSH1 0x20 DUP3 ADD SWAP1 POP SWAP2 SWAP1 POP JUMP JUMPDEST PUSH0 PUSH2 0x58CD DUP3 PUSH2 0x5833 JUMP JUMPDEST PUSH2 0x58D7 DUP2 DUP6 PUSH2 0x583D JUMP JUMPDEST SWAP4 POP DUP4 PUSH1 0x20 DUP3 MUL DUP6 ADD PUSH2 0x58E9 DUP6 PUSH2 0x584D JUMP JUMPDEST DUP1 PUSH0 JUMPDEST DUP6 DUP2 LT ISZERO PUSH2 0x5924 JUMPI DUP5 DUP5 SUB DUP10 MSTORE DUP2 MLOAD PUSH2 0x5905 DUP6 DUP3 PUSH2 0x58A4 JUMP JUMPDEST SWAP5 POP PUSH2 0x5910 DUP4 PUSH2 0x58B7 JUMP JUMPDEST SWAP3 POP PUSH1 0x20 DUP11 ADD SWAP10 POP POP PUSH1 0x1 DUP2 ADD SWAP1 POP PUSH2 0x58EC JUMP JUMPDEST POP DUP3 SWAP8 POP DUP8 SWAP6 POP POP POP POP POP POP SWAP3 SWAP2 POP POP JUMP JUMPDEST PUSH0 PUSH2 0x120 DUP3 ADD SWAP1 POP PUSH2 0x594A PUSH0 DUP4 ADD DUP13 PUSH2 0x3B5E JUMP JUMPDEST PUSH2 0x5957 PUSH1 0x20 DUP4 ADD DUP12 PUSH2 0x3C9B JUMP JUMPDEST DUP2 DUP2 SUB PUSH1 0x40 DUP4 ADD MSTORE PUSH2 0x5969 DUP2 DUP11 PUSH2 0x5230 JUMP JUMPDEST SWAP1 POP DUP2 DUP2 SUB PUSH1 0x60 DUP4 ADD MSTORE PUSH2 0x597D DUP2 DUP10 PUSH2 0x488D JUMP JUMPDEST SWAP1 POP DUP2 DUP2 SUB PUSH1 0x80 DUP4 ADD MSTORE PUSH2 0x5991 DUP2 DUP9 PUSH2 0x58C3 JUMP JUMPDEST SWAP1 POP DUP2 DUP2 SUB PUSH1 0xA0 DUP4 ADD MSTORE PUSH2 0x59A5 DUP2 DUP8 PUSH2 0x5326 JUMP JUMPDEST SWAP1 POP PUSH2 0x59B4 PUSH1 0xC0 DUP4 ADD DUP7 PUSH2 0x3B5E JUMP JUMPDEST PUSH2 0x59C1 PUSH1 0xE0 DUP4 ADD DUP6 PUSH2 0x3B5E JUMP JUMPDEST DUP2 DUP2 SUB PUSH2 0x100 DUP4 ADD MSTORE PUSH2 0x59D4 DUP2 DUP5 PUSH2 0x3BBE JUMP JUMPDEST SWAP1 POP SWAP11 SWAP10 POP POP POP POP POP POP POP POP POP POP JUMP JUMPDEST PUSH0 PUSH1 0x40 DUP3 ADD SWAP1 POP PUSH2 0x59F7 PUSH0 DUP4 ADD DUP6 PUSH2 0x3C9B JUMP JUMPDEST PUSH2 0x5A04 PUSH1 0x20 DUP4 ADD DUP5 PUSH2 0x3B5E JUMP JUMPDEST SWAP4 SWAP3 POP POP POP JUMP JUMPDEST PUSH0 DUP2 SWAP1 POP SWAP2 SWAP1 POP JUMP JUMPDEST PUSH0 PUSH2 0x5A2E PUSH2 0x5A29 PUSH2 0x5A24 DUP5 PUSH2 0x5A0B JUMP JUMPDEST PUSH2 0x4A7F JUMP JUMPDEST PUSH2 0x3B55 JUMP JUMPDEST SWAP1 POP SWAP2 SWAP1 POP JUMP JUMPDEST PUSH2 0x5A3E DUP2 PUSH2 0x5A14 JUMP JUMPDEST DUP3 MSTORE POP POP JUMP JUMPDEST PUSH0 PUSH1 0x20 DUP3 ADD SWAP1 POP PUSH2 0x5A57 PUSH0 DUP4 ADD DUP5 PUSH2 0x5A35 JUMP JUMPDEST SWAP3 SWAP2 POP POP JUMP JUMPDEST PUSH0 PUSH2 0x5A77 PUSH2 0x5A72 PUSH2 0x5A6D DUP5 PUSH2 0x4C84 JUMP JUMPDEST PUSH2 0x4A7F JUMP JUMPDEST PUSH2 0x3B55 JUMP JUMPDEST SWAP1 POP SWAP2 SWAP1 POP JUMP JUMPDEST PUSH2 0x5A87 DUP2 PUSH2 0x5A5D JUMP JUMPDEST DUP3 MSTORE POP POP JUMP JUMPDEST PUSH0 PUSH1 0x40 DUP3 ADD SWAP1 POP PUSH2 0x5AA0 PUSH0 DUP4 ADD DUP6 PUSH2 0x5A7E JUMP JUMPDEST PUSH2 0x5AAD PUSH1 0x20 DUP4 ADD DUP5 PUSH2 0x5A7E JUMP JUMPDEST SWAP4 SWAP3 POP POP POP JUMP JUMPDEST PUSH0 PUSH1 0x40 DUP3 ADD SWAP1 POP PUSH2 0x5AC7 PUSH0 DUP4 ADD DUP6 PUSH2 0x3B5E JUMP JUMPDEST PUSH2 0x5AD4 PUSH1 0x20 DUP4 ADD DUP5 PUSH2 0x3B5E JUMP JUMPDEST SWAP4 SWAP3 POP POP POP JUMP JUMPDEST PUSH0 PUSH1 0x40 DUP3 ADD SWAP1 POP PUSH2 0x5AEE PUSH0 DUP4 ADD DUP6 PUSH2 0x420E JUMP JUMPDEST DUP2 DUP2 SUB PUSH1 0x20 DUP4 ADD MSTORE PUSH2 0x5B00 DUP2 DUP5 PUSH2 0x5775 JUMP JUMPDEST SWAP1 POP SWAP4 SWAP3 POP POP POP JUMP JUMPDEST PUSH0 DUP2 MLOAD SWAP1 POP PUSH2 0x5B17 DUP2 PUSH2 0x412C JUMP JUMPDEST SWAP3 SWAP2 POP POP JUMP JUMPDEST PUSH0 PUSH1 0x20 DUP3 DUP5 SUB SLT ISZERO PUSH2 0x5B32 JUMPI PUSH2 0x5B31 PUSH2 0x3A9A JUMP JUMPDEST JUMPDEST PUSH0 PUSH2 0x5B3F DUP5 DUP3 DUP6 ADD PUSH2 0x5B09 JUMP JUMPDEST SWAP2 POP POP SWAP3 SWAP2 POP POP JUMP JUMPDEST PUSH0 PUSH2 0x5B52 DUP3 PUSH2 0x3B55 JUMP JUMPDEST SWAP2 POP PUSH2 0x5B5D DUP4 PUSH2 0x3B55 JUMP JUMPDEST SWAP3 POP DUP3 DUP3 MUL PUSH2 0x5B6B DUP2 PUSH2 0x3B55 JUMP JUMPDEST SWAP2 POP DUP3 DUP3 DIV DUP5 EQ DUP4 ISZERO OR PUSH2 0x5B82 JUMPI PUSH2 0x5B81 PUSH2 0x5071 JUMP JUMPDEST JUMPDEST POP SWAP3 SWAP2 POP POP JUMP JUMPDEST PUSH0 DUP2 SWAP1 POP SWAP2 SWAP1 POP JUMP JUMPDEST PUSH0 PUSH2 0x5BAC PUSH2 0x5BA7 PUSH2 0x5BA2 DUP5 PUSH2 0x5B89 JUMP JUMPDEST PUSH2 0x4A7F JUMP JUMPDEST PUSH2 0x4335 JUMP JUMPDEST SWAP1 POP SWAP2 SWAP1 POP JUMP JUMPDEST PUSH2 0x5BBC DUP2 PUSH2 0x5B92 JUMP JUMPDEST DUP3 MSTORE POP POP JUMP JUMPDEST PUSH0 PUSH1 0x40 DUP3 ADD SWAP1 POP PUSH2 0x5BD5 PUSH0 DUP4 ADD DUP6 PUSH2 0x5BB3 JUMP JUMPDEST PUSH2 0x5BE2 PUSH1 0x20 DUP4 ADD DUP5 PUSH2 0x3B5E JUMP JUMPDEST SWAP4 SWAP3 POP POP POP JUMP JUMPDEST PUSH0 DUP2 SWAP1 POP SWAP2 SWAP1 POP JUMP JUMPDEST PUSH0 PUSH2 0x5C0C PUSH2 0x5C07 PUSH2 0x5C02 DUP5 PUSH2 0x5BE9 JUMP JUMPDEST PUSH2 0x4A7F JUMP JUMPDEST PUSH2 0x4335 JUMP JUMPDEST SWAP1 POP SWAP2 SWAP1 POP JUMP JUMPDEST PUSH2 0x5C1C DUP2 PUSH2 0x5BF2 JUMP JUMPDEST DUP3 MSTORE POP POP JUMP JUMPDEST PUSH0 PUSH1 0x40 DUP3 ADD SWAP1 POP PUSH2 0x5C35 PUSH0 DUP4 ADD DUP6 PUSH2 0x5C13 JUMP JUMPDEST PUSH2 0x5C42 PUSH1 0x20 DUP4 ADD DUP5 PUSH2 0x3B5E JUMP JUMPDEST SWAP4 SWAP3 POP POP POP JUMP JUMPDEST PUSH0 PUSH1 0xA0 DUP3 ADD SWAP1 POP PUSH2 0x5C5C PUSH0 DUP4 ADD DUP9 PUSH2 0x420E JUMP JUMPDEST PUSH2 0x5C69 PUSH1 0x20 DUP4 ADD DUP8 PUSH2 0x420E JUMP JUMPDEST PUSH2 0x5C76 PUSH1 0x40 DUP4 ADD DUP7 PUSH2 0x420E JUMP JUMPDEST PUSH2 0x5C83 PUSH1 0x60 DUP4 ADD DUP6 PUSH2 0x3B5E JUMP JUMPDEST PUSH2 0x5C90 PUSH1 0x80 DUP4 ADD DUP5 PUSH2 0x3C9B JUMP JUMPDEST SWAP7 SWAP6 POP POP POP POP POP POP JUMP JUMPDEST PUSH0 PUSH1 0x80 DUP3 ADD SWAP1 POP PUSH2 0x5CAD PUSH0 DUP4 ADD DUP8 PUSH2 0x420E JUMP JUMPDEST PUSH2 0x5CBA PUSH1 0x20 DUP4 ADD DUP7 PUSH2 0x4FF5 JUMP JUMPDEST PUSH2 0x5CC7 PUSH1 0x40 DUP4 ADD DUP6 PUSH2 0x420E JUMP JUMPDEST PUSH2 0x5CD4 PUSH1 0x60 DUP4 ADD DUP5 PUSH2 0x420E JUMP JUMPDEST SWAP6 SWAP5 POP POP POP POP POP JUMP INVALID LOG2 PUSH5 0x6970667358 0x22 SLT KECCAK256 0xC4 BLOBBASEFEE DUP5 ADDRESS PUSH1 0xB9 EXTSTATICCALL CODESIZE COINBASE 0xAA 0xAF PUSH12 0x14A31E7D29EF3420AE79864D SWAP15 0x21 0xBD 0xCF JUMPI 0xC2 LT PUSH20 0x64736F6C634300081E0033000000000000000000 "
		},
		"gasEstimates": {
			"creation": {
				"codeDepositCost": "4765400",
				"executionCost": "infinite",
				"totalCost": "infinite"
			},
			"external": {
				"BALLOT_TYPEHASH()": "458",
				"CLOCK_MODE()": "infinite",
				"COUNTING_MODE()": "infinite",
				"EXTENDED_BALLOT_TYPEHASH()": "437",
				"cancel(address[],uint256[],bytes[],bytes32)": "infinite",
				"castVote(uint256,uint8)": "infinite",
				"castVoteBySig(uint256,uint8,address,bytes)": "infinite",
				"castVoteWithReason(uint256,uint8,string)": "infinite",
				"castVoteWithReasonAndParams(uint256,uint8,string,bytes)": "infinite",
				"castVoteWithReasonAndParamsBySig(uint256,uint8,address,string,bytes,bytes)": "infinite",
				"clock()": "infinite",
				"credToken()": "infinite",
				"eip712Domain()": "infinite",
				"execute(address[],uint256[],bytes[],bytes32)": "infinite",
				"getProposalId(address[],uint256[],bytes[],bytes32)": "infinite",
				"getVotes(address,uint256)": "infinite",
				"getVotesWithParams(address,uint256,bytes)": "infinite",
				"hasVoted(uint256,address)": "3168",
				"hashProposal(address[],uint256[],bytes[],bytes32)": "infinite",
				"name()": "infinite",
				"nonces(address)": "2875",
				"onERC1155BatchReceived(address,address,uint256[],uint256[],bytes)": "infinite",
				"onERC1155Received(address,address,uint256,uint256,bytes)": "infinite",
				"onERC721Received(address,address,uint256,bytes)": "infinite",
				"proposalDeadline(uint256)": "infinite",
				"proposalEta(uint256)": "infinite",
				"proposalNeedsQueuing(uint256)": "665",
				"proposalProposer(uint256)": "2970",
				"proposalSnapshot(uint256)": "infinite",
				"proposalThreshold()": "2599",
				"proposalVotes(uint256)": "infinite",
				"propose(address[],uint256[],bytes[],string)": "infinite",
				"queue(address[],uint256[],bytes[],bytes32)": "infinite",
				"quorum(uint256)": "infinite",
				"relay(address,uint256,bytes)": "infinite",
				"setProposalThreshold(uint256)": "infinite",
				"setVotingDelay(uint48)": "infinite",
				"setVotingPeriod(uint32)": "infinite",
				"state(uint256)": "infinite",
				"supportsInterface(bytes4)": "868",
				"token()": "infinite",
				"version()": "infinite",
				"votingDelay()": "2607",
				"votingPeriod()": "2593"
			}
		},
		"methodIdentifiers": {
			"BALLOT_TYPEHASH()": "deaaa7cc",
			"CLOCK_MODE()": "4bf5d7e9",
			"COUNTING_MODE()": "dd4e2ba5",
			"EXTENDED_BALLOT_TYPEHASH()": "2fe3e261",
			"cancel(address[],uint256[],bytes[],bytes32)": "452115d6",
			"castVote(uint256,uint8)": "56781388",
			"castVoteBySig(uint256,uint8,address,bytes)": "8ff262e3",
			"castVoteWithReason(uint256,uint8,string)": "7b3c71d3",
			"castVoteWithReasonAndParams(uint256,uint8,string,bytes)": "5f398a14",
			"castVoteWithReasonAndParamsBySig(uint256,uint8,address,string,bytes,bytes)": "5b8d0e0d",
			"clock()": "91ddadf4",
			"credToken()": "af983753",
			"eip712Domain()": "84b0196e",
			"execute(address[],uint256[],bytes[],bytes32)": "2656227d",
			"getProposalId(address[],uint256[],bytes[],bytes32)": "a8f8a668",
			"getVotes(address,uint256)": "eb9019d4",
			"getVotesWithParams(address,uint256,bytes)": "9a802a6d",
			"hasVoted(uint256,address)": "43859632",
			"hashProposal(address[],uint256[],bytes[],bytes32)": "c59057e4",
			"name()": "06fdde03",
			"nonces(address)": "7ecebe00",
			"onERC1155BatchReceived(address,address,uint256[],uint256[],bytes)": "bc197c81",
			"onERC1155Received(address,address,uint256,uint256,bytes)": "f23a6e61",
			"onERC721Received(address,address,uint256,bytes)": "150b7a02",
			"proposalDeadline(uint256)": "c01f9e37",
			"proposalEta(uint256)": "ab58fb8e",
			"proposalNeedsQueuing(uint256)": "a9a95294",
			"proposalProposer(uint256)": "143489d0",
			"proposalSnapshot(uint256)": "2d63f693",
			"proposalThreshold()": "b58131b0",
			"proposalVotes(uint256)": "544ffc9c",
			"propose(address[],uint256[],bytes[],string)": "7d5e81e2",
			"queue(address[],uint256[],bytes[],bytes32)": "160cbed7",
			"quorum(uint256)": "f8ce560a",
			"relay(address,uint256,bytes)": "c28bc2fa",
			"setProposalThreshold(uint256)": "ece40cc1",
			"setVotingDelay(uint48)": "79051887",
			"setVotingPeriod(uint32)": "e540d01d",
			"state(uint256)": "3e4f49e6",
			"supportsInterface(bytes4)": "01ffc9a7",
			"token()": "fc0c546a",
			"version()": "54fd4d50",
			"votingDelay()": "3932abb1",
			"votingPeriod()": "02a251a3"
		}
	},
	"abi": [
		{
			"inputs": [
				{
					"internalType": "contract CREDToken",
					"name": "_token",
					"type": "address"
				}
			],
			"stateMutability": "nonpayable",
			"type": "constructor"
		},
		{
			"inputs": [],
			"name": "FailedCall",
			"type": "error"
		},
		{
			"inputs": [
				{
					"internalType": "address",
					"name": "voter",
					"type": "address"
				}
			],
			"name": "GovernorAlreadyCastVote",
			"type": "error"
		},
		{
			"inputs": [
				{
					"internalType": "uint256",
					"name": "proposalId",
					"type": "uint256"
				}
			],
			"name": "GovernorAlreadyQueuedProposal",
			"type": "error"
		},
		{
			"inputs": [],
			"name": "GovernorDisabledDeposit",
			"type": "error"
		},
		{
			"inputs": [
				{
					"internalType": "address",
					"name": "proposer",
					"type": "address"
				},
				{
					"internalType": "uint256",
					"name": "votes",
					"type": "uint256"
				},
				{
					"internalType": "uint256",
					"name": "threshold",
					"type": "uint256"
				}
			],
			"name": "GovernorInsufficientProposerVotes",
			"type": "error"
		},
		{
			"inputs": [
				{
					"internalType": "uint256",
					"name": "targets",
					"type": "uint256"
				},
				{
					"internalType": "uint256",
					"name": "calldatas",
					"type": "uint256"
				},
				{
					"internalType": "uint256",
					"name": "values",
					"type": "uint256"
				}
			],
			"name": "GovernorInvalidProposalLength",
			"type": "error"
		},
		{
			"inputs": [
				{
					"internalType": "address",
					"name": "voter",
					"type": "address"
				}
			],
			"name": "GovernorInvalidSignature",
			"type": "error"
		},
		{
			"inputs": [],
			"name": "GovernorInvalidVoteParams",
			"type": "error"
		},
		{
			"inputs": [],
			"name": "GovernorInvalidVoteType",
			"type": "error"
		},
		{
			"inputs": [
				{
					"internalType": "uint256",
					"name": "votingPeriod",
					"type": "uint256"
				}
			],
			"name": "GovernorInvalidVotingPeriod",
			"type": "error"
		},
		{
			"inputs": [
				{
					"internalType": "uint256",
					"name": "proposalId",
					"type": "uint256"
				}
			],
			"name": "GovernorNonexistentProposal",
			"type": "error"
		},
		{
			"inputs": [
				{
					"internalType": "uint256",
					"name": "proposalId",
					"type": "uint256"
				}
			],
			"name": "GovernorNotQueuedProposal",
			"type": "error"
		},
		{
			"inputs": [
				{
					"internalType": "address",
					"name": "account",
					"type": "address"
				}
			],
			"name": "GovernorOnlyExecutor",
			"type": "error"
		},
		{
			"inputs": [],
			"name": "GovernorQueueNotImplemented",
			"type": "error"
		},
		{
			"inputs": [
				{
					"internalType": "address",
					"name": "proposer",
					"type": "address"
				}
			],
			"name": "GovernorRestrictedProposer",
			"type": "error"
		},
		{
			"inputs": [
				{
					"internalType": "uint256",
					"name": "proposalId",
					"type": "uint256"
				},
				{
					"internalType": "address",
					"name": "account",
					"type": "address"
				}
			],
			"name": "GovernorUnableToCancel",
			"type": "error"
		},
		{
			"inputs": [
				{
					"internalType": "uint256",
					"name": "proposalId",
					"type": "uint256"
				},
				{
					"internalType": "enum IGovernor.ProposalState",
					"name": "current",
					"type": "uint8"
				},
				{
					"internalType": "bytes32",
					"name": "expectedStates",
					"type": "bytes32"
				}
			],
			"name": "GovernorUnexpectedProposalState",
			"type": "error"
		},
		{
			"inputs": [
				{
					"internalType": "address",
					"name": "account",
					"type": "address"
				},
				{
					"internalType": "uint256",
					"name": "currentNonce",
					"type": "uint256"
				}
			],
			"name": "InvalidAccountNonce",
			"type": "error"
		},
		{
			"inputs": [],
			"name": "InvalidShortString",
			"type": "error"
		},
		{
			"inputs": [
				{
					"internalType": "uint8",
					"name": "bits",
					"type": "uint8"
				},
				{
					"internalType": "uint256",
					"name": "value",
					"type": "uint256"
				}
			],
			"name": "SafeCastOverflowedUintDowncast",
			"type": "error"
		},
		{
			"inputs": [
				{
					"internalType": "string",
					"name": "str",
					"type": "string"
				}
			],
			"name": "StringTooLong",
			"type": "error"
		},
		{
			"anonymous": false,
			"inputs": [],
			"name": "EIP712DomainChanged",
			"type": "event"
		},
		{
			"anonymous": false,
			"inputs": [
				{
					"indexed": false,
					"internalType": "uint256",
					"name": "proposalId",
					"type": "uint256"
				}
			],
			"name": "ProposalCanceled",
			"type": "event"
		},
		{
			"anonymous": false,
			"inputs": [
				{
					"indexed": false,
					"internalType": "uint256",
					"name": "proposalId",
					"type": "uint256"
				},
				{
					"indexed": false,
					"internalType": "address",
					"name": "proposer",
					"type": "address"
				},
				{
					"indexed": false,
					"internalType": "address[]",
					"name": "targets",
					"type": "address[]"
				},
				{
					"indexed": false,
					"internalType": "uint256[]",
					"name": "values",
					"type": "uint256[]"
				},
				{
					"indexed": false,
					"internalType": "string[]",
					"name": "signatures",
					"type": "string[]"
				},
				{
					"indexed": false,
					"internalType": "bytes[]",
					"name": "calldatas",
					"type": "bytes[]"
				},
				{
					"indexed": false,
					"internalType": "uint256",
					"name": "voteStart",
					"type": "uint256"
				},
				{
					"indexed": false,
					"internalType": "uint256",
					"name": "voteEnd",
					"type": "uint256"
				},
				{
					"indexed": false,
					"internalType": "string",
					"name": "description",
					"type": "string"
				}
			],
			"name": "ProposalCreated",
			"type": "event"
		},
		{
			"anonymous": false,
			"inputs": [
				{
					"indexed": false,
					"internalType": "uint256",
					"name": "proposalId",
					"type": "uint256"
				}
			],
			"name": "ProposalExecuted",
			"type": "event"
		},
		{
			"anonymous": false,
			"inputs": [
				{
					"indexed": false,
					"internalType": "uint256",
					"name": "proposalId",
					"type": "uint256"
				},
				{
					"indexed": false,
					"internalType": "uint256",
					"name": "etaSeconds",
					"type": "uint256"
				}
			],
			"name": "ProposalQueued",
			"type": "event"
		},
		{
			"anonymous": false,
			"inputs": [
				{
					"indexed": false,
					"internalType": "uint256",
					"name": "oldProposalThreshold",
					"type": "uint256"
				},
				{
					"indexed": false,
					"internalType": "uint256",
					"name": "newProposalThreshold",
					"type": "uint256"
				}
			],
			"name": "ProposalThresholdSet",
			"type": "event"
		},
		{
			"anonymous": false,
			"inputs": [
				{
					"indexed": true,
					"internalType": "address",
					"name": "voter",
					"type": "address"
				},
				{
					"indexed": false,
					"internalType": "uint256",
					"name": "proposalId",
					"type": "uint256"
				},
				{
					"indexed": false,
					"internalType": "uint8",
					"name": "support",
					"type": "uint8"
				},
				{
					"indexed": false,
					"internalType": "uint256",
					"name": "weight",
					"type": "uint256"
				},
				{
					"indexed": false,
					"internalType": "string",
					"name": "reason",
					"type": "string"
				}
			],
			"name": "VoteCast",
			"type": "event"
		},
		{
			"anonymous": false,
			"inputs": [
				{
					"indexed": true,
					"internalType": "address",
					"name": "voter",
					"type": "address"
				},
				{
					"indexed": false,
					"internalType": "uint256",
					"name": "proposalId",
					"type": "uint256"
				},
				{
					"indexed": false,
					"internalType": "uint8",
					"name": "support",
					"type": "uint8"
				},
				{
					"indexed": false,
					"internalType": "uint256",
					"name": "weight",
					"type": "uint256"
				},
				{
					"indexed": false,
					"internalType": "string",
					"name": "reason",
					"type": "string"
				},
				{
					"indexed": false,
					"internalType": "bytes",
					"name": "params",
					"type": "bytes"
				}
			],
			"name": "VoteCastWithParams",
			"type": "event"
		},
		{
			"anonymous": false,
			"inputs": [
				{
					"indexed": false,
					"internalType": "uint256",
					"name": "oldVotingDelay",
					"type": "uint256"
				},
				{
					"indexed": false,
					"internalType": "uint256",
					"name": "newVotingDelay",
					"type": "uint256"
				}
			],
			"name": "VotingDelaySet",
			"type": "event"
		},
		{
			"anonymous": false,
			"inputs": [
				{
					"indexed": false,
					"internalType": "uint256",
					"name": "oldVotingPeriod",
					"type": "uint256"
				},
				{
					"indexed": false,
					"internalType": "uint256",
					"name": "newVotingPeriod",
					"type": "uint256"
				}
			],
			"name": "VotingPeriodSet",
			"type": "event"
		},
		{
			"inputs": [],
			"name": "BALLOT_TYPEHASH",
			"outputs": [
				{
					"internalType": "bytes32",
					"name": "",
					"type": "bytes32"
				}
			],
			"stateMutability": "view",
			"type": "function"
		},
		{
			"inputs": [],
			"name": "CLOCK_MODE",
			"outputs": [
				{
					"internalType": "string",
					"name": "",
					"type": "string"
				}
			],
			"stateMutability": "view",
			"type": "function"
		},
		{
			"inputs": [],
			"name": "COUNTING_MODE",
			"outputs": [
				{
					"internalType": "string",
					"name": "",
					"type": "string"
				}
			],
			"stateMutability": "pure",
			"type": "function"
		},
		{
			"inputs": [],
			"name": "EXTENDED_BALLOT_TYPEHASH",
			"outputs": [
				{
					"internalType": "bytes32",
					"name": "",
					"type": "bytes32"
				}
			],
			"stateMutability": "view",
			"type": "function"
		},
		{
			"inputs": [
				{
					"internalType": "address[]",
					"name": "targets",
					"type": "address[]"
				},
				{
					"internalType": "uint256[]",
					"name": "values",
					"type": "uint256[]"
				},
				{
					"internalType": "bytes[]",
					"name": "calldatas",
					"type": "bytes[]"
				},
				{
					"internalType": "bytes32",
					"name": "descriptionHash",
					"type": "bytes32"
				}
			],
			"name": "cancel",
			"outputs": [
				{
					"internalType": "uint256",
					"name": "",
					"type": "uint256"
				}
			],
			"stateMutability": "nonpayable",
			"type": "function"
		},
		{
			"inputs": [
				{
					"internalType": "uint256",
					"name": "proposalId",
					"type": "uint256"
				},
				{
					"internalType": "uint8",
					"name": "support",
					"type": "uint8"
				}
			],
			"name": "castVote",
			"outputs": [
				{
					"internalType": "uint256",
					"name": "",
					"type": "uint256"
				}
			],
			"stateMutability": "nonpayable",
			"type": "function"
		},
		{
			"inputs": [
				{
					"internalType": "uint256",
					"name": "proposalId",
					"type": "uint256"
				},
				{
					"internalType": "uint8",
					"name": "support",
					"type": "uint8"
				},
				{
					"internalType": "address",
					"name": "voter",
					"type": "address"
				},
				{
					"internalType": "bytes",
					"name": "signature",
					"type": "bytes"
				}
			],
			"name": "castVoteBySig",
			"outputs": [
				{
					"internalType": "uint256",
					"name": "",
					"type": "uint256"
				}
			],
			"stateMutability": "nonpayable",
			"type": "function"
		},
		{
			"inputs": [
				{
					"internalType": "uint256",
					"name": "proposalId",
					"type": "uint256"
				},
				{
					"internalType": "uint8",
					"name": "support",
					"type": "uint8"
				},
				{
					"internalType": "string",
					"name": "reason",
					"type": "string"
				}
			],
			"name": "castVoteWithReason",
			"outputs": [
				{
					"internalType": "uint256",
					"name": "",
					"type": "uint256"
				}
			],
			"stateMutability": "nonpayable",
			"type": "function"
		},
		{
			"inputs": [
				{
					"internalType": "uint256",
					"name": "proposalId",
					"type": "uint256"
				},
				{
					"internalType": "uint8",
					"name": "support",
					"type": "uint8"
				},
				{
					"internalType": "string",
					"name": "reason",
					"type": "string"
				},
				{
					"internalType": "bytes",
					"name": "params",
					"type": "bytes"
				}
			],
			"name": "castVoteWithReasonAndParams",
			"outputs": [
				{
					"internalType": "uint256",
					"name": "",
					"type": "uint256"
				}
			],
			"stateMutability": "nonpayable",
			"type": "function"
		},
		{
			"inputs": [
				{
					"internalType": "uint256",
					"name": "proposalId",
					"type": "uint256"
				},
				{
					"internalType": "uint8",
					"name": "support",
					"type": "uint8"
				},
				{
					"internalType": "address",
					"name": "voter",
					"type": "address"
				},
				{
					"internalType": "string",
					"name": "reason",
					"type": "string"
				},
				{
					"internalType": "bytes",
					"name": "params",
					"type": "bytes"
				},
				{
					"internalType": "bytes",
					"name": "signature",
					"type": "bytes"
				}
			],
			"name": "castVoteWithReasonAndParamsBySig",
			"outputs": [
				{
					"internalType": "uint256",
					"name": "",
					"type": "uint256"
				}
			],
			"stateMutability": "nonpayable",
			"type": "function"
		},
		{
			"inputs": [],
			"name": "clock",
			"outputs": [
				{
					"internalType": "uint48",
					"name": "",
					"type": "uint48"
				}
			],
			"stateMutability": "view",
			"type": "function"
		},
		{
			"inputs": [],
			"name": "credToken",
			"outputs": [
				{
					"internalType": "contract CREDToken",
					"name": "",
					"type": "address"
				}
			],
			"stateMutability": "view",
			"type": "function"
		},
		{
			"inputs": [],
			"name": "eip712Domain",
			"outputs": [
				{
					"internalType": "bytes1",
					"name": "fields",
					"type": "bytes1"
				},
				{
					"internalType": "string",
					"name": "name",
					"type": "string"
				},
				{
					"internalType": "string",
					"name": "version",
					"type": "string"
				},
				{
					"internalType": "uint256",
					"name": "chainId",
					"type": "uint256"
				},
				{
					"internalType": "address",
					"name": "verifyingContract",
					"type": "address"
				},
				{
					"internalType": "bytes32",
					"name": "salt",
					"type": "bytes32"
				},
				{
					"internalType": "uint256[]",
					"name": "extensions",
					"type": "uint256[]"
				}
			],
			"stateMutability": "view",
			"type": "function"
		},
		{
			"inputs": [
				{
					"internalType": "address[]",
					"name": "targets",
					"type": "address[]"
				},
				{
					"internalType": "uint256[]",
					"name": "values",
					"type": "uint256[]"
				},
				{
					"internalType": "bytes[]",
					"name": "calldatas",
					"type": "bytes[]"
				},
				{
					"internalType": "bytes32",
					"name": "descriptionHash",
					"type": "bytes32"
				}
			],
			"name": "execute",
			"outputs": [
				{
					"internalType": "uint256",
					"name": "",
					"type": "uint256"
				}
			],
			"stateMutability": "payable",
			"type": "function"
		},
		{
			"inputs": [
				{
					"internalType": "address[]",
					"name": "targets",
					"type": "address[]"
				},
				{
					"internalType": "uint256[]",
					"name": "values",
					"type": "uint256[]"
				},
				{
					"internalType": "bytes[]",
					"name": "calldatas",
					"type": "bytes[]"
				},
				{
					"internalType": "bytes32",
					"name": "descriptionHash",
					"type": "bytes32"
				}
			],
			"name": "getProposalId",
			"outputs": [
				{
					"internalType": "uint256",
					"name": "",
					"type": "uint256"
				}
			],
			"stateMutability": "view",
			"type": "function"
		},
		{
			"inputs": [
				{
					"internalType": "address",
					"name": "account",
					"type": "address"
				},
				{
					"internalType": "uint256",
					"name": "timepoint",
					"type": "uint256"
				}
			],
			"name": "getVotes",
			"outputs": [
				{
					"internalType": "uint256",
					"name": "",
					"type": "uint256"
				}
			],
			"stateMutability": "view",
			"type": "function"
		},
		{
			"inputs": [
				{
					"internalType": "address",
					"name": "account",
					"type": "address"
				},
				{
					"internalType": "uint256",
					"name": "timepoint",
					"type": "uint256"
				},
				{
					"internalType": "bytes",
					"name": "params",
					"type": "bytes"
				}
			],
			"name": "getVotesWithParams",
			"outputs": [
				{
					"internalType": "uint256",
					"name": "",
					"type": "uint256"
				}
			],
			"stateMutability": "view",
			"type": "function"
		},
		{
			"inputs": [
				{
					"internalType": "uint256",
					"name": "proposalId",
					"type": "uint256"
				},
				{
					"internalType": "address",
					"name": "account",
					"type": "address"
				}
			],
			"name": "hasVoted",
			"outputs": [
				{
					"internalType": "bool",
					"name": "",
					"type": "bool"
				}
			],
			"stateMutability": "view",
			"type": "function"
		},
		{
			"inputs": [
				{
					"internalType": "address[]",
					"name": "targets",
					"type": "address[]"
				},
				{
					"internalType": "uint256[]",
					"name": "values",
					"type": "uint256[]"
				},
				{
					"internalType": "bytes[]",
					"name": "calldatas",
					"type": "bytes[]"
				},
				{
					"internalType": "bytes32",
					"name": "descriptionHash",
					"type": "bytes32"
				}
			],
			"name": "hashProposal",
			"outputs": [
				{
					"internalType": "uint256",
					"name": "",
					"type": "uint256"
				}
			],
			"stateMutability": "pure",
			"type": "function"
		},
		{
			"inputs": [],
			"name": "name",
			"outputs": [
				{
					"internalType": "string",
					"name": "",
					"type": "string"
				}
			],
			"stateMutability": "view",
			"type": "function"
		},
		{
			"inputs": [
				{
					"internalType": "address",
					"name": "owner",
					"type": "address"
				}
			],
			"name": "nonces",
			"outputs": [
				{
					"internalType": "uint256",
					"name": "",
					"type": "uint256"
				}
			],
			"stateMutability": "view",
			"type": "function"
		},
		{
			"inputs": [
				{
					"internalType": "address",
					"name": "",
					"type": "address"
				},
				{
					"internalType": "address",
					"name": "",
					"type": "address"
				},
				{
					"internalType": "uint256[]",
					"name": "",
					"type": "uint256[]"
				},
				{
					"internalType": "uint256[]",
					"name": "",
					"type": "uint256[]"
				},
				{
					"internalType": "bytes",
					"name": "",
					"type": "bytes"
				}
			],
			"name": "onERC1155BatchReceived",
			"outputs": [
				{
					"internalType": "bytes4",
					"name": "",
					"type": "bytes4"
				}
			],
			"stateMutability": "nonpayable",
			"type": "function"
		},
		{
			"inputs": [
				{
					"internalType": "address",
					"name": "",
					"type": "address"
				},
				{
					"internalType": "address",
					"name": "",
					"type": "address"
				},
				{
					"internalType": "uint256",
					"name": "",
					"type": "uint256"
				},
				{
					"internalType": "uint256",
					"name": "",
					"type": "uint256"
				},
				{
					"internalType": "bytes",
					"name": "",
					"type": "bytes"
				}
			],
			"name": "onERC1155Received",
			"outputs": [
				{
					"internalType": "bytes4",
					"name": "",
					"type": "bytes4"
				}
			],
			"stateMutability": "nonpayable",
			"type": "function"
		},
		{
			"inputs": [
				{
					"internalType": "address",
					"name": "",
					"type": "address"
				},
				{
					"internalType": "address",
					"name": "",
					"type": "address"
				},
				{
					"internalType": "uint256",
					"name": "",
					"type": "uint256"
				},
				{
					"internalType": "bytes",
					"name": "",
					"type": "bytes"
				}
			],
			"name": "onERC721Received",
			"outputs": [
				{
					"internalType": "bytes4",
					"name": "",
					"type": "bytes4"
				}
			],
			"stateMutability": "nonpayable",
			"type": "function"
		},
		{
			"inputs": [
				{
					"internalType": "uint256",
					"name": "proposalId",
					"type": "uint256"
				}
			],
			"name": "proposalDeadline",
			"outputs": [
				{
					"internalType": "uint256",
					"name": "",
					"type": "uint256"
				}
			],
			"stateMutability": "view",
			"type": "function"
		},
		{
			"inputs": [
				{
					"internalType": "uint256",
					"name": "proposalId",
					"type": "uint256"
				}
			],
			"name": "proposalEta",
			"outputs": [
				{
					"internalType": "uint256",
					"name": "",
					"type": "uint256"
				}
			],
			"stateMutability": "view",
			"type": "function"
		},
		{
			"inputs": [
				{
					"internalType": "uint256",
					"name": "",
					"type": "uint256"
				}
			],
			"name": "proposalNeedsQueuing",
			"outputs": [
				{
					"internalType": "bool",
					"name": "",
					"type": "bool"
				}
			],
			"stateMutability": "view",
			"type": "function"
		},
		{
			"inputs": [
				{
					"internalType": "uint256",
					"name": "proposalId",
					"type": "uint256"
				}
			],
			"name": "proposalProposer",
			"outputs": [
				{
					"internalType": "address",
					"name": "",
					"type": "address"
				}
			],
			"stateMutability": "view",
			"type": "function"
		},
		{
			"inputs": [
				{
					"internalType": "uint256",
					"name": "proposalId",
					"type": "uint256"
				}
			],
			"name": "proposalSnapshot",
			"outputs": [
				{
					"internalType": "uint256",
					"name": "",
					"type": "uint256"
				}
			],
			"stateMutability": "view",
			"type": "function"
		},
		{
			"inputs": [],
			"name": "proposalThreshold",
			"outputs": [
				{
					"internalType": "uint256",
					"name": "",
					"type": "uint256"
				}
			],
			"stateMutability": "view",
			"type": "function"
		},
		{
			"inputs": [
				{
					"internalType": "uint256",
					"name": "proposalId",
					"type": "uint256"
				}
			],
			"name": "proposalVotes",
			"outputs": [
				{
					"internalType": "uint256",
					"name": "againstVotes",
					"type": "uint256"
				},
				{
					"internalType": "uint256",
					"name": "forVotes",
					"type": "uint256"
				},
				{
					"internalType": "uint256",
					"name": "abstainVotes",
					"type": "uint256"
				}
			],
			"stateMutability": "view",
			"type": "function"
		},
		{
			"inputs": [
				{
					"internalType": "address[]",
					"name": "targets",
					"type": "address[]"
				},
				{
					"internalType": "uint256[]",
					"name": "values",
					"type": "uint256[]"
				},
				{
					"internalType": "bytes[]",
					"name": "calldatas",
					"type": "bytes[]"
				},
				{
					"internalType": "string",
					"name": "description",
					"type": "string"
				}
			],
			"name": "propose",
			"outputs": [
				{
					"internalType": "uint256",
					"name": "",
					"type": "uint256"
				}
			],
			"stateMutability": "nonpayable",
			"type": "function"
		},
		{
			"inputs": [
				{
					"internalType": "address[]",
					"name": "targets",
					"type": "address[]"
				},
				{
					"internalType": "uint256[]",
					"name": "values",
					"type": "uint256[]"
				},
				{
					"internalType": "bytes[]",
					"name": "calldatas",
					"type": "bytes[]"
				},
				{
					"internalType": "bytes32",
					"name": "descriptionHash",
					"type": "bytes32"
				}
			],
			"name": "queue",
			"outputs": [
				{
					"internalType": "uint256",
					"name": "",
					"type": "uint256"
				}
			],
			"stateMutability": "nonpayable",
			"type": "function"
		},
		{
			"inputs": [
				{
					"internalType": "uint256",
					"name": "",
					"type": "uint256"
				}
			],
			"name": "quorum",
			"outputs": [
				{
					"internalType": "uint256",
					"name": "",
					"type": "uint256"
				}
			],
			"stateMutability": "view",
			"type": "function"
		},
		{
			"inputs": [
				{
					"internalType": "address",
					"name": "target",
					"type": "address"
				},
				{
					"internalType": "uint256",
					"name": "value",
					"type": "uint256"
				},
				{
					"internalType": "bytes",
					"name": "data",
					"type": "bytes"
				}
			],
			"name": "relay",
			"outputs": [],
			"stateMutability": "payable",
			"type": "function"
		},
		{
			"inputs": [
				{
					"internalType": "uint256",
					"name": "newProposalThreshold",
					"type": "uint256"
				}
			],
			"name": "setProposalThreshold",
			"outputs": [],
			"stateMutability": "nonpayable",
			"type": "function"
		},
		{
			"inputs": [
				{
					"internalType": "uint48",
					"name": "newVotingDelay",
					"type": "uint48"
				}
			],
			"name": "setVotingDelay",
			"outputs": [],
			"stateMutability": "nonpayable",
			"type": "function"
		},
		{
			"inputs": [
				{
					"internalType": "uint32",
					"name": "newVotingPeriod",
					"type": "uint32"
				}
			],
			"name": "setVotingPeriod",
			"outputs": [],
			"stateMutability": "nonpayable",
			"type": "function"
		},
		{
			"inputs": [
				{
					"internalType": "uint256",
					"name": "proposalId",
					"type": "uint256"
				}
			],
			"name": "state",
			"outputs": [
				{
					"internalType": "enum IGovernor.ProposalState",
					"name": "",
					"type": "uint8"
				}
			],
			"stateMutability": "view",
			"type": "function"
		},
		{
			"inputs": [
				{
					"internalType": "bytes4",
					"name": "interfaceId",
					"type": "bytes4"
				}
			],
			"name": "supportsInterface",
			"outputs": [
				{
					"internalType": "bool",
					"name": "",
					"type": "bool"
				}
			],
			"stateMutability": "view",
			"type": "function"
		},
		{
			"inputs": [],
			"name": "token",
			"outputs": [
				{
					"internalType": "contract IERC5805",
					"name": "",
					"type": "address"
				}
			],
			"stateMutability": "view",
			"type": "function"
		},
		{
			"inputs": [],
			"name": "version",
			"outputs": [
				{
					"internalType": "string",
					"name": "",
					"type": "string"
				}
			],
			"stateMutability": "view",
			"type": "function"
		},
		{
			"inputs": [],
			"name": "votingDelay",
			"outputs": [
				{
					"internalType": "uint256",
					"name": "",
					"type": "uint256"
				}
			],
			"stateMutability": "view",
			"type": "function"
		},
		{
			"inputs": [],
			"name": "votingPeriod",
			"outputs": [
				{
					"internalType": "uint256",
					"name": "",
					"type": "uint256"
				}
			],
			"stateMutability": "view",
			"type": "function"
		},
		{
			"stateMutability": "payable",
			"type": "receive"
		}
	]
}