{
	"data": {
		"bytecode": {
			"linkReferences": {},
			"object": "60c06040526040518060400160405280601581526020017f68747470733a2f2f697066732e696f2f697066732f0000000000000000000000815250600b908161004891906105ad565b50348015610054575f5ffd5b5060405161531f38038061531f83398181016040528101906100769190610715565b6040518060400160405280600d81526020017f437265645370686572654e4654000000000000000000000000000000000000008152506040518060400160405280600581526020017f43534e4654000000000000000000000000000000000000000000000000000000815250815f90816100f091906105ad565b50806001908161010091906105ad565b5050505f60085f6101000a81548160ff02191690831515021790555060016009819055508173ffffffffffffffffffffffffffffffffffffffff1660808173ffffffffffffffffffffffffffffffffffffffff16815250508073ffffffffffffffffffffffffffffffffffffffff1660a08173ffffffffffffffffffffffffffffffffffffffff168152505061019e5f5f1b3361020f60201b60201c565b506101cf7f9f2df0fed2c77648de5860a4cc508cd0818c85b8b8a1ab4ceeef8d981c8956a63361020f60201b60201c565b506102007f0ce23c3e399818cfee81a7ab0880f714e53d7672b08df0fa62f2843416e1ea093361020f60201b60201c565b505f600a819055505050610753565b5f610220838361030560201b60201c565b6102fb57600160075f8581526020019081526020015f205f015f8473ffffffffffffffffffffffffffffffffffffffff1673ffffffffffffffffffffffffffffffffffffffff1681526020019081526020015f205f6101000a81548160ff02191690831515021790555061029861036960201b60201c565b73ffffffffffffffffffffffffffffffffffffffff168273ffffffffffffffffffffffffffffffffffffffff16847f2f8788117e7eff1d82e926ec794901d17c78024a50270940304540a733656f0d60405160405180910390a4600190506102ff565b5f90505b92915050565b5f60075f8481526020019081526020015f205f015f8373ffffffffffffffffffffffffffffffffffffffff1673ffffffffffffffffffffffffffffffffffffffff1681526020019081526020015f205f9054906101000a900460ff16905092915050565b5f33905090565b5f81519050919050565b7f4e487b71000000000000000000000000000000000000000000000000000000005f52604160045260245ffd5b7f4e487b71000000000000000000000000000000000000000000000000000000005f52602260045260245ffd5b5f60028204905060018216806103eb57607f821691505b6020821081036103fe576103fd6103a7565b5b50919050565b5f819050815f5260205f209050919050565b5f6020601f8301049050919050565b5f82821b905092915050565b5f600883026104607fffffffffffffffffffffffffffffffffffffffffffffffffffffffffffffffff82610425565b61046a8683610425565b95508019841693508086168417925050509392505050565b5f819050919050565b5f819050919050565b5f6104ae6104a96104a484610482565b61048b565b610482565b9050919050565b5f819050919050565b6104c783610494565b6104db6104d3826104b5565b848454610431565b825550505050565b5f5f905090565b6104f26104e3565b6104fd8184846104be565b505050565b5b81811015610520576105155f826104ea565b600181019050610503565b5050565b601f8211156105655761053681610404565b61053f84610416565b8101602085101561054e578190505b61056261055a85610416565b830182610502565b50505b505050565b5f82821c905092915050565b5f6105855f198460080261056a565b1980831691505092915050565b5f61059d8383610576565b9150826002028217905092915050565b6105b682610370565b67ffffffffffffffff8111156105cf576105ce61037a565b5b6105d982546103d4565b6105e4828285610524565b5f60209050601f831160018114610615575f8415610603578287015190505b61060d8582610592565b865550610674565b601f19841661062386610404565b5f5b8281101561064a57848901518255600182019150602085019450602081019050610625565b868310156106675784890151610663601f891682610576565b8355505b6001600288020188555050505b505050505050565b5f5ffd5b5f73ffffffffffffffffffffffffffffffffffffffff82169050919050565b5f6106a982610680565b9050919050565b6106b98161069f565b81146106c3575f5ffd5b50565b5f815190506106d4816106b0565b92915050565b5f6106e482610680565b9050919050565b6106f4816106da565b81146106fe575f5ffd5b50565b5f8151905061070f816106eb565b92915050565b5f5f6040838503121561072b5761072a61067c565b5b5f610738858286016106c6565b925050602061074985828601610701565b9150509250929050565b60805160a051614b886107975f395f81816110f501528181611a8b015261203401525f8181610a32015281816110b901528181611e5f0152611ff80152614b885ff3fe608060405234801561000f575f5ffd5b506004361061023b575f3560e01c806370a0823111610139578063b9565fbd116100b6578063d91f2a0b1161007a578063d91f2a0b146106d3578063e7705db6146106ef578063e985e9c51461070d578063f2a91b1c1461073d578063fe575a87146107595761023b565b8063b9565fbd14610609578063c76d291914610639578063c87b56dd14610669578063d539139314610699578063d547741f146106b75761023b565b806395d89b41116100fd57806395d89b4114610577578063a217fddf14610595578063a22cb465146105b3578063af983753146105cf578063b88d4fde146105ed5761023b565b806370a08231146104c15780638456cb59146104f15780638dd18d2d146104fb57806391d148541461052b578063957a32051461055b5761023b565b80633f4ba83a116101c757806355f804b31161018b57806355f804b3146103f75780635c975abb146104135780636352211e1461043157806368ec6e6b146104615780636da48b9a146104915761023b565b80633f4ba83a1461037b5780634162169f1461038557806342842e0e146103a35780634a4c560d146103bf5780634d0970c6146103db5761023b565b806318160ddd1161020e57806318160ddd146102d957806323b872dd146102f7578063248a9ca3146103135780632f2ff15d1461034357806336568abe1461035f5761023b565b806301ffc9a71461023f57806306fdde031461026f578063081812fc1461028d578063095ea7b3146102bd575b5f5ffd5b6102596004803603810190610254919061369c565b610789565b60405161026691906136e1565b60405180910390f35b61027761079a565b604051610284919061376a565b60405180910390f35b6102a760048036038101906102a291906137bd565b610829565b6040516102b49190613827565b60405180910390f35b6102d760048036038101906102d2919061386a565b610844565b005b6102e161085a565b6040516102ee91906138b7565b60405180910390f35b610311600480360381019061030c91906138d0565b610860565b005b61032d60048036038101906103289190613953565b61095f565b60405161033a919061398d565b60405180910390f35b61035d600480360381019061035891906139a6565b61097c565b005b610379600480360381019061037491906139a6565b61099e565b005b610383610a19565b005b61038d610a30565b60405161039a9190613a3f565b60405180910390f35b6103bd60048036038101906103b891906138d0565b610a54565b005b6103d960048036038101906103d49190613a58565b610a73565b005b6103f560048036038101906103f09190613baf565b610b1a565b005b610411600480360381019061040c9190613c09565b610bce565b005b61041b610c28565b60405161042891906136e1565b60405180910390f35b61044b600480360381019061044691906137bd565b610c3d565b6040516104589190613827565b60405180910390f35b61047b60048036038101906104769190613c50565b610c4e565b60405161048891906138b7565b60405180910390f35b6104ab60048036038101906104a691906137bd565b6111df565b6040516104b891906136e1565b60405180910390f35b6104db60048036038101906104d69190613a58565b611285565b6040516104e891906138b7565b60405180910390f35b6104f961133b565b005b610515600480360381019061051091906137bd565b611352565b6040516105229190613e8a565b60405180910390f35b610545600480360381019061054091906139a6565b61173e565b60405161055291906136e1565b60405180910390f35b61057560048036038101906105709190613eaa565b6117a2565b005b61057f6119dd565b60405161058c919061376a565b60405180910390f35b61059d611a6d565b6040516105aa919061398d565b60405180910390f35b6105cd60048036038101906105c89190613f2e565b611a73565b005b6105d7611a89565b6040516105e49190613f9d565b60405180910390f35b61060760048036038101906106029190614054565b611aad565b005b610623600480360381019061061e9190613c09565b611ad2565b60405161063091906138b7565b60405180910390f35b610653600480360381019061064e9190613a58565b611af9565b604051610660919061417c565b60405180910390f35b610683600480360381019061067e91906137bd565b611b8c565b604051610690919061376a565b60405180910390f35b6106a1611c61565b6040516106ae919061398d565b60405180910390f35b6106d160048036038101906106cc91906139a6565b611c85565b005b6106ed60048036038101906106e8919061419c565b611ca7565b005b6106f7611d3e565b604051610704919061398d565b60405180910390f35b610727600480360381019061072291906141da565b611d62565b60405161073491906136e1565b60405180910390f35b610757600480360381019061075291906137bd565b611df0565b005b610773600480360381019061076e9190613a58565b6120bc565b60405161078091906136e1565b60405180910390f35b5f610793826120d9565b9050919050565b60605f80546107a890614245565b80601f01602080910402602001604051908101604052809291908181526020018280546107d490614245565b801561081f5780601f106107f65761010080835404028352916020019161081f565b820191905f5260205f20905b81548152906001019060200180831161080257829003601f168201915b5050505050905090565b5f61083382612152565b5061083d826121d8565b9050919050565b6108568282610851612211565b612218565b5050565b600a5481565b5f73ffffffffffffffffffffffffffffffffffffffff168273ffffffffffffffffffffffffffffffffffffffff16036108d0575f6040517f64a0ae920000000000000000000000000000000000000000000000000000000081526004016108c79190613827565b60405180910390fd5b5f6108e383836108de612211565b61222a565b90508373ffffffffffffffffffffffffffffffffffffffff168173ffffffffffffffffffffffffffffffffffffffff1614610959578382826040517f64283d7b00000000000000000000000000000000000000000000000000000000815260040161095093929190614275565b60405180910390fd5b50505050565b5f60075f8381526020019081526020015f20600101549050919050565b6109858261095f565b61098e81612325565b6109988383612339565b50505050565b6109a6612211565b73ffffffffffffffffffffffffffffffffffffffff168173ffffffffffffffffffffffffffffffffffffffff1614610a0a576040517f6697b23200000000000000000000000000000000000000000000000000000000815260040160405180910390fd5b610a148282612423565b505050565b5f5f1b610a2581612325565b610a2d61250d565b50565b7f000000000000000000000000000000000000000000000000000000000000000081565b610a6e83838360405180602001604052805f815250611aad565b505050565b5f5f1b610a7f81612325565b5f600f5f8473ffffffffffffffffffffffffffffffffffffffff1673ffffffffffffffffffffffffffffffffffffffff1681526020019081526020015f205f6101000a81548160ff0219169083151502179055508173ffffffffffffffffffffffffffffffffffffffff167f7409cb8e690bcd1487fd4fd27dad3fa92388d201ba6f953631d6d6b26299f84960405160405180910390a25050565b5f5f1b610b2681612325565b6001600f5f8573ffffffffffffffffffffffffffffffffffffffff1673ffffffffffffffffffffffffffffffffffffffff1681526020019081526020015f205f6101000a81548160ff0219169083151502179055508273ffffffffffffffffffffffffffffffffffffffff167fcc1cf21b75158e751a071cc4770b92cde8bb2bc34f9187eedd0592b874a5566983604051610bc1919061376a565b60405180910390a2505050565b5f5f1b610bda81612325565b5f825103610c14576040517fbcecb64a00000000000000000000000000000000000000000000000000000000815260040160405180910390fd5b81600b9081610c239190614441565b505050565b5f60085f9054906101000a900460ff16905090565b5f610c4782612152565b9050919050565b5f610c5761256e565b610c5f6125bd565b600f5f8773ffffffffffffffffffffffffffffffffffffffff1673ffffffffffffffffffffffffffffffffffffffff1681526020019081526020015f205f9054906101000a900460ff1680610cfa5750600f5f3373ffffffffffffffffffffffffffffffffffffffff1673ffffffffffffffffffffffffffffffffffffffff1681526020019081526020015f205f9054906101000a900460ff165b15610d31576040517fd9a60d2d00000000000000000000000000000000000000000000000000000000815260040160405180910390fd5b610d5b7f9f2df0fed2c77648de5860a4cc508cd0818c85b8b8a1ab4ceeef8d981c8956a63361173e565b610d91576040517fea8e4eb500000000000000000000000000000000000000000000000000000000815260040160405180910390fd5b5f85511480610da057505f8351145b80610dab57505f8251145b15610de2576040517fbcecb64a00000000000000000000000000000000000000000000000000000000815260040160405180910390fd5b600a5f815480929190610df49061453d565b91905055505f600a5490505f610e0985612607565b90506040518061012001604052808881526020018781526020018681526020018581526020014281526020015f151581526020013373ffffffffffffffffffffffffffffffffffffffff1681526020015f815260200182815250600c5f8481526020019081526020015f205f820151815f019081610e879190614441565b506020820151816001019081610e9d9190614441565b506040820151816002019081610eb39190614441565b506060820151816003019081610ec99190614441565b506080820151816004015560a0820151816005015f6101000a81548160ff02191690831515021790555060c08201518160050160016101000a81548173ffffffffffffffffffffffffffffffffffffffff021916908373ffffffffffffffffffffffffffffffffffffffff16021790555060e08201518160060155610100820151816007019081610f5a9190614441565b50905050610f688883612782565b61100c82600c5f8581526020019081526020015f206003018054610f8b90614245565b80601f0160208091040260200160405190810160405280929190818152602001828054610fb790614245565b80156110025780601f10610fd957610100808354040283529160200191611002565b820191905f5260205f20905b815481529060010190602001808311610fe557829003601f168201915b505050505061279f565b600d5f8973ffffffffffffffffffffffffffffffffffffffff1673ffffffffffffffffffffffffffffffffffffffff1681526020019081526020015f2082908060018154018082558091505060019003905f5260205f20015f9091909190915055600e8160405161107d91906145be565b90815260200160405180910390205f81548092919061109b9061453d565b91905055505f73ffffffffffffffffffffffffffffffffffffffff167f000000000000000000000000000000000000000000000000000000000000000073ffffffffffffffffffffffffffffffffffffffff161461117a577f000000000000000000000000000000000000000000000000000000000000000073ffffffffffffffffffffffffffffffffffffffff1663c0008d0c896040518263ffffffff1660e01b815260040161114c919061461e565b5f604051808303815f87803b158015611163575f5ffd5b505af1158015611175573d5f5f3e3d5ffd5b505050505b818873ffffffffffffffffffffffffffffffffffffffff167f8b43b34e0b09ef3f3f917ee7cf1138306169e1843d55c98615d752f75a1841c8896040516111c1919061376a565b60405180910390a381925050506111d66127f9565b95945050505050565b5f5f73ffffffffffffffffffffffffffffffffffffffff1661120083612803565b73ffffffffffffffffffffffffffffffffffffffff16141580156112415750600c5f8381526020019081526020015f206005015f9054906101000a900460ff165b801561127e57505f600c5f8481526020019081526020015f2060060154148061127d575042600c5f8481526020019081526020015f2060060154115b5b9050919050565b5f5f73ffffffffffffffffffffffffffffffffffffffff168273ffffffffffffffffffffffffffffffffffffffff16036112f6575f6040517f89c62b640000000000000000000000000000000000000000000000000000000081526004016112ed9190613827565b60405180910390fd5b60035f8373ffffffffffffffffffffffffffffffffffffffff1673ffffffffffffffffffffffffffffffffffffffff1681526020019081526020015f20549050919050565b5f5f1b61134781612325565b61134f61283c565b50565b61135a6135d6565b5f73ffffffffffffffffffffffffffffffffffffffff1661137a83612803565b73ffffffffffffffffffffffffffffffffffffffff16036113c7576040517f013efff000000000000000000000000000000000000000000000000000000000815260040160405180910390fd5b600c5f8381526020019081526020015f20604051806101200160405290815f820180546113f390614245565b80601f016020809104026020016040519081016040528092919081815260200182805461141f90614245565b801561146a5780601f106114415761010080835404028352916020019161146a565b820191905f5260205f20905b81548152906001019060200180831161144d57829003601f168201915b5050505050815260200160018201805461148390614245565b80601f01602080910402602001604051908101604052809291908181526020018280546114af90614245565b80156114fa5780601f106114d1576101008083540402835291602001916114fa565b820191905f5260205f20905b8154815290600101906020018083116114dd57829003601f168201915b5050505050815260200160028201805461151390614245565b80601f016020809104026020016040519081016040528092919081815260200182805461153f90614245565b801561158a5780601f106115615761010080835404028352916020019161158a565b820191905f5260205f20905b81548152906001019060200180831161156d57829003601f168201915b505050505081526020016003820180546115a390614245565b80601f01602080910402602001604051908101604052809291908181526020018280546115cf90614245565b801561161a5780601f106115f15761010080835404028352916020019161161a565b820191905f5260205f20905b8154815290600101906020018083116115fd57829003601f168201915b5050505050815260200160048201548152602001600582015f9054906101000a900460ff161515151581526020016005820160019054906101000a900473ffffffffffffffffffffffffffffffffffffffff1673ffffffffffffffffffffffffffffffffffffffff1673ffffffffffffffffffffffffffffffffffffffff168152602001600682015481526020016007820180546116b790614245565b80601f01602080910402602001604051908101604052809291908181526020018280546116e390614245565b801561172e5780601f106117055761010080835404028352916020019161172e565b820191905f5260205f20905b81548152906001019060200180831161171157829003601f168201915b5050505050815250509050919050565b5f60075f8481526020019081526020015f205f015f8373ffffffffffffffffffffffffffffffffffffffff1673ffffffffffffffffffffffffffffffffffffffff1681526020019081526020015f205f9054906101000a900460ff16905092915050565b5f73ffffffffffffffffffffffffffffffffffffffff166117c283612803565b73ffffffffffffffffffffffffffffffffffffffff160361180f576040517f013efff000000000000000000000000000000000000000000000000000000000815260040160405180910390fd5b5f61181983610c3d565b90508073ffffffffffffffffffffffffffffffffffffffff163373ffffffffffffffffffffffffffffffffffffffff16141580156118b75750600c5f8481526020019081526020015f2060050160019054906101000a900473ffffffffffffffffffffffffffffffffffffffff1673ffffffffffffffffffffffffffffffffffffffff163373ffffffffffffffffffffffffffffffffffffffff1614155b80156118cc57506118ca5f5f1b3361173e565b155b15611903576040517fea8e4eb500000000000000000000000000000000000000000000000000000000815260040160405180910390fd5b5f600c5f8581526020019081526020015f206005015f6101000a81548160ff02191690831515021790555042600c5f8581526020019081526020015f2060060181905550611951818461289e565b600e600c5f8581526020019081526020015f2060070160405161197491906146ca565b90815260200160405180910390205f815480929190611992906146e0565b91905055506119a083612998565b827f37ec22acf5d9778ea37b449f7834d99acb0c9632e381d2ceba59480d79ca91a7836040516119d0919061376a565b60405180910390a2505050565b6060600180546119ec90614245565b80601f0160208091040260200160405190810160405280929190818152602001828054611a1890614245565b8015611a635780601f10611a3a57610100808354040283529160200191611a63565b820191905f5260205f20905b815481529060010190602001808311611a4657829003601f168201915b5050505050905090565b5f5f1b81565b611a85611a7e612211565b8383612a1a565b5050565b7f000000000000000000000000000000000000000000000000000000000000000081565b611ab8848484610860565b611acc611ac3612211565b85858585612b83565b50505050565b5f600e82604051611ae391906145be565b9081526020016040518091039020549050919050565b6060600d5f8373ffffffffffffffffffffffffffffffffffffffff1673ffffffffffffffffffffffffffffffffffffffff1681526020019081526020015f20805480602002602001604051908101604052809291908181526020018280548015611b8057602002820191905f5260205f20905b815481526020019060010190808311611b6c575b50505050509050919050565b60605f73ffffffffffffffffffffffffffffffffffffffff16611bae83612803565b73ffffffffffffffffffffffffffffffffffffffff1603611bfb576040517f013efff000000000000000000000000000000000000000000000000000000000815260040160405180910390fd5b600b600c5f8481526020019081526020015f20600301600c5f8581526020019081526020015f205f01600c5f8681526020019081526020015f20600701604051602001611c4b949392919061479b565b6040516020818303038152906040529050919050565b7f9f2df0fed2c77648de5860a4cc508cd0818c85b8b8a1ab4ceeef8d981c8956a681565b611c8e8261095f565b611c9781612325565b611ca18383612423565b50505050565b5f5f1b611cb381612325565b5f73ffffffffffffffffffffffffffffffffffffffff16611cd384612803565b73ffffffffffffffffffffffffffffffffffffffff1603611d20576040517f013efff000000000000000000000000000000000000000000000000000000000815260040160405180910390fd5b81600c5f8581526020019081526020015f2060060181905550505050565b7f0ce23c3e399818cfee81a7ab0880f714e53d7672b08df0fa62f2843416e1ea0981565b5f60055f8473ffffffffffffffffffffffffffffffffffffffff1673ffffffffffffffffffffffffffffffffffffffff1681526020019081526020015f205f8373ffffffffffffffffffffffffffffffffffffffff1673ffffffffffffffffffffffffffffffffffffffff1681526020019081526020015f205f9054906101000a900460ff16905092915050565b5f73ffffffffffffffffffffffffffffffffffffffff16611e1082612803565b73ffffffffffffffffffffffffffffffffffffffff1603611e5d576040517f013efff000000000000000000000000000000000000000000000000000000000815260040160405180910390fd5b7f000000000000000000000000000000000000000000000000000000000000000073ffffffffffffffffffffffffffffffffffffffff163373ffffffffffffffffffffffffffffffffffffffff1614158015611ee05750611ede7f0ce23c3e399818cfee81a7ab0880f714e53d7672b08df0fa62f2843416e1ea093361173e565b155b15611f17576040517fea8e4eb500000000000000000000000000000000000000000000000000000000815260040160405180910390fd5b600c5f8281526020019081526020015f206005015f9054906101000a900460ff1615611f6f576040517f118fd7b800000000000000000000000000000000000000000000000000000000815260040160405180910390fd5b6001600c5f8381526020019081526020015f206005015f6101000a81548160ff0219169083151502179055503373ffffffffffffffffffffffffffffffffffffffff16817fc3c860bc3d914100fbce06d39b8b5198e8df7db490af5c5ea04daf26d2728be660405160405180910390a35f73ffffffffffffffffffffffffffffffffffffffff167f000000000000000000000000000000000000000000000000000000000000000073ffffffffffffffffffffffffffffffffffffffff16146120b9577f000000000000000000000000000000000000000000000000000000000000000073ffffffffffffffffffffffffffffffffffffffff1663c0008d0c336040518263ffffffff1660e01b815260040161208b9190614838565b5f604051808303815f87803b1580156120a2575f5ffd5b505af11580156120b4573d5f5f3e3d5ffd5b505050505b50565b600f602052805f5260405f205f915054906101000a900460ff1681565b5f7f7965db0b000000000000000000000000000000000000000000000000000000007bffffffffffffffffffffffffffffffffffffffffffffffffffffffff1916827bffffffffffffffffffffffffffffffffffffffffffffffffffffffff1916148061214b575061214a82612d2f565b5b9050919050565b5f5f61215d83612803565b90505f73ffffffffffffffffffffffffffffffffffffffff168173ffffffffffffffffffffffffffffffffffffffff16036121cf57826040517f7e2732890000000000000000000000000000000000000000000000000000000081526004016121c691906138b7565b60405180910390fd5b80915050919050565b5f60045f8381526020019081526020015f205f9054906101000a900473ffffffffffffffffffffffffffffffffffffffff169050919050565b5f33905090565b6122258383836001612d8f565b505050565b5f5f61223584612803565b90505f73ffffffffffffffffffffffffffffffffffffffff168173ffffffffffffffffffffffffffffffffffffffff161415801561229f57505f73ffffffffffffffffffffffffffffffffffffffff168573ffffffffffffffffffffffffffffffffffffffff1614155b15612310576122ae818561289e565b600d5f8673ffffffffffffffffffffffffffffffffffffffff1673ffffffffffffffffffffffffffffffffffffffff1681526020019081526020015f2084908060018154018082558091505060019003905f5260205f20015f90919091909150555b61231b858585612f4e565b9150509392505050565b61233681612331612211565b613159565b50565b5f612344838361173e565b61241957600160075f8581526020019081526020015f205f015f8473ffffffffffffffffffffffffffffffffffffffff1673ffffffffffffffffffffffffffffffffffffffff1681526020019081526020015f205f6101000a81548160ff0219169083151502179055506123b6612211565b73ffffffffffffffffffffffffffffffffffffffff168273ffffffffffffffffffffffffffffffffffffffff16847f2f8788117e7eff1d82e926ec794901d17c78024a50270940304540a733656f0d60405160405180910390a46001905061241d565b5f90505b92915050565b5f61242e838361173e565b15612503575f60075f8581526020019081526020015f205f015f8473ffffffffffffffffffffffffffffffffffffffff1673ffffffffffffffffffffffffffffffffffffffff1681526020019081526020015f205f6101000a81548160ff0219169083151502179055506124a0612211565b73ffffffffffffffffffffffffffffffffffffffff168273ffffffffffffffffffffffffffffffffffffffff16847ff6391f5c32d9c69d2a47ea670b442974b53935d1edc7fd64eb21e047a839171b60405160405180910390a460019050612507565b5f90505b92915050565b6125156131aa565b5f60085f6101000a81548160ff0219169083151502179055507f5db9ee0a495bf2e6ff9c91a7834c1ba4fdd244a5e8aa4e537bd38aeae4b073aa612557612211565b6040516125649190613827565b60405180910390a1565b6002600954036125b3576040517f08c379a00000000000000000000000000000000000000000000000000000000081526004016125aa906148ae565b60405180910390fd5b6002600981905550565b6125c5610c28565b15612605576040517f08c379a00000000000000000000000000000000000000000000000000000000081526004016125fc90614916565b60405180910390fd5b565b60605f828051906020012090507f033d214a7c63ad0ebd322697d0ae9662f548cb21a426f70f837bd9e1b007ef088103612679576040518060400160405280600981526020017f656475636174696f6e000000000000000000000000000000000000000000000081525091505061277d565b7f35ccb746f3dcf97034ffb4bf44c17ad8966544874bd2060e3fb3cb6c69d1893c81036126de576040518060400160405280600a81526020017f657870657269656e63650000000000000000000000000000000000000000000081525091505061277d565b7f80474b6a593fd3a2cb62c9d382c4901f538d2c61ca78ad0359ad670bbf60728f8103612743576040518060400160405280600581526020017f736b696c6c00000000000000000000000000000000000000000000000000000081525091505061277d565b6040518060400160405280600d81526020017f63657274696669636174696f6e000000000000000000000000000000000000008152509150505b919050565b61279b828260405180602001604052805f8152506131f3565b5050565b8060065f8481526020019081526020015f2090816127bd9190614441565b507ff8e1a15aba9398e019f0b49df1a4fde98ee17ae345cb5f6b5e2c27f5033e8ce7826040516127ed91906138b7565b60405180910390a15050565b6001600981905550565b5f60025f8381526020019081526020015f205f9054906101000a900473ffffffffffffffffffffffffffffffffffffffff169050919050565b6128446125bd565b600160085f6101000a81548160ff0219169083151502179055507f62e78cea01bee320cd4e420270b5ea74000d11b0c9f74754ebdbfc544b05a258612887612211565b6040516128949190613827565b60405180910390a1565b5f600d5f8473ffffffffffffffffffffffffffffffffffffffff1673ffffffffffffffffffffffffffffffffffffffff1681526020019081526020015f2090505f5f90505b8180549050811015612992578282828154811061290357612902614934565b5b905f5260205f200154036129855781600183805490506129239190614961565b8154811061293457612933614934565b5b905f5260205f2001548282815481106129505761294f614934565b5b905f5260205f2001819055508180548061296d5761296c614994565b5b600190038181905f5260205f20015f90559055612992565b80806001019150506128e3565b50505050565b5f6129a45f835f61222a565b90505f73ffffffffffffffffffffffffffffffffffffffff168173ffffffffffffffffffffffffffffffffffffffff1603612a1657816040517f7e273289000000000000000000000000000000000000000000000000000000008152600401612a0d91906138b7565b60405180910390fd5b5050565b5f73ffffffffffffffffffffffffffffffffffffffff168273ffffffffffffffffffffffffffffffffffffffff1603612a8a57816040517f5b08ba18000000000000000000000000000000000000000000000000000000008152600401612a819190613827565b60405180910390fd5b8060055f8573ffffffffffffffffffffffffffffffffffffffff1673ffffffffffffffffffffffffffffffffffffffff1681526020019081526020015f205f8473ffffffffffffffffffffffffffffffffffffffff1673ffffffffffffffffffffffffffffffffffffffff1681526020019081526020015f205f6101000a81548160ff0219169083151502179055508173ffffffffffffffffffffffffffffffffffffffff168373ffffffffffffffffffffffffffffffffffffffff167f17307eab39ab6107e8899845ad3d59bd9653f200f220920489ca2b5937696c3183604051612b7691906136e1565b60405180910390a3505050565b5f8373ffffffffffffffffffffffffffffffffffffffff163b1115612d28578273ffffffffffffffffffffffffffffffffffffffff1663150b7a02868685856040518563ffffffff1660e01b8152600401612be19493929190614a13565b6020604051808303815f875af1925050508015612c1c57506040513d601f19601f82011682018060405250810190612c199190614a71565b60015b612c9d573d805f8114612c4a576040519150601f19603f3d011682016040523d82523d5f602084013e612c4f565b606091505b505f815103612c9557836040517f64a0ae92000000000000000000000000000000000000000000000000000000008152600401612c8c9190613827565b60405180910390fd5b805181602001fd5b63150b7a0260e01b7bffffffffffffffffffffffffffffffffffffffffffffffffffffffff1916817bffffffffffffffffffffffffffffffffffffffffffffffffffffffff191614612d2657836040517f64a0ae92000000000000000000000000000000000000000000000000000000008152600401612d1d9190613827565b60405180910390fd5b505b5050505050565b5f634906490660e01b7bffffffffffffffffffffffffffffffffffffffffffffffffffffffff1916827bffffffffffffffffffffffffffffffffffffffffffffffffffffffff19161480612d885750612d8782613216565b5b9050919050565b8080612dc757505f73ffffffffffffffffffffffffffffffffffffffff168273ffffffffffffffffffffffffffffffffffffffff1614155b15612ef9575f612dd684612152565b90505f73ffffffffffffffffffffffffffffffffffffffff168373ffffffffffffffffffffffffffffffffffffffff1614158015612e4057508273ffffffffffffffffffffffffffffffffffffffff168173ffffffffffffffffffffffffffffffffffffffff1614155b8015612e535750612e518184611d62565b155b15612e9557826040517fa9fbf51f000000000000000000000000000000000000000000000000000000008152600401612e8c9190613827565b60405180910390fd5b8115612ef757838573ffffffffffffffffffffffffffffffffffffffff168273ffffffffffffffffffffffffffffffffffffffff167f8c5be1e5ebec7d5bd14f71427d1e84f3dd0314c0f7b2291e5b200ac8c7c3b92560405160405180910390a45b505b8360045f8581526020019081526020015f205f6101000a81548173ffffffffffffffffffffffffffffffffffffffff021916908373ffffffffffffffffffffffffffffffffffffffff16021790555050505050565b5f5f612f5984612803565b90505f73ffffffffffffffffffffffffffffffffffffffff168373ffffffffffffffffffffffffffffffffffffffff1614612f9a57612f998184866132f7565b5b5f73ffffffffffffffffffffffffffffffffffffffff168173ffffffffffffffffffffffffffffffffffffffff161461302557612fd95f855f5f612d8f565b600160035f8373ffffffffffffffffffffffffffffffffffffffff1673ffffffffffffffffffffffffffffffffffffffff1681526020019081526020015f205f82825403925050819055505b5f73ffffffffffffffffffffffffffffffffffffffff168573ffffffffffffffffffffffffffffffffffffffff16146130a457600160035f8773ffffffffffffffffffffffffffffffffffffffff1673ffffffffffffffffffffffffffffffffffffffff1681526020019081526020015f205f82825401925050819055505b8460025f8681526020019081526020015f205f6101000a81548173ffffffffffffffffffffffffffffffffffffffff021916908373ffffffffffffffffffffffffffffffffffffffff160217905550838573ffffffffffffffffffffffffffffffffffffffff168273ffffffffffffffffffffffffffffffffffffffff167fddf252ad1be2c89b69c2b068fc378daa952ba7f163c4a11628f55a4df523b3ef60405160405180910390a4809150509392505050565b613163828261173e565b6131a65780826040517fe2517d3f00000000000000000000000000000000000000000000000000000000815260040161319d929190614a9c565b60405180910390fd5b5050565b6131b2610c28565b6131f1576040517f08c379a00000000000000000000000000000000000000000000000000000000081526004016131e890614b0d565b60405180910390fd5b565b6131fd83836133ba565b613211613208612211565b5f858585612b83565b505050565b5f7f80ac58cd000000000000000000000000000000000000000000000000000000007bffffffffffffffffffffffffffffffffffffffffffffffffffffffff1916827bffffffffffffffffffffffffffffffffffffffffffffffffffffffff191614806132e057507f5b5e139f000000000000000000000000000000000000000000000000000000007bffffffffffffffffffffffffffffffffffffffffffffffffffffffff1916827bffffffffffffffffffffffffffffffffffffffffffffffffffffffff1916145b806132f057506132ef826134ad565b5b9050919050565b613302838383613516565b6133b5575f73ffffffffffffffffffffffffffffffffffffffff168373ffffffffffffffffffffffffffffffffffffffff160361337657806040517f7e27328900000000000000000000000000000000000000000000000000000000815260040161336d91906138b7565b60405180910390fd5b81816040517f177e802f0000000000000000000000000000000000000000000000000000000081526004016133ac929190614b2b565b60405180910390fd5b505050565b5f73ffffffffffffffffffffffffffffffffffffffff168273ffffffffffffffffffffffffffffffffffffffff160361342a575f6040517f64a0ae920000000000000000000000000000000000000000000000000000000081526004016134219190613827565b60405180910390fd5b5f61343683835f61222a565b90505f73ffffffffffffffffffffffffffffffffffffffff168173ffffffffffffffffffffffffffffffffffffffff16146134a8575f6040517f73c6ac6e00000000000000000000000000000000000000000000000000000000815260040161349f9190613827565b60405180910390fd5b505050565b5f7f01ffc9a7000000000000000000000000000000000000000000000000000000007bffffffffffffffffffffffffffffffffffffffffffffffffffffffff1916827bffffffffffffffffffffffffffffffffffffffffffffffffffffffff1916149050919050565b5f5f73ffffffffffffffffffffffffffffffffffffffff168373ffffffffffffffffffffffffffffffffffffffff16141580156135cd57508273ffffffffffffffffffffffffffffffffffffffff168473ffffffffffffffffffffffffffffffffffffffff16148061358e575061358d8484611d62565b5b806135cc57508273ffffffffffffffffffffffffffffffffffffffff166135b4836121d8565b73ffffffffffffffffffffffffffffffffffffffff16145b5b90509392505050565b604051806101200160405280606081526020016060815260200160608152602001606081526020015f81526020015f151581526020015f73ffffffffffffffffffffffffffffffffffffffff1681526020015f8152602001606081525090565b5f604051905090565b5f5ffd5b5f5ffd5b5f7fffffffff0000000000000000000000000000000000000000000000000000000082169050919050565b61367b81613647565b8114613685575f5ffd5b50565b5f8135905061369681613672565b92915050565b5f602082840312156136b1576136b061363f565b5b5f6136be84828501613688565b91505092915050565b5f8115159050919050565b6136db816136c7565b82525050565b5f6020820190506136f45f8301846136d2565b92915050565b5f81519050919050565b5f82825260208201905092915050565b8281835e5f83830152505050565b5f601f19601f8301169050919050565b5f61373c826136fa565b6137468185613704565b9350613756818560208601613714565b61375f81613722565b840191505092915050565b5f6020820190508181035f8301526137828184613732565b905092915050565b5f819050919050565b61379c8161378a565b81146137a6575f5ffd5b50565b5f813590506137b781613793565b92915050565b5f602082840312156137d2576137d161363f565b5b5f6137df848285016137a9565b91505092915050565b5f73ffffffffffffffffffffffffffffffffffffffff82169050919050565b5f613811826137e8565b9050919050565b61382181613807565b82525050565b5f60208201905061383a5f830184613818565b92915050565b61384981613807565b8114613853575f5ffd5b50565b5f8135905061386481613840565b92915050565b5f5f604083850312156138805761387f61363f565b5b5f61388d85828601613856565b925050602061389e858286016137a9565b9150509250929050565b6138b18161378a565b82525050565b5f6020820190506138ca5f8301846138a8565b92915050565b5f5f5f606084860312156138e7576138e661363f565b5b5f6138f486828701613856565b935050602061390586828701613856565b9250506040613916868287016137a9565b9150509250925092565b5f819050919050565b61393281613920565b811461393c575f5ffd5b50565b5f8135905061394d81613929565b92915050565b5f602082840312156139685761396761363f565b5b5f6139758482850161393f565b91505092915050565b61398781613920565b82525050565b5f6020820190506139a05f83018461397e565b92915050565b5f5f604083850312156139bc576139bb61363f565b5b5f6139c98582860161393f565b92505060206139da85828601613856565b9150509250929050565b5f819050919050565b5f613a07613a026139fd846137e8565b6139e4565b6137e8565b9050919050565b5f613a18826139ed565b9050919050565b5f613a2982613a0e565b9050919050565b613a3981613a1f565b82525050565b5f602082019050613a525f830184613a30565b92915050565b5f60208284031215613a6d57613a6c61363f565b5b5f613a7a84828501613856565b91505092915050565b5f5ffd5b5f5ffd5b7f4e487b71000000000000000000000000000000000000000000000000000000005f52604160045260245ffd5b613ac182613722565b810181811067ffffffffffffffff82111715613ae057613adf613a8b565b5b80604052505050565b5f613af2613636565b9050613afe8282613ab8565b919050565b5f67ffffffffffffffff821115613b1d57613b1c613a8b565b5b613b2682613722565b9050602081019050919050565b828183375f83830152505050565b5f613b53613b4e84613b03565b613ae9565b905082815260208101848484011115613b6f57613b6e613a87565b5b613b7a848285613b33565b509392505050565b5f82601f830112613b9657613b95613a83565b5b8135613ba6848260208601613b41565b91505092915050565b5f5f60408385031215613bc557613bc461363f565b5b5f613bd285828601613856565b925050602083013567ffffffffffffffff811115613bf357613bf2613643565b5b613bff85828601613b82565b9150509250929050565b5f60208284031215613c1e57613c1d61363f565b5b5f82013567ffffffffffffffff811115613c3b57613c3a613643565b5b613c4784828501613b82565b91505092915050565b5f5f5f5f5f60a08688031215613c6957613c6861363f565b5b5f613c7688828901613856565b955050602086013567ffffffffffffffff811115613c9757613c96613643565b5b613ca388828901613b82565b945050604086013567ffffffffffffffff811115613cc457613cc3613643565b5b613cd088828901613b82565b935050606086013567ffffffffffffffff811115613cf157613cf0613643565b5b613cfd88828901613b82565b925050608086013567ffffffffffffffff811115613d1e57613d1d613643565b5b613d2a88828901613b82565b9150509295509295909350565b5f82825260208201905092915050565b5f613d51826136fa565b613d5b8185613d37565b9350613d6b818560208601613714565b613d7481613722565b840191505092915050565b613d888161378a565b82525050565b613d97816136c7565b82525050565b613da681613807565b82525050565b5f61012083015f8301518482035f860152613dc78282613d47565b91505060208301518482036020860152613de18282613d47565b91505060408301518482036040860152613dfb8282613d47565b91505060608301518482036060860152613e158282613d47565b9150506080830151613e2a6080860182613d7f565b5060a0830151613e3d60a0860182613d8e565b5060c0830151613e5060c0860182613d9d565b5060e0830151613e6360e0860182613d7f565b50610100830151848203610100860152613e7d8282613d47565b9150508091505092915050565b5f6020820190508181035f830152613ea28184613dac565b905092915050565b5f5f60408385031215613ec057613ebf61363f565b5b5f613ecd858286016137a9565b925050602083013567ffffffffffffffff811115613eee57613eed613643565b5b613efa85828601613b82565b9150509250929050565b613f0d816136c7565b8114613f17575f5ffd5b50565b5f81359050613f2881613f04565b92915050565b5f5f60408385031215613f4457613f4361363f565b5b5f613f5185828601613856565b9250506020613f6285828601613f1a565b9150509250929050565b5f613f76826139ed565b9050919050565b5f613f8782613f6c565b9050919050565b613f9781613f7d565b82525050565b5f602082019050613fb05f830184613f8e565b92915050565b5f67ffffffffffffffff821115613fd057613fcf613a8b565b5b613fd982613722565b9050602081019050919050565b5f613ff8613ff384613fb6565b613ae9565b90508281526020810184848401111561401457614013613a87565b5b61401f848285613b33565b509392505050565b5f82601f83011261403b5761403a613a83565b5b813561404b848260208601613fe6565b91505092915050565b5f5f5f5f6080858703121561406c5761406b61363f565b5b5f61407987828801613856565b945050602061408a87828801613856565b935050604061409b878288016137a9565b925050606085013567ffffffffffffffff8111156140bc576140bb613643565b5b6140c887828801614027565b91505092959194509250565b5f81519050919050565b5f82825260208201905092915050565b5f819050602082019050919050565b5f6141088383613d7f565b60208301905092915050565b5f602082019050919050565b5f61412a826140d4565b61413481856140de565b935061413f836140ee565b805f5b8381101561416f57815161415688826140fd565b975061416183614114565b925050600181019050614142565b5085935050505092915050565b5f6020820190508181035f8301526141948184614120565b905092915050565b5f5f604083850312156141b2576141b161363f565b5b5f6141bf858286016137a9565b92505060206141d0858286016137a9565b9150509250929050565b5f5f604083850312156141f0576141ef61363f565b5b5f6141fd85828601613856565b925050602061420e85828601613856565b9150509250929050565b7f4e487b71000000000000000000000000000000000000000000000000000000005f52602260045260245ffd5b5f600282049050600182168061425c57607f821691505b60208210810361426f5761426e614218565b5b50919050565b5f6060820190506142885f830186613818565b61429560208301856138a8565b6142a26040830184613818565b949350505050565b5f819050815f5260205f209050919050565b5f6020601f8301049050919050565b5f82821b905092915050565b5f600883026143067fffffffffffffffffffffffffffffffffffffffffffffffffffffffffffffffff826142cb565b61431086836142cb565b95508019841693508086168417925050509392505050565b5f61434261433d6143388461378a565b6139e4565b61378a565b9050919050565b5f819050919050565b61435b83614328565b61436f61436782614349565b8484546142d7565b825550505050565b5f5f905090565b614386614377565b614391818484614352565b505050565b5b818110156143b4576143a95f8261437e565b600181019050614397565b5050565b601f8211156143f9576143ca816142aa565b6143d3846142bc565b810160208510156143e2578190505b6143f66143ee856142bc565b830182614396565b50505b505050565b5f82821c905092915050565b5f6144195f19846008026143fe565b1980831691505092915050565b5f614431838361440a565b9150826002028217905092915050565b61444a826136fa565b67ffffffffffffffff81111561446357614462613a8b565b5b61446d8254614245565b6144788282856143b8565b5f60209050601f8311600181146144a9575f8415614497578287015190505b6144a18582614426565b865550614508565b601f1984166144b7866142aa565b5f5b828110156144de578489015182556001820191506020850194506020810190506144b9565b868310156144fb57848901516144f7601f89168261440a565b8355505b6001600288020188555050505b505050505050565b7f4e487b71000000000000000000000000000000000000000000000000000000005f52601160045260245ffd5b5f6145478261378a565b91507fffffffffffffffffffffffffffffffffffffffffffffffffffffffffffffffff820361457957614578614510565b5b600182019050919050565b5f81905092915050565b5f614598826136fa565b6145a28185614584565b93506145b2818560208601613714565b80840191505092915050565b5f6145c9828461458e565b915081905092915050565b7f63726564656e7469616c5f6d696e7400000000000000000000000000000000005f82015250565b5f614608600f83613704565b9150614613826145d4565b602082019050919050565b5f6040820190506146315f830184613818565b8181036020830152614642816145fc565b905092915050565b5f815461465681614245565b6146608186614584565b9450600182165f811461467a576001811461468f576146c1565b60ff19831686528115158202860193506146c1565b614698856142aa565b5f5b838110156146b95781548189015260018201915060208101905061469a565b838801955050505b50505092915050565b5f6146d5828461464a565b915081905092915050565b5f6146ea8261378a565b91505f82036146fc576146fb614510565b5b600182039050919050565b7f3f7469746c653d000000000000000000000000000000000000000000000000005f82015250565b5f61473b600783614584565b915061474682614707565b600782019050919050565b7f26747970653d00000000000000000000000000000000000000000000000000005f82015250565b5f614785600683614584565b915061479082614751565b600682019050919050565b5f6147a6828761464a565b91506147b2828661464a565b91506147bd8261472f565b91506147c9828561464a565b91506147d482614779565b91506147e0828461464a565b915081905095945050505050565b7f63726564656e7469616c5f766572696669636174696f6e0000000000000000005f82015250565b5f614822601783613704565b915061482d826147ee565b602082019050919050565b5f60408201905061484b5f830184613818565b818103602083015261485c81614816565b905092915050565b7f5265656e7472616e637947756172643a207265656e7472616e742063616c6c005f82015250565b5f614898601f83613704565b91506148a382614864565b602082019050919050565b5f6020820190508181035f8301526148c58161488c565b9050919050565b7f5061757361626c653a20706175736564000000000000000000000000000000005f82015250565b5f614900601083613704565b915061490b826148cc565b602082019050919050565b5f6020820190508181035f83015261492d816148f4565b9050919050565b7f4e487b71000000000000000000000000000000000000000000000000000000005f52603260045260245ffd5b5f61496b8261378a565b91506149768361378a565b925082820390508181111561498e5761498d614510565b5b92915050565b7f4e487b71000000000000000000000000000000000000000000000000000000005f52603160045260245ffd5b5f81519050919050565b5f82825260208201905092915050565b5f6149e5826149c1565b6149ef81856149cb565b93506149ff818560208601613714565b614a0881613722565b840191505092915050565b5f608082019050614a265f830187613818565b614a336020830186613818565b614a4060408301856138a8565b8181036060830152614a5281846149db565b905095945050505050565b5f81519050614a6b81613672565b92915050565b5f60208284031215614a8657614a8561363f565b5b5f614a9384828501614a5d565b91505092915050565b5f604082019050614aaf5f830185613818565b614abc602083018461397e565b9392505050565b7f5061757361626c653a206e6f74207061757365640000000000000000000000005f82015250565b5f614af7601483613704565b9150614b0282614ac3565b602082019050919050565b5f6020820190508181035f830152614b2481614aeb565b9050919050565b5f604082019050614b3e5f830185613818565b614b4b60208301846138a8565b939250505056fea26469706673582212205b821846701b3efa076784aa1c620c97cfb859b84c241da41eb3f9ccdac21e2a64736f6c634300081c0033",
			"opcodes": "PUSH1 0xC0 PUSH1 0x40 MSTORE PUSH1 0x40 MLOAD DUP1 PUSH1 0x40 ADD PUSH1 0x40 MSTORE DUP1 PUSH1 0x15 DUP2 MSTORE PUSH1 0x20 ADD PUSH32 0x68747470733A2F2F697066732E696F2F697066732F0000000000000000000000 DUP2 MSTORE POP PUSH1 0xB SWAP1 DUP2 PUSH2 0x48 SWAP2 SWAP1 PUSH2 0x5AD JUMP JUMPDEST POP CALLVALUE DUP1 ISZERO PUSH2 0x54 JUMPI PUSH0 PUSH0 REVERT JUMPDEST POP PUSH1 0x40 MLOAD PUSH2 0x531F CODESIZE SUB DUP1 PUSH2 0x531F DUP4 CODECOPY DUP2 DUP2 ADD PUSH1 0x40 MSTORE DUP2 ADD SWAP1 PUSH2 0x76 SWAP2 SWAP1 PUSH2 0x715 JUMP JUMPDEST PUSH1 0x40 MLOAD DUP1 PUSH1 0x40 ADD PUSH1 0x40 MSTORE DUP1 PUSH1 0xD DUP2 MSTORE PUSH1 0x20 ADD PUSH32 0x437265645370686572654E465400000000000000000000000000000000000000 DUP2 MSTORE POP PUSH1 0x40 MLOAD DUP1 PUSH1 0x40 ADD PUSH1 0x40 MSTORE DUP1 PUSH1 0x5 DUP2 MSTORE PUSH1 0x20 ADD PUSH32 0x43534E4654000000000000000000000000000000000000000000000000000000 DUP2 MSTORE POP DUP2 PUSH0 SWAP1 DUP2 PUSH2 0xF0 SWAP2 SWAP1 PUSH2 0x5AD JUMP JUMPDEST POP DUP1 PUSH1 0x1 SWAP1 DUP2 PUSH2 0x100 SWAP2 SWAP1 PUSH2 0x5AD JUMP JUMPDEST POP POP POP PUSH0 PUSH1 0x8 PUSH0 PUSH2 0x100 EXP DUP2 SLOAD DUP2 PUSH1 0xFF MUL NOT AND SWAP1 DUP4 ISZERO ISZERO MUL OR SWAP1 SSTORE POP PUSH1 0x1 PUSH1 0x9 DUP2 SWAP1 SSTORE POP DUP2 PUSH20 0xFFFFFFFFFFFFFFFFFFFFFFFFFFFFFFFFFFFFFFFF AND PUSH1 0x80 DUP2 PUSH20 0xFFFFFFFFFFFFFFFFFFFFFFFFFFFFFFFFFFFFFFFF AND DUP2 MSTORE POP POP DUP1 PUSH20 0xFFFFFFFFFFFFFFFFFFFFFFFFFFFFFFFFFFFFFFFF AND PUSH1 0xA0 DUP2 PUSH20 0xFFFFFFFFFFFFFFFFFFFFFFFFFFFFFFFFFFFFFFFF AND DUP2 MSTORE POP POP PUSH2 0x19E PUSH0 PUSH0 SHL CALLER PUSH2 0x20F PUSH1 0x20 SHL PUSH1 0x20 SHR JUMP JUMPDEST POP PUSH2 0x1CF PUSH32 0x9F2DF0FED2C77648DE5860A4CC508CD0818C85B8B8A1AB4CEEEF8D981C8956A6 CALLER PUSH2 0x20F PUSH1 0x20 SHL PUSH1 0x20 SHR JUMP JUMPDEST POP PUSH2 0x200 PUSH32 0xCE23C3E399818CFEE81A7AB0880F714E53D7672B08DF0FA62F2843416E1EA09 CALLER PUSH2 0x20F PUSH1 0x20 SHL PUSH1 0x20 SHR JUMP JUMPDEST POP PUSH0 PUSH1 0xA DUP2 SWAP1 SSTORE POP POP POP PUSH2 0x753 JUMP JUMPDEST PUSH0 PUSH2 0x220 DUP4 DUP4 PUSH2 0x305 PUSH1 0x20 SHL PUSH1 0x20 SHR JUMP JUMPDEST PUSH2 0x2FB JUMPI PUSH1 0x1 PUSH1 0x7 PUSH0 DUP6 DUP2 MSTORE PUSH1 0x20 ADD SWAP1 DUP2 MSTORE PUSH1 0x20 ADD PUSH0 KECCAK256 PUSH0 ADD PUSH0 DUP5 PUSH20 0xFFFFFFFFFFFFFFFFFFFFFFFFFFFFFFFFFFFFFFFF AND PUSH20 0xFFFFFFFFFFFFFFFFFFFFFFFFFFFFFFFFFFFFFFFF AND DUP2 MSTORE PUSH1 0x20 ADD SWAP1 DUP2 MSTORE PUSH1 0x20 ADD PUSH0 KECCAK256 PUSH0 PUSH2 0x100 EXP DUP2 SLOAD DUP2 PUSH1 0xFF MUL NOT AND SWAP1 DUP4 ISZERO ISZERO MUL OR SWAP1 SSTORE POP PUSH2 0x298 PUSH2 0x369 PUSH1 0x20 SHL PUSH1 0x20 SHR JUMP JUMPDEST PUSH20 0xFFFFFFFFFFFFFFFFFFFFFFFFFFFFFFFFFFFFFFFF AND DUP3 PUSH20 0xFFFFFFFFFFFFFFFFFFFFFFFFFFFFFFFFFFFFFFFF AND DUP5 PUSH32 0x2F8788117E7EFF1D82E926EC794901D17C78024A50270940304540A733656F0D PUSH1 0x40 MLOAD PUSH1 0x40 MLOAD DUP1 SWAP2 SUB SWAP1 LOG4 PUSH1 0x1 SWAP1 POP PUSH2 0x2FF JUMP JUMPDEST PUSH0 SWAP1 POP JUMPDEST SWAP3 SWAP2 POP POP JUMP JUMPDEST PUSH0 PUSH1 0x7 PUSH0 DUP5 DUP2 MSTORE PUSH1 0x20 ADD SWAP1 DUP2 MSTORE PUSH1 0x20 ADD PUSH0 KECCAK256 PUSH0 ADD PUSH0 DUP4 PUSH20 0xFFFFFFFFFFFFFFFFFFFFFFFFFFFFFFFFFFFFFFFF AND PUSH20 0xFFFFFFFFFFFFFFFFFFFFFFFFFFFFFFFFFFFFFFFF AND DUP2 MSTORE PUSH1 0x20 ADD SWAP1 DUP2 MSTORE PUSH1 0x20 ADD PUSH0 KECCAK256 PUSH0 SWAP1 SLOAD SWAP1 PUSH2 0x100 EXP SWAP1 DIV PUSH1 0xFF AND SWAP1 POP SWAP3 SWAP2 POP POP JUMP JUMPDEST PUSH0 CALLER SWAP1 POP SWAP1 JUMP JUMPDEST PUSH0 DUP2 MLOAD SWAP1 POP SWAP2 SWAP1 POP JUMP JUMPDEST PUSH32 0x4E487B7100000000000000000000000000000000000000000000000000000000 PUSH0 MSTORE PUSH1 0x41 PUSH1 0x4 MSTORE PUSH1 0x24 PUSH0 REVERT JUMPDEST PUSH32 0x4E487B7100000000000000000000000000000000000000000000000000000000 PUSH0 MSTORE PUSH1 0x22 PUSH1 0x4 MSTORE PUSH1 0x24 PUSH0 REVERT JUMPDEST PUSH0 PUSH1 0x2 DUP3 DIV SWAP1 POP PUSH1 0x1 DUP3 AND DUP1 PUSH2 0x3EB JUMPI PUSH1 0x7F DUP3 AND SWAP2 POP JUMPDEST PUSH1 0x20 DUP3 LT DUP2 SUB PUSH2 0x3FE JUMPI PUSH2 0x3FD PUSH2 0x3A7 JUMP JUMPDEST JUMPDEST POP SWAP2 SWAP1 POP JUMP JUMPDEST PUSH0 DUP2 SWAP1 POP DUP2 PUSH0 MSTORE PUSH1 0x20 PUSH0 KECCAK256 SWAP1 POP SWAP2 SWAP1 POP JUMP JUMPDEST PUSH0 PUSH1 0x20 PUSH1 0x1F DUP4 ADD DIV SWAP1 POP SWAP2 SWAP1 POP JUMP JUMPDEST PUSH0 DUP3 DUP3 SHL SWAP1 POP SWAP3 SWAP2 POP POP JUMP JUMPDEST PUSH0 PUSH1 0x8 DUP4 MUL PUSH2 0x460 PUSH32 0xFFFFFFFFFFFFFFFFFFFFFFFFFFFFFFFFFFFFFFFFFFFFFFFFFFFFFFFFFFFFFFFF DUP3 PUSH2 0x425 JUMP JUMPDEST PUSH2 0x46A DUP7 DUP4 PUSH2 0x425 JUMP JUMPDEST SWAP6 POP DUP1 NOT DUP5 AND SWAP4 POP DUP1 DUP7 AND DUP5 OR SWAP3 POP POP POP SWAP4 SWAP3 POP POP POP JUMP JUMPDEST PUSH0 DUP2 SWAP1 POP SWAP2 SWAP1 POP JUMP JUMPDEST PUSH0 DUP2 SWAP1 POP SWAP2 SWAP1 POP JUMP JUMPDEST PUSH0 PUSH2 0x4AE PUSH2 0x4A9 PUSH2 0x4A4 DUP5 PUSH2 0x482 JUMP JUMPDEST PUSH2 0x48B JUMP JUMPDEST PUSH2 0x482 JUMP JUMPDEST SWAP1 POP SWAP2 SWAP1 POP JUMP JUMPDEST PUSH0 DUP2 SWAP1 POP SWAP2 SWAP1 POP JUMP JUMPDEST PUSH2 0x4C7 DUP4 PUSH2 0x494 JUMP JUMPDEST PUSH2 0x4DB PUSH2 0x4D3 DUP3 PUSH2 0x4B5 JUMP JUMPDEST DUP5 DUP5 SLOAD PUSH2 0x431 JUMP JUMPDEST DUP3 SSTORE POP POP POP POP JUMP JUMPDEST PUSH0 PUSH0 SWAP1 POP SWAP1 JUMP JUMPDEST PUSH2 0x4F2 PUSH2 0x4E3 JUMP JUMPDEST PUSH2 0x4FD DUP2 DUP5 DUP5 PUSH2 0x4BE JUMP JUMPDEST POP POP POP JUMP JUMPDEST JUMPDEST DUP2 DUP2 LT ISZERO PUSH2 0x520 JUMPI PUSH2 0x515 PUSH0 DUP3 PUSH2 0x4EA JUMP JUMPDEST PUSH1 0x1 DUP2 ADD SWAP1 POP PUSH2 0x503 JUMP JUMPDEST POP POP JUMP JUMPDEST PUSH1 0x1F DUP3 GT ISZERO PUSH2 0x565 JUMPI PUSH2 0x536 DUP2 PUSH2 0x404 JUMP JUMPDEST PUSH2 0x53F DUP5 PUSH2 0x416 JUMP JUMPDEST DUP2 ADD PUSH1 0x20 DUP6 LT ISZERO PUSH2 0x54E JUMPI DUP2 SWAP1 POP JUMPDEST PUSH2 0x562 PUSH2 0x55A DUP6 PUSH2 0x416 JUMP JUMPDEST DUP4 ADD DUP3 PUSH2 0x502 JUMP JUMPDEST POP POP JUMPDEST POP POP POP JUMP JUMPDEST PUSH0 DUP3 DUP3 SHR SWAP1 POP SWAP3 SWAP2 POP POP JUMP JUMPDEST PUSH0 PUSH2 0x585 PUSH0 NOT DUP5 PUSH1 0x8 MUL PUSH2 0x56A JUMP JUMPDEST NOT DUP1 DUP4 AND SWAP2 POP POP SWAP3 SWAP2 POP POP JUMP JUMPDEST PUSH0 PUSH2 0x59D DUP4 DUP4 PUSH2 0x576 JUMP JUMPDEST SWAP2 POP DUP3 PUSH1 0x2 MUL DUP3 OR SWAP1 POP SWAP3 SWAP2 POP POP JUMP JUMPDEST PUSH2 0x5B6 DUP3 PUSH2 0x370 JUMP JUMPDEST PUSH8 0xFFFFFFFFFFFFFFFF DUP2 GT ISZERO PUSH2 0x5CF JUMPI PUSH2 0x5CE PUSH2 0x37A JUMP JUMPDEST JUMPDEST PUSH2 0x5D9 DUP3 SLOAD PUSH2 0x3D4 JUMP JUMPDEST PUSH2 0x5E4 DUP3 DUP3 DUP6 PUSH2 0x524 JUMP JUMPDEST PUSH0 PUSH1 0x20 SWAP1 POP PUSH1 0x1F DUP4 GT PUSH1 0x1 DUP2 EQ PUSH2 0x615 JUMPI PUSH0 DUP5 ISZERO PUSH2 0x603 JUMPI DUP3 DUP8 ADD MLOAD SWAP1 POP JUMPDEST PUSH2 0x60D DUP6 DUP3 PUSH2 0x592 JUMP JUMPDEST DUP7 SSTORE POP PUSH2 0x674 JUMP JUMPDEST PUSH1 0x1F NOT DUP5 AND PUSH2 0x623 DUP7 PUSH2 0x404 JUMP JUMPDEST PUSH0 JUMPDEST DUP3 DUP2 LT ISZERO PUSH2 0x64A JUMPI DUP5 DUP10 ADD MLOAD DUP3 SSTORE PUSH1 0x1 DUP3 ADD SWAP2 POP PUSH1 0x20 DUP6 ADD SWAP5 POP PUSH1 0x20 DUP2 ADD SWAP1 POP PUSH2 0x625 JUMP JUMPDEST DUP7 DUP4 LT ISZERO PUSH2 0x667 JUMPI DUP5 DUP10 ADD MLOAD PUSH2 0x663 PUSH1 0x1F DUP10 AND DUP3 PUSH2 0x576 JUMP JUMPDEST DUP4 SSTORE POP JUMPDEST PUSH1 0x1 PUSH1 0x2 DUP9 MUL ADD DUP9 SSTORE POP POP POP JUMPDEST POP POP POP POP POP POP JUMP JUMPDEST PUSH0 PUSH0 REVERT JUMPDEST PUSH0 PUSH20 0xFFFFFFFFFFFFFFFFFFFFFFFFFFFFFFFFFFFFFFFF DUP3 AND SWAP1 POP SWAP2 SWAP1 POP JUMP JUMPDEST PUSH0 PUSH2 0x6A9 DUP3 PUSH2 0x680 JUMP JUMPDEST SWAP1 POP SWAP2 SWAP1 POP JUMP JUMPDEST PUSH2 0x6B9 DUP2 PUSH2 0x69F JUMP JUMPDEST DUP2 EQ PUSH2 0x6C3 JUMPI PUSH0 PUSH0 REVERT JUMPDEST POP JUMP JUMPDEST PUSH0 DUP2 MLOAD SWAP1 POP PUSH2 0x6D4 DUP2 PUSH2 0x6B0 JUMP JUMPDEST SWAP3 SWAP2 POP POP JUMP JUMPDEST PUSH0 PUSH2 0x6E4 DUP3 PUSH2 0x680 JUMP JUMPDEST SWAP1 POP SWAP2 SWAP1 POP JUMP JUMPDEST PUSH2 0x6F4 DUP2 PUSH2 0x6DA JUMP JUMPDEST DUP2 EQ PUSH2 0x6FE JUMPI PUSH0 PUSH0 REVERT JUMPDEST POP JUMP JUMPDEST PUSH0 DUP2 MLOAD SWAP1 POP PUSH2 0x70F DUP2 PUSH2 0x6EB JUMP JUMPDEST SWAP3 SWAP2 POP POP JUMP JUMPDEST PUSH0 PUSH0 PUSH1 0x40 DUP4 DUP6 SUB SLT ISZERO PUSH2 0x72B JUMPI PUSH2 0x72A PUSH2 0x67C JUMP JUMPDEST JUMPDEST PUSH0 PUSH2 0x738 DUP6 DUP3 DUP7 ADD PUSH2 0x6C6 JUMP JUMPDEST SWAP3 POP POP PUSH1 0x20 PUSH2 0x749 DUP6 DUP3 DUP7 ADD PUSH2 0x701 JUMP JUMPDEST SWAP2 POP POP SWAP3 POP SWAP3 SWAP1 POP JUMP JUMPDEST PUSH1 0x80 MLOAD PUSH1 0xA0 MLOAD PUSH2 0x4B88 PUSH2 0x797 PUSH0 CODECOPY PUSH0 DUP2 DUP2 PUSH2 0x10F5 ADD MSTORE DUP2 DUP2 PUSH2 0x1A8B ADD MSTORE PUSH2 0x2034 ADD MSTORE PUSH0 DUP2 DUP2 PUSH2 0xA32 ADD MSTORE DUP2 DUP2 PUSH2 0x10B9 ADD MSTORE DUP2 DUP2 PUSH2 0x1E5F ADD MSTORE PUSH2 0x1FF8 ADD MSTORE PUSH2 0x4B88 PUSH0 RETURN INVALID PUSH1 0x80 PUSH1 0x40 MSTORE CALLVALUE DUP1 ISZERO PUSH2 0xF JUMPI PUSH0 PUSH0 REVERT JUMPDEST POP PUSH1 0x4 CALLDATASIZE LT PUSH2 0x23B JUMPI PUSH0 CALLDATALOAD PUSH1 0xE0 SHR DUP1 PUSH4 0x70A08231 GT PUSH2 0x139 JUMPI DUP1 PUSH4 0xB9565FBD GT PUSH2 0xB6 JUMPI DUP1 PUSH4 0xD91F2A0B GT PUSH2 0x7A JUMPI DUP1 PUSH4 0xD91F2A0B EQ PUSH2 0x6D3 JUMPI DUP1 PUSH4 0xE7705DB6 EQ PUSH2 0x6EF JUMPI DUP1 PUSH4 0xE985E9C5 EQ PUSH2 0x70D JUMPI DUP1 PUSH4 0xF2A91B1C EQ PUSH2 0x73D JUMPI DUP1 PUSH4 0xFE575A87 EQ PUSH2 0x759 JUMPI PUSH2 0x23B JUMP JUMPDEST DUP1 PUSH4 0xB9565FBD EQ PUSH2 0x609 JUMPI DUP1 PUSH4 0xC76D2919 EQ PUSH2 0x639 JUMPI DUP1 PUSH4 0xC87B56DD EQ PUSH2 0x669 JUMPI DUP1 PUSH4 0xD5391393 EQ PUSH2 0x699 JUMPI DUP1 PUSH4 0xD547741F EQ PUSH2 0x6B7 JUMPI PUSH2 0x23B JUMP JUMPDEST DUP1 PUSH4 0x95D89B41 GT PUSH2 0xFD JUMPI DUP1 PUSH4 0x95D89B41 EQ PUSH2 0x577 JUMPI DUP1 PUSH4 0xA217FDDF EQ PUSH2 0x595 JUMPI DUP1 PUSH4 0xA22CB465 EQ PUSH2 0x5B3 JUMPI DUP1 PUSH4 0xAF983753 EQ PUSH2 0x5CF JUMPI DUP1 PUSH4 0xB88D4FDE EQ PUSH2 0x5ED JUMPI PUSH2 0x23B JUMP JUMPDEST DUP1 PUSH4 0x70A08231 EQ PUSH2 0x4C1 JUMPI DUP1 PUSH4 0x8456CB59 EQ PUSH2 0x4F1 JUMPI DUP1 PUSH4 0x8DD18D2D EQ PUSH2 0x4FB JUMPI DUP1 PUSH4 0x91D14854 EQ PUSH2 0x52B JUMPI DUP1 PUSH4 0x957A3205 EQ PUSH2 0x55B JUMPI PUSH2 0x23B JUMP JUMPDEST DUP1 PUSH4 0x3F4BA83A GT PUSH2 0x1C7 JUMPI DUP1 PUSH4 0x55F804B3 GT PUSH2 0x18B JUMPI DUP1 PUSH4 0x55F804B3 EQ PUSH2 0x3F7 JUMPI DUP1 PUSH4 0x5C975ABB EQ PUSH2 0x413 JUMPI DUP1 PUSH4 0x6352211E EQ PUSH2 0x431 JUMPI DUP1 PUSH4 0x68EC6E6B EQ PUSH2 0x461 JUMPI DUP1 PUSH4 0x6DA48B9A EQ PUSH2 0x491 JUMPI PUSH2 0x23B JUMP JUMPDEST DUP1 PUSH4 0x3F4BA83A EQ PUSH2 0x37B JUMPI DUP1 PUSH4 0x4162169F EQ PUSH2 0x385 JUMPI DUP1 PUSH4 0x42842E0E EQ PUSH2 0x3A3 JUMPI DUP1 PUSH4 0x4A4C560D EQ PUSH2 0x3BF JUMPI DUP1 PUSH4 0x4D0970C6 EQ PUSH2 0x3DB JUMPI PUSH2 0x23B JUMP JUMPDEST DUP1 PUSH4 0x18160DDD GT PUSH2 0x20E JUMPI DUP1 PUSH4 0x18160DDD EQ PUSH2 0x2D9 JUMPI DUP1 PUSH4 0x23B872DD EQ PUSH2 0x2F7 JUMPI DUP1 PUSH4 0x248A9CA3 EQ PUSH2 0x313 JUMPI DUP1 PUSH4 0x2F2FF15D EQ PUSH2 0x343 JUMPI DUP1 PUSH4 0x36568ABE EQ PUSH2 0x35F JUMPI PUSH2 0x23B JUMP JUMPDEST DUP1 PUSH4 0x1FFC9A7 EQ PUSH2 0x23F JUMPI DUP1 PUSH4 0x6FDDE03 EQ PUSH2 0x26F JUMPI DUP1 PUSH4 0x81812FC EQ PUSH2 0x28D JUMPI DUP1 PUSH4 0x95EA7B3 EQ PUSH2 0x2BD JUMPI JUMPDEST PUSH0 PUSH0 REVERT JUMPDEST PUSH2 0x259 PUSH1 0x4 DUP1 CALLDATASIZE SUB DUP2 ADD SWAP1 PUSH2 0x254 SWAP2 SWAP1 PUSH2 0x369C JUMP JUMPDEST PUSH2 0x789 JUMP JUMPDEST PUSH1 0x40 MLOAD PUSH2 0x266 SWAP2 SWAP1 PUSH2 0x36E1 JUMP JUMPDEST PUSH1 0x40 MLOAD DUP1 SWAP2 SUB SWAP1 RETURN JUMPDEST PUSH2 0x277 PUSH2 0x79A JUMP JUMPDEST PUSH1 0x40 MLOAD PUSH2 0x284 SWAP2 SWAP1 PUSH2 0x376A JUMP JUMPDEST PUSH1 0x40 MLOAD DUP1 SWAP2 SUB SWAP1 RETURN JUMPDEST PUSH2 0x2A7 PUSH1 0x4 DUP1 CALLDATASIZE SUB DUP2 ADD SWAP1 PUSH2 0x2A2 SWAP2 SWAP1 PUSH2 0x37BD JUMP JUMPDEST PUSH2 0x829 JUMP JUMPDEST PUSH1 0x40 MLOAD PUSH2 0x2B4 SWAP2 SWAP1 PUSH2 0x3827 JUMP JUMPDEST PUSH1 0x40 MLOAD DUP1 SWAP2 SUB SWAP1 RETURN JUMPDEST PUSH2 0x2D7 PUSH1 0x4 DUP1 CALLDATASIZE SUB DUP2 ADD SWAP1 PUSH2 0x2D2 SWAP2 SWAP1 PUSH2 0x386A JUMP JUMPDEST PUSH2 0x844 JUMP JUMPDEST STOP JUMPDEST PUSH2 0x2E1 PUSH2 0x85A JUMP JUMPDEST PUSH1 0x40 MLOAD PUSH2 0x2EE SWAP2 SWAP1 PUSH2 0x38B7 JUMP JUMPDEST PUSH1 0x40 MLOAD DUP1 SWAP2 SUB SWAP1 RETURN JUMPDEST PUSH2 0x311 PUSH1 0x4 DUP1 CALLDATASIZE SUB DUP2 ADD SWAP1 PUSH2 0x30C SWAP2 SWAP1 PUSH2 0x38D0 JUMP JUMPDEST PUSH2 0x860 JUMP JUMPDEST STOP JUMPDEST PUSH2 0x32D PUSH1 0x4 DUP1 CALLDATASIZE SUB DUP2 ADD SWAP1 PUSH2 0x328 SWAP2 SWAP1 PUSH2 0x3953 JUMP JUMPDEST PUSH2 0x95F JUMP JUMPDEST PUSH1 0x40 MLOAD PUSH2 0x33A SWAP2 SWAP1 PUSH2 0x398D JUMP JUMPDEST PUSH1 0x40 MLOAD DUP1 SWAP2 SUB SWAP1 RETURN JUMPDEST PUSH2 0x35D PUSH1 0x4 DUP1 CALLDATASIZE SUB DUP2 ADD SWAP1 PUSH2 0x358 SWAP2 SWAP1 PUSH2 0x39A6 JUMP JUMPDEST PUSH2 0x97C JUMP JUMPDEST STOP JUMPDEST PUSH2 0x379 PUSH1 0x4 DUP1 CALLDATASIZE SUB DUP2 ADD SWAP1 PUSH2 0x374 SWAP2 SWAP1 PUSH2 0x39A6 JUMP JUMPDEST PUSH2 0x99E JUMP JUMPDEST STOP JUMPDEST PUSH2 0x383 PUSH2 0xA19 JUMP JUMPDEST STOP JUMPDEST PUSH2 0x38D PUSH2 0xA30 JUMP JUMPDEST PUSH1 0x40 MLOAD PUSH2 0x39A SWAP2 SWAP1 PUSH2 0x3A3F JUMP JUMPDEST PUSH1 0x40 MLOAD DUP1 SWAP2 SUB SWAP1 RETURN JUMPDEST PUSH2 0x3BD PUSH1 0x4 DUP1 CALLDATASIZE SUB DUP2 ADD SWAP1 PUSH2 0x3B8 SWAP2 SWAP1 PUSH2 0x38D0 JUMP JUMPDEST PUSH2 0xA54 JUMP JUMPDEST STOP JUMPDEST PUSH2 0x3D9 PUSH1 0x4 DUP1 CALLDATASIZE SUB DUP2 ADD SWAP1 PUSH2 0x3D4 SWAP2 SWAP1 PUSH2 0x3A58 JUMP JUMPDEST PUSH2 0xA73 JUMP JUMPDEST STOP JUMPDEST PUSH2 0x3F5 PUSH1 0x4 DUP1 CALLDATASIZE SUB DUP2 ADD SWAP1 PUSH2 0x3F0 SWAP2 SWAP1 PUSH2 0x3BAF JUMP JUMPDEST PUSH2 0xB1A JUMP JUMPDEST STOP JUMPDEST PUSH2 0x411 PUSH1 0x4 DUP1 CALLDATASIZE SUB DUP2 ADD SWAP1 PUSH2 0x40C SWAP2 SWAP1 PUSH2 0x3C09 JUMP JUMPDEST PUSH2 0xBCE JUMP JUMPDEST STOP JUMPDEST PUSH2 0x41B PUSH2 0xC28 JUMP JUMPDEST PUSH1 0x40 MLOAD PUSH2 0x428 SWAP2 SWAP1 PUSH2 0x36E1 JUMP JUMPDEST PUSH1 0x40 MLOAD DUP1 SWAP2 SUB SWAP1 RETURN JUMPDEST PUSH2 0x44B PUSH1 0x4 DUP1 CALLDATASIZE SUB DUP2 ADD SWAP1 PUSH2 0x446 SWAP2 SWAP1 PUSH2 0x37BD JUMP JUMPDEST PUSH2 0xC3D JUMP JUMPDEST PUSH1 0x40 MLOAD PUSH2 0x458 SWAP2 SWAP1 PUSH2 0x3827 JUMP JUMPDEST PUSH1 0x40 MLOAD DUP1 SWAP2 SUB SWAP1 RETURN JUMPDEST PUSH2 0x47B PUSH1 0x4 DUP1 CALLDATASIZE SUB DUP2 ADD SWAP1 PUSH2 0x476 SWAP2 SWAP1 PUSH2 0x3C50 JUMP JUMPDEST PUSH2 0xC4E JUMP JUMPDEST PUSH1 0x40 MLOAD PUSH2 0x488 SWAP2 SWAP1 PUSH2 0x38B7 JUMP JUMPDEST PUSH1 0x40 MLOAD DUP1 SWAP2 SUB SWAP1 RETURN JUMPDEST PUSH2 0x4AB PUSH1 0x4 DUP1 CALLDATASIZE SUB DUP2 ADD SWAP1 PUSH2 0x4A6 SWAP2 SWAP1 PUSH2 0x37BD JUMP JUMPDEST PUSH2 0x11DF JUMP JUMPDEST PUSH1 0x40 MLOAD PUSH2 0x4B8 SWAP2 SWAP1 PUSH2 0x36E1 JUMP JUMPDEST PUSH1 0x40 MLOAD DUP1 SWAP2 SUB SWAP1 RETURN JUMPDEST PUSH2 0x4DB PUSH1 0x4 DUP1 CALLDATASIZE SUB DUP2 ADD SWAP1 PUSH2 0x4D6 SWAP2 SWAP1 PUSH2 0x3A58 JUMP JUMPDEST PUSH2 0x1285 JUMP JUMPDEST PUSH1 0x40 MLOAD PUSH2 0x4E8 SWAP2 SWAP1 PUSH2 0x38B7 JUMP JUMPDEST PUSH1 0x40 MLOAD DUP1 SWAP2 SUB SWAP1 RETURN JUMPDEST PUSH2 0x4F9 PUSH2 0x133B JUMP JUMPDEST STOP JUMPDEST PUSH2 0x515 PUSH1 0x4 DUP1 CALLDATASIZE SUB DUP2 ADD SWAP1 PUSH2 0x510 SWAP2 SWAP1 PUSH2 0x37BD JUMP JUMPDEST PUSH2 0x1352 JUMP JUMPDEST PUSH1 0x40 MLOAD PUSH2 0x522 SWAP2 SWAP1 PUSH2 0x3E8A JUMP JUMPDEST PUSH1 0x40 MLOAD DUP1 SWAP2 SUB SWAP1 RETURN JUMPDEST PUSH2 0x545 PUSH1 0x4 DUP1 CALLDATASIZE SUB DUP2 ADD SWAP1 PUSH2 0x540 SWAP2 SWAP1 PUSH2 0x39A6 JUMP JUMPDEST PUSH2 0x173E JUMP JUMPDEST PUSH1 0x40 MLOAD PUSH2 0x552 SWAP2 SWAP1 PUSH2 0x36E1 JUMP JUMPDEST PUSH1 0x40 MLOAD DUP1 SWAP2 SUB SWAP1 RETURN JUMPDEST PUSH2 0x575 PUSH1 0x4 DUP1 CALLDATASIZE SUB DUP2 ADD SWAP1 PUSH2 0x570 SWAP2 SWAP1 PUSH2 0x3EAA JUMP JUMPDEST PUSH2 0x17A2 JUMP JUMPDEST STOP JUMPDEST PUSH2 0x57F PUSH2 0x19DD JUMP JUMPDEST PUSH1 0x40 MLOAD PUSH2 0x58C SWAP2 SWAP1 PUSH2 0x376A JUMP JUMPDEST PUSH1 0x40 MLOAD DUP1 SWAP2 SUB SWAP1 RETURN JUMPDEST PUSH2 0x59D PUSH2 0x1A6D JUMP JUMPDEST PUSH1 0x40 MLOAD PUSH2 0x5AA SWAP2 SWAP1 PUSH2 0x398D JUMP JUMPDEST PUSH1 0x40 MLOAD DUP1 SWAP2 SUB SWAP1 RETURN JUMPDEST PUSH2 0x5CD PUSH1 0x4 DUP1 CALLDATASIZE SUB DUP2 ADD SWAP1 PUSH2 0x5C8 SWAP2 SWAP1 PUSH2 0x3F2E JUMP JUMPDEST PUSH2 0x1A73 JUMP JUMPDEST STOP JUMPDEST PUSH2 0x5D7 PUSH2 0x1A89 JUMP JUMPDEST PUSH1 0x40 MLOAD PUSH2 0x5E4 SWAP2 SWAP1 PUSH2 0x3F9D JUMP JUMPDEST PUSH1 0x40 MLOAD DUP1 SWAP2 SUB SWAP1 RETURN JUMPDEST PUSH2 0x607 PUSH1 0x4 DUP1 CALLDATASIZE SUB DUP2 ADD SWAP1 PUSH2 0x602 SWAP2 SWAP1 PUSH2 0x4054 JUMP JUMPDEST PUSH2 0x1AAD JUMP JUMPDEST STOP JUMPDEST PUSH2 0x623 PUSH1 0x4 DUP1 CALLDATASIZE SUB DUP2 ADD SWAP1 PUSH2 0x61E SWAP2 SWAP1 PUSH2 0x3C09 JUMP JUMPDEST PUSH2 0x1AD2 JUMP JUMPDEST PUSH1 0x40 MLOAD PUSH2 0x630 SWAP2 SWAP1 PUSH2 0x38B7 JUMP JUMPDEST PUSH1 0x40 MLOAD DUP1 SWAP2 SUB SWAP1 RETURN JUMPDEST PUSH2 0x653 PUSH1 0x4 DUP1 CALLDATASIZE SUB DUP2 ADD SWAP1 PUSH2 0x64E SWAP2 SWAP1 PUSH2 0x3A58 JUMP JUMPDEST PUSH2 0x1AF9 JUMP JUMPDEST PUSH1 0x40 MLOAD PUSH2 0x660 SWAP2 SWAP1 PUSH2 0x417C JUMP JUMPDEST PUSH1 0x40 MLOAD DUP1 SWAP2 SUB SWAP1 RETURN JUMPDEST PUSH2 0x683 PUSH1 0x4 DUP1 CALLDATASIZE SUB DUP2 ADD SWAP1 PUSH2 0x67E SWAP2 SWAP1 PUSH2 0x37BD JUMP JUMPDEST PUSH2 0x1B8C JUMP JUMPDEST PUSH1 0x40 MLOAD PUSH2 0x690 SWAP2 SWAP1 PUSH2 0x376A JUMP JUMPDEST PUSH1 0x40 MLOAD DUP1 SWAP2 SUB SWAP1 RETURN JUMPDEST PUSH2 0x6A1 PUSH2 0x1C61 JUMP JUMPDEST PUSH1 0x40 MLOAD PUSH2 0x6AE SWAP2 SWAP1 PUSH2 0x398D JUMP JUMPDEST PUSH1 0x40 MLOAD DUP1 SWAP2 SUB SWAP1 RETURN JUMPDEST PUSH2 0x6D1 PUSH1 0x4 DUP1 CALLDATASIZE SUB DUP2 ADD SWAP1 PUSH2 0x6CC SWAP2 SWAP1 PUSH2 0x39A6 JUMP JUMPDEST PUSH2 0x1C85 JUMP JUMPDEST STOP JUMPDEST PUSH2 0x6ED PUSH1 0x4 DUP1 CALLDATASIZE SUB DUP2 ADD SWAP1 PUSH2 0x6E8 SWAP2 SWAP1 PUSH2 0x419C JUMP JUMPDEST PUSH2 0x1CA7 JUMP JUMPDEST STOP JUMPDEST PUSH2 0x6F7 PUSH2 0x1D3E JUMP JUMPDEST PUSH1 0x40 MLOAD PUSH2 0x704 SWAP2 SWAP1 PUSH2 0x398D JUMP JUMPDEST PUSH1 0x40 MLOAD DUP1 SWAP2 SUB SWAP1 RETURN JUMPDEST PUSH2 0x727 PUSH1 0x4 DUP1 CALLDATASIZE SUB DUP2 ADD SWAP1 PUSH2 0x722 SWAP2 SWAP1 PUSH2 0x41DA JUMP JUMPDEST PUSH2 0x1D62 JUMP JUMPDEST PUSH1 0x40 MLOAD PUSH2 0x734 SWAP2 SWAP1 PUSH2 0x36E1 JUMP JUMPDEST PUSH1 0x40 MLOAD DUP1 SWAP2 SUB SWAP1 RETURN JUMPDEST PUSH2 0x757 PUSH1 0x4 DUP1 CALLDATASIZE SUB DUP2 ADD SWAP1 PUSH2 0x752 SWAP2 SWAP1 PUSH2 0x37BD JUMP JUMPDEST PUSH2 0x1DF0 JUMP JUMPDEST STOP JUMPDEST PUSH2 0x773 PUSH1 0x4 DUP1 CALLDATASIZE SUB DUP2 ADD SWAP1 PUSH2 0x76E SWAP2 SWAP1 PUSH2 0x3A58 JUMP JUMPDEST PUSH2 0x20BC JUMP JUMPDEST PUSH1 0x40 MLOAD PUSH2 0x780 SWAP2 SWAP1 PUSH2 0x36E1 JUMP JUMPDEST PUSH1 0x40 MLOAD DUP1 SWAP2 SUB SWAP1 RETURN JUMPDEST PUSH0 PUSH2 0x793 DUP3 PUSH2 0x20D9 JUMP JUMPDEST SWAP1 POP SWAP2 SWAP1 POP JUMP JUMPDEST PUSH1 0x60 PUSH0 DUP1 SLOAD PUSH2 0x7A8 SWAP1 PUSH2 0x4245 JUMP JUMPDEST DUP1 PUSH1 0x1F ADD PUSH1 0x20 DUP1 SWAP2 DIV MUL PUSH1 0x20 ADD PUSH1 0x40 MLOAD SWAP1 DUP2 ADD PUSH1 0x40 MSTORE DUP1 SWAP3 SWAP2 SWAP1 DUP2 DUP2 MSTORE PUSH1 0x20 ADD DUP3 DUP1 SLOAD PUSH2 0x7D4 SWAP1 PUSH2 0x4245 JUMP JUMPDEST DUP1 ISZERO PUSH2 0x81F JUMPI DUP1 PUSH1 0x1F LT PUSH2 0x7F6 JUMPI PUSH2 0x100 DUP1 DUP4 SLOAD DIV MUL DUP4 MSTORE SWAP2 PUSH1 0x20 ADD SWAP2 PUSH2 0x81F JUMP JUMPDEST DUP3 ADD SWAP2 SWAP1 PUSH0 MSTORE PUSH1 0x20 PUSH0 KECCAK256 SWAP1 JUMPDEST DUP2 SLOAD DUP2 MSTORE SWAP1 PUSH1 0x1 ADD SWAP1 PUSH1 0x20 ADD DUP1 DUP4 GT PUSH2 0x802 JUMPI DUP3 SWAP1 SUB PUSH1 0x1F AND DUP3 ADD SWAP2 JUMPDEST POP POP POP POP POP SWAP1 POP SWAP1 JUMP JUMPDEST PUSH0 PUSH2 0x833 DUP3 PUSH2 0x2152 JUMP JUMPDEST POP PUSH2 0x83D DUP3 PUSH2 0x21D8 JUMP JUMPDEST SWAP1 POP SWAP2 SWAP1 POP JUMP JUMPDEST PUSH2 0x856 DUP3 DUP3 PUSH2 0x851 PUSH2 0x2211 JUMP JUMPDEST PUSH2 0x2218 JUMP JUMPDEST POP POP JUMP JUMPDEST PUSH1 0xA SLOAD DUP2 JUMP JUMPDEST PUSH0 PUSH20 0xFFFFFFFFFFFFFFFFFFFFFFFFFFFFFFFFFFFFFFFF AND DUP3 PUSH20 0xFFFFFFFFFFFFFFFFFFFFFFFFFFFFFFFFFFFFFFFF AND SUB PUSH2 0x8D0 JUMPI PUSH0 PUSH1 0x40 MLOAD PUSH32 0x64A0AE9200000000000000000000000000000000000000000000000000000000 DUP2 MSTORE PUSH1 0x4 ADD PUSH2 0x8C7 SWAP2 SWAP1 PUSH2 0x3827 JUMP JUMPDEST PUSH1 0x40 MLOAD DUP1 SWAP2 SUB SWAP1 REVERT JUMPDEST PUSH0 PUSH2 0x8E3 DUP4 DUP4 PUSH2 0x8DE PUSH2 0x2211 JUMP JUMPDEST PUSH2 0x222A JUMP JUMPDEST SWAP1 POP DUP4 PUSH20 0xFFFFFFFFFFFFFFFFFFFFFFFFFFFFFFFFFFFFFFFF AND DUP2 PUSH20 0xFFFFFFFFFFFFFFFFFFFFFFFFFFFFFFFFFFFFFFFF AND EQ PUSH2 0x959 JUMPI DUP4 DUP3 DUP3 PUSH1 0x40 MLOAD PUSH32 0x64283D7B00000000000000000000000000000000000000000000000000000000 DUP2 MSTORE PUSH1 0x4 ADD PUSH2 0x950 SWAP4 SWAP3 SWAP2 SWAP1 PUSH2 0x4275 JUMP JUMPDEST PUSH1 0x40 MLOAD DUP1 SWAP2 SUB SWAP1 REVERT JUMPDEST POP POP POP POP JUMP JUMPDEST PUSH0 PUSH1 0x7 PUSH0 DUP4 DUP2 MSTORE PUSH1 0x20 ADD SWAP1 DUP2 MSTORE PUSH1 0x20 ADD PUSH0 KECCAK256 PUSH1 0x1 ADD SLOAD SWAP1 POP SWAP2 SWAP1 POP JUMP JUMPDEST PUSH2 0x985 DUP3 PUSH2 0x95F JUMP JUMPDEST PUSH2 0x98E DUP2 PUSH2 0x2325 JUMP JUMPDEST PUSH2 0x998 DUP4 DUP4 PUSH2 0x2339 JUMP JUMPDEST POP POP POP POP JUMP JUMPDEST PUSH2 0x9A6 PUSH2 0x2211 JUMP JUMPDEST PUSH20 0xFFFFFFFFFFFFFFFFFFFFFFFFFFFFFFFFFFFFFFFF AND DUP2 PUSH20 0xFFFFFFFFFFFFFFFFFFFFFFFFFFFFFFFFFFFFFFFF AND EQ PUSH2 0xA0A JUMPI PUSH1 0x40 MLOAD PUSH32 0x6697B23200000000000000000000000000000000000000000000000000000000 DUP2 MSTORE PUSH1 0x4 ADD PUSH1 0x40 MLOAD DUP1 SWAP2 SUB SWAP1 REVERT JUMPDEST PUSH2 0xA14 DUP3 DUP3 PUSH2 0x2423 JUMP JUMPDEST POP POP POP JUMP JUMPDEST PUSH0 PUSH0 SHL PUSH2 0xA25 DUP2 PUSH2 0x2325 JUMP JUMPDEST PUSH2 0xA2D PUSH2 0x250D JUMP JUMPDEST POP JUMP JUMPDEST PUSH32 0x0 DUP2 JUMP JUMPDEST PUSH2 0xA6E DUP4 DUP4 DUP4 PUSH1 0x40 MLOAD DUP1 PUSH1 0x20 ADD PUSH1 0x40 MSTORE DUP1 PUSH0 DUP2 MSTORE POP PUSH2 0x1AAD JUMP JUMPDEST POP POP POP JUMP JUMPDEST PUSH0 PUSH0 SHL PUSH2 0xA7F DUP2 PUSH2 0x2325 JUMP JUMPDEST PUSH0 PUSH1 0xF PUSH0 DUP5 PUSH20 0xFFFFFFFFFFFFFFFFFFFFFFFFFFFFFFFFFFFFFFFF AND PUSH20 0xFFFFFFFFFFFFFFFFFFFFFFFFFFFFFFFFFFFFFFFF AND DUP2 MSTORE PUSH1 0x20 ADD SWAP1 DUP2 MSTORE PUSH1 0x20 ADD PUSH0 KECCAK256 PUSH0 PUSH2 0x100 EXP DUP2 SLOAD DUP2 PUSH1 0xFF MUL NOT AND SWAP1 DUP4 ISZERO ISZERO MUL OR SWAP1 SSTORE POP DUP2 PUSH20 0xFFFFFFFFFFFFFFFFFFFFFFFFFFFFFFFFFFFFFFFF AND PUSH32 0x7409CB8E690BCD1487FD4FD27DAD3FA92388D201BA6F953631D6D6B26299F849 PUSH1 0x40 MLOAD PUSH1 0x40 MLOAD DUP1 SWAP2 SUB SWAP1 LOG2 POP POP JUMP JUMPDEST PUSH0 PUSH0 SHL PUSH2 0xB26 DUP2 PUSH2 0x2325 JUMP JUMPDEST PUSH1 0x1 PUSH1 0xF PUSH0 DUP6 PUSH20 0xFFFFFFFFFFFFFFFFFFFFFFFFFFFFFFFFFFFFFFFF AND PUSH20 0xFFFFFFFFFFFFFFFFFFFFFFFFFFFFFFFFFFFFFFFF AND DUP2 MSTORE PUSH1 0x20 ADD SWAP1 DUP2 MSTORE PUSH1 0x20 ADD PUSH0 KECCAK256 PUSH0 PUSH2 0x100 EXP DUP2 SLOAD DUP2 PUSH1 0xFF MUL NOT AND SWAP1 DUP4 ISZERO ISZERO MUL OR SWAP1 SSTORE POP DUP3 PUSH20 0xFFFFFFFFFFFFFFFFFFFFFFFFFFFFFFFFFFFFFFFF AND PUSH32 0xCC1CF21B75158E751A071CC4770B92CDE8BB2BC34F9187EEDD0592B874A55669 DUP4 PUSH1 0x40 MLOAD PUSH2 0xBC1 SWAP2 SWAP1 PUSH2 0x376A JUMP JUMPDEST PUSH1 0x40 MLOAD DUP1 SWAP2 SUB SWAP1 LOG2 POP POP POP JUMP JUMPDEST PUSH0 PUSH0 SHL PUSH2 0xBDA DUP2 PUSH2 0x2325 JUMP JUMPDEST PUSH0 DUP3 MLOAD SUB PUSH2 0xC14 JUMPI PUSH1 0x40 MLOAD PUSH32 0xBCECB64A00000000000000000000000000000000000000000000000000000000 DUP2 MSTORE PUSH1 0x4 ADD PUSH1 0x40 MLOAD DUP1 SWAP2 SUB SWAP1 REVERT JUMPDEST DUP2 PUSH1 0xB SWAP1 DUP2 PUSH2 0xC23 SWAP2 SWAP1 PUSH2 0x4441 JUMP JUMPDEST POP POP POP JUMP JUMPDEST PUSH0 PUSH1 0x8 PUSH0 SWAP1 SLOAD SWAP1 PUSH2 0x100 EXP SWAP1 DIV PUSH1 0xFF AND SWAP1 POP SWAP1 JUMP JUMPDEST PUSH0 PUSH2 0xC47 DUP3 PUSH2 0x2152 JUMP JUMPDEST SWAP1 POP SWAP2 SWAP1 POP JUMP JUMPDEST PUSH0 PUSH2 0xC57 PUSH2 0x256E JUMP JUMPDEST PUSH2 0xC5F PUSH2 0x25BD JUMP JUMPDEST PUSH1 0xF PUSH0 DUP8 PUSH20 0xFFFFFFFFFFFFFFFFFFFFFFFFFFFFFFFFFFFFFFFF AND PUSH20 0xFFFFFFFFFFFFFFFFFFFFFFFFFFFFFFFFFFFFFFFF AND DUP2 MSTORE PUSH1 0x20 ADD SWAP1 DUP2 MSTORE PUSH1 0x20 ADD PUSH0 KECCAK256 PUSH0 SWAP1 SLOAD SWAP1 PUSH2 0x100 EXP SWAP1 DIV PUSH1 0xFF AND DUP1 PUSH2 0xCFA JUMPI POP PUSH1 0xF PUSH0 CALLER PUSH20 0xFFFFFFFFFFFFFFFFFFFFFFFFFFFFFFFFFFFFFFFF AND PUSH20 0xFFFFFFFFFFFFFFFFFFFFFFFFFFFFFFFFFFFFFFFF AND DUP2 MSTORE PUSH1 0x20 ADD SWAP1 DUP2 MSTORE PUSH1 0x20 ADD PUSH0 KECCAK256 PUSH0 SWAP1 SLOAD SWAP1 PUSH2 0x100 EXP SWAP1 DIV PUSH1 0xFF AND JUMPDEST ISZERO PUSH2 0xD31 JUMPI PUSH1 0x40 MLOAD PUSH32 0xD9A60D2D00000000000000000000000000000000000000000000000000000000 DUP2 MSTORE PUSH1 0x4 ADD PUSH1 0x40 MLOAD DUP1 SWAP2 SUB SWAP1 REVERT JUMPDEST PUSH2 0xD5B PUSH32 0x9F2DF0FED2C77648DE5860A4CC508CD0818C85B8B8A1AB4CEEEF8D981C8956A6 CALLER PUSH2 0x173E JUMP JUMPDEST PUSH2 0xD91 JUMPI PUSH1 0x40 MLOAD PUSH32 0xEA8E4EB500000000000000000000000000000000000000000000000000000000 DUP2 MSTORE PUSH1 0x4 ADD PUSH1 0x40 MLOAD DUP1 SWAP2 SUB SWAP1 REVERT JUMPDEST PUSH0 DUP6 MLOAD EQ DUP1 PUSH2 0xDA0 JUMPI POP PUSH0 DUP4 MLOAD EQ JUMPDEST DUP1 PUSH2 0xDAB JUMPI POP PUSH0 DUP3 MLOAD EQ JUMPDEST ISZERO PUSH2 0xDE2 JUMPI PUSH1 0x40 MLOAD PUSH32 0xBCECB64A00000000000000000000000000000000000000000000000000000000 DUP2 MSTORE PUSH1 0x4 ADD PUSH1 0x40 MLOAD DUP1 SWAP2 SUB SWAP1 REVERT JUMPDEST PUSH1 0xA PUSH0 DUP2 SLOAD DUP1 SWAP3 SWAP2 SWAP1 PUSH2 0xDF4 SWAP1 PUSH2 0x453D JUMP JUMPDEST SWAP2 SWAP1 POP SSTORE POP PUSH0 PUSH1 0xA SLOAD SWAP1 POP PUSH0 PUSH2 0xE09 DUP6 PUSH2 0x2607 JUMP JUMPDEST SWAP1 POP PUSH1 0x40 MLOAD DUP1 PUSH2 0x120 ADD PUSH1 0x40 MSTORE DUP1 DUP9 DUP2 MSTORE PUSH1 0x20 ADD DUP8 DUP2 MSTORE PUSH1 0x20 ADD DUP7 DUP2 MSTORE PUSH1 0x20 ADD DUP6 DUP2 MSTORE PUSH1 0x20 ADD TIMESTAMP DUP2 MSTORE PUSH1 0x20 ADD PUSH0 ISZERO ISZERO DUP2 MSTORE PUSH1 0x20 ADD CALLER PUSH20 0xFFFFFFFFFFFFFFFFFFFFFFFFFFFFFFFFFFFFFFFF AND DUP2 MSTORE PUSH1 0x20 ADD PUSH0 DUP2 MSTORE PUSH1 0x20 ADD DUP3 DUP2 MSTORE POP PUSH1 0xC PUSH0 DUP5 DUP2 MSTORE PUSH1 0x20 ADD SWAP1 DUP2 MSTORE PUSH1 0x20 ADD PUSH0 KECCAK256 PUSH0 DUP3 ADD MLOAD DUP2 PUSH0 ADD SWAP1 DUP2 PUSH2 0xE87 SWAP2 SWAP1 PUSH2 0x4441 JUMP JUMPDEST POP PUSH1 0x20 DUP3 ADD MLOAD DUP2 PUSH1 0x1 ADD SWAP1 DUP2 PUSH2 0xE9D SWAP2 SWAP1 PUSH2 0x4441 JUMP JUMPDEST POP PUSH1 0x40 DUP3 ADD MLOAD DUP2 PUSH1 0x2 ADD SWAP1 DUP2 PUSH2 0xEB3 SWAP2 SWAP1 PUSH2 0x4441 JUMP JUMPDEST POP PUSH1 0x60 DUP3 ADD MLOAD DUP2 PUSH1 0x3 ADD SWAP1 DUP2 PUSH2 0xEC9 SWAP2 SWAP1 PUSH2 0x4441 JUMP JUMPDEST POP PUSH1 0x80 DUP3 ADD MLOAD DUP2 PUSH1 0x4 ADD SSTORE PUSH1 0xA0 DUP3 ADD MLOAD DUP2 PUSH1 0x5 ADD PUSH0 PUSH2 0x100 EXP DUP2 SLOAD DUP2 PUSH1 0xFF MUL NOT AND SWAP1 DUP4 ISZERO ISZERO MUL OR SWAP1 SSTORE POP PUSH1 0xC0 DUP3 ADD MLOAD DUP2 PUSH1 0x5 ADD PUSH1 0x1 PUSH2 0x100 EXP DUP2 SLOAD DUP2 PUSH20 0xFFFFFFFFFFFFFFFFFFFFFFFFFFFFFFFFFFFFFFFF MUL NOT AND SWAP1 DUP4 PUSH20 0xFFFFFFFFFFFFFFFFFFFFFFFFFFFFFFFFFFFFFFFF AND MUL OR SWAP1 SSTORE POP PUSH1 0xE0 DUP3 ADD MLOAD DUP2 PUSH1 0x6 ADD SSTORE PUSH2 0x100 DUP3 ADD MLOAD DUP2 PUSH1 0x7 ADD SWAP1 DUP2 PUSH2 0xF5A SWAP2 SWAP1 PUSH2 0x4441 JUMP JUMPDEST POP SWAP1 POP POP PUSH2 0xF68 DUP9 DUP4 PUSH2 0x2782 JUMP JUMPDEST PUSH2 0x100C DUP3 PUSH1 0xC PUSH0 DUP6 DUP2 MSTORE PUSH1 0x20 ADD SWAP1 DUP2 MSTORE PUSH1 0x20 ADD PUSH0 KECCAK256 PUSH1 0x3 ADD DUP1 SLOAD PUSH2 0xF8B SWAP1 PUSH2 0x4245 JUMP JUMPDEST DUP1 PUSH1 0x1F ADD PUSH1 0x20 DUP1 SWAP2 DIV MUL PUSH1 0x20 ADD PUSH1 0x40 MLOAD SWAP1 DUP2 ADD PUSH1 0x40 MSTORE DUP1 SWAP3 SWAP2 SWAP1 DUP2 DUP2 MSTORE PUSH1 0x20 ADD DUP3 DUP1 SLOAD PUSH2 0xFB7 SWAP1 PUSH2 0x4245 JUMP JUMPDEST DUP1 ISZERO PUSH2 0x1002 JUMPI DUP1 PUSH1 0x1F LT PUSH2 0xFD9 JUMPI PUSH2 0x100 DUP1 DUP4 SLOAD DIV MUL DUP4 MSTORE SWAP2 PUSH1 0x20 ADD SWAP2 PUSH2 0x1002 JUMP JUMPDEST DUP3 ADD SWAP2 SWAP1 PUSH0 MSTORE PUSH1 0x20 PUSH0 KECCAK256 SWAP1 JUMPDEST DUP2 SLOAD DUP2 MSTORE SWAP1 PUSH1 0x1 ADD SWAP1 PUSH1 0x20 ADD DUP1 DUP4 GT PUSH2 0xFE5 JUMPI DUP3 SWAP1 SUB PUSH1 0x1F AND DUP3 ADD SWAP2 JUMPDEST POP POP POP POP POP PUSH2 0x279F JUMP JUMPDEST PUSH1 0xD PUSH0 DUP10 PUSH20 0xFFFFFFFFFFFFFFFFFFFFFFFFFFFFFFFFFFFFFFFF AND PUSH20 0xFFFFFFFFFFFFFFFFFFFFFFFFFFFFFFFFFFFFFFFF AND DUP2 MSTORE PUSH1 0x20 ADD SWAP1 DUP2 MSTORE PUSH1 0x20 ADD PUSH0 KECCAK256 DUP3 SWAP1 DUP1 PUSH1 0x1 DUP2 SLOAD ADD DUP1 DUP3 SSTORE DUP1 SWAP2 POP POP PUSH1 0x1 SWAP1 SUB SWAP1 PUSH0 MSTORE PUSH1 0x20 PUSH0 KECCAK256 ADD PUSH0 SWAP1 SWAP2 SWAP1 SWAP2 SWAP1 SWAP2 POP SSTORE PUSH1 0xE DUP2 PUSH1 0x40 MLOAD PUSH2 0x107D SWAP2 SWAP1 PUSH2 0x45BE JUMP JUMPDEST SWAP1 DUP2 MSTORE PUSH1 0x20 ADD PUSH1 0x40 MLOAD DUP1 SWAP2 SUB SWAP1 KECCAK256 PUSH0 DUP2 SLOAD DUP1 SWAP3 SWAP2 SWAP1 PUSH2 0x109B SWAP1 PUSH2 0x453D JUMP JUMPDEST SWAP2 SWAP1 POP SSTORE POP PUSH0 PUSH20 0xFFFFFFFFFFFFFFFFFFFFFFFFFFFFFFFFFFFFFFFF AND PUSH32 0x0 PUSH20 0xFFFFFFFFFFFFFFFFFFFFFFFFFFFFFFFFFFFFFFFF AND EQ PUSH2 0x117A JUMPI PUSH32 0x0 PUSH20 0xFFFFFFFFFFFFFFFFFFFFFFFFFFFFFFFFFFFFFFFF AND PUSH4 0xC0008D0C DUP10 PUSH1 0x40 MLOAD DUP3 PUSH4 0xFFFFFFFF AND PUSH1 0xE0 SHL DUP2 MSTORE PUSH1 0x4 ADD PUSH2 0x114C SWAP2 SWAP1 PUSH2 0x461E JUMP JUMPDEST PUSH0 PUSH1 0x40 MLOAD DUP1 DUP4 SUB DUP2 PUSH0 DUP8 DUP1 EXTCODESIZE ISZERO DUP1 ISZERO PUSH2 0x1163 JUMPI PUSH0 PUSH0 REVERT JUMPDEST POP GAS CALL ISZERO DUP1 ISZERO PUSH2 0x1175 JUMPI RETURNDATASIZE PUSH0 PUSH0 RETURNDATACOPY RETURNDATASIZE PUSH0 REVERT JUMPDEST POP POP POP POP JUMPDEST DUP2 DUP9 PUSH20 0xFFFFFFFFFFFFFFFFFFFFFFFFFFFFFFFFFFFFFFFF AND PUSH32 0x8B43B34E0B09EF3F3F917EE7CF1138306169E1843D55C98615D752F75A1841C8 DUP10 PUSH1 0x40 MLOAD PUSH2 0x11C1 SWAP2 SWAP1 PUSH2 0x376A JUMP JUMPDEST PUSH1 0x40 MLOAD DUP1 SWAP2 SUB SWAP1 LOG3 DUP2 SWAP3 POP POP POP PUSH2 0x11D6 PUSH2 0x27F9 JUMP JUMPDEST SWAP6 SWAP5 POP POP POP POP POP JUMP JUMPDEST PUSH0 PUSH0 PUSH20 0xFFFFFFFFFFFFFFFFFFFFFFFFFFFFFFFFFFFFFFFF AND PUSH2 0x1200 DUP4 PUSH2 0x2803 JUMP JUMPDEST PUSH20 0xFFFFFFFFFFFFFFFFFFFFFFFFFFFFFFFFFFFFFFFF AND EQ ISZERO DUP1 ISZERO PUSH2 0x1241 JUMPI POP PUSH1 0xC PUSH0 DUP4 DUP2 MSTORE PUSH1 0x20 ADD SWAP1 DUP2 MSTORE PUSH1 0x20 ADD PUSH0 KECCAK256 PUSH1 0x5 ADD PUSH0 SWAP1 SLOAD SWAP1 PUSH2 0x100 EXP SWAP1 DIV PUSH1 0xFF AND JUMPDEST DUP1 ISZERO PUSH2 0x127E JUMPI POP PUSH0 PUSH1 0xC PUSH0 DUP5 DUP2 MSTORE PUSH1 0x20 ADD SWAP1 DUP2 MSTORE PUSH1 0x20 ADD PUSH0 KECCAK256 PUSH1 0x6 ADD SLOAD EQ DUP1 PUSH2 0x127D JUMPI POP TIMESTAMP PUSH1 0xC PUSH0 DUP5 DUP2 MSTORE PUSH1 0x20 ADD SWAP1 DUP2 MSTORE PUSH1 0x20 ADD PUSH0 KECCAK256 PUSH1 0x6 ADD SLOAD GT JUMPDEST JUMPDEST SWAP1 POP SWAP2 SWAP1 POP JUMP JUMPDEST PUSH0 PUSH0 PUSH20 0xFFFFFFFFFFFFFFFFFFFFFFFFFFFFFFFFFFFFFFFF AND DUP3 PUSH20 0xFFFFFFFFFFFFFFFFFFFFFFFFFFFFFFFFFFFFFFFF AND SUB PUSH2 0x12F6 JUMPI PUSH0 PUSH1 0x40 MLOAD PUSH32 0x89C62B6400000000000000000000000000000000000000000000000000000000 DUP2 MSTORE PUSH1 0x4 ADD PUSH2 0x12ED SWAP2 SWAP1 PUSH2 0x3827 JUMP JUMPDEST PUSH1 0x40 MLOAD DUP1 SWAP2 SUB SWAP1 REVERT JUMPDEST PUSH1 0x3 PUSH0 DUP4 PUSH20 0xFFFFFFFFFFFFFFFFFFFFFFFFFFFFFFFFFFFFFFFF AND PUSH20 0xFFFFFFFFFFFFFFFFFFFFFFFFFFFFFFFFFFFFFFFF AND DUP2 MSTORE PUSH1 0x20 ADD SWAP1 DUP2 MSTORE PUSH1 0x20 ADD PUSH0 KECCAK256 SLOAD SWAP1 POP SWAP2 SWAP1 POP JUMP JUMPDEST PUSH0 PUSH0 SHL PUSH2 0x1347 DUP2 PUSH2 0x2325 JUMP JUMPDEST PUSH2 0x134F PUSH2 0x283C JUMP JUMPDEST POP JUMP JUMPDEST PUSH2 0x135A PUSH2 0x35D6 JUMP JUMPDEST PUSH0 PUSH20 0xFFFFFFFFFFFFFFFFFFFFFFFFFFFFFFFFFFFFFFFF AND PUSH2 0x137A DUP4 PUSH2 0x2803 JUMP JUMPDEST PUSH20 0xFFFFFFFFFFFFFFFFFFFFFFFFFFFFFFFFFFFFFFFF AND SUB PUSH2 0x13C7 JUMPI PUSH1 0x40 MLOAD PUSH32 0x13EFFF000000000000000000000000000000000000000000000000000000000 DUP2 MSTORE PUSH1 0x4 ADD PUSH1 0x40 MLOAD DUP1 SWAP2 SUB SWAP1 REVERT JUMPDEST PUSH1 0xC PUSH0 DUP4 DUP2 MSTORE PUSH1 0x20 ADD SWAP1 DUP2 MSTORE PUSH1 0x20 ADD PUSH0 KECCAK256 PUSH1 0x40 MLOAD DUP1 PUSH2 0x120 ADD PUSH1 0x40 MSTORE SWAP1 DUP2 PUSH0 DUP3 ADD DUP1 SLOAD PUSH2 0x13F3 SWAP1 PUSH2 0x4245 JUMP JUMPDEST DUP1 PUSH1 0x1F ADD PUSH1 0x20 DUP1 SWAP2 DIV MUL PUSH1 0x20 ADD PUSH1 0x40 MLOAD SWAP1 DUP2 ADD PUSH1 0x40 MSTORE DUP1 SWAP3 SWAP2 SWAP1 DUP2 DUP2 MSTORE PUSH1 0x20 ADD DUP3 DUP1 SLOAD PUSH2 0x141F SWAP1 PUSH2 0x4245 JUMP JUMPDEST DUP1 ISZERO PUSH2 0x146A JUMPI DUP1 PUSH1 0x1F LT PUSH2 0x1441 JUMPI PUSH2 0x100 DUP1 DUP4 SLOAD DIV MUL DUP4 MSTORE SWAP2 PUSH1 0x20 ADD SWAP2 PUSH2 0x146A JUMP JUMPDEST DUP3 ADD SWAP2 SWAP1 PUSH0 MSTORE PUSH1 0x20 PUSH0 KECCAK256 SWAP1 JUMPDEST DUP2 SLOAD DUP2 MSTORE SWAP1 PUSH1 0x1 ADD SWAP1 PUSH1 0x20 ADD DUP1 DUP4 GT PUSH2 0x144D JUMPI DUP3 SWAP1 SUB PUSH1 0x1F AND DUP3 ADD SWAP2 JUMPDEST POP POP POP POP POP DUP2 MSTORE PUSH1 0x20 ADD PUSH1 0x1 DUP3 ADD DUP1 SLOAD PUSH2 0x1483 SWAP1 PUSH2 0x4245 JUMP JUMPDEST DUP1 PUSH1 0x1F ADD PUSH1 0x20 DUP1 SWAP2 DIV MUL PUSH1 0x20 ADD PUSH1 0x40 MLOAD SWAP1 DUP2 ADD PUSH1 0x40 MSTORE DUP1 SWAP3 SWAP2 SWAP1 DUP2 DUP2 MSTORE PUSH1 0x20 ADD DUP3 DUP1 SLOAD PUSH2 0x14AF SWAP1 PUSH2 0x4245 JUMP JUMPDEST DUP1 ISZERO PUSH2 0x14FA JUMPI DUP1 PUSH1 0x1F LT PUSH2 0x14D1 JUMPI PUSH2 0x100 DUP1 DUP4 SLOAD DIV MUL DUP4 MSTORE SWAP2 PUSH1 0x20 ADD SWAP2 PUSH2 0x14FA JUMP JUMPDEST DUP3 ADD SWAP2 SWAP1 PUSH0 MSTORE PUSH1 0x20 PUSH0 KECCAK256 SWAP1 JUMPDEST DUP2 SLOAD DUP2 MSTORE SWAP1 PUSH1 0x1 ADD SWAP1 PUSH1 0x20 ADD DUP1 DUP4 GT PUSH2 0x14DD JUMPI DUP3 SWAP1 SUB PUSH1 0x1F AND DUP3 ADD SWAP2 JUMPDEST POP POP POP POP POP DUP2 MSTORE PUSH1 0x20 ADD PUSH1 0x2 DUP3 ADD DUP1 SLOAD PUSH2 0x1513 SWAP1 PUSH2 0x4245 JUMP JUMPDEST DUP1 PUSH1 0x1F ADD PUSH1 0x20 DUP1 SWAP2 DIV MUL PUSH1 0x20 ADD PUSH1 0x40 MLOAD SWAP1 DUP2 ADD PUSH1 0x40 MSTORE DUP1 SWAP3 SWAP2 SWAP1 DUP2 DUP2 MSTORE PUSH1 0x20 ADD DUP3 DUP1 SLOAD PUSH2 0x153F SWAP1 PUSH2 0x4245 JUMP JUMPDEST DUP1 ISZERO PUSH2 0x158A JUMPI DUP1 PUSH1 0x1F LT PUSH2 0x1561 JUMPI PUSH2 0x100 DUP1 DUP4 SLOAD DIV MUL DUP4 MSTORE SWAP2 PUSH1 0x20 ADD SWAP2 PUSH2 0x158A JUMP JUMPDEST DUP3 ADD SWAP2 SWAP1 PUSH0 MSTORE PUSH1 0x20 PUSH0 KECCAK256 SWAP1 JUMPDEST DUP2 SLOAD DUP2 MSTORE SWAP1 PUSH1 0x1 ADD SWAP1 PUSH1 0x20 ADD DUP1 DUP4 GT PUSH2 0x156D JUMPI DUP3 SWAP1 SUB PUSH1 0x1F AND DUP3 ADD SWAP2 JUMPDEST POP POP POP POP POP DUP2 MSTORE PUSH1 0x20 ADD PUSH1 0x3 DUP3 ADD DUP1 SLOAD PUSH2 0x15A3 SWAP1 PUSH2 0x4245 JUMP JUMPDEST DUP1 PUSH1 0x1F ADD PUSH1 0x20 DUP1 SWAP2 DIV MUL PUSH1 0x20 ADD PUSH1 0x40 MLOAD SWAP1 DUP2 ADD PUSH1 0x40 MSTORE DUP1 SWAP3 SWAP2 SWAP1 DUP2 DUP2 MSTORE PUSH1 0x20 ADD DUP3 DUP1 SLOAD PUSH2 0x15CF SWAP1 PUSH2 0x4245 JUMP JUMPDEST DUP1 ISZERO PUSH2 0x161A JUMPI DUP1 PUSH1 0x1F LT PUSH2 0x15F1 JUMPI PUSH2 0x100 DUP1 DUP4 SLOAD DIV MUL DUP4 MSTORE SWAP2 PUSH1 0x20 ADD SWAP2 PUSH2 0x161A JUMP JUMPDEST DUP3 ADD SWAP2 SWAP1 PUSH0 MSTORE PUSH1 0x20 PUSH0 KECCAK256 SWAP1 JUMPDEST DUP2 SLOAD DUP2 MSTORE SWAP1 PUSH1 0x1 ADD SWAP1 PUSH1 0x20 ADD DUP1 DUP4 GT PUSH2 0x15FD JUMPI DUP3 SWAP1 SUB PUSH1 0x1F AND DUP3 ADD SWAP2 JUMPDEST POP POP POP POP POP DUP2 MSTORE PUSH1 0x20 ADD PUSH1 0x4 DUP3 ADD SLOAD DUP2 MSTORE PUSH1 0x20 ADD PUSH1 0x5 DUP3 ADD PUSH0 SWAP1 SLOAD SWAP1 PUSH2 0x100 EXP SWAP1 DIV PUSH1 0xFF AND ISZERO ISZERO ISZERO ISZERO DUP2 MSTORE PUSH1 0x20 ADD PUSH1 0x5 DUP3 ADD PUSH1 0x1 SWAP1 SLOAD SWAP1 PUSH2 0x100 EXP SWAP1 DIV PUSH20 0xFFFFFFFFFFFFFFFFFFFFFFFFFFFFFFFFFFFFFFFF AND PUSH20 0xFFFFFFFFFFFFFFFFFFFFFFFFFFFFFFFFFFFFFFFF AND PUSH20 0xFFFFFFFFFFFFFFFFFFFFFFFFFFFFFFFFFFFFFFFF AND DUP2 MSTORE PUSH1 0x20 ADD PUSH1 0x6 DUP3 ADD SLOAD DUP2 MSTORE PUSH1 0x20 ADD PUSH1 0x7 DUP3 ADD DUP1 SLOAD PUSH2 0x16B7 SWAP1 PUSH2 0x4245 JUMP JUMPDEST DUP1 PUSH1 0x1F ADD PUSH1 0x20 DUP1 SWAP2 DIV MUL PUSH1 0x20 ADD PUSH1 0x40 MLOAD SWAP1 DUP2 ADD PUSH1 0x40 MSTORE DUP1 SWAP3 SWAP2 SWAP1 DUP2 DUP2 MSTORE PUSH1 0x20 ADD DUP3 DUP1 SLOAD PUSH2 0x16E3 SWAP1 PUSH2 0x4245 JUMP JUMPDEST DUP1 ISZERO PUSH2 0x172E JUMPI DUP1 PUSH1 0x1F LT PUSH2 0x1705 JUMPI PUSH2 0x100 DUP1 DUP4 SLOAD DIV MUL DUP4 MSTORE SWAP2 PUSH1 0x20 ADD SWAP2 PUSH2 0x172E JUMP JUMPDEST DUP3 ADD SWAP2 SWAP1 PUSH0 MSTORE PUSH1 0x20 PUSH0 KECCAK256 SWAP1 JUMPDEST DUP2 SLOAD DUP2 MSTORE SWAP1 PUSH1 0x1 ADD SWAP1 PUSH1 0x20 ADD DUP1 DUP4 GT PUSH2 0x1711 JUMPI DUP3 SWAP1 SUB PUSH1 0x1F AND DUP3 ADD SWAP2 JUMPDEST POP POP POP POP POP DUP2 MSTORE POP POP SWAP1 POP SWAP2 SWAP1 POP JUMP JUMPDEST PUSH0 PUSH1 0x7 PUSH0 DUP5 DUP2 MSTORE PUSH1 0x20 ADD SWAP1 DUP2 MSTORE PUSH1 0x20 ADD PUSH0 KECCAK256 PUSH0 ADD PUSH0 DUP4 PUSH20 0xFFFFFFFFFFFFFFFFFFFFFFFFFFFFFFFFFFFFFFFF AND PUSH20 0xFFFFFFFFFFFFFFFFFFFFFFFFFFFFFFFFFFFFFFFF AND DUP2 MSTORE PUSH1 0x20 ADD SWAP1 DUP2 MSTORE PUSH1 0x20 ADD PUSH0 KECCAK256 PUSH0 SWAP1 SLOAD SWAP1 PUSH2 0x100 EXP SWAP1 DIV PUSH1 0xFF AND SWAP1 POP SWAP3 SWAP2 POP POP JUMP JUMPDEST PUSH0 PUSH20 0xFFFFFFFFFFFFFFFFFFFFFFFFFFFFFFFFFFFFFFFF AND PUSH2 0x17C2 DUP4 PUSH2 0x2803 JUMP JUMPDEST PUSH20 0xFFFFFFFFFFFFFFFFFFFFFFFFFFFFFFFFFFFFFFFF AND SUB PUSH2 0x180F JUMPI PUSH1 0x40 MLOAD PUSH32 0x13EFFF000000000000000000000000000000000000000000000000000000000 DUP2 MSTORE PUSH1 0x4 ADD PUSH1 0x40 MLOAD DUP1 SWAP2 SUB SWAP1 REVERT JUMPDEST PUSH0 PUSH2 0x1819 DUP4 PUSH2 0xC3D JUMP JUMPDEST SWAP1 POP DUP1 PUSH20 0xFFFFFFFFFFFFFFFFFFFFFFFFFFFFFFFFFFFFFFFF AND CALLER PUSH20 0xFFFFFFFFFFFFFFFFFFFFFFFFFFFFFFFFFFFFFFFF AND EQ ISZERO DUP1 ISZERO PUSH2 0x18B7 JUMPI POP PUSH1 0xC PUSH0 DUP5 DUP2 MSTORE PUSH1 0x20 ADD SWAP1 DUP2 MSTORE PUSH1 0x20 ADD PUSH0 KECCAK256 PUSH1 0x5 ADD PUSH1 0x1 SWAP1 SLOAD SWAP1 PUSH2 0x100 EXP SWAP1 DIV PUSH20 0xFFFFFFFFFFFFFFFFFFFFFFFFFFFFFFFFFFFFFFFF AND PUSH20 0xFFFFFFFFFFFFFFFFFFFFFFFFFFFFFFFFFFFFFFFF AND CALLER PUSH20 0xFFFFFFFFFFFFFFFFFFFFFFFFFFFFFFFFFFFFFFFF AND EQ ISZERO JUMPDEST DUP1 ISZERO PUSH2 0x18CC JUMPI POP PUSH2 0x18CA PUSH0 PUSH0 SHL CALLER PUSH2 0x173E JUMP JUMPDEST ISZERO JUMPDEST ISZERO PUSH2 0x1903 JUMPI PUSH1 0x40 MLOAD PUSH32 0xEA8E4EB500000000000000000000000000000000000000000000000000000000 DUP2 MSTORE PUSH1 0x4 ADD PUSH1 0x40 MLOAD DUP1 SWAP2 SUB SWAP1 REVERT JUMPDEST PUSH0 PUSH1 0xC PUSH0 DUP6 DUP2 MSTORE PUSH1 0x20 ADD SWAP1 DUP2 MSTORE PUSH1 0x20 ADD PUSH0 KECCAK256 PUSH1 0x5 ADD PUSH0 PUSH2 0x100 EXP DUP2 SLOAD DUP2 PUSH1 0xFF MUL NOT AND SWAP1 DUP4 ISZERO ISZERO MUL OR SWAP1 SSTORE POP TIMESTAMP PUSH1 0xC PUSH0 DUP6 DUP2 MSTORE PUSH1 0x20 ADD SWAP1 DUP2 MSTORE PUSH1 0x20 ADD PUSH0 KECCAK256 PUSH1 0x6 ADD DUP2 SWAP1 SSTORE POP PUSH2 0x1951 DUP2 DUP5 PUSH2 0x289E JUMP JUMPDEST PUSH1 0xE PUSH1 0xC PUSH0 DUP6 DUP2 MSTORE PUSH1 0x20 ADD SWAP1 DUP2 MSTORE PUSH1 0x20 ADD PUSH0 KECCAK256 PUSH1 0x7 ADD PUSH1 0x40 MLOAD PUSH2 0x1974 SWAP2 SWAP1 PUSH2 0x46CA JUMP JUMPDEST SWAP1 DUP2 MSTORE PUSH1 0x20 ADD PUSH1 0x40 MLOAD DUP1 SWAP2 SUB SWAP1 KECCAK256 PUSH0 DUP2 SLOAD DUP1 SWAP3 SWAP2 SWAP1 PUSH2 0x1992 SWAP1 PUSH2 0x46E0 JUMP JUMPDEST SWAP2 SWAP1 POP SSTORE POP PUSH2 0x19A0 DUP4 PUSH2 0x2998 JUMP JUMPDEST DUP3 PUSH32 0x37EC22ACF5D9778EA37B449F7834D99ACB0C9632E381D2CEBA59480D79CA91A7 DUP4 PUSH1 0x40 MLOAD PUSH2 0x19D0 SWAP2 SWAP1 PUSH2 0x376A JUMP JUMPDEST PUSH1 0x40 MLOAD DUP1 SWAP2 SUB SWAP1 LOG2 POP POP POP JUMP JUMPDEST PUSH1 0x60 PUSH1 0x1 DUP1 SLOAD PUSH2 0x19EC SWAP1 PUSH2 0x4245 JUMP JUMPDEST DUP1 PUSH1 0x1F ADD PUSH1 0x20 DUP1 SWAP2 DIV MUL PUSH1 0x20 ADD PUSH1 0x40 MLOAD SWAP1 DUP2 ADD PUSH1 0x40 MSTORE DUP1 SWAP3 SWAP2 SWAP1 DUP2 DUP2 MSTORE PUSH1 0x20 ADD DUP3 DUP1 SLOAD PUSH2 0x1A18 SWAP1 PUSH2 0x4245 JUMP JUMPDEST DUP1 ISZERO PUSH2 0x1A63 JUMPI DUP1 PUSH1 0x1F LT PUSH2 0x1A3A JUMPI PUSH2 0x100 DUP1 DUP4 SLOAD DIV MUL DUP4 MSTORE SWAP2 PUSH1 0x20 ADD SWAP2 PUSH2 0x1A63 JUMP JUMPDEST DUP3 ADD SWAP2 SWAP1 PUSH0 MSTORE PUSH1 0x20 PUSH0 KECCAK256 SWAP1 JUMPDEST DUP2 SLOAD DUP2 MSTORE SWAP1 PUSH1 0x1 ADD SWAP1 PUSH1 0x20 ADD DUP1 DUP4 GT PUSH2 0x1A46 JUMPI DUP3 SWAP1 SUB PUSH1 0x1F AND DUP3 ADD SWAP2 JUMPDEST POP POP POP POP POP SWAP1 POP SWAP1 JUMP JUMPDEST PUSH0 PUSH0 SHL DUP2 JUMP JUMPDEST PUSH2 0x1A85 PUSH2 0x1A7E PUSH2 0x2211 JUMP JUMPDEST DUP4 DUP4 PUSH2 0x2A1A JUMP JUMPDEST POP POP JUMP JUMPDEST PUSH32 0x0 DUP2 JUMP JUMPDEST PUSH2 0x1AB8 DUP5 DUP5 DUP5 PUSH2 0x860 JUMP JUMPDEST PUSH2 0x1ACC PUSH2 0x1AC3 PUSH2 0x2211 JUMP JUMPDEST DUP6 DUP6 DUP6 DUP6 PUSH2 0x2B83 JUMP JUMPDEST POP POP POP POP JUMP JUMPDEST PUSH0 PUSH1 0xE DUP3 PUSH1 0x40 MLOAD PUSH2 0x1AE3 SWAP2 SWAP1 PUSH2 0x45BE JUMP JUMPDEST SWAP1 DUP2 MSTORE PUSH1 0x20 ADD PUSH1 0x40 MLOAD DUP1 SWAP2 SUB SWAP1 KECCAK256 SLOAD SWAP1 POP SWAP2 SWAP1 POP JUMP JUMPDEST PUSH1 0x60 PUSH1 0xD PUSH0 DUP4 PUSH20 0xFFFFFFFFFFFFFFFFFFFFFFFFFFFFFFFFFFFFFFFF AND PUSH20 0xFFFFFFFFFFFFFFFFFFFFFFFFFFFFFFFFFFFFFFFF AND DUP2 MSTORE PUSH1 0x20 ADD SWAP1 DUP2 MSTORE PUSH1 0x20 ADD PUSH0 KECCAK256 DUP1 SLOAD DUP1 PUSH1 0x20 MUL PUSH1 0x20 ADD PUSH1 0x40 MLOAD SWAP1 DUP2 ADD PUSH1 0x40 MSTORE DUP1 SWAP3 SWAP2 SWAP1 DUP2 DUP2 MSTORE PUSH1 0x20 ADD DUP3 DUP1 SLOAD DUP1 ISZERO PUSH2 0x1B80 JUMPI PUSH1 0x20 MUL DUP3 ADD SWAP2 SWAP1 PUSH0 MSTORE PUSH1 0x20 PUSH0 KECCAK256 SWAP1 JUMPDEST DUP2 SLOAD DUP2 MSTORE PUSH1 0x20 ADD SWAP1 PUSH1 0x1 ADD SWAP1 DUP1 DUP4 GT PUSH2 0x1B6C JUMPI JUMPDEST POP POP POP POP POP SWAP1 POP SWAP2 SWAP1 POP JUMP JUMPDEST PUSH1 0x60 PUSH0 PUSH20 0xFFFFFFFFFFFFFFFFFFFFFFFFFFFFFFFFFFFFFFFF AND PUSH2 0x1BAE DUP4 PUSH2 0x2803 JUMP JUMPDEST PUSH20 0xFFFFFFFFFFFFFFFFFFFFFFFFFFFFFFFFFFFFFFFF AND SUB PUSH2 0x1BFB JUMPI PUSH1 0x40 MLOAD PUSH32 0x13EFFF000000000000000000000000000000000000000000000000000000000 DUP2 MSTORE PUSH1 0x4 ADD PUSH1 0x40 MLOAD DUP1 SWAP2 SUB SWAP1 REVERT JUMPDEST PUSH1 0xB PUSH1 0xC PUSH0 DUP5 DUP2 MSTORE PUSH1 0x20 ADD SWAP1 DUP2 MSTORE PUSH1 0x20 ADD PUSH0 KECCAK256 PUSH1 0x3 ADD PUSH1 0xC PUSH0 DUP6 DUP2 MSTORE PUSH1 0x20 ADD SWAP1 DUP2 MSTORE PUSH1 0x20 ADD PUSH0 KECCAK256 PUSH0 ADD PUSH1 0xC PUSH0 DUP7 DUP2 MSTORE PUSH1 0x20 ADD SWAP1 DUP2 MSTORE PUSH1 0x20 ADD PUSH0 KECCAK256 PUSH1 0x7 ADD PUSH1 0x40 MLOAD PUSH1 0x20 ADD PUSH2 0x1C4B SWAP5 SWAP4 SWAP3 SWAP2 SWAP1 PUSH2 0x479B JUMP JUMPDEST PUSH1 0x40 MLOAD PUSH1 0x20 DUP2 DUP4 SUB SUB DUP2 MSTORE SWAP1 PUSH1 0x40 MSTORE SWAP1 POP SWAP2 SWAP1 POP JUMP JUMPDEST PUSH32 0x9F2DF0FED2C77648DE5860A4CC508CD0818C85B8B8A1AB4CEEEF8D981C8956A6 DUP2 JUMP JUMPDEST PUSH2 0x1C8E DUP3 PUSH2 0x95F JUMP JUMPDEST PUSH2 0x1C97 DUP2 PUSH2 0x2325 JUMP JUMPDEST PUSH2 0x1CA1 DUP4 DUP4 PUSH2 0x2423 JUMP JUMPDEST POP POP POP POP JUMP JUMPDEST PUSH0 PUSH0 SHL PUSH2 0x1CB3 DUP2 PUSH2 0x2325 JUMP JUMPDEST PUSH0 PUSH20 0xFFFFFFFFFFFFFFFFFFFFFFFFFFFFFFFFFFFFFFFF AND PUSH2 0x1CD3 DUP5 PUSH2 0x2803 JUMP JUMPDEST PUSH20 0xFFFFFFFFFFFFFFFFFFFFFFFFFFFFFFFFFFFFFFFF AND SUB PUSH2 0x1D20 JUMPI PUSH1 0x40 MLOAD PUSH32 0x13EFFF000000000000000000000000000000000000000000000000000000000 DUP2 MSTORE PUSH1 0x4 ADD PUSH1 0x40 MLOAD DUP1 SWAP2 SUB SWAP1 REVERT JUMPDEST DUP2 PUSH1 0xC PUSH0 DUP6 DUP2 MSTORE PUSH1 0x20 ADD SWAP1 DUP2 MSTORE PUSH1 0x20 ADD PUSH0 KECCAK256 PUSH1 0x6 ADD DUP2 SWAP1 SSTORE POP POP POP POP JUMP JUMPDEST PUSH32 0xCE23C3E399818CFEE81A7AB0880F714E53D7672B08DF0FA62F2843416E1EA09 DUP2 JUMP JUMPDEST PUSH0 PUSH1 0x5 PUSH0 DUP5 PUSH20 0xFFFFFFFFFFFFFFFFFFFFFFFFFFFFFFFFFFFFFFFF AND PUSH20 0xFFFFFFFFFFFFFFFFFFFFFFFFFFFFFFFFFFFFFFFF AND DUP2 MSTORE PUSH1 0x20 ADD SWAP1 DUP2 MSTORE PUSH1 0x20 ADD PUSH0 KECCAK256 PUSH0 DUP4 PUSH20 0xFFFFFFFFFFFFFFFFFFFFFFFFFFFFFFFFFFFFFFFF AND PUSH20 0xFFFFFFFFFFFFFFFFFFFFFFFFFFFFFFFFFFFFFFFF AND DUP2 MSTORE PUSH1 0x20 ADD SWAP1 DUP2 MSTORE PUSH1 0x20 ADD PUSH0 KECCAK256 PUSH0 SWAP1 SLOAD SWAP1 PUSH2 0x100 EXP SWAP1 DIV PUSH1 0xFF AND SWAP1 POP SWAP3 SWAP2 POP POP JUMP JUMPDEST PUSH0 PUSH20 0xFFFFFFFFFFFFFFFFFFFFFFFFFFFFFFFFFFFFFFFF AND PUSH2 0x1E10 DUP3 PUSH2 0x2803 JUMP JUMPDEST PUSH20 0xFFFFFFFFFFFFFFFFFFFFFFFFFFFFFFFFFFFFFFFF AND SUB PUSH2 0x1E5D JUMPI PUSH1 0x40 MLOAD PUSH32 0x13EFFF000000000000000000000000000000000000000000000000000000000 DUP2 MSTORE PUSH1 0x4 ADD PUSH1 0x40 MLOAD DUP1 SWAP2 SUB SWAP1 REVERT JUMPDEST PUSH32 0x0 PUSH20 0xFFFFFFFFFFFFFFFFFFFFFFFFFFFFFFFFFFFFFFFF AND CALLER PUSH20 0xFFFFFFFFFFFFFFFFFFFFFFFFFFFFFFFFFFFFFFFF AND EQ ISZERO DUP1 ISZERO PUSH2 0x1EE0 JUMPI POP PUSH2 0x1EDE PUSH32 0xCE23C3E399818CFEE81A7AB0880F714E53D7672B08DF0FA62F2843416E1EA09 CALLER PUSH2 0x173E JUMP JUMPDEST ISZERO JUMPDEST ISZERO PUSH2 0x1F17 JUMPI PUSH1 0x40 MLOAD PUSH32 0xEA8E4EB500000000000000000000000000000000000000000000000000000000 DUP2 MSTORE PUSH1 0x4 ADD PUSH1 0x40 MLOAD DUP1 SWAP2 SUB SWAP1 REVERT JUMPDEST PUSH1 0xC PUSH0 DUP3 DUP2 MSTORE PUSH1 0x20 ADD SWAP1 DUP2 MSTORE PUSH1 0x20 ADD PUSH0 KECCAK256 PUSH1 0x5 ADD PUSH0 SWAP1 SLOAD SWAP1 PUSH2 0x100 EXP SWAP1 DIV PUSH1 0xFF AND ISZERO PUSH2 0x1F6F JUMPI PUSH1 0x40 MLOAD PUSH32 0x118FD7B800000000000000000000000000000000000000000000000000000000 DUP2 MSTORE PUSH1 0x4 ADD PUSH1 0x40 MLOAD DUP1 SWAP2 SUB SWAP1 REVERT JUMPDEST PUSH1 0x1 PUSH1 0xC PUSH0 DUP4 DUP2 MSTORE PUSH1 0x20 ADD SWAP1 DUP2 MSTORE PUSH1 0x20 ADD PUSH0 KECCAK256 PUSH1 0x5 ADD PUSH0 PUSH2 0x100 EXP DUP2 SLOAD DUP2 PUSH1 0xFF MUL NOT AND SWAP1 DUP4 ISZERO ISZERO MUL OR SWAP1 SSTORE POP CALLER PUSH20 0xFFFFFFFFFFFFFFFFFFFFFFFFFFFFFFFFFFFFFFFF AND DUP2 PUSH32 0xC3C860BC3D914100FBCE06D39B8B5198E8DF7DB490AF5C5EA04DAF26D2728BE6 PUSH1 0x40 MLOAD PUSH1 0x40 MLOAD DUP1 SWAP2 SUB SWAP1 LOG3 PUSH0 PUSH20 0xFFFFFFFFFFFFFFFFFFFFFFFFFFFFFFFFFFFFFFFF AND PUSH32 0x0 PUSH20 0xFFFFFFFFFFFFFFFFFFFFFFFFFFFFFFFFFFFFFFFF AND EQ PUSH2 0x20B9 JUMPI PUSH32 0x0 PUSH20 0xFFFFFFFFFFFFFFFFFFFFFFFFFFFFFFFFFFFFFFFF AND PUSH4 0xC0008D0C CALLER PUSH1 0x40 MLOAD DUP3 PUSH4 0xFFFFFFFF AND PUSH1 0xE0 SHL DUP2 MSTORE PUSH1 0x4 ADD PUSH2 0x208B SWAP2 SWAP1 PUSH2 0x4838 JUMP JUMPDEST PUSH0 PUSH1 0x40 MLOAD DUP1 DUP4 SUB DUP2 PUSH0 DUP8 DUP1 EXTCODESIZE ISZERO DUP1 ISZERO PUSH2 0x20A2 JUMPI PUSH0 PUSH0 REVERT JUMPDEST POP GAS CALL ISZERO DUP1 ISZERO PUSH2 0x20B4 JUMPI RETURNDATASIZE PUSH0 PUSH0 RETURNDATACOPY RETURNDATASIZE PUSH0 REVERT JUMPDEST POP POP POP POP JUMPDEST POP JUMP JUMPDEST PUSH1 0xF PUSH1 0x20 MSTORE DUP1 PUSH0 MSTORE PUSH1 0x40 PUSH0 KECCAK256 PUSH0 SWAP2 POP SLOAD SWAP1 PUSH2 0x100 EXP SWAP1 DIV PUSH1 0xFF AND DUP2 JUMP JUMPDEST PUSH0 PUSH32 0x7965DB0B00000000000000000000000000000000000000000000000000000000 PUSH28 0xFFFFFFFFFFFFFFFFFFFFFFFFFFFFFFFFFFFFFFFFFFFFFFFFFFFFFFFF NOT AND DUP3 PUSH28 0xFFFFFFFFFFFFFFFFFFFFFFFFFFFFFFFFFFFFFFFFFFFFFFFFFFFFFFFF NOT AND EQ DUP1 PUSH2 0x214B JUMPI POP PUSH2 0x214A DUP3 PUSH2 0x2D2F JUMP JUMPDEST JUMPDEST SWAP1 POP SWAP2 SWAP1 POP JUMP JUMPDEST PUSH0 PUSH0 PUSH2 0x215D DUP4 PUSH2 0x2803 JUMP JUMPDEST SWAP1 POP PUSH0 PUSH20 0xFFFFFFFFFFFFFFFFFFFFFFFFFFFFFFFFFFFFFFFF AND DUP2 PUSH20 0xFFFFFFFFFFFFFFFFFFFFFFFFFFFFFFFFFFFFFFFF AND SUB PUSH2 0x21CF JUMPI DUP3 PUSH1 0x40 MLOAD PUSH32 0x7E27328900000000000000000000000000000000000000000000000000000000 DUP2 MSTORE PUSH1 0x4 ADD PUSH2 0x21C6 SWAP2 SWAP1 PUSH2 0x38B7 JUMP JUMPDEST PUSH1 0x40 MLOAD DUP1 SWAP2 SUB SWAP1 REVERT JUMPDEST DUP1 SWAP2 POP POP SWAP2 SWAP1 POP JUMP JUMPDEST PUSH0 PUSH1 0x4 PUSH0 DUP4 DUP2 MSTORE PUSH1 0x20 ADD SWAP1 DUP2 MSTORE PUSH1 0x20 ADD PUSH0 KECCAK256 PUSH0 SWAP1 SLOAD SWAP1 PUSH2 0x100 EXP SWAP1 DIV PUSH20 0xFFFFFFFFFFFFFFFFFFFFFFFFFFFFFFFFFFFFFFFF AND SWAP1 POP SWAP2 SWAP1 POP JUMP JUMPDEST PUSH0 CALLER SWAP1 POP SWAP1 JUMP JUMPDEST PUSH2 0x2225 DUP4 DUP4 DUP4 PUSH1 0x1 PUSH2 0x2D8F JUMP JUMPDEST POP POP POP JUMP JUMPDEST PUSH0 PUSH0 PUSH2 0x2235 DUP5 PUSH2 0x2803 JUMP JUMPDEST SWAP1 POP PUSH0 PUSH20 0xFFFFFFFFFFFFFFFFFFFFFFFFFFFFFFFFFFFFFFFF AND DUP2 PUSH20 0xFFFFFFFFFFFFFFFFFFFFFFFFFFFFFFFFFFFFFFFF AND EQ ISZERO DUP1 ISZERO PUSH2 0x229F JUMPI POP PUSH0 PUSH20 0xFFFFFFFFFFFFFFFFFFFFFFFFFFFFFFFFFFFFFFFF AND DUP6 PUSH20 0xFFFFFFFFFFFFFFFFFFFFFFFFFFFFFFFFFFFFFFFF AND EQ ISZERO JUMPDEST ISZERO PUSH2 0x2310 JUMPI PUSH2 0x22AE DUP2 DUP6 PUSH2 0x289E JUMP JUMPDEST PUSH1 0xD PUSH0 DUP7 PUSH20 0xFFFFFFFFFFFFFFFFFFFFFFFFFFFFFFFFFFFFFFFF AND PUSH20 0xFFFFFFFFFFFFFFFFFFFFFFFFFFFFFFFFFFFFFFFF AND DUP2 MSTORE PUSH1 0x20 ADD SWAP1 DUP2 MSTORE PUSH1 0x20 ADD PUSH0 KECCAK256 DUP5 SWAP1 DUP1 PUSH1 0x1 DUP2 SLOAD ADD DUP1 DUP3 SSTORE DUP1 SWAP2 POP POP PUSH1 0x1 SWAP1 SUB SWAP1 PUSH0 MSTORE PUSH1 0x20 PUSH0 KECCAK256 ADD PUSH0 SWAP1 SWAP2 SWAP1 SWAP2 SWAP1 SWAP2 POP SSTORE JUMPDEST PUSH2 0x231B DUP6 DUP6 DUP6 PUSH2 0x2F4E JUMP JUMPDEST SWAP2 POP POP SWAP4 SWAP3 POP POP POP JUMP JUMPDEST PUSH2 0x2336 DUP2 PUSH2 0x2331 PUSH2 0x2211 JUMP JUMPDEST PUSH2 0x3159 JUMP JUMPDEST POP JUMP JUMPDEST PUSH0 PUSH2 0x2344 DUP4 DUP4 PUSH2 0x173E JUMP JUMPDEST PUSH2 0x2419 JUMPI PUSH1 0x1 PUSH1 0x7 PUSH0 DUP6 DUP2 MSTORE PUSH1 0x20 ADD SWAP1 DUP2 MSTORE PUSH1 0x20 ADD PUSH0 KECCAK256 PUSH0 ADD PUSH0 DUP5 PUSH20 0xFFFFFFFFFFFFFFFFFFFFFFFFFFFFFFFFFFFFFFFF AND PUSH20 0xFFFFFFFFFFFFFFFFFFFFFFFFFFFFFFFFFFFFFFFF AND DUP2 MSTORE PUSH1 0x20 ADD SWAP1 DUP2 MSTORE PUSH1 0x20 ADD PUSH0 KECCAK256 PUSH0 PUSH2 0x100 EXP DUP2 SLOAD DUP2 PUSH1 0xFF MUL NOT AND SWAP1 DUP4 ISZERO ISZERO MUL OR SWAP1 SSTORE POP PUSH2 0x23B6 PUSH2 0x2211 JUMP JUMPDEST PUSH20 0xFFFFFFFFFFFFFFFFFFFFFFFFFFFFFFFFFFFFFFFF AND DUP3 PUSH20 0xFFFFFFFFFFFFFFFFFFFFFFFFFFFFFFFFFFFFFFFF AND DUP5 PUSH32 0x2F8788117E7EFF1D82E926EC794901D17C78024A50270940304540A733656F0D PUSH1 0x40 MLOAD PUSH1 0x40 MLOAD DUP1 SWAP2 SUB SWAP1 LOG4 PUSH1 0x1 SWAP1 POP PUSH2 0x241D JUMP JUMPDEST PUSH0 SWAP1 POP JUMPDEST SWAP3 SWAP2 POP POP JUMP JUMPDEST PUSH0 PUSH2 0x242E DUP4 DUP4 PUSH2 0x173E JUMP JUMPDEST ISZERO PUSH2 0x2503 JUMPI PUSH0 PUSH1 0x7 PUSH0 DUP6 DUP2 MSTORE PUSH1 0x20 ADD SWAP1 DUP2 MSTORE PUSH1 0x20 ADD PUSH0 KECCAK256 PUSH0 ADD PUSH0 DUP5 PUSH20 0xFFFFFFFFFFFFFFFFFFFFFFFFFFFFFFFFFFFFFFFF AND PUSH20 0xFFFFFFFFFFFFFFFFFFFFFFFFFFFFFFFFFFFFFFFF AND DUP2 MSTORE PUSH1 0x20 ADD SWAP1 DUP2 MSTORE PUSH1 0x20 ADD PUSH0 KECCAK256 PUSH0 PUSH2 0x100 EXP DUP2 SLOAD DUP2 PUSH1 0xFF MUL NOT AND SWAP1 DUP4 ISZERO ISZERO MUL OR SWAP1 SSTORE POP PUSH2 0x24A0 PUSH2 0x2211 JUMP JUMPDEST PUSH20 0xFFFFFFFFFFFFFFFFFFFFFFFFFFFFFFFFFFFFFFFF AND DUP3 PUSH20 0xFFFFFFFFFFFFFFFFFFFFFFFFFFFFFFFFFFFFFFFF AND DUP5 PUSH32 0xF6391F5C32D9C69D2A47EA670B442974B53935D1EDC7FD64EB21E047A839171B PUSH1 0x40 MLOAD PUSH1 0x40 MLOAD DUP1 SWAP2 SUB SWAP1 LOG4 PUSH1 0x1 SWAP1 POP PUSH2 0x2507 JUMP JUMPDEST PUSH0 SWAP1 POP JUMPDEST SWAP3 SWAP2 POP POP JUMP JUMPDEST PUSH2 0x2515 PUSH2 0x31AA JUMP JUMPDEST PUSH0 PUSH1 0x8 PUSH0 PUSH2 0x100 EXP DUP2 SLOAD DUP2 PUSH1 0xFF MUL NOT AND SWAP1 DUP4 ISZERO ISZERO MUL OR SWAP1 SSTORE POP PUSH32 0x5DB9EE0A495BF2E6FF9C91A7834C1BA4FDD244A5E8AA4E537BD38AEAE4B073AA PUSH2 0x2557 PUSH2 0x2211 JUMP JUMPDEST PUSH1 0x40 MLOAD PUSH2 0x2564 SWAP2 SWAP1 PUSH2 0x3827 JUMP JUMPDEST PUSH1 0x40 MLOAD DUP1 SWAP2 SUB SWAP1 LOG1 JUMP JUMPDEST PUSH1 0x2 PUSH1 0x9 SLOAD SUB PUSH2 0x25B3 JUMPI PUSH1 0x40 MLOAD PUSH32 0x8C379A000000000000000000000000000000000000000000000000000000000 DUP2 MSTORE PUSH1 0x4 ADD PUSH2 0x25AA SWAP1 PUSH2 0x48AE JUMP JUMPDEST PUSH1 0x40 MLOAD DUP1 SWAP2 SUB SWAP1 REVERT JUMPDEST PUSH1 0x2 PUSH1 0x9 DUP2 SWAP1 SSTORE POP JUMP JUMPDEST PUSH2 0x25C5 PUSH2 0xC28 JUMP JUMPDEST ISZERO PUSH2 0x2605 JUMPI PUSH1 0x40 MLOAD PUSH32 0x8C379A000000000000000000000000000000000000000000000000000000000 DUP2 MSTORE PUSH1 0x4 ADD PUSH2 0x25FC SWAP1 PUSH2 0x4916 JUMP JUMPDEST PUSH1 0x40 MLOAD DUP1 SWAP2 SUB SWAP1 REVERT JUMPDEST JUMP JUMPDEST PUSH1 0x60 PUSH0 DUP3 DUP1 MLOAD SWAP1 PUSH1 0x20 ADD KECCAK256 SWAP1 POP PUSH32 0x33D214A7C63AD0EBD322697D0AE9662F548CB21A426F70F837BD9E1B007EF08 DUP2 SUB PUSH2 0x2679 JUMPI PUSH1 0x40 MLOAD DUP1 PUSH1 0x40 ADD PUSH1 0x40 MSTORE DUP1 PUSH1 0x9 DUP2 MSTORE PUSH1 0x20 ADD PUSH32 0x656475636174696F6E0000000000000000000000000000000000000000000000 DUP2 MSTORE POP SWAP2 POP POP PUSH2 0x277D JUMP JUMPDEST PUSH32 0x35CCB746F3DCF97034FFB4BF44C17AD8966544874BD2060E3FB3CB6C69D1893C DUP2 SUB PUSH2 0x26DE JUMPI PUSH1 0x40 MLOAD DUP1 PUSH1 0x40 ADD PUSH1 0x40 MSTORE DUP1 PUSH1 0xA DUP2 MSTORE PUSH1 0x20 ADD PUSH32 0x657870657269656E636500000000000000000000000000000000000000000000 DUP2 MSTORE POP SWAP2 POP POP PUSH2 0x277D JUMP JUMPDEST PUSH32 0x80474B6A593FD3A2CB62C9D382C4901F538D2C61CA78AD0359AD670BBF60728F DUP2 SUB PUSH2 0x2743 JUMPI PUSH1 0x40 MLOAD DUP1 PUSH1 0x40 ADD PUSH1 0x40 MSTORE DUP1 PUSH1 0x5 DUP2 MSTORE PUSH1 0x20 ADD PUSH32 0x736B696C6C000000000000000000000000000000000000000000000000000000 DUP2 MSTORE POP SWAP2 POP POP PUSH2 0x277D JUMP JUMPDEST PUSH1 0x40 MLOAD DUP1 PUSH1 0x40 ADD PUSH1 0x40 MSTORE DUP1 PUSH1 0xD DUP2 MSTORE PUSH1 0x20 ADD PUSH32 0x63657274696669636174696F6E00000000000000000000000000000000000000 DUP2 MSTORE POP SWAP2 POP POP JUMPDEST SWAP2 SWAP1 POP JUMP JUMPDEST PUSH2 0x279B DUP3 DUP3 PUSH1 0x40 MLOAD DUP1 PUSH1 0x20 ADD PUSH1 0x40 MSTORE DUP1 PUSH0 DUP2 MSTORE POP PUSH2 0x31F3 JUMP JUMPDEST POP POP JUMP JUMPDEST DUP1 PUSH1 0x6 PUSH0 DUP5 DUP2 MSTORE PUSH1 0x20 ADD SWAP1 DUP2 MSTORE PUSH1 0x20 ADD PUSH0 KECCAK256 SWAP1 DUP2 PUSH2 0x27BD SWAP2 SWAP1 PUSH2 0x4441 JUMP JUMPDEST POP PUSH32 0xF8E1A15ABA9398E019F0B49DF1A4FDE98EE17AE345CB5F6B5E2C27F5033E8CE7 DUP3 PUSH1 0x40 MLOAD PUSH2 0x27ED SWAP2 SWAP1 PUSH2 0x38B7 JUMP JUMPDEST PUSH1 0x40 MLOAD DUP1 SWAP2 SUB SWAP1 LOG1 POP POP JUMP JUMPDEST PUSH1 0x1 PUSH1 0x9 DUP2 SWAP1 SSTORE POP JUMP JUMPDEST PUSH0 PUSH1 0x2 PUSH0 DUP4 DUP2 MSTORE PUSH1 0x20 ADD SWAP1 DUP2 MSTORE PUSH1 0x20 ADD PUSH0 KECCAK256 PUSH0 SWAP1 SLOAD SWAP1 PUSH2 0x100 EXP SWAP1 DIV PUSH20 0xFFFFFFFFFFFFFFFFFFFFFFFFFFFFFFFFFFFFFFFF AND SWAP1 POP SWAP2 SWAP1 POP JUMP JUMPDEST PUSH2 0x2844 PUSH2 0x25BD JUMP JUMPDEST PUSH1 0x1 PUSH1 0x8 PUSH0 PUSH2 0x100 EXP DUP2 SLOAD DUP2 PUSH1 0xFF MUL NOT AND SWAP1 DUP4 ISZERO ISZERO MUL OR SWAP1 SSTORE POP PUSH32 0x62E78CEA01BEE320CD4E420270B5EA74000D11B0C9F74754EBDBFC544B05A258 PUSH2 0x2887 PUSH2 0x2211 JUMP JUMPDEST PUSH1 0x40 MLOAD PUSH2 0x2894 SWAP2 SWAP1 PUSH2 0x3827 JUMP JUMPDEST PUSH1 0x40 MLOAD DUP1 SWAP2 SUB SWAP1 LOG1 JUMP JUMPDEST PUSH0 PUSH1 0xD PUSH0 DUP5 PUSH20 0xFFFFFFFFFFFFFFFFFFFFFFFFFFFFFFFFFFFFFFFF AND PUSH20 0xFFFFFFFFFFFFFFFFFFFFFFFFFFFFFFFFFFFFFFFF AND DUP2 MSTORE PUSH1 0x20 ADD SWAP1 DUP2 MSTORE PUSH1 0x20 ADD PUSH0 KECCAK256 SWAP1 POP PUSH0 PUSH0 SWAP1 POP JUMPDEST DUP2 DUP1 SLOAD SWAP1 POP DUP2 LT ISZERO PUSH2 0x2992 JUMPI DUP3 DUP3 DUP3 DUP2 SLOAD DUP2 LT PUSH2 0x2903 JUMPI PUSH2 0x2902 PUSH2 0x4934 JUMP JUMPDEST JUMPDEST SWAP1 PUSH0 MSTORE PUSH1 0x20 PUSH0 KECCAK256 ADD SLOAD SUB PUSH2 0x2985 JUMPI DUP2 PUSH1 0x1 DUP4 DUP1 SLOAD SWAP1 POP PUSH2 0x2923 SWAP2 SWAP1 PUSH2 0x4961 JUMP JUMPDEST DUP2 SLOAD DUP2 LT PUSH2 0x2934 JUMPI PUSH2 0x2933 PUSH2 0x4934 JUMP JUMPDEST JUMPDEST SWAP1 PUSH0 MSTORE PUSH1 0x20 PUSH0 KECCAK256 ADD SLOAD DUP3 DUP3 DUP2 SLOAD DUP2 LT PUSH2 0x2950 JUMPI PUSH2 0x294F PUSH2 0x4934 JUMP JUMPDEST JUMPDEST SWAP1 PUSH0 MSTORE PUSH1 0x20 PUSH0 KECCAK256 ADD DUP2 SWAP1 SSTORE POP DUP2 DUP1 SLOAD DUP1 PUSH2 0x296D JUMPI PUSH2 0x296C PUSH2 0x4994 JUMP JUMPDEST JUMPDEST PUSH1 0x1 SWAP1 SUB DUP2 DUP2 SWAP1 PUSH0 MSTORE PUSH1 0x20 PUSH0 KECCAK256 ADD PUSH0 SWAP1 SSTORE SWAP1 SSTORE PUSH2 0x2992 JUMP JUMPDEST DUP1 DUP1 PUSH1 0x1 ADD SWAP2 POP POP PUSH2 0x28E3 JUMP JUMPDEST POP POP POP POP JUMP JUMPDEST PUSH0 PUSH2 0x29A4 PUSH0 DUP4 PUSH0 PUSH2 0x222A JUMP JUMPDEST SWAP1 POP PUSH0 PUSH20 0xFFFFFFFFFFFFFFFFFFFFFFFFFFFFFFFFFFFFFFFF AND DUP2 PUSH20 0xFFFFFFFFFFFFFFFFFFFFFFFFFFFFFFFFFFFFFFFF AND SUB PUSH2 0x2A16 JUMPI DUP2 PUSH1 0x40 MLOAD PUSH32 0x7E27328900000000000000000000000000000000000000000000000000000000 DUP2 MSTORE PUSH1 0x4 ADD PUSH2 0x2A0D SWAP2 SWAP1 PUSH2 0x38B7 JUMP JUMPDEST PUSH1 0x40 MLOAD DUP1 SWAP2 SUB SWAP1 REVERT JUMPDEST POP POP JUMP JUMPDEST PUSH0 PUSH20 0xFFFFFFFFFFFFFFFFFFFFFFFFFFFFFFFFFFFFFFFF AND DUP3 PUSH20 0xFFFFFFFFFFFFFFFFFFFFFFFFFFFFFFFFFFFFFFFF AND SUB PUSH2 0x2A8A JUMPI DUP2 PUSH1 0x40 MLOAD PUSH32 0x5B08BA1800000000000000000000000000000000000000000000000000000000 DUP2 MSTORE PUSH1 0x4 ADD PUSH2 0x2A81 SWAP2 SWAP1 PUSH2 0x3827 JUMP JUMPDEST PUSH1 0x40 MLOAD DUP1 SWAP2 SUB SWAP1 REVERT JUMPDEST DUP1 PUSH1 0x5 PUSH0 DUP6 PUSH20 0xFFFFFFFFFFFFFFFFFFFFFFFFFFFFFFFFFFFFFFFF AND PUSH20 0xFFFFFFFFFFFFFFFFFFFFFFFFFFFFFFFFFFFFFFFF AND DUP2 MSTORE PUSH1 0x20 ADD SWAP1 DUP2 MSTORE PUSH1 0x20 ADD PUSH0 KECCAK256 PUSH0 DUP5 PUSH20 0xFFFFFFFFFFFFFFFFFFFFFFFFFFFFFFFFFFFFFFFF AND PUSH20 0xFFFFFFFFFFFFFFFFFFFFFFFFFFFFFFFFFFFFFFFF AND DUP2 MSTORE PUSH1 0x20 ADD SWAP1 DUP2 MSTORE PUSH1 0x20 ADD PUSH0 KECCAK256 PUSH0 PUSH2 0x100 EXP DUP2 SLOAD DUP2 PUSH1 0xFF MUL NOT AND SWAP1 DUP4 ISZERO ISZERO MUL OR SWAP1 SSTORE POP DUP2 PUSH20 0xFFFFFFFFFFFFFFFFFFFFFFFFFFFFFFFFFFFFFFFF AND DUP4 PUSH20 0xFFFFFFFFFFFFFFFFFFFFFFFFFFFFFFFFFFFFFFFF AND PUSH32 0x17307EAB39AB6107E8899845AD3D59BD9653F200F220920489CA2B5937696C31 DUP4 PUSH1 0x40 MLOAD PUSH2 0x2B76 SWAP2 SWAP1 PUSH2 0x36E1 JUMP JUMPDEST PUSH1 0x40 MLOAD DUP1 SWAP2 SUB SWAP1 LOG3 POP POP POP JUMP JUMPDEST PUSH0 DUP4 PUSH20 0xFFFFFFFFFFFFFFFFFFFFFFFFFFFFFFFFFFFFFFFF AND EXTCODESIZE GT ISZERO PUSH2 0x2D28 JUMPI DUP3 PUSH20 0xFFFFFFFFFFFFFFFFFFFFFFFFFFFFFFFFFFFFFFFF AND PUSH4 0x150B7A02 DUP7 DUP7 DUP6 DUP6 PUSH1 0x40 MLOAD DUP6 PUSH4 0xFFFFFFFF AND PUSH1 0xE0 SHL DUP2 MSTORE PUSH1 0x4 ADD PUSH2 0x2BE1 SWAP5 SWAP4 SWAP3 SWAP2 SWAP1 PUSH2 0x4A13 JUMP JUMPDEST PUSH1 0x20 PUSH1 0x40 MLOAD DUP1 DUP4 SUB DUP2 PUSH0 DUP8 GAS CALL SWAP3 POP POP POP DUP1 ISZERO PUSH2 0x2C1C JUMPI POP PUSH1 0x40 MLOAD RETURNDATASIZE PUSH1 0x1F NOT PUSH1 0x1F DUP3 ADD AND DUP3 ADD DUP1 PUSH1 0x40 MSTORE POP DUP2 ADD SWAP1 PUSH2 0x2C19 SWAP2 SWAP1 PUSH2 0x4A71 JUMP JUMPDEST PUSH1 0x1 JUMPDEST PUSH2 0x2C9D JUMPI RETURNDATASIZE DUP1 PUSH0 DUP2 EQ PUSH2 0x2C4A JUMPI PUSH1 0x40 MLOAD SWAP2 POP PUSH1 0x1F NOT PUSH1 0x3F RETURNDATASIZE ADD AND DUP3 ADD PUSH1 0x40 MSTORE RETURNDATASIZE DUP3 MSTORE RETURNDATASIZE PUSH0 PUSH1 0x20 DUP5 ADD RETURNDATACOPY PUSH2 0x2C4F JUMP JUMPDEST PUSH1 0x60 SWAP2 POP JUMPDEST POP PUSH0 DUP2 MLOAD SUB PUSH2 0x2C95 JUMPI DUP4 PUSH1 0x40 MLOAD PUSH32 0x64A0AE9200000000000000000000000000000000000000000000000000000000 DUP2 MSTORE PUSH1 0x4 ADD PUSH2 0x2C8C SWAP2 SWAP1 PUSH2 0x3827 JUMP JUMPDEST PUSH1 0x40 MLOAD DUP1 SWAP2 SUB SWAP1 REVERT JUMPDEST DUP1 MLOAD DUP2 PUSH1 0x20 ADD REVERT JUMPDEST PUSH4 0x150B7A02 PUSH1 0xE0 SHL PUSH28 0xFFFFFFFFFFFFFFFFFFFFFFFFFFFFFFFFFFFFFFFFFFFFFFFFFFFFFFFF NOT AND DUP2 PUSH28 0xFFFFFFFFFFFFFFFFFFFFFFFFFFFFFFFFFFFFFFFFFFFFFFFFFFFFFFFF NOT AND EQ PUSH2 0x2D26 JUMPI DUP4 PUSH1 0x40 MLOAD PUSH32 0x64A0AE9200000000000000000000000000000000000000000000000000000000 DUP2 MSTORE PUSH1 0x4 ADD PUSH2 0x2D1D SWAP2 SWAP1 PUSH2 0x3827 JUMP JUMPDEST PUSH1 0x40 MLOAD DUP1 SWAP2 SUB SWAP1 REVERT JUMPDEST POP JUMPDEST POP POP POP POP POP JUMP JUMPDEST PUSH0 PUSH4 0x49064906 PUSH1 0xE0 SHL PUSH28 0xFFFFFFFFFFFFFFFFFFFFFFFFFFFFFFFFFFFFFFFFFFFFFFFFFFFFFFFF NOT AND DUP3 PUSH28 0xFFFFFFFFFFFFFFFFFFFFFFFFFFFFFFFFFFFFFFFFFFFFFFFFFFFFFFFF NOT AND EQ DUP1 PUSH2 0x2D88 JUMPI POP PUSH2 0x2D87 DUP3 PUSH2 0x3216 JUMP JUMPDEST JUMPDEST SWAP1 POP SWAP2 SWAP1 POP JUMP JUMPDEST DUP1 DUP1 PUSH2 0x2DC7 JUMPI POP PUSH0 PUSH20 0xFFFFFFFFFFFFFFFFFFFFFFFFFFFFFFFFFFFFFFFF AND DUP3 PUSH20 0xFFFFFFFFFFFFFFFFFFFFFFFFFFFFFFFFFFFFFFFF AND EQ ISZERO JUMPDEST ISZERO PUSH2 0x2EF9 JUMPI PUSH0 PUSH2 0x2DD6 DUP5 PUSH2 0x2152 JUMP JUMPDEST SWAP1 POP PUSH0 PUSH20 0xFFFFFFFFFFFFFFFFFFFFFFFFFFFFFFFFFFFFFFFF AND DUP4 PUSH20 0xFFFFFFFFFFFFFFFFFFFFFFFFFFFFFFFFFFFFFFFF AND EQ ISZERO DUP1 ISZERO PUSH2 0x2E40 JUMPI POP DUP3 PUSH20 0xFFFFFFFFFFFFFFFFFFFFFFFFFFFFFFFFFFFFFFFF AND DUP2 PUSH20 0xFFFFFFFFFFFFFFFFFFFFFFFFFFFFFFFFFFFFFFFF AND EQ ISZERO JUMPDEST DUP1 ISZERO PUSH2 0x2E53 JUMPI POP PUSH2 0x2E51 DUP2 DUP5 PUSH2 0x1D62 JUMP JUMPDEST ISZERO JUMPDEST ISZERO PUSH2 0x2E95 JUMPI DUP3 PUSH1 0x40 MLOAD PUSH32 0xA9FBF51F00000000000000000000000000000000000000000000000000000000 DUP2 MSTORE PUSH1 0x4 ADD PUSH2 0x2E8C SWAP2 SWAP1 PUSH2 0x3827 JUMP JUMPDEST PUSH1 0x40 MLOAD DUP1 SWAP2 SUB SWAP1 REVERT JUMPDEST DUP2 ISZERO PUSH2 0x2EF7 JUMPI DUP4 DUP6 PUSH20 0xFFFFFFFFFFFFFFFFFFFFFFFFFFFFFFFFFFFFFFFF AND DUP3 PUSH20 0xFFFFFFFFFFFFFFFFFFFFFFFFFFFFFFFFFFFFFFFF AND PUSH32 0x8C5BE1E5EBEC7D5BD14F71427D1E84F3DD0314C0F7B2291E5B200AC8C7C3B925 PUSH1 0x40 MLOAD PUSH1 0x40 MLOAD DUP1 SWAP2 SUB SWAP1 LOG4 JUMPDEST POP JUMPDEST DUP4 PUSH1 0x4 PUSH0 DUP6 DUP2 MSTORE PUSH1 0x20 ADD SWAP1 DUP2 MSTORE PUSH1 0x20 ADD PUSH0 KECCAK256 PUSH0 PUSH2 0x100 EXP DUP2 SLOAD DUP2 PUSH20 0xFFFFFFFFFFFFFFFFFFFFFFFFFFFFFFFFFFFFFFFF MUL NOT AND SWAP1 DUP4 PUSH20 0xFFFFFFFFFFFFFFFFFFFFFFFFFFFFFFFFFFFFFFFF AND MUL OR SWAP1 SSTORE POP POP POP POP POP JUMP JUMPDEST PUSH0 PUSH0 PUSH2 0x2F59 DUP5 PUSH2 0x2803 JUMP JUMPDEST SWAP1 POP PUSH0 PUSH20 0xFFFFFFFFFFFFFFFFFFFFFFFFFFFFFFFFFFFFFFFF AND DUP4 PUSH20 0xFFFFFFFFFFFFFFFFFFFFFFFFFFFFFFFFFFFFFFFF AND EQ PUSH2 0x2F9A JUMPI PUSH2 0x2F99 DUP2 DUP5 DUP7 PUSH2 0x32F7 JUMP JUMPDEST JUMPDEST PUSH0 PUSH20 0xFFFFFFFFFFFFFFFFFFFFFFFFFFFFFFFFFFFFFFFF AND DUP2 PUSH20 0xFFFFFFFFFFFFFFFFFFFFFFFFFFFFFFFFFFFFFFFF AND EQ PUSH2 0x3025 JUMPI PUSH2 0x2FD9 PUSH0 DUP6 PUSH0 PUSH0 PUSH2 0x2D8F JUMP JUMPDEST PUSH1 0x1 PUSH1 0x3 PUSH0 DUP4 PUSH20 0xFFFFFFFFFFFFFFFFFFFFFFFFFFFFFFFFFFFFFFFF AND PUSH20 0xFFFFFFFFFFFFFFFFFFFFFFFFFFFFFFFFFFFFFFFF AND DUP2 MSTORE PUSH1 0x20 ADD SWAP1 DUP2 MSTORE PUSH1 0x20 ADD PUSH0 KECCAK256 PUSH0 DUP3 DUP3 SLOAD SUB SWAP3 POP POP DUP2 SWAP1 SSTORE POP JUMPDEST PUSH0 PUSH20 0xFFFFFFFFFFFFFFFFFFFFFFFFFFFFFFFFFFFFFFFF AND DUP6 PUSH20 0xFFFFFFFFFFFFFFFFFFFFFFFFFFFFFFFFFFFFFFFF AND EQ PUSH2 0x30A4 JUMPI PUSH1 0x1 PUSH1 0x3 PUSH0 DUP8 PUSH20 0xFFFFFFFFFFFFFFFFFFFFFFFFFFFFFFFFFFFFFFFF AND PUSH20 0xFFFFFFFFFFFFFFFFFFFFFFFFFFFFFFFFFFFFFFFF AND DUP2 MSTORE PUSH1 0x20 ADD SWAP1 DUP2 MSTORE PUSH1 0x20 ADD PUSH0 KECCAK256 PUSH0 DUP3 DUP3 SLOAD ADD SWAP3 POP POP DUP2 SWAP1 SSTORE POP JUMPDEST DUP5 PUSH1 0x2 PUSH0 DUP7 DUP2 MSTORE PUSH1 0x20 ADD SWAP1 DUP2 MSTORE PUSH1 0x20 ADD PUSH0 KECCAK256 PUSH0 PUSH2 0x100 EXP DUP2 SLOAD DUP2 PUSH20 0xFFFFFFFFFFFFFFFFFFFFFFFFFFFFFFFFFFFFFFFF MUL NOT AND SWAP1 DUP4 PUSH20 0xFFFFFFFFFFFFFFFFFFFFFFFFFFFFFFFFFFFFFFFF AND MUL OR SWAP1 SSTORE POP DUP4 DUP6 PUSH20 0xFFFFFFFFFFFFFFFFFFFFFFFFFFFFFFFFFFFFFFFF AND DUP3 PUSH20 0xFFFFFFFFFFFFFFFFFFFFFFFFFFFFFFFFFFFFFFFF AND PUSH32 0xDDF252AD1BE2C89B69C2B068FC378DAA952BA7F163C4A11628F55A4DF523B3EF PUSH1 0x40 MLOAD PUSH1 0x40 MLOAD DUP1 SWAP2 SUB SWAP1 LOG4 DUP1 SWAP2 POP POP SWAP4 SWAP3 POP POP POP JUMP JUMPDEST PUSH2 0x3163 DUP3 DUP3 PUSH2 0x173E JUMP JUMPDEST PUSH2 0x31A6 JUMPI DUP1 DUP3 PUSH1 0x40 MLOAD PUSH32 0xE2517D3F00000000000000000000000000000000000000000000000000000000 DUP2 MSTORE PUSH1 0x4 ADD PUSH2 0x319D SWAP3 SWAP2 SWAP1 PUSH2 0x4A9C JUMP JUMPDEST PUSH1 0x40 MLOAD DUP1 SWAP2 SUB SWAP1 REVERT JUMPDEST POP POP JUMP JUMPDEST PUSH2 0x31B2 PUSH2 0xC28 JUMP JUMPDEST PUSH2 0x31F1 JUMPI PUSH1 0x40 MLOAD PUSH32 0x8C379A000000000000000000000000000000000000000000000000000000000 DUP2 MSTORE PUSH1 0x4 ADD PUSH2 0x31E8 SWAP1 PUSH2 0x4B0D JUMP JUMPDEST PUSH1 0x40 MLOAD DUP1 SWAP2 SUB SWAP1 REVERT JUMPDEST JUMP JUMPDEST PUSH2 0x31FD DUP4 DUP4 PUSH2 0x33BA JUMP JUMPDEST PUSH2 0x3211 PUSH2 0x3208 PUSH2 0x2211 JUMP JUMPDEST PUSH0 DUP6 DUP6 DUP6 PUSH2 0x2B83 JUMP JUMPDEST POP POP POP JUMP JUMPDEST PUSH0 PUSH32 0x80AC58CD00000000000000000000000000000000000000000000000000000000 PUSH28 0xFFFFFFFFFFFFFFFFFFFFFFFFFFFFFFFFFFFFFFFFFFFFFFFFFFFFFFFF NOT AND DUP3 PUSH28 0xFFFFFFFFFFFFFFFFFFFFFFFFFFFFFFFFFFFFFFFFFFFFFFFFFFFFFFFF NOT AND EQ DUP1 PUSH2 0x32E0 JUMPI POP PUSH32 0x5B5E139F00000000000000000000000000000000000000000000000000000000 PUSH28 0xFFFFFFFFFFFFFFFFFFFFFFFFFFFFFFFFFFFFFFFFFFFFFFFFFFFFFFFF NOT AND DUP3 PUSH28 0xFFFFFFFFFFFFFFFFFFFFFFFFFFFFFFFFFFFFFFFFFFFFFFFFFFFFFFFF NOT AND EQ JUMPDEST DUP1 PUSH2 0x32F0 JUMPI POP PUSH2 0x32EF DUP3 PUSH2 0x34AD JUMP JUMPDEST JUMPDEST SWAP1 POP SWAP2 SWAP1 POP JUMP JUMPDEST PUSH2 0x3302 DUP4 DUP4 DUP4 PUSH2 0x3516 JUMP JUMPDEST PUSH2 0x33B5 JUMPI PUSH0 PUSH20 0xFFFFFFFFFFFFFFFFFFFFFFFFFFFFFFFFFFFFFFFF AND DUP4 PUSH20 0xFFFFFFFFFFFFFFFFFFFFFFFFFFFFFFFFFFFFFFFF AND SUB PUSH2 0x3376 JUMPI DUP1 PUSH1 0x40 MLOAD PUSH32 0x7E27328900000000000000000000000000000000000000000000000000000000 DUP2 MSTORE PUSH1 0x4 ADD PUSH2 0x336D SWAP2 SWAP1 PUSH2 0x38B7 JUMP JUMPDEST PUSH1 0x40 MLOAD DUP1 SWAP2 SUB SWAP1 REVERT JUMPDEST DUP2 DUP2 PUSH1 0x40 MLOAD PUSH32 0x177E802F00000000000000000000000000000000000000000000000000000000 DUP2 MSTORE PUSH1 0x4 ADD PUSH2 0x33AC SWAP3 SWAP2 SWAP1 PUSH2 0x4B2B JUMP JUMPDEST PUSH1 0x40 MLOAD DUP1 SWAP2 SUB SWAP1 REVERT JUMPDEST POP POP POP JUMP JUMPDEST PUSH0 PUSH20 0xFFFFFFFFFFFFFFFFFFFFFFFFFFFFFFFFFFFFFFFF AND DUP3 PUSH20 0xFFFFFFFFFFFFFFFFFFFFFFFFFFFFFFFFFFFFFFFF AND SUB PUSH2 0x342A JUMPI PUSH0 PUSH1 0x40 MLOAD PUSH32 0x64A0AE9200000000000000000000000000000000000000000000000000000000 DUP2 MSTORE PUSH1 0x4 ADD PUSH2 0x3421 SWAP2 SWAP1 PUSH2 0x3827 JUMP JUMPDEST PUSH1 0x40 MLOAD DUP1 SWAP2 SUB SWAP1 REVERT JUMPDEST PUSH0 PUSH2 0x3436 DUP4 DUP4 PUSH0 PUSH2 0x222A JUMP JUMPDEST SWAP1 POP PUSH0 PUSH20 0xFFFFFFFFFFFFFFFFFFFFFFFFFFFFFFFFFFFFFFFF AND DUP2 PUSH20 0xFFFFFFFFFFFFFFFFFFFFFFFFFFFFFFFFFFFFFFFF AND EQ PUSH2 0x34A8 JUMPI PUSH0 PUSH1 0x40 MLOAD PUSH32 0x73C6AC6E00000000000000000000000000000000000000000000000000000000 DUP2 MSTORE PUSH1 0x4 ADD PUSH2 0x349F SWAP2 SWAP1 PUSH2 0x3827 JUMP JUMPDEST PUSH1 0x40 MLOAD DUP1 SWAP2 SUB SWAP1 REVERT JUMPDEST POP POP POP JUMP JUMPDEST PUSH0 PUSH32 0x1FFC9A700000000000000000000000000000000000000000000000000000000 PUSH28 0xFFFFFFFFFFFFFFFFFFFFFFFFFFFFFFFFFFFFFFFFFFFFFFFFFFFFFFFF NOT AND DUP3 PUSH28 0xFFFFFFFFFFFFFFFFFFFFFFFFFFFFFFFFFFFFFFFFFFFFFFFFFFFFFFFF NOT AND EQ SWAP1 POP SWAP2 SWAP1 POP JUMP JUMPDEST PUSH0 PUSH0 PUSH20 0xFFFFFFFFFFFFFFFFFFFFFFFFFFFFFFFFFFFFFFFF AND DUP4 PUSH20 0xFFFFFFFFFFFFFFFFFFFFFFFFFFFFFFFFFFFFFFFF AND EQ ISZERO DUP1 ISZERO PUSH2 0x35CD JUMPI POP DUP3 PUSH20 0xFFFFFFFFFFFFFFFFFFFFFFFFFFFFFFFFFFFFFFFF AND DUP5 PUSH20 0xFFFFFFFFFFFFFFFFFFFFFFFFFFFFFFFFFFFFFFFF AND EQ DUP1 PUSH2 0x358E JUMPI POP PUSH2 0x358D DUP5 DUP5 PUSH2 0x1D62 JUMP JUMPDEST JUMPDEST DUP1 PUSH2 0x35CC JUMPI POP DUP3 PUSH20 0xFFFFFFFFFFFFFFFFFFFFFFFFFFFFFFFFFFFFFFFF AND PUSH2 0x35B4 DUP4 PUSH2 0x21D8 JUMP JUMPDEST PUSH20 0xFFFFFFFFFFFFFFFFFFFFFFFFFFFFFFFFFFFFFFFF AND EQ JUMPDEST JUMPDEST SWAP1 POP SWAP4 SWAP3 POP POP POP JUMP JUMPDEST PUSH1 0x40 MLOAD DUP1 PUSH2 0x120 ADD PUSH1 0x40 MSTORE DUP1 PUSH1 0x60 DUP2 MSTORE PUSH1 0x20 ADD PUSH1 0x60 DUP2 MSTORE PUSH1 0x20 ADD PUSH1 0x60 DUP2 MSTORE PUSH1 0x20 ADD PUSH1 0x60 DUP2 MSTORE PUSH1 0x20 ADD PUSH0 DUP2 MSTORE PUSH1 0x20 ADD PUSH0 ISZERO ISZERO DUP2 MSTORE PUSH1 0x20 ADD PUSH0 PUSH20 0xFFFFFFFFFFFFFFFFFFFFFFFFFFFFFFFFFFFFFFFF AND DUP2 MSTORE PUSH1 0x20 ADD PUSH0 DUP2 MSTORE PUSH1 0x20 ADD PUSH1 0x60 DUP2 MSTORE POP SWAP1 JUMP JUMPDEST PUSH0 PUSH1 0x40 MLOAD SWAP1 POP SWAP1 JUMP JUMPDEST PUSH0 PUSH0 REVERT JUMPDEST PUSH0 PUSH0 REVERT JUMPDEST PUSH0 PUSH32 0xFFFFFFFF00000000000000000000000000000000000000000000000000000000 DUP3 AND SWAP1 POP SWAP2 SWAP1 POP JUMP JUMPDEST PUSH2 0x367B DUP2 PUSH2 0x3647 JUMP JUMPDEST DUP2 EQ PUSH2 0x3685 JUMPI PUSH0 PUSH0 REVERT JUMPDEST POP JUMP JUMPDEST PUSH0 DUP2 CALLDATALOAD SWAP1 POP PUSH2 0x3696 DUP2 PUSH2 0x3672 JUMP JUMPDEST SWAP3 SWAP2 POP POP JUMP JUMPDEST PUSH0 PUSH1 0x20 DUP3 DUP5 SUB SLT ISZERO PUSH2 0x36B1 JUMPI PUSH2 0x36B0 PUSH2 0x363F JUMP JUMPDEST JUMPDEST PUSH0 PUSH2 0x36BE DUP5 DUP3 DUP6 ADD PUSH2 0x3688 JUMP JUMPDEST SWAP2 POP POP SWAP3 SWAP2 POP POP JUMP JUMPDEST PUSH0 DUP2 ISZERO ISZERO SWAP1 POP SWAP2 SWAP1 POP JUMP JUMPDEST PUSH2 0x36DB DUP2 PUSH2 0x36C7 JUMP JUMPDEST DUP3 MSTORE POP POP JUMP JUMPDEST PUSH0 PUSH1 0x20 DUP3 ADD SWAP1 POP PUSH2 0x36F4 PUSH0 DUP4 ADD DUP5 PUSH2 0x36D2 JUMP JUMPDEST SWAP3 SWAP2 POP POP JUMP JUMPDEST PUSH0 DUP2 MLOAD SWAP1 POP SWAP2 SWAP1 POP JUMP JUMPDEST PUSH0 DUP3 DUP3 MSTORE PUSH1 0x20 DUP3 ADD SWAP1 POP SWAP3 SWAP2 POP POP JUMP JUMPDEST DUP3 DUP2 DUP4 MCOPY PUSH0 DUP4 DUP4 ADD MSTORE POP POP POP JUMP JUMPDEST PUSH0 PUSH1 0x1F NOT PUSH1 0x1F DUP4 ADD AND SWAP1 POP SWAP2 SWAP1 POP JUMP JUMPDEST PUSH0 PUSH2 0x373C DUP3 PUSH2 0x36FA JUMP JUMPDEST PUSH2 0x3746 DUP2 DUP6 PUSH2 0x3704 JUMP JUMPDEST SWAP4 POP PUSH2 0x3756 DUP2 DUP6 PUSH1 0x20 DUP7 ADD PUSH2 0x3714 JUMP JUMPDEST PUSH2 0x375F DUP2 PUSH2 0x3722 JUMP JUMPDEST DUP5 ADD SWAP2 POP POP SWAP3 SWAP2 POP POP JUMP JUMPDEST PUSH0 PUSH1 0x20 DUP3 ADD SWAP1 POP DUP2 DUP2 SUB PUSH0 DUP4 ADD MSTORE PUSH2 0x3782 DUP2 DUP5 PUSH2 0x3732 JUMP JUMPDEST SWAP1 POP SWAP3 SWAP2 POP POP JUMP JUMPDEST PUSH0 DUP2 SWAP1 POP SWAP2 SWAP1 POP JUMP JUMPDEST PUSH2 0x379C DUP2 PUSH2 0x378A JUMP JUMPDEST DUP2 EQ PUSH2 0x37A6 JUMPI PUSH0 PUSH0 REVERT JUMPDEST POP JUMP JUMPDEST PUSH0 DUP2 CALLDATALOAD SWAP1 POP PUSH2 0x37B7 DUP2 PUSH2 0x3793 JUMP JUMPDEST SWAP3 SWAP2 POP POP JUMP JUMPDEST PUSH0 PUSH1 0x20 DUP3 DUP5 SUB SLT ISZERO PUSH2 0x37D2 JUMPI PUSH2 0x37D1 PUSH2 0x363F JUMP JUMPDEST JUMPDEST PUSH0 PUSH2 0x37DF DUP5 DUP3 DUP6 ADD PUSH2 0x37A9 JUMP JUMPDEST SWAP2 POP POP SWAP3 SWAP2 POP POP JUMP JUMPDEST PUSH0 PUSH20 0xFFFFFFFFFFFFFFFFFFFFFFFFFFFFFFFFFFFFFFFF DUP3 AND SWAP1 POP SWAP2 SWAP1 POP JUMP JUMPDEST PUSH0 PUSH2 0x3811 DUP3 PUSH2 0x37E8 JUMP JUMPDEST SWAP1 POP SWAP2 SWAP1 POP JUMP JUMPDEST PUSH2 0x3821 DUP2 PUSH2 0x3807 JUMP JUMPDEST DUP3 MSTORE POP POP JUMP JUMPDEST PUSH0 PUSH1 0x20 DUP3 ADD SWAP1 POP PUSH2 0x383A PUSH0 DUP4 ADD DUP5 PUSH2 0x3818 JUMP JUMPDEST SWAP3 SWAP2 POP POP JUMP JUMPDEST PUSH2 0x3849 DUP2 PUSH2 0x3807 JUMP JUMPDEST DUP2 EQ PUSH2 0x3853 JUMPI PUSH0 PUSH0 REVERT JUMPDEST POP JUMP JUMPDEST PUSH0 DUP2 CALLDATALOAD SWAP1 POP PUSH2 0x3864 DUP2 PUSH2 0x3840 JUMP JUMPDEST SWAP3 SWAP2 POP POP JUMP JUMPDEST PUSH0 PUSH0 PUSH1 0x40 DUP4 DUP6 SUB SLT ISZERO PUSH2 0x3880 JUMPI PUSH2 0x387F PUSH2 0x363F JUMP JUMPDEST JUMPDEST PUSH0 PUSH2 0x388D DUP6 DUP3 DUP7 ADD PUSH2 0x3856 JUMP JUMPDEST SWAP3 POP POP PUSH1 0x20 PUSH2 0x389E DUP6 DUP3 DUP7 ADD PUSH2 0x37A9 JUMP JUMPDEST SWAP2 POP POP SWAP3 POP SWAP3 SWAP1 POP JUMP JUMPDEST PUSH2 0x38B1 DUP2 PUSH2 0x378A JUMP JUMPDEST DUP3 MSTORE POP POP JUMP JUMPDEST PUSH0 PUSH1 0x20 DUP3 ADD SWAP1 POP PUSH2 0x38CA PUSH0 DUP4 ADD DUP5 PUSH2 0x38A8 JUMP JUMPDEST SWAP3 SWAP2 POP POP JUMP JUMPDEST PUSH0 PUSH0 PUSH0 PUSH1 0x60 DUP5 DUP7 SUB SLT ISZERO PUSH2 0x38E7 JUMPI PUSH2 0x38E6 PUSH2 0x363F JUMP JUMPDEST JUMPDEST PUSH0 PUSH2 0x38F4 DUP7 DUP3 DUP8 ADD PUSH2 0x3856 JUMP JUMPDEST SWAP4 POP POP PUSH1 0x20 PUSH2 0x3905 DUP7 DUP3 DUP8 ADD PUSH2 0x3856 JUMP JUMPDEST SWAP3 POP POP PUSH1 0x40 PUSH2 0x3916 DUP7 DUP3 DUP8 ADD PUSH2 0x37A9 JUMP JUMPDEST SWAP2 POP POP SWAP3 POP SWAP3 POP SWAP3 JUMP JUMPDEST PUSH0 DUP2 SWAP1 POP SWAP2 SWAP1 POP JUMP JUMPDEST PUSH2 0x3932 DUP2 PUSH2 0x3920 JUMP JUMPDEST DUP2 EQ PUSH2 0x393C JUMPI PUSH0 PUSH0 REVERT JUMPDEST POP JUMP JUMPDEST PUSH0 DUP2 CALLDATALOAD SWAP1 POP PUSH2 0x394D DUP2 PUSH2 0x3929 JUMP JUMPDEST SWAP3 SWAP2 POP POP JUMP JUMPDEST PUSH0 PUSH1 0x20 DUP3 DUP5 SUB SLT ISZERO PUSH2 0x3968 JUMPI PUSH2 0x3967 PUSH2 0x363F JUMP JUMPDEST JUMPDEST PUSH0 PUSH2 0x3975 DUP5 DUP3 DUP6 ADD PUSH2 0x393F JUMP JUMPDEST SWAP2 POP POP SWAP3 SWAP2 POP POP JUMP JUMPDEST PUSH2 0x3987 DUP2 PUSH2 0x3920 JUMP JUMPDEST DUP3 MSTORE POP POP JUMP JUMPDEST PUSH0 PUSH1 0x20 DUP3 ADD SWAP1 POP PUSH2 0x39A0 PUSH0 DUP4 ADD DUP5 PUSH2 0x397E JUMP JUMPDEST SWAP3 SWAP2 POP POP JUMP JUMPDEST PUSH0 PUSH0 PUSH1 0x40 DUP4 DUP6 SUB SLT ISZERO PUSH2 0x39BC JUMPI PUSH2 0x39BB PUSH2 0x363F JUMP JUMPDEST JUMPDEST PUSH0 PUSH2 0x39C9 DUP6 DUP3 DUP7 ADD PUSH2 0x393F JUMP JUMPDEST SWAP3 POP POP PUSH1 0x20 PUSH2 0x39DA DUP6 DUP3 DUP7 ADD PUSH2 0x3856 JUMP JUMPDEST SWAP2 POP POP SWAP3 POP SWAP3 SWAP1 POP JUMP JUMPDEST PUSH0 DUP2 SWAP1 POP SWAP2 SWAP1 POP JUMP JUMPDEST PUSH0 PUSH2 0x3A07 PUSH2 0x3A02 PUSH2 0x39FD DUP5 PUSH2 0x37E8 JUMP JUMPDEST PUSH2 0x39E4 JUMP JUMPDEST PUSH2 0x37E8 JUMP JUMPDEST SWAP1 POP SWAP2 SWAP1 POP JUMP JUMPDEST PUSH0 PUSH2 0x3A18 DUP3 PUSH2 0x39ED JUMP JUMPDEST SWAP1 POP SWAP2 SWAP1 POP JUMP JUMPDEST PUSH0 PUSH2 0x3A29 DUP3 PUSH2 0x3A0E JUMP JUMPDEST SWAP1 POP SWAP2 SWAP1 POP JUMP JUMPDEST PUSH2 0x3A39 DUP2 PUSH2 0x3A1F JUMP JUMPDEST DUP3 MSTORE POP POP JUMP JUMPDEST PUSH0 PUSH1 0x20 DUP3 ADD SWAP1 POP PUSH2 0x3A52 PUSH0 DUP4 ADD DUP5 PUSH2 0x3A30 JUMP JUMPDEST SWAP3 SWAP2 POP POP JUMP JUMPDEST PUSH0 PUSH1 0x20 DUP3 DUP5 SUB SLT ISZERO PUSH2 0x3A6D JUMPI PUSH2 0x3A6C PUSH2 0x363F JUMP JUMPDEST JUMPDEST PUSH0 PUSH2 0x3A7A DUP5 DUP3 DUP6 ADD PUSH2 0x3856 JUMP JUMPDEST SWAP2 POP POP SWAP3 SWAP2 POP POP JUMP JUMPDEST PUSH0 PUSH0 REVERT JUMPDEST PUSH0 PUSH0 REVERT JUMPDEST PUSH32 0x4E487B7100000000000000000000000000000000000000000000000000000000 PUSH0 MSTORE PUSH1 0x41 PUSH1 0x4 MSTORE PUSH1 0x24 PUSH0 REVERT JUMPDEST PUSH2 0x3AC1 DUP3 PUSH2 0x3722 JUMP JUMPDEST DUP2 ADD DUP2 DUP2 LT PUSH8 0xFFFFFFFFFFFFFFFF DUP3 GT OR ISZERO PUSH2 0x3AE0 JUMPI PUSH2 0x3ADF PUSH2 0x3A8B JUMP JUMPDEST JUMPDEST DUP1 PUSH1 0x40 MSTORE POP POP POP JUMP JUMPDEST PUSH0 PUSH2 0x3AF2 PUSH2 0x3636 JUMP JUMPDEST SWAP1 POP PUSH2 0x3AFE DUP3 DUP3 PUSH2 0x3AB8 JUMP JUMPDEST SWAP2 SWAP1 POP JUMP JUMPDEST PUSH0 PUSH8 0xFFFFFFFFFFFFFFFF DUP3 GT ISZERO PUSH2 0x3B1D JUMPI PUSH2 0x3B1C PUSH2 0x3A8B JUMP JUMPDEST JUMPDEST PUSH2 0x3B26 DUP3 PUSH2 0x3722 JUMP JUMPDEST SWAP1 POP PUSH1 0x20 DUP2 ADD SWAP1 POP SWAP2 SWAP1 POP JUMP JUMPDEST DUP3 DUP2 DUP4 CALLDATACOPY PUSH0 DUP4 DUP4 ADD MSTORE POP POP POP JUMP JUMPDEST PUSH0 PUSH2 0x3B53 PUSH2 0x3B4E DUP5 PUSH2 0x3B03 JUMP JUMPDEST PUSH2 0x3AE9 JUMP JUMPDEST SWAP1 POP DUP3 DUP2 MSTORE PUSH1 0x20 DUP2 ADD DUP5 DUP5 DUP5 ADD GT ISZERO PUSH2 0x3B6F JUMPI PUSH2 0x3B6E PUSH2 0x3A87 JUMP JUMPDEST JUMPDEST PUSH2 0x3B7A DUP5 DUP3 DUP6 PUSH2 0x3B33 JUMP JUMPDEST POP SWAP4 SWAP3 POP POP POP JUMP JUMPDEST PUSH0 DUP3 PUSH1 0x1F DUP4 ADD SLT PUSH2 0x3B96 JUMPI PUSH2 0x3B95 PUSH2 0x3A83 JUMP JUMPDEST JUMPDEST DUP2 CALLDATALOAD PUSH2 0x3BA6 DUP5 DUP3 PUSH1 0x20 DUP7 ADD PUSH2 0x3B41 JUMP JUMPDEST SWAP2 POP POP SWAP3 SWAP2 POP POP JUMP JUMPDEST PUSH0 PUSH0 PUSH1 0x40 DUP4 DUP6 SUB SLT ISZERO PUSH2 0x3BC5 JUMPI PUSH2 0x3BC4 PUSH2 0x363F JUMP JUMPDEST JUMPDEST PUSH0 PUSH2 0x3BD2 DUP6 DUP3 DUP7 ADD PUSH2 0x3856 JUMP JUMPDEST SWAP3 POP POP PUSH1 0x20 DUP4 ADD CALLDATALOAD PUSH8 0xFFFFFFFFFFFFFFFF DUP2 GT ISZERO PUSH2 0x3BF3 JUMPI PUSH2 0x3BF2 PUSH2 0x3643 JUMP JUMPDEST JUMPDEST PUSH2 0x3BFF DUP6 DUP3 DUP7 ADD PUSH2 0x3B82 JUMP JUMPDEST SWAP2 POP POP SWAP3 POP SWAP3 SWAP1 POP JUMP JUMPDEST PUSH0 PUSH1 0x20 DUP3 DUP5 SUB SLT ISZERO PUSH2 0x3C1E JUMPI PUSH2 0x3C1D PUSH2 0x363F JUMP JUMPDEST JUMPDEST PUSH0 DUP3 ADD CALLDATALOAD PUSH8 0xFFFFFFFFFFFFFFFF DUP2 GT ISZERO PUSH2 0x3C3B JUMPI PUSH2 0x3C3A PUSH2 0x3643 JUMP JUMPDEST JUMPDEST PUSH2 0x3C47 DUP5 DUP3 DUP6 ADD PUSH2 0x3B82 JUMP JUMPDEST SWAP2 POP POP SWAP3 SWAP2 POP POP JUMP JUMPDEST PUSH0 PUSH0 PUSH0 PUSH0 PUSH0 PUSH1 0xA0 DUP7 DUP9 SUB SLT ISZERO PUSH2 0x3C69 JUMPI PUSH2 0x3C68 PUSH2 0x363F JUMP JUMPDEST JUMPDEST PUSH0 PUSH2 0x3C76 DUP9 DUP3 DUP10 ADD PUSH2 0x3856 JUMP JUMPDEST SWAP6 POP POP PUSH1 0x20 DUP7 ADD CALLDATALOAD PUSH8 0xFFFFFFFFFFFFFFFF DUP2 GT ISZERO PUSH2 0x3C97 JUMPI PUSH2 0x3C96 PUSH2 0x3643 JUMP JUMPDEST JUMPDEST PUSH2 0x3CA3 DUP9 DUP3 DUP10 ADD PUSH2 0x3B82 JUMP JUMPDEST SWAP5 POP POP PUSH1 0x40 DUP7 ADD CALLDATALOAD PUSH8 0xFFFFFFFFFFFFFFFF DUP2 GT ISZERO PUSH2 0x3CC4 JUMPI PUSH2 0x3CC3 PUSH2 0x3643 JUMP JUMPDEST JUMPDEST PUSH2 0x3CD0 DUP9 DUP3 DUP10 ADD PUSH2 0x3B82 JUMP JUMPDEST SWAP4 POP POP PUSH1 0x60 DUP7 ADD CALLDATALOAD PUSH8 0xFFFFFFFFFFFFFFFF DUP2 GT ISZERO PUSH2 0x3CF1 JUMPI PUSH2 0x3CF0 PUSH2 0x3643 JUMP JUMPDEST JUMPDEST PUSH2 0x3CFD DUP9 DUP3 DUP10 ADD PUSH2 0x3B82 JUMP JUMPDEST SWAP3 POP POP PUSH1 0x80 DUP7 ADD CALLDATALOAD PUSH8 0xFFFFFFFFFFFFFFFF DUP2 GT ISZERO PUSH2 0x3D1E JUMPI PUSH2 0x3D1D PUSH2 0x3643 JUMP JUMPDEST JUMPDEST PUSH2 0x3D2A DUP9 DUP3 DUP10 ADD PUSH2 0x3B82 JUMP JUMPDEST SWAP2 POP POP SWAP3 SWAP6 POP SWAP3 SWAP6 SWAP1 SWAP4 POP JUMP JUMPDEST PUSH0 DUP3 DUP3 MSTORE PUSH1 0x20 DUP3 ADD SWAP1 POP SWAP3 SWAP2 POP POP JUMP JUMPDEST PUSH0 PUSH2 0x3D51 DUP3 PUSH2 0x36FA JUMP JUMPDEST PUSH2 0x3D5B DUP2 DUP6 PUSH2 0x3D37 JUMP JUMPDEST SWAP4 POP PUSH2 0x3D6B DUP2 DUP6 PUSH1 0x20 DUP7 ADD PUSH2 0x3714 JUMP JUMPDEST PUSH2 0x3D74 DUP2 PUSH2 0x3722 JUMP JUMPDEST DUP5 ADD SWAP2 POP POP SWAP3 SWAP2 POP POP JUMP JUMPDEST PUSH2 0x3D88 DUP2 PUSH2 0x378A JUMP JUMPDEST DUP3 MSTORE POP POP JUMP JUMPDEST PUSH2 0x3D97 DUP2 PUSH2 0x36C7 JUMP JUMPDEST DUP3 MSTORE POP POP JUMP JUMPDEST PUSH2 0x3DA6 DUP2 PUSH2 0x3807 JUMP JUMPDEST DUP3 MSTORE POP POP JUMP JUMPDEST PUSH0 PUSH2 0x120 DUP4 ADD PUSH0 DUP4 ADD MLOAD DUP5 DUP3 SUB PUSH0 DUP7 ADD MSTORE PUSH2 0x3DC7 DUP3 DUP3 PUSH2 0x3D47 JUMP JUMPDEST SWAP2 POP POP PUSH1 0x20 DUP4 ADD MLOAD DUP5 DUP3 SUB PUSH1 0x20 DUP7 ADD MSTORE PUSH2 0x3DE1 DUP3 DUP3 PUSH2 0x3D47 JUMP JUMPDEST SWAP2 POP POP PUSH1 0x40 DUP4 ADD MLOAD DUP5 DUP3 SUB PUSH1 0x40 DUP7 ADD MSTORE PUSH2 0x3DFB DUP3 DUP3 PUSH2 0x3D47 JUMP JUMPDEST SWAP2 POP POP PUSH1 0x60 DUP4 ADD MLOAD DUP5 DUP3 SUB PUSH1 0x60 DUP7 ADD MSTORE PUSH2 0x3E15 DUP3 DUP3 PUSH2 0x3D47 JUMP JUMPDEST SWAP2 POP POP PUSH1 0x80 DUP4 ADD MLOAD PUSH2 0x3E2A PUSH1 0x80 DUP7 ADD DUP3 PUSH2 0x3D7F JUMP JUMPDEST POP PUSH1 0xA0 DUP4 ADD MLOAD PUSH2 0x3E3D PUSH1 0xA0 DUP7 ADD DUP3 PUSH2 0x3D8E JUMP JUMPDEST POP PUSH1 0xC0 DUP4 ADD MLOAD PUSH2 0x3E50 PUSH1 0xC0 DUP7 ADD DUP3 PUSH2 0x3D9D JUMP JUMPDEST POP PUSH1 0xE0 DUP4 ADD MLOAD PUSH2 0x3E63 PUSH1 0xE0 DUP7 ADD DUP3 PUSH2 0x3D7F JUMP JUMPDEST POP PUSH2 0x100 DUP4 ADD MLOAD DUP5 DUP3 SUB PUSH2 0x100 DUP7 ADD MSTORE PUSH2 0x3E7D DUP3 DUP3 PUSH2 0x3D47 JUMP JUMPDEST SWAP2 POP POP DUP1 SWAP2 POP POP SWAP3 SWAP2 POP POP JUMP JUMPDEST PUSH0 PUSH1 0x20 DUP3 ADD SWAP1 POP DUP2 DUP2 SUB PUSH0 DUP4 ADD MSTORE PUSH2 0x3EA2 DUP2 DUP5 PUSH2 0x3DAC JUMP JUMPDEST SWAP1 POP SWAP3 SWAP2 POP POP JUMP JUMPDEST PUSH0 PUSH0 PUSH1 0x40 DUP4 DUP6 SUB SLT ISZERO PUSH2 0x3EC0 JUMPI PUSH2 0x3EBF PUSH2 0x363F JUMP JUMPDEST JUMPDEST PUSH0 PUSH2 0x3ECD DUP6 DUP3 DUP7 ADD PUSH2 0x37A9 JUMP JUMPDEST SWAP3 POP POP PUSH1 0x20 DUP4 ADD CALLDATALOAD PUSH8 0xFFFFFFFFFFFFFFFF DUP2 GT ISZERO PUSH2 0x3EEE JUMPI PUSH2 0x3EED PUSH2 0x3643 JUMP JUMPDEST JUMPDEST PUSH2 0x3EFA DUP6 DUP3 DUP7 ADD PUSH2 0x3B82 JUMP JUMPDEST SWAP2 POP POP SWAP3 POP SWAP3 SWAP1 POP JUMP JUMPDEST PUSH2 0x3F0D DUP2 PUSH2 0x36C7 JUMP JUMPDEST DUP2 EQ PUSH2 0x3F17 JUMPI PUSH0 PUSH0 REVERT JUMPDEST POP JUMP JUMPDEST PUSH0 DUP2 CALLDATALOAD SWAP1 POP PUSH2 0x3F28 DUP2 PUSH2 0x3F04 JUMP JUMPDEST SWAP3 SWAP2 POP POP JUMP JUMPDEST PUSH0 PUSH0 PUSH1 0x40 DUP4 DUP6 SUB SLT ISZERO PUSH2 0x3F44 JUMPI PUSH2 0x3F43 PUSH2 0x363F JUMP JUMPDEST JUMPDEST PUSH0 PUSH2 0x3F51 DUP6 DUP3 DUP7 ADD PUSH2 0x3856 JUMP JUMPDEST SWAP3 POP POP PUSH1 0x20 PUSH2 0x3F62 DUP6 DUP3 DUP7 ADD PUSH2 0x3F1A JUMP JUMPDEST SWAP2 POP POP SWAP3 POP SWAP3 SWAP1 POP JUMP JUMPDEST PUSH0 PUSH2 0x3F76 DUP3 PUSH2 0x39ED JUMP JUMPDEST SWAP1 POP SWAP2 SWAP1 POP JUMP JUMPDEST PUSH0 PUSH2 0x3F87 DUP3 PUSH2 0x3F6C JUMP JUMPDEST SWAP1 POP SWAP2 SWAP1 POP JUMP JUMPDEST PUSH2 0x3F97 DUP2 PUSH2 0x3F7D JUMP JUMPDEST DUP3 MSTORE POP POP JUMP JUMPDEST PUSH0 PUSH1 0x20 DUP3 ADD SWAP1 POP PUSH2 0x3FB0 PUSH0 DUP4 ADD DUP5 PUSH2 0x3F8E JUMP JUMPDEST SWAP3 SWAP2 POP POP JUMP JUMPDEST PUSH0 PUSH8 0xFFFFFFFFFFFFFFFF DUP3 GT ISZERO PUSH2 0x3FD0 JUMPI PUSH2 0x3FCF PUSH2 0x3A8B JUMP JUMPDEST JUMPDEST PUSH2 0x3FD9 DUP3 PUSH2 0x3722 JUMP JUMPDEST SWAP1 POP PUSH1 0x20 DUP2 ADD SWAP1 POP SWAP2 SWAP1 POP JUMP JUMPDEST PUSH0 PUSH2 0x3FF8 PUSH2 0x3FF3 DUP5 PUSH2 0x3FB6 JUMP JUMPDEST PUSH2 0x3AE9 JUMP JUMPDEST SWAP1 POP DUP3 DUP2 MSTORE PUSH1 0x20 DUP2 ADD DUP5 DUP5 DUP5 ADD GT ISZERO PUSH2 0x4014 JUMPI PUSH2 0x4013 PUSH2 0x3A87 JUMP JUMPDEST JUMPDEST PUSH2 0x401F DUP5 DUP3 DUP6 PUSH2 0x3B33 JUMP JUMPDEST POP SWAP4 SWAP3 POP POP POP JUMP JUMPDEST PUSH0 DUP3 PUSH1 0x1F DUP4 ADD SLT PUSH2 0x403B JUMPI PUSH2 0x403A PUSH2 0x3A83 JUMP JUMPDEST JUMPDEST DUP2 CALLDATALOAD PUSH2 0x404B DUP5 DUP3 PUSH1 0x20 DUP7 ADD PUSH2 0x3FE6 JUMP JUMPDEST SWAP2 POP POP SWAP3 SWAP2 POP POP JUMP JUMPDEST PUSH0 PUSH0 PUSH0 PUSH0 PUSH1 0x80 DUP6 DUP8 SUB SLT ISZERO PUSH2 0x406C JUMPI PUSH2 0x406B PUSH2 0x363F JUMP JUMPDEST JUMPDEST PUSH0 PUSH2 0x4079 DUP8 DUP3 DUP9 ADD PUSH2 0x3856 JUMP JUMPDEST SWAP5 POP POP PUSH1 0x20 PUSH2 0x408A DUP8 DUP3 DUP9 ADD PUSH2 0x3856 JUMP JUMPDEST SWAP4 POP POP PUSH1 0x40 PUSH2 0x409B DUP8 DUP3 DUP9 ADD PUSH2 0x37A9 JUMP JUMPDEST SWAP3 POP POP PUSH1 0x60 DUP6 ADD CALLDATALOAD PUSH8 0xFFFFFFFFFFFFFFFF DUP2 GT ISZERO PUSH2 0x40BC JUMPI PUSH2 0x40BB PUSH2 0x3643 JUMP JUMPDEST JUMPDEST PUSH2 0x40C8 DUP8 DUP3 DUP9 ADD PUSH2 0x4027 JUMP JUMPDEST SWAP2 POP POP SWAP3 SWAP6 SWAP2 SWAP5 POP SWAP3 POP JUMP JUMPDEST PUSH0 DUP2 MLOAD SWAP1 POP SWAP2 SWAP1 POP JUMP JUMPDEST PUSH0 DUP3 DUP3 MSTORE PUSH1 0x20 DUP3 ADD SWAP1 POP SWAP3 SWAP2 POP POP JUMP JUMPDEST PUSH0 DUP2 SWAP1 POP PUSH1 0x20 DUP3 ADD SWAP1 POP SWAP2 SWAP1 POP JUMP JUMPDEST PUSH0 PUSH2 0x4108 DUP4 DUP4 PUSH2 0x3D7F JUMP JUMPDEST PUSH1 0x20 DUP4 ADD SWAP1 POP SWAP3 SWAP2 POP POP JUMP JUMPDEST PUSH0 PUSH1 0x20 DUP3 ADD SWAP1 POP SWAP2 SWAP1 POP JUMP JUMPDEST PUSH0 PUSH2 0x412A DUP3 PUSH2 0x40D4 JUMP JUMPDEST PUSH2 0x4134 DUP2 DUP6 PUSH2 0x40DE JUMP JUMPDEST SWAP4 POP PUSH2 0x413F DUP4 PUSH2 0x40EE JUMP JUMPDEST DUP1 PUSH0 JUMPDEST DUP4 DUP2 LT ISZERO PUSH2 0x416F JUMPI DUP2 MLOAD PUSH2 0x4156 DUP9 DUP3 PUSH2 0x40FD JUMP JUMPDEST SWAP8 POP PUSH2 0x4161 DUP4 PUSH2 0x4114 JUMP JUMPDEST SWAP3 POP POP PUSH1 0x1 DUP2 ADD SWAP1 POP PUSH2 0x4142 JUMP JUMPDEST POP DUP6 SWAP4 POP POP POP POP SWAP3 SWAP2 POP POP JUMP JUMPDEST PUSH0 PUSH1 0x20 DUP3 ADD SWAP1 POP DUP2 DUP2 SUB PUSH0 DUP4 ADD MSTORE PUSH2 0x4194 DUP2 DUP5 PUSH2 0x4120 JUMP JUMPDEST SWAP1 POP SWAP3 SWAP2 POP POP JUMP JUMPDEST PUSH0 PUSH0 PUSH1 0x40 DUP4 DUP6 SUB SLT ISZERO PUSH2 0x41B2 JUMPI PUSH2 0x41B1 PUSH2 0x363F JUMP JUMPDEST JUMPDEST PUSH0 PUSH2 0x41BF DUP6 DUP3 DUP7 ADD PUSH2 0x37A9 JUMP JUMPDEST SWAP3 POP POP PUSH1 0x20 PUSH2 0x41D0 DUP6 DUP3 DUP7 ADD PUSH2 0x37A9 JUMP JUMPDEST SWAP2 POP POP SWAP3 POP SWAP3 SWAP1 POP JUMP JUMPDEST PUSH0 PUSH0 PUSH1 0x40 DUP4 DUP6 SUB SLT ISZERO PUSH2 0x41F0 JUMPI PUSH2 0x41EF PUSH2 0x363F JUMP JUMPDEST JUMPDEST PUSH0 PUSH2 0x41FD DUP6 DUP3 DUP7 ADD PUSH2 0x3856 JUMP JUMPDEST SWAP3 POP POP PUSH1 0x20 PUSH2 0x420E DUP6 DUP3 DUP7 ADD PUSH2 0x3856 JUMP JUMPDEST SWAP2 POP POP SWAP3 POP SWAP3 SWAP1 POP JUMP JUMPDEST PUSH32 0x4E487B7100000000000000000000000000000000000000000000000000000000 PUSH0 MSTORE PUSH1 0x22 PUSH1 0x4 MSTORE PUSH1 0x24 PUSH0 REVERT JUMPDEST PUSH0 PUSH1 0x2 DUP3 DIV SWAP1 POP PUSH1 0x1 DUP3 AND DUP1 PUSH2 0x425C JUMPI PUSH1 0x7F DUP3 AND SWAP2 POP JUMPDEST PUSH1 0x20 DUP3 LT DUP2 SUB PUSH2 0x426F JUMPI PUSH2 0x426E PUSH2 0x4218 JUMP JUMPDEST JUMPDEST POP SWAP2 SWAP1 POP JUMP JUMPDEST PUSH0 PUSH1 0x60 DUP3 ADD SWAP1 POP PUSH2 0x4288 PUSH0 DUP4 ADD DUP7 PUSH2 0x3818 JUMP JUMPDEST PUSH2 0x4295 PUSH1 0x20 DUP4 ADD DUP6 PUSH2 0x38A8 JUMP JUMPDEST PUSH2 0x42A2 PUSH1 0x40 DUP4 ADD DUP5 PUSH2 0x3818 JUMP JUMPDEST SWAP5 SWAP4 POP POP POP POP JUMP JUMPDEST PUSH0 DUP2 SWAP1 POP DUP2 PUSH0 MSTORE PUSH1 0x20 PUSH0 KECCAK256 SWAP1 POP SWAP2 SWAP1 POP JUMP JUMPDEST PUSH0 PUSH1 0x20 PUSH1 0x1F DUP4 ADD DIV SWAP1 POP SWAP2 SWAP1 POP JUMP JUMPDEST PUSH0 DUP3 DUP3 SHL SWAP1 POP SWAP3 SWAP2 POP POP JUMP JUMPDEST PUSH0 PUSH1 0x8 DUP4 MUL PUSH2 0x4306 PUSH32 0xFFFFFFFFFFFFFFFFFFFFFFFFFFFFFFFFFFFFFFFFFFFFFFFFFFFFFFFFFFFFFFFF DUP3 PUSH2 0x42CB JUMP JUMPDEST PUSH2 0x4310 DUP7 DUP4 PUSH2 0x42CB JUMP JUMPDEST SWAP6 POP DUP1 NOT DUP5 AND SWAP4 POP DUP1 DUP7 AND DUP5 OR SWAP3 POP POP POP SWAP4 SWAP3 POP POP POP JUMP JUMPDEST PUSH0 PUSH2 0x4342 PUSH2 0x433D PUSH2 0x4338 DUP5 PUSH2 0x378A JUMP JUMPDEST PUSH2 0x39E4 JUMP JUMPDEST PUSH2 0x378A JUMP JUMPDEST SWAP1 POP SWAP2 SWAP1 POP JUMP JUMPDEST PUSH0 DUP2 SWAP1 POP SWAP2 SWAP1 POP JUMP JUMPDEST PUSH2 0x435B DUP4 PUSH2 0x4328 JUMP JUMPDEST PUSH2 0x436F PUSH2 0x4367 DUP3 PUSH2 0x4349 JUMP JUMPDEST DUP5 DUP5 SLOAD PUSH2 0x42D7 JUMP JUMPDEST DUP3 SSTORE POP POP POP POP JUMP JUMPDEST PUSH0 PUSH0 SWAP1 POP SWAP1 JUMP JUMPDEST PUSH2 0x4386 PUSH2 0x4377 JUMP JUMPDEST PUSH2 0x4391 DUP2 DUP5 DUP5 PUSH2 0x4352 JUMP JUMPDEST POP POP POP JUMP JUMPDEST JUMPDEST DUP2 DUP2 LT ISZERO PUSH2 0x43B4 JUMPI PUSH2 0x43A9 PUSH0 DUP3 PUSH2 0x437E JUMP JUMPDEST PUSH1 0x1 DUP2 ADD SWAP1 POP PUSH2 0x4397 JUMP JUMPDEST POP POP JUMP JUMPDEST PUSH1 0x1F DUP3 GT ISZERO PUSH2 0x43F9 JUMPI PUSH2 0x43CA DUP2 PUSH2 0x42AA JUMP JUMPDEST PUSH2 0x43D3 DUP5 PUSH2 0x42BC JUMP JUMPDEST DUP2 ADD PUSH1 0x20 DUP6 LT ISZERO PUSH2 0x43E2 JUMPI DUP2 SWAP1 POP JUMPDEST PUSH2 0x43F6 PUSH2 0x43EE DUP6 PUSH2 0x42BC JUMP JUMPDEST DUP4 ADD DUP3 PUSH2 0x4396 JUMP JUMPDEST POP POP JUMPDEST POP POP POP JUMP JUMPDEST PUSH0 DUP3 DUP3 SHR SWAP1 POP SWAP3 SWAP2 POP POP JUMP JUMPDEST PUSH0 PUSH2 0x4419 PUSH0 NOT DUP5 PUSH1 0x8 MUL PUSH2 0x43FE JUMP JUMPDEST NOT DUP1 DUP4 AND SWAP2 POP POP SWAP3 SWAP2 POP POP JUMP JUMPDEST PUSH0 PUSH2 0x4431 DUP4 DUP4 PUSH2 0x440A JUMP JUMPDEST SWAP2 POP DUP3 PUSH1 0x2 MUL DUP3 OR SWAP1 POP SWAP3 SWAP2 POP POP JUMP JUMPDEST PUSH2 0x444A DUP3 PUSH2 0x36FA JUMP JUMPDEST PUSH8 0xFFFFFFFFFFFFFFFF DUP2 GT ISZERO PUSH2 0x4463 JUMPI PUSH2 0x4462 PUSH2 0x3A8B JUMP JUMPDEST JUMPDEST PUSH2 0x446D DUP3 SLOAD PUSH2 0x4245 JUMP JUMPDEST PUSH2 0x4478 DUP3 DUP3 DUP6 PUSH2 0x43B8 JUMP JUMPDEST PUSH0 PUSH1 0x20 SWAP1 POP PUSH1 0x1F DUP4 GT PUSH1 0x1 DUP2 EQ PUSH2 0x44A9 JUMPI PUSH0 DUP5 ISZERO PUSH2 0x4497 JUMPI DUP3 DUP8 ADD MLOAD SWAP1 POP JUMPDEST PUSH2 0x44A1 DUP6 DUP3 PUSH2 0x4426 JUMP JUMPDEST DUP7 SSTORE POP PUSH2 0x4508 JUMP JUMPDEST PUSH1 0x1F NOT DUP5 AND PUSH2 0x44B7 DUP7 PUSH2 0x42AA JUMP JUMPDEST PUSH0 JUMPDEST DUP3 DUP2 LT ISZERO PUSH2 0x44DE JUMPI DUP5 DUP10 ADD MLOAD DUP3 SSTORE PUSH1 0x1 DUP3 ADD SWAP2 POP PUSH1 0x20 DUP6 ADD SWAP5 POP PUSH1 0x20 DUP2 ADD SWAP1 POP PUSH2 0x44B9 JUMP JUMPDEST DUP7 DUP4 LT ISZERO PUSH2 0x44FB JUMPI DUP5 DUP10 ADD MLOAD PUSH2 0x44F7 PUSH1 0x1F DUP10 AND DUP3 PUSH2 0x440A JUMP JUMPDEST DUP4 SSTORE POP JUMPDEST PUSH1 0x1 PUSH1 0x2 DUP9 MUL ADD DUP9 SSTORE POP POP POP JUMPDEST POP POP POP POP POP POP JUMP JUMPDEST PUSH32 0x4E487B7100000000000000000000000000000000000000000000000000000000 PUSH0 MSTORE PUSH1 0x11 PUSH1 0x4 MSTORE PUSH1 0x24 PUSH0 REVERT JUMPDEST PUSH0 PUSH2 0x4547 DUP3 PUSH2 0x378A JUMP JUMPDEST SWAP2 POP PUSH32 0xFFFFFFFFFFFFFFFFFFFFFFFFFFFFFFFFFFFFFFFFFFFFFFFFFFFFFFFFFFFFFFFF DUP3 SUB PUSH2 0x4579 JUMPI PUSH2 0x4578 PUSH2 0x4510 JUMP JUMPDEST JUMPDEST PUSH1 0x1 DUP3 ADD SWAP1 POP SWAP2 SWAP1 POP JUMP JUMPDEST PUSH0 DUP2 SWAP1 POP SWAP3 SWAP2 POP POP JUMP JUMPDEST PUSH0 PUSH2 0x4598 DUP3 PUSH2 0x36FA JUMP JUMPDEST PUSH2 0x45A2 DUP2 DUP6 PUSH2 0x4584 JUMP JUMPDEST SWAP4 POP PUSH2 0x45B2 DUP2 DUP6 PUSH1 0x20 DUP7 ADD PUSH2 0x3714 JUMP JUMPDEST DUP1 DUP5 ADD SWAP2 POP POP SWAP3 SWAP2 POP POP JUMP JUMPDEST PUSH0 PUSH2 0x45C9 DUP3 DUP5 PUSH2 0x458E JUMP JUMPDEST SWAP2 POP DUP2 SWAP1 POP SWAP3 SWAP2 POP POP JUMP JUMPDEST PUSH32 0x63726564656E7469616C5F6D696E740000000000000000000000000000000000 PUSH0 DUP3 ADD MSTORE POP JUMP JUMPDEST PUSH0 PUSH2 0x4608 PUSH1 0xF DUP4 PUSH2 0x3704 JUMP JUMPDEST SWAP2 POP PUSH2 0x4613 DUP3 PUSH2 0x45D4 JUMP JUMPDEST PUSH1 0x20 DUP3 ADD SWAP1 POP SWAP2 SWAP1 POP JUMP JUMPDEST PUSH0 PUSH1 0x40 DUP3 ADD SWAP1 POP PUSH2 0x4631 PUSH0 DUP4 ADD DUP5 PUSH2 0x3818 JUMP JUMPDEST DUP2 DUP2 SUB PUSH1 0x20 DUP4 ADD MSTORE PUSH2 0x4642 DUP2 PUSH2 0x45FC JUMP JUMPDEST SWAP1 POP SWAP3 SWAP2 POP POP JUMP JUMPDEST PUSH0 DUP2 SLOAD PUSH2 0x4656 DUP2 PUSH2 0x4245 JUMP JUMPDEST PUSH2 0x4660 DUP2 DUP7 PUSH2 0x4584 JUMP JUMPDEST SWAP5 POP PUSH1 0x1 DUP3 AND PUSH0 DUP2 EQ PUSH2 0x467A JUMPI PUSH1 0x1 DUP2 EQ PUSH2 0x468F JUMPI PUSH2 0x46C1 JUMP JUMPDEST PUSH1 0xFF NOT DUP4 AND DUP7 MSTORE DUP2 ISZERO ISZERO DUP3 MUL DUP7 ADD SWAP4 POP PUSH2 0x46C1 JUMP JUMPDEST PUSH2 0x4698 DUP6 PUSH2 0x42AA JUMP JUMPDEST PUSH0 JUMPDEST DUP4 DUP2 LT ISZERO PUSH2 0x46B9 JUMPI DUP2 SLOAD DUP2 DUP10 ADD MSTORE PUSH1 0x1 DUP3 ADD SWAP2 POP PUSH1 0x20 DUP2 ADD SWAP1 POP PUSH2 0x469A JUMP JUMPDEST DUP4 DUP9 ADD SWAP6 POP POP POP JUMPDEST POP POP POP SWAP3 SWAP2 POP POP JUMP JUMPDEST PUSH0 PUSH2 0x46D5 DUP3 DUP5 PUSH2 0x464A JUMP JUMPDEST SWAP2 POP DUP2 SWAP1 POP SWAP3 SWAP2 POP POP JUMP JUMPDEST PUSH0 PUSH2 0x46EA DUP3 PUSH2 0x378A JUMP JUMPDEST SWAP2 POP PUSH0 DUP3 SUB PUSH2 0x46FC JUMPI PUSH2 0x46FB PUSH2 0x4510 JUMP JUMPDEST JUMPDEST PUSH1 0x1 DUP3 SUB SWAP1 POP SWAP2 SWAP1 POP JUMP JUMPDEST PUSH32 0x3F7469746C653D00000000000000000000000000000000000000000000000000 PUSH0 DUP3 ADD MSTORE POP JUMP JUMPDEST PUSH0 PUSH2 0x473B PUSH1 0x7 DUP4 PUSH2 0x4584 JUMP JUMPDEST SWAP2 POP PUSH2 0x4746 DUP3 PUSH2 0x4707 JUMP JUMPDEST PUSH1 0x7 DUP3 ADD SWAP1 POP SWAP2 SWAP1 POP JUMP JUMPDEST PUSH32 0x26747970653D0000000000000000000000000000000000000000000000000000 PUSH0 DUP3 ADD MSTORE POP JUMP JUMPDEST PUSH0 PUSH2 0x4785 PUSH1 0x6 DUP4 PUSH2 0x4584 JUMP JUMPDEST SWAP2 POP PUSH2 0x4790 DUP3 PUSH2 0x4751 JUMP JUMPDEST PUSH1 0x6 DUP3 ADD SWAP1 POP SWAP2 SWAP1 POP JUMP JUMPDEST PUSH0 PUSH2 0x47A6 DUP3 DUP8 PUSH2 0x464A JUMP JUMPDEST SWAP2 POP PUSH2 0x47B2 DUP3 DUP7 PUSH2 0x464A JUMP JUMPDEST SWAP2 POP PUSH2 0x47BD DUP3 PUSH2 0x472F JUMP JUMPDEST SWAP2 POP PUSH2 0x47C9 DUP3 DUP6 PUSH2 0x464A JUMP JUMPDEST SWAP2 POP PUSH2 0x47D4 DUP3 PUSH2 0x4779 JUMP JUMPDEST SWAP2 POP PUSH2 0x47E0 DUP3 DUP5 PUSH2 0x464A JUMP JUMPDEST SWAP2 POP DUP2 SWAP1 POP SWAP6 SWAP5 POP POP POP POP POP JUMP JUMPDEST PUSH32 0x63726564656E7469616C5F766572696669636174696F6E000000000000000000 PUSH0 DUP3 ADD MSTORE POP JUMP JUMPDEST PUSH0 PUSH2 0x4822 PUSH1 0x17 DUP4 PUSH2 0x3704 JUMP JUMPDEST SWAP2 POP PUSH2 0x482D DUP3 PUSH2 0x47EE JUMP JUMPDEST PUSH1 0x20 DUP3 ADD SWAP1 POP SWAP2 SWAP1 POP JUMP JUMPDEST PUSH0 PUSH1 0x40 DUP3 ADD SWAP1 POP PUSH2 0x484B PUSH0 DUP4 ADD DUP5 PUSH2 0x3818 JUMP JUMPDEST DUP2 DUP2 SUB PUSH1 0x20 DUP4 ADD MSTORE PUSH2 0x485C DUP2 PUSH2 0x4816 JUMP JUMPDEST SWAP1 POP SWAP3 SWAP2 POP POP JUMP JUMPDEST PUSH32 0x5265656E7472616E637947756172643A207265656E7472616E742063616C6C00 PUSH0 DUP3 ADD MSTORE POP JUMP JUMPDEST PUSH0 PUSH2 0x4898 PUSH1 0x1F DUP4 PUSH2 0x3704 JUMP JUMPDEST SWAP2 POP PUSH2 0x48A3 DUP3 PUSH2 0x4864 JUMP JUMPDEST PUSH1 0x20 DUP3 ADD SWAP1 POP SWAP2 SWAP1 POP JUMP JUMPDEST PUSH0 PUSH1 0x20 DUP3 ADD SWAP1 POP DUP2 DUP2 SUB PUSH0 DUP4 ADD MSTORE PUSH2 0x48C5 DUP2 PUSH2 0x488C JUMP JUMPDEST SWAP1 POP SWAP2 SWAP1 POP JUMP JUMPDEST PUSH32 0x5061757361626C653A2070617573656400000000000000000000000000000000 PUSH0 DUP3 ADD MSTORE POP JUMP JUMPDEST PUSH0 PUSH2 0x4900 PUSH1 0x10 DUP4 PUSH2 0x3704 JUMP JUMPDEST SWAP2 POP PUSH2 0x490B DUP3 PUSH2 0x48CC JUMP JUMPDEST PUSH1 0x20 DUP3 ADD SWAP1 POP SWAP2 SWAP1 POP JUMP JUMPDEST PUSH0 PUSH1 0x20 DUP3 ADD SWAP1 POP DUP2 DUP2 SUB PUSH0 DUP4 ADD MSTORE PUSH2 0x492D DUP2 PUSH2 0x48F4 JUMP JUMPDEST SWAP1 POP SWAP2 SWAP1 POP JUMP JUMPDEST PUSH32 0x4E487B7100000000000000000000000000000000000000000000000000000000 PUSH0 MSTORE PUSH1 0x32 PUSH1 0x4 MSTORE PUSH1 0x24 PUSH0 REVERT JUMPDEST PUSH0 PUSH2 0x496B DUP3 PUSH2 0x378A JUMP JUMPDEST SWAP2 POP PUSH2 0x4976 DUP4 PUSH2 0x378A JUMP JUMPDEST SWAP3 POP DUP3 DUP3 SUB SWAP1 POP DUP2 DUP2 GT ISZERO PUSH2 0x498E JUMPI PUSH2 0x498D PUSH2 0x4510 JUMP JUMPDEST JUMPDEST SWAP3 SWAP2 POP POP JUMP JUMPDEST PUSH32 0x4E487B7100000000000000000000000000000000000000000000000000000000 PUSH0 MSTORE PUSH1 0x31 PUSH1 0x4 MSTORE PUSH1 0x24 PUSH0 REVERT JUMPDEST PUSH0 DUP2 MLOAD SWAP1 POP SWAP2 SWAP1 POP JUMP JUMPDEST PUSH0 DUP3 DUP3 MSTORE PUSH1 0x20 DUP3 ADD SWAP1 POP SWAP3 SWAP2 POP POP JUMP JUMPDEST PUSH0 PUSH2 0x49E5 DUP3 PUSH2 0x49C1 JUMP JUMPDEST PUSH2 0x49EF DUP2 DUP6 PUSH2 0x49CB JUMP JUMPDEST SWAP4 POP PUSH2 0x49FF DUP2 DUP6 PUSH1 0x20 DUP7 ADD PUSH2 0x3714 JUMP JUMPDEST PUSH2 0x4A08 DUP2 PUSH2 0x3722 JUMP JUMPDEST DUP5 ADD SWAP2 POP POP SWAP3 SWAP2 POP POP JUMP JUMPDEST PUSH0 PUSH1 0x80 DUP3 ADD SWAP1 POP PUSH2 0x4A26 PUSH0 DUP4 ADD DUP8 PUSH2 0x3818 JUMP JUMPDEST PUSH2 0x4A33 PUSH1 0x20 DUP4 ADD DUP7 PUSH2 0x3818 JUMP JUMPDEST PUSH2 0x4A40 PUSH1 0x40 DUP4 ADD DUP6 PUSH2 0x38A8 JUMP JUMPDEST DUP2 DUP2 SUB PUSH1 0x60 DUP4 ADD MSTORE PUSH2 0x4A52 DUP2 DUP5 PUSH2 0x49DB JUMP JUMPDEST SWAP1 POP SWAP6 SWAP5 POP POP POP POP POP JUMP JUMPDEST PUSH0 DUP2 MLOAD SWAP1 POP PUSH2 0x4A6B DUP2 PUSH2 0x3672 JUMP JUMPDEST SWAP3 SWAP2 POP POP JUMP JUMPDEST PUSH0 PUSH1 0x20 DUP3 DUP5 SUB SLT ISZERO PUSH2 0x4A86 JUMPI PUSH2 0x4A85 PUSH2 0x363F JUMP JUMPDEST JUMPDEST PUSH0 PUSH2 0x4A93 DUP5 DUP3 DUP6 ADD PUSH2 0x4A5D JUMP JUMPDEST SWAP2 POP POP SWAP3 SWAP2 POP POP JUMP JUMPDEST PUSH0 PUSH1 0x40 DUP3 ADD SWAP1 POP PUSH2 0x4AAF PUSH0 DUP4 ADD DUP6 PUSH2 0x3818 JUMP JUMPDEST PUSH2 0x4ABC PUSH1 0x20 DUP4 ADD DUP5 PUSH2 0x397E JUMP JUMPDEST SWAP4 SWAP3 POP POP POP JUMP JUMPDEST PUSH32 0x5061757361626C653A206E6F7420706175736564000000000000000000000000 PUSH0 DUP3 ADD MSTORE POP JUMP JUMPDEST PUSH0 PUSH2 0x4AF7 PUSH1 0x14 DUP4 PUSH2 0x3704 JUMP JUMPDEST SWAP2 POP PUSH2 0x4B02 DUP3 PUSH2 0x4AC3 JUMP JUMPDEST PUSH1 0x20 DUP3 ADD SWAP1 POP SWAP2 SWAP1 POP JUMP JUMPDEST PUSH0 PUSH1 0x20 DUP3 ADD SWAP1 POP DUP2 DUP2 SUB PUSH0 DUP4 ADD MSTORE PUSH2 0x4B24 DUP2 PUSH2 0x4AEB JUMP JUMPDEST SWAP1 POP SWAP2 SWAP1 POP JUMP JUMPDEST PUSH0 PUSH1 0x40 DUP3 ADD SWAP1 POP PUSH2 0x4B3E PUSH0 DUP4 ADD DUP6 PUSH2 0x3818 JUMP JUMPDEST PUSH2 0x4B4B PUSH1 0x20 DUP4 ADD DUP5 PUSH2 0x38A8 JUMP JUMPDEST SWAP4 SWAP3 POP POP POP JUMP INVALID LOG2 PUSH5 0x6970667358 0x22 SLT KECCAK256 JUMPDEST DUP3 XOR CHAINID PUSH17 0x1B3EFA076784AA1C620C97CFB859B84C24 SAR LOG4 0x1E 0xB3 0xF9 0xCC 0xDA 0xC2 0x1E 0x2A PUSH5 0x736F6C6343 STOP ADDMOD SHR STOP CALLER "
		},
		"gasEstimates": {
			"creation": {
				"codeDepositCost": "3867200",
				"executionCost": "infinite",
				"totalCost": "infinite"
			},
			"external": {
				"DEFAULT_ADMIN_ROLE()": "396",
				"MINTER_ROLE()": "436",
				"VERIFIER_ROLE()": "391",
				"approve(address,uint256)": "infinite",
				"balanceOf(address)": "infinite",
				"blacklistUser(address,string)": "infinite",
				"credToken()": "infinite",
				"dao()": "infinite",
				"getApproved(uint256)": "infinite",
				"getCredential(uint256)": "infinite",
				"getCredentialTypeCount(string)": "infinite",
				"getRoleAdmin(bytes32)": "infinite",
				"getUserCredentials(address)": "infinite",
				"grantRole(bytes32,address)": "infinite",
				"hasRole(bytes32,address)": "3233",
				"isApprovedForAll(address,address)": "infinite",
				"isBlacklisted(address)": "2965",
				"isCredentialValid(uint256)": "9668",
				"mintCredential(address,string,string,string,string)": "infinite",
				"name()": "infinite",
				"ownerOf(uint256)": "infinite",
				"pause()": "infinite",
				"paused()": "2540",
				"renounceRole(bytes32,address)": "infinite",
				"revokeCredential(uint256,string)": "infinite",
				"revokeRole(bytes32,address)": "infinite",
				"safeTransferFrom(address,address,uint256)": "infinite",
				"safeTransferFrom(address,address,uint256,bytes)": "infinite",
				"setApprovalForAll(address,bool)": "infinite",
				"setBaseURI(string)": "infinite",
				"setExpiryDate(uint256,uint256)": "infinite",
				"supportsInterface(bytes4)": "1034",
				"symbol()": "infinite",
				"tokenURI(uint256)": "infinite",
				"totalSupply()": "2471",
				"transferFrom(address,address,uint256)": "infinite",
				"unpause()": "infinite",
				"verifyCredential(uint256)": "infinite",
				"whitelistUser(address)": "infinite"
			},
			"internal": {
				"_inferCredentialType(string memory)": "infinite",
				"_removeFromOwnerCredentials(address,uint256)": "infinite",
				"_update(address,uint256,address)": "infinite"
			}
		},
		"methodIdentifiers": {
			"DEFAULT_ADMIN_ROLE()": "a217fddf",
			"MINTER_ROLE()": "d5391393",
			"VERIFIER_ROLE()": "e7705db6",
			"approve(address,uint256)": "095ea7b3",
			"balanceOf(address)": "70a08231",
			"blacklistUser(address,string)": "4d0970c6",
			"credToken()": "af983753",
			"dao()": "4162169f",
			"getApproved(uint256)": "081812fc",
			"getCredential(uint256)": "8dd18d2d",
			"getCredentialTypeCount(string)": "b9565fbd",
			"getRoleAdmin(bytes32)": "248a9ca3",
			"getUserCredentials(address)": "c76d2919",
			"grantRole(bytes32,address)": "2f2ff15d",
			"hasRole(bytes32,address)": "91d14854",
			"isApprovedForAll(address,address)": "e985e9c5",
			"isBlacklisted(address)": "fe575a87",
			"isCredentialValid(uint256)": "6da48b9a",
			"mintCredential(address,string,string,string,string)": "68ec6e6b",
			"name()": "06fdde03",
			"ownerOf(uint256)": "6352211e",
			"pause()": "8456cb59",
			"paused()": "5c975abb",
			"renounceRole(bytes32,address)": "36568abe",
			"revokeCredential(uint256,string)": "957a3205",
			"revokeRole(bytes32,address)": "d547741f",
			"safeTransferFrom(address,address,uint256)": "42842e0e",
			"safeTransferFrom(address,address,uint256,bytes)": "b88d4fde",
			"setApprovalForAll(address,bool)": "a22cb465",
			"setBaseURI(string)": "55f804b3",
			"setExpiryDate(uint256,uint256)": "d91f2a0b",
			"supportsInterface(bytes4)": "01ffc9a7",
			"symbol()": "95d89b41",
			"tokenURI(uint256)": "c87b56dd",
			"totalSupply()": "18160ddd",
			"transferFrom(address,address,uint256)": "23b872dd",
			"unpause()": "3f4ba83a",
			"verifyCredential(uint256)": "f2a91b1c",
			"whitelistUser(address)": "4a4c560d"
		}
	},
	"abi": [
		{
			"inputs": [
				{
					"internalType": "address payable",
					"name": "_dao",
					"type": "address"
				},
				{
					"internalType": "address",
					"name": "_credToken",
					"type": "address"
				}
			],
			"stateMutability": "nonpayable",
			"type": "constructor"
		},
		{
			"inputs": [],
			"name": "AccessControlBadConfirmation",
			"type": "error"
		},
		{
			"inputs": [
				{
					"internalType": "address",
					"name": "account",
					"type": "address"
				},
				{
					"internalType": "bytes32",
					"name": "neededRole",
					"type": "bytes32"
				}
			],
			"name": "AccessControlUnauthorizedAccount",
			"type": "error"
		},
		{
			"inputs": [],
			"name": "AlreadyVerified",
			"type": "error"
		},
		{
			"inputs": [],
			"name": "BlacklistedUser",
			"type": "error"
		},
		{
			"inputs": [],
			"name": "CredentialNotExists",
			"type": "error"
		},
		{
			"inputs": [
				{
					"internalType": "address",
					"name": "sender",
					"type": "address"
				},
				{
					"internalType": "uint256",
					"name": "tokenId",
					"type": "uint256"
				},
				{
					"internalType": "address",
					"name": "owner",
					"type": "address"
				}
			],
			"name": "ERC721IncorrectOwner",
			"type": "error"
		},
		{
			"inputs": [
				{
					"internalType": "address",
					"name": "operator",
					"type": "address"
				},
				{
					"internalType": "uint256",
					"name": "tokenId",
					"type": "uint256"
				}
			],
			"name": "ERC721InsufficientApproval",
			"type": "error"
		},
		{
			"inputs": [
				{
					"internalType": "address",
					"name": "approver",
					"type": "address"
				}
			],
			"name": "ERC721InvalidApprover",
			"type": "error"
		},
		{
			"inputs": [
				{
					"internalType": "address",
					"name": "operator",
					"type": "address"
				}
			],
			"name": "ERC721InvalidOperator",
			"type": "error"
		},
		{
			"inputs": [
				{
					"internalType": "address",
					"name": "owner",
					"type": "address"
				}
			],
			"name": "ERC721InvalidOwner",
			"type": "error"
		},
		{
			"inputs": [
				{
					"internalType": "address",
					"name": "receiver",
					"type": "address"
				}
			],
			"name": "ERC721InvalidReceiver",
			"type": "error"
		},
		{
			"inputs": [
				{
					"internalType": "address",
					"name": "sender",
					"type": "address"
				}
			],
			"name": "ERC721InvalidSender",
			"type": "error"
		},
		{
			"inputs": [
				{
					"internalType": "uint256",
					"name": "tokenId",
					"type": "uint256"
				}
			],
			"name": "ERC721NonexistentToken",
			"type": "error"
		},
		{
			"inputs": [],
			"name": "InvalidCredentialType",
			"type": "error"
		},
		{
			"inputs": [],
			"name": "InvalidMetadata",
			"type": "error"
		},
		{
			"inputs": [],
			"name": "NotAuthorized",
			"type": "error"
		},
		{
			"anonymous": false,
			"inputs": [
				{
					"indexed": true,
					"internalType": "address",
					"name": "owner",
					"type": "address"
				},
				{
					"indexed": true,
					"internalType": "address",
					"name": "approved",
					"type": "address"
				},
				{
					"indexed": true,
					"internalType": "uint256",
					"name": "tokenId",
					"type": "uint256"
				}
			],
			"name": "Approval",
			"type": "event"
		},
		{
			"anonymous": false,
			"inputs": [
				{
					"indexed": true,
					"internalType": "address",
					"name": "owner",
					"type": "address"
				},
				{
					"indexed": true,
					"internalType": "address",
					"name": "operator",
					"type": "address"
				},
				{
					"indexed": false,
					"internalType": "bool",
					"name": "approved",
					"type": "bool"
				}
			],
			"name": "ApprovalForAll",
			"type": "event"
		},
		{
			"anonymous": false,
			"inputs": [
				{
					"indexed": false,
					"internalType": "uint256",
					"name": "_fromTokenId",
					"type": "uint256"
				},
				{
					"indexed": false,
					"internalType": "uint256",
					"name": "_toTokenId",
					"type": "uint256"
				}
			],
			"name": "BatchMetadataUpdate",
			"type": "event"
		},
		{
			"anonymous": false,
			"inputs": [
				{
					"indexed": true,
					"internalType": "address",
					"name": "to",
					"type": "address"
				},
				{
					"indexed": true,
					"internalType": "uint256",
					"name": "tokenId",
					"type": "uint256"
				},
				{
					"indexed": false,
					"internalType": "string",
					"name": "title",
					"type": "string"
				}
			],
			"name": "CredentialMinted",
			"type": "event"
		},
		{
			"anonymous": false,
			"inputs": [
				{
					"indexed": true,
					"internalType": "uint256",
					"name": "tokenId",
					"type": "uint256"
				},
				{
					"indexed": false,
					"internalType": "string",
					"name": "reason",
					"type": "string"
				}
			],
			"name": "CredentialRevoked",
			"type": "event"
		},
		{
			"anonymous": false,
			"inputs": [
				{
					"indexed": true,
					"internalType": "uint256",
					"name": "tokenId",
					"type": "uint256"
				},
				{
					"indexed": true,
					"internalType": "address",
					"name": "verifier",
					"type": "address"
				}
			],
			"name": "CredentialVerified",
			"type": "event"
		},
		{
			"anonymous": false,
			"inputs": [
				{
					"indexed": false,
					"internalType": "uint256",
					"name": "_tokenId",
					"type": "uint256"
				}
			],
			"name": "MetadataUpdate",
			"type": "event"
		},
		{
			"anonymous": false,
			"inputs": [
				{
					"indexed": false,
					"internalType": "address",
					"name": "account",
					"type": "address"
				}
			],
			"name": "Paused",
			"type": "event"
		},
		{
			"anonymous": false,
			"inputs": [
				{
					"indexed": true,
					"internalType": "bytes32",
					"name": "role",
					"type": "bytes32"
				},
				{
					"indexed": true,
					"internalType": "bytes32",
					"name": "previousAdminRole",
					"type": "bytes32"
				},
				{
					"indexed": true,
					"internalType": "bytes32",
					"name": "newAdminRole",
					"type": "bytes32"
				}
			],
			"name": "RoleAdminChanged",
			"type": "event"
		},
		{
			"anonymous": false,
			"inputs": [
				{
					"indexed": true,
					"internalType": "bytes32",
					"name": "role",
					"type": "bytes32"
				},
				{
					"indexed": true,
					"internalType": "address",
					"name": "account",
					"type": "address"
				},
				{
					"indexed": true,
					"internalType": "address",
					"name": "sender",
					"type": "address"
				}
			],
			"name": "RoleGranted",
			"type": "event"
		},
		{
			"anonymous": false,
			"inputs": [
				{
					"indexed": true,
					"internalType": "bytes32",
					"name": "role",
					"type": "bytes32"
				},
				{
					"indexed": true,
					"internalType": "address",
					"name": "account",
					"type": "address"
				},
				{
					"indexed": true,
					"internalType": "address",
					"name": "sender",
					"type": "address"
				}
			],
			"name": "RoleRevoked",
			"type": "event"
		},
		{
			"anonymous": false,
			"inputs": [
				{
					"indexed": true,
					"internalType": "address",
					"name": "from",
					"type": "address"
				},
				{
					"indexed": true,
					"internalType": "address",
					"name": "to",
					"type": "address"
				},
				{
					"indexed": true,
					"internalType": "uint256",
					"name": "tokenId",
					"type": "uint256"
				}
			],
			"name": "Transfer",
			"type": "event"
		},
		{
			"anonymous": false,
			"inputs": [
				{
					"indexed": false,
					"internalType": "address",
					"name": "account",
					"type": "address"
				}
			],
			"name": "Unpaused",
			"type": "event"
		},
		{
			"anonymous": false,
			"inputs": [
				{
					"indexed": true,
					"internalType": "address",
					"name": "user",
					"type": "address"
				},
				{
					"indexed": false,
					"internalType": "string",
					"name": "reason",
					"type": "string"
				}
			],
			"name": "UserBlacklisted",
			"type": "event"
		},
		{
			"anonymous": false,
			"inputs": [
				{
					"indexed": true,
					"internalType": "address",
					"name": "user",
					"type": "address"
				}
			],
			"name": "UserWhitelisted",
			"type": "event"
		},
		{
			"inputs": [],
			"name": "DEFAULT_ADMIN_ROLE",
			"outputs": [
				{
					"internalType": "bytes32",
					"name": "",
					"type": "bytes32"
				}
			],
			"stateMutability": "view",
			"type": "function"
		},
		{
			"inputs": [],
			"name": "MINTER_ROLE",
			"outputs": [
				{
					"internalType": "bytes32",
					"name": "",
					"type": "bytes32"
				}
			],
			"stateMutability": "view",
			"type": "function"
		},
		{
			"inputs": [],
			"name": "VERIFIER_ROLE",
			"outputs": [
				{
					"internalType": "bytes32",
					"name": "",
					"type": "bytes32"
				}
			],
			"stateMutability": "view",
			"type": "function"
		},
		{
			"inputs": [
				{
					"internalType": "address",
					"name": "to",
					"type": "address"
				},
				{
					"internalType": "uint256",
					"name": "tokenId",
					"type": "uint256"
				}
			],
			"name": "approve",
			"outputs": [],
			"stateMutability": "nonpayable",
			"type": "function"
		},
		{
			"inputs": [
				{
					"internalType": "address",
					"name": "owner",
					"type": "address"
				}
			],
			"name": "balanceOf",
			"outputs": [
				{
					"internalType": "uint256",
					"name": "",
					"type": "uint256"
				}
			],
			"stateMutability": "view",
			"type": "function"
		},
		{
			"inputs": [
				{
					"internalType": "address",
					"name": "user",
					"type": "address"
				},
				{
					"internalType": "string",
					"name": "reason",
					"type": "string"
				}
			],
			"name": "blacklistUser",
			"outputs": [],
			"stateMutability": "nonpayable",
			"type": "function"
		},
		{
			"inputs": [],
			"name": "credToken",
			"outputs": [
				{
					"internalType": "contract CREDToken",
					"name": "",
					"type": "address"
				}
			],
			"stateMutability": "view",
			"type": "function"
		},
		{
			"inputs": [],
			"name": "dao",
			"outputs": [
				{
					"internalType": "contract CredSphereDAO",
					"name": "",
					"type": "address"
				}
			],
			"stateMutability": "view",
			"type": "function"
		},
		{
			"inputs": [
				{
					"internalType": "uint256",
					"name": "tokenId",
					"type": "uint256"
				}
			],
			"name": "getApproved",
			"outputs": [
				{
					"internalType": "address",
					"name": "",
					"type": "address"
				}
			],
			"stateMutability": "view",
			"type": "function"
		},
		{
			"inputs": [
				{
					"internalType": "uint256",
					"name": "tokenId",
					"type": "uint256"
				}
			],
			"name": "getCredential",
			"outputs": [
				{
					"components": [
						{
							"internalType": "string",
							"name": "title",
							"type": "string"
						},
						{
							"internalType": "string",
							"name": "description",
							"type": "string"
						},
						{
							"internalType": "string",
							"name": "skillsMetadata",
							"type": "string"
						},
						{
							"internalType": "string",
							"name": "ipfsHash",
							"type": "string"
						},
						{
							"internalType": "uint256",
							"name": "issuedAt",
							"type": "uint256"
						},
						{
							"internalType": "bool",
							"name": "isVerified",
							"type": "bool"
						},
						{
							"internalType": "address",
							"name": "issuer",
							"type": "address"
						},
						{
							"internalType": "uint256",
							"name": "expiryDate",
							"type": "uint256"
						},
						{
							"internalType": "string",
							"name": "credentialType",
							"type": "string"
						}
					],
					"internalType": "struct CredentialNFT.Credential",
					"name": "",
					"type": "tuple"
				}
			],
			"stateMutability": "view",
			"type": "function"
		},
		{
			"inputs": [
				{
					"internalType": "string",
					"name": "credentialType",
					"type": "string"
				}
			],
			"name": "getCredentialTypeCount",
			"outputs": [
				{
					"internalType": "uint256",
					"name": "",
					"type": "uint256"
				}
			],
			"stateMutability": "view",
			"type": "function"
		},
		{
			"inputs": [
				{
					"internalType": "bytes32",
					"name": "role",
					"type": "bytes32"
				}
			],
			"name": "getRoleAdmin",
			"outputs": [
				{
					"internalType": "bytes32",
					"name": "",
					"type": "bytes32"
				}
			],
			"stateMutability": "view",
			"type": "function"
		},
		{
			"inputs": [
				{
					"internalType": "address",
					"name": "user",
					"type": "address"
				}
			],
			"name": "getUserCredentials",
			"outputs": [
				{
					"internalType": "uint256[]",
					"name": "",
					"type": "uint256[]"
				}
			],
			"stateMutability": "view",
			"type": "function"
		},
		{
			"inputs": [
				{
					"internalType": "bytes32",
					"name": "role",
					"type": "bytes32"
				},
				{
					"internalType": "address",
					"name": "account",
					"type": "address"
				}
			],
			"name": "grantRole",
			"outputs": [],
			"stateMutability": "nonpayable",
			"type": "function"
		},
		{
			"inputs": [
				{
					"internalType": "bytes32",
					"name": "role",
					"type": "bytes32"
				},
				{
					"internalType": "address",
					"name": "account",
					"type": "address"
				}
			],
			"name": "hasRole",
			"outputs": [
				{
					"internalType": "bool",
					"name": "",
					"type": "bool"
				}
			],
			"stateMutability": "view",
			"type": "function"
		},
		{
			"inputs": [
				{
					"internalType": "address",
					"name": "owner",
					"type": "address"
				},
				{
					"internalType": "address",
					"name": "operator",
					"type": "address"
				}
			],
			"name": "isApprovedForAll",
			"outputs": [
				{
					"internalType": "bool",
					"name": "",
					"type": "bool"
				}
			],
			"stateMutability": "view",
			"type": "function"
		},
		{
			"inputs": [
				{
					"internalType": "address",
					"name": "",
					"type": "address"
				}
			],
			"name": "isBlacklisted",
			"outputs": [
				{
					"internalType": "bool",
					"name": "",
					"type": "bool"
				}
			],
			"stateMutability": "view",
			"type": "function"
		},
		{
			"inputs": [
				{
					"internalType": "uint256",
					"name": "tokenId",
					"type": "uint256"
				}
			],
			"name": "isCredentialValid",
			"outputs": [
				{
					"internalType": "bool",
					"name": "",
					"type": "bool"
				}
			],
			"stateMutability": "view",
			"type": "function"
		},
		{
			"inputs": [
				{
					"internalType": "address",
					"name": "to",
					"type": "address"
				},
				{
					"internalType": "string",
					"name": "title",
					"type": "string"
				},
				{
					"internalType": "string",
					"name": "description",
					"type": "string"
				},
				{
					"internalType": "string",
					"name": "skillsMetadata",
					"type": "string"
				},
				{
					"internalType": "string",
					"name": "ipfsHash",
					"type": "string"
				}
			],
			"name": "mintCredential",
			"outputs": [
				{
					"internalType": "uint256",
					"name": "",
					"type": "uint256"
				}
			],
			"stateMutability": "nonpayable",
			"type": "function"
		},
		{
			"inputs": [],
			"name": "name",
			"outputs": [
				{
					"internalType": "string",
					"name": "",
					"type": "string"
				}
			],
			"stateMutability": "view",
			"type": "function"
		},
		{
			"inputs": [
				{
					"internalType": "uint256",
					"name": "tokenId",
					"type": "uint256"
				}
			],
			"name": "ownerOf",
			"outputs": [
				{
					"internalType": "address",
					"name": "",
					"type": "address"
				}
			],
			"stateMutability": "view",
			"type": "function"
		},
		{
			"inputs": [],
			"name": "pause",
			"outputs": [],
			"stateMutability": "nonpayable",
			"type": "function"
		},
		{
			"inputs": [],
			"name": "paused",
			"outputs": [
				{
					"internalType": "bool",
					"name": "",
					"type": "bool"
				}
			],
			"stateMutability": "view",
			"type": "function"
		},
		{
			"inputs": [
				{
					"internalType": "bytes32",
					"name": "role",
					"type": "bytes32"
				},
				{
					"internalType": "address",
					"name": "callerConfirmation",
					"type": "address"
				}
			],
			"name": "renounceRole",
			"outputs": [],
			"stateMutability": "nonpayable",
			"type": "function"
		},
		{
			"inputs": [
				{
					"internalType": "uint256",
					"name": "tokenId",
					"type": "uint256"
				},
				{
					"internalType": "string",
					"name": "reason",
					"type": "string"
				}
			],
			"name": "revokeCredential",
			"outputs": [],
			"stateMutability": "nonpayable",
			"type": "function"
		},
		{
			"inputs": [
				{
					"internalType": "bytes32",
					"name": "role",
					"type": "bytes32"
				},
				{
					"internalType": "address",
					"name": "account",
					"type": "address"
				}
			],
			"name": "revokeRole",
			"outputs": [],
			"stateMutability": "nonpayable",
			"type": "function"
		},
		{
			"inputs": [
				{
					"internalType": "address",
					"name": "from",
					"type": "address"
				},
				{
					"internalType": "address",
					"name": "to",
					"type": "address"
				},
				{
					"internalType": "uint256",
					"name": "tokenId",
					"type": "uint256"
				}
			],
			"name": "safeTransferFrom",
			"outputs": [],
			"stateMutability": "nonpayable",
			"type": "function"
		},
		{
			"inputs": [
				{
					"internalType": "address",
					"name": "from",
					"type": "address"
				},
				{
					"internalType": "address",
					"name": "to",
					"type": "address"
				},
				{
					"internalType": "uint256",
					"name": "tokenId",
					"type": "uint256"
				},
				{
					"internalType": "bytes",
					"name": "data",
					"type": "bytes"
				}
			],
			"name": "safeTransferFrom",
			"outputs": [],
			"stateMutability": "nonpayable",
			"type": "function"
		},
		{
			"inputs": [
				{
					"internalType": "address",
					"name": "operator",
					"type": "address"
				},
				{
					"internalType": "bool",
					"name": "approved",
					"type": "bool"
				}
			],
			"name": "setApprovalForAll",
			"outputs": [],
			"stateMutability": "nonpayable",
			"type": "function"
		},
		{
			"inputs": [
				{
					"internalType": "string",
					"name": "newBaseURI",
					"type": "string"
				}
			],
			"name": "setBaseURI",
			"outputs": [],
			"stateMutability": "nonpayable",
			"type": "function"
		},
		{
			"inputs": [
				{
					"internalType": "uint256",
					"name": "tokenId",
					"type": "uint256"
				},
				{
					"internalType": "uint256",
					"name": "expiryDate",
					"type": "uint256"
				}
			],
			"name": "setExpiryDate",
			"outputs": [],
			"stateMutability": "nonpayable",
			"type": "function"
		},
		{
			"inputs": [
				{
					"internalType": "bytes4",
					"name": "interfaceId",
					"type": "bytes4"
				}
			],
			"name": "supportsInterface",
			"outputs": [
				{
					"internalType": "bool",
					"name": "",
					"type": "bool"
				}
			],
			"stateMutability": "view",
			"type": "function"
		},
		{
			"inputs": [],
			"name": "symbol",
			"outputs": [
				{
					"internalType": "string",
					"name": "",
					"type": "string"
				}
			],
			"stateMutability": "view",
			"type": "function"
		},
		{
			"inputs": [
				{
					"internalType": "uint256",
					"name": "tokenId",
					"type": "uint256"
				}
			],
			"name": "tokenURI",
			"outputs": [
				{
					"internalType": "string",
					"name": "",
					"type": "string"
				}
			],
			"stateMutability": "view",
			"type": "function"
		},
		{
			"inputs": [],
			"name": "totalSupply",
			"outputs": [
				{
					"internalType": "uint256",
					"name": "",
					"type": "uint256"
				}
			],
			"stateMutability": "view",
			"type": "function"
		},
		{
			"inputs": [
				{
					"internalType": "address",
					"name": "from",
					"type": "address"
				},
				{
					"internalType": "address",
					"name": "to",
					"type": "address"
				},
				{
					"internalType": "uint256",
					"name": "tokenId",
					"type": "uint256"
				}
			],
			"name": "transferFrom",
			"outputs": [],
			"stateMutability": "nonpayable",
			"type": "function"
		},
		{
			"inputs": [],
			"name": "unpause",
			"outputs": [],
			"stateMutability": "nonpayable",
			"type": "function"
		},
		{
			"inputs": [
				{
					"internalType": "uint256",
					"name": "tokenId",
					"type": "uint256"
				}
			],
			"name": "verifyCredential",
			"outputs": [],
			"stateMutability": "nonpayable",
			"type": "function"
		},
		{
			"inputs": [
				{
					"internalType": "address",
					"name": "user",
					"type": "address"
				}
			],
			"name": "whitelistUser",
			"outputs": [],
			"stateMutability": "nonpayable",
			"type": "function"
		}
	]
}