{
	"data": {
		"bytecode": {
			"linkReferences": {},
			"object": "60a060405234801561000f575f5ffd5b50604051613ea2380380613ea283398181016040528101906100319190610691565b848484846100475f5f1b3061030960201b60201c565b505f73ffffffffffffffffffffffffffffffffffffffff168173ffffffffffffffffffffffffffffffffffffffff161461008f5761008d5f5f1b8261030960201b60201c565b505b5f5f90505b835181101561013e576100e77fb09aa5aeb3702cfd50b6b62bc4532604938f21248a27a1d5ca736082b6819cc18583815181106100d4576100d3610740565b5b602002602001015161030960201b60201c565b506101327ffd643c72710c63c0180259aba6b2d05451e3591a24e58b62239378085726f78385838151811061011f5761011e610740565b5b602002602001015161030960201b60201c565b50806001019050610094565b505f5f90505b82518110156101a3576101977fd8aa0f3194971a2a116679f7c2090f6939c8d4e01a2a8d7e41d55e5351469e6384838151811061018457610183610740565b5b602002602001015161030960201b60201c565b50806001019050610144565b50836002819055507f11c24f4ead16507c69ac467fbd5e4eed5fb5c699626d2cc6d66421df253886d55f856040516101dc9291906107be565b60405180910390a1505050508073ffffffffffffffffffffffffffffffffffffffff1660808173ffffffffffffffffffffffffffffffffffffffff16815250506202a30060035f7f1af901454eb46a46043019ed5e8888332ddce54f8fc4bb1774674f7f4f815aa381526020019081526020015f208190555062093a8060035f7fca5b506e68868134ddeb8e841e2bdf6663fe7f11502a688c0b1eedfaedef8e6481526020019081526020015f2081905550610e1060035f7f9dd92bb3c0f96fb951725d3c2c915edc0f10735a15a1121596e9815957a8e04881526020019081526020015f208190555062093a8060035f7f22af3c1b7a38de1541a74b0e3f2a6d98eca7644cb87db073b34f2a7f9445fbdf81526020019081526020015f208190555050505050506107e5565b5f61031a83836103fe60201b60201c565b6103f45760015f5f8581526020019081526020015f205f015f8473ffffffffffffffffffffffffffffffffffffffff1673ffffffffffffffffffffffffffffffffffffffff1681526020019081526020015f205f6101000a81548160ff02191690831515021790555061039161046160201b60201c565b73ffffffffffffffffffffffffffffffffffffffff168273ffffffffffffffffffffffffffffffffffffffff16847f2f8788117e7eff1d82e926ec794901d17c78024a50270940304540a733656f0d60405160405180910390a4600190506103f8565b5f90505b92915050565b5f5f5f8481526020019081526020015f205f015f8373ffffffffffffffffffffffffffffffffffffffff1673ffffffffffffffffffffffffffffffffffffffff1681526020019081526020015f205f9054906101000a900460ff16905092915050565b5f33905090565b5f604051905090565b5f5ffd5b5f5ffd5b5f819050919050565b61048b81610479565b8114610495575f5ffd5b50565b5f815190506104a681610482565b92915050565b5f5ffd5b5f601f19601f8301169050919050565b7f4e487b71000000000000000000000000000000000000000000000000000000005f52604160045260245ffd5b6104f6826104b0565b810181811067ffffffffffffffff82111715610515576105146104c0565b5b80604052505050565b5f610527610468565b905061053382826104ed565b919050565b5f67ffffffffffffffff821115610552576105516104c0565b5b602082029050602081019050919050565b5f5ffd5b5f73ffffffffffffffffffffffffffffffffffffffff82169050919050565b5f61059082610567565b9050919050565b6105a081610586565b81146105aa575f5ffd5b50565b5f815190506105bb81610597565b92915050565b5f6105d36105ce84610538565b61051e565b905080838252602082019050602084028301858111156105f6576105f5610563565b5b835b8181101561061f578061060b88826105ad565b8452602084019350506020810190506105f8565b5050509392505050565b5f82601f83011261063d5761063c6104ac565b5b815161064d8482602086016105c1565b91505092915050565b5f61066082610567565b9050919050565b61067081610656565b811461067a575f5ffd5b50565b5f8151905061068b81610667565b92915050565b5f5f5f5f5f60a086880312156106aa576106a9610471565b5b5f6106b788828901610498565b955050602086015167ffffffffffffffff8111156106d8576106d7610475565b5b6106e488828901610629565b945050604086015167ffffffffffffffff81111561070557610704610475565b5b61071188828901610629565b9350506060610722888289016105ad565b92505060806107338882890161067d565b9150509295509295909350565b7f4e487b71000000000000000000000000000000000000000000000000000000005f52603260045260245ffd5b5f819050919050565b5f819050919050565b5f61079961079461078f8461076d565b610776565b610479565b9050919050565b6107a98161077f565b82525050565b6107b881610479565b82525050565b5f6040820190506107d15f8301856107a0565b6107de60208301846107af565b9392505050565b60805161369e6108045f395f8181610e5901526119a7015261369e5ff3fe60806040526004361061026a575f3560e01c806364d6235311610143578063b1c5f427116100b5578063d547741f11610079578063d547741f1461099f578063e38335e5146109c7578063f23a6e61146109e3578063f27a0c9214610a1f578063fe575a8714610a49578063ff1eb29414610a8557610271565b8063b1c5f42714610899578063bc197c81146108d5578063c4d252f514610911578063ca3e3ae314610939578063d45c44351461096357610271565b80638f2a0bb0116101075780638f2a0bb01461077b5780638f61f4f5146107a357806390377330146107cd57806391d1485414610809578063a217fddf14610845578063b08e51c01461086f57610271565b806364d62353146106895780637958004c146106b15780638065657f146106ed57806382944e2d146107295780638369602c1461075357610271565b80632ab0f529116101dc5780634a4c560d116101a05780634a4c560d1461056d5780634d0970c6146105955780634ef9d030146105bd5780634f749016146105f9578063584b153e1461062357806360fe37ab1461065f57610271565b80632ab0f5291461047b5780632f2ff15d146104b757806331d50750146104df57806336568abe1461051b5780634162169f1461054357610271565b8063111622f51161022e578063111622f514610357578063121dada014610381578063134008d3146103ab57806313bc9f20146103c7578063150b7a0214610403578063248a9ca31461043f57610271565b806301d5062a1461027557806301df74551461029d57806301ffc9a7146102c757806307bd0265146103035780630d3cf6fc1461032d57610271565b3661027157005b5f5ffd5b348015610280575f5ffd5b5061029b600480360381019061029691906122d1565b610aad565b005b3480156102a8575f5ffd5b506102b1610b82565b6040516102be919061238a565b60405180910390f35b3480156102d2575f5ffd5b506102ed60048036038101906102e891906123f8565b610ba6565b6040516102fa919061243d565b60405180910390f35b34801561030e575f5ffd5b50610317610bb7565b604051610324919061238a565b60405180910390f35b348015610338575f5ffd5b50610341610bdb565b60405161034e919061238a565b60405180910390f35b348015610362575f5ffd5b5061036b610bff565b6040516103789190612465565b60405180910390f35b34801561038c575f5ffd5b50610395610c06565b6040516103a2919061238a565b60405180910390f35b6103c560048036038101906103c0919061247e565b610c2a565b005b3480156103d2575f5ffd5b506103ed60048036038101906103e89190612514565b610ce4565b6040516103fa919061243d565b60405180910390f35b34801561040e575f5ffd5b5061042960048036038101906104249190612677565b610d1c565b6040516104369190612706565b60405180910390f35b34801561044a575f5ffd5b5061046560048036038101906104609190612514565b610d2f565b604051610472919061238a565b60405180910390f35b348015610486575f5ffd5b506104a1600480360381019061049c9190612514565b610d4b565b6040516104ae919061243d565b60405180910390f35b3480156104c2575f5ffd5b506104dd60048036038101906104d8919061271f565b610d82565b005b3480156104ea575f5ffd5b5061050560048036038101906105009190612514565b610da4565b604051610512919061243d565b60405180910390f35b348015610526575f5ffd5b50610541600480360381019061053c919061271f565b610ddc565b005b34801561054e575f5ffd5b50610557610e57565b60405161056491906127b8565b60405180910390f35b348015610578575f5ffd5b50610593600480360381019061058e91906127d1565b610e7b565b005b3480156105a0575f5ffd5b506105bb60048036038101906105b6919061289a565b610f40565b005b3480156105c8575f5ffd5b506105e360048036038101906105de9190612514565b611012565b6040516105f09190612465565b60405180910390f35b348015610604575f5ffd5b5061060d611027565b60405161061a9190612465565b60405180910390f35b34801561062e575f5ffd5b5061064960048036038101906106449190612514565b61102e565b604051610656919061243d565b60405180910390f35b34801561066a575f5ffd5b5061067361109a565b604051610680919061238a565b60405180910390f35b348015610694575f5ffd5b506106af60048036038101906106aa91906128f4565b6110be565b005b3480156106bc575f5ffd5b506106d760048036038101906106d29190612514565b61117f565b6040516106e49190612992565b60405180910390f35b3480156106f8575f5ffd5b50610713600480360381019061070e919061247e565b6111cb565b604051610720919061238a565b60405180910390f35b348015610734575f5ffd5b5061073d611209565b60405161074a9190612465565b60405180910390f35b34801561075e575f5ffd5b50610779600480360381019061077491906129ab565b61120f565b005b348015610786575f5ffd5b506107a1600480360381019061079c9190612ae8565b6112d5565b005b3480156107ae575f5ffd5b506107b7611497565b6040516107c4919061238a565b60405180910390f35b3480156107d8575f5ffd5b506107f360048036038101906107ee9190612514565b6114bb565b6040516108009190612465565b60405180910390f35b348015610814575f5ffd5b5061082f600480360381019061082a919061271f565b6114ef565b60405161083c919061243d565b60405180910390f35b348015610850575f5ffd5b50610859611552565b604051610866919061238a565b60405180910390f35b34801561087a575f5ffd5b50610883611558565b604051610890919061238a565b60405180910390f35b3480156108a4575f5ffd5b506108bf60048036038101906108ba9190612bd1565b61157c565b6040516108cc919061238a565b60405180910390f35b3480156108e0575f5ffd5b506108fb60048036038101906108f69190612d68565b6115c0565b6040516109089190612706565b60405180910390f35b34801561091c575f5ffd5b5061093760048036038101906109329190612514565b6115d4565b005b348015610944575f5ffd5b5061094d6116a3565b60405161095a919061238a565b60405180910390f35b34801561096e575f5ffd5b5061098960048036038101906109849190612514565b6116c7565b6040516109969190612465565b60405180910390f35b3480156109aa575f5ffd5b506109c560048036038101906109c0919061271f565b6116e1565b005b6109e160048036038101906109dc9190612bd1565b611703565b005b3480156109ee575f5ffd5b50610a096004803603810190610a049190612e33565b6118be565b604051610a169190612706565b60405180910390f35b348015610a2a575f5ffd5b50610a336118d2565b604051610a409190612465565b60405180910390f35b348015610a54575f5ffd5b50610a6f6004803603810190610a6a91906127d1565b6118db565b604051610a7c919061243d565b60405180910390f35b348015610a90575f5ffd5b50610aab6004803603810190610aa69190612ec6565b6118f8565b005b7fb09aa5aeb3702cfd50b6b62bc4532604938f21248a27a1d5ca736082b6819cc1610ad781611b0b565b5f610ae68989898989896111cb565b9050610af28184611b1f565b5f817f4cf4410cc57040e44862ef0f45f3dd5a5e02db8eb8add648d4b0e236f1d07dca8b8b8b8b8b8a604051610b2d96959493929190612fbb565b60405180910390a35f5f1b8414610b7757807f20fda5fd27a1ea7bf5b9567f143ac5470bb059374a27e8f67cb44f946f6d038785604051610b6e919061238a565b60405180910390a25b505050505050505050565b7f9dd92bb3c0f96fb951725d3c2c915edc0f10735a15a1121596e9815957a8e04881565b5f610bb082611bec565b9050919050565b7fd8aa0f3194971a2a116679f7c2090f6939c8d4e01a2a8d7e41d55e5351469e6381565b7fd14cb29edaed09a39505f18f2a4f6b08ce6d5253af1cbf242b79534ec4a3c60a81565b62093a8081565b7f1af901454eb46a46043019ed5e8888332ddce54f8fc4bb1774674f7f4f815aa381565b7fd8aa0f3194971a2a116679f7c2090f6939c8d4e01a2a8d7e41d55e5351469e63610c55815f6114ef565b610c6b57610c6a81610c65611c65565b611c6c565b5b5f610c7a8888888888886111cb565b9050610c868185611cbd565b610c9288888888611d70565b5f817fc2617efa69bab66782fa219543714338489c4e9e178271560a91b82c3f612b588a8a8a8a604051610cc99493929190613015565b60405180910390a3610cda81611df1565b5050505050505050565b5f60026003811115610cf957610cf861291f565b5b610d028361117f565b6003811115610d1457610d1361291f565b5b149050919050565b5f63150b7a0260e01b9050949350505050565b5f5f5f8381526020019081526020015f20600101549050919050565b5f600380811115610d5f57610d5e61291f565b5b610d688361117f565b6003811115610d7a57610d7961291f565b5b149050919050565b610d8b82610d2f565b610d9481611b0b565b610d9e8383611e5f565b50505050565b5f5f6003811115610db857610db761291f565b5b610dc18361117f565b6003811115610dd357610dd261291f565b5b14159050919050565b610de4611c65565b73ffffffffffffffffffffffffffffffffffffffff168173ffffffffffffffffffffffffffffffffffffffff1614610e48576040517f6697b23200000000000000000000000000000000000000000000000000000000815260040160405180910390fd5b610e528282611f48565b505050565b7f000000000000000000000000000000000000000000000000000000000000000081565b7fd14cb29edaed09a39505f18f2a4f6b08ce6d5253af1cbf242b79534ec4a3c60a610ea581611b0b565b5f60045f8473ffffffffffffffffffffffffffffffffffffffff1673ffffffffffffffffffffffffffffffffffffffff1681526020019081526020015f205f6101000a81548160ff0219169083151502179055508173ffffffffffffffffffffffffffffffffffffffff167f7409cb8e690bcd1487fd4fd27dad3fa92388d201ba6f953631d6d6b26299f84960405160405180910390a25050565b7fd14cb29edaed09a39505f18f2a4f6b08ce6d5253af1cbf242b79534ec4a3c60a610f6a81611b0b565b600160045f8573ffffffffffffffffffffffffffffffffffffffff1673ffffffffffffffffffffffffffffffffffffffff1681526020019081526020015f205f6101000a81548160ff0219169083151502179055508273ffffffffffffffffffffffffffffffffffffffff167fcc1cf21b75158e751a071cc4770b92cde8bb2bc34f9187eedd0592b874a556698360405161100591906130b3565b60405180910390a2505050565b6003602052805f5260405f205f915090505481565b6202a30081565b5f5f6110398361117f565b90506001600381111561104f5761104e61291f565b5b8160038111156110625761106161291f565b5b148061109257506002600381111561107d5761107c61291f565b5b8160038111156110905761108f61291f565b5b145b915050919050565b7fca5b506e68868134ddeb8e841e2bdf6663fe7f11502a688c0b1eedfaedef8e6481565b5f6110c7611c65565b90503073ffffffffffffffffffffffffffffffffffffffff168173ffffffffffffffffffffffffffffffffffffffff161461113957806040517fe2850c5900000000000000000000000000000000000000000000000000000000815260040161113091906130d3565b60405180910390fd5b7f11c24f4ead16507c69ac467fbd5e4eed5fb5c699626d2cc6d66421df253886d56002548360405161116c9291906130ec565b60405180910390a1816002819055505050565b5f5f61118a836116c7565b90505f810361119c575f9150506111c6565b600181036111ae5760039150506111c6565b428111156111c05760019150506111c6565b60029150505b919050565b5f8686868686866040516020016111e796959493929190613113565b6040516020818303038152906040528051906020012090509695505050505050565b610e1081565b7fd14cb29edaed09a39505f18f2a4f6b08ce6d5253af1cbf242b79534ec4a3c60a61123981611b0b565b610e1082108061124b575062278d0082115b15611282576040517f4fbe5dba00000000000000000000000000000000000000000000000000000000815260040160405180910390fd5b8160035f8581526020019081526020015f2081905550827fad031abf1d47f53b1409fd5a0f803e81a19030e02c649e6c8d33b941d1b7b0cc836040516112c89190612465565b60405180910390a2505050565b7fb09aa5aeb3702cfd50b6b62bc4532604938f21248a27a1d5ca736082b6819cc16112ff81611b0b565b878790508a8a905014158061131a5750858590508a8a905014155b15611369578989905086869050898990506040517fffb032110000000000000000000000000000000000000000000000000000000081526004016113609392919061316d565b60405180910390fd5b5f61137a8b8b8b8b8b8b8b8b61157c565b90506113868184611b1f565b5f5f90505b8b8b90508110156114475780827f4cf4410cc57040e44862ef0f45f3dd5a5e02db8eb8add648d4b0e236f1d07dca8e8e858181106113cc576113cb6131a2565b5b90506020020160208101906113e191906127d1565b8d8d868181106113f4576113f36131a2565b5b905060200201358c8c8781811061140e5761140d6131a2565b5b905060200281019061142091906131db565b8c8b60405161143496959493929190612fbb565b60405180910390a380600101905061138b565b505f5f1b841461148a57807f20fda5fd27a1ea7bf5b9567f143ac5470bb059374a27e8f67cb44f946f6d038785604051611481919061238a565b60405180910390a25b5050505050505050505050565b7fb09aa5aeb3702cfd50b6b62bc4532604938f21248a27a1d5ca736082b6819cc181565b5f5f60035f8481526020019081526020015f205490505f81146114de57806114e7565b6114e66118d2565b5b915050919050565b5f5f5f8481526020019081526020015f205f015f8373ffffffffffffffffffffffffffffffffffffffff1673ffffffffffffffffffffffffffffffffffffffff1681526020019081526020015f205f9054906101000a900460ff16905092915050565b5f5f1b81565b7ffd643c72710c63c0180259aba6b2d05451e3591a24e58b62239378085726f78381565b5f888888888888888860405160200161159c9897969594939291906134c9565b60405160208183030381529060405280519060200120905098975050505050505050565b5f63bc197c8160e01b905095945050505050565b7ffd643c72710c63c0180259aba6b2d05451e3591a24e58b62239378085726f7836115fe81611b0b565b6116078261102e565b61165e57816116166002612031565b6116206001612031565b176040517f5ead8eb5000000000000000000000000000000000000000000000000000000008152600401611655929190613535565b60405180910390fd5b60015f8381526020019081526020015f205f9055817fbaa1eb22f2a492ba1a5fea61b8df4d27c6c8b5f3971e63bb58fa14ff72eedb7060405160405180910390a25050565b7f22af3c1b7a38de1541a74b0e3f2a6d98eca7644cb87db073b34f2a7f9445fbdf81565b5f60015f8381526020019081526020015f20549050919050565b6116ea82610d2f565b6116f381611b0b565b6116fd8383611f48565b50505050565b7fd8aa0f3194971a2a116679f7c2090f6939c8d4e01a2a8d7e41d55e5351469e6361172e815f6114ef565b611744576117438161173e611c65565b611c6c565b5b868690508989905014158061175f5750848490508989905014155b156117ae578888905085859050888890506040517fffb032110000000000000000000000000000000000000000000000000000000081526004016117a59392919061316d565b60405180910390fd5b5f6117bf8a8a8a8a8a8a8a8a61157c565b90506117cb8185611cbd565b5f5f90505b8a8a90508110156118a8575f8b8b838181106117ef576117ee6131a2565b5b905060200201602081019061180491906127d1565b90505f8a8a8481811061181a576118196131a2565b5b905060200201359050365f8a8a86818110611838576118376131a2565b5b905060200281019061184a91906131db565b9150915061185a84848484611d70565b84867fc2617efa69bab66782fa219543714338489c4e9e178271560a91b82c3f612b58868686866040516118919493929190613015565b60405180910390a3505050508060010190506117d0565b506118b281611df1565b50505050505050505050565b5f63f23a6e6160e01b905095945050505050565b5f600254905090565b6004602052805f5260405f205f915054906101000a900460ff1681565b7fb09aa5aeb3702cfd50b6b62bc4532604938f21248a27a1d5ca736082b6819cc161192281611b0b565b60045f3373ffffffffffffffffffffffffffffffffffffffff1673ffffffffffffffffffffffffffffffffffffffff1681526020019081526020015f205f9054906101000a900460ff16156119a3576040517fa6be350d00000000000000000000000000000000000000000000000000000000815260040160405180910390fd5b60327f000000000000000000000000000000000000000000000000000000000000000073ffffffffffffffffffffffffffffffffffffffff16631b3b74f1336040518263ffffffff1660e01b81526004016119fe91906130d3565b602060405180830381865afa158015611a19573d5f5f3e3d5ffd5b505050506040513d601f19601f82011682018060405250810190611a3d9190613570565b1015611a75576040517fc4ce24b800000000000000000000000000000000000000000000000000000000815260040160405180910390fd5b5f60035f8481526020019081526020015f205490505f8103611a9c57611a996118d2565b90505b5f611aab8a8a8a8a8a8a6111cb565b9050611abc8a8a8a8a8a8a88610aad565b5f817f4cf4410cc57040e44862ef0f45f3dd5a5e02db8eb8add648d4b0e236f1d07dca8c8c8c8c8c89604051611af796959493929190612fbb565b60405180910390a350505050505050505050565b611b1c81611b17611c65565b611c6c565b50565b611b2882610da4565b15611b745781611b375f612031565b6040517f5ead8eb5000000000000000000000000000000000000000000000000000000008152600401611b6b929190613535565b60405180910390fd5b5f611b7d6118d2565b905080821015611bc65781816040517f54336609000000000000000000000000000000000000000000000000000000008152600401611bbd9291906130ec565b60405180910390fd5b8142611bd291906135c8565b60015f8581526020019081526020015f2081905550505050565b5f7f4e2312e0000000000000000000000000000000000000000000000000000000007bffffffffffffffffffffffffffffffffffffffffffffffffffffffff1916827bffffffffffffffffffffffffffffffffffffffffffffffffffffffff19161480611c5e5750611c5d82612055565b5b9050919050565b5f33905090565b611c7682826114ef565b611cb95780826040517fe2517d3f000000000000000000000000000000000000000000000000000000008152600401611cb09291906135fb565b60405180910390fd5b5050565b611cc682610ce4565b611d125781611cd56002612031565b6040517f5ead8eb5000000000000000000000000000000000000000000000000000000008152600401611d09929190613535565b60405180910390fd5b5f5f1b8114158015611d2a5750611d2881610d4b565b155b15611d6c57806040517f90a9a618000000000000000000000000000000000000000000000000000000008152600401611d63919061238a565b60405180910390fd5b5050565b5f5f8573ffffffffffffffffffffffffffffffffffffffff16858585604051611d9a929190613650565b5f6040518083038185875af1925050503d805f8114611dd4576040519150601f19603f3d011682016040523d82523d5f602084013e611dd9565b606091505b5091509150611de882826120ce565b50505050505050565b611dfa81610ce4565b611e465780611e096002612031565b6040517f5ead8eb5000000000000000000000000000000000000000000000000000000008152600401611e3d929190613535565b60405180910390fd5b6001805f8381526020019081526020015f208190555050565b5f611e6a83836114ef565b611f3e5760015f5f8581526020019081526020015f205f015f8473ffffffffffffffffffffffffffffffffffffffff1673ffffffffffffffffffffffffffffffffffffffff1681526020019081526020015f205f6101000a81548160ff021916908315150217905550611edb611c65565b73ffffffffffffffffffffffffffffffffffffffff168273ffffffffffffffffffffffffffffffffffffffff16847f2f8788117e7eff1d82e926ec794901d17c78024a50270940304540a733656f0d60405160405180910390a460019050611f42565b5f90505b92915050565b5f611f5383836114ef565b15612027575f5f5f8581526020019081526020015f205f015f8473ffffffffffffffffffffffffffffffffffffffff1673ffffffffffffffffffffffffffffffffffffffff1681526020019081526020015f205f6101000a81548160ff021916908315150217905550611fc4611c65565b73ffffffffffffffffffffffffffffffffffffffff168273ffffffffffffffffffffffffffffffffffffffff16847ff6391f5c32d9c69d2a47ea670b442974b53935d1edc7fd64eb21e047a839171b60405160405180910390a46001905061202b565b5f90505b92915050565b5f8160038111156120455761204461291f565b5b60ff166001901b5f1b9050919050565b5f7f7965db0b000000000000000000000000000000000000000000000000000000007bffffffffffffffffffffffffffffffffffffffffffffffffffffffff1916827bffffffffffffffffffffffffffffffffffffffffffffffffffffffff191614806120c757506120c6826120f2565b5b9050919050565b6060826120e3576120de8261215b565b6120eb565b8190506120ec565b5b92915050565b5f7f01ffc9a7000000000000000000000000000000000000000000000000000000007bffffffffffffffffffffffffffffffffffffffffffffffffffffffff1916827bffffffffffffffffffffffffffffffffffffffffffffffffffffffff1916149050919050565b5f8151111561216d5780518082602001fd5b6040517fd6bda27500000000000000000000000000000000000000000000000000000000815260040160405180910390fd5b5f604051905090565b5f5ffd5b5f5ffd5b5f73ffffffffffffffffffffffffffffffffffffffff82169050919050565b5f6121d9826121b0565b9050919050565b6121e9816121cf565b81146121f3575f5ffd5b50565b5f81359050612204816121e0565b92915050565b5f819050919050565b61221c8161220a565b8114612226575f5ffd5b50565b5f8135905061223781612213565b92915050565b5f5ffd5b5f5ffd5b5f5ffd5b5f5f83601f84011261225e5761225d61223d565b5b8235905067ffffffffffffffff81111561227b5761227a612241565b5b60208301915083600182028301111561229757612296612245565b5b9250929050565b5f819050919050565b6122b08161229e565b81146122ba575f5ffd5b50565b5f813590506122cb816122a7565b92915050565b5f5f5f5f5f5f5f60c0888a0312156122ec576122eb6121a8565b5b5f6122f98a828b016121f6565b975050602061230a8a828b01612229565b965050604088013567ffffffffffffffff81111561232b5761232a6121ac565b5b6123378a828b01612249565b9550955050606061234a8a828b016122bd565b935050608061235b8a828b016122bd565b92505060a061236c8a828b01612229565b91505092959891949750929550565b6123848161229e565b82525050565b5f60208201905061239d5f83018461237b565b92915050565b5f7fffffffff0000000000000000000000000000000000000000000000000000000082169050919050565b6123d7816123a3565b81146123e1575f5ffd5b50565b5f813590506123f2816123ce565b92915050565b5f6020828403121561240d5761240c6121a8565b5b5f61241a848285016123e4565b91505092915050565b5f8115159050919050565b61243781612423565b82525050565b5f6020820190506124505f83018461242e565b92915050565b61245f8161220a565b82525050565b5f6020820190506124785f830184612456565b92915050565b5f5f5f5f5f5f60a08789031215612498576124976121a8565b5b5f6124a589828a016121f6565b96505060206124b689828a01612229565b955050604087013567ffffffffffffffff8111156124d7576124d66121ac565b5b6124e389828a01612249565b945094505060606124f689828a016122bd565b925050608061250789828a016122bd565b9150509295509295509295565b5f60208284031215612529576125286121a8565b5b5f612536848285016122bd565b91505092915050565b5f5ffd5b5f601f19601f8301169050919050565b7f4e487b71000000000000000000000000000000000000000000000000000000005f52604160045260245ffd5b61258982612543565b810181811067ffffffffffffffff821117156125a8576125a7612553565b5b80604052505050565b5f6125ba61219f565b90506125c68282612580565b919050565b5f67ffffffffffffffff8211156125e5576125e4612553565b5b6125ee82612543565b9050602081019050919050565b828183375f83830152505050565b5f61261b612616846125cb565b6125b1565b9050828152602081018484840111156126375761263661253f565b5b6126428482856125fb565b509392505050565b5f82601f83011261265e5761265d61223d565b5b813561266e848260208601612609565b91505092915050565b5f5f5f5f6080858703121561268f5761268e6121a8565b5b5f61269c878288016121f6565b94505060206126ad878288016121f6565b93505060406126be87828801612229565b925050606085013567ffffffffffffffff8111156126df576126de6121ac565b5b6126eb8782880161264a565b91505092959194509250565b612700816123a3565b82525050565b5f6020820190506127195f8301846126f7565b92915050565b5f5f60408385031215612735576127346121a8565b5b5f612742858286016122bd565b9250506020612753858286016121f6565b9150509250929050565b5f819050919050565b5f61278061277b612776846121b0565b61275d565b6121b0565b9050919050565b5f61279182612766565b9050919050565b5f6127a282612787565b9050919050565b6127b281612798565b82525050565b5f6020820190506127cb5f8301846127a9565b92915050565b5f602082840312156127e6576127e56121a8565b5b5f6127f3848285016121f6565b91505092915050565b5f67ffffffffffffffff82111561281657612815612553565b5b61281f82612543565b9050602081019050919050565b5f61283e612839846127fc565b6125b1565b90508281526020810184848401111561285a5761285961253f565b5b6128658482856125fb565b509392505050565b5f82601f8301126128815761288061223d565b5b813561289184826020860161282c565b91505092915050565b5f5f604083850312156128b0576128af6121a8565b5b5f6128bd858286016121f6565b925050602083013567ffffffffffffffff8111156128de576128dd6121ac565b5b6128ea8582860161286d565b9150509250929050565b5f60208284031215612909576129086121a8565b5b5f61291684828501612229565b91505092915050565b7f4e487b71000000000000000000000000000000000000000000000000000000005f52602160045260245ffd5b6004811061295d5761295c61291f565b5b50565b5f81905061296d8261294c565b919050565b5f61297c82612960565b9050919050565b61298c81612972565b82525050565b5f6020820190506129a55f830184612983565b92915050565b5f5f604083850312156129c1576129c06121a8565b5b5f6129ce858286016122bd565b92505060206129df85828601612229565b9150509250929050565b5f5f83601f8401126129fe576129fd61223d565b5b8235905067ffffffffffffffff811115612a1b57612a1a612241565b5b602083019150836020820283011115612a3757612a36612245565b5b9250929050565b5f5f83601f840112612a5357612a5261223d565b5b8235905067ffffffffffffffff811115612a7057612a6f612241565b5b602083019150836020820283011115612a8c57612a8b612245565b5b9250929050565b5f5f83601f840112612aa857612aa761223d565b5b8235905067ffffffffffffffff811115612ac557612ac4612241565b5b602083019150836020820283011115612ae157612ae0612245565b5b9250929050565b5f5f5f5f5f5f5f5f5f60c08a8c031215612b0557612b046121a8565b5b5f8a013567ffffffffffffffff811115612b2257612b216121ac565b5b612b2e8c828d016129e9565b995099505060208a013567ffffffffffffffff811115612b5157612b506121ac565b5b612b5d8c828d01612a3e565b975097505060408a013567ffffffffffffffff811115612b8057612b7f6121ac565b5b612b8c8c828d01612a93565b95509550506060612b9f8c828d016122bd565b9350506080612bb08c828d016122bd565b92505060a0612bc18c828d01612229565b9150509295985092959850929598565b5f5f5f5f5f5f5f5f60a0898b031215612bed57612bec6121a8565b5b5f89013567ffffffffffffffff811115612c0a57612c096121ac565b5b612c168b828c016129e9565b9850985050602089013567ffffffffffffffff811115612c3957612c386121ac565b5b612c458b828c01612a3e565b9650965050604089013567ffffffffffffffff811115612c6857612c676121ac565b5b612c748b828c01612a93565b94509450506060612c878b828c016122bd565b9250506080612c988b828c016122bd565b9150509295985092959890939650565b5f67ffffffffffffffff821115612cc257612cc1612553565b5b602082029050602081019050919050565b5f612ce5612ce084612ca8565b6125b1565b90508083825260208201905060208402830185811115612d0857612d07612245565b5b835b81811015612d315780612d1d8882612229565b845260208401935050602081019050612d0a565b5050509392505050565b5f82601f830112612d4f57612d4e61223d565b5b8135612d5f848260208601612cd3565b91505092915050565b5f5f5f5f5f60a08688031215612d8157612d806121a8565b5b5f612d8e888289016121f6565b9550506020612d9f888289016121f6565b945050604086013567ffffffffffffffff811115612dc057612dbf6121ac565b5b612dcc88828901612d3b565b935050606086013567ffffffffffffffff811115612ded57612dec6121ac565b5b612df988828901612d3b565b925050608086013567ffffffffffffffff811115612e1a57612e196121ac565b5b612e268882890161264a565b9150509295509295909350565b5f5f5f5f5f60a08688031215612e4c57612e4b6121a8565b5b5f612e59888289016121f6565b9550506020612e6a888289016121f6565b9450506040612e7b88828901612229565b9350506060612e8c88828901612229565b925050608086013567ffffffffffffffff811115612ead57612eac6121ac565b5b612eb98882890161264a565b9150509295509295909350565b5f5f5f5f5f5f5f60c0888a031215612ee157612ee06121a8565b5b5f612eee8a828b016121f6565b9750506020612eff8a828b01612229565b965050604088013567ffffffffffffffff811115612f2057612f1f6121ac565b5b612f2c8a828b01612249565b95509550506060612f3f8a828b016122bd565b9350506080612f508a828b016122bd565b92505060a0612f618a828b016122bd565b91505092959891949750929550565b612f79816121cf565b82525050565b5f82825260208201905092915050565b5f612f9a8385612f7f565b9350612fa78385846125fb565b612fb083612543565b840190509392505050565b5f60a082019050612fce5f830189612f70565b612fdb6020830188612456565b8181036040830152612fee818688612f8f565b9050612ffd606083018561237b565b61300a6080830184612456565b979650505050505050565b5f6060820190506130285f830187612f70565b6130356020830186612456565b8181036040830152613048818486612f8f565b905095945050505050565b5f81519050919050565b5f82825260208201905092915050565b8281835e5f83830152505050565b5f61308582613053565b61308f818561305d565b935061309f81856020860161306d565b6130a881612543565b840191505092915050565b5f6020820190508181035f8301526130cb818461307b565b905092915050565b5f6020820190506130e65f830184612f70565b92915050565b5f6040820190506130ff5f830185612456565b61310c6020830184612456565b9392505050565b5f60a0820190506131265f830189612f70565b6131336020830188612456565b8181036040830152613146818688612f8f565b9050613155606083018561237b565b613162608083018461237b565b979650505050505050565b5f6060820190506131805f830186612456565b61318d6020830185612456565b61319a6040830184612456565b949350505050565b7f4e487b71000000000000000000000000000000000000000000000000000000005f52603260045260245ffd5b5f5ffd5b5f5ffd5b5f5ffd5b5f5f833560016020038436030381126131f7576131f66131cf565b5b80840192508235915067ffffffffffffffff821115613219576132186131d3565b5b602083019250600182023603831315613235576132346131d7565b5b509250929050565b5f82825260208201905092915050565b5f819050919050565b61325f816121cf565b82525050565b5f6132708383613256565b60208301905092915050565b5f61328a60208401846121f6565b905092915050565b5f602082019050919050565b5f6132a9838561323d565b93506132b48261324d565b805f5b858110156132ec576132c9828461327c565b6132d38882613265565b97506132de83613292565b9250506001810190506132b7565b5085925050509392505050565b5f82825260208201905092915050565b5f5ffd5b82818337505050565b5f61332183856132f9565b93507f07ffffffffffffffffffffffffffffffffffffffffffffffffffffffffffffff83111561335457613353613309565b5b60208302925061336583858461330d565b82840190509392505050565b5f82825260208201905092915050565b5f819050919050565b5f82825260208201905092915050565b5f6133a5838561338a565b93506133b28385846125fb565b6133bb83612543565b840190509392505050565b5f6133d284848461339a565b90509392505050565b5f5ffd5b5f5ffd5b5f5ffd5b5f5f83356001602003843603038112613403576134026133e3565b5b83810192508235915060208301925067ffffffffffffffff82111561342b5761342a6133db565b5b600182023603831315613441576134406133df565b5b509250929050565b5f602082019050919050565b5f6134608385613371565b93508360208402850161347284613381565b805f5b878110156134b757848403895261348c82846133e7565b6134978682846133c6565b95506134a284613449565b935060208b019a505050600181019050613475565b50829750879450505050509392505050565b5f60a0820190508181035f8301526134e2818a8c61329e565b905081810360208301526134f781888a613316565b9050818103604083015261350c818688613455565b905061351b606083018561237b565b613528608083018461237b565b9998505050505050505050565b5f6040820190506135485f83018561237b565b613555602083018461237b565b9392505050565b5f8151905061356a81612213565b92915050565b5f60208284031215613585576135846121a8565b5b5f6135928482850161355c565b91505092915050565b7f4e487b71000000000000000000000000000000000000000000000000000000005f52601160045260245ffd5b5f6135d28261220a565b91506135dd8361220a565b92508282019050808211156135f5576135f461359b565b5b92915050565b5f60408201905061360e5f830185612f70565b61361b602083018461237b565b9392505050565b5f81905092915050565b5f6136378385613622565b93506136448385846125fb565b82840190509392505050565b5f61365c82848661362c565b9150819050939250505056fea26469706673582212205487105d1357e27813be16dec996127a69a6c6b262f325cfedebbac21b1d3d4864736f6c634300081e0033",
			"opcodes": "PUSH1 0xA0 PUSH1 0x40 MSTORE CALLVALUE DUP1 ISZERO PUSH2 0xF JUMPI PUSH0 PUSH0 REVERT JUMPDEST POP PUSH1 0x40 MLOAD PUSH2 0x3EA2 CODESIZE SUB DUP1 PUSH2 0x3EA2 DUP4 CODECOPY DUP2 DUP2 ADD PUSH1 0x40 MSTORE DUP2 ADD SWAP1 PUSH2 0x31 SWAP2 SWAP1 PUSH2 0x691 JUMP JUMPDEST DUP5 DUP5 DUP5 DUP5 PUSH2 0x47 PUSH0 PUSH0 SHL ADDRESS PUSH2 0x309 PUSH1 0x20 SHL PUSH1 0x20 SHR JUMP JUMPDEST POP PUSH0 PUSH20 0xFFFFFFFFFFFFFFFFFFFFFFFFFFFFFFFFFFFFFFFF AND DUP2 PUSH20 0xFFFFFFFFFFFFFFFFFFFFFFFFFFFFFFFFFFFFFFFF AND EQ PUSH2 0x8F JUMPI PUSH2 0x8D PUSH0 PUSH0 SHL DUP3 PUSH2 0x309 PUSH1 0x20 SHL PUSH1 0x20 SHR JUMP JUMPDEST POP JUMPDEST PUSH0 PUSH0 SWAP1 POP JUMPDEST DUP4 MLOAD DUP2 LT ISZERO PUSH2 0x13E JUMPI PUSH2 0xE7 PUSH32 0xB09AA5AEB3702CFD50B6B62BC4532604938F21248A27A1D5CA736082B6819CC1 DUP6 DUP4 DUP2 MLOAD DUP2 LT PUSH2 0xD4 JUMPI PUSH2 0xD3 PUSH2 0x740 JUMP JUMPDEST JUMPDEST PUSH1 0x20 MUL PUSH1 0x20 ADD ADD MLOAD PUSH2 0x309 PUSH1 0x20 SHL PUSH1 0x20 SHR JUMP JUMPDEST POP PUSH2 0x132 PUSH32 0xFD643C72710C63C0180259ABA6B2D05451E3591A24E58B62239378085726F783 DUP6 DUP4 DUP2 MLOAD DUP2 LT PUSH2 0x11F JUMPI PUSH2 0x11E PUSH2 0x740 JUMP JUMPDEST JUMPDEST PUSH1 0x20 MUL PUSH1 0x20 ADD ADD MLOAD PUSH2 0x309 PUSH1 0x20 SHL PUSH1 0x20 SHR JUMP JUMPDEST POP DUP1 PUSH1 0x1 ADD SWAP1 POP PUSH2 0x94 JUMP JUMPDEST POP PUSH0 PUSH0 SWAP1 POP JUMPDEST DUP3 MLOAD DUP2 LT ISZERO PUSH2 0x1A3 JUMPI PUSH2 0x197 PUSH32 0xD8AA0F3194971A2A116679F7C2090F6939C8D4E01A2A8D7E41D55E5351469E63 DUP5 DUP4 DUP2 MLOAD DUP2 LT PUSH2 0x184 JUMPI PUSH2 0x183 PUSH2 0x740 JUMP JUMPDEST JUMPDEST PUSH1 0x20 MUL PUSH1 0x20 ADD ADD MLOAD PUSH2 0x309 PUSH1 0x20 SHL PUSH1 0x20 SHR JUMP JUMPDEST POP DUP1 PUSH1 0x1 ADD SWAP1 POP PUSH2 0x144 JUMP JUMPDEST POP DUP4 PUSH1 0x2 DUP2 SWAP1 SSTORE POP PUSH32 0x11C24F4EAD16507C69AC467FBD5E4EED5FB5C699626D2CC6D66421DF253886D5 PUSH0 DUP6 PUSH1 0x40 MLOAD PUSH2 0x1DC SWAP3 SWAP2 SWAP1 PUSH2 0x7BE JUMP JUMPDEST PUSH1 0x40 MLOAD DUP1 SWAP2 SUB SWAP1 LOG1 POP POP POP POP DUP1 PUSH20 0xFFFFFFFFFFFFFFFFFFFFFFFFFFFFFFFFFFFFFFFF AND PUSH1 0x80 DUP2 PUSH20 0xFFFFFFFFFFFFFFFFFFFFFFFFFFFFFFFFFFFFFFFF AND DUP2 MSTORE POP POP PUSH3 0x2A300 PUSH1 0x3 PUSH0 PUSH32 0x1AF901454EB46A46043019ED5E8888332DDCE54F8FC4BB1774674F7F4F815AA3 DUP2 MSTORE PUSH1 0x20 ADD SWAP1 DUP2 MSTORE PUSH1 0x20 ADD PUSH0 KECCAK256 DUP2 SWAP1 SSTORE POP PUSH3 0x93A80 PUSH1 0x3 PUSH0 PUSH32 0xCA5B506E68868134DDEB8E841E2BDF6663FE7F11502A688C0B1EEDFAEDEF8E64 DUP2 MSTORE PUSH1 0x20 ADD SWAP1 DUP2 MSTORE PUSH1 0x20 ADD PUSH0 KECCAK256 DUP2 SWAP1 SSTORE POP PUSH2 0xE10 PUSH1 0x3 PUSH0 PUSH32 0x9DD92BB3C0F96FB951725D3C2C915EDC0F10735A15A1121596E9815957A8E048 DUP2 MSTORE PUSH1 0x20 ADD SWAP1 DUP2 MSTORE PUSH1 0x20 ADD PUSH0 KECCAK256 DUP2 SWAP1 SSTORE POP PUSH3 0x93A80 PUSH1 0x3 PUSH0 PUSH32 0x22AF3C1B7A38DE1541A74B0E3F2A6D98ECA7644CB87DB073B34F2A7F9445FBDF DUP2 MSTORE PUSH1 0x20 ADD SWAP1 DUP2 MSTORE PUSH1 0x20 ADD PUSH0 KECCAK256 DUP2 SWAP1 SSTORE POP POP POP POP POP POP PUSH2 0x7E5 JUMP JUMPDEST PUSH0 PUSH2 0x31A DUP4 DUP4 PUSH2 0x3FE PUSH1 0x20 SHL PUSH1 0x20 SHR JUMP JUMPDEST PUSH2 0x3F4 JUMPI PUSH1 0x1 PUSH0 PUSH0 DUP6 DUP2 MSTORE PUSH1 0x20 ADD SWAP1 DUP2 MSTORE PUSH1 0x20 ADD PUSH0 KECCAK256 PUSH0 ADD PUSH0 DUP5 PUSH20 0xFFFFFFFFFFFFFFFFFFFFFFFFFFFFFFFFFFFFFFFF AND PUSH20 0xFFFFFFFFFFFFFFFFFFFFFFFFFFFFFFFFFFFFFFFF AND DUP2 MSTORE PUSH1 0x20 ADD SWAP1 DUP2 MSTORE PUSH1 0x20 ADD PUSH0 KECCAK256 PUSH0 PUSH2 0x100 EXP DUP2 SLOAD DUP2 PUSH1 0xFF MUL NOT AND SWAP1 DUP4 ISZERO ISZERO MUL OR SWAP1 SSTORE POP PUSH2 0x391 PUSH2 0x461 PUSH1 0x20 SHL PUSH1 0x20 SHR JUMP JUMPDEST PUSH20 0xFFFFFFFFFFFFFFFFFFFFFFFFFFFFFFFFFFFFFFFF AND DUP3 PUSH20 0xFFFFFFFFFFFFFFFFFFFFFFFFFFFFFFFFFFFFFFFF AND DUP5 PUSH32 0x2F8788117E7EFF1D82E926EC794901D17C78024A50270940304540A733656F0D PUSH1 0x40 MLOAD PUSH1 0x40 MLOAD DUP1 SWAP2 SUB SWAP1 LOG4 PUSH1 0x1 SWAP1 POP PUSH2 0x3F8 JUMP JUMPDEST PUSH0 SWAP1 POP JUMPDEST SWAP3 SWAP2 POP POP JUMP JUMPDEST PUSH0 PUSH0 PUSH0 DUP5 DUP2 MSTORE PUSH1 0x20 ADD SWAP1 DUP2 MSTORE PUSH1 0x20 ADD PUSH0 KECCAK256 PUSH0 ADD PUSH0 DUP4 PUSH20 0xFFFFFFFFFFFFFFFFFFFFFFFFFFFFFFFFFFFFFFFF AND PUSH20 0xFFFFFFFFFFFFFFFFFFFFFFFFFFFFFFFFFFFFFFFF AND DUP2 MSTORE PUSH1 0x20 ADD SWAP1 DUP2 MSTORE PUSH1 0x20 ADD PUSH0 KECCAK256 PUSH0 SWAP1 SLOAD SWAP1 PUSH2 0x100 EXP SWAP1 DIV PUSH1 0xFF AND SWAP1 POP SWAP3 SWAP2 POP POP JUMP JUMPDEST PUSH0 CALLER SWAP1 POP SWAP1 JUMP JUMPDEST PUSH0 PUSH1 0x40 MLOAD SWAP1 POP SWAP1 JUMP JUMPDEST PUSH0 PUSH0 REVERT JUMPDEST PUSH0 PUSH0 REVERT JUMPDEST PUSH0 DUP2 SWAP1 POP SWAP2 SWAP1 POP JUMP JUMPDEST PUSH2 0x48B DUP2 PUSH2 0x479 JUMP JUMPDEST DUP2 EQ PUSH2 0x495 JUMPI PUSH0 PUSH0 REVERT JUMPDEST POP JUMP JUMPDEST PUSH0 DUP2 MLOAD SWAP1 POP PUSH2 0x4A6 DUP2 PUSH2 0x482 JUMP JUMPDEST SWAP3 SWAP2 POP POP JUMP JUMPDEST PUSH0 PUSH0 REVERT JUMPDEST PUSH0 PUSH1 0x1F NOT PUSH1 0x1F DUP4 ADD AND SWAP1 POP SWAP2 SWAP1 POP JUMP JUMPDEST PUSH32 0x4E487B7100000000000000000000000000000000000000000000000000000000 PUSH0 MSTORE PUSH1 0x41 PUSH1 0x4 MSTORE PUSH1 0x24 PUSH0 REVERT JUMPDEST PUSH2 0x4F6 DUP3 PUSH2 0x4B0 JUMP JUMPDEST DUP2 ADD DUP2 DUP2 LT PUSH8 0xFFFFFFFFFFFFFFFF DUP3 GT OR ISZERO PUSH2 0x515 JUMPI PUSH2 0x514 PUSH2 0x4C0 JUMP JUMPDEST JUMPDEST DUP1 PUSH1 0x40 MSTORE POP POP POP JUMP JUMPDEST PUSH0 PUSH2 0x527 PUSH2 0x468 JUMP JUMPDEST SWAP1 POP PUSH2 0x533 DUP3 DUP3 PUSH2 0x4ED JUMP JUMPDEST SWAP2 SWAP1 POP JUMP JUMPDEST PUSH0 PUSH8 0xFFFFFFFFFFFFFFFF DUP3 GT ISZERO PUSH2 0x552 JUMPI PUSH2 0x551 PUSH2 0x4C0 JUMP JUMPDEST JUMPDEST PUSH1 0x20 DUP3 MUL SWAP1 POP PUSH1 0x20 DUP2 ADD SWAP1 POP SWAP2 SWAP1 POP JUMP JUMPDEST PUSH0 PUSH0 REVERT JUMPDEST PUSH0 PUSH20 0xFFFFFFFFFFFFFFFFFFFFFFFFFFFFFFFFFFFFFFFF DUP3 AND SWAP1 POP SWAP2 SWAP1 POP JUMP JUMPDEST PUSH0 PUSH2 0x590 DUP3 PUSH2 0x567 JUMP JUMPDEST SWAP1 POP SWAP2 SWAP1 POP JUMP JUMPDEST PUSH2 0x5A0 DUP2 PUSH2 0x586 JUMP JUMPDEST DUP2 EQ PUSH2 0x5AA JUMPI PUSH0 PUSH0 REVERT JUMPDEST POP JUMP JUMPDEST PUSH0 DUP2 MLOAD SWAP1 POP PUSH2 0x5BB DUP2 PUSH2 0x597 JUMP JUMPDEST SWAP3 SWAP2 POP POP JUMP JUMPDEST PUSH0 PUSH2 0x5D3 PUSH2 0x5CE DUP5 PUSH2 0x538 JUMP JUMPDEST PUSH2 0x51E JUMP JUMPDEST SWAP1 POP DUP1 DUP4 DUP3 MSTORE PUSH1 0x20 DUP3 ADD SWAP1 POP PUSH1 0x20 DUP5 MUL DUP4 ADD DUP6 DUP2 GT ISZERO PUSH2 0x5F6 JUMPI PUSH2 0x5F5 PUSH2 0x563 JUMP JUMPDEST JUMPDEST DUP4 JUMPDEST DUP2 DUP2 LT ISZERO PUSH2 0x61F JUMPI DUP1 PUSH2 0x60B DUP9 DUP3 PUSH2 0x5AD JUMP JUMPDEST DUP5 MSTORE PUSH1 0x20 DUP5 ADD SWAP4 POP POP PUSH1 0x20 DUP2 ADD SWAP1 POP PUSH2 0x5F8 JUMP JUMPDEST POP POP POP SWAP4 SWAP3 POP POP POP JUMP JUMPDEST PUSH0 DUP3 PUSH1 0x1F DUP4 ADD SLT PUSH2 0x63D JUMPI PUSH2 0x63C PUSH2 0x4AC JUMP JUMPDEST JUMPDEST DUP2 MLOAD PUSH2 0x64D DUP5 DUP3 PUSH1 0x20 DUP7 ADD PUSH2 0x5C1 JUMP JUMPDEST SWAP2 POP POP SWAP3 SWAP2 POP POP JUMP JUMPDEST PUSH0 PUSH2 0x660 DUP3 PUSH2 0x567 JUMP JUMPDEST SWAP1 POP SWAP2 SWAP1 POP JUMP JUMPDEST PUSH2 0x670 DUP2 PUSH2 0x656 JUMP JUMPDEST DUP2 EQ PUSH2 0x67A JUMPI PUSH0 PUSH0 REVERT JUMPDEST POP JUMP JUMPDEST PUSH0 DUP2 MLOAD SWAP1 POP PUSH2 0x68B DUP2 PUSH2 0x667 JUMP JUMPDEST SWAP3 SWAP2 POP POP JUMP JUMPDEST PUSH0 PUSH0 PUSH0 PUSH0 PUSH0 PUSH1 0xA0 DUP7 DUP9 SUB SLT ISZERO PUSH2 0x6AA JUMPI PUSH2 0x6A9 PUSH2 0x471 JUMP JUMPDEST JUMPDEST PUSH0 PUSH2 0x6B7 DUP9 DUP3 DUP10 ADD PUSH2 0x498 JUMP JUMPDEST SWAP6 POP POP PUSH1 0x20 DUP7 ADD MLOAD PUSH8 0xFFFFFFFFFFFFFFFF DUP2 GT ISZERO PUSH2 0x6D8 JUMPI PUSH2 0x6D7 PUSH2 0x475 JUMP JUMPDEST JUMPDEST PUSH2 0x6E4 DUP9 DUP3 DUP10 ADD PUSH2 0x629 JUMP JUMPDEST SWAP5 POP POP PUSH1 0x40 DUP7 ADD MLOAD PUSH8 0xFFFFFFFFFFFFFFFF DUP2 GT ISZERO PUSH2 0x705 JUMPI PUSH2 0x704 PUSH2 0x475 JUMP JUMPDEST JUMPDEST PUSH2 0x711 DUP9 DUP3 DUP10 ADD PUSH2 0x629 JUMP JUMPDEST SWAP4 POP POP PUSH1 0x60 PUSH2 0x722 DUP9 DUP3 DUP10 ADD PUSH2 0x5AD JUMP JUMPDEST SWAP3 POP POP PUSH1 0x80 PUSH2 0x733 DUP9 DUP3 DUP10 ADD PUSH2 0x67D JUMP JUMPDEST SWAP2 POP POP SWAP3 SWAP6 POP SWAP3 SWAP6 SWAP1 SWAP4 POP JUMP JUMPDEST PUSH32 0x4E487B7100000000000000000000000000000000000000000000000000000000 PUSH0 MSTORE PUSH1 0x32 PUSH1 0x4 MSTORE PUSH1 0x24 PUSH0 REVERT JUMPDEST PUSH0 DUP2 SWAP1 POP SWAP2 SWAP1 POP JUMP JUMPDEST PUSH0 DUP2 SWAP1 POP SWAP2 SWAP1 POP JUMP JUMPDEST PUSH0 PUSH2 0x799 PUSH2 0x794 PUSH2 0x78F DUP5 PUSH2 0x76D JUMP JUMPDEST PUSH2 0x776 JUMP JUMPDEST PUSH2 0x479 JUMP JUMPDEST SWAP1 POP SWAP2 SWAP1 POP JUMP JUMPDEST PUSH2 0x7A9 DUP2 PUSH2 0x77F JUMP JUMPDEST DUP3 MSTORE POP POP JUMP JUMPDEST PUSH2 0x7B8 DUP2 PUSH2 0x479 JUMP JUMPDEST DUP3 MSTORE POP POP JUMP JUMPDEST PUSH0 PUSH1 0x40 DUP3 ADD SWAP1 POP PUSH2 0x7D1 PUSH0 DUP4 ADD DUP6 PUSH2 0x7A0 JUMP JUMPDEST PUSH2 0x7DE PUSH1 0x20 DUP4 ADD DUP5 PUSH2 0x7AF JUMP JUMPDEST SWAP4 SWAP3 POP POP POP JUMP JUMPDEST PUSH1 0x80 MLOAD PUSH2 0x369E PUSH2 0x804 PUSH0 CODECOPY PUSH0 DUP2 DUP2 PUSH2 0xE59 ADD MSTORE PUSH2 0x19A7 ADD MSTORE PUSH2 0x369E PUSH0 RETURN INVALID PUSH1 0x80 PUSH1 0x40 MSTORE PUSH1 0x4 CALLDATASIZE LT PUSH2 0x26A JUMPI PUSH0 CALLDATALOAD PUSH1 0xE0 SHR DUP1 PUSH4 0x64D62353 GT PUSH2 0x143 JUMPI DUP1 PUSH4 0xB1C5F427 GT PUSH2 0xB5 JUMPI DUP1 PUSH4 0xD547741F GT PUSH2 0x79 JUMPI DUP1 PUSH4 0xD547741F EQ PUSH2 0x99F JUMPI DUP1 PUSH4 0xE38335E5 EQ PUSH2 0x9C7 JUMPI DUP1 PUSH4 0xF23A6E61 EQ PUSH2 0x9E3 JUMPI DUP1 PUSH4 0xF27A0C92 EQ PUSH2 0xA1F JUMPI DUP1 PUSH4 0xFE575A87 EQ PUSH2 0xA49 JUMPI DUP1 PUSH4 0xFF1EB294 EQ PUSH2 0xA85 JUMPI PUSH2 0x271 JUMP JUMPDEST DUP1 PUSH4 0xB1C5F427 EQ PUSH2 0x899 JUMPI DUP1 PUSH4 0xBC197C81 EQ PUSH2 0x8D5 JUMPI DUP1 PUSH4 0xC4D252F5 EQ PUSH2 0x911 JUMPI DUP1 PUSH4 0xCA3E3AE3 EQ PUSH2 0x939 JUMPI DUP1 PUSH4 0xD45C4435 EQ PUSH2 0x963 JUMPI PUSH2 0x271 JUMP JUMPDEST DUP1 PUSH4 0x8F2A0BB0 GT PUSH2 0x107 JUMPI DUP1 PUSH4 0x8F2A0BB0 EQ PUSH2 0x77B JUMPI DUP1 PUSH4 0x8F61F4F5 EQ PUSH2 0x7A3 JUMPI DUP1 PUSH4 0x90377330 EQ PUSH2 0x7CD JUMPI DUP1 PUSH4 0x91D14854 EQ PUSH2 0x809 JUMPI DUP1 PUSH4 0xA217FDDF EQ PUSH2 0x845 JUMPI DUP1 PUSH4 0xB08E51C0 EQ PUSH2 0x86F JUMPI PUSH2 0x271 JUMP JUMPDEST DUP1 PUSH4 0x64D62353 EQ PUSH2 0x689 JUMPI DUP1 PUSH4 0x7958004C EQ PUSH2 0x6B1 JUMPI DUP1 PUSH4 0x8065657F EQ PUSH2 0x6ED JUMPI DUP1 PUSH4 0x82944E2D EQ PUSH2 0x729 JUMPI DUP1 PUSH4 0x8369602C EQ PUSH2 0x753 JUMPI PUSH2 0x271 JUMP JUMPDEST DUP1 PUSH4 0x2AB0F529 GT PUSH2 0x1DC JUMPI DUP1 PUSH4 0x4A4C560D GT PUSH2 0x1A0 JUMPI DUP1 PUSH4 0x4A4C560D EQ PUSH2 0x56D JUMPI DUP1 PUSH4 0x4D0970C6 EQ PUSH2 0x595 JUMPI DUP1 PUSH4 0x4EF9D030 EQ PUSH2 0x5BD JUMPI DUP1 PUSH4 0x4F749016 EQ PUSH2 0x5F9 JUMPI DUP1 PUSH4 0x584B153E EQ PUSH2 0x623 JUMPI DUP1 PUSH4 0x60FE37AB EQ PUSH2 0x65F JUMPI PUSH2 0x271 JUMP JUMPDEST DUP1 PUSH4 0x2AB0F529 EQ PUSH2 0x47B JUMPI DUP1 PUSH4 0x2F2FF15D EQ PUSH2 0x4B7 JUMPI DUP1 PUSH4 0x31D50750 EQ PUSH2 0x4DF JUMPI DUP1 PUSH4 0x36568ABE EQ PUSH2 0x51B JUMPI DUP1 PUSH4 0x4162169F EQ PUSH2 0x543 JUMPI PUSH2 0x271 JUMP JUMPDEST DUP1 PUSH4 0x111622F5 GT PUSH2 0x22E JUMPI DUP1 PUSH4 0x111622F5 EQ PUSH2 0x357 JUMPI DUP1 PUSH4 0x121DADA0 EQ PUSH2 0x381 JUMPI DUP1 PUSH4 0x134008D3 EQ PUSH2 0x3AB JUMPI DUP1 PUSH4 0x13BC9F20 EQ PUSH2 0x3C7 JUMPI DUP1 PUSH4 0x150B7A02 EQ PUSH2 0x403 JUMPI DUP1 PUSH4 0x248A9CA3 EQ PUSH2 0x43F JUMPI PUSH2 0x271 JUMP JUMPDEST DUP1 PUSH4 0x1D5062A EQ PUSH2 0x275 JUMPI DUP1 PUSH4 0x1DF7455 EQ PUSH2 0x29D JUMPI DUP1 PUSH4 0x1FFC9A7 EQ PUSH2 0x2C7 JUMPI DUP1 PUSH4 0x7BD0265 EQ PUSH2 0x303 JUMPI DUP1 PUSH4 0xD3CF6FC EQ PUSH2 0x32D JUMPI PUSH2 0x271 JUMP JUMPDEST CALLDATASIZE PUSH2 0x271 JUMPI STOP JUMPDEST PUSH0 PUSH0 REVERT JUMPDEST CALLVALUE DUP1 ISZERO PUSH2 0x280 JUMPI PUSH0 PUSH0 REVERT JUMPDEST POP PUSH2 0x29B PUSH1 0x4 DUP1 CALLDATASIZE SUB DUP2 ADD SWAP1 PUSH2 0x296 SWAP2 SWAP1 PUSH2 0x22D1 JUMP JUMPDEST PUSH2 0xAAD JUMP JUMPDEST STOP JUMPDEST CALLVALUE DUP1 ISZERO PUSH2 0x2A8 JUMPI PUSH0 PUSH0 REVERT JUMPDEST POP PUSH2 0x2B1 PUSH2 0xB82 JUMP JUMPDEST PUSH1 0x40 MLOAD PUSH2 0x2BE SWAP2 SWAP1 PUSH2 0x238A JUMP JUMPDEST PUSH1 0x40 MLOAD DUP1 SWAP2 SUB SWAP1 RETURN JUMPDEST CALLVALUE DUP1 ISZERO PUSH2 0x2D2 JUMPI PUSH0 PUSH0 REVERT JUMPDEST POP PUSH2 0x2ED PUSH1 0x4 DUP1 CALLDATASIZE SUB DUP2 ADD SWAP1 PUSH2 0x2E8 SWAP2 SWAP1 PUSH2 0x23F8 JUMP JUMPDEST PUSH2 0xBA6 JUMP JUMPDEST PUSH1 0x40 MLOAD PUSH2 0x2FA SWAP2 SWAP1 PUSH2 0x243D JUMP JUMPDEST PUSH1 0x40 MLOAD DUP1 SWAP2 SUB SWAP1 RETURN JUMPDEST CALLVALUE DUP1 ISZERO PUSH2 0x30E JUMPI PUSH0 PUSH0 REVERT JUMPDEST POP PUSH2 0x317 PUSH2 0xBB7 JUMP JUMPDEST PUSH1 0x40 MLOAD PUSH2 0x324 SWAP2 SWAP1 PUSH2 0x238A JUMP JUMPDEST PUSH1 0x40 MLOAD DUP1 SWAP2 SUB SWAP1 RETURN JUMPDEST CALLVALUE DUP1 ISZERO PUSH2 0x338 JUMPI PUSH0 PUSH0 REVERT JUMPDEST POP PUSH2 0x341 PUSH2 0xBDB JUMP JUMPDEST PUSH1 0x40 MLOAD PUSH2 0x34E SWAP2 SWAP1 PUSH2 0x238A JUMP JUMPDEST PUSH1 0x40 MLOAD DUP1 SWAP2 SUB SWAP1 RETURN JUMPDEST CALLVALUE DUP1 ISZERO PUSH2 0x362 JUMPI PUSH0 PUSH0 REVERT JUMPDEST POP PUSH2 0x36B PUSH2 0xBFF JUMP JUMPDEST PUSH1 0x40 MLOAD PUSH2 0x378 SWAP2 SWAP1 PUSH2 0x2465 JUMP JUMPDEST PUSH1 0x40 MLOAD DUP1 SWAP2 SUB SWAP1 RETURN JUMPDEST CALLVALUE DUP1 ISZERO PUSH2 0x38C JUMPI PUSH0 PUSH0 REVERT JUMPDEST POP PUSH2 0x395 PUSH2 0xC06 JUMP JUMPDEST PUSH1 0x40 MLOAD PUSH2 0x3A2 SWAP2 SWAP1 PUSH2 0x238A JUMP JUMPDEST PUSH1 0x40 MLOAD DUP1 SWAP2 SUB SWAP1 RETURN JUMPDEST PUSH2 0x3C5 PUSH1 0x4 DUP1 CALLDATASIZE SUB DUP2 ADD SWAP1 PUSH2 0x3C0 SWAP2 SWAP1 PUSH2 0x247E JUMP JUMPDEST PUSH2 0xC2A JUMP JUMPDEST STOP JUMPDEST CALLVALUE DUP1 ISZERO PUSH2 0x3D2 JUMPI PUSH0 PUSH0 REVERT JUMPDEST POP PUSH2 0x3ED PUSH1 0x4 DUP1 CALLDATASIZE SUB DUP2 ADD SWAP1 PUSH2 0x3E8 SWAP2 SWAP1 PUSH2 0x2514 JUMP JUMPDEST PUSH2 0xCE4 JUMP JUMPDEST PUSH1 0x40 MLOAD PUSH2 0x3FA SWAP2 SWAP1 PUSH2 0x243D JUMP JUMPDEST PUSH1 0x40 MLOAD DUP1 SWAP2 SUB SWAP1 RETURN JUMPDEST CALLVALUE DUP1 ISZERO PUSH2 0x40E JUMPI PUSH0 PUSH0 REVERT JUMPDEST POP PUSH2 0x429 PUSH1 0x4 DUP1 CALLDATASIZE SUB DUP2 ADD SWAP1 PUSH2 0x424 SWAP2 SWAP1 PUSH2 0x2677 JUMP JUMPDEST PUSH2 0xD1C JUMP JUMPDEST PUSH1 0x40 MLOAD PUSH2 0x436 SWAP2 SWAP1 PUSH2 0x2706 JUMP JUMPDEST PUSH1 0x40 MLOAD DUP1 SWAP2 SUB SWAP1 RETURN JUMPDEST CALLVALUE DUP1 ISZERO PUSH2 0x44A JUMPI PUSH0 PUSH0 REVERT JUMPDEST POP PUSH2 0x465 PUSH1 0x4 DUP1 CALLDATASIZE SUB DUP2 ADD SWAP1 PUSH2 0x460 SWAP2 SWAP1 PUSH2 0x2514 JUMP JUMPDEST PUSH2 0xD2F JUMP JUMPDEST PUSH1 0x40 MLOAD PUSH2 0x472 SWAP2 SWAP1 PUSH2 0x238A JUMP JUMPDEST PUSH1 0x40 MLOAD DUP1 SWAP2 SUB SWAP1 RETURN JUMPDEST CALLVALUE DUP1 ISZERO PUSH2 0x486 JUMPI PUSH0 PUSH0 REVERT JUMPDEST POP PUSH2 0x4A1 PUSH1 0x4 DUP1 CALLDATASIZE SUB DUP2 ADD SWAP1 PUSH2 0x49C SWAP2 SWAP1 PUSH2 0x2514 JUMP JUMPDEST PUSH2 0xD4B JUMP JUMPDEST PUSH1 0x40 MLOAD PUSH2 0x4AE SWAP2 SWAP1 PUSH2 0x243D JUMP JUMPDEST PUSH1 0x40 MLOAD DUP1 SWAP2 SUB SWAP1 RETURN JUMPDEST CALLVALUE DUP1 ISZERO PUSH2 0x4C2 JUMPI PUSH0 PUSH0 REVERT JUMPDEST POP PUSH2 0x4DD PUSH1 0x4 DUP1 CALLDATASIZE SUB DUP2 ADD SWAP1 PUSH2 0x4D8 SWAP2 SWAP1 PUSH2 0x271F JUMP JUMPDEST PUSH2 0xD82 JUMP JUMPDEST STOP JUMPDEST CALLVALUE DUP1 ISZERO PUSH2 0x4EA JUMPI PUSH0 PUSH0 REVERT JUMPDEST POP PUSH2 0x505 PUSH1 0x4 DUP1 CALLDATASIZE SUB DUP2 ADD SWAP1 PUSH2 0x500 SWAP2 SWAP1 PUSH2 0x2514 JUMP JUMPDEST PUSH2 0xDA4 JUMP JUMPDEST PUSH1 0x40 MLOAD PUSH2 0x512 SWAP2 SWAP1 PUSH2 0x243D JUMP JUMPDEST PUSH1 0x40 MLOAD DUP1 SWAP2 SUB SWAP1 RETURN JUMPDEST CALLVALUE DUP1 ISZERO PUSH2 0x526 JUMPI PUSH0 PUSH0 REVERT JUMPDEST POP PUSH2 0x541 PUSH1 0x4 DUP1 CALLDATASIZE SUB DUP2 ADD SWAP1 PUSH2 0x53C SWAP2 SWAP1 PUSH2 0x271F JUMP JUMPDEST PUSH2 0xDDC JUMP JUMPDEST STOP JUMPDEST CALLVALUE DUP1 ISZERO PUSH2 0x54E JUMPI PUSH0 PUSH0 REVERT JUMPDEST POP PUSH2 0x557 PUSH2 0xE57 JUMP JUMPDEST PUSH1 0x40 MLOAD PUSH2 0x564 SWAP2 SWAP1 PUSH2 0x27B8 JUMP JUMPDEST PUSH1 0x40 MLOAD DUP1 SWAP2 SUB SWAP1 RETURN JUMPDEST CALLVALUE DUP1 ISZERO PUSH2 0x578 JUMPI PUSH0 PUSH0 REVERT JUMPDEST POP PUSH2 0x593 PUSH1 0x4 DUP1 CALLDATASIZE SUB DUP2 ADD SWAP1 PUSH2 0x58E SWAP2 SWAP1 PUSH2 0x27D1 JUMP JUMPDEST PUSH2 0xE7B JUMP JUMPDEST STOP JUMPDEST CALLVALUE DUP1 ISZERO PUSH2 0x5A0 JUMPI PUSH0 PUSH0 REVERT JUMPDEST POP PUSH2 0x5BB PUSH1 0x4 DUP1 CALLDATASIZE SUB DUP2 ADD SWAP1 PUSH2 0x5B6 SWAP2 SWAP1 PUSH2 0x289A JUMP JUMPDEST PUSH2 0xF40 JUMP JUMPDEST STOP JUMPDEST CALLVALUE DUP1 ISZERO PUSH2 0x5C8 JUMPI PUSH0 PUSH0 REVERT JUMPDEST POP PUSH2 0x5E3 PUSH1 0x4 DUP1 CALLDATASIZE SUB DUP2 ADD SWAP1 PUSH2 0x5DE SWAP2 SWAP1 PUSH2 0x2514 JUMP JUMPDEST PUSH2 0x1012 JUMP JUMPDEST PUSH1 0x40 MLOAD PUSH2 0x5F0 SWAP2 SWAP1 PUSH2 0x2465 JUMP JUMPDEST PUSH1 0x40 MLOAD DUP1 SWAP2 SUB SWAP1 RETURN JUMPDEST CALLVALUE DUP1 ISZERO PUSH2 0x604 JUMPI PUSH0 PUSH0 REVERT JUMPDEST POP PUSH2 0x60D PUSH2 0x1027 JUMP JUMPDEST PUSH1 0x40 MLOAD PUSH2 0x61A SWAP2 SWAP1 PUSH2 0x2465 JUMP JUMPDEST PUSH1 0x40 MLOAD DUP1 SWAP2 SUB SWAP1 RETURN JUMPDEST CALLVALUE DUP1 ISZERO PUSH2 0x62E JUMPI PUSH0 PUSH0 REVERT JUMPDEST POP PUSH2 0x649 PUSH1 0x4 DUP1 CALLDATASIZE SUB DUP2 ADD SWAP1 PUSH2 0x644 SWAP2 SWAP1 PUSH2 0x2514 JUMP JUMPDEST PUSH2 0x102E JUMP JUMPDEST PUSH1 0x40 MLOAD PUSH2 0x656 SWAP2 SWAP1 PUSH2 0x243D JUMP JUMPDEST PUSH1 0x40 MLOAD DUP1 SWAP2 SUB SWAP1 RETURN JUMPDEST CALLVALUE DUP1 ISZERO PUSH2 0x66A JUMPI PUSH0 PUSH0 REVERT JUMPDEST POP PUSH2 0x673 PUSH2 0x109A JUMP JUMPDEST PUSH1 0x40 MLOAD PUSH2 0x680 SWAP2 SWAP1 PUSH2 0x238A JUMP JUMPDEST PUSH1 0x40 MLOAD DUP1 SWAP2 SUB SWAP1 RETURN JUMPDEST CALLVALUE DUP1 ISZERO PUSH2 0x694 JUMPI PUSH0 PUSH0 REVERT JUMPDEST POP PUSH2 0x6AF PUSH1 0x4 DUP1 CALLDATASIZE SUB DUP2 ADD SWAP1 PUSH2 0x6AA SWAP2 SWAP1 PUSH2 0x28F4 JUMP JUMPDEST PUSH2 0x10BE JUMP JUMPDEST STOP JUMPDEST CALLVALUE DUP1 ISZERO PUSH2 0x6BC JUMPI PUSH0 PUSH0 REVERT JUMPDEST POP PUSH2 0x6D7 PUSH1 0x4 DUP1 CALLDATASIZE SUB DUP2 ADD SWAP1 PUSH2 0x6D2 SWAP2 SWAP1 PUSH2 0x2514 JUMP JUMPDEST PUSH2 0x117F JUMP JUMPDEST PUSH1 0x40 MLOAD PUSH2 0x6E4 SWAP2 SWAP1 PUSH2 0x2992 JUMP JUMPDEST PUSH1 0x40 MLOAD DUP1 SWAP2 SUB SWAP1 RETURN JUMPDEST CALLVALUE DUP1 ISZERO PUSH2 0x6F8 JUMPI PUSH0 PUSH0 REVERT JUMPDEST POP PUSH2 0x713 PUSH1 0x4 DUP1 CALLDATASIZE SUB DUP2 ADD SWAP1 PUSH2 0x70E SWAP2 SWAP1 PUSH2 0x247E JUMP JUMPDEST PUSH2 0x11CB JUMP JUMPDEST PUSH1 0x40 MLOAD PUSH2 0x720 SWAP2 SWAP1 PUSH2 0x238A JUMP JUMPDEST PUSH1 0x40 MLOAD DUP1 SWAP2 SUB SWAP1 RETURN JUMPDEST CALLVALUE DUP1 ISZERO PUSH2 0x734 JUMPI PUSH0 PUSH0 REVERT JUMPDEST POP PUSH2 0x73D PUSH2 0x1209 JUMP JUMPDEST PUSH1 0x40 MLOAD PUSH2 0x74A SWAP2 SWAP1 PUSH2 0x2465 JUMP JUMPDEST PUSH1 0x40 MLOAD DUP1 SWAP2 SUB SWAP1 RETURN JUMPDEST CALLVALUE DUP1 ISZERO PUSH2 0x75E JUMPI PUSH0 PUSH0 REVERT JUMPDEST POP PUSH2 0x779 PUSH1 0x4 DUP1 CALLDATASIZE SUB DUP2 ADD SWAP1 PUSH2 0x774 SWAP2 SWAP1 PUSH2 0x29AB JUMP JUMPDEST PUSH2 0x120F JUMP JUMPDEST STOP JUMPDEST CALLVALUE DUP1 ISZERO PUSH2 0x786 JUMPI PUSH0 PUSH0 REVERT JUMPDEST POP PUSH2 0x7A1 PUSH1 0x4 DUP1 CALLDATASIZE SUB DUP2 ADD SWAP1 PUSH2 0x79C SWAP2 SWAP1 PUSH2 0x2AE8 JUMP JUMPDEST PUSH2 0x12D5 JUMP JUMPDEST STOP JUMPDEST CALLVALUE DUP1 ISZERO PUSH2 0x7AE JUMPI PUSH0 PUSH0 REVERT JUMPDEST POP PUSH2 0x7B7 PUSH2 0x1497 JUMP JUMPDEST PUSH1 0x40 MLOAD PUSH2 0x7C4 SWAP2 SWAP1 PUSH2 0x238A JUMP JUMPDEST PUSH1 0x40 MLOAD DUP1 SWAP2 SUB SWAP1 RETURN JUMPDEST CALLVALUE DUP1 ISZERO PUSH2 0x7D8 JUMPI PUSH0 PUSH0 REVERT JUMPDEST POP PUSH2 0x7F3 PUSH1 0x4 DUP1 CALLDATASIZE SUB DUP2 ADD SWAP1 PUSH2 0x7EE SWAP2 SWAP1 PUSH2 0x2514 JUMP JUMPDEST PUSH2 0x14BB JUMP JUMPDEST PUSH1 0x40 MLOAD PUSH2 0x800 SWAP2 SWAP1 PUSH2 0x2465 JUMP JUMPDEST PUSH1 0x40 MLOAD DUP1 SWAP2 SUB SWAP1 RETURN JUMPDEST CALLVALUE DUP1 ISZERO PUSH2 0x814 JUMPI PUSH0 PUSH0 REVERT JUMPDEST POP PUSH2 0x82F PUSH1 0x4 DUP1 CALLDATASIZE SUB DUP2 ADD SWAP1 PUSH2 0x82A SWAP2 SWAP1 PUSH2 0x271F JUMP JUMPDEST PUSH2 0x14EF JUMP JUMPDEST PUSH1 0x40 MLOAD PUSH2 0x83C SWAP2 SWAP1 PUSH2 0x243D JUMP JUMPDEST PUSH1 0x40 MLOAD DUP1 SWAP2 SUB SWAP1 RETURN JUMPDEST CALLVALUE DUP1 ISZERO PUSH2 0x850 JUMPI PUSH0 PUSH0 REVERT JUMPDEST POP PUSH2 0x859 PUSH2 0x1552 JUMP JUMPDEST PUSH1 0x40 MLOAD PUSH2 0x866 SWAP2 SWAP1 PUSH2 0x238A JUMP JUMPDEST PUSH1 0x40 MLOAD DUP1 SWAP2 SUB SWAP1 RETURN JUMPDEST CALLVALUE DUP1 ISZERO PUSH2 0x87A JUMPI PUSH0 PUSH0 REVERT JUMPDEST POP PUSH2 0x883 PUSH2 0x1558 JUMP JUMPDEST PUSH1 0x40 MLOAD PUSH2 0x890 SWAP2 SWAP1 PUSH2 0x238A JUMP JUMPDEST PUSH1 0x40 MLOAD DUP1 SWAP2 SUB SWAP1 RETURN JUMPDEST CALLVALUE DUP1 ISZERO PUSH2 0x8A4 JUMPI PUSH0 PUSH0 REVERT JUMPDEST POP PUSH2 0x8BF PUSH1 0x4 DUP1 CALLDATASIZE SUB DUP2 ADD SWAP1 PUSH2 0x8BA SWAP2 SWAP1 PUSH2 0x2BD1 JUMP JUMPDEST PUSH2 0x157C JUMP JUMPDEST PUSH1 0x40 MLOAD PUSH2 0x8CC SWAP2 SWAP1 PUSH2 0x238A JUMP JUMPDEST PUSH1 0x40 MLOAD DUP1 SWAP2 SUB SWAP1 RETURN JUMPDEST CALLVALUE DUP1 ISZERO PUSH2 0x8E0 JUMPI PUSH0 PUSH0 REVERT JUMPDEST POP PUSH2 0x8FB PUSH1 0x4 DUP1 CALLDATASIZE SUB DUP2 ADD SWAP1 PUSH2 0x8F6 SWAP2 SWAP1 PUSH2 0x2D68 JUMP JUMPDEST PUSH2 0x15C0 JUMP JUMPDEST PUSH1 0x40 MLOAD PUSH2 0x908 SWAP2 SWAP1 PUSH2 0x2706 JUMP JUMPDEST PUSH1 0x40 MLOAD DUP1 SWAP2 SUB SWAP1 RETURN JUMPDEST CALLVALUE DUP1 ISZERO PUSH2 0x91C JUMPI PUSH0 PUSH0 REVERT JUMPDEST POP PUSH2 0x937 PUSH1 0x4 DUP1 CALLDATASIZE SUB DUP2 ADD SWAP1 PUSH2 0x932 SWAP2 SWAP1 PUSH2 0x2514 JUMP JUMPDEST PUSH2 0x15D4 JUMP JUMPDEST STOP JUMPDEST CALLVALUE DUP1 ISZERO PUSH2 0x944 JUMPI PUSH0 PUSH0 REVERT JUMPDEST POP PUSH2 0x94D PUSH2 0x16A3 JUMP JUMPDEST PUSH1 0x40 MLOAD PUSH2 0x95A SWAP2 SWAP1 PUSH2 0x238A JUMP JUMPDEST PUSH1 0x40 MLOAD DUP1 SWAP2 SUB SWAP1 RETURN JUMPDEST CALLVALUE DUP1 ISZERO PUSH2 0x96E JUMPI PUSH0 PUSH0 REVERT JUMPDEST POP PUSH2 0x989 PUSH1 0x4 DUP1 CALLDATASIZE SUB DUP2 ADD SWAP1 PUSH2 0x984 SWAP2 SWAP1 PUSH2 0x2514 JUMP JUMPDEST PUSH2 0x16C7 JUMP JUMPDEST PUSH1 0x40 MLOAD PUSH2 0x996 SWAP2 SWAP1 PUSH2 0x2465 JUMP JUMPDEST PUSH1 0x40 MLOAD DUP1 SWAP2 SUB SWAP1 RETURN JUMPDEST CALLVALUE DUP1 ISZERO PUSH2 0x9AA JUMPI PUSH0 PUSH0 REVERT JUMPDEST POP PUSH2 0x9C5 PUSH1 0x4 DUP1 CALLDATASIZE SUB DUP2 ADD SWAP1 PUSH2 0x9C0 SWAP2 SWAP1 PUSH2 0x271F JUMP JUMPDEST PUSH2 0x16E1 JUMP JUMPDEST STOP JUMPDEST PUSH2 0x9E1 PUSH1 0x4 DUP1 CALLDATASIZE SUB DUP2 ADD SWAP1 PUSH2 0x9DC SWAP2 SWAP1 PUSH2 0x2BD1 JUMP JUMPDEST PUSH2 0x1703 JUMP JUMPDEST STOP JUMPDEST CALLVALUE DUP1 ISZERO PUSH2 0x9EE JUMPI PUSH0 PUSH0 REVERT JUMPDEST POP PUSH2 0xA09 PUSH1 0x4 DUP1 CALLDATASIZE SUB DUP2 ADD SWAP1 PUSH2 0xA04 SWAP2 SWAP1 PUSH2 0x2E33 JUMP JUMPDEST PUSH2 0x18BE JUMP JUMPDEST PUSH1 0x40 MLOAD PUSH2 0xA16 SWAP2 SWAP1 PUSH2 0x2706 JUMP JUMPDEST PUSH1 0x40 MLOAD DUP1 SWAP2 SUB SWAP1 RETURN JUMPDEST CALLVALUE DUP1 ISZERO PUSH2 0xA2A JUMPI PUSH0 PUSH0 REVERT JUMPDEST POP PUSH2 0xA33 PUSH2 0x18D2 JUMP JUMPDEST PUSH1 0x40 MLOAD PUSH2 0xA40 SWAP2 SWAP1 PUSH2 0x2465 JUMP JUMPDEST PUSH1 0x40 MLOAD DUP1 SWAP2 SUB SWAP1 RETURN JUMPDEST CALLVALUE DUP1 ISZERO PUSH2 0xA54 JUMPI PUSH0 PUSH0 REVERT JUMPDEST POP PUSH2 0xA6F PUSH1 0x4 DUP1 CALLDATASIZE SUB DUP2 ADD SWAP1 PUSH2 0xA6A SWAP2 SWAP1 PUSH2 0x27D1 JUMP JUMPDEST PUSH2 0x18DB JUMP JUMPDEST PUSH1 0x40 MLOAD PUSH2 0xA7C SWAP2 SWAP1 PUSH2 0x243D JUMP JUMPDEST PUSH1 0x40 MLOAD DUP1 SWAP2 SUB SWAP1 RETURN JUMPDEST CALLVALUE DUP1 ISZERO PUSH2 0xA90 JUMPI PUSH0 PUSH0 REVERT JUMPDEST POP PUSH2 0xAAB PUSH1 0x4 DUP1 CALLDATASIZE SUB DUP2 ADD SWAP1 PUSH2 0xAA6 SWAP2 SWAP1 PUSH2 0x2EC6 JUMP JUMPDEST PUSH2 0x18F8 JUMP JUMPDEST STOP JUMPDEST PUSH32 0xB09AA5AEB3702CFD50B6B62BC4532604938F21248A27A1D5CA736082B6819CC1 PUSH2 0xAD7 DUP2 PUSH2 0x1B0B JUMP JUMPDEST PUSH0 PUSH2 0xAE6 DUP10 DUP10 DUP10 DUP10 DUP10 DUP10 PUSH2 0x11CB JUMP JUMPDEST SWAP1 POP PUSH2 0xAF2 DUP2 DUP5 PUSH2 0x1B1F JUMP JUMPDEST PUSH0 DUP2 PUSH32 0x4CF4410CC57040E44862EF0F45F3DD5A5E02DB8EB8ADD648D4B0E236F1D07DCA DUP12 DUP12 DUP12 DUP12 DUP12 DUP11 PUSH1 0x40 MLOAD PUSH2 0xB2D SWAP7 SWAP6 SWAP5 SWAP4 SWAP3 SWAP2 SWAP1 PUSH2 0x2FBB JUMP JUMPDEST PUSH1 0x40 MLOAD DUP1 SWAP2 SUB SWAP1 LOG3 PUSH0 PUSH0 SHL DUP5 EQ PUSH2 0xB77 JUMPI DUP1 PUSH32 0x20FDA5FD27A1EA7BF5B9567F143AC5470BB059374A27E8F67CB44F946F6D0387 DUP6 PUSH1 0x40 MLOAD PUSH2 0xB6E SWAP2 SWAP1 PUSH2 0x238A JUMP JUMPDEST PUSH1 0x40 MLOAD DUP1 SWAP2 SUB SWAP1 LOG2 JUMPDEST POP POP POP POP POP POP POP POP POP JUMP JUMPDEST PUSH32 0x9DD92BB3C0F96FB951725D3C2C915EDC0F10735A15A1121596E9815957A8E048 DUP2 JUMP JUMPDEST PUSH0 PUSH2 0xBB0 DUP3 PUSH2 0x1BEC JUMP JUMPDEST SWAP1 POP SWAP2 SWAP1 POP JUMP JUMPDEST PUSH32 0xD8AA0F3194971A2A116679F7C2090F6939C8D4E01A2A8D7E41D55E5351469E63 DUP2 JUMP JUMPDEST PUSH32 0xD14CB29EDAED09A39505F18F2A4F6B08CE6D5253AF1CBF242B79534EC4A3C60A DUP2 JUMP JUMPDEST PUSH3 0x93A80 DUP2 JUMP JUMPDEST PUSH32 0x1AF901454EB46A46043019ED5E8888332DDCE54F8FC4BB1774674F7F4F815AA3 DUP2 JUMP JUMPDEST PUSH32 0xD8AA0F3194971A2A116679F7C2090F6939C8D4E01A2A8D7E41D55E5351469E63 PUSH2 0xC55 DUP2 PUSH0 PUSH2 0x14EF JUMP JUMPDEST PUSH2 0xC6B JUMPI PUSH2 0xC6A DUP2 PUSH2 0xC65 PUSH2 0x1C65 JUMP JUMPDEST PUSH2 0x1C6C JUMP JUMPDEST JUMPDEST PUSH0 PUSH2 0xC7A DUP9 DUP9 DUP9 DUP9 DUP9 DUP9 PUSH2 0x11CB JUMP JUMPDEST SWAP1 POP PUSH2 0xC86 DUP2 DUP6 PUSH2 0x1CBD JUMP JUMPDEST PUSH2 0xC92 DUP9 DUP9 DUP9 DUP9 PUSH2 0x1D70 JUMP JUMPDEST PUSH0 DUP2 PUSH32 0xC2617EFA69BAB66782FA219543714338489C4E9E178271560A91B82C3F612B58 DUP11 DUP11 DUP11 DUP11 PUSH1 0x40 MLOAD PUSH2 0xCC9 SWAP5 SWAP4 SWAP3 SWAP2 SWAP1 PUSH2 0x3015 JUMP JUMPDEST PUSH1 0x40 MLOAD DUP1 SWAP2 SUB SWAP1 LOG3 PUSH2 0xCDA DUP2 PUSH2 0x1DF1 JUMP JUMPDEST POP POP POP POP POP POP POP POP JUMP JUMPDEST PUSH0 PUSH1 0x2 PUSH1 0x3 DUP2 GT ISZERO PUSH2 0xCF9 JUMPI PUSH2 0xCF8 PUSH2 0x291F JUMP JUMPDEST JUMPDEST PUSH2 0xD02 DUP4 PUSH2 0x117F JUMP JUMPDEST PUSH1 0x3 DUP2 GT ISZERO PUSH2 0xD14 JUMPI PUSH2 0xD13 PUSH2 0x291F JUMP JUMPDEST JUMPDEST EQ SWAP1 POP SWAP2 SWAP1 POP JUMP JUMPDEST PUSH0 PUSH4 0x150B7A02 PUSH1 0xE0 SHL SWAP1 POP SWAP5 SWAP4 POP POP POP POP JUMP JUMPDEST PUSH0 PUSH0 PUSH0 DUP4 DUP2 MSTORE PUSH1 0x20 ADD SWAP1 DUP2 MSTORE PUSH1 0x20 ADD PUSH0 KECCAK256 PUSH1 0x1 ADD SLOAD SWAP1 POP SWAP2 SWAP1 POP JUMP JUMPDEST PUSH0 PUSH1 0x3 DUP1 DUP2 GT ISZERO PUSH2 0xD5F JUMPI PUSH2 0xD5E PUSH2 0x291F JUMP JUMPDEST JUMPDEST PUSH2 0xD68 DUP4 PUSH2 0x117F JUMP JUMPDEST PUSH1 0x3 DUP2 GT ISZERO PUSH2 0xD7A JUMPI PUSH2 0xD79 PUSH2 0x291F JUMP JUMPDEST JUMPDEST EQ SWAP1 POP SWAP2 SWAP1 POP JUMP JUMPDEST PUSH2 0xD8B DUP3 PUSH2 0xD2F JUMP JUMPDEST PUSH2 0xD94 DUP2 PUSH2 0x1B0B JUMP JUMPDEST PUSH2 0xD9E DUP4 DUP4 PUSH2 0x1E5F JUMP JUMPDEST POP POP POP POP JUMP JUMPDEST PUSH0 PUSH0 PUSH1 0x3 DUP2 GT ISZERO PUSH2 0xDB8 JUMPI PUSH2 0xDB7 PUSH2 0x291F JUMP JUMPDEST JUMPDEST PUSH2 0xDC1 DUP4 PUSH2 0x117F JUMP JUMPDEST PUSH1 0x3 DUP2 GT ISZERO PUSH2 0xDD3 JUMPI PUSH2 0xDD2 PUSH2 0x291F JUMP JUMPDEST JUMPDEST EQ ISZERO SWAP1 POP SWAP2 SWAP1 POP JUMP JUMPDEST PUSH2 0xDE4 PUSH2 0x1C65 JUMP JUMPDEST PUSH20 0xFFFFFFFFFFFFFFFFFFFFFFFFFFFFFFFFFFFFFFFF AND DUP2 PUSH20 0xFFFFFFFFFFFFFFFFFFFFFFFFFFFFFFFFFFFFFFFF AND EQ PUSH2 0xE48 JUMPI PUSH1 0x40 MLOAD PUSH32 0x6697B23200000000000000000000000000000000000000000000000000000000 DUP2 MSTORE PUSH1 0x4 ADD PUSH1 0x40 MLOAD DUP1 SWAP2 SUB SWAP1 REVERT JUMPDEST PUSH2 0xE52 DUP3 DUP3 PUSH2 0x1F48 JUMP JUMPDEST POP POP POP JUMP JUMPDEST PUSH32 0x0 DUP2 JUMP JUMPDEST PUSH32 0xD14CB29EDAED09A39505F18F2A4F6B08CE6D5253AF1CBF242B79534EC4A3C60A PUSH2 0xEA5 DUP2 PUSH2 0x1B0B JUMP JUMPDEST PUSH0 PUSH1 0x4 PUSH0 DUP5 PUSH20 0xFFFFFFFFFFFFFFFFFFFFFFFFFFFFFFFFFFFFFFFF AND PUSH20 0xFFFFFFFFFFFFFFFFFFFFFFFFFFFFFFFFFFFFFFFF AND DUP2 MSTORE PUSH1 0x20 ADD SWAP1 DUP2 MSTORE PUSH1 0x20 ADD PUSH0 KECCAK256 PUSH0 PUSH2 0x100 EXP DUP2 SLOAD DUP2 PUSH1 0xFF MUL NOT AND SWAP1 DUP4 ISZERO ISZERO MUL OR SWAP1 SSTORE POP DUP2 PUSH20 0xFFFFFFFFFFFFFFFFFFFFFFFFFFFFFFFFFFFFFFFF AND PUSH32 0x7409CB8E690BCD1487FD4FD27DAD3FA92388D201BA6F953631D6D6B26299F849 PUSH1 0x40 MLOAD PUSH1 0x40 MLOAD DUP1 SWAP2 SUB SWAP1 LOG2 POP POP JUMP JUMPDEST PUSH32 0xD14CB29EDAED09A39505F18F2A4F6B08CE6D5253AF1CBF242B79534EC4A3C60A PUSH2 0xF6A DUP2 PUSH2 0x1B0B JUMP JUMPDEST PUSH1 0x1 PUSH1 0x4 PUSH0 DUP6 PUSH20 0xFFFFFFFFFFFFFFFFFFFFFFFFFFFFFFFFFFFFFFFF AND PUSH20 0xFFFFFFFFFFFFFFFFFFFFFFFFFFFFFFFFFFFFFFFF AND DUP2 MSTORE PUSH1 0x20 ADD SWAP1 DUP2 MSTORE PUSH1 0x20 ADD PUSH0 KECCAK256 PUSH0 PUSH2 0x100 EXP DUP2 SLOAD DUP2 PUSH1 0xFF MUL NOT AND SWAP1 DUP4 ISZERO ISZERO MUL OR SWAP1 SSTORE POP DUP3 PUSH20 0xFFFFFFFFFFFFFFFFFFFFFFFFFFFFFFFFFFFFFFFF AND PUSH32 0xCC1CF21B75158E751A071CC4770B92CDE8BB2BC34F9187EEDD0592B874A55669 DUP4 PUSH1 0x40 MLOAD PUSH2 0x1005 SWAP2 SWAP1 PUSH2 0x30B3 JUMP JUMPDEST PUSH1 0x40 MLOAD DUP1 SWAP2 SUB SWAP1 LOG2 POP POP POP JUMP JUMPDEST PUSH1 0x3 PUSH1 0x20 MSTORE DUP1 PUSH0 MSTORE PUSH1 0x40 PUSH0 KECCAK256 PUSH0 SWAP2 POP SWAP1 POP SLOAD DUP2 JUMP JUMPDEST PUSH3 0x2A300 DUP2 JUMP JUMPDEST PUSH0 PUSH0 PUSH2 0x1039 DUP4 PUSH2 0x117F JUMP JUMPDEST SWAP1 POP PUSH1 0x1 PUSH1 0x3 DUP2 GT ISZERO PUSH2 0x104F JUMPI PUSH2 0x104E PUSH2 0x291F JUMP JUMPDEST JUMPDEST DUP2 PUSH1 0x3 DUP2 GT ISZERO PUSH2 0x1062 JUMPI PUSH2 0x1061 PUSH2 0x291F JUMP JUMPDEST JUMPDEST EQ DUP1 PUSH2 0x1092 JUMPI POP PUSH1 0x2 PUSH1 0x3 DUP2 GT ISZERO PUSH2 0x107D JUMPI PUSH2 0x107C PUSH2 0x291F JUMP JUMPDEST JUMPDEST DUP2 PUSH1 0x3 DUP2 GT ISZERO PUSH2 0x1090 JUMPI PUSH2 0x108F PUSH2 0x291F JUMP JUMPDEST JUMPDEST EQ JUMPDEST SWAP2 POP POP SWAP2 SWAP1 POP JUMP JUMPDEST PUSH32 0xCA5B506E68868134DDEB8E841E2BDF6663FE7F11502A688C0B1EEDFAEDEF8E64 DUP2 JUMP JUMPDEST PUSH0 PUSH2 0x10C7 PUSH2 0x1C65 JUMP JUMPDEST SWAP1 POP ADDRESS PUSH20 0xFFFFFFFFFFFFFFFFFFFFFFFFFFFFFFFFFFFFFFFF AND DUP2 PUSH20 0xFFFFFFFFFFFFFFFFFFFFFFFFFFFFFFFFFFFFFFFF AND EQ PUSH2 0x1139 JUMPI DUP1 PUSH1 0x40 MLOAD PUSH32 0xE2850C5900000000000000000000000000000000000000000000000000000000 DUP2 MSTORE PUSH1 0x4 ADD PUSH2 0x1130 SWAP2 SWAP1 PUSH2 0x30D3 JUMP JUMPDEST PUSH1 0x40 MLOAD DUP1 SWAP2 SUB SWAP1 REVERT JUMPDEST PUSH32 0x11C24F4EAD16507C69AC467FBD5E4EED5FB5C699626D2CC6D66421DF253886D5 PUSH1 0x2 SLOAD DUP4 PUSH1 0x40 MLOAD PUSH2 0x116C SWAP3 SWAP2 SWAP1 PUSH2 0x30EC JUMP JUMPDEST PUSH1 0x40 MLOAD DUP1 SWAP2 SUB SWAP1 LOG1 DUP2 PUSH1 0x2 DUP2 SWAP1 SSTORE POP POP POP JUMP JUMPDEST PUSH0 PUSH0 PUSH2 0x118A DUP4 PUSH2 0x16C7 JUMP JUMPDEST SWAP1 POP PUSH0 DUP2 SUB PUSH2 0x119C JUMPI PUSH0 SWAP2 POP POP PUSH2 0x11C6 JUMP JUMPDEST PUSH1 0x1 DUP2 SUB PUSH2 0x11AE JUMPI PUSH1 0x3 SWAP2 POP POP PUSH2 0x11C6 JUMP JUMPDEST TIMESTAMP DUP2 GT ISZERO PUSH2 0x11C0 JUMPI PUSH1 0x1 SWAP2 POP POP PUSH2 0x11C6 JUMP JUMPDEST PUSH1 0x2 SWAP2 POP POP JUMPDEST SWAP2 SWAP1 POP JUMP JUMPDEST PUSH0 DUP7 DUP7 DUP7 DUP7 DUP7 DUP7 PUSH1 0x40 MLOAD PUSH1 0x20 ADD PUSH2 0x11E7 SWAP7 SWAP6 SWAP5 SWAP4 SWAP3 SWAP2 SWAP1 PUSH2 0x3113 JUMP JUMPDEST PUSH1 0x40 MLOAD PUSH1 0x20 DUP2 DUP4 SUB SUB DUP2 MSTORE SWAP1 PUSH1 0x40 MSTORE DUP1 MLOAD SWAP1 PUSH1 0x20 ADD KECCAK256 SWAP1 POP SWAP7 SWAP6 POP POP POP POP POP POP JUMP JUMPDEST PUSH2 0xE10 DUP2 JUMP JUMPDEST PUSH32 0xD14CB29EDAED09A39505F18F2A4F6B08CE6D5253AF1CBF242B79534EC4A3C60A PUSH2 0x1239 DUP2 PUSH2 0x1B0B JUMP JUMPDEST PUSH2 0xE10 DUP3 LT DUP1 PUSH2 0x124B JUMPI POP PUSH3 0x278D00 DUP3 GT JUMPDEST ISZERO PUSH2 0x1282 JUMPI PUSH1 0x40 MLOAD PUSH32 0x4FBE5DBA00000000000000000000000000000000000000000000000000000000 DUP2 MSTORE PUSH1 0x4 ADD PUSH1 0x40 MLOAD DUP1 SWAP2 SUB SWAP1 REVERT JUMPDEST DUP2 PUSH1 0x3 PUSH0 DUP6 DUP2 MSTORE PUSH1 0x20 ADD SWAP1 DUP2 MSTORE PUSH1 0x20 ADD PUSH0 KECCAK256 DUP2 SWAP1 SSTORE POP DUP3 PUSH32 0xAD031ABF1D47F53B1409FD5A0F803E81A19030E02C649E6C8D33B941D1B7B0CC DUP4 PUSH1 0x40 MLOAD PUSH2 0x12C8 SWAP2 SWAP1 PUSH2 0x2465 JUMP JUMPDEST PUSH1 0x40 MLOAD DUP1 SWAP2 SUB SWAP1 LOG2 POP POP POP JUMP JUMPDEST PUSH32 0xB09AA5AEB3702CFD50B6B62BC4532604938F21248A27A1D5CA736082B6819CC1 PUSH2 0x12FF DUP2 PUSH2 0x1B0B JUMP JUMPDEST DUP8 DUP8 SWAP1 POP DUP11 DUP11 SWAP1 POP EQ ISZERO DUP1 PUSH2 0x131A JUMPI POP DUP6 DUP6 SWAP1 POP DUP11 DUP11 SWAP1 POP EQ ISZERO JUMPDEST ISZERO PUSH2 0x1369 JUMPI DUP10 DUP10 SWAP1 POP DUP7 DUP7 SWAP1 POP DUP10 DUP10 SWAP1 POP PUSH1 0x40 MLOAD PUSH32 0xFFB0321100000000000000000000000000000000000000000000000000000000 DUP2 MSTORE PUSH1 0x4 ADD PUSH2 0x1360 SWAP4 SWAP3 SWAP2 SWAP1 PUSH2 0x316D JUMP JUMPDEST PUSH1 0x40 MLOAD DUP1 SWAP2 SUB SWAP1 REVERT JUMPDEST PUSH0 PUSH2 0x137A DUP12 DUP12 DUP12 DUP12 DUP12 DUP12 DUP12 DUP12 PUSH2 0x157C JUMP JUMPDEST SWAP1 POP PUSH2 0x1386 DUP2 DUP5 PUSH2 0x1B1F JUMP JUMPDEST PUSH0 PUSH0 SWAP1 POP JUMPDEST DUP12 DUP12 SWAP1 POP DUP2 LT ISZERO PUSH2 0x1447 JUMPI DUP1 DUP3 PUSH32 0x4CF4410CC57040E44862EF0F45F3DD5A5E02DB8EB8ADD648D4B0E236F1D07DCA DUP15 DUP15 DUP6 DUP2 DUP2 LT PUSH2 0x13CC JUMPI PUSH2 0x13CB PUSH2 0x31A2 JUMP JUMPDEST JUMPDEST SWAP1 POP PUSH1 0x20 MUL ADD PUSH1 0x20 DUP2 ADD SWAP1 PUSH2 0x13E1 SWAP2 SWAP1 PUSH2 0x27D1 JUMP JUMPDEST DUP14 DUP14 DUP7 DUP2 DUP2 LT PUSH2 0x13F4 JUMPI PUSH2 0x13F3 PUSH2 0x31A2 JUMP JUMPDEST JUMPDEST SWAP1 POP PUSH1 0x20 MUL ADD CALLDATALOAD DUP13 DUP13 DUP8 DUP2 DUP2 LT PUSH2 0x140E JUMPI PUSH2 0x140D PUSH2 0x31A2 JUMP JUMPDEST JUMPDEST SWAP1 POP PUSH1 0x20 MUL DUP2 ADD SWAP1 PUSH2 0x1420 SWAP2 SWAP1 PUSH2 0x31DB JUMP JUMPDEST DUP13 DUP12 PUSH1 0x40 MLOAD PUSH2 0x1434 SWAP7 SWAP6 SWAP5 SWAP4 SWAP3 SWAP2 SWAP1 PUSH2 0x2FBB JUMP JUMPDEST PUSH1 0x40 MLOAD DUP1 SWAP2 SUB SWAP1 LOG3 DUP1 PUSH1 0x1 ADD SWAP1 POP PUSH2 0x138B JUMP JUMPDEST POP PUSH0 PUSH0 SHL DUP5 EQ PUSH2 0x148A JUMPI DUP1 PUSH32 0x20FDA5FD27A1EA7BF5B9567F143AC5470BB059374A27E8F67CB44F946F6D0387 DUP6 PUSH1 0x40 MLOAD PUSH2 0x1481 SWAP2 SWAP1 PUSH2 0x238A JUMP JUMPDEST PUSH1 0x40 MLOAD DUP1 SWAP2 SUB SWAP1 LOG2 JUMPDEST POP POP POP POP POP POP POP POP POP POP POP JUMP JUMPDEST PUSH32 0xB09AA5AEB3702CFD50B6B62BC4532604938F21248A27A1D5CA736082B6819CC1 DUP2 JUMP JUMPDEST PUSH0 PUSH0 PUSH1 0x3 PUSH0 DUP5 DUP2 MSTORE PUSH1 0x20 ADD SWAP1 DUP2 MSTORE PUSH1 0x20 ADD PUSH0 KECCAK256 SLOAD SWAP1 POP PUSH0 DUP2 EQ PUSH2 0x14DE JUMPI DUP1 PUSH2 0x14E7 JUMP JUMPDEST PUSH2 0x14E6 PUSH2 0x18D2 JUMP JUMPDEST JUMPDEST SWAP2 POP POP SWAP2 SWAP1 POP JUMP JUMPDEST PUSH0 PUSH0 PUSH0 DUP5 DUP2 MSTORE PUSH1 0x20 ADD SWAP1 DUP2 MSTORE PUSH1 0x20 ADD PUSH0 KECCAK256 PUSH0 ADD PUSH0 DUP4 PUSH20 0xFFFFFFFFFFFFFFFFFFFFFFFFFFFFFFFFFFFFFFFF AND PUSH20 0xFFFFFFFFFFFFFFFFFFFFFFFFFFFFFFFFFFFFFFFF AND DUP2 MSTORE PUSH1 0x20 ADD SWAP1 DUP2 MSTORE PUSH1 0x20 ADD PUSH0 KECCAK256 PUSH0 SWAP1 SLOAD SWAP1 PUSH2 0x100 EXP SWAP1 DIV PUSH1 0xFF AND SWAP1 POP SWAP3 SWAP2 POP POP JUMP JUMPDEST PUSH0 PUSH0 SHL DUP2 JUMP JUMPDEST PUSH32 0xFD643C72710C63C0180259ABA6B2D05451E3591A24E58B62239378085726F783 DUP2 JUMP JUMPDEST PUSH0 DUP9 DUP9 DUP9 DUP9 DUP9 DUP9 DUP9 DUP9 PUSH1 0x40 MLOAD PUSH1 0x20 ADD PUSH2 0x159C SWAP9 SWAP8 SWAP7 SWAP6 SWAP5 SWAP4 SWAP3 SWAP2 SWAP1 PUSH2 0x34C9 JUMP JUMPDEST PUSH1 0x40 MLOAD PUSH1 0x20 DUP2 DUP4 SUB SUB DUP2 MSTORE SWAP1 PUSH1 0x40 MSTORE DUP1 MLOAD SWAP1 PUSH1 0x20 ADD KECCAK256 SWAP1 POP SWAP9 SWAP8 POP POP POP POP POP POP POP POP JUMP JUMPDEST PUSH0 PUSH4 0xBC197C81 PUSH1 0xE0 SHL SWAP1 POP SWAP6 SWAP5 POP POP POP POP POP JUMP JUMPDEST PUSH32 0xFD643C72710C63C0180259ABA6B2D05451E3591A24E58B62239378085726F783 PUSH2 0x15FE DUP2 PUSH2 0x1B0B JUMP JUMPDEST PUSH2 0x1607 DUP3 PUSH2 0x102E JUMP JUMPDEST PUSH2 0x165E JUMPI DUP2 PUSH2 0x1616 PUSH1 0x2 PUSH2 0x2031 JUMP JUMPDEST PUSH2 0x1620 PUSH1 0x1 PUSH2 0x2031 JUMP JUMPDEST OR PUSH1 0x40 MLOAD PUSH32 0x5EAD8EB500000000000000000000000000000000000000000000000000000000 DUP2 MSTORE PUSH1 0x4 ADD PUSH2 0x1655 SWAP3 SWAP2 SWAP1 PUSH2 0x3535 JUMP JUMPDEST PUSH1 0x40 MLOAD DUP1 SWAP2 SUB SWAP1 REVERT JUMPDEST PUSH1 0x1 PUSH0 DUP4 DUP2 MSTORE PUSH1 0x20 ADD SWAP1 DUP2 MSTORE PUSH1 0x20 ADD PUSH0 KECCAK256 PUSH0 SWAP1 SSTORE DUP2 PUSH32 0xBAA1EB22F2A492BA1A5FEA61B8DF4D27C6C8B5F3971E63BB58FA14FF72EEDB70 PUSH1 0x40 MLOAD PUSH1 0x40 MLOAD DUP1 SWAP2 SUB SWAP1 LOG2 POP POP JUMP JUMPDEST PUSH32 0x22AF3C1B7A38DE1541A74B0E3F2A6D98ECA7644CB87DB073B34F2A7F9445FBDF DUP2 JUMP JUMPDEST PUSH0 PUSH1 0x1 PUSH0 DUP4 DUP2 MSTORE PUSH1 0x20 ADD SWAP1 DUP2 MSTORE PUSH1 0x20 ADD PUSH0 KECCAK256 SLOAD SWAP1 POP SWAP2 SWAP1 POP JUMP JUMPDEST PUSH2 0x16EA DUP3 PUSH2 0xD2F JUMP JUMPDEST PUSH2 0x16F3 DUP2 PUSH2 0x1B0B JUMP JUMPDEST PUSH2 0x16FD DUP4 DUP4 PUSH2 0x1F48 JUMP JUMPDEST POP POP POP POP JUMP JUMPDEST PUSH32 0xD8AA0F3194971A2A116679F7C2090F6939C8D4E01A2A8D7E41D55E5351469E63 PUSH2 0x172E DUP2 PUSH0 PUSH2 0x14EF JUMP JUMPDEST PUSH2 0x1744 JUMPI PUSH2 0x1743 DUP2 PUSH2 0x173E PUSH2 0x1C65 JUMP JUMPDEST PUSH2 0x1C6C JUMP JUMPDEST JUMPDEST DUP7 DUP7 SWAP1 POP DUP10 DUP10 SWAP1 POP EQ ISZERO DUP1 PUSH2 0x175F JUMPI POP DUP5 DUP5 SWAP1 POP DUP10 DUP10 SWAP1 POP EQ ISZERO JUMPDEST ISZERO PUSH2 0x17AE JUMPI DUP9 DUP9 SWAP1 POP DUP6 DUP6 SWAP1 POP DUP9 DUP9 SWAP1 POP PUSH1 0x40 MLOAD PUSH32 0xFFB0321100000000000000000000000000000000000000000000000000000000 DUP2 MSTORE PUSH1 0x4 ADD PUSH2 0x17A5 SWAP4 SWAP3 SWAP2 SWAP1 PUSH2 0x316D JUMP JUMPDEST PUSH1 0x40 MLOAD DUP1 SWAP2 SUB SWAP1 REVERT JUMPDEST PUSH0 PUSH2 0x17BF DUP11 DUP11 DUP11 DUP11 DUP11 DUP11 DUP11 DUP11 PUSH2 0x157C JUMP JUMPDEST SWAP1 POP PUSH2 0x17CB DUP2 DUP6 PUSH2 0x1CBD JUMP JUMPDEST PUSH0 PUSH0 SWAP1 POP JUMPDEST DUP11 DUP11 SWAP1 POP DUP2 LT ISZERO PUSH2 0x18A8 JUMPI PUSH0 DUP12 DUP12 DUP4 DUP2 DUP2 LT PUSH2 0x17EF JUMPI PUSH2 0x17EE PUSH2 0x31A2 JUMP JUMPDEST JUMPDEST SWAP1 POP PUSH1 0x20 MUL ADD PUSH1 0x20 DUP2 ADD SWAP1 PUSH2 0x1804 SWAP2 SWAP1 PUSH2 0x27D1 JUMP JUMPDEST SWAP1 POP PUSH0 DUP11 DUP11 DUP5 DUP2 DUP2 LT PUSH2 0x181A JUMPI PUSH2 0x1819 PUSH2 0x31A2 JUMP JUMPDEST JUMPDEST SWAP1 POP PUSH1 0x20 MUL ADD CALLDATALOAD SWAP1 POP CALLDATASIZE PUSH0 DUP11 DUP11 DUP7 DUP2 DUP2 LT PUSH2 0x1838 JUMPI PUSH2 0x1837 PUSH2 0x31A2 JUMP JUMPDEST JUMPDEST SWAP1 POP PUSH1 0x20 MUL DUP2 ADD SWAP1 PUSH2 0x184A SWAP2 SWAP1 PUSH2 0x31DB JUMP JUMPDEST SWAP2 POP SWAP2 POP PUSH2 0x185A DUP5 DUP5 DUP5 DUP5 PUSH2 0x1D70 JUMP JUMPDEST DUP5 DUP7 PUSH32 0xC2617EFA69BAB66782FA219543714338489C4E9E178271560A91B82C3F612B58 DUP7 DUP7 DUP7 DUP7 PUSH1 0x40 MLOAD PUSH2 0x1891 SWAP5 SWAP4 SWAP3 SWAP2 SWAP1 PUSH2 0x3015 JUMP JUMPDEST PUSH1 0x40 MLOAD DUP1 SWAP2 SUB SWAP1 LOG3 POP POP POP POP DUP1 PUSH1 0x1 ADD SWAP1 POP PUSH2 0x17D0 JUMP JUMPDEST POP PUSH2 0x18B2 DUP2 PUSH2 0x1DF1 JUMP JUMPDEST POP POP POP POP POP POP POP POP POP POP JUMP JUMPDEST PUSH0 PUSH4 0xF23A6E61 PUSH1 0xE0 SHL SWAP1 POP SWAP6 SWAP5 POP POP POP POP POP JUMP JUMPDEST PUSH0 PUSH1 0x2 SLOAD SWAP1 POP SWAP1 JUMP JUMPDEST PUSH1 0x4 PUSH1 0x20 MSTORE DUP1 PUSH0 MSTORE PUSH1 0x40 PUSH0 KECCAK256 PUSH0 SWAP2 POP SLOAD SWAP1 PUSH2 0x100 EXP SWAP1 DIV PUSH1 0xFF AND DUP2 JUMP JUMPDEST PUSH32 0xB09AA5AEB3702CFD50B6B62BC4532604938F21248A27A1D5CA736082B6819CC1 PUSH2 0x1922 DUP2 PUSH2 0x1B0B JUMP JUMPDEST PUSH1 0x4 PUSH0 CALLER PUSH20 0xFFFFFFFFFFFFFFFFFFFFFFFFFFFFFFFFFFFFFFFF AND PUSH20 0xFFFFFFFFFFFFFFFFFFFFFFFFFFFFFFFFFFFFFFFF AND DUP2 MSTORE PUSH1 0x20 ADD SWAP1 DUP2 MSTORE PUSH1 0x20 ADD PUSH0 KECCAK256 PUSH0 SWAP1 SLOAD SWAP1 PUSH2 0x100 EXP SWAP1 DIV PUSH1 0xFF AND ISZERO PUSH2 0x19A3 JUMPI PUSH1 0x40 MLOAD PUSH32 0xA6BE350D00000000000000000000000000000000000000000000000000000000 DUP2 MSTORE PUSH1 0x4 ADD PUSH1 0x40 MLOAD DUP1 SWAP2 SUB SWAP1 REVERT JUMPDEST PUSH1 0x32 PUSH32 0x0 PUSH20 0xFFFFFFFFFFFFFFFFFFFFFFFFFFFFFFFFFFFFFFFF AND PUSH4 0x1B3B74F1 CALLER PUSH1 0x40 MLOAD DUP3 PUSH4 0xFFFFFFFF AND PUSH1 0xE0 SHL DUP2 MSTORE PUSH1 0x4 ADD PUSH2 0x19FE SWAP2 SWAP1 PUSH2 0x30D3 JUMP JUMPDEST PUSH1 0x20 PUSH1 0x40 MLOAD DUP1 DUP4 SUB DUP2 DUP7 GAS STATICCALL ISZERO DUP1 ISZERO PUSH2 0x1A19 JUMPI RETURNDATASIZE PUSH0 PUSH0 RETURNDATACOPY RETURNDATASIZE PUSH0 REVERT JUMPDEST POP POP POP POP PUSH1 0x40 MLOAD RETURNDATASIZE PUSH1 0x1F NOT PUSH1 0x1F DUP3 ADD AND DUP3 ADD DUP1 PUSH1 0x40 MSTORE POP DUP2 ADD SWAP1 PUSH2 0x1A3D SWAP2 SWAP1 PUSH2 0x3570 JUMP JUMPDEST LT ISZERO PUSH2 0x1A75 JUMPI PUSH1 0x40 MLOAD PUSH32 0xC4CE24B800000000000000000000000000000000000000000000000000000000 DUP2 MSTORE PUSH1 0x4 ADD PUSH1 0x40 MLOAD DUP1 SWAP2 SUB SWAP1 REVERT JUMPDEST PUSH0 PUSH1 0x3 PUSH0 DUP5 DUP2 MSTORE PUSH1 0x20 ADD SWAP1 DUP2 MSTORE PUSH1 0x20 ADD PUSH0 KECCAK256 SLOAD SWAP1 POP PUSH0 DUP2 SUB PUSH2 0x1A9C JUMPI PUSH2 0x1A99 PUSH2 0x18D2 JUMP JUMPDEST SWAP1 POP JUMPDEST PUSH0 PUSH2 0x1AAB DUP11 DUP11 DUP11 DUP11 DUP11 DUP11 PUSH2 0x11CB JUMP JUMPDEST SWAP1 POP PUSH2 0x1ABC DUP11 DUP11 DUP11 DUP11 DUP11 DUP11 DUP9 PUSH2 0xAAD JUMP JUMPDEST PUSH0 DUP2 PUSH32 0x4CF4410CC57040E44862EF0F45F3DD5A5E02DB8EB8ADD648D4B0E236F1D07DCA DUP13 DUP13 DUP13 DUP13 DUP13 DUP10 PUSH1 0x40 MLOAD PUSH2 0x1AF7 SWAP7 SWAP6 SWAP5 SWAP4 SWAP3 SWAP2 SWAP1 PUSH2 0x2FBB JUMP JUMPDEST PUSH1 0x40 MLOAD DUP1 SWAP2 SUB SWAP1 LOG3 POP POP POP POP POP POP POP POP POP POP JUMP JUMPDEST PUSH2 0x1B1C DUP2 PUSH2 0x1B17 PUSH2 0x1C65 JUMP JUMPDEST PUSH2 0x1C6C JUMP JUMPDEST POP JUMP JUMPDEST PUSH2 0x1B28 DUP3 PUSH2 0xDA4 JUMP JUMPDEST ISZERO PUSH2 0x1B74 JUMPI DUP2 PUSH2 0x1B37 PUSH0 PUSH2 0x2031 JUMP JUMPDEST PUSH1 0x40 MLOAD PUSH32 0x5EAD8EB500000000000000000000000000000000000000000000000000000000 DUP2 MSTORE PUSH1 0x4 ADD PUSH2 0x1B6B SWAP3 SWAP2 SWAP1 PUSH2 0x3535 JUMP JUMPDEST PUSH1 0x40 MLOAD DUP1 SWAP2 SUB SWAP1 REVERT JUMPDEST PUSH0 PUSH2 0x1B7D PUSH2 0x18D2 JUMP JUMPDEST SWAP1 POP DUP1 DUP3 LT ISZERO PUSH2 0x1BC6 JUMPI DUP2 DUP2 PUSH1 0x40 MLOAD PUSH32 0x5433660900000000000000000000000000000000000000000000000000000000 DUP2 MSTORE PUSH1 0x4 ADD PUSH2 0x1BBD SWAP3 SWAP2 SWAP1 PUSH2 0x30EC JUMP JUMPDEST PUSH1 0x40 MLOAD DUP1 SWAP2 SUB SWAP1 REVERT JUMPDEST DUP2 TIMESTAMP PUSH2 0x1BD2 SWAP2 SWAP1 PUSH2 0x35C8 JUMP JUMPDEST PUSH1 0x1 PUSH0 DUP6 DUP2 MSTORE PUSH1 0x20 ADD SWAP1 DUP2 MSTORE PUSH1 0x20 ADD PUSH0 KECCAK256 DUP2 SWAP1 SSTORE POP POP POP POP JUMP JUMPDEST PUSH0 PUSH32 0x4E2312E000000000000000000000000000000000000000000000000000000000 PUSH28 0xFFFFFFFFFFFFFFFFFFFFFFFFFFFFFFFFFFFFFFFFFFFFFFFFFFFFFFFF NOT AND DUP3 PUSH28 0xFFFFFFFFFFFFFFFFFFFFFFFFFFFFFFFFFFFFFFFFFFFFFFFFFFFFFFFF NOT AND EQ DUP1 PUSH2 0x1C5E JUMPI POP PUSH2 0x1C5D DUP3 PUSH2 0x2055 JUMP JUMPDEST JUMPDEST SWAP1 POP SWAP2 SWAP1 POP JUMP JUMPDEST PUSH0 CALLER SWAP1 POP SWAP1 JUMP JUMPDEST PUSH2 0x1C76 DUP3 DUP3 PUSH2 0x14EF JUMP JUMPDEST PUSH2 0x1CB9 JUMPI DUP1 DUP3 PUSH1 0x40 MLOAD PUSH32 0xE2517D3F00000000000000000000000000000000000000000000000000000000 DUP2 MSTORE PUSH1 0x4 ADD PUSH2 0x1CB0 SWAP3 SWAP2 SWAP1 PUSH2 0x35FB JUMP JUMPDEST PUSH1 0x40 MLOAD DUP1 SWAP2 SUB SWAP1 REVERT JUMPDEST POP POP JUMP JUMPDEST PUSH2 0x1CC6 DUP3 PUSH2 0xCE4 JUMP JUMPDEST PUSH2 0x1D12 JUMPI DUP2 PUSH2 0x1CD5 PUSH1 0x2 PUSH2 0x2031 JUMP JUMPDEST PUSH1 0x40 MLOAD PUSH32 0x5EAD8EB500000000000000000000000000000000000000000000000000000000 DUP2 MSTORE PUSH1 0x4 ADD PUSH2 0x1D09 SWAP3 SWAP2 SWAP1 PUSH2 0x3535 JUMP JUMPDEST PUSH1 0x40 MLOAD DUP1 SWAP2 SUB SWAP1 REVERT JUMPDEST PUSH0 PUSH0 SHL DUP2 EQ ISZERO DUP1 ISZERO PUSH2 0x1D2A JUMPI POP PUSH2 0x1D28 DUP2 PUSH2 0xD4B JUMP JUMPDEST ISZERO JUMPDEST ISZERO PUSH2 0x1D6C JUMPI DUP1 PUSH1 0x40 MLOAD PUSH32 0x90A9A61800000000000000000000000000000000000000000000000000000000 DUP2 MSTORE PUSH1 0x4 ADD PUSH2 0x1D63 SWAP2 SWAP1 PUSH2 0x238A JUMP JUMPDEST PUSH1 0x40 MLOAD DUP1 SWAP2 SUB SWAP1 REVERT JUMPDEST POP POP JUMP JUMPDEST PUSH0 PUSH0 DUP6 PUSH20 0xFFFFFFFFFFFFFFFFFFFFFFFFFFFFFFFFFFFFFFFF AND DUP6 DUP6 DUP6 PUSH1 0x40 MLOAD PUSH2 0x1D9A SWAP3 SWAP2 SWAP1 PUSH2 0x3650 JUMP JUMPDEST PUSH0 PUSH1 0x40 MLOAD DUP1 DUP4 SUB DUP2 DUP6 DUP8 GAS CALL SWAP3 POP POP POP RETURNDATASIZE DUP1 PUSH0 DUP2 EQ PUSH2 0x1DD4 JUMPI PUSH1 0x40 MLOAD SWAP2 POP PUSH1 0x1F NOT PUSH1 0x3F RETURNDATASIZE ADD AND DUP3 ADD PUSH1 0x40 MSTORE RETURNDATASIZE DUP3 MSTORE RETURNDATASIZE PUSH0 PUSH1 0x20 DUP5 ADD RETURNDATACOPY PUSH2 0x1DD9 JUMP JUMPDEST PUSH1 0x60 SWAP2 POP JUMPDEST POP SWAP2 POP SWAP2 POP PUSH2 0x1DE8 DUP3 DUP3 PUSH2 0x20CE JUMP JUMPDEST POP POP POP POP POP POP POP JUMP JUMPDEST PUSH2 0x1DFA DUP2 PUSH2 0xCE4 JUMP JUMPDEST PUSH2 0x1E46 JUMPI DUP1 PUSH2 0x1E09 PUSH1 0x2 PUSH2 0x2031 JUMP JUMPDEST PUSH1 0x40 MLOAD PUSH32 0x5EAD8EB500000000000000000000000000000000000000000000000000000000 DUP2 MSTORE PUSH1 0x4 ADD PUSH2 0x1E3D SWAP3 SWAP2 SWAP1 PUSH2 0x3535 JUMP JUMPDEST PUSH1 0x40 MLOAD DUP1 SWAP2 SUB SWAP1 REVERT JUMPDEST PUSH1 0x1 DUP1 PUSH0 DUP4 DUP2 MSTORE PUSH1 0x20 ADD SWAP1 DUP2 MSTORE PUSH1 0x20 ADD PUSH0 KECCAK256 DUP2 SWAP1 SSTORE POP POP JUMP JUMPDEST PUSH0 PUSH2 0x1E6A DUP4 DUP4 PUSH2 0x14EF JUMP JUMPDEST PUSH2 0x1F3E JUMPI PUSH1 0x1 PUSH0 PUSH0 DUP6 DUP2 MSTORE PUSH1 0x20 ADD SWAP1 DUP2 MSTORE PUSH1 0x20 ADD PUSH0 KECCAK256 PUSH0 ADD PUSH0 DUP5 PUSH20 0xFFFFFFFFFFFFFFFFFFFFFFFFFFFFFFFFFFFFFFFF AND PUSH20 0xFFFFFFFFFFFFFFFFFFFFFFFFFFFFFFFFFFFFFFFF AND DUP2 MSTORE PUSH1 0x20 ADD SWAP1 DUP2 MSTORE PUSH1 0x20 ADD PUSH0 KECCAK256 PUSH0 PUSH2 0x100 EXP DUP2 SLOAD DUP2 PUSH1 0xFF MUL NOT AND SWAP1 DUP4 ISZERO ISZERO MUL OR SWAP1 SSTORE POP PUSH2 0x1EDB PUSH2 0x1C65 JUMP JUMPDEST PUSH20 0xFFFFFFFFFFFFFFFFFFFFFFFFFFFFFFFFFFFFFFFF AND DUP3 PUSH20 0xFFFFFFFFFFFFFFFFFFFFFFFFFFFFFFFFFFFFFFFF AND DUP5 PUSH32 0x2F8788117E7EFF1D82E926EC794901D17C78024A50270940304540A733656F0D PUSH1 0x40 MLOAD PUSH1 0x40 MLOAD DUP1 SWAP2 SUB SWAP1 LOG4 PUSH1 0x1 SWAP1 POP PUSH2 0x1F42 JUMP JUMPDEST PUSH0 SWAP1 POP JUMPDEST SWAP3 SWAP2 POP POP JUMP JUMPDEST PUSH0 PUSH2 0x1F53 DUP4 DUP4 PUSH2 0x14EF JUMP JUMPDEST ISZERO PUSH2 0x2027 JUMPI PUSH0 PUSH0 PUSH0 DUP6 DUP2 MSTORE PUSH1 0x20 ADD SWAP1 DUP2 MSTORE PUSH1 0x20 ADD PUSH0 KECCAK256 PUSH0 ADD PUSH0 DUP5 PUSH20 0xFFFFFFFFFFFFFFFFFFFFFFFFFFFFFFFFFFFFFFFF AND PUSH20 0xFFFFFFFFFFFFFFFFFFFFFFFFFFFFFFFFFFFFFFFF AND DUP2 MSTORE PUSH1 0x20 ADD SWAP1 DUP2 MSTORE PUSH1 0x20 ADD PUSH0 KECCAK256 PUSH0 PUSH2 0x100 EXP DUP2 SLOAD DUP2 PUSH1 0xFF MUL NOT AND SWAP1 DUP4 ISZERO ISZERO MUL OR SWAP1 SSTORE POP PUSH2 0x1FC4 PUSH2 0x1C65 JUMP JUMPDEST PUSH20 0xFFFFFFFFFFFFFFFFFFFFFFFFFFFFFFFFFFFFFFFF AND DUP3 PUSH20 0xFFFFFFFFFFFFFFFFFFFFFFFFFFFFFFFFFFFFFFFF AND DUP5 PUSH32 0xF6391F5C32D9C69D2A47EA670B442974B53935D1EDC7FD64EB21E047A839171B PUSH1 0x40 MLOAD PUSH1 0x40 MLOAD DUP1 SWAP2 SUB SWAP1 LOG4 PUSH1 0x1 SWAP1 POP PUSH2 0x202B JUMP JUMPDEST PUSH0 SWAP1 POP JUMPDEST SWAP3 SWAP2 POP POP JUMP JUMPDEST PUSH0 DUP2 PUSH1 0x3 DUP2 GT ISZERO PUSH2 0x2045 JUMPI PUSH2 0x2044 PUSH2 0x291F JUMP JUMPDEST JUMPDEST PUSH1 0xFF AND PUSH1 0x1 SWAP1 SHL PUSH0 SHL SWAP1 POP SWAP2 SWAP1 POP JUMP JUMPDEST PUSH0 PUSH32 0x7965DB0B00000000000000000000000000000000000000000000000000000000 PUSH28 0xFFFFFFFFFFFFFFFFFFFFFFFFFFFFFFFFFFFFFFFFFFFFFFFFFFFFFFFF NOT AND DUP3 PUSH28 0xFFFFFFFFFFFFFFFFFFFFFFFFFFFFFFFFFFFFFFFFFFFFFFFFFFFFFFFF NOT AND EQ DUP1 PUSH2 0x20C7 JUMPI POP PUSH2 0x20C6 DUP3 PUSH2 0x20F2 JUMP JUMPDEST JUMPDEST SWAP1 POP SWAP2 SWAP1 POP JUMP JUMPDEST PUSH1 0x60 DUP3 PUSH2 0x20E3 JUMPI PUSH2 0x20DE DUP3 PUSH2 0x215B JUMP JUMPDEST PUSH2 0x20EB JUMP JUMPDEST DUP2 SWAP1 POP PUSH2 0x20EC JUMP JUMPDEST JUMPDEST SWAP3 SWAP2 POP POP JUMP JUMPDEST PUSH0 PUSH32 0x1FFC9A700000000000000000000000000000000000000000000000000000000 PUSH28 0xFFFFFFFFFFFFFFFFFFFFFFFFFFFFFFFFFFFFFFFFFFFFFFFFFFFFFFFF NOT AND DUP3 PUSH28 0xFFFFFFFFFFFFFFFFFFFFFFFFFFFFFFFFFFFFFFFFFFFFFFFFFFFFFFFF NOT AND EQ SWAP1 POP SWAP2 SWAP1 POP JUMP JUMPDEST PUSH0 DUP2 MLOAD GT ISZERO PUSH2 0x216D JUMPI DUP1 MLOAD DUP1 DUP3 PUSH1 0x20 ADD REVERT JUMPDEST PUSH1 0x40 MLOAD PUSH32 0xD6BDA27500000000000000000000000000000000000000000000000000000000 DUP2 MSTORE PUSH1 0x4 ADD PUSH1 0x40 MLOAD DUP1 SWAP2 SUB SWAP1 REVERT JUMPDEST PUSH0 PUSH1 0x40 MLOAD SWAP1 POP SWAP1 JUMP JUMPDEST PUSH0 PUSH0 REVERT JUMPDEST PUSH0 PUSH0 REVERT JUMPDEST PUSH0 PUSH20 0xFFFFFFFFFFFFFFFFFFFFFFFFFFFFFFFFFFFFFFFF DUP3 AND SWAP1 POP SWAP2 SWAP1 POP JUMP JUMPDEST PUSH0 PUSH2 0x21D9 DUP3 PUSH2 0x21B0 JUMP JUMPDEST SWAP1 POP SWAP2 SWAP1 POP JUMP JUMPDEST PUSH2 0x21E9 DUP2 PUSH2 0x21CF JUMP JUMPDEST DUP2 EQ PUSH2 0x21F3 JUMPI PUSH0 PUSH0 REVERT JUMPDEST POP JUMP JUMPDEST PUSH0 DUP2 CALLDATALOAD SWAP1 POP PUSH2 0x2204 DUP2 PUSH2 0x21E0 JUMP JUMPDEST SWAP3 SWAP2 POP POP JUMP JUMPDEST PUSH0 DUP2 SWAP1 POP SWAP2 SWAP1 POP JUMP JUMPDEST PUSH2 0x221C DUP2 PUSH2 0x220A JUMP JUMPDEST DUP2 EQ PUSH2 0x2226 JUMPI PUSH0 PUSH0 REVERT JUMPDEST POP JUMP JUMPDEST PUSH0 DUP2 CALLDATALOAD SWAP1 POP PUSH2 0x2237 DUP2 PUSH2 0x2213 JUMP JUMPDEST SWAP3 SWAP2 POP POP JUMP JUMPDEST PUSH0 PUSH0 REVERT JUMPDEST PUSH0 PUSH0 REVERT JUMPDEST PUSH0 PUSH0 REVERT JUMPDEST PUSH0 PUSH0 DUP4 PUSH1 0x1F DUP5 ADD SLT PUSH2 0x225E JUMPI PUSH2 0x225D PUSH2 0x223D JUMP JUMPDEST JUMPDEST DUP3 CALLDATALOAD SWAP1 POP PUSH8 0xFFFFFFFFFFFFFFFF DUP2 GT ISZERO PUSH2 0x227B JUMPI PUSH2 0x227A PUSH2 0x2241 JUMP JUMPDEST JUMPDEST PUSH1 0x20 DUP4 ADD SWAP2 POP DUP4 PUSH1 0x1 DUP3 MUL DUP4 ADD GT ISZERO PUSH2 0x2297 JUMPI PUSH2 0x2296 PUSH2 0x2245 JUMP JUMPDEST JUMPDEST SWAP3 POP SWAP3 SWAP1 POP JUMP JUMPDEST PUSH0 DUP2 SWAP1 POP SWAP2 SWAP1 POP JUMP JUMPDEST PUSH2 0x22B0 DUP2 PUSH2 0x229E JUMP JUMPDEST DUP2 EQ PUSH2 0x22BA JUMPI PUSH0 PUSH0 REVERT JUMPDEST POP JUMP JUMPDEST PUSH0 DUP2 CALLDATALOAD SWAP1 POP PUSH2 0x22CB DUP2 PUSH2 0x22A7 JUMP JUMPDEST SWAP3 SWAP2 POP POP JUMP JUMPDEST PUSH0 PUSH0 PUSH0 PUSH0 PUSH0 PUSH0 PUSH0 PUSH1 0xC0 DUP9 DUP11 SUB SLT ISZERO PUSH2 0x22EC JUMPI PUSH2 0x22EB PUSH2 0x21A8 JUMP JUMPDEST JUMPDEST PUSH0 PUSH2 0x22F9 DUP11 DUP3 DUP12 ADD PUSH2 0x21F6 JUMP JUMPDEST SWAP8 POP POP PUSH1 0x20 PUSH2 0x230A DUP11 DUP3 DUP12 ADD PUSH2 0x2229 JUMP JUMPDEST SWAP7 POP POP PUSH1 0x40 DUP9 ADD CALLDATALOAD PUSH8 0xFFFFFFFFFFFFFFFF DUP2 GT ISZERO PUSH2 0x232B JUMPI PUSH2 0x232A PUSH2 0x21AC JUMP JUMPDEST JUMPDEST PUSH2 0x2337 DUP11 DUP3 DUP12 ADD PUSH2 0x2249 JUMP JUMPDEST SWAP6 POP SWAP6 POP POP PUSH1 0x60 PUSH2 0x234A DUP11 DUP3 DUP12 ADD PUSH2 0x22BD JUMP JUMPDEST SWAP4 POP POP PUSH1 0x80 PUSH2 0x235B DUP11 DUP3 DUP12 ADD PUSH2 0x22BD JUMP JUMPDEST SWAP3 POP POP PUSH1 0xA0 PUSH2 0x236C DUP11 DUP3 DUP12 ADD PUSH2 0x2229 JUMP JUMPDEST SWAP2 POP POP SWAP3 SWAP6 SWAP9 SWAP2 SWAP5 SWAP8 POP SWAP3 SWAP6 POP JUMP JUMPDEST PUSH2 0x2384 DUP2 PUSH2 0x229E JUMP JUMPDEST DUP3 MSTORE POP POP JUMP JUMPDEST PUSH0 PUSH1 0x20 DUP3 ADD SWAP1 POP PUSH2 0x239D PUSH0 DUP4 ADD DUP5 PUSH2 0x237B JUMP JUMPDEST SWAP3 SWAP2 POP POP JUMP JUMPDEST PUSH0 PUSH32 0xFFFFFFFF00000000000000000000000000000000000000000000000000000000 DUP3 AND SWAP1 POP SWAP2 SWAP1 POP JUMP JUMPDEST PUSH2 0x23D7 DUP2 PUSH2 0x23A3 JUMP JUMPDEST DUP2 EQ PUSH2 0x23E1 JUMPI PUSH0 PUSH0 REVERT JUMPDEST POP JUMP JUMPDEST PUSH0 DUP2 CALLDATALOAD SWAP1 POP PUSH2 0x23F2 DUP2 PUSH2 0x23CE JUMP JUMPDEST SWAP3 SWAP2 POP POP JUMP JUMPDEST PUSH0 PUSH1 0x20 DUP3 DUP5 SUB SLT ISZERO PUSH2 0x240D JUMPI PUSH2 0x240C PUSH2 0x21A8 JUMP JUMPDEST JUMPDEST PUSH0 PUSH2 0x241A DUP5 DUP3 DUP6 ADD PUSH2 0x23E4 JUMP JUMPDEST SWAP2 POP POP SWAP3 SWAP2 POP POP JUMP JUMPDEST PUSH0 DUP2 ISZERO ISZERO SWAP1 POP SWAP2 SWAP1 POP JUMP JUMPDEST PUSH2 0x2437 DUP2 PUSH2 0x2423 JUMP JUMPDEST DUP3 MSTORE POP POP JUMP JUMPDEST PUSH0 PUSH1 0x20 DUP3 ADD SWAP1 POP PUSH2 0x2450 PUSH0 DUP4 ADD DUP5 PUSH2 0x242E JUMP JUMPDEST SWAP3 SWAP2 POP POP JUMP JUMPDEST PUSH2 0x245F DUP2 PUSH2 0x220A JUMP JUMPDEST DUP3 MSTORE POP POP JUMP JUMPDEST PUSH0 PUSH1 0x20 DUP3 ADD SWAP1 POP PUSH2 0x2478 PUSH0 DUP4 ADD DUP5 PUSH2 0x2456 JUMP JUMPDEST SWAP3 SWAP2 POP POP JUMP JUMPDEST PUSH0 PUSH0 PUSH0 PUSH0 PUSH0 PUSH0 PUSH1 0xA0 DUP8 DUP10 SUB SLT ISZERO PUSH2 0x2498 JUMPI PUSH2 0x2497 PUSH2 0x21A8 JUMP JUMPDEST JUMPDEST PUSH0 PUSH2 0x24A5 DUP10 DUP3 DUP11 ADD PUSH2 0x21F6 JUMP JUMPDEST SWAP7 POP POP PUSH1 0x20 PUSH2 0x24B6 DUP10 DUP3 DUP11 ADD PUSH2 0x2229 JUMP JUMPDEST SWAP6 POP POP PUSH1 0x40 DUP8 ADD CALLDATALOAD PUSH8 0xFFFFFFFFFFFFFFFF DUP2 GT ISZERO PUSH2 0x24D7 JUMPI PUSH2 0x24D6 PUSH2 0x21AC JUMP JUMPDEST JUMPDEST PUSH2 0x24E3 DUP10 DUP3 DUP11 ADD PUSH2 0x2249 JUMP JUMPDEST SWAP5 POP SWAP5 POP POP PUSH1 0x60 PUSH2 0x24F6 DUP10 DUP3 DUP11 ADD PUSH2 0x22BD JUMP JUMPDEST SWAP3 POP POP PUSH1 0x80 PUSH2 0x2507 DUP10 DUP3 DUP11 ADD PUSH2 0x22BD JUMP JUMPDEST SWAP2 POP POP SWAP3 SWAP6 POP SWAP3 SWAP6 POP SWAP3 SWAP6 JUMP JUMPDEST PUSH0 PUSH1 0x20 DUP3 DUP5 SUB SLT ISZERO PUSH2 0x2529 JUMPI PUSH2 0x2528 PUSH2 0x21A8 JUMP JUMPDEST JUMPDEST PUSH0 PUSH2 0x2536 DUP5 DUP3 DUP6 ADD PUSH2 0x22BD JUMP JUMPDEST SWAP2 POP POP SWAP3 SWAP2 POP POP JUMP JUMPDEST PUSH0 PUSH0 REVERT JUMPDEST PUSH0 PUSH1 0x1F NOT PUSH1 0x1F DUP4 ADD AND SWAP1 POP SWAP2 SWAP1 POP JUMP JUMPDEST PUSH32 0x4E487B7100000000000000000000000000000000000000000000000000000000 PUSH0 MSTORE PUSH1 0x41 PUSH1 0x4 MSTORE PUSH1 0x24 PUSH0 REVERT JUMPDEST PUSH2 0x2589 DUP3 PUSH2 0x2543 JUMP JUMPDEST DUP2 ADD DUP2 DUP2 LT PUSH8 0xFFFFFFFFFFFFFFFF DUP3 GT OR ISZERO PUSH2 0x25A8 JUMPI PUSH2 0x25A7 PUSH2 0x2553 JUMP JUMPDEST JUMPDEST DUP1 PUSH1 0x40 MSTORE POP POP POP JUMP JUMPDEST PUSH0 PUSH2 0x25BA PUSH2 0x219F JUMP JUMPDEST SWAP1 POP PUSH2 0x25C6 DUP3 DUP3 PUSH2 0x2580 JUMP JUMPDEST SWAP2 SWAP1 POP JUMP JUMPDEST PUSH0 PUSH8 0xFFFFFFFFFFFFFFFF DUP3 GT ISZERO PUSH2 0x25E5 JUMPI PUSH2 0x25E4 PUSH2 0x2553 JUMP JUMPDEST JUMPDEST PUSH2 0x25EE DUP3 PUSH2 0x2543 JUMP JUMPDEST SWAP1 POP PUSH1 0x20 DUP2 ADD SWAP1 POP SWAP2 SWAP1 POP JUMP JUMPDEST DUP3 DUP2 DUP4 CALLDATACOPY PUSH0 DUP4 DUP4 ADD MSTORE POP POP POP JUMP JUMPDEST PUSH0 PUSH2 0x261B PUSH2 0x2616 DUP5 PUSH2 0x25CB JUMP JUMPDEST PUSH2 0x25B1 JUMP JUMPDEST SWAP1 POP DUP3 DUP2 MSTORE PUSH1 0x20 DUP2 ADD DUP5 DUP5 DUP5 ADD GT ISZERO PUSH2 0x2637 JUMPI PUSH2 0x2636 PUSH2 0x253F JUMP JUMPDEST JUMPDEST PUSH2 0x2642 DUP5 DUP3 DUP6 PUSH2 0x25FB JUMP JUMPDEST POP SWAP4 SWAP3 POP POP POP JUMP JUMPDEST PUSH0 DUP3 PUSH1 0x1F DUP4 ADD SLT PUSH2 0x265E JUMPI PUSH2 0x265D PUSH2 0x223D JUMP JUMPDEST JUMPDEST DUP2 CALLDATALOAD PUSH2 0x266E DUP5 DUP3 PUSH1 0x20 DUP7 ADD PUSH2 0x2609 JUMP JUMPDEST SWAP2 POP POP SWAP3 SWAP2 POP POP JUMP JUMPDEST PUSH0 PUSH0 PUSH0 PUSH0 PUSH1 0x80 DUP6 DUP8 SUB SLT ISZERO PUSH2 0x268F JUMPI PUSH2 0x268E PUSH2 0x21A8 JUMP JUMPDEST JUMPDEST PUSH0 PUSH2 0x269C DUP8 DUP3 DUP9 ADD PUSH2 0x21F6 JUMP JUMPDEST SWAP5 POP POP PUSH1 0x20 PUSH2 0x26AD DUP8 DUP3 DUP9 ADD PUSH2 0x21F6 JUMP JUMPDEST SWAP4 POP POP PUSH1 0x40 PUSH2 0x26BE DUP8 DUP3 DUP9 ADD PUSH2 0x2229 JUMP JUMPDEST SWAP3 POP POP PUSH1 0x60 DUP6 ADD CALLDATALOAD PUSH8 0xFFFFFFFFFFFFFFFF DUP2 GT ISZERO PUSH2 0x26DF JUMPI PUSH2 0x26DE PUSH2 0x21AC JUMP JUMPDEST JUMPDEST PUSH2 0x26EB DUP8 DUP3 DUP9 ADD PUSH2 0x264A JUMP JUMPDEST SWAP2 POP POP SWAP3 SWAP6 SWAP2 SWAP5 POP SWAP3 POP JUMP JUMPDEST PUSH2 0x2700 DUP2 PUSH2 0x23A3 JUMP JUMPDEST DUP3 MSTORE POP POP JUMP JUMPDEST PUSH0 PUSH1 0x20 DUP3 ADD SWAP1 POP PUSH2 0x2719 PUSH0 DUP4 ADD DUP5 PUSH2 0x26F7 JUMP JUMPDEST SWAP3 SWAP2 POP POP JUMP JUMPDEST PUSH0 PUSH0 PUSH1 0x40 DUP4 DUP6 SUB SLT ISZERO PUSH2 0x2735 JUMPI PUSH2 0x2734 PUSH2 0x21A8 JUMP JUMPDEST JUMPDEST PUSH0 PUSH2 0x2742 DUP6 DUP3 DUP7 ADD PUSH2 0x22BD JUMP JUMPDEST SWAP3 POP POP PUSH1 0x20 PUSH2 0x2753 DUP6 DUP3 DUP7 ADD PUSH2 0x21F6 JUMP JUMPDEST SWAP2 POP POP SWAP3 POP SWAP3 SWAP1 POP JUMP JUMPDEST PUSH0 DUP2 SWAP1 POP SWAP2 SWAP1 POP JUMP JUMPDEST PUSH0 PUSH2 0x2780 PUSH2 0x277B PUSH2 0x2776 DUP5 PUSH2 0x21B0 JUMP JUMPDEST PUSH2 0x275D JUMP JUMPDEST PUSH2 0x21B0 JUMP JUMPDEST SWAP1 POP SWAP2 SWAP1 POP JUMP JUMPDEST PUSH0 PUSH2 0x2791 DUP3 PUSH2 0x2766 JUMP JUMPDEST SWAP1 POP SWAP2 SWAP1 POP JUMP JUMPDEST PUSH0 PUSH2 0x27A2 DUP3 PUSH2 0x2787 JUMP JUMPDEST SWAP1 POP SWAP2 SWAP1 POP JUMP JUMPDEST PUSH2 0x27B2 DUP2 PUSH2 0x2798 JUMP JUMPDEST DUP3 MSTORE POP POP JUMP JUMPDEST PUSH0 PUSH1 0x20 DUP3 ADD SWAP1 POP PUSH2 0x27CB PUSH0 DUP4 ADD DUP5 PUSH2 0x27A9 JUMP JUMPDEST SWAP3 SWAP2 POP POP JUMP JUMPDEST PUSH0 PUSH1 0x20 DUP3 DUP5 SUB SLT ISZERO PUSH2 0x27E6 JUMPI PUSH2 0x27E5 PUSH2 0x21A8 JUMP JUMPDEST JUMPDEST PUSH0 PUSH2 0x27F3 DUP5 DUP3 DUP6 ADD PUSH2 0x21F6 JUMP JUMPDEST SWAP2 POP POP SWAP3 SWAP2 POP POP JUMP JUMPDEST PUSH0 PUSH8 0xFFFFFFFFFFFFFFFF DUP3 GT ISZERO PUSH2 0x2816 JUMPI PUSH2 0x2815 PUSH2 0x2553 JUMP JUMPDEST JUMPDEST PUSH2 0x281F DUP3 PUSH2 0x2543 JUMP JUMPDEST SWAP1 POP PUSH1 0x20 DUP2 ADD SWAP1 POP SWAP2 SWAP1 POP JUMP JUMPDEST PUSH0 PUSH2 0x283E PUSH2 0x2839 DUP5 PUSH2 0x27FC JUMP JUMPDEST PUSH2 0x25B1 JUMP JUMPDEST SWAP1 POP DUP3 DUP2 MSTORE PUSH1 0x20 DUP2 ADD DUP5 DUP5 DUP5 ADD GT ISZERO PUSH2 0x285A JUMPI PUSH2 0x2859 PUSH2 0x253F JUMP JUMPDEST JUMPDEST PUSH2 0x2865 DUP5 DUP3 DUP6 PUSH2 0x25FB JUMP JUMPDEST POP SWAP4 SWAP3 POP POP POP JUMP JUMPDEST PUSH0 DUP3 PUSH1 0x1F DUP4 ADD SLT PUSH2 0x2881 JUMPI PUSH2 0x2880 PUSH2 0x223D JUMP JUMPDEST JUMPDEST DUP2 CALLDATALOAD PUSH2 0x2891 DUP5 DUP3 PUSH1 0x20 DUP7 ADD PUSH2 0x282C JUMP JUMPDEST SWAP2 POP POP SWAP3 SWAP2 POP POP JUMP JUMPDEST PUSH0 PUSH0 PUSH1 0x40 DUP4 DUP6 SUB SLT ISZERO PUSH2 0x28B0 JUMPI PUSH2 0x28AF PUSH2 0x21A8 JUMP JUMPDEST JUMPDEST PUSH0 PUSH2 0x28BD DUP6 DUP3 DUP7 ADD PUSH2 0x21F6 JUMP JUMPDEST SWAP3 POP POP PUSH1 0x20 DUP4 ADD CALLDATALOAD PUSH8 0xFFFFFFFFFFFFFFFF DUP2 GT ISZERO PUSH2 0x28DE JUMPI PUSH2 0x28DD PUSH2 0x21AC JUMP JUMPDEST JUMPDEST PUSH2 0x28EA DUP6 DUP3 DUP7 ADD PUSH2 0x286D JUMP JUMPDEST SWAP2 POP POP SWAP3 POP SWAP3 SWAP1 POP JUMP JUMPDEST PUSH0 PUSH1 0x20 DUP3 DUP5 SUB SLT ISZERO PUSH2 0x2909 JUMPI PUSH2 0x2908 PUSH2 0x21A8 JUMP JUMPDEST JUMPDEST PUSH0 PUSH2 0x2916 DUP5 DUP3 DUP6 ADD PUSH2 0x2229 JUMP JUMPDEST SWAP2 POP POP SWAP3 SWAP2 POP POP JUMP JUMPDEST PUSH32 0x4E487B7100000000000000000000000000000000000000000000000000000000 PUSH0 MSTORE PUSH1 0x21 PUSH1 0x4 MSTORE PUSH1 0x24 PUSH0 REVERT JUMPDEST PUSH1 0x4 DUP2 LT PUSH2 0x295D JUMPI PUSH2 0x295C PUSH2 0x291F JUMP JUMPDEST JUMPDEST POP JUMP JUMPDEST PUSH0 DUP2 SWAP1 POP PUSH2 0x296D DUP3 PUSH2 0x294C JUMP JUMPDEST SWAP2 SWAP1 POP JUMP JUMPDEST PUSH0 PUSH2 0x297C DUP3 PUSH2 0x2960 JUMP JUMPDEST SWAP1 POP SWAP2 SWAP1 POP JUMP JUMPDEST PUSH2 0x298C DUP2 PUSH2 0x2972 JUMP JUMPDEST DUP3 MSTORE POP POP JUMP JUMPDEST PUSH0 PUSH1 0x20 DUP3 ADD SWAP1 POP PUSH2 0x29A5 PUSH0 DUP4 ADD DUP5 PUSH2 0x2983 JUMP JUMPDEST SWAP3 SWAP2 POP POP JUMP JUMPDEST PUSH0 PUSH0 PUSH1 0x40 DUP4 DUP6 SUB SLT ISZERO PUSH2 0x29C1 JUMPI PUSH2 0x29C0 PUSH2 0x21A8 JUMP JUMPDEST JUMPDEST PUSH0 PUSH2 0x29CE DUP6 DUP3 DUP7 ADD PUSH2 0x22BD JUMP JUMPDEST SWAP3 POP POP PUSH1 0x20 PUSH2 0x29DF DUP6 DUP3 DUP7 ADD PUSH2 0x2229 JUMP JUMPDEST SWAP2 POP POP SWAP3 POP SWAP3 SWAP1 POP JUMP JUMPDEST PUSH0 PUSH0 DUP4 PUSH1 0x1F DUP5 ADD SLT PUSH2 0x29FE JUMPI PUSH2 0x29FD PUSH2 0x223D JUMP JUMPDEST JUMPDEST DUP3 CALLDATALOAD SWAP1 POP PUSH8 0xFFFFFFFFFFFFFFFF DUP2 GT ISZERO PUSH2 0x2A1B JUMPI PUSH2 0x2A1A PUSH2 0x2241 JUMP JUMPDEST JUMPDEST PUSH1 0x20 DUP4 ADD SWAP2 POP DUP4 PUSH1 0x20 DUP3 MUL DUP4 ADD GT ISZERO PUSH2 0x2A37 JUMPI PUSH2 0x2A36 PUSH2 0x2245 JUMP JUMPDEST JUMPDEST SWAP3 POP SWAP3 SWAP1 POP JUMP JUMPDEST PUSH0 PUSH0 DUP4 PUSH1 0x1F DUP5 ADD SLT PUSH2 0x2A53 JUMPI PUSH2 0x2A52 PUSH2 0x223D JUMP JUMPDEST JUMPDEST DUP3 CALLDATALOAD SWAP1 POP PUSH8 0xFFFFFFFFFFFFFFFF DUP2 GT ISZERO PUSH2 0x2A70 JUMPI PUSH2 0x2A6F PUSH2 0x2241 JUMP JUMPDEST JUMPDEST PUSH1 0x20 DUP4 ADD SWAP2 POP DUP4 PUSH1 0x20 DUP3 MUL DUP4 ADD GT ISZERO PUSH2 0x2A8C JUMPI PUSH2 0x2A8B PUSH2 0x2245 JUMP JUMPDEST JUMPDEST SWAP3 POP SWAP3 SWAP1 POP JUMP JUMPDEST PUSH0 PUSH0 DUP4 PUSH1 0x1F DUP5 ADD SLT PUSH2 0x2AA8 JUMPI PUSH2 0x2AA7 PUSH2 0x223D JUMP JUMPDEST JUMPDEST DUP3 CALLDATALOAD SWAP1 POP PUSH8 0xFFFFFFFFFFFFFFFF DUP2 GT ISZERO PUSH2 0x2AC5 JUMPI PUSH2 0x2AC4 PUSH2 0x2241 JUMP JUMPDEST JUMPDEST PUSH1 0x20 DUP4 ADD SWAP2 POP DUP4 PUSH1 0x20 DUP3 MUL DUP4 ADD GT ISZERO PUSH2 0x2AE1 JUMPI PUSH2 0x2AE0 PUSH2 0x2245 JUMP JUMPDEST JUMPDEST SWAP3 POP SWAP3 SWAP1 POP JUMP JUMPDEST PUSH0 PUSH0 PUSH0 PUSH0 PUSH0 PUSH0 PUSH0 PUSH0 PUSH0 PUSH1 0xC0 DUP11 DUP13 SUB SLT ISZERO PUSH2 0x2B05 JUMPI PUSH2 0x2B04 PUSH2 0x21A8 JUMP JUMPDEST JUMPDEST PUSH0 DUP11 ADD CALLDATALOAD PUSH8 0xFFFFFFFFFFFFFFFF DUP2 GT ISZERO PUSH2 0x2B22 JUMPI PUSH2 0x2B21 PUSH2 0x21AC JUMP JUMPDEST JUMPDEST PUSH2 0x2B2E DUP13 DUP3 DUP14 ADD PUSH2 0x29E9 JUMP JUMPDEST SWAP10 POP SWAP10 POP POP PUSH1 0x20 DUP11 ADD CALLDATALOAD PUSH8 0xFFFFFFFFFFFFFFFF DUP2 GT ISZERO PUSH2 0x2B51 JUMPI PUSH2 0x2B50 PUSH2 0x21AC JUMP JUMPDEST JUMPDEST PUSH2 0x2B5D DUP13 DUP3 DUP14 ADD PUSH2 0x2A3E JUMP JUMPDEST SWAP8 POP SWAP8 POP POP PUSH1 0x40 DUP11 ADD CALLDATALOAD PUSH8 0xFFFFFFFFFFFFFFFF DUP2 GT ISZERO PUSH2 0x2B80 JUMPI PUSH2 0x2B7F PUSH2 0x21AC JUMP JUMPDEST JUMPDEST PUSH2 0x2B8C DUP13 DUP3 DUP14 ADD PUSH2 0x2A93 JUMP JUMPDEST SWAP6 POP SWAP6 POP POP PUSH1 0x60 PUSH2 0x2B9F DUP13 DUP3 DUP14 ADD PUSH2 0x22BD JUMP JUMPDEST SWAP4 POP POP PUSH1 0x80 PUSH2 0x2BB0 DUP13 DUP3 DUP14 ADD PUSH2 0x22BD JUMP JUMPDEST SWAP3 POP POP PUSH1 0xA0 PUSH2 0x2BC1 DUP13 DUP3 DUP14 ADD PUSH2 0x2229 JUMP JUMPDEST SWAP2 POP POP SWAP3 SWAP6 SWAP9 POP SWAP3 SWAP6 SWAP9 POP SWAP3 SWAP6 SWAP9 JUMP JUMPDEST PUSH0 PUSH0 PUSH0 PUSH0 PUSH0 PUSH0 PUSH0 PUSH0 PUSH1 0xA0 DUP10 DUP12 SUB SLT ISZERO PUSH2 0x2BED JUMPI PUSH2 0x2BEC PUSH2 0x21A8 JUMP JUMPDEST JUMPDEST PUSH0 DUP10 ADD CALLDATALOAD PUSH8 0xFFFFFFFFFFFFFFFF DUP2 GT ISZERO PUSH2 0x2C0A JUMPI PUSH2 0x2C09 PUSH2 0x21AC JUMP JUMPDEST JUMPDEST PUSH2 0x2C16 DUP12 DUP3 DUP13 ADD PUSH2 0x29E9 JUMP JUMPDEST SWAP9 POP SWAP9 POP POP PUSH1 0x20 DUP10 ADD CALLDATALOAD PUSH8 0xFFFFFFFFFFFFFFFF DUP2 GT ISZERO PUSH2 0x2C39 JUMPI PUSH2 0x2C38 PUSH2 0x21AC JUMP JUMPDEST JUMPDEST PUSH2 0x2C45 DUP12 DUP3 DUP13 ADD PUSH2 0x2A3E JUMP JUMPDEST SWAP7 POP SWAP7 POP POP PUSH1 0x40 DUP10 ADD CALLDATALOAD PUSH8 0xFFFFFFFFFFFFFFFF DUP2 GT ISZERO PUSH2 0x2C68 JUMPI PUSH2 0x2C67 PUSH2 0x21AC JUMP JUMPDEST JUMPDEST PUSH2 0x2C74 DUP12 DUP3 DUP13 ADD PUSH2 0x2A93 JUMP JUMPDEST SWAP5 POP SWAP5 POP POP PUSH1 0x60 PUSH2 0x2C87 DUP12 DUP3 DUP13 ADD PUSH2 0x22BD JUMP JUMPDEST SWAP3 POP POP PUSH1 0x80 PUSH2 0x2C98 DUP12 DUP3 DUP13 ADD PUSH2 0x22BD JUMP JUMPDEST SWAP2 POP POP SWAP3 SWAP6 SWAP9 POP SWAP3 SWAP6 SWAP9 SWAP1 SWAP4 SWAP7 POP JUMP JUMPDEST PUSH0 PUSH8 0xFFFFFFFFFFFFFFFF DUP3 GT ISZERO PUSH2 0x2CC2 JUMPI PUSH2 0x2CC1 PUSH2 0x2553 JUMP JUMPDEST JUMPDEST PUSH1 0x20 DUP3 MUL SWAP1 POP PUSH1 0x20 DUP2 ADD SWAP1 POP SWAP2 SWAP1 POP JUMP JUMPDEST PUSH0 PUSH2 0x2CE5 PUSH2 0x2CE0 DUP5 PUSH2 0x2CA8 JUMP JUMPDEST PUSH2 0x25B1 JUMP JUMPDEST SWAP1 POP DUP1 DUP4 DUP3 MSTORE PUSH1 0x20 DUP3 ADD SWAP1 POP PUSH1 0x20 DUP5 MUL DUP4 ADD DUP6 DUP2 GT ISZERO PUSH2 0x2D08 JUMPI PUSH2 0x2D07 PUSH2 0x2245 JUMP JUMPDEST JUMPDEST DUP4 JUMPDEST DUP2 DUP2 LT ISZERO PUSH2 0x2D31 JUMPI DUP1 PUSH2 0x2D1D DUP9 DUP3 PUSH2 0x2229 JUMP JUMPDEST DUP5 MSTORE PUSH1 0x20 DUP5 ADD SWAP4 POP POP PUSH1 0x20 DUP2 ADD SWAP1 POP PUSH2 0x2D0A JUMP JUMPDEST POP POP POP SWAP4 SWAP3 POP POP POP JUMP JUMPDEST PUSH0 DUP3 PUSH1 0x1F DUP4 ADD SLT PUSH2 0x2D4F JUMPI PUSH2 0x2D4E PUSH2 0x223D JUMP JUMPDEST JUMPDEST DUP2 CALLDATALOAD PUSH2 0x2D5F DUP5 DUP3 PUSH1 0x20 DUP7 ADD PUSH2 0x2CD3 JUMP JUMPDEST SWAP2 POP POP SWAP3 SWAP2 POP POP JUMP JUMPDEST PUSH0 PUSH0 PUSH0 PUSH0 PUSH0 PUSH1 0xA0 DUP7 DUP9 SUB SLT ISZERO PUSH2 0x2D81 JUMPI PUSH2 0x2D80 PUSH2 0x21A8 JUMP JUMPDEST JUMPDEST PUSH0 PUSH2 0x2D8E DUP9 DUP3 DUP10 ADD PUSH2 0x21F6 JUMP JUMPDEST SWAP6 POP POP PUSH1 0x20 PUSH2 0x2D9F DUP9 DUP3 DUP10 ADD PUSH2 0x21F6 JUMP JUMPDEST SWAP5 POP POP PUSH1 0x40 DUP7 ADD CALLDATALOAD PUSH8 0xFFFFFFFFFFFFFFFF DUP2 GT ISZERO PUSH2 0x2DC0 JUMPI PUSH2 0x2DBF PUSH2 0x21AC JUMP JUMPDEST JUMPDEST PUSH2 0x2DCC DUP9 DUP3 DUP10 ADD PUSH2 0x2D3B JUMP JUMPDEST SWAP4 POP POP PUSH1 0x60 DUP7 ADD CALLDATALOAD PUSH8 0xFFFFFFFFFFFFFFFF DUP2 GT ISZERO PUSH2 0x2DED JUMPI PUSH2 0x2DEC PUSH2 0x21AC JUMP JUMPDEST JUMPDEST PUSH2 0x2DF9 DUP9 DUP3 DUP10 ADD PUSH2 0x2D3B JUMP JUMPDEST SWAP3 POP POP PUSH1 0x80 DUP7 ADD CALLDATALOAD PUSH8 0xFFFFFFFFFFFFFFFF DUP2 GT ISZERO PUSH2 0x2E1A JUMPI PUSH2 0x2E19 PUSH2 0x21AC JUMP JUMPDEST JUMPDEST PUSH2 0x2E26 DUP9 DUP3 DUP10 ADD PUSH2 0x264A JUMP JUMPDEST SWAP2 POP POP SWAP3 SWAP6 POP SWAP3 SWAP6 SWAP1 SWAP4 POP JUMP JUMPDEST PUSH0 PUSH0 PUSH0 PUSH0 PUSH0 PUSH1 0xA0 DUP7 DUP9 SUB SLT ISZERO PUSH2 0x2E4C JUMPI PUSH2 0x2E4B PUSH2 0x21A8 JUMP JUMPDEST JUMPDEST PUSH0 PUSH2 0x2E59 DUP9 DUP3 DUP10 ADD PUSH2 0x21F6 JUMP JUMPDEST SWAP6 POP POP PUSH1 0x20 PUSH2 0x2E6A DUP9 DUP3 DUP10 ADD PUSH2 0x21F6 JUMP JUMPDEST SWAP5 POP POP PUSH1 0x40 PUSH2 0x2E7B DUP9 DUP3 DUP10 ADD PUSH2 0x2229 JUMP JUMPDEST SWAP4 POP POP PUSH1 0x60 PUSH2 0x2E8C DUP9 DUP3 DUP10 ADD PUSH2 0x2229 JUMP JUMPDEST SWAP3 POP POP PUSH1 0x80 DUP7 ADD CALLDATALOAD PUSH8 0xFFFFFFFFFFFFFFFF DUP2 GT ISZERO PUSH2 0x2EAD JUMPI PUSH2 0x2EAC PUSH2 0x21AC JUMP JUMPDEST JUMPDEST PUSH2 0x2EB9 DUP9 DUP3 DUP10 ADD PUSH2 0x264A JUMP JUMPDEST SWAP2 POP POP SWAP3 SWAP6 POP SWAP3 SWAP6 SWAP1 SWAP4 POP JUMP JUMPDEST PUSH0 PUSH0 PUSH0 PUSH0 PUSH0 PUSH0 PUSH0 PUSH1 0xC0 DUP9 DUP11 SUB SLT ISZERO PUSH2 0x2EE1 JUMPI PUSH2 0x2EE0 PUSH2 0x21A8 JUMP JUMPDEST JUMPDEST PUSH0 PUSH2 0x2EEE DUP11 DUP3 DUP12 ADD PUSH2 0x21F6 JUMP JUMPDEST SWAP8 POP POP PUSH1 0x20 PUSH2 0x2EFF DUP11 DUP3 DUP12 ADD PUSH2 0x2229 JUMP JUMPDEST SWAP7 POP POP PUSH1 0x40 DUP9 ADD CALLDATALOAD PUSH8 0xFFFFFFFFFFFFFFFF DUP2 GT ISZERO PUSH2 0x2F20 JUMPI PUSH2 0x2F1F PUSH2 0x21AC JUMP JUMPDEST JUMPDEST PUSH2 0x2F2C DUP11 DUP3 DUP12 ADD PUSH2 0x2249 JUMP JUMPDEST SWAP6 POP SWAP6 POP POP PUSH1 0x60 PUSH2 0x2F3F DUP11 DUP3 DUP12 ADD PUSH2 0x22BD JUMP JUMPDEST SWAP4 POP POP PUSH1 0x80 PUSH2 0x2F50 DUP11 DUP3 DUP12 ADD PUSH2 0x22BD JUMP JUMPDEST SWAP3 POP POP PUSH1 0xA0 PUSH2 0x2F61 DUP11 DUP3 DUP12 ADD PUSH2 0x22BD JUMP JUMPDEST SWAP2 POP POP SWAP3 SWAP6 SWAP9 SWAP2 SWAP5 SWAP8 POP SWAP3 SWAP6 POP JUMP JUMPDEST PUSH2 0x2F79 DUP2 PUSH2 0x21CF JUMP JUMPDEST DUP3 MSTORE POP POP JUMP JUMPDEST PUSH0 DUP3 DUP3 MSTORE PUSH1 0x20 DUP3 ADD SWAP1 POP SWAP3 SWAP2 POP POP JUMP JUMPDEST PUSH0 PUSH2 0x2F9A DUP4 DUP6 PUSH2 0x2F7F JUMP JUMPDEST SWAP4 POP PUSH2 0x2FA7 DUP4 DUP6 DUP5 PUSH2 0x25FB JUMP JUMPDEST PUSH2 0x2FB0 DUP4 PUSH2 0x2543 JUMP JUMPDEST DUP5 ADD SWAP1 POP SWAP4 SWAP3 POP POP POP JUMP JUMPDEST PUSH0 PUSH1 0xA0 DUP3 ADD SWAP1 POP PUSH2 0x2FCE PUSH0 DUP4 ADD DUP10 PUSH2 0x2F70 JUMP JUMPDEST PUSH2 0x2FDB PUSH1 0x20 DUP4 ADD DUP9 PUSH2 0x2456 JUMP JUMPDEST DUP2 DUP2 SUB PUSH1 0x40 DUP4 ADD MSTORE PUSH2 0x2FEE DUP2 DUP7 DUP9 PUSH2 0x2F8F JUMP JUMPDEST SWAP1 POP PUSH2 0x2FFD PUSH1 0x60 DUP4 ADD DUP6 PUSH2 0x237B JUMP JUMPDEST PUSH2 0x300A PUSH1 0x80 DUP4 ADD DUP5 PUSH2 0x2456 JUMP JUMPDEST SWAP8 SWAP7 POP POP POP POP POP POP POP JUMP JUMPDEST PUSH0 PUSH1 0x60 DUP3 ADD SWAP1 POP PUSH2 0x3028 PUSH0 DUP4 ADD DUP8 PUSH2 0x2F70 JUMP JUMPDEST PUSH2 0x3035 PUSH1 0x20 DUP4 ADD DUP7 PUSH2 0x2456 JUMP JUMPDEST DUP2 DUP2 SUB PUSH1 0x40 DUP4 ADD MSTORE PUSH2 0x3048 DUP2 DUP5 DUP7 PUSH2 0x2F8F JUMP JUMPDEST SWAP1 POP SWAP6 SWAP5 POP POP POP POP POP JUMP JUMPDEST PUSH0 DUP2 MLOAD SWAP1 POP SWAP2 SWAP1 POP JUMP JUMPDEST PUSH0 DUP3 DUP3 MSTORE PUSH1 0x20 DUP3 ADD SWAP1 POP SWAP3 SWAP2 POP POP JUMP JUMPDEST DUP3 DUP2 DUP4 MCOPY PUSH0 DUP4 DUP4 ADD MSTORE POP POP POP JUMP JUMPDEST PUSH0 PUSH2 0x3085 DUP3 PUSH2 0x3053 JUMP JUMPDEST PUSH2 0x308F DUP2 DUP6 PUSH2 0x305D JUMP JUMPDEST SWAP4 POP PUSH2 0x309F DUP2 DUP6 PUSH1 0x20 DUP7 ADD PUSH2 0x306D JUMP JUMPDEST PUSH2 0x30A8 DUP2 PUSH2 0x2543 JUMP JUMPDEST DUP5 ADD SWAP2 POP POP SWAP3 SWAP2 POP POP JUMP JUMPDEST PUSH0 PUSH1 0x20 DUP3 ADD SWAP1 POP DUP2 DUP2 SUB PUSH0 DUP4 ADD MSTORE PUSH2 0x30CB DUP2 DUP5 PUSH2 0x307B JUMP JUMPDEST SWAP1 POP SWAP3 SWAP2 POP POP JUMP JUMPDEST PUSH0 PUSH1 0x20 DUP3 ADD SWAP1 POP PUSH2 0x30E6 PUSH0 DUP4 ADD DUP5 PUSH2 0x2F70 JUMP JUMPDEST SWAP3 SWAP2 POP POP JUMP JUMPDEST PUSH0 PUSH1 0x40 DUP3 ADD SWAP1 POP PUSH2 0x30FF PUSH0 DUP4 ADD DUP6 PUSH2 0x2456 JUMP JUMPDEST PUSH2 0x310C PUSH1 0x20 DUP4 ADD DUP5 PUSH2 0x2456 JUMP JUMPDEST SWAP4 SWAP3 POP POP POP JUMP JUMPDEST PUSH0 PUSH1 0xA0 DUP3 ADD SWAP1 POP PUSH2 0x3126 PUSH0 DUP4 ADD DUP10 PUSH2 0x2F70 JUMP JUMPDEST PUSH2 0x3133 PUSH1 0x20 DUP4 ADD DUP9 PUSH2 0x2456 JUMP JUMPDEST DUP2 DUP2 SUB PUSH1 0x40 DUP4 ADD MSTORE PUSH2 0x3146 DUP2 DUP7 DUP9 PUSH2 0x2F8F JUMP JUMPDEST SWAP1 POP PUSH2 0x3155 PUSH1 0x60 DUP4 ADD DUP6 PUSH2 0x237B JUMP JUMPDEST PUSH2 0x3162 PUSH1 0x80 DUP4 ADD DUP5 PUSH2 0x237B JUMP JUMPDEST SWAP8 SWAP7 POP POP POP POP POP POP POP JUMP JUMPDEST PUSH0 PUSH1 0x60 DUP3 ADD SWAP1 POP PUSH2 0x3180 PUSH0 DUP4 ADD DUP7 PUSH2 0x2456 JUMP JUMPDEST PUSH2 0x318D PUSH1 0x20 DUP4 ADD DUP6 PUSH2 0x2456 JUMP JUMPDEST PUSH2 0x319A PUSH1 0x40 DUP4 ADD DUP5 PUSH2 0x2456 JUMP JUMPDEST SWAP5 SWAP4 POP POP POP POP JUMP JUMPDEST PUSH32 0x4E487B7100000000000000000000000000000000000000000000000000000000 PUSH0 MSTORE PUSH1 0x32 PUSH1 0x4 MSTORE PUSH1 0x24 PUSH0 REVERT JUMPDEST PUSH0 PUSH0 REVERT JUMPDEST PUSH0 PUSH0 REVERT JUMPDEST PUSH0 PUSH0 REVERT JUMPDEST PUSH0 PUSH0 DUP4 CALLDATALOAD PUSH1 0x1 PUSH1 0x20 SUB DUP5 CALLDATASIZE SUB SUB DUP2 SLT PUSH2 0x31F7 JUMPI PUSH2 0x31F6 PUSH2 0x31CF JUMP JUMPDEST JUMPDEST DUP1 DUP5 ADD SWAP3 POP DUP3 CALLDATALOAD SWAP2 POP PUSH8 0xFFFFFFFFFFFFFFFF DUP3 GT ISZERO PUSH2 0x3219 JUMPI PUSH2 0x3218 PUSH2 0x31D3 JUMP JUMPDEST JUMPDEST PUSH1 0x20 DUP4 ADD SWAP3 POP PUSH1 0x1 DUP3 MUL CALLDATASIZE SUB DUP4 SGT ISZERO PUSH2 0x3235 JUMPI PUSH2 0x3234 PUSH2 0x31D7 JUMP JUMPDEST JUMPDEST POP SWAP3 POP SWAP3 SWAP1 POP JUMP JUMPDEST PUSH0 DUP3 DUP3 MSTORE PUSH1 0x20 DUP3 ADD SWAP1 POP SWAP3 SWAP2 POP POP JUMP JUMPDEST PUSH0 DUP2 SWAP1 POP SWAP2 SWAP1 POP JUMP JUMPDEST PUSH2 0x325F DUP2 PUSH2 0x21CF JUMP JUMPDEST DUP3 MSTORE POP POP JUMP JUMPDEST PUSH0 PUSH2 0x3270 DUP4 DUP4 PUSH2 0x3256 JUMP JUMPDEST PUSH1 0x20 DUP4 ADD SWAP1 POP SWAP3 SWAP2 POP POP JUMP JUMPDEST PUSH0 PUSH2 0x328A PUSH1 0x20 DUP5 ADD DUP5 PUSH2 0x21F6 JUMP JUMPDEST SWAP1 POP SWAP3 SWAP2 POP POP JUMP JUMPDEST PUSH0 PUSH1 0x20 DUP3 ADD SWAP1 POP SWAP2 SWAP1 POP JUMP JUMPDEST PUSH0 PUSH2 0x32A9 DUP4 DUP6 PUSH2 0x323D JUMP JUMPDEST SWAP4 POP PUSH2 0x32B4 DUP3 PUSH2 0x324D JUMP JUMPDEST DUP1 PUSH0 JUMPDEST DUP6 DUP2 LT ISZERO PUSH2 0x32EC JUMPI PUSH2 0x32C9 DUP3 DUP5 PUSH2 0x327C JUMP JUMPDEST PUSH2 0x32D3 DUP9 DUP3 PUSH2 0x3265 JUMP JUMPDEST SWAP8 POP PUSH2 0x32DE DUP4 PUSH2 0x3292 JUMP JUMPDEST SWAP3 POP POP PUSH1 0x1 DUP2 ADD SWAP1 POP PUSH2 0x32B7 JUMP JUMPDEST POP DUP6 SWAP3 POP POP POP SWAP4 SWAP3 POP POP POP JUMP JUMPDEST PUSH0 DUP3 DUP3 MSTORE PUSH1 0x20 DUP3 ADD SWAP1 POP SWAP3 SWAP2 POP POP JUMP JUMPDEST PUSH0 PUSH0 REVERT JUMPDEST DUP3 DUP2 DUP4 CALLDATACOPY POP POP POP JUMP JUMPDEST PUSH0 PUSH2 0x3321 DUP4 DUP6 PUSH2 0x32F9 JUMP JUMPDEST SWAP4 POP PUSH32 0x7FFFFFFFFFFFFFFFFFFFFFFFFFFFFFFFFFFFFFFFFFFFFFFFFFFFFFFFFFFFFFF DUP4 GT ISZERO PUSH2 0x3354 JUMPI PUSH2 0x3353 PUSH2 0x3309 JUMP JUMPDEST JUMPDEST PUSH1 0x20 DUP4 MUL SWAP3 POP PUSH2 0x3365 DUP4 DUP6 DUP5 PUSH2 0x330D JUMP JUMPDEST DUP3 DUP5 ADD SWAP1 POP SWAP4 SWAP3 POP POP POP JUMP JUMPDEST PUSH0 DUP3 DUP3 MSTORE PUSH1 0x20 DUP3 ADD SWAP1 POP SWAP3 SWAP2 POP POP JUMP JUMPDEST PUSH0 DUP2 SWAP1 POP SWAP2 SWAP1 POP JUMP JUMPDEST PUSH0 DUP3 DUP3 MSTORE PUSH1 0x20 DUP3 ADD SWAP1 POP SWAP3 SWAP2 POP POP JUMP JUMPDEST PUSH0 PUSH2 0x33A5 DUP4 DUP6 PUSH2 0x338A JUMP JUMPDEST SWAP4 POP PUSH2 0x33B2 DUP4 DUP6 DUP5 PUSH2 0x25FB JUMP JUMPDEST PUSH2 0x33BB DUP4 PUSH2 0x2543 JUMP JUMPDEST DUP5 ADD SWAP1 POP SWAP4 SWAP3 POP POP POP JUMP JUMPDEST PUSH0 PUSH2 0x33D2 DUP5 DUP5 DUP5 PUSH2 0x339A JUMP JUMPDEST SWAP1 POP SWAP4 SWAP3 POP POP POP JUMP JUMPDEST PUSH0 PUSH0 REVERT JUMPDEST PUSH0 PUSH0 REVERT JUMPDEST PUSH0 PUSH0 REVERT JUMPDEST PUSH0 PUSH0 DUP4 CALLDATALOAD PUSH1 0x1 PUSH1 0x20 SUB DUP5 CALLDATASIZE SUB SUB DUP2 SLT PUSH2 0x3403 JUMPI PUSH2 0x3402 PUSH2 0x33E3 JUMP JUMPDEST JUMPDEST DUP4 DUP2 ADD SWAP3 POP DUP3 CALLDATALOAD SWAP2 POP PUSH1 0x20 DUP4 ADD SWAP3 POP PUSH8 0xFFFFFFFFFFFFFFFF DUP3 GT ISZERO PUSH2 0x342B JUMPI PUSH2 0x342A PUSH2 0x33DB JUMP JUMPDEST JUMPDEST PUSH1 0x1 DUP3 MUL CALLDATASIZE SUB DUP4 SGT ISZERO PUSH2 0x3441 JUMPI PUSH2 0x3440 PUSH2 0x33DF JUMP JUMPDEST JUMPDEST POP SWAP3 POP SWAP3 SWAP1 POP JUMP JUMPDEST PUSH0 PUSH1 0x20 DUP3 ADD SWAP1 POP SWAP2 SWAP1 POP JUMP JUMPDEST PUSH0 PUSH2 0x3460 DUP4 DUP6 PUSH2 0x3371 JUMP JUMPDEST SWAP4 POP DUP4 PUSH1 0x20 DUP5 MUL DUP6 ADD PUSH2 0x3472 DUP5 PUSH2 0x3381 JUMP JUMPDEST DUP1 PUSH0 JUMPDEST DUP8 DUP2 LT ISZERO PUSH2 0x34B7 JUMPI DUP5 DUP5 SUB DUP10 MSTORE PUSH2 0x348C DUP3 DUP5 PUSH2 0x33E7 JUMP JUMPDEST PUSH2 0x3497 DUP7 DUP3 DUP5 PUSH2 0x33C6 JUMP JUMPDEST SWAP6 POP PUSH2 0x34A2 DUP5 PUSH2 0x3449 JUMP JUMPDEST SWAP4 POP PUSH1 0x20 DUP12 ADD SWAP11 POP POP POP PUSH1 0x1 DUP2 ADD SWAP1 POP PUSH2 0x3475 JUMP JUMPDEST POP DUP3 SWAP8 POP DUP8 SWAP5 POP POP POP POP POP SWAP4 SWAP3 POP POP POP JUMP JUMPDEST PUSH0 PUSH1 0xA0 DUP3 ADD SWAP1 POP DUP2 DUP2 SUB PUSH0 DUP4 ADD MSTORE PUSH2 0x34E2 DUP2 DUP11 DUP13 PUSH2 0x329E JUMP JUMPDEST SWAP1 POP DUP2 DUP2 SUB PUSH1 0x20 DUP4 ADD MSTORE PUSH2 0x34F7 DUP2 DUP9 DUP11 PUSH2 0x3316 JUMP JUMPDEST SWAP1 POP DUP2 DUP2 SUB PUSH1 0x40 DUP4 ADD MSTORE PUSH2 0x350C DUP2 DUP7 DUP9 PUSH2 0x3455 JUMP JUMPDEST SWAP1 POP PUSH2 0x351B PUSH1 0x60 DUP4 ADD DUP6 PUSH2 0x237B JUMP JUMPDEST PUSH2 0x3528 PUSH1 0x80 DUP4 ADD DUP5 PUSH2 0x237B JUMP JUMPDEST SWAP10 SWAP9 POP POP POP POP POP POP POP POP POP JUMP JUMPDEST PUSH0 PUSH1 0x40 DUP3 ADD SWAP1 POP PUSH2 0x3548 PUSH0 DUP4 ADD DUP6 PUSH2 0x237B JUMP JUMPDEST PUSH2 0x3555 PUSH1 0x20 DUP4 ADD DUP5 PUSH2 0x237B JUMP JUMPDEST SWAP4 SWAP3 POP POP POP JUMP JUMPDEST PUSH0 DUP2 MLOAD SWAP1 POP PUSH2 0x356A DUP2 PUSH2 0x2213 JUMP JUMPDEST SWAP3 SWAP2 POP POP JUMP JUMPDEST PUSH0 PUSH1 0x20 DUP3 DUP5 SUB SLT ISZERO PUSH2 0x3585 JUMPI PUSH2 0x3584 PUSH2 0x21A8 JUMP JUMPDEST JUMPDEST PUSH0 PUSH2 0x3592 DUP5 DUP3 DUP6 ADD PUSH2 0x355C JUMP JUMPDEST SWAP2 POP POP SWAP3 SWAP2 POP POP JUMP JUMPDEST PUSH32 0x4E487B7100000000000000000000000000000000000000000000000000000000 PUSH0 MSTORE PUSH1 0x11 PUSH1 0x4 MSTORE PUSH1 0x24 PUSH0 REVERT JUMPDEST PUSH0 PUSH2 0x35D2 DUP3 PUSH2 0x220A JUMP JUMPDEST SWAP2 POP PUSH2 0x35DD DUP4 PUSH2 0x220A JUMP JUMPDEST SWAP3 POP DUP3 DUP3 ADD SWAP1 POP DUP1 DUP3 GT ISZERO PUSH2 0x35F5 JUMPI PUSH2 0x35F4 PUSH2 0x359B JUMP JUMPDEST JUMPDEST SWAP3 SWAP2 POP POP JUMP JUMPDEST PUSH0 PUSH1 0x40 DUP3 ADD SWAP1 POP PUSH2 0x360E PUSH0 DUP4 ADD DUP6 PUSH2 0x2F70 JUMP JUMPDEST PUSH2 0x361B PUSH1 0x20 DUP4 ADD DUP5 PUSH2 0x237B JUMP JUMPDEST SWAP4 SWAP3 POP POP POP JUMP JUMPDEST PUSH0 DUP2 SWAP1 POP SWAP3 SWAP2 POP POP JUMP JUMPDEST PUSH0 PUSH2 0x3637 DUP4 DUP6 PUSH2 0x3622 JUMP JUMPDEST SWAP4 POP PUSH2 0x3644 DUP4 DUP6 DUP5 PUSH2 0x25FB JUMP JUMPDEST DUP3 DUP5 ADD SWAP1 POP SWAP4 SWAP3 POP POP POP JUMP JUMPDEST PUSH0 PUSH2 0x365C DUP3 DUP5 DUP7 PUSH2 0x362C JUMP JUMPDEST SWAP2 POP DUP2 SWAP1 POP SWAP4 SWAP3 POP POP POP JUMP INVALID LOG2 PUSH5 0x6970667358 0x22 SLT KECCAK256 SLOAD DUP8 LT TSTORE SGT JUMPI 0xE2 PUSH25 0x13BE16DEC996127A69A6C6B262F325CFEDEBBAC21B1D3D4864 PUSH20 0x6F6C634300081E00330000000000000000000000 "
		},
		"gasEstimates": {
			"creation": {
				"codeDepositCost": "2796400",
				"executionCost": "infinite",
				"totalCost": "infinite"
			},
			"external": {
				"CANCELLER_ROLE()": "480",
				"CRITICAL_DELAY()": "371",
				"DEFAULT_ADMIN_ROLE()": "462",
				"EMERGENCY_DELAY()": "437",
				"EMERGENCY_OPERATION()": "394",
				"EXECUTOR_ROLE()": "438",
				"PARAMETER_CHANGE()": "393",
				"PROPOSER_ROLE()": "392",
				"STANDARD_DELAY()": "436",
				"TIMELOCK_ADMIN_ROLE()": "460",
				"TREASURY_OPERATION()": "480",
				"UPGRADE_OPERATION()": "436",
				"blacklistUser(address,string)": "infinite",
				"cancel(bytes32)": "infinite",
				"dao()": "infinite",
				"execute(address,uint256,bytes,bytes32,bytes32)": "infinite",
				"executeBatch(address[],uint256[],bytes[],bytes32,bytes32)": "infinite",
				"getMinDelay()": "2542",
				"getOperationDelay(bytes32)": "5027",
				"getOperationState(bytes32)": "3066",
				"getRoleAdmin(bytes32)": "infinite",
				"getTimestamp(bytes32)": "2902",
				"grantRole(bytes32,address)": "infinite",
				"hasRole(bytes32,address)": "3231",
				"hashOperation(address,uint256,bytes,bytes32,bytes32)": "infinite",
				"hashOperationBatch(address[],uint256[],bytes[],bytes32,bytes32)": "infinite",
				"isBlacklisted(address)": "2965",
				"isOperation(bytes32)": "3102",
				"isOperationDone(bytes32)": "3056",
				"isOperationPending(bytes32)": "3172",
				"isOperationReady(bytes32)": "3122",
				"onERC1155BatchReceived(address,address,uint256[],uint256[],bytes)": "infinite",
				"onERC1155Received(address,address,uint256,uint256,bytes)": "infinite",
				"onERC721Received(address,address,uint256,bytes)": "infinite",
				"operationDelays(bytes32)": "2843",
				"renounceRole(bytes32,address)": "infinite",
				"revokeRole(bytes32,address)": "infinite",
				"schedule(address,uint256,bytes,bytes32,bytes32,uint256)": "infinite",
				"scheduleBatch(address[],uint256[],bytes[],bytes32,bytes32,uint256)": "infinite",
				"scheduleWithCustomDelay(address,uint256,bytes,bytes32,bytes32,bytes32)": "infinite",
				"setOperationDelay(bytes32,uint256)": "infinite",
				"supportsInterface(bytes4)": "938",
				"updateDelay(uint256)": "infinite",
				"whitelistUser(address)": "infinite"
			}
		},
		"methodIdentifiers": {
			"CANCELLER_ROLE()": "b08e51c0",
			"CRITICAL_DELAY()": "111622f5",
			"DEFAULT_ADMIN_ROLE()": "a217fddf",
			"EMERGENCY_DELAY()": "82944e2d",
			"EMERGENCY_OPERATION()": "01df7455",
			"EXECUTOR_ROLE()": "07bd0265",
			"PARAMETER_CHANGE()": "121dada0",
			"PROPOSER_ROLE()": "8f61f4f5",
			"STANDARD_DELAY()": "4f749016",
			"TIMELOCK_ADMIN_ROLE()": "0d3cf6fc",
			"TREASURY_OPERATION()": "60fe37ab",
			"UPGRADE_OPERATION()": "ca3e3ae3",
			"blacklistUser(address,string)": "4d0970c6",
			"cancel(bytes32)": "c4d252f5",
			"dao()": "4162169f",
			"execute(address,uint256,bytes,bytes32,bytes32)": "134008d3",
			"executeBatch(address[],uint256[],bytes[],bytes32,bytes32)": "e38335e5",
			"getMinDelay()": "f27a0c92",
			"getOperationDelay(bytes32)": "90377330",
			"getOperationState(bytes32)": "7958004c",
			"getRoleAdmin(bytes32)": "248a9ca3",
			"getTimestamp(bytes32)": "d45c4435",
			"grantRole(bytes32,address)": "2f2ff15d",
			"hasRole(bytes32,address)": "91d14854",
			"hashOperation(address,uint256,bytes,bytes32,bytes32)": "8065657f",
			"hashOperationBatch(address[],uint256[],bytes[],bytes32,bytes32)": "b1c5f427",
			"isBlacklisted(address)": "fe575a87",
			"isOperation(bytes32)": "31d50750",
			"isOperationDone(bytes32)": "2ab0f529",
			"isOperationPending(bytes32)": "584b153e",
			"isOperationReady(bytes32)": "13bc9f20",
			"onERC1155BatchReceived(address,address,uint256[],uint256[],bytes)": "bc197c81",
			"onERC1155Received(address,address,uint256,uint256,bytes)": "f23a6e61",
			"onERC721Received(address,address,uint256,bytes)": "150b7a02",
			"operationDelays(bytes32)": "4ef9d030",
			"renounceRole(bytes32,address)": "36568abe",
			"revokeRole(bytes32,address)": "d547741f",
			"schedule(address,uint256,bytes,bytes32,bytes32,uint256)": "01d5062a",
			"scheduleBatch(address[],uint256[],bytes[],bytes32,bytes32,uint256)": "8f2a0bb0",
			"scheduleWithCustomDelay(address,uint256,bytes,bytes32,bytes32,bytes32)": "ff1eb294",
			"setOperationDelay(bytes32,uint256)": "8369602c",
			"supportsInterface(bytes4)": "01ffc9a7",
			"updateDelay(uint256)": "64d62353",
			"whitelistUser(address)": "4a4c560d"
		}
	},
	"abi": [
		{
			"inputs": [
				{
					"internalType": "uint256",
					"name": "minDelay",
					"type": "uint256"
				},
				{
					"internalType": "address[]",
					"name": "proposers",
					"type": "address[]"
				},
				{
					"internalType": "address[]",
					"name": "executors",
					"type": "address[]"
				},
				{
					"internalType": "address",
					"name": "admin",
					"type": "address"
				},
				{
					"internalType": "address payable",
					"name": "_dao",
					"type": "address"
				}
			],
			"stateMutability": "nonpayable",
			"type": "constructor"
		},
		{
			"inputs": [],
			"name": "AccessControlBadConfirmation",
			"type": "error"
		},
		{
			"inputs": [
				{
					"internalType": "address",
					"name": "account",
					"type": "address"
				},
				{
					"internalType": "bytes32",
					"name": "neededRole",
					"type": "bytes32"
				}
			],
			"name": "AccessControlUnauthorizedAccount",
			"type": "error"
		},
		{
			"inputs": [],
			"name": "BlacklistedProposer",
			"type": "error"
		},
		{
			"inputs": [],
			"name": "FailedCall",
			"type": "error"
		},
		{
			"inputs": [],
			"name": "InsufficientReputation",
			"type": "error"
		},
		{
			"inputs": [],
			"name": "InvalidDelay",
			"type": "error"
		},
		{
			"inputs": [
				{
					"internalType": "uint256",
					"name": "delay",
					"type": "uint256"
				},
				{
					"internalType": "uint256",
					"name": "minDelay",
					"type": "uint256"
				}
			],
			"name": "TimelockInsufficientDelay",
			"type": "error"
		},
		{
			"inputs": [
				{
					"internalType": "uint256",
					"name": "targets",
					"type": "uint256"
				},
				{
					"internalType": "uint256",
					"name": "payloads",
					"type": "uint256"
				},
				{
					"internalType": "uint256",
					"name": "values",
					"type": "uint256"
				}
			],
			"name": "TimelockInvalidOperationLength",
			"type": "error"
		},
		{
			"inputs": [
				{
					"internalType": "address",
					"name": "caller",
					"type": "address"
				}
			],
			"name": "TimelockUnauthorizedCaller",
			"type": "error"
		},
		{
			"inputs": [
				{
					"internalType": "bytes32",
					"name": "predecessorId",
					"type": "bytes32"
				}
			],
			"name": "TimelockUnexecutedPredecessor",
			"type": "error"
		},
		{
			"inputs": [
				{
					"internalType": "bytes32",
					"name": "operationId",
					"type": "bytes32"
				},
				{
					"internalType": "bytes32",
					"name": "expectedStates",
					"type": "bytes32"
				}
			],
			"name": "TimelockUnexpectedOperationState",
			"type": "error"
		},
		{
			"anonymous": false,
			"inputs": [
				{
					"indexed": true,
					"internalType": "bytes32",
					"name": "id",
					"type": "bytes32"
				},
				{
					"indexed": true,
					"internalType": "uint256",
					"name": "index",
					"type": "uint256"
				},
				{
					"indexed": false,
					"internalType": "address",
					"name": "target",
					"type": "address"
				},
				{
					"indexed": false,
					"internalType": "uint256",
					"name": "value",
					"type": "uint256"
				},
				{
					"indexed": false,
					"internalType": "bytes",
					"name": "data",
					"type": "bytes"
				}
			],
			"name": "CallExecuted",
			"type": "event"
		},
		{
			"anonymous": false,
			"inputs": [
				{
					"indexed": true,
					"internalType": "bytes32",
					"name": "id",
					"type": "bytes32"
				},
				{
					"indexed": false,
					"internalType": "bytes32",
					"name": "salt",
					"type": "bytes32"
				}
			],
			"name": "CallSalt",
			"type": "event"
		},
		{
			"anonymous": false,
			"inputs": [
				{
					"indexed": true,
					"internalType": "bytes32",
					"name": "id",
					"type": "bytes32"
				},
				{
					"indexed": true,
					"internalType": "uint256",
					"name": "index",
					"type": "uint256"
				},
				{
					"indexed": false,
					"internalType": "address",
					"name": "target",
					"type": "address"
				},
				{
					"indexed": false,
					"internalType": "uint256",
					"name": "value",
					"type": "uint256"
				},
				{
					"indexed": false,
					"internalType": "bytes",
					"name": "data",
					"type": "bytes"
				},
				{
					"indexed": false,
					"internalType": "bytes32",
					"name": "predecessor",
					"type": "bytes32"
				},
				{
					"indexed": false,
					"internalType": "uint256",
					"name": "delay",
					"type": "uint256"
				}
			],
			"name": "CallScheduled",
			"type": "event"
		},
		{
			"anonymous": false,
			"inputs": [
				{
					"indexed": true,
					"internalType": "bytes32",
					"name": "id",
					"type": "bytes32"
				}
			],
			"name": "Cancelled",
			"type": "event"
		},
		{
			"anonymous": false,
			"inputs": [
				{
					"indexed": true,
					"internalType": "bytes32",
					"name": "operationType",
					"type": "bytes32"
				},
				{
					"indexed": false,
					"internalType": "uint256",
					"name": "delay",
					"type": "uint256"
				}
			],
			"name": "CustomDelaySet",
			"type": "event"
		},
		{
			"anonymous": false,
			"inputs": [
				{
					"indexed": false,
					"internalType": "uint256",
					"name": "oldDuration",
					"type": "uint256"
				},
				{
					"indexed": false,
					"internalType": "uint256",
					"name": "newDuration",
					"type": "uint256"
				}
			],
			"name": "MinDelayChange",
			"type": "event"
		},
		{
			"anonymous": false,
			"inputs": [
				{
					"indexed": true,
					"internalType": "bytes32",
					"name": "role",
					"type": "bytes32"
				},
				{
					"indexed": true,
					"internalType": "bytes32",
					"name": "previousAdminRole",
					"type": "bytes32"
				},
				{
					"indexed": true,
					"internalType": "bytes32",
					"name": "newAdminRole",
					"type": "bytes32"
				}
			],
			"name": "RoleAdminChanged",
			"type": "event"
		},
		{
			"anonymous": false,
			"inputs": [
				{
					"indexed": true,
					"internalType": "bytes32",
					"name": "role",
					"type": "bytes32"
				},
				{
					"indexed": true,
					"internalType": "address",
					"name": "account",
					"type": "address"
				},
				{
					"indexed": true,
					"internalType": "address",
					"name": "sender",
					"type": "address"
				}
			],
			"name": "RoleGranted",
			"type": "event"
		},
		{
			"anonymous": false,
			"inputs": [
				{
					"indexed": true,
					"internalType": "bytes32",
					"name": "role",
					"type": "bytes32"
				},
				{
					"indexed": true,
					"internalType": "address",
					"name": "account",
					"type": "address"
				},
				{
					"indexed": true,
					"internalType": "address",
					"name": "sender",
					"type": "address"
				}
			],
			"name": "RoleRevoked",
			"type": "event"
		},
		{
			"anonymous": false,
			"inputs": [
				{
					"indexed": true,
					"internalType": "address",
					"name": "user",
					"type": "address"
				},
				{
					"indexed": false,
					"internalType": "string",
					"name": "reason",
					"type": "string"
				}
			],
			"name": "UserBlacklisted",
			"type": "event"
		},
		{
			"anonymous": false,
			"inputs": [
				{
					"indexed": true,
					"internalType": "address",
					"name": "user",
					"type": "address"
				}
			],
			"name": "UserWhitelisted",
			"type": "event"
		},
		{
			"inputs": [],
			"name": "CANCELLER_ROLE",
			"outputs": [
				{
					"internalType": "bytes32",
					"name": "",
					"type": "bytes32"
				}
			],
			"stateMutability": "view",
			"type": "function"
		},
		{
			"inputs": [],
			"name": "CRITICAL_DELAY",
			"outputs": [
				{
					"internalType": "uint256",
					"name": "",
					"type": "uint256"
				}
			],
			"stateMutability": "view",
			"type": "function"
		},
		{
			"inputs": [],
			"name": "DEFAULT_ADMIN_ROLE",
			"outputs": [
				{
					"internalType": "bytes32",
					"name": "",
					"type": "bytes32"
				}
			],
			"stateMutability": "view",
			"type": "function"
		},
		{
			"inputs": [],
			"name": "EMERGENCY_DELAY",
			"outputs": [
				{
					"internalType": "uint256",
					"name": "",
					"type": "uint256"
				}
			],
			"stateMutability": "view",
			"type": "function"
		},
		{
			"inputs": [],
			"name": "EMERGENCY_OPERATION",
			"outputs": [
				{
					"internalType": "bytes32",
					"name": "",
					"type": "bytes32"
				}
			],
			"stateMutability": "view",
			"type": "function"
		},
		{
			"inputs": [],
			"name": "EXECUTOR_ROLE",
			"outputs": [
				{
					"internalType": "bytes32",
					"name": "",
					"type": "bytes32"
				}
			],
			"stateMutability": "view",
			"type": "function"
		},
		{
			"inputs": [],
			"name": "PARAMETER_CHANGE",
			"outputs": [
				{
					"internalType": "bytes32",
					"name": "",
					"type": "bytes32"
				}
			],
			"stateMutability": "view",
			"type": "function"
		},
		{
			"inputs": [],
			"name": "PROPOSER_ROLE",
			"outputs": [
				{
					"internalType": "bytes32",
					"name": "",
					"type": "bytes32"
				}
			],
			"stateMutability": "view",
			"type": "function"
		},
		{
			"inputs": [],
			"name": "STANDARD_DELAY",
			"outputs": [
				{
					"internalType": "uint256",
					"name": "",
					"type": "uint256"
				}
			],
			"stateMutability": "view",
			"type": "function"
		},
		{
			"inputs": [],
			"name": "TIMELOCK_ADMIN_ROLE",
			"outputs": [
				{
					"internalType": "bytes32",
					"name": "",
					"type": "bytes32"
				}
			],
			"stateMutability": "view",
			"type": "function"
		},
		{
			"inputs": [],
			"name": "TREASURY_OPERATION",
			"outputs": [
				{
					"internalType": "bytes32",
					"name": "",
					"type": "bytes32"
				}
			],
			"stateMutability": "view",
			"type": "function"
		},
		{
			"inputs": [],
			"name": "UPGRADE_OPERATION",
			"outputs": [
				{
					"internalType": "bytes32",
					"name": "",
					"type": "bytes32"
				}
			],
			"stateMutability": "view",
			"type": "function"
		},
		{
			"inputs": [
				{
					"internalType": "address",
					"name": "user",
					"type": "address"
				},
				{
					"internalType": "string",
					"name": "reason",
					"type": "string"
				}
			],
			"name": "blacklistUser",
			"outputs": [],
			"stateMutability": "nonpayable",
			"type": "function"
		},
		{
			"inputs": [
				{
					"internalType": "bytes32",
					"name": "id",
					"type": "bytes32"
				}
			],
			"name": "cancel",
			"outputs": [],
			"stateMutability": "nonpayable",
			"type": "function"
		},
		{
			"inputs": [],
			"name": "dao",
			"outputs": [
				{
					"internalType": "contract CredSphereDAO",
					"name": "",
					"type": "address"
				}
			],
			"stateMutability": "view",
			"type": "function"
		},
		{
			"inputs": [
				{
					"internalType": "address",
					"name": "target",
					"type": "address"
				},
				{
					"internalType": "uint256",
					"name": "value",
					"type": "uint256"
				},
				{
					"internalType": "bytes",
					"name": "payload",
					"type": "bytes"
				},
				{
					"internalType": "bytes32",
					"name": "predecessor",
					"type": "bytes32"
				},
				{
					"internalType": "bytes32",
					"name": "salt",
					"type": "bytes32"
				}
			],
			"name": "execute",
			"outputs": [],
			"stateMutability": "payable",
			"type": "function"
		},
		{
			"inputs": [
				{
					"internalType": "address[]",
					"name": "targets",
					"type": "address[]"
				},
				{
					"internalType": "uint256[]",
					"name": "values",
					"type": "uint256[]"
				},
				{
					"internalType": "bytes[]",
					"name": "payloads",
					"type": "bytes[]"
				},
				{
					"internalType": "bytes32",
					"name": "predecessor",
					"type": "bytes32"
				},
				{
					"internalType": "bytes32",
					"name": "salt",
					"type": "bytes32"
				}
			],
			"name": "executeBatch",
			"outputs": [],
			"stateMutability": "payable",
			"type": "function"
		},
		{
			"inputs": [],
			"name": "getMinDelay",
			"outputs": [
				{
					"internalType": "uint256",
					"name": "",
					"type": "uint256"
				}
			],
			"stateMutability": "view",
			"type": "function"
		},
		{
			"inputs": [
				{
					"internalType": "bytes32",
					"name": "operationType",
					"type": "bytes32"
				}
			],
			"name": "getOperationDelay",
			"outputs": [
				{
					"internalType": "uint256",
					"name": "",
					"type": "uint256"
				}
			],
			"stateMutability": "view",
			"type": "function"
		},
		{
			"inputs": [
				{
					"internalType": "bytes32",
					"name": "id",
					"type": "bytes32"
				}
			],
			"name": "getOperationState",
			"outputs": [
				{
					"internalType": "enum TimelockController.OperationState",
					"name": "",
					"type": "uint8"
				}
			],
			"stateMutability": "view",
			"type": "function"
		},
		{
			"inputs": [
				{
					"internalType": "bytes32",
					"name": "role",
					"type": "bytes32"
				}
			],
			"name": "getRoleAdmin",
			"outputs": [
				{
					"internalType": "bytes32",
					"name": "",
					"type": "bytes32"
				}
			],
			"stateMutability": "view",
			"type": "function"
		},
		{
			"inputs": [
				{
					"internalType": "bytes32",
					"name": "id",
					"type": "bytes32"
				}
			],
			"name": "getTimestamp",
			"outputs": [
				{
					"internalType": "uint256",
					"name": "",
					"type": "uint256"
				}
			],
			"stateMutability": "view",
			"type": "function"
		},
		{
			"inputs": [
				{
					"internalType": "bytes32",
					"name": "role",
					"type": "bytes32"
				},
				{
					"internalType": "address",
					"name": "account",
					"type": "address"
				}
			],
			"name": "grantRole",
			"outputs": [],
			"stateMutability": "nonpayable",
			"type": "function"
		},
		{
			"inputs": [
				{
					"internalType": "bytes32",
					"name": "role",
					"type": "bytes32"
				},
				{
					"internalType": "address",
					"name": "account",
					"type": "address"
				}
			],
			"name": "hasRole",
			"outputs": [
				{
					"internalType": "bool",
					"name": "",
					"type": "bool"
				}
			],
			"stateMutability": "view",
			"type": "function"
		},
		{
			"inputs": [
				{
					"internalType": "address",
					"name": "target",
					"type": "address"
				},
				{
					"internalType": "uint256",
					"name": "value",
					"type": "uint256"
				},
				{
					"internalType": "bytes",
					"name": "data",
					"type": "bytes"
				},
				{
					"internalType": "bytes32",
					"name": "predecessor",
					"type": "bytes32"
				},
				{
					"internalType": "bytes32",
					"name": "salt",
					"type": "bytes32"
				}
			],
			"name": "hashOperation",
			"outputs": [
				{
					"internalType": "bytes32",
					"name": "",
					"type": "bytes32"
				}
			],
			"stateMutability": "pure",
			"type": "function"
		},
		{
			"inputs": [
				{
					"internalType": "address[]",
					"name": "targets",
					"type": "address[]"
				},
				{
					"internalType": "uint256[]",
					"name": "values",
					"type": "uint256[]"
				},
				{
					"internalType": "bytes[]",
					"name": "payloads",
					"type": "bytes[]"
				},
				{
					"internalType": "bytes32",
					"name": "predecessor",
					"type": "bytes32"
				},
				{
					"internalType": "bytes32",
					"name": "salt",
					"type": "bytes32"
				}
			],
			"name": "hashOperationBatch",
			"outputs": [
				{
					"internalType": "bytes32",
					"name": "",
					"type": "bytes32"
				}
			],
			"stateMutability": "pure",
			"type": "function"
		},
		{
			"inputs": [
				{
					"internalType": "address",
					"name": "",
					"type": "address"
				}
			],
			"name": "isBlacklisted",
			"outputs": [
				{
					"internalType": "bool",
					"name": "",
					"type": "bool"
				}
			],
			"stateMutability": "view",
			"type": "function"
		},
		{
			"inputs": [
				{
					"internalType": "bytes32",
					"name": "id",
					"type": "bytes32"
				}
			],
			"name": "isOperation",
			"outputs": [
				{
					"internalType": "bool",
					"name": "",
					"type": "bool"
				}
			],
			"stateMutability": "view",
			"type": "function"
		},
		{
			"inputs": [
				{
					"internalType": "bytes32",
					"name": "id",
					"type": "bytes32"
				}
			],
			"name": "isOperationDone",
			"outputs": [
				{
					"internalType": "bool",
					"name": "",
					"type": "bool"
				}
			],
			"stateMutability": "view",
			"type": "function"
		},
		{
			"inputs": [
				{
					"internalType": "bytes32",
					"name": "id",
					"type": "bytes32"
				}
			],
			"name": "isOperationPending",
			"outputs": [
				{
					"internalType": "bool",
					"name": "",
					"type": "bool"
				}
			],
			"stateMutability": "view",
			"type": "function"
		},
		{
			"inputs": [
				{
					"internalType": "bytes32",
					"name": "id",
					"type": "bytes32"
				}
			],
			"name": "isOperationReady",
			"outputs": [
				{
					"internalType": "bool",
					"name": "",
					"type": "bool"
				}
			],
			"stateMutability": "view",
			"type": "function"
		},
		{
			"inputs": [
				{
					"internalType": "address",
					"name": "",
					"type": "address"
				},
				{
					"internalType": "address",
					"name": "",
					"type": "address"
				},
				{
					"internalType": "uint256[]",
					"name": "",
					"type": "uint256[]"
				},
				{
					"internalType": "uint256[]",
					"name": "",
					"type": "uint256[]"
				},
				{
					"internalType": "bytes",
					"name": "",
					"type": "bytes"
				}
			],
			"name": "onERC1155BatchReceived",
			"outputs": [
				{
					"internalType": "bytes4",
					"name": "",
					"type": "bytes4"
				}
			],
			"stateMutability": "nonpayable",
			"type": "function"
		},
		{
			"inputs": [
				{
					"internalType": "address",
					"name": "",
					"type": "address"
				},
				{
					"internalType": "address",
					"name": "",
					"type": "address"
				},
				{
					"internalType": "uint256",
					"name": "",
					"type": "uint256"
				},
				{
					"internalType": "uint256",
					"name": "",
					"type": "uint256"
				},
				{
					"internalType": "bytes",
					"name": "",
					"type": "bytes"
				}
			],
			"name": "onERC1155Received",
			"outputs": [
				{
					"internalType": "bytes4",
					"name": "",
					"type": "bytes4"
				}
			],
			"stateMutability": "nonpayable",
			"type": "function"
		},
		{
			"inputs": [
				{
					"internalType": "address",
					"name": "",
					"type": "address"
				},
				{
					"internalType": "address",
					"name": "",
					"type": "address"
				},
				{
					"internalType": "uint256",
					"name": "",
					"type": "uint256"
				},
				{
					"internalType": "bytes",
					"name": "",
					"type": "bytes"
				}
			],
			"name": "onERC721Received",
			"outputs": [
				{
					"internalType": "bytes4",
					"name": "",
					"type": "bytes4"
				}
			],
			"stateMutability": "nonpayable",
			"type": "function"
		},
		{
			"inputs": [
				{
					"internalType": "bytes32",
					"name": "",
					"type": "bytes32"
				}
			],
			"name": "operationDelays",
			"outputs": [
				{
					"internalType": "uint256",
					"name": "",
					"type": "uint256"
				}
			],
			"stateMutability": "view",
			"type": "function"
		},
		{
			"inputs": [
				{
					"internalType": "bytes32",
					"name": "role",
					"type": "bytes32"
				},
				{
					"internalType": "address",
					"name": "callerConfirmation",
					"type": "address"
				}
			],
			"name": "renounceRole",
			"outputs": [],
			"stateMutability": "nonpayable",
			"type": "function"
		},
		{
			"inputs": [
				{
					"internalType": "bytes32",
					"name": "role",
					"type": "bytes32"
				},
				{
					"internalType": "address",
					"name": "account",
					"type": "address"
				}
			],
			"name": "revokeRole",
			"outputs": [],
			"stateMutability": "nonpayable",
			"type": "function"
		},
		{
			"inputs": [
				{
					"internalType": "address",
					"name": "target",
					"type": "address"
				},
				{
					"internalType": "uint256",
					"name": "value",
					"type": "uint256"
				},
				{
					"internalType": "bytes",
					"name": "data",
					"type": "bytes"
				},
				{
					"internalType": "bytes32",
					"name": "predecessor",
					"type": "bytes32"
				},
				{
					"internalType": "bytes32",
					"name": "salt",
					"type": "bytes32"
				},
				{
					"internalType": "uint256",
					"name": "delay",
					"type": "uint256"
				}
			],
			"name": "schedule",
			"outputs": [],
			"stateMutability": "nonpayable",
			"type": "function"
		},
		{
			"inputs": [
				{
					"internalType": "address[]",
					"name": "targets",
					"type": "address[]"
				},
				{
					"internalType": "uint256[]",
					"name": "values",
					"type": "uint256[]"
				},
				{
					"internalType": "bytes[]",
					"name": "payloads",
					"type": "bytes[]"
				},
				{
					"internalType": "bytes32",
					"name": "predecessor",
					"type": "bytes32"
				},
				{
					"internalType": "bytes32",
					"name": "salt",
					"type": "bytes32"
				},
				{
					"internalType": "uint256",
					"name": "delay",
					"type": "uint256"
				}
			],
			"name": "scheduleBatch",
			"outputs": [],
			"stateMutability": "nonpayable",
			"type": "function"
		},
		{
			"inputs": [
				{
					"internalType": "address",
					"name": "target",
					"type": "address"
				},
				{
					"internalType": "uint256",
					"name": "value",
					"type": "uint256"
				},
				{
					"internalType": "bytes",
					"name": "data",
					"type": "bytes"
				},
				{
					"internalType": "bytes32",
					"name": "predecessor",
					"type": "bytes32"
				},
				{
					"internalType": "bytes32",
					"name": "salt",
					"type": "bytes32"
				},
				{
					"internalType": "bytes32",
					"name": "operationType",
					"type": "bytes32"
				}
			],
			"name": "scheduleWithCustomDelay",
			"outputs": [],
			"stateMutability": "nonpayable",
			"type": "function"
		},
		{
			"inputs": [
				{
					"internalType": "bytes32",
					"name": "operationType",
					"type": "bytes32"
				},
				{
					"internalType": "uint256",
					"name": "delay",
					"type": "uint256"
				}
			],
			"name": "setOperationDelay",
			"outputs": [],
			"stateMutability": "nonpayable",
			"type": "function"
		},
		{
			"inputs": [
				{
					"internalType": "bytes4",
					"name": "interfaceId",
					"type": "bytes4"
				}
			],
			"name": "supportsInterface",
			"outputs": [
				{
					"internalType": "bool",
					"name": "",
					"type": "bool"
				}
			],
			"stateMutability": "view",
			"type": "function"
		},
		{
			"inputs": [
				{
					"internalType": "uint256",
					"name": "newDelay",
					"type": "uint256"
				}
			],
			"name": "updateDelay",
			"outputs": [],
			"stateMutability": "nonpayable",
			"type": "function"
		},
		{
			"inputs": [
				{
					"internalType": "address",
					"name": "user",
					"type": "address"
				}
			],
			"name": "whitelistUser",
			"outputs": [],
			"stateMutability": "nonpayable",
			"type": "function"
		},
		{
			"stateMutability": "payable",
			"type": "receive"
		}
	]
}