{
	"data": {
		"bytecode": {
			"linkReferences": {},
			"object": "6101606040526101f460145560c860175534801561001b575f5ffd5b506040518060400160405280601081526020017f4372656453706865726520546f6b656e00000000000000000000000000000000815250806040518060400160405280600181526020017f31000000000000000000000000000000000000000000000000000000000000008152506040518060400160405280601081526020017f4372656453706865726520546f6b656e000000000000000000000000000000008152506040518060400160405280600481526020017f435245440000000000000000000000000000000000000000000000000000000081525081600390816101049190610b63565b5080600490816101149190610b63565b50505061012b6005836102ef60201b90919060201c565b61012081815250506101476006826102ef60201b90919060201c565b6101408181525050818051906020012060e08181525050808051906020012061010081815250504660a0818152505061018461033c60201b60201c565b608081815250503073ffffffffffffffffffffffffffffffffffffffff1660c08173ffffffffffffffffffffffffffffffffffffffff16815250505050505f600c5f6101000a81548160ff0219169083151502179055506001600d819055506101f55f5f1b3361039660201b60201c565b506102267f9f2df0fed2c77648de5860a4cc508cd0818c85b8b8a1ab4ceeef8d981c8956a63361039660201b60201c565b506102577f3c11d16cbaffd01df69ce1c404f6340ee057498f5f00246190ea54220576a8483361039660201b60201c565b506102887f65d7a28e3265b37a6474929f336521b332c1681b933f6cb9f3376673440d862a3361039660201b60201c565b506102b97f0f51adb3f49e4a9bbb17b3783f025995eaf8c24be2c8eefff214bdfda05ef94d3361039660201b60201c565b506102d5336a52b7d2dcc80cd2e400000061048c60201b60201c565b6102e361051160201b60201c565b42601881905550611165565b5f602083511015610310576103098361063460201b60201c565b9050610336565b826103208361069960201b60201c565b5f01908161032e9190610b63565b5060ff5f1b90505b92915050565b5f7f8b73c3c69bb8fe3d512ecc4cf759cc79239f7b179b0ffacaa9a75d522b39400f60e05161010051463060405160200161037b959493929190610c98565b60405160208183030381529060405280519060200120905090565b5f6103a783836106a260201b60201c565b610482576001600b5f8581526020019081526020015f205f015f8473ffffffffffffffffffffffffffffffffffffffff1673ffffffffffffffffffffffffffffffffffffffff1681526020019081526020015f205f6101000a81548160ff02191690831515021790555061041f61070660201b60201c565b73ffffffffffffffffffffffffffffffffffffffff168273ffffffffffffffffffffffffffffffffffffffff16847f2f8788117e7eff1d82e926ec794901d17c78024a50270940304540a733656f0d60405160405180910390a460019050610486565b5f90505b92915050565b5f73ffffffffffffffffffffffffffffffffffffffff168273ffffffffffffffffffffffffffffffffffffffff16036104fc575f6040517fec442f050000000000000000000000000000000000000000000000000000000081526004016104f39190610ce9565b60405180910390fd5b61050d5f838361070d60201b60201c565b5050565b678ac7230489e80000600f60405161052890610d56565b908152602001604051809103902081905550674563918244f40000600f60405161055190610db4565b908152602001604051809103902081905550670de0b6b3a7640000600f60405161057a90610e12565b908152602001604051809103902081905550670de0b6b3a7640000600f6040516105a390610e70565b908152602001604051809103902081905550670de0b6b3a7640000600f6040516105cc90610ece565b9081526020016040518091039020819055506801158e460913d00000600f6040516105f690610f2c565b9081526020016040518091039020819055506802b5e3af16b1880000600f60405161062090610f8a565b908152602001604051809103902081905550565b5f5f829050601f8151111561068057826040517f305a27a90000000000000000000000000000000000000000000000000000000081526004016106779190611004565b60405180910390fd5b80518161068c90611051565b5f1c175f1b915050919050565b5f819050919050565b5f600b5f8481526020019081526020015f205f015f8373ffffffffffffffffffffffffffffffffffffffff1673ffffffffffffffffffffffffffffffffffffffff1681526020019081526020015f205f9054906101000a900460ff16905092915050565b5f33905090565b5f73ffffffffffffffffffffffffffffffffffffffff168373ffffffffffffffffffffffffffffffffffffffff160361075d578060025f82825461075191906110e4565b9250508190555061082b565b5f5f5f8573ffffffffffffffffffffffffffffffffffffffff1673ffffffffffffffffffffffffffffffffffffffff1681526020019081526020015f20549050818110156107e6578381836040517fe450d38c0000000000000000000000000000000000000000000000000000000081526004016107dd93929190611117565b60405180910390fd5b8181035f5f8673ffffffffffffffffffffffffffffffffffffffff1673ffffffffffffffffffffffffffffffffffffffff1681526020019081526020015f2081905550505b5f73ffffffffffffffffffffffffffffffffffffffff168273ffffffffffffffffffffffffffffffffffffffff1603610872578060025f82825403925050819055506108bc565b805f5f8473ffffffffffffffffffffffffffffffffffffffff1673ffffffffffffffffffffffffffffffffffffffff1681526020019081526020015f205f82825401925050819055505b8173ffffffffffffffffffffffffffffffffffffffff168373ffffffffffffffffffffffffffffffffffffffff167fddf252ad1be2c89b69c2b068fc378daa952ba7f163c4a11628f55a4df523b3ef83604051610919919061114c565b60405180910390a3505050565b5f81519050919050565b7f4e487b71000000000000000000000000000000000000000000000000000000005f52604160045260245ffd5b7f4e487b71000000000000000000000000000000000000000000000000000000005f52602260045260245ffd5b5f60028204905060018216806109a157607f821691505b6020821081036109b4576109b361095d565b5b50919050565b5f819050815f5260205f209050919050565b5f6020601f8301049050919050565b5f82821b905092915050565b5f60088302610a167fffffffffffffffffffffffffffffffffffffffffffffffffffffffffffffffff826109db565b610a2086836109db565b95508019841693508086168417925050509392505050565b5f819050919050565b5f819050919050565b5f610a64610a5f610a5a84610a38565b610a41565b610a38565b9050919050565b5f819050919050565b610a7d83610a4a565b610a91610a8982610a6b565b8484546109e7565b825550505050565b5f5f905090565b610aa8610a99565b610ab3818484610a74565b505050565b5b81811015610ad657610acb5f82610aa0565b600181019050610ab9565b5050565b601f821115610b1b57610aec816109ba565b610af5846109cc565b81016020851015610b04578190505b610b18610b10856109cc565b830182610ab8565b50505b505050565b5f82821c905092915050565b5f610b3b5f1984600802610b20565b1980831691505092915050565b5f610b538383610b2c565b9150826002028217905092915050565b610b6c82610926565b67ffffffffffffffff811115610b8557610b84610930565b5b610b8f825461098a565b610b9a828285610ada565b5f60209050601f831160018114610bcb575f8415610bb9578287015190505b610bc38582610b48565b865550610c2a565b601f198416610bd9866109ba565b5f5b82811015610c0057848901518255600182019150602085019450602081019050610bdb565b86831015610c1d5784890151610c19601f891682610b2c565b8355505b6001600288020188555050505b505050505050565b5f819050919050565b610c4481610c32565b82525050565b610c5381610a38565b82525050565b5f73ffffffffffffffffffffffffffffffffffffffff82169050919050565b5f610c8282610c59565b9050919050565b610c9281610c78565b82525050565b5f60a082019050610cab5f830188610c3b565b610cb86020830187610c3b565b610cc56040830186610c3b565b610cd26060830185610c4a565b610cdf6080830184610c89565b9695505050505050565b5f602082019050610cfc5f830184610c89565b92915050565b5f81905092915050565b7f70726f66696c655f6372656174696f6e000000000000000000000000000000005f82015250565b5f610d40601083610d02565b9150610d4b82610d0c565b601082019050919050565b5f610d6082610d34565b9150819050919050565b7f63726564656e7469616c5f6d696e7400000000000000000000000000000000005f82015250565b5f610d9e600f83610d02565b9150610da982610d6a565b600f82019050919050565b5f610dbe82610d92565b9150819050919050565b7f6a6f625f6170706c69636174696f6e00000000000000000000000000000000005f82015250565b5f610dfc600f83610d02565b9150610e0782610dc8565b600f82019050919050565b5f610e1c82610df0565b9150819050919050565b7f726174696e6700000000000000000000000000000000000000000000000000005f82015250565b5f610e5a600683610d02565b9150610e6582610e26565b600682019050919050565b5f610e7a82610e4e565b9150819050919050565b7f64616f5f766f74650000000000000000000000000000000000000000000000005f82015250565b5f610eb8600883610d02565b9150610ec382610e84565b600882019050919050565b5f610ed882610eac565b9150819050919050565b7f63726564656e7469616c5f766572696669636174696f6e0000000000000000005f82015250565b5f610f16601783610d02565b9150610f2182610ee2565b601782019050919050565b5f610f3682610f0a565b9150819050919050565b7f6a6f625f636f6d706c6574696f6e0000000000000000000000000000000000005f82015250565b5f610f74600e83610d02565b9150610f7f82610f40565b600e82019050919050565b5f610f9482610f68565b9150819050919050565b5f82825260208201905092915050565b8281835e5f83830152505050565b5f601f19601f8301169050919050565b5f610fd682610926565b610fe08185610f9e565b9350610ff0818560208601610fae565b610ff981610fbc565b840191505092915050565b5f6020820190508181035f83015261101c8184610fcc565b905092915050565b5f81519050919050565b5f819050602082019050919050565b5f6110488251610c32565b80915050919050565b5f61105b82611024565b826110658461102e565b90506110708161103d565b925060208210156110b0576110ab7fffffffffffffffffffffffffffffffffffffffffffffffffffffffffffffffff836020036008026109db565b831692505b5050919050565b7f4e487b71000000000000000000000000000000000000000000000000000000005f52601160045260245ffd5b5f6110ee82610a38565b91506110f983610a38565b9250828201905080821115611111576111106110b7565b5b92915050565b5f60608201905061112a5f830186610c89565b6111376020830185610c4a565b6111446040830184610c4a565b949350505050565b5f60208201905061115f5f830184610c4a565b92915050565b60805160a05160c05160e0516101005161012051610140516159346111b65f395f612f0c01525f612ed101525f61364201525f61362101525f61274301525f61279901525f6127c201526159345ff3fe608060405234801561000f575f5ffd5b5060043610610426575f3560e01c806379cc679011610229578063c3cda5201161012e578063e4bb7160116100b6578063e91a275411610085578063e91a275414610cf2578063ea7fd52114610d10578063f6018da014610d40578063f90cde7b14610d70578063fb9ccb6814610d8e57610426565b8063e4bb716014610c90578063e63ab1e914610c9a578063e6d0f10e14610cb8578063e714da1014610cd457610426565b8063d547741f116100fd578063d547741f14610bd8578063d689343a14610bf4578063d8ad523114610c12578063dce838b714610c42578063dd62ed3e14610c6057610426565b8063c3cda52014610b64578063d2d3a32a14610b80578063d505accf14610b9e578063d539139314610bba57610426565b806395d89b41116101b1578063a9059cbb11610180578063a9059cbb14610aae578063aeba563114610ade578063bb4d443614610afa578063c0008d0c14610b2a578063c1ad617214610b4657610426565b806395d89b4114610a265780639a3cac6a14610a445780639ab24eb014610a60578063a217fddf14610a9057610426565b806384b0196e116101f857806384b0196e146109665780638a82e8e81461098a5780638e539e8c146109a857806391d14854146109d857806391ddadf414610a0857610426565b806379cc6790146108f25780637ecebe001461090e578063817b1cd21461093e5780638456cb591461095c57610426565b80633a46b1a81161032f5780635c975abb116102b75780636a56e60f116102865780636a56e60f1461084e5780636b69e05b1461087e5780636d750d801461088857806370a08231146108a65780637547c7a3146108d657610426565b80635c975abb146107b457806360217267146107d2578063608e4dd0146108025780636984bf071461081e57610426565b806342966c68116102fe57806342966c68146106fe578063499d7f961461071a5780634bf5d7e91461074a578063587cde1e146107685780635c19a95c1461079857610426565b80633a46b1a81461068a5780633eb26b03146106ba5780633f4ba83a146106d857806340c10f19146106e257610426565b8063248a9ca3116103b2578063313ce56711610381578063313ce567146105f657806331f9e35b1461061457806332cb6b0c146106325780633644e5151461065057806336568abe1461066e57610426565b8063248a9ca31461056e578063282c51f31461059e5780632f2ff15d146105bc5780632ff2e9dc146105d857610426565b80631531b62a116103f95780631531b62a146104c657806318160ddd146104e45780631c59df3a146105025780632131c68c1461052057806323b872dd1461053e57610426565b806301ffc9a71461042a57806303fe87341461045a57806306fdde0314610478578063095ea7b314610496575b5f5ffd5b610444600480360381019061043f9190614706565b610dac565b604051610451919061474b565b60405180910390f35b610462610dbd565b60405161046f919061477c565b60405180910390f35b610480610dc9565b60405161048d9190614805565b60405180910390f35b6104b060048036038101906104ab91906148a9565b610e59565b6040516104bd919061474b565b60405180910390f35b6104ce610e7b565b6040516104db919061477c565b60405180910390f35b6104ec610e81565b6040516104f9919061477c565b60405180910390f35b61050a610e8a565b604051610517919061477c565b60405180910390f35b610528610e97565b60405161053591906148f6565b60405180910390f35b6105586004803603810190610553919061490f565b610ebc565b604051610565919061474b565b60405180910390f35b61058860048036038101906105839190614992565b610eea565b60405161059591906149cc565b60405180910390f35b6105a6610f07565b6040516105b391906149cc565b60405180910390f35b6105d660048036038101906105d191906149e5565b610f2b565b005b6105e0610f4d565b6040516105ed919061477c565b60405180910390f35b6105fe610f5c565b60405161060b9190614a3e565b60405180910390f35b61061c610f64565b604051610629919061477c565b60405180910390f35b61063a610f6a565b604051610647919061477c565b60405180910390f35b610658610f7a565b60405161066591906149cc565b60405180910390f35b610688600480360381019061068391906149e5565b610f88565b005b6106a4600480360381019061069f91906148a9565b611003565b6040516106b1919061477c565b60405180910390f35b6106c261107f565b6040516106cf9190614a93565b60405180910390f35b6106e06110b7565b005b6106fc60048036038101906106f791906148a9565b6110ec565b005b61071860048036038101906107139190614aac565b611185565b005b610734600480360381019061072f9190614ad7565b6111d4565b604051610741919061477c565b60405180910390f35b6107526111e9565b60405161075f9190614805565b60405180910390f35b610782600480360381019061077d9190614ad7565b61127d565b60405161078f91906148f6565b60405180910390f35b6107b260048036038101906107ad9190614ad7565b6112e2565b005b6107bc6112fb565b6040516107c9919061474b565b60405180910390f35b6107ec60048036038101906107e79190614ad7565b611310565b6040516107f9919061477c565b60405180910390f35b61081c60048036038101906108179190614aac565b611325565b005b61083860048036038101906108339190614c2e565b611486565b604051610845919061477c565b60405180910390f35b61086860048036038101906108639190614c75565b6114ad565b604051610875919061477c565b60405180910390f35b6108866114e5565b005b610890611500565b60405161089d91906149cc565b60405180910390f35b6108c060048036038101906108bb9190614ad7565b611524565b6040516108cd919061477c565b60405180910390f35b6108f060048036038101906108eb9190614aac565b611569565b005b61090c600480360381019061090791906148a9565b6116cc565b005b61092860048036038101906109239190614ad7565b611710565b604051610935919061477c565b60405180910390f35b610946611721565b604051610953919061477c565b60405180910390f35b610964611727565b005b61096e61175c565b6040516109819796959493929190614db1565b60405180910390f35b610992611801565b60405161099f919061477c565b60405180910390f35b6109c260048036038101906109bd9190614aac565b61180d565b6040516109cf919061477c565b60405180910390f35b6109f260048036038101906109ed91906149e5565b61184d565b6040516109ff919061474b565b60405180910390f35b610a106118b1565b604051610a1d9190614e53565b60405180910390f35b610a2e6118bf565b604051610a3b9190614805565b60405180910390f35b610a5e6004803603810190610a599190614ad7565b61194f565b005b610a7a6004803603810190610a759190614ad7565b61199f565b604051610a87919061477c565b60405180910390f35b610a98611a08565b604051610aa591906149cc565b60405180910390f35b610ac86004803603810190610ac391906148a9565b611a0e565b604051610ad5919061474b565b60405180910390f35b610af86004803603810190610af39190614e6c565b611a30565b005b610b146004803603810190610b0f9190614ad7565b611ae0565b604051610b21919061477c565b60405180910390f35b610b446004803603810190610b3f9190614c75565b611b39565b005b610b4e611f07565b604051610b5b919061477c565b60405180910390f35b610b7e6004803603810190610b799190614ef0565b611f14565b005b610b88611fd9565b604051610b95919061477c565b60405180910390f35b610bb86004803603810190610bb39190614f79565b611fe6565b005b610bc261212b565b604051610bcf91906149cc565b60405180910390f35b610bf26004803603810190610bed91906149e5565b61214f565b005b610bfc612171565b604051610c09919061477c565b60405180910390f35b610c2c6004803603810190610c279190614ad7565b61217d565b604051610c39919061477c565b60405180910390f35b610c4a612192565b604051610c57919061477c565b60405180910390f35b610c7a6004803603810190610c759190615016565b61219e565b604051610c87919061477c565b60405180910390f35b610c98612220565b005b610ca26122ce565b604051610caf91906149cc565b60405180910390f35b610cd26004803603810190610ccd9190615054565b6122f2565b005b610cdc6123a2565b604051610ce9919061477c565b60405180910390f35b610cfa6123a8565b604051610d07919061477c565b60405180910390f35b610d2a6004803603810190610d259190614c75565b6123b0565b604051610d37919061477c565b60405180910390f35b610d5a6004803603810190610d559190614c2e565b6123e8565b604051610d67919061477c565b60405180910390f35b610d78612415565b604051610d85919061477c565b60405180910390f35b610d96612421565b604051610da3919061477c565b60405180910390f35b5f610db68261242d565b9050919050565b670de0b6b3a764000081565b606060038054610dd8906150db565b80601f0160208091040260200160405190810160405280929190818152602001828054610e04906150db565b8015610e4f5780601f10610e2657610100808354040283529160200191610e4f565b820191905f5260205f20905b815481529060010190602001808311610e3257829003601f168201915b5050505050905090565b5f5f610e636124a6565b9050610e708185856124ad565b600191505092915050565b60145481565b5f600254905090565b6802b5e3af16b188000081565b600e5f9054906101000a900473ffffffffffffffffffffffffffffffffffffffff1681565b5f5f610ec66124a6565b9050610ed38582856124bf565b610ede858585612552565b60019150509392505050565b5f600b5f8381526020019081526020015f20600101549050919050565b7f3c11d16cbaffd01df69ce1c404f6340ee057498f5f00246190ea54220576a84881565b610f3482610eea565b610f3d81612642565b610f478383612656565b50505050565b6a52b7d2dcc80cd2e400000081565b5f6012905090565b60175481565b6b033b2e3c9fd0803ce800000081565b5f610f83612740565b905090565b610f906124a6565b73ffffffffffffffffffffffffffffffffffffffff168173ffffffffffffffffffffffffffffffffffffffff1614610ff4576040517f6697b23200000000000000000000000000000000000000000000000000000000815260040160405180910390fd5b610ffe82826127f6565b505050565b5f61105b611010836128e0565b60095f8673ffffffffffffffffffffffffffffffffffffffff1673ffffffffffffffffffffffffffffffffffffffff1681526020019081526020015f2061294b90919063ffffffff16565b79ffffffffffffffffffffffffffffffffffffffffffffffffffff16905092915050565b611087614688565b5f6040518060400160405280678ac7230489e800008152602001683635c9adc5dea0000081525090508091505090565b7f65d7a28e3265b37a6474929f336521b332c1681b933f6cb9f3376673440d862a6110e181612642565b6110e9612a3b565b50565b7f9f2df0fed2c77648de5860a4cc508cd0818c85b8b8a1ab4ceeef8d981c8956a661111681612642565b61111e612a9c565b6b033b2e3c9fd0803ce800000082611134610e81565b61113e9190615138565b1115611176576040517fc30436e900000000000000000000000000000000000000000000000000000000815260040160405180910390fd5b6111808383612ae6565b505050565b8061118f33611524565b10156111c7576040517ff4d678b800000000000000000000000000000000000000000000000000000000815260040160405180910390fd5b6111d13382612b65565b50565b6015602052805f5260405f205f915090505481565b60606111f3612be4565b65ffffffffffff166112036118b1565b65ffffffffffff1614611242576040517f6ff0714000000000000000000000000000000000000000000000000000000000815260040160405180910390fd5b6040518060400160405280601d81526020017f6d6f64653d626c6f636b6e756d6265722666726f6d3d64656661756c74000000815250905090565b5f60085f8373ffffffffffffffffffffffffffffffffffffffff1673ffffffffffffffffffffffffffffffffffffffff1681526020019081526020015f205f9054906101000a900473ffffffffffffffffffffffffffffffffffffffff169050919050565b5f6112eb6124a6565b90506112f78183612bf3565b5050565b5f600c5f9054906101000a900460ff16905090565b6012602052805f5260405f205f915090505481565b61132d612c01565b5f81148061137757508060125f3373ffffffffffffffffffffffffffffffffffffffff1673ffffffffffffffffffffffffffffffffffffffff1681526020019081526020015f2054105b156113ae576040517ff4d678b800000000000000000000000000000000000000000000000000000000815260040160405180910390fd5b6113b733612c50565b8060125f3373ffffffffffffffffffffffffffffffffffffffff1673ffffffffffffffffffffffffffffffffffffffff1681526020019081526020015f205f828254611403919061516b565b925050819055508060135f82825461141b919061516b565b9250508190555061142d303383612552565b3373ffffffffffffffffffffffffffffffffffffffff167f9845e367b683334e5c0b12d7b81721ac518e649376fa65e3d68324e8f34f267982604051611473919061477c565b60405180910390a2611483612e4b565b50565b5f600f8260405161149791906151d8565b9081526020016040518091039020549050919050565b6010602052815f5260405f20818051602081018201805184825260208301602085012081835280955050505050505f91509150505481565b6114ed612c01565b6114f633612c50565b6114fe612e4b565b565b7f0f51adb3f49e4a9bbb17b3783f025995eaf8c24be2c8eefff214bdfda05ef94d81565b5f5f5f8373ffffffffffffffffffffffffffffffffffffffff1673ffffffffffffffffffffffffffffffffffffffff1681526020019081526020015f20549050919050565b611571612c01565b611579612a9c565b5f81036115b2576040517ff4d678b800000000000000000000000000000000000000000000000000000000815260040160405180910390fd5b806115bc33611524565b10156115f4576040517ff4d678b800000000000000000000000000000000000000000000000000000000815260040160405180910390fd5b6115fd33612c50565b611608333083612552565b8060125f3373ffffffffffffffffffffffffffffffffffffffff1673ffffffffffffffffffffffffffffffffffffffff1681526020019081526020015f205f8282546116549190615138565b925050819055508060135f82825461166c9190615138565b925050819055503373ffffffffffffffffffffffffffffffffffffffff167fb539ca1e5c8d398ddf1c41c30166f33404941683be4683319b57669a93dad4ef826040516116b9919061477c565b60405180910390a26116c9612e4b565b50565b7f3c11d16cbaffd01df69ce1c404f6340ee057498f5f00246190ea54220576a8486116f681612642565b6117018333846124bf565b61170b8383612b65565b505050565b5f61171a82612e55565b9050919050565b60135481565b7f65d7a28e3265b37a6474929f336521b332c1681b933f6cb9f3376673440d862a61175181612642565b611759612e66565b50565b5f6060805f5f5f606061176d612ec8565b611775612f03565b46305f5f1b5f67ffffffffffffffff81111561179457611793614b0a565b5b6040519080825280602002602001820160405280156117c25781602001602082028036833780820191505090505b507f0f00000000000000000000000000000000000000000000000000000000000000959493929190965096509650965096509650965090919293949596565b678ac7230489e8000081565b5f61182a61181a836128e0565b600a61294b90919063ffffffff16565b79ffffffffffffffffffffffffffffffffffffffffffffffffffff169050919050565b5f600b5f8481526020019081526020015f205f015f8373ffffffffffffffffffffffffffffffffffffffff1673ffffffffffffffffffffffffffffffffffffffff1681526020019081526020015f205f9054906101000a900460ff16905092915050565b5f6118ba612be4565b905090565b6060600480546118ce906150db565b80601f01602080910402602001604051908101604052809291908181526020018280546118fa906150db565b80156119455780601f1061191c57610100808354040283529160200191611945565b820191905f5260205f20905b81548152906001019060200180831161192857829003601f168201915b5050505050905090565b5f5f1b61195b81612642565b81600e5f6101000a81548173ffffffffffffffffffffffffffffffffffffffff021916908373ffffffffffffffffffffffffffffffffffffffff1602179055505050565b5f6119e560095f8473ffffffffffffffffffffffffffffffffffffffff1673ffffffffffffffffffffffffffffffffffffffff1681526020019081526020015f20612f3e565b79ffffffffffffffffffffffffffffffffffffffffffffffffffff169050919050565b5f5f1b81565b5f5f611a186124a6565b9050611a25818585612552565b600191505092915050565b7f0f51adb3f49e4a9bbb17b3783f025995eaf8c24be2c8eefff214bdfda05ef94d611a5a81612642565b5f600f84604051611a6b91906151d8565b908152602001604051809103902054905082600f85604051611a8d91906151d8565b9081526020016040518091039020819055507ffe018eb82a0d14a29f8608883823f09c51d1924ca236b965faa558c727262882848285604051611ad2939291906151ee565b60405180910390a150505050565b5f60125f8373ffffffffffffffffffffffffffffffffffffffff1673ffffffffffffffffffffffffffffffffffffffff1681526020019081526020015f2054611b288361199f565b611b329190615138565b9050919050565b7f0f51adb3f49e4a9bbb17b3783f025995eaf8c24be2c8eefff214bdfda05ef94d611b6381612642565b611b6b612c01565b5f825103611ba5576040517fb3d4eb0200000000000000000000000000000000000000000000000000000000815260040160405180910390fd5b5f600f83604051611bb691906151d8565b90815260200160405180910390205490505f8103611c00576040517fb3d4eb0200000000000000000000000000000000000000000000000000000000815260040160405180910390fd5b5f83611c196201518042611c149190615257565b612fa0565b604051602001611c2a9291906152d1565b60405160208183030381529060405290505f60115f8773ffffffffffffffffffffffffffffffffffffffff1673ffffffffffffffffffffffffffffffffffffffff1681526020019081526020015f2082604051611c8791906151d8565b90815260200160405180910390205414611ccd576040517fb3f8c0dc00000000000000000000000000000000000000000000000000000000815260040160405180910390fd5b5f60105f8773ffffffffffffffffffffffffffffffffffffffff1673ffffffffffffffffffffffffffffffffffffffff1681526020019081526020015f2085604051611d1991906151d8565b9081526020016040518091039020549050600a811115611d53576064603284611d4291906152ff565b611d4c9190615257565b9250611d79565b6005811115611d78576064604b84611d6b91906152ff565b611d759190615257565b92505b5b6b033b2e3c9fd0803ce800000083611d8f610e81565b611d999190615138565b1115611dd1576040517fc30436e900000000000000000000000000000000000000000000000000000000815260040160405180910390fd5b60105f8773ffffffffffffffffffffffffffffffffffffffff1673ffffffffffffffffffffffffffffffffffffffff1681526020019081526020015f2085604051611e1c91906151d8565b90815260200160405180910390205f815480929190611e3a90615340565b91905055504260115f8873ffffffffffffffffffffffffffffffffffffffff1673ffffffffffffffffffffffffffffffffffffffff1681526020019081526020015f2083604051611e8b91906151d8565b908152602001604051809103902081905550611ea78684612ae6565b8573ffffffffffffffffffffffffffffffffffffffff167ffc68236754f28d2489a2cbeecdb68e69b7bb23d50868d22e11b1b8a4a951e9b88685604051611eef929190615387565b60405180910390a2505050611f02612e4b565b505050565b683635c9adc5dea0000081565b83421115611f5957836040517f4683af0e000000000000000000000000000000000000000000000000000000008152600401611f50919061477c565b60405180910390fd5b5f611fba611fb27fe48329057bfd03d55e49b547132e39cffd9c1820ad7b9d4c5307691425d15adf898989604051602001611f9794939291906153b5565b6040516020818303038152906040528051906020012061306a565b858585613083565b9050611fc681876130b1565b611fd08188612bf3565b50505050505050565b6801158e460913d0000081565b8342111561202b57836040517f62791302000000000000000000000000000000000000000000000000000000008152600401612022919061477c565b60405180910390fd5b5f7f6e71edae12b1b97f4d1f60370fef10105fa2faae0126114a169c64845d6126c98888886120598c613108565b8960405160200161206f969594939291906153f8565b6040516020818303038152906040528051906020012090505f6120918261306a565b90505f6120a082878787613083565b90508973ffffffffffffffffffffffffffffffffffffffff168173ffffffffffffffffffffffffffffffffffffffff161461211457808a6040517f4b800e4600000000000000000000000000000000000000000000000000000000815260040161210b929190615457565b60405180910390fd5b61211f8a8a8a6124ad565b50505050505050505050565b7f9f2df0fed2c77648de5860a4cc508cd0818c85b8b8a1ab4ceeef8d981c8956a681565b61215882610eea565b61216181612642565b61216b83836127f6565b50505050565b674563918244f4000081565b6016602052805f5260405f205f915090505481565b678ac7230489e8000081565b5f60015f8473ffffffffffffffffffffffffffffffffffffffff1673ffffffffffffffffffffffffffffffffffffffff1681526020019081526020015f205f8373ffffffffffffffffffffffffffffffffffffffff1673ffffffffffffffffffffffffffffffffffffffff1681526020019081526020015f2054905092915050565b6301e133806018546122329190615138565b42101561226b576040517fea8e4eb500000000000000000000000000000000000000000000000000000000815260040160405180910390fd5b6064605a60175461227c91906152ff565b6122869190615257565b601781905550426018819055507f50fe4bda021fc9f7a9db1a82a053d8305b36b0b4307257411748c8ef1a68d0d46017546040516122c4919061477c565b60405180910390a1565b7f65d7a28e3265b37a6474929f336521b332c1681b933f6cb9f3376673440d862a81565b6122fa612c01565b8161230433611524565b101561233c576040517ff4d678b800000000000000000000000000000000000000000000000000000000815260040160405180910390fd5b6123463383612b65565b3373ffffffffffffffffffffffffffffffffffffffff167f3e3d11fed2579ab23676d30f4893a503a2a74a2d3610026a21a83c39e2a85e2e838360405161238e92919061547e565b60405180910390a261239e612e4b565b5050565b60185481565b6301e1338081565b6011602052815f5260405f20818051602081018201805184825260208301602085012081835280955050505050505f91509150505481565b600f818051602081018201805184825260208301602085012081835280955050505050505f915090505481565b670de0b6b3a764000081565b670de0b6b3a764000081565b5f7f7965db0b000000000000000000000000000000000000000000000000000000007bffffffffffffffffffffffffffffffffffffffffffffffffffffffff1916827bffffffffffffffffffffffffffffffffffffffffffffffffffffffff1916148061249f575061249e8261315b565b5b9050919050565b5f33905090565b6124ba83838360016131c4565b505050565b5f6124ca848461219e565b90507fffffffffffffffffffffffffffffffffffffffffffffffffffffffffffffffff81101561254c578181101561253d578281836040517ffb8f41b2000000000000000000000000000000000000000000000000000000008152600401612534939291906154ac565b60405180910390fd5b61254b84848484035f6131c4565b5b50505050565b5f73ffffffffffffffffffffffffffffffffffffffff168373ffffffffffffffffffffffffffffffffffffffff16036125c2575f6040517f96c6fd1e0000000000000000000000000000000000000000000000000000000081526004016125b991906148f6565b60405180910390fd5b5f73ffffffffffffffffffffffffffffffffffffffff168273ffffffffffffffffffffffffffffffffffffffff1603612632575f6040517fec442f0500000000000000000000000000000000000000000000000000000000815260040161262991906148f6565b60405180910390fd5b61263d838383613393565b505050565b6126538161264e6124a6565b6135ac565b50565b5f612661838361184d565b612736576001600b5f8581526020019081526020015f205f015f8473ffffffffffffffffffffffffffffffffffffffff1673ffffffffffffffffffffffffffffffffffffffff1681526020019081526020015f205f6101000a81548160ff0219169083151502179055506126d36124a6565b73ffffffffffffffffffffffffffffffffffffffff168273ffffffffffffffffffffffffffffffffffffffff16847f2f8788117e7eff1d82e926ec794901d17c78024a50270940304540a733656f0d60405160405180910390a46001905061273a565b5f90505b92915050565b5f7f000000000000000000000000000000000000000000000000000000000000000073ffffffffffffffffffffffffffffffffffffffff163073ffffffffffffffffffffffffffffffffffffffff161480156127bb57507f000000000000000000000000000000000000000000000000000000000000000046145b156127e8577f000000000000000000000000000000000000000000000000000000000000000090506127f3565b6127f06135fd565b90505b90565b5f612801838361184d565b156128d6575f600b5f8581526020019081526020015f205f015f8473ffffffffffffffffffffffffffffffffffffffff1673ffffffffffffffffffffffffffffffffffffffff1681526020019081526020015f205f6101000a81548160ff0219169083151502179055506128736124a6565b73ffffffffffffffffffffffffffffffffffffffff168273ffffffffffffffffffffffffffffffffffffffff16847ff6391f5c32d9c69d2a47ea670b442974b53935d1edc7fd64eb21e047a839171b60405160405180910390a4600190506128da565b5f90505b92915050565b5f5f6128ea6118b1565b90508065ffffffffffff16831061293a5782816040517fecd3f81e0000000000000000000000000000000000000000000000000000000081526004016129319291906154e1565b60405180910390fd5b61294383613692565b915050919050565b5f5f835f018054905090505f5f90505f82905060058311156129cf575f612971846136eb565b8461297c919061516b565b905061298a875f0182613885565b5f015f9054906101000a900465ffffffffffff1665ffffffffffff168665ffffffffffff1610156129bd578091506129cd565b6001816129ca9190615138565b92505b505b5f6129de875f01878585613897565b90505f8114612a2d576129ff875f016001836129fa919061516b565b613885565b5f0160069054906101000a900479ffffffffffffffffffffffffffffffffffffffffffffffffffff16612a2f565b5f5b94505050505092915050565b612a4361390c565b5f600c5f6101000a81548160ff0219169083151502179055507f5db9ee0a495bf2e6ff9c91a7834c1ba4fdd244a5e8aa4e537bd38aeae4b073aa612a856124a6565b604051612a9291906148f6565b60405180910390a1565b612aa46112fb565b15612ae4576040517f08c379a0000000000000000000000000000000000000000000000000000000008152600401612adb90615552565b60405180910390fd5b565b5f73ffffffffffffffffffffffffffffffffffffffff168273ffffffffffffffffffffffffffffffffffffffff1603612b56575f6040517fec442f05000000000000000000000000000000000000000000000000000000008152600401612b4d91906148f6565b60405180910390fd5b612b615f8383613393565b5050565b5f73ffffffffffffffffffffffffffffffffffffffff168273ffffffffffffffffffffffffffffffffffffffff1603612bd5575f6040517f96c6fd1e000000000000000000000000000000000000000000000000000000008152600401612bcc91906148f6565b60405180910390fd5b612be0825f83613393565b5050565b5f612bee43613692565b905090565b612bfd8282613955565b5050565b6002600d5403612c46576040517f08c379a0000000000000000000000000000000000000000000000000000000008152600401612c3d906155ba565b60405180910390fd5b6002600d81905550565b5f60125f8373ffffffffffffffffffffffffffffffffffffffff1673ffffffffffffffffffffffffffffffffffffffff1681526020019081526020015f205490505f8103612c9e5750612e48565b5f60165f8473ffffffffffffffffffffffffffffffffffffffff1673ffffffffffffffffffffffffffffffffffffffff1681526020019081526020015f205442612ce8919061516b565b90505f8103612cf8575050612e48565b5f64496cebb8008260145485612d0e91906152ff565b612d1891906152ff565b612d229190615257565b90505f81118015612d5157506b033b2e3c9fd0803ce800000081612d44610e81565b612d4e9190615138565b11155b15612e4457612d608482612ae6565b8060155f8673ffffffffffffffffffffffffffffffffffffffff1673ffffffffffffffffffffffffffffffffffffffff1681526020019081526020015f205f828254612dac9190615138565b925050819055504260165f8673ffffffffffffffffffffffffffffffffffffffff1673ffffffffffffffffffffffffffffffffffffffff1681526020019081526020015f20819055508373ffffffffffffffffffffffffffffffffffffffff167fc727c17294ad4f040bec78be22159f993ffb0f22f4dfced8daeafc1ec2608a4c82604051612e3b919061477c565b60405180910390a25b5050505b50565b6001600d81905550565b5f612e5f82613a65565b9050919050565b612e6e612a9c565b6001600c5f6101000a81548160ff0219169083151502179055507f62e78cea01bee320cd4e420270b5ea74000d11b0c9f74754ebdbfc544b05a258612eb16124a6565b604051612ebe91906148f6565b60405180910390a1565b6060612efe60057f0000000000000000000000000000000000000000000000000000000000000000613aab90919063ffffffff16565b905090565b6060612f3960067f0000000000000000000000000000000000000000000000000000000000000000613aab90919063ffffffff16565b905090565b5f5f825f018054905090505f8114612f9657612f68835f01600183612f63919061516b565b613885565b5f0160069054906101000a900479ffffffffffffffffffffffffffffffffffffffffffffffffffff16612f98565b5f5b915050919050565b60605f6001612fae84613b58565b0190505f8167ffffffffffffffff811115612fcc57612fcb614b0a565b5b6040519080825280601f01601f191660200182016040528015612ffe5781602001600182028036833780820191505090505b5090505f82602001820190505b60011561305f578080600190039150507f3031323334353637383961626364656600000000000000000000000000000000600a86061a8153600a85816130545761305361522a565b5b0494505f850361300b575b819350505050919050565b5f61307c613076612740565b83613ca9565b9050919050565b5f5f5f5f61309388888888613ce9565b9250925092506130a38282613dd0565b829350505050949350505050565b5f6130bb83613108565b90508082146131035782816040517f752d88c00000000000000000000000000000000000000000000000000000000081526004016130fa9291906155d8565b60405180910390fd5b505050565b5f60075f8373ffffffffffffffffffffffffffffffffffffffff1673ffffffffffffffffffffffffffffffffffffffff1681526020019081526020015f205f815480929190600101919050559050919050565b5f7f01ffc9a7000000000000000000000000000000000000000000000000000000007bffffffffffffffffffffffffffffffffffffffffffffffffffffffff1916827bffffffffffffffffffffffffffffffffffffffffffffffffffffffff1916149050919050565b5f73ffffffffffffffffffffffffffffffffffffffff168473ffffffffffffffffffffffffffffffffffffffff1603613234575f6040517fe602df0500000000000000000000000000000000000000000000000000000000815260040161322b91906148f6565b60405180910390fd5b5f73ffffffffffffffffffffffffffffffffffffffff168373ffffffffffffffffffffffffffffffffffffffff16036132a4575f6040517f94280d6200000000000000000000000000000000000000000000000000000000815260040161329b91906148f6565b60405180910390fd5b8160015f8673ffffffffffffffffffffffffffffffffffffffff1673ffffffffffffffffffffffffffffffffffffffff1681526020019081526020015f205f8573ffffffffffffffffffffffffffffffffffffffff1673ffffffffffffffffffffffffffffffffffffffff1681526020019081526020015f2081905550801561338d578273ffffffffffffffffffffffffffffffffffffffff168473ffffffffffffffffffffffffffffffffffffffff167f8c5be1e5ebec7d5bd14f71427d1e84f3dd0314c0f7b2291e5b200ac8c7c3b92584604051613384919061477c565b60405180910390a35b50505050565b5f73ffffffffffffffffffffffffffffffffffffffff168373ffffffffffffffffffffffffffffffffffffffff16036133e3578060025f8282546133d79190615138565b925050819055506134b1565b5f5f5f8573ffffffffffffffffffffffffffffffffffffffff1673ffffffffffffffffffffffffffffffffffffffff1681526020019081526020015f205490508181101561346c578381836040517fe450d38c000000000000000000000000000000000000000000000000000000008152600401613463939291906154ac565b60405180910390fd5b8181035f5f8673ffffffffffffffffffffffffffffffffffffffff1673ffffffffffffffffffffffffffffffffffffffff1681526020019081526020015f2081905550505b5f73ffffffffffffffffffffffffffffffffffffffff168273ffffffffffffffffffffffffffffffffffffffff16036134f8578060025f8282540392505081905550613542565b805f5f8473ffffffffffffffffffffffffffffffffffffffff1673ffffffffffffffffffffffffffffffffffffffff1681526020019081526020015f205f82825401925050819055505b8173ffffffffffffffffffffffffffffffffffffffff168373ffffffffffffffffffffffffffffffffffffffff167fddf252ad1be2c89b69c2b068fc378daa952ba7f163c4a11628f55a4df523b3ef8360405161359f919061477c565b60405180910390a3505050565b6135b6828261184d565b6135f95780826040517fe2517d3f0000000000000000000000000000000000000000000000000000000081526004016135f09291906155ff565b60405180910390fd5b5050565b5f7f8b73c3c69bb8fe3d512ecc4cf759cc79239f7b179b0ffacaa9a75d522b39400f7f00000000000000000000000000000000000000000000000000000000000000007f00000000000000000000000000000000000000000000000000000000000000004630604051602001613677959493929190615626565b60405160208183030381529060405280519060200120905090565b5f65ffffffffffff80168211156136e3576030826040517f6dfcc6500000000000000000000000000000000000000000000000000000000081526004016136da9291906156b9565b60405180910390fd5b819050919050565b5f600182116136fc57819050613880565b5f8290505f60019050700100000000000000000000000000000000821061372c57608082901c9150604081901b90505b68010000000000000000821061374b57604082901c9150602081901b90505b640100000000821061376657602082901c9150601081901b90505b62010000821061377f57601082901c9150600881901b90505b610100821061379757600882901c9150600481901b90505b601082106137ae57600482901c9150600281901b90505b600482106137be57600181901b90505b600181600302901c905060018185816137da576137d961522a565b5b048201901c905060018185816137f3576137f261522a565b5b048201901c9050600181858161380c5761380b61522a565b5b048201901c905060018185816138255761382461522a565b5b048201901c9050600181858161383e5761383d61522a565b5b048201901c905060018185816138575761385661522a565b5b048201901c90506138798185816138715761387061522a565b5b048211613f32565b8103925050505b919050565b5f825f528160205f2001905092915050565b5f5b81831015613901575f6138ac8484613f3d565b90508465ffffffffffff166138c18783613885565b5f015f9054906101000a900465ffffffffffff1665ffffffffffff1611156138eb578092506138fb565b6001816138f89190615138565b93505b50613899565b819050949350505050565b6139146112fb565b613953576040517f08c379a000000000000000000000000000000000000000000000000000000000815260040161394a9061572a565b60405180910390fd5b565b5f61395f8361127d565b90508160085f8573ffffffffffffffffffffffffffffffffffffffff1673ffffffffffffffffffffffffffffffffffffffff1681526020019081526020015f205f6101000a81548173ffffffffffffffffffffffffffffffffffffffff021916908373ffffffffffffffffffffffffffffffffffffffff1602179055508173ffffffffffffffffffffffffffffffffffffffff168173ffffffffffffffffffffffffffffffffffffffff168473ffffffffffffffffffffffffffffffffffffffff167f3134e8a2e6d97e929a7e54011ea5485d7d196dd5f0ba4d4ef95803e8e3fc257f60405160405180910390a4613a608183613a5b86613f62565b613f73565b505050565b5f60075f8373ffffffffffffffffffffffffffffffffffffffff1673ffffffffffffffffffffffffffffffffffffffff1681526020019081526020015f20549050919050565b606060ff5f1b8314613ac757613ac0836141e3565b9050613b52565b818054613ad3906150db565b80601f0160208091040260200160405190810160405280929190818152602001828054613aff906150db565b8015613b4a5780601f10613b2157610100808354040283529160200191613b4a565b820191905f5260205f20905b815481529060010190602001808311613b2d57829003601f168201915b505050505090505b92915050565b5f5f5f90507a184f03e93ff9f4daa797ed6e38ed64bf6a1f0100000000000000008310613bb4577a184f03e93ff9f4daa797ed6e38ed64bf6a1f0100000000000000008381613baa57613ba961522a565b5b0492506040810190505b6d04ee2d6d415b85acef81000000008310613bf1576d04ee2d6d415b85acef81000000008381613be757613be661522a565b5b0492506020810190505b662386f26fc100008310613c2057662386f26fc100008381613c1657613c1561522a565b5b0492506010810190505b6305f5e1008310613c49576305f5e1008381613c3f57613c3e61522a565b5b0492506008810190505b6127108310613c6e576127108381613c6457613c6361522a565b5b0492506004810190505b60648310613c915760648381613c8757613c8661522a565b5b0492506002810190505b600a8310613ca0576001810190505b80915050919050565b5f6040517f190100000000000000000000000000000000000000000000000000000000000081528360028201528260228201526042812091505092915050565b5f5f5f7f7fffffffffffffffffffffffffffffff5d576e7357a4501ddfe92f46681b20a0845f1c1115613d25575f600385925092509250613dc6565b5f6001888888886040515f8152602001604052604051613d489493929190615748565b6020604051602081039080840390855afa158015613d68573d5f5f3e3d5ffd5b5050506020604051035190505f73ffffffffffffffffffffffffffffffffffffffff168173ffffffffffffffffffffffffffffffffffffffff1603613db9575f60015f5f1b93509350935050613dc6565b805f5f5f1b935093509350505b9450945094915050565b5f6003811115613de357613de261578b565b5b826003811115613df657613df561578b565b5b0315613f2e5760016003811115613e1057613e0f61578b565b5b826003811115613e2357613e2261578b565b5b03613e5a576040517ff645eedf00000000000000000000000000000000000000000000000000000000815260040160405180910390fd5b60026003811115613e6e57613e6d61578b565b5b826003811115613e8157613e8061578b565b5b03613ec557805f1c6040517ffce698f7000000000000000000000000000000000000000000000000000000008152600401613ebc919061477c565b60405180910390fd5b600380811115613ed857613ed761578b565b5b826003811115613eeb57613eea61578b565b5b03613f2d57806040517fd78bce0c000000000000000000000000000000000000000000000000000000008152600401613f2491906149cc565b60405180910390fd5b5b5050565b5f8115159050919050565b5f6002828418613f4d9190615257565b828416613f5a9190615138565b905092915050565b5f613f6c82611524565b9050919050565b8173ffffffffffffffffffffffffffffffffffffffff168373ffffffffffffffffffffffffffffffffffffffff1614158015613fae57505f81115b156141de575f73ffffffffffffffffffffffffffffffffffffffff168373ffffffffffffffffffffffffffffffffffffffff16146140c8575f5f61403960095f8773ffffffffffffffffffffffffffffffffffffffff1673ffffffffffffffffffffffffffffffffffffffff1681526020019081526020015f206142556140348661426a565b6142d7565b79ffffffffffffffffffffffffffffffffffffffffffffffffffff16915079ffffffffffffffffffffffffffffffffffffffffffffffffffff1691508473ffffffffffffffffffffffffffffffffffffffff167fdec2bacdd2f05b59de34da9b523dff8be42e5e38e818c82fdb0bae774387a72483836040516140bd9291906157b8565b60405180910390a250505b5f73ffffffffffffffffffffffffffffffffffffffff168273ffffffffffffffffffffffffffffffffffffffff16146141dd575f5f61414e60095f8673ffffffffffffffffffffffffffffffffffffffff1673ffffffffffffffffffffffffffffffffffffffff1681526020019081526020015f206143166141498661426a565b6142d7565b79ffffffffffffffffffffffffffffffffffffffffffffffffffff16915079ffffffffffffffffffffffffffffffffffffffffffffffffffff1691508373ffffffffffffffffffffffffffffffffffffffff167fdec2bacdd2f05b59de34da9b523dff8be42e5e38e818c82fdb0bae774387a72483836040516141d29291906157b8565b60405180910390a250505b5b505050565b60605f6141ef8361432b565b90505f602067ffffffffffffffff81111561420d5761420c614b0a565b5b6040519080825280601f01601f19166020018201604052801561423f5781602001600182028036833780820191505090505b5090508181528360208201528092505050919050565b5f81836142629190615804565b905092915050565b5f79ffffffffffffffffffffffffffffffffffffffffffffffffffff80168211156142cf5760d0826040517f6dfcc6500000000000000000000000000000000000000000000000000000000081526004016142c692919061588a565b60405180910390fd5b819050919050565b5f5f61430a6142e46118b1565b6142fa6142f088612f3e565b868863ffffffff16565b876143799092919063ffffffff16565b91509150935093915050565b5f818361432391906158b1565b905092915050565b5f5f60ff835f1c169050601f811115614370576040517fb3512b0c00000000000000000000000000000000000000000000000000000000815260040160405180910390fd5b80915050919050565b5f5f614388855f018585614394565b91509150935093915050565b5f5f5f858054905090505f8111156145a0575f6143bd876001846143b8919061516b565b613885565b90505f815f015f9054906101000a900465ffffffffffff1690505f825f0160069054906101000a900479ffffffffffffffffffffffffffffffffffffffffffffffffffff1690508765ffffffffffff168265ffffffffffff16111561444e576040517f2520601d00000000000000000000000000000000000000000000000000000000815260040160405180910390fd5b8765ffffffffffff168265ffffffffffff16036144b85786835f0160066101000a81548179ffffffffffffffffffffffffffffffffffffffffffffffffffff021916908379ffffffffffffffffffffffffffffffffffffffffffffffffffff160217905550614591565b8860405180604001604052808a65ffffffffffff1681526020018979ffffffffffffffffffffffffffffffffffffffffffffffffffff16815250908060018154018082558091505060019003905f5260205f20015f909190919091505f820151815f015f6101000a81548165ffffffffffff021916908365ffffffffffff1602179055506020820151815f0160066101000a81548179ffffffffffffffffffffffffffffffffffffffffffffffffffff021916908379ffffffffffffffffffffffffffffffffffffffffffffffffffff16021790555050505b80879550955050505050614680565b8560405180604001604052808765ffffffffffff1681526020018679ffffffffffffffffffffffffffffffffffffffffffffffffffff16815250908060018154018082558091505060019003905f5260205f20015f909190919091505f820151815f015f6101000a81548165ffffffffffff021916908365ffffffffffff1602179055506020820151815f0160066101000a81548179ffffffffffffffffffffffffffffffffffffffffffffffffffff021916908379ffffffffffffffffffffffffffffffffffffffffffffffffffff16021790555050505f8492509250505b935093915050565b60405180604001604052805f81526020015f81525090565b5f604051905090565b5f5ffd5b5f5ffd5b5f7fffffffff0000000000000000000000000000000000000000000000000000000082169050919050565b6146e5816146b1565b81146146ef575f5ffd5b50565b5f81359050614700816146dc565b92915050565b5f6020828403121561471b5761471a6146a9565b5b5f614728848285016146f2565b91505092915050565b5f8115159050919050565b61474581614731565b82525050565b5f60208201905061475e5f83018461473c565b92915050565b5f819050919050565b61477681614764565b82525050565b5f60208201905061478f5f83018461476d565b92915050565b5f81519050919050565b5f82825260208201905092915050565b8281835e5f83830152505050565b5f601f19601f8301169050919050565b5f6147d782614795565b6147e1818561479f565b93506147f18185602086016147af565b6147fa816147bd565b840191505092915050565b5f6020820190508181035f83015261481d81846147cd565b905092915050565b5f73ffffffffffffffffffffffffffffffffffffffff82169050919050565b5f61484e82614825565b9050919050565b61485e81614844565b8114614868575f5ffd5b50565b5f8135905061487981614855565b92915050565b61488881614764565b8114614892575f5ffd5b50565b5f813590506148a38161487f565b92915050565b5f5f604083850312156148bf576148be6146a9565b5b5f6148cc8582860161486b565b92505060206148dd85828601614895565b9150509250929050565b6148f081614844565b82525050565b5f6020820190506149095f8301846148e7565b92915050565b5f5f5f60608486031215614926576149256146a9565b5b5f6149338682870161486b565b93505060206149448682870161486b565b925050604061495586828701614895565b9150509250925092565b5f819050919050565b6149718161495f565b811461497b575f5ffd5b50565b5f8135905061498c81614968565b92915050565b5f602082840312156149a7576149a66146a9565b5b5f6149b48482850161497e565b91505092915050565b6149c68161495f565b82525050565b5f6020820190506149df5f8301846149bd565b92915050565b5f5f604083850312156149fb576149fa6146a9565b5b5f614a088582860161497e565b9250506020614a198582860161486b565b9150509250929050565b5f60ff82169050919050565b614a3881614a23565b82525050565b5f602082019050614a515f830184614a2f565b92915050565b614a6081614764565b82525050565b604082015f820151614a7a5f850182614a57565b506020820151614a8d6020850182614a57565b50505050565b5f604082019050614aa65f830184614a66565b92915050565b5f60208284031215614ac157614ac06146a9565b5b5f614ace84828501614895565b91505092915050565b5f60208284031215614aec57614aeb6146a9565b5b5f614af98482850161486b565b91505092915050565b5f5ffd5b5f5ffd5b7f4e487b71000000000000000000000000000000000000000000000000000000005f52604160045260245ffd5b614b40826147bd565b810181811067ffffffffffffffff82111715614b5f57614b5e614b0a565b5b80604052505050565b5f614b716146a0565b9050614b7d8282614b37565b919050565b5f67ffffffffffffffff821115614b9c57614b9b614b0a565b5b614ba5826147bd565b9050602081019050919050565b828183375f83830152505050565b5f614bd2614bcd84614b82565b614b68565b905082815260208101848484011115614bee57614bed614b06565b5b614bf9848285614bb2565b509392505050565b5f82601f830112614c1557614c14614b02565b5b8135614c25848260208601614bc0565b91505092915050565b5f60208284031215614c4357614c426146a9565b5b5f82013567ffffffffffffffff811115614c6057614c5f6146ad565b5b614c6c84828501614c01565b91505092915050565b5f5f60408385031215614c8b57614c8a6146a9565b5b5f614c988582860161486b565b925050602083013567ffffffffffffffff811115614cb957614cb86146ad565b5b614cc585828601614c01565b9150509250929050565b5f7fff0000000000000000000000000000000000000000000000000000000000000082169050919050565b614d0381614ccf565b82525050565b5f81519050919050565b5f82825260208201905092915050565b5f819050602082019050919050565b5f614d3d8383614a57565b60208301905092915050565b5f602082019050919050565b5f614d5f82614d09565b614d698185614d13565b9350614d7483614d23565b805f5b83811015614da4578151614d8b8882614d32565b9750614d9683614d49565b925050600181019050614d77565b5085935050505092915050565b5f60e082019050614dc45f83018a614cfa565b8181036020830152614dd681896147cd565b90508181036040830152614dea81886147cd565b9050614df9606083018761476d565b614e0660808301866148e7565b614e1360a08301856149bd565b81810360c0830152614e258184614d55565b905098975050505050505050565b5f65ffffffffffff82169050919050565b614e4d81614e33565b82525050565b5f602082019050614e665f830184614e44565b92915050565b5f5f60408385031215614e8257614e816146a9565b5b5f83013567ffffffffffffffff811115614e9f57614e9e6146ad565b5b614eab85828601614c01565b9250506020614ebc85828601614895565b9150509250929050565b614ecf81614a23565b8114614ed9575f5ffd5b50565b5f81359050614eea81614ec6565b92915050565b5f5f5f5f5f5f60c08789031215614f0a57614f096146a9565b5b5f614f1789828a0161486b565b9650506020614f2889828a01614895565b9550506040614f3989828a01614895565b9450506060614f4a89828a01614edc565b9350506080614f5b89828a0161497e565b92505060a0614f6c89828a0161497e565b9150509295509295509295565b5f5f5f5f5f5f5f60e0888a031215614f9457614f936146a9565b5b5f614fa18a828b0161486b565b9750506020614fb28a828b0161486b565b9650506040614fc38a828b01614895565b9550506060614fd48a828b01614895565b9450506080614fe58a828b01614edc565b93505060a0614ff68a828b0161497e565b92505060c06150078a828b0161497e565b91505092959891949750929550565b5f5f6040838503121561502c5761502b6146a9565b5b5f6150398582860161486b565b925050602061504a8582860161486b565b9150509250929050565b5f5f6040838503121561506a576150696146a9565b5b5f61507785828601614895565b925050602083013567ffffffffffffffff811115615098576150976146ad565b5b6150a485828601614c01565b9150509250929050565b7f4e487b71000000000000000000000000000000000000000000000000000000005f52602260045260245ffd5b5f60028204905060018216806150f257607f821691505b602082108103615105576151046150ae565b5b50919050565b7f4e487b71000000000000000000000000000000000000000000000000000000005f52601160045260245ffd5b5f61514282614764565b915061514d83614764565b92508282019050808211156151655761516461510b565b5b92915050565b5f61517582614764565b915061518083614764565b92508282039050818111156151985761519761510b565b5b92915050565b5f81905092915050565b5f6151b282614795565b6151bc818561519e565b93506151cc8185602086016147af565b80840191505092915050565b5f6151e382846151a8565b915081905092915050565b5f6060820190508181035f83015261520681866147cd565b9050615215602083018561476d565b615222604083018461476d565b949350505050565b7f4e487b71000000000000000000000000000000000000000000000000000000005f52601260045260245ffd5b5f61526182614764565b915061526c83614764565b92508261527c5761527b61522a565b5b828204905092915050565b7f5f000000000000000000000000000000000000000000000000000000000000005f82015250565b5f6152bb60018361519e565b91506152c682615287565b600182019050919050565b5f6152dc82856151a8565b91506152e7826152af565b91506152f382846151a8565b91508190509392505050565b5f61530982614764565b915061531483614764565b925082820261532281614764565b915082820484148315176153395761533861510b565b5b5092915050565b5f61534a82614764565b91507fffffffffffffffffffffffffffffffffffffffffffffffffffffffffffffffff820361537c5761537b61510b565b5b600182019050919050565b5f6040820190508181035f83015261539f81856147cd565b90506153ae602083018461476d565b9392505050565b5f6080820190506153c85f8301876149bd565b6153d560208301866148e7565b6153e2604083018561476d565b6153ef606083018461476d565b95945050505050565b5f60c08201905061540b5f8301896149bd565b61541860208301886148e7565b61542560408301876148e7565b615432606083018661476d565b61543f608083018561476d565b61544c60a083018461476d565b979650505050505050565b5f60408201905061546a5f8301856148e7565b61547760208301846148e7565b9392505050565b5f6040820190506154915f83018561476d565b81810360208301526154a381846147cd565b90509392505050565b5f6060820190506154bf5f8301866148e7565b6154cc602083018561476d565b6154d9604083018461476d565b949350505050565b5f6040820190506154f45f83018561476d565b6155016020830184614e44565b9392505050565b7f5061757361626c653a20706175736564000000000000000000000000000000005f82015250565b5f61553c60108361479f565b915061554782615508565b602082019050919050565b5f6020820190508181035f83015261556981615530565b9050919050565b7f5265656e7472616e637947756172643a207265656e7472616e742063616c6c005f82015250565b5f6155a4601f8361479f565b91506155af82615570565b602082019050919050565b5f6020820190508181035f8301526155d181615598565b9050919050565b5f6040820190506155eb5f8301856148e7565b6155f8602083018461476d565b9392505050565b5f6040820190506156125f8301856148e7565b61561f60208301846149bd565b9392505050565b5f60a0820190506156395f8301886149bd565b61564660208301876149bd565b61565360408301866149bd565b615660606083018561476d565b61566d60808301846148e7565b9695505050505050565b5f819050919050565b5f819050919050565b5f6156a361569e61569984615677565b615680565b614a23565b9050919050565b6156b381615689565b82525050565b5f6040820190506156cc5f8301856156aa565b6156d9602083018461476d565b9392505050565b7f5061757361626c653a206e6f74207061757365640000000000000000000000005f82015250565b5f61571460148361479f565b915061571f826156e0565b602082019050919050565b5f6020820190508181035f83015261574181615708565b9050919050565b5f60808201905061575b5f8301876149bd565b6157686020830186614a2f565b61577560408301856149bd565b61578260608301846149bd565b95945050505050565b7f4e487b71000000000000000000000000000000000000000000000000000000005f52602160045260245ffd5b5f6040820190506157cb5f83018561476d565b6157d8602083018461476d565b9392505050565b5f79ffffffffffffffffffffffffffffffffffffffffffffffffffff82169050919050565b5f61580e826157df565b9150615819836157df565b9250828203905079ffffffffffffffffffffffffffffffffffffffffffffffffffff81111561584b5761584a61510b565b5b92915050565b5f819050919050565b5f61587461586f61586a84615851565b615680565b614a23565b9050919050565b6158848161585a565b82525050565b5f60408201905061589d5f83018561587b565b6158aa602083018461476d565b9392505050565b5f6158bb826157df565b91506158c6836157df565b9250828201905079ffffffffffffffffffffffffffffffffffffffffffffffffffff8111156158f8576158f761510b565b5b9291505056fea2646970667358221220567c1db689465a128eafed117de2fe7db45718d0242f48ca79077f8ee91bb4d564736f6c634300081c0033",
			"opcodes": "PUSH2 0x160 PUSH1 0x40 MSTORE PUSH2 0x1F4 PUSH1 0x14 SSTORE PUSH1 0xC8 PUSH1 0x17 SSTORE CALLVALUE DUP1 ISZERO PUSH2 0x1B JUMPI PUSH0 PUSH0 REVERT JUMPDEST POP PUSH1 0x40 MLOAD DUP1 PUSH1 0x40 ADD PUSH1 0x40 MSTORE DUP1 PUSH1 0x10 DUP2 MSTORE PUSH1 0x20 ADD PUSH32 0x4372656453706865726520546F6B656E00000000000000000000000000000000 DUP2 MSTORE POP DUP1 PUSH1 0x40 MLOAD DUP1 PUSH1 0x40 ADD PUSH1 0x40 MSTORE DUP1 PUSH1 0x1 DUP2 MSTORE PUSH1 0x20 ADD PUSH32 0x3100000000000000000000000000000000000000000000000000000000000000 DUP2 MSTORE POP PUSH1 0x40 MLOAD DUP1 PUSH1 0x40 ADD PUSH1 0x40 MSTORE DUP1 PUSH1 0x10 DUP2 MSTORE PUSH1 0x20 ADD PUSH32 0x4372656453706865726520546F6B656E00000000000000000000000000000000 DUP2 MSTORE POP PUSH1 0x40 MLOAD DUP1 PUSH1 0x40 ADD PUSH1 0x40 MSTORE DUP1 PUSH1 0x4 DUP2 MSTORE PUSH1 0x20 ADD PUSH32 0x4352454400000000000000000000000000000000000000000000000000000000 DUP2 MSTORE POP DUP2 PUSH1 0x3 SWAP1 DUP2 PUSH2 0x104 SWAP2 SWAP1 PUSH2 0xB63 JUMP JUMPDEST POP DUP1 PUSH1 0x4 SWAP1 DUP2 PUSH2 0x114 SWAP2 SWAP1 PUSH2 0xB63 JUMP JUMPDEST POP POP POP PUSH2 0x12B PUSH1 0x5 DUP4 PUSH2 0x2EF PUSH1 0x20 SHL SWAP1 SWAP2 SWAP1 PUSH1 0x20 SHR JUMP JUMPDEST PUSH2 0x120 DUP2 DUP2 MSTORE POP POP PUSH2 0x147 PUSH1 0x6 DUP3 PUSH2 0x2EF PUSH1 0x20 SHL SWAP1 SWAP2 SWAP1 PUSH1 0x20 SHR JUMP JUMPDEST PUSH2 0x140 DUP2 DUP2 MSTORE POP POP DUP2 DUP1 MLOAD SWAP1 PUSH1 0x20 ADD KECCAK256 PUSH1 0xE0 DUP2 DUP2 MSTORE POP POP DUP1 DUP1 MLOAD SWAP1 PUSH1 0x20 ADD KECCAK256 PUSH2 0x100 DUP2 DUP2 MSTORE POP POP CHAINID PUSH1 0xA0 DUP2 DUP2 MSTORE POP POP PUSH2 0x184 PUSH2 0x33C PUSH1 0x20 SHL PUSH1 0x20 SHR JUMP JUMPDEST PUSH1 0x80 DUP2 DUP2 MSTORE POP POP ADDRESS PUSH20 0xFFFFFFFFFFFFFFFFFFFFFFFFFFFFFFFFFFFFFFFF AND PUSH1 0xC0 DUP2 PUSH20 0xFFFFFFFFFFFFFFFFFFFFFFFFFFFFFFFFFFFFFFFF AND DUP2 MSTORE POP POP POP POP POP PUSH0 PUSH1 0xC PUSH0 PUSH2 0x100 EXP DUP2 SLOAD DUP2 PUSH1 0xFF MUL NOT AND SWAP1 DUP4 ISZERO ISZERO MUL OR SWAP1 SSTORE POP PUSH1 0x1 PUSH1 0xD DUP2 SWAP1 SSTORE POP PUSH2 0x1F5 PUSH0 PUSH0 SHL CALLER PUSH2 0x396 PUSH1 0x20 SHL PUSH1 0x20 SHR JUMP JUMPDEST POP PUSH2 0x226 PUSH32 0x9F2DF0FED2C77648DE5860A4CC508CD0818C85B8B8A1AB4CEEEF8D981C8956A6 CALLER PUSH2 0x396 PUSH1 0x20 SHL PUSH1 0x20 SHR JUMP JUMPDEST POP PUSH2 0x257 PUSH32 0x3C11D16CBAFFD01DF69CE1C404F6340EE057498F5F00246190EA54220576A848 CALLER PUSH2 0x396 PUSH1 0x20 SHL PUSH1 0x20 SHR JUMP JUMPDEST POP PUSH2 0x288 PUSH32 0x65D7A28E3265B37A6474929F336521B332C1681B933F6CB9F3376673440D862A CALLER PUSH2 0x396 PUSH1 0x20 SHL PUSH1 0x20 SHR JUMP JUMPDEST POP PUSH2 0x2B9 PUSH32 0xF51ADB3F49E4A9BBB17B3783F025995EAF8C24BE2C8EEFFF214BDFDA05EF94D CALLER PUSH2 0x396 PUSH1 0x20 SHL PUSH1 0x20 SHR JUMP JUMPDEST POP PUSH2 0x2D5 CALLER PUSH11 0x52B7D2DCC80CD2E4000000 PUSH2 0x48C PUSH1 0x20 SHL PUSH1 0x20 SHR JUMP JUMPDEST PUSH2 0x2E3 PUSH2 0x511 PUSH1 0x20 SHL PUSH1 0x20 SHR JUMP JUMPDEST TIMESTAMP PUSH1 0x18 DUP2 SWAP1 SSTORE POP PUSH2 0x1165 JUMP JUMPDEST PUSH0 PUSH1 0x20 DUP4 MLOAD LT ISZERO PUSH2 0x310 JUMPI PUSH2 0x309 DUP4 PUSH2 0x634 PUSH1 0x20 SHL PUSH1 0x20 SHR JUMP JUMPDEST SWAP1 POP PUSH2 0x336 JUMP JUMPDEST DUP3 PUSH2 0x320 DUP4 PUSH2 0x699 PUSH1 0x20 SHL PUSH1 0x20 SHR JUMP JUMPDEST PUSH0 ADD SWAP1 DUP2 PUSH2 0x32E SWAP2 SWAP1 PUSH2 0xB63 JUMP JUMPDEST POP PUSH1 0xFF PUSH0 SHL SWAP1 POP JUMPDEST SWAP3 SWAP2 POP POP JUMP JUMPDEST PUSH0 PUSH32 0x8B73C3C69BB8FE3D512ECC4CF759CC79239F7B179B0FFACAA9A75D522B39400F PUSH1 0xE0 MLOAD PUSH2 0x100 MLOAD CHAINID ADDRESS PUSH1 0x40 MLOAD PUSH1 0x20 ADD PUSH2 0x37B SWAP6 SWAP5 SWAP4 SWAP3 SWAP2 SWAP1 PUSH2 0xC98 JUMP JUMPDEST PUSH1 0x40 MLOAD PUSH1 0x20 DUP2 DUP4 SUB SUB DUP2 MSTORE SWAP1 PUSH1 0x40 MSTORE DUP1 MLOAD SWAP1 PUSH1 0x20 ADD KECCAK256 SWAP1 POP SWAP1 JUMP JUMPDEST PUSH0 PUSH2 0x3A7 DUP4 DUP4 PUSH2 0x6A2 PUSH1 0x20 SHL PUSH1 0x20 SHR JUMP JUMPDEST PUSH2 0x482 JUMPI PUSH1 0x1 PUSH1 0xB PUSH0 DUP6 DUP2 MSTORE PUSH1 0x20 ADD SWAP1 DUP2 MSTORE PUSH1 0x20 ADD PUSH0 KECCAK256 PUSH0 ADD PUSH0 DUP5 PUSH20 0xFFFFFFFFFFFFFFFFFFFFFFFFFFFFFFFFFFFFFFFF AND PUSH20 0xFFFFFFFFFFFFFFFFFFFFFFFFFFFFFFFFFFFFFFFF AND DUP2 MSTORE PUSH1 0x20 ADD SWAP1 DUP2 MSTORE PUSH1 0x20 ADD PUSH0 KECCAK256 PUSH0 PUSH2 0x100 EXP DUP2 SLOAD DUP2 PUSH1 0xFF MUL NOT AND SWAP1 DUP4 ISZERO ISZERO MUL OR SWAP1 SSTORE POP PUSH2 0x41F PUSH2 0x706 PUSH1 0x20 SHL PUSH1 0x20 SHR JUMP JUMPDEST PUSH20 0xFFFFFFFFFFFFFFFFFFFFFFFFFFFFFFFFFFFFFFFF AND DUP3 PUSH20 0xFFFFFFFFFFFFFFFFFFFFFFFFFFFFFFFFFFFFFFFF AND DUP5 PUSH32 0x2F8788117E7EFF1D82E926EC794901D17C78024A50270940304540A733656F0D PUSH1 0x40 MLOAD PUSH1 0x40 MLOAD DUP1 SWAP2 SUB SWAP1 LOG4 PUSH1 0x1 SWAP1 POP PUSH2 0x486 JUMP JUMPDEST PUSH0 SWAP1 POP JUMPDEST SWAP3 SWAP2 POP POP JUMP JUMPDEST PUSH0 PUSH20 0xFFFFFFFFFFFFFFFFFFFFFFFFFFFFFFFFFFFFFFFF AND DUP3 PUSH20 0xFFFFFFFFFFFFFFFFFFFFFFFFFFFFFFFFFFFFFFFF AND SUB PUSH2 0x4FC JUMPI PUSH0 PUSH1 0x40 MLOAD PUSH32 0xEC442F0500000000000000000000000000000000000000000000000000000000 DUP2 MSTORE PUSH1 0x4 ADD PUSH2 0x4F3 SWAP2 SWAP1 PUSH2 0xCE9 JUMP JUMPDEST PUSH1 0x40 MLOAD DUP1 SWAP2 SUB SWAP1 REVERT JUMPDEST PUSH2 0x50D PUSH0 DUP4 DUP4 PUSH2 0x70D PUSH1 0x20 SHL PUSH1 0x20 SHR JUMP JUMPDEST POP POP JUMP JUMPDEST PUSH8 0x8AC7230489E80000 PUSH1 0xF PUSH1 0x40 MLOAD PUSH2 0x528 SWAP1 PUSH2 0xD56 JUMP JUMPDEST SWAP1 DUP2 MSTORE PUSH1 0x20 ADD PUSH1 0x40 MLOAD DUP1 SWAP2 SUB SWAP1 KECCAK256 DUP2 SWAP1 SSTORE POP PUSH8 0x4563918244F40000 PUSH1 0xF PUSH1 0x40 MLOAD PUSH2 0x551 SWAP1 PUSH2 0xDB4 JUMP JUMPDEST SWAP1 DUP2 MSTORE PUSH1 0x20 ADD PUSH1 0x40 MLOAD DUP1 SWAP2 SUB SWAP1 KECCAK256 DUP2 SWAP1 SSTORE POP PUSH8 0xDE0B6B3A7640000 PUSH1 0xF PUSH1 0x40 MLOAD PUSH2 0x57A SWAP1 PUSH2 0xE12 JUMP JUMPDEST SWAP1 DUP2 MSTORE PUSH1 0x20 ADD PUSH1 0x40 MLOAD DUP1 SWAP2 SUB SWAP1 KECCAK256 DUP2 SWAP1 SSTORE POP PUSH8 0xDE0B6B3A7640000 PUSH1 0xF PUSH1 0x40 MLOAD PUSH2 0x5A3 SWAP1 PUSH2 0xE70 JUMP JUMPDEST SWAP1 DUP2 MSTORE PUSH1 0x20 ADD PUSH1 0x40 MLOAD DUP1 SWAP2 SUB SWAP1 KECCAK256 DUP2 SWAP1 SSTORE POP PUSH8 0xDE0B6B3A7640000 PUSH1 0xF PUSH1 0x40 MLOAD PUSH2 0x5CC SWAP1 PUSH2 0xECE JUMP JUMPDEST SWAP1 DUP2 MSTORE PUSH1 0x20 ADD PUSH1 0x40 MLOAD DUP1 SWAP2 SUB SWAP1 KECCAK256 DUP2 SWAP1 SSTORE POP PUSH9 0x1158E460913D00000 PUSH1 0xF PUSH1 0x40 MLOAD PUSH2 0x5F6 SWAP1 PUSH2 0xF2C JUMP JUMPDEST SWAP1 DUP2 MSTORE PUSH1 0x20 ADD PUSH1 0x40 MLOAD DUP1 SWAP2 SUB SWAP1 KECCAK256 DUP2 SWAP1 SSTORE POP PUSH9 0x2B5E3AF16B1880000 PUSH1 0xF PUSH1 0x40 MLOAD PUSH2 0x620 SWAP1 PUSH2 0xF8A JUMP JUMPDEST SWAP1 DUP2 MSTORE PUSH1 0x20 ADD PUSH1 0x40 MLOAD DUP1 SWAP2 SUB SWAP1 KECCAK256 DUP2 SWAP1 SSTORE POP JUMP JUMPDEST PUSH0 PUSH0 DUP3 SWAP1 POP PUSH1 0x1F DUP2 MLOAD GT ISZERO PUSH2 0x680 JUMPI DUP3 PUSH1 0x40 MLOAD PUSH32 0x305A27A900000000000000000000000000000000000000000000000000000000 DUP2 MSTORE PUSH1 0x4 ADD PUSH2 0x677 SWAP2 SWAP1 PUSH2 0x1004 JUMP JUMPDEST PUSH1 0x40 MLOAD DUP1 SWAP2 SUB SWAP1 REVERT JUMPDEST DUP1 MLOAD DUP2 PUSH2 0x68C SWAP1 PUSH2 0x1051 JUMP JUMPDEST PUSH0 SHR OR PUSH0 SHL SWAP2 POP POP SWAP2 SWAP1 POP JUMP JUMPDEST PUSH0 DUP2 SWAP1 POP SWAP2 SWAP1 POP JUMP JUMPDEST PUSH0 PUSH1 0xB PUSH0 DUP5 DUP2 MSTORE PUSH1 0x20 ADD SWAP1 DUP2 MSTORE PUSH1 0x20 ADD PUSH0 KECCAK256 PUSH0 ADD PUSH0 DUP4 PUSH20 0xFFFFFFFFFFFFFFFFFFFFFFFFFFFFFFFFFFFFFFFF AND PUSH20 0xFFFFFFFFFFFFFFFFFFFFFFFFFFFFFFFFFFFFFFFF AND DUP2 MSTORE PUSH1 0x20 ADD SWAP1 DUP2 MSTORE PUSH1 0x20 ADD PUSH0 KECCAK256 PUSH0 SWAP1 SLOAD SWAP1 PUSH2 0x100 EXP SWAP1 DIV PUSH1 0xFF AND SWAP1 POP SWAP3 SWAP2 POP POP JUMP JUMPDEST PUSH0 CALLER SWAP1 POP SWAP1 JUMP JUMPDEST PUSH0 PUSH20 0xFFFFFFFFFFFFFFFFFFFFFFFFFFFFFFFFFFFFFFFF AND DUP4 PUSH20 0xFFFFFFFFFFFFFFFFFFFFFFFFFFFFFFFFFFFFFFFF AND SUB PUSH2 0x75D JUMPI DUP1 PUSH1 0x2 PUSH0 DUP3 DUP3 SLOAD PUSH2 0x751 SWAP2 SWAP1 PUSH2 0x10E4 JUMP JUMPDEST SWAP3 POP POP DUP2 SWAP1 SSTORE POP PUSH2 0x82B JUMP JUMPDEST PUSH0 PUSH0 PUSH0 DUP6 PUSH20 0xFFFFFFFFFFFFFFFFFFFFFFFFFFFFFFFFFFFFFFFF AND PUSH20 0xFFFFFFFFFFFFFFFFFFFFFFFFFFFFFFFFFFFFFFFF AND DUP2 MSTORE PUSH1 0x20 ADD SWAP1 DUP2 MSTORE PUSH1 0x20 ADD PUSH0 KECCAK256 SLOAD SWAP1 POP DUP2 DUP2 LT ISZERO PUSH2 0x7E6 JUMPI DUP4 DUP2 DUP4 PUSH1 0x40 MLOAD PUSH32 0xE450D38C00000000000000000000000000000000000000000000000000000000 DUP2 MSTORE PUSH1 0x4 ADD PUSH2 0x7DD SWAP4 SWAP3 SWAP2 SWAP1 PUSH2 0x1117 JUMP JUMPDEST PUSH1 0x40 MLOAD DUP1 SWAP2 SUB SWAP1 REVERT JUMPDEST DUP2 DUP2 SUB PUSH0 PUSH0 DUP7 PUSH20 0xFFFFFFFFFFFFFFFFFFFFFFFFFFFFFFFFFFFFFFFF AND PUSH20 0xFFFFFFFFFFFFFFFFFFFFFFFFFFFFFFFFFFFFFFFF AND DUP2 MSTORE PUSH1 0x20 ADD SWAP1 DUP2 MSTORE PUSH1 0x20 ADD PUSH0 KECCAK256 DUP2 SWAP1 SSTORE POP POP JUMPDEST PUSH0 PUSH20 0xFFFFFFFFFFFFFFFFFFFFFFFFFFFFFFFFFFFFFFFF AND DUP3 PUSH20 0xFFFFFFFFFFFFFFFFFFFFFFFFFFFFFFFFFFFFFFFF AND SUB PUSH2 0x872 JUMPI DUP1 PUSH1 0x2 PUSH0 DUP3 DUP3 SLOAD SUB SWAP3 POP POP DUP2 SWAP1 SSTORE POP PUSH2 0x8BC JUMP JUMPDEST DUP1 PUSH0 PUSH0 DUP5 PUSH20 0xFFFFFFFFFFFFFFFFFFFFFFFFFFFFFFFFFFFFFFFF AND PUSH20 0xFFFFFFFFFFFFFFFFFFFFFFFFFFFFFFFFFFFFFFFF AND DUP2 MSTORE PUSH1 0x20 ADD SWAP1 DUP2 MSTORE PUSH1 0x20 ADD PUSH0 KECCAK256 PUSH0 DUP3 DUP3 SLOAD ADD SWAP3 POP POP DUP2 SWAP1 SSTORE POP JUMPDEST DUP2 PUSH20 0xFFFFFFFFFFFFFFFFFFFFFFFFFFFFFFFFFFFFFFFF AND DUP4 PUSH20 0xFFFFFFFFFFFFFFFFFFFFFFFFFFFFFFFFFFFFFFFF AND PUSH32 0xDDF252AD1BE2C89B69C2B068FC378DAA952BA7F163C4A11628F55A4DF523B3EF DUP4 PUSH1 0x40 MLOAD PUSH2 0x919 SWAP2 SWAP1 PUSH2 0x114C JUMP JUMPDEST PUSH1 0x40 MLOAD DUP1 SWAP2 SUB SWAP1 LOG3 POP POP POP JUMP JUMPDEST PUSH0 DUP2 MLOAD SWAP1 POP SWAP2 SWAP1 POP JUMP JUMPDEST PUSH32 0x4E487B7100000000000000000000000000000000000000000000000000000000 PUSH0 MSTORE PUSH1 0x41 PUSH1 0x4 MSTORE PUSH1 0x24 PUSH0 REVERT JUMPDEST PUSH32 0x4E487B7100000000000000000000000000000000000000000000000000000000 PUSH0 MSTORE PUSH1 0x22 PUSH1 0x4 MSTORE PUSH1 0x24 PUSH0 REVERT JUMPDEST PUSH0 PUSH1 0x2 DUP3 DIV SWAP1 POP PUSH1 0x1 DUP3 AND DUP1 PUSH2 0x9A1 JUMPI PUSH1 0x7F DUP3 AND SWAP2 POP JUMPDEST PUSH1 0x20 DUP3 LT DUP2 SUB PUSH2 0x9B4 JUMPI PUSH2 0x9B3 PUSH2 0x95D JUMP JUMPDEST JUMPDEST POP SWAP2 SWAP1 POP JUMP JUMPDEST PUSH0 DUP2 SWAP1 POP DUP2 PUSH0 MSTORE PUSH1 0x20 PUSH0 KECCAK256 SWAP1 POP SWAP2 SWAP1 POP JUMP JUMPDEST PUSH0 PUSH1 0x20 PUSH1 0x1F DUP4 ADD DIV SWAP1 POP SWAP2 SWAP1 POP JUMP JUMPDEST PUSH0 DUP3 DUP3 SHL SWAP1 POP SWAP3 SWAP2 POP POP JUMP JUMPDEST PUSH0 PUSH1 0x8 DUP4 MUL PUSH2 0xA16 PUSH32 0xFFFFFFFFFFFFFFFFFFFFFFFFFFFFFFFFFFFFFFFFFFFFFFFFFFFFFFFFFFFFFFFF DUP3 PUSH2 0x9DB JUMP JUMPDEST PUSH2 0xA20 DUP7 DUP4 PUSH2 0x9DB JUMP JUMPDEST SWAP6 POP DUP1 NOT DUP5 AND SWAP4 POP DUP1 DUP7 AND DUP5 OR SWAP3 POP POP POP SWAP4 SWAP3 POP POP POP JUMP JUMPDEST PUSH0 DUP2 SWAP1 POP SWAP2 SWAP1 POP JUMP JUMPDEST PUSH0 DUP2 SWAP1 POP SWAP2 SWAP1 POP JUMP JUMPDEST PUSH0 PUSH2 0xA64 PUSH2 0xA5F PUSH2 0xA5A DUP5 PUSH2 0xA38 JUMP JUMPDEST PUSH2 0xA41 JUMP JUMPDEST PUSH2 0xA38 JUMP JUMPDEST SWAP1 POP SWAP2 SWAP1 POP JUMP JUMPDEST PUSH0 DUP2 SWAP1 POP SWAP2 SWAP1 POP JUMP JUMPDEST PUSH2 0xA7D DUP4 PUSH2 0xA4A JUMP JUMPDEST PUSH2 0xA91 PUSH2 0xA89 DUP3 PUSH2 0xA6B JUMP JUMPDEST DUP5 DUP5 SLOAD PUSH2 0x9E7 JUMP JUMPDEST DUP3 SSTORE POP POP POP POP JUMP JUMPDEST PUSH0 PUSH0 SWAP1 POP SWAP1 JUMP JUMPDEST PUSH2 0xAA8 PUSH2 0xA99 JUMP JUMPDEST PUSH2 0xAB3 DUP2 DUP5 DUP5 PUSH2 0xA74 JUMP JUMPDEST POP POP POP JUMP JUMPDEST JUMPDEST DUP2 DUP2 LT ISZERO PUSH2 0xAD6 JUMPI PUSH2 0xACB PUSH0 DUP3 PUSH2 0xAA0 JUMP JUMPDEST PUSH1 0x1 DUP2 ADD SWAP1 POP PUSH2 0xAB9 JUMP JUMPDEST POP POP JUMP JUMPDEST PUSH1 0x1F DUP3 GT ISZERO PUSH2 0xB1B JUMPI PUSH2 0xAEC DUP2 PUSH2 0x9BA JUMP JUMPDEST PUSH2 0xAF5 DUP5 PUSH2 0x9CC JUMP JUMPDEST DUP2 ADD PUSH1 0x20 DUP6 LT ISZERO PUSH2 0xB04 JUMPI DUP2 SWAP1 POP JUMPDEST PUSH2 0xB18 PUSH2 0xB10 DUP6 PUSH2 0x9CC JUMP JUMPDEST DUP4 ADD DUP3 PUSH2 0xAB8 JUMP JUMPDEST POP POP JUMPDEST POP POP POP JUMP JUMPDEST PUSH0 DUP3 DUP3 SHR SWAP1 POP SWAP3 SWAP2 POP POP JUMP JUMPDEST PUSH0 PUSH2 0xB3B PUSH0 NOT DUP5 PUSH1 0x8 MUL PUSH2 0xB20 JUMP JUMPDEST NOT DUP1 DUP4 AND SWAP2 POP POP SWAP3 SWAP2 POP POP JUMP JUMPDEST PUSH0 PUSH2 0xB53 DUP4 DUP4 PUSH2 0xB2C JUMP JUMPDEST SWAP2 POP DUP3 PUSH1 0x2 MUL DUP3 OR SWAP1 POP SWAP3 SWAP2 POP POP JUMP JUMPDEST PUSH2 0xB6C DUP3 PUSH2 0x926 JUMP JUMPDEST PUSH8 0xFFFFFFFFFFFFFFFF DUP2 GT ISZERO PUSH2 0xB85 JUMPI PUSH2 0xB84 PUSH2 0x930 JUMP JUMPDEST JUMPDEST PUSH2 0xB8F DUP3 SLOAD PUSH2 0x98A JUMP JUMPDEST PUSH2 0xB9A DUP3 DUP3 DUP6 PUSH2 0xADA JUMP JUMPDEST PUSH0 PUSH1 0x20 SWAP1 POP PUSH1 0x1F DUP4 GT PUSH1 0x1 DUP2 EQ PUSH2 0xBCB JUMPI PUSH0 DUP5 ISZERO PUSH2 0xBB9 JUMPI DUP3 DUP8 ADD MLOAD SWAP1 POP JUMPDEST PUSH2 0xBC3 DUP6 DUP3 PUSH2 0xB48 JUMP JUMPDEST DUP7 SSTORE POP PUSH2 0xC2A JUMP JUMPDEST PUSH1 0x1F NOT DUP5 AND PUSH2 0xBD9 DUP7 PUSH2 0x9BA JUMP JUMPDEST PUSH0 JUMPDEST DUP3 DUP2 LT ISZERO PUSH2 0xC00 JUMPI DUP5 DUP10 ADD MLOAD DUP3 SSTORE PUSH1 0x1 DUP3 ADD SWAP2 POP PUSH1 0x20 DUP6 ADD SWAP5 POP PUSH1 0x20 DUP2 ADD SWAP1 POP PUSH2 0xBDB JUMP JUMPDEST DUP7 DUP4 LT ISZERO PUSH2 0xC1D JUMPI DUP5 DUP10 ADD MLOAD PUSH2 0xC19 PUSH1 0x1F DUP10 AND DUP3 PUSH2 0xB2C JUMP JUMPDEST DUP4 SSTORE POP JUMPDEST PUSH1 0x1 PUSH1 0x2 DUP9 MUL ADD DUP9 SSTORE POP POP POP JUMPDEST POP POP POP POP POP POP JUMP JUMPDEST PUSH0 DUP2 SWAP1 POP SWAP2 SWAP1 POP JUMP JUMPDEST PUSH2 0xC44 DUP2 PUSH2 0xC32 JUMP JUMPDEST DUP3 MSTORE POP POP JUMP JUMPDEST PUSH2 0xC53 DUP2 PUSH2 0xA38 JUMP JUMPDEST DUP3 MSTORE POP POP JUMP JUMPDEST PUSH0 PUSH20 0xFFFFFFFFFFFFFFFFFFFFFFFFFFFFFFFFFFFFFFFF DUP3 AND SWAP1 POP SWAP2 SWAP1 POP JUMP JUMPDEST PUSH0 PUSH2 0xC82 DUP3 PUSH2 0xC59 JUMP JUMPDEST SWAP1 POP SWAP2 SWAP1 POP JUMP JUMPDEST PUSH2 0xC92 DUP2 PUSH2 0xC78 JUMP JUMPDEST DUP3 MSTORE POP POP JUMP JUMPDEST PUSH0 PUSH1 0xA0 DUP3 ADD SWAP1 POP PUSH2 0xCAB PUSH0 DUP4 ADD DUP9 PUSH2 0xC3B JUMP JUMPDEST PUSH2 0xCB8 PUSH1 0x20 DUP4 ADD DUP8 PUSH2 0xC3B JUMP JUMPDEST PUSH2 0xCC5 PUSH1 0x40 DUP4 ADD DUP7 PUSH2 0xC3B JUMP JUMPDEST PUSH2 0xCD2 PUSH1 0x60 DUP4 ADD DUP6 PUSH2 0xC4A JUMP JUMPDEST PUSH2 0xCDF PUSH1 0x80 DUP4 ADD DUP5 PUSH2 0xC89 JUMP JUMPDEST SWAP7 SWAP6 POP POP POP POP POP POP JUMP JUMPDEST PUSH0 PUSH1 0x20 DUP3 ADD SWAP1 POP PUSH2 0xCFC PUSH0 DUP4 ADD DUP5 PUSH2 0xC89 JUMP JUMPDEST SWAP3 SWAP2 POP POP JUMP JUMPDEST PUSH0 DUP2 SWAP1 POP SWAP3 SWAP2 POP POP JUMP JUMPDEST PUSH32 0x70726F66696C655F6372656174696F6E00000000000000000000000000000000 PUSH0 DUP3 ADD MSTORE POP JUMP JUMPDEST PUSH0 PUSH2 0xD40 PUSH1 0x10 DUP4 PUSH2 0xD02 JUMP JUMPDEST SWAP2 POP PUSH2 0xD4B DUP3 PUSH2 0xD0C JUMP JUMPDEST PUSH1 0x10 DUP3 ADD SWAP1 POP SWAP2 SWAP1 POP JUMP JUMPDEST PUSH0 PUSH2 0xD60 DUP3 PUSH2 0xD34 JUMP JUMPDEST SWAP2 POP DUP2 SWAP1 POP SWAP2 SWAP1 POP JUMP JUMPDEST PUSH32 0x63726564656E7469616C5F6D696E740000000000000000000000000000000000 PUSH0 DUP3 ADD MSTORE POP JUMP JUMPDEST PUSH0 PUSH2 0xD9E PUSH1 0xF DUP4 PUSH2 0xD02 JUMP JUMPDEST SWAP2 POP PUSH2 0xDA9 DUP3 PUSH2 0xD6A JUMP JUMPDEST PUSH1 0xF DUP3 ADD SWAP1 POP SWAP2 SWAP1 POP JUMP JUMPDEST PUSH0 PUSH2 0xDBE DUP3 PUSH2 0xD92 JUMP JUMPDEST SWAP2 POP DUP2 SWAP1 POP SWAP2 SWAP1 POP JUMP JUMPDEST PUSH32 0x6A6F625F6170706C69636174696F6E0000000000000000000000000000000000 PUSH0 DUP3 ADD MSTORE POP JUMP JUMPDEST PUSH0 PUSH2 0xDFC PUSH1 0xF DUP4 PUSH2 0xD02 JUMP JUMPDEST SWAP2 POP PUSH2 0xE07 DUP3 PUSH2 0xDC8 JUMP JUMPDEST PUSH1 0xF DUP3 ADD SWAP1 POP SWAP2 SWAP1 POP JUMP JUMPDEST PUSH0 PUSH2 0xE1C DUP3 PUSH2 0xDF0 JUMP JUMPDEST SWAP2 POP DUP2 SWAP1 POP SWAP2 SWAP1 POP JUMP JUMPDEST PUSH32 0x726174696E670000000000000000000000000000000000000000000000000000 PUSH0 DUP3 ADD MSTORE POP JUMP JUMPDEST PUSH0 PUSH2 0xE5A PUSH1 0x6 DUP4 PUSH2 0xD02 JUMP JUMPDEST SWAP2 POP PUSH2 0xE65 DUP3 PUSH2 0xE26 JUMP JUMPDEST PUSH1 0x6 DUP3 ADD SWAP1 POP SWAP2 SWAP1 POP JUMP JUMPDEST PUSH0 PUSH2 0xE7A DUP3 PUSH2 0xE4E JUMP JUMPDEST SWAP2 POP DUP2 SWAP1 POP SWAP2 SWAP1 POP JUMP JUMPDEST PUSH32 0x64616F5F766F7465000000000000000000000000000000000000000000000000 PUSH0 DUP3 ADD MSTORE POP JUMP JUMPDEST PUSH0 PUSH2 0xEB8 PUSH1 0x8 DUP4 PUSH2 0xD02 JUMP JUMPDEST SWAP2 POP PUSH2 0xEC3 DUP3 PUSH2 0xE84 JUMP JUMPDEST PUSH1 0x8 DUP3 ADD SWAP1 POP SWAP2 SWAP1 POP JUMP JUMPDEST PUSH0 PUSH2 0xED8 DUP3 PUSH2 0xEAC JUMP JUMPDEST SWAP2 POP DUP2 SWAP1 POP SWAP2 SWAP1 POP JUMP JUMPDEST PUSH32 0x63726564656E7469616C5F766572696669636174696F6E000000000000000000 PUSH0 DUP3 ADD MSTORE POP JUMP JUMPDEST PUSH0 PUSH2 0xF16 PUSH1 0x17 DUP4 PUSH2 0xD02 JUMP JUMPDEST SWAP2 POP PUSH2 0xF21 DUP3 PUSH2 0xEE2 JUMP JUMPDEST PUSH1 0x17 DUP3 ADD SWAP1 POP SWAP2 SWAP1 POP JUMP JUMPDEST PUSH0 PUSH2 0xF36 DUP3 PUSH2 0xF0A JUMP JUMPDEST SWAP2 POP DUP2 SWAP1 POP SWAP2 SWAP1 POP JUMP JUMPDEST PUSH32 0x6A6F625F636F6D706C6574696F6E000000000000000000000000000000000000 PUSH0 DUP3 ADD MSTORE POP JUMP JUMPDEST PUSH0 PUSH2 0xF74 PUSH1 0xE DUP4 PUSH2 0xD02 JUMP JUMPDEST SWAP2 POP PUSH2 0xF7F DUP3 PUSH2 0xF40 JUMP JUMPDEST PUSH1 0xE DUP3 ADD SWAP1 POP SWAP2 SWAP1 POP JUMP JUMPDEST PUSH0 PUSH2 0xF94 DUP3 PUSH2 0xF68 JUMP JUMPDEST SWAP2 POP DUP2 SWAP1 POP SWAP2 SWAP1 POP JUMP JUMPDEST PUSH0 DUP3 DUP3 MSTORE PUSH1 0x20 DUP3 ADD SWAP1 POP SWAP3 SWAP2 POP POP JUMP JUMPDEST DUP3 DUP2 DUP4 MCOPY PUSH0 DUP4 DUP4 ADD MSTORE POP POP POP JUMP JUMPDEST PUSH0 PUSH1 0x1F NOT PUSH1 0x1F DUP4 ADD AND SWAP1 POP SWAP2 SWAP1 POP JUMP JUMPDEST PUSH0 PUSH2 0xFD6 DUP3 PUSH2 0x926 JUMP JUMPDEST PUSH2 0xFE0 DUP2 DUP6 PUSH2 0xF9E JUMP JUMPDEST SWAP4 POP PUSH2 0xFF0 DUP2 DUP6 PUSH1 0x20 DUP7 ADD PUSH2 0xFAE JUMP JUMPDEST PUSH2 0xFF9 DUP2 PUSH2 0xFBC JUMP JUMPDEST DUP5 ADD SWAP2 POP POP SWAP3 SWAP2 POP POP JUMP JUMPDEST PUSH0 PUSH1 0x20 DUP3 ADD SWAP1 POP DUP2 DUP2 SUB PUSH0 DUP4 ADD MSTORE PUSH2 0x101C DUP2 DUP5 PUSH2 0xFCC JUMP JUMPDEST SWAP1 POP SWAP3 SWAP2 POP POP JUMP JUMPDEST PUSH0 DUP2 MLOAD SWAP1 POP SWAP2 SWAP1 POP JUMP JUMPDEST PUSH0 DUP2 SWAP1 POP PUSH1 0x20 DUP3 ADD SWAP1 POP SWAP2 SWAP1 POP JUMP JUMPDEST PUSH0 PUSH2 0x1048 DUP3 MLOAD PUSH2 0xC32 JUMP JUMPDEST DUP1 SWAP2 POP POP SWAP2 SWAP1 POP JUMP JUMPDEST PUSH0 PUSH2 0x105B DUP3 PUSH2 0x1024 JUMP JUMPDEST DUP3 PUSH2 0x1065 DUP5 PUSH2 0x102E JUMP JUMPDEST SWAP1 POP PUSH2 0x1070 DUP2 PUSH2 0x103D JUMP JUMPDEST SWAP3 POP PUSH1 0x20 DUP3 LT ISZERO PUSH2 0x10B0 JUMPI PUSH2 0x10AB PUSH32 0xFFFFFFFFFFFFFFFFFFFFFFFFFFFFFFFFFFFFFFFFFFFFFFFFFFFFFFFFFFFFFFFF DUP4 PUSH1 0x20 SUB PUSH1 0x8 MUL PUSH2 0x9DB JUMP JUMPDEST DUP4 AND SWAP3 POP JUMPDEST POP POP SWAP2 SWAP1 POP JUMP JUMPDEST PUSH32 0x4E487B7100000000000000000000000000000000000000000000000000000000 PUSH0 MSTORE PUSH1 0x11 PUSH1 0x4 MSTORE PUSH1 0x24 PUSH0 REVERT JUMPDEST PUSH0 PUSH2 0x10EE DUP3 PUSH2 0xA38 JUMP JUMPDEST SWAP2 POP PUSH2 0x10F9 DUP4 PUSH2 0xA38 JUMP JUMPDEST SWAP3 POP DUP3 DUP3 ADD SWAP1 POP DUP1 DUP3 GT ISZERO PUSH2 0x1111 JUMPI PUSH2 0x1110 PUSH2 0x10B7 JUMP JUMPDEST JUMPDEST SWAP3 SWAP2 POP POP JUMP JUMPDEST PUSH0 PUSH1 0x60 DUP3 ADD SWAP1 POP PUSH2 0x112A PUSH0 DUP4 ADD DUP7 PUSH2 0xC89 JUMP JUMPDEST PUSH2 0x1137 PUSH1 0x20 DUP4 ADD DUP6 PUSH2 0xC4A JUMP JUMPDEST PUSH2 0x1144 PUSH1 0x40 DUP4 ADD DUP5 PUSH2 0xC4A JUMP JUMPDEST SWAP5 SWAP4 POP POP POP POP JUMP JUMPDEST PUSH0 PUSH1 0x20 DUP3 ADD SWAP1 POP PUSH2 0x115F PUSH0 DUP4 ADD DUP5 PUSH2 0xC4A JUMP JUMPDEST SWAP3 SWAP2 POP POP JUMP JUMPDEST PUSH1 0x80 MLOAD PUSH1 0xA0 MLOAD PUSH1 0xC0 MLOAD PUSH1 0xE0 MLOAD PUSH2 0x100 MLOAD PUSH2 0x120 MLOAD PUSH2 0x140 MLOAD PUSH2 0x5934 PUSH2 0x11B6 PUSH0 CODECOPY PUSH0 PUSH2 0x2F0C ADD MSTORE PUSH0 PUSH2 0x2ED1 ADD MSTORE PUSH0 PUSH2 0x3642 ADD MSTORE PUSH0 PUSH2 0x3621 ADD MSTORE PUSH0 PUSH2 0x2743 ADD MSTORE PUSH0 PUSH2 0x2799 ADD MSTORE PUSH0 PUSH2 0x27C2 ADD MSTORE PUSH2 0x5934 PUSH0 RETURN INVALID PUSH1 0x80 PUSH1 0x40 MSTORE CALLVALUE DUP1 ISZERO PUSH2 0xF JUMPI PUSH0 PUSH0 REVERT JUMPDEST POP PUSH1 0x4 CALLDATASIZE LT PUSH2 0x426 JUMPI PUSH0 CALLDATALOAD PUSH1 0xE0 SHR DUP1 PUSH4 0x79CC6790 GT PUSH2 0x229 JUMPI DUP1 PUSH4 0xC3CDA520 GT PUSH2 0x12E JUMPI DUP1 PUSH4 0xE4BB7160 GT PUSH2 0xB6 JUMPI DUP1 PUSH4 0xE91A2754 GT PUSH2 0x85 JUMPI DUP1 PUSH4 0xE91A2754 EQ PUSH2 0xCF2 JUMPI DUP1 PUSH4 0xEA7FD521 EQ PUSH2 0xD10 JUMPI DUP1 PUSH4 0xF6018DA0 EQ PUSH2 0xD40 JUMPI DUP1 PUSH4 0xF90CDE7B EQ PUSH2 0xD70 JUMPI DUP1 PUSH4 0xFB9CCB68 EQ PUSH2 0xD8E JUMPI PUSH2 0x426 JUMP JUMPDEST DUP1 PUSH4 0xE4BB7160 EQ PUSH2 0xC90 JUMPI DUP1 PUSH4 0xE63AB1E9 EQ PUSH2 0xC9A JUMPI DUP1 PUSH4 0xE6D0F10E EQ PUSH2 0xCB8 JUMPI DUP1 PUSH4 0xE714DA10 EQ PUSH2 0xCD4 JUMPI PUSH2 0x426 JUMP JUMPDEST DUP1 PUSH4 0xD547741F GT PUSH2 0xFD JUMPI DUP1 PUSH4 0xD547741F EQ PUSH2 0xBD8 JUMPI DUP1 PUSH4 0xD689343A EQ PUSH2 0xBF4 JUMPI DUP1 PUSH4 0xD8AD5231 EQ PUSH2 0xC12 JUMPI DUP1 PUSH4 0xDCE838B7 EQ PUSH2 0xC42 JUMPI DUP1 PUSH4 0xDD62ED3E EQ PUSH2 0xC60 JUMPI PUSH2 0x426 JUMP JUMPDEST DUP1 PUSH4 0xC3CDA520 EQ PUSH2 0xB64 JUMPI DUP1 PUSH4 0xD2D3A32A EQ PUSH2 0xB80 JUMPI DUP1 PUSH4 0xD505ACCF EQ PUSH2 0xB9E JUMPI DUP1 PUSH4 0xD5391393 EQ PUSH2 0xBBA JUMPI PUSH2 0x426 JUMP JUMPDEST DUP1 PUSH4 0x95D89B41 GT PUSH2 0x1B1 JUMPI DUP1 PUSH4 0xA9059CBB GT PUSH2 0x180 JUMPI DUP1 PUSH4 0xA9059CBB EQ PUSH2 0xAAE JUMPI DUP1 PUSH4 0xAEBA5631 EQ PUSH2 0xADE JUMPI DUP1 PUSH4 0xBB4D4436 EQ PUSH2 0xAFA JUMPI DUP1 PUSH4 0xC0008D0C EQ PUSH2 0xB2A JUMPI DUP1 PUSH4 0xC1AD6172 EQ PUSH2 0xB46 JUMPI PUSH2 0x426 JUMP JUMPDEST DUP1 PUSH4 0x95D89B41 EQ PUSH2 0xA26 JUMPI DUP1 PUSH4 0x9A3CAC6A EQ PUSH2 0xA44 JUMPI DUP1 PUSH4 0x9AB24EB0 EQ PUSH2 0xA60 JUMPI DUP1 PUSH4 0xA217FDDF EQ PUSH2 0xA90 JUMPI PUSH2 0x426 JUMP JUMPDEST DUP1 PUSH4 0x84B0196E GT PUSH2 0x1F8 JUMPI DUP1 PUSH4 0x84B0196E EQ PUSH2 0x966 JUMPI DUP1 PUSH4 0x8A82E8E8 EQ PUSH2 0x98A JUMPI DUP1 PUSH4 0x8E539E8C EQ PUSH2 0x9A8 JUMPI DUP1 PUSH4 0x91D14854 EQ PUSH2 0x9D8 JUMPI DUP1 PUSH4 0x91DDADF4 EQ PUSH2 0xA08 JUMPI PUSH2 0x426 JUMP JUMPDEST DUP1 PUSH4 0x79CC6790 EQ PUSH2 0x8F2 JUMPI DUP1 PUSH4 0x7ECEBE00 EQ PUSH2 0x90E JUMPI DUP1 PUSH4 0x817B1CD2 EQ PUSH2 0x93E JUMPI DUP1 PUSH4 0x8456CB59 EQ PUSH2 0x95C JUMPI PUSH2 0x426 JUMP JUMPDEST DUP1 PUSH4 0x3A46B1A8 GT PUSH2 0x32F JUMPI DUP1 PUSH4 0x5C975ABB GT PUSH2 0x2B7 JUMPI DUP1 PUSH4 0x6A56E60F GT PUSH2 0x286 JUMPI DUP1 PUSH4 0x6A56E60F EQ PUSH2 0x84E JUMPI DUP1 PUSH4 0x6B69E05B EQ PUSH2 0x87E JUMPI DUP1 PUSH4 0x6D750D80 EQ PUSH2 0x888 JUMPI DUP1 PUSH4 0x70A08231 EQ PUSH2 0x8A6 JUMPI DUP1 PUSH4 0x7547C7A3 EQ PUSH2 0x8D6 JUMPI PUSH2 0x426 JUMP JUMPDEST DUP1 PUSH4 0x5C975ABB EQ PUSH2 0x7B4 JUMPI DUP1 PUSH4 0x60217267 EQ PUSH2 0x7D2 JUMPI DUP1 PUSH4 0x608E4DD0 EQ PUSH2 0x802 JUMPI DUP1 PUSH4 0x6984BF07 EQ PUSH2 0x81E JUMPI PUSH2 0x426 JUMP JUMPDEST DUP1 PUSH4 0x42966C68 GT PUSH2 0x2FE JUMPI DUP1 PUSH4 0x42966C68 EQ PUSH2 0x6FE JUMPI DUP1 PUSH4 0x499D7F96 EQ PUSH2 0x71A JUMPI DUP1 PUSH4 0x4BF5D7E9 EQ PUSH2 0x74A JUMPI DUP1 PUSH4 0x587CDE1E EQ PUSH2 0x768 JUMPI DUP1 PUSH4 0x5C19A95C EQ PUSH2 0x798 JUMPI PUSH2 0x426 JUMP JUMPDEST DUP1 PUSH4 0x3A46B1A8 EQ PUSH2 0x68A JUMPI DUP1 PUSH4 0x3EB26B03 EQ PUSH2 0x6BA JUMPI DUP1 PUSH4 0x3F4BA83A EQ PUSH2 0x6D8 JUMPI DUP1 PUSH4 0x40C10F19 EQ PUSH2 0x6E2 JUMPI PUSH2 0x426 JUMP JUMPDEST DUP1 PUSH4 0x248A9CA3 GT PUSH2 0x3B2 JUMPI DUP1 PUSH4 0x313CE567 GT PUSH2 0x381 JUMPI DUP1 PUSH4 0x313CE567 EQ PUSH2 0x5F6 JUMPI DUP1 PUSH4 0x31F9E35B EQ PUSH2 0x614 JUMPI DUP1 PUSH4 0x32CB6B0C EQ PUSH2 0x632 JUMPI DUP1 PUSH4 0x3644E515 EQ PUSH2 0x650 JUMPI DUP1 PUSH4 0x36568ABE EQ PUSH2 0x66E JUMPI PUSH2 0x426 JUMP JUMPDEST DUP1 PUSH4 0x248A9CA3 EQ PUSH2 0x56E JUMPI DUP1 PUSH4 0x282C51F3 EQ PUSH2 0x59E JUMPI DUP1 PUSH4 0x2F2FF15D EQ PUSH2 0x5BC JUMPI DUP1 PUSH4 0x2FF2E9DC EQ PUSH2 0x5D8 JUMPI PUSH2 0x426 JUMP JUMPDEST DUP1 PUSH4 0x1531B62A GT PUSH2 0x3F9 JUMPI DUP1 PUSH4 0x1531B62A EQ PUSH2 0x4C6 JUMPI DUP1 PUSH4 0x18160DDD EQ PUSH2 0x4E4 JUMPI DUP1 PUSH4 0x1C59DF3A EQ PUSH2 0x502 JUMPI DUP1 PUSH4 0x2131C68C EQ PUSH2 0x520 JUMPI DUP1 PUSH4 0x23B872DD EQ PUSH2 0x53E JUMPI PUSH2 0x426 JUMP JUMPDEST DUP1 PUSH4 0x1FFC9A7 EQ PUSH2 0x42A JUMPI DUP1 PUSH4 0x3FE8734 EQ PUSH2 0x45A JUMPI DUP1 PUSH4 0x6FDDE03 EQ PUSH2 0x478 JUMPI DUP1 PUSH4 0x95EA7B3 EQ PUSH2 0x496 JUMPI JUMPDEST PUSH0 PUSH0 REVERT JUMPDEST PUSH2 0x444 PUSH1 0x4 DUP1 CALLDATASIZE SUB DUP2 ADD SWAP1 PUSH2 0x43F SWAP2 SWAP1 PUSH2 0x4706 JUMP JUMPDEST PUSH2 0xDAC JUMP JUMPDEST PUSH1 0x40 MLOAD PUSH2 0x451 SWAP2 SWAP1 PUSH2 0x474B JUMP JUMPDEST PUSH1 0x40 MLOAD DUP1 SWAP2 SUB SWAP1 RETURN JUMPDEST PUSH2 0x462 PUSH2 0xDBD JUMP JUMPDEST PUSH1 0x40 MLOAD PUSH2 0x46F SWAP2 SWAP1 PUSH2 0x477C JUMP JUMPDEST PUSH1 0x40 MLOAD DUP1 SWAP2 SUB SWAP1 RETURN JUMPDEST PUSH2 0x480 PUSH2 0xDC9 JUMP JUMPDEST PUSH1 0x40 MLOAD PUSH2 0x48D SWAP2 SWAP1 PUSH2 0x4805 JUMP JUMPDEST PUSH1 0x40 MLOAD DUP1 SWAP2 SUB SWAP1 RETURN JUMPDEST PUSH2 0x4B0 PUSH1 0x4 DUP1 CALLDATASIZE SUB DUP2 ADD SWAP1 PUSH2 0x4AB SWAP2 SWAP1 PUSH2 0x48A9 JUMP JUMPDEST PUSH2 0xE59 JUMP JUMPDEST PUSH1 0x40 MLOAD PUSH2 0x4BD SWAP2 SWAP1 PUSH2 0x474B JUMP JUMPDEST PUSH1 0x40 MLOAD DUP1 SWAP2 SUB SWAP1 RETURN JUMPDEST PUSH2 0x4CE PUSH2 0xE7B JUMP JUMPDEST PUSH1 0x40 MLOAD PUSH2 0x4DB SWAP2 SWAP1 PUSH2 0x477C JUMP JUMPDEST PUSH1 0x40 MLOAD DUP1 SWAP2 SUB SWAP1 RETURN JUMPDEST PUSH2 0x4EC PUSH2 0xE81 JUMP JUMPDEST PUSH1 0x40 MLOAD PUSH2 0x4F9 SWAP2 SWAP1 PUSH2 0x477C JUMP JUMPDEST PUSH1 0x40 MLOAD DUP1 SWAP2 SUB SWAP1 RETURN JUMPDEST PUSH2 0x50A PUSH2 0xE8A JUMP JUMPDEST PUSH1 0x40 MLOAD PUSH2 0x517 SWAP2 SWAP1 PUSH2 0x477C JUMP JUMPDEST PUSH1 0x40 MLOAD DUP1 SWAP2 SUB SWAP1 RETURN JUMPDEST PUSH2 0x528 PUSH2 0xE97 JUMP JUMPDEST PUSH1 0x40 MLOAD PUSH2 0x535 SWAP2 SWAP1 PUSH2 0x48F6 JUMP JUMPDEST PUSH1 0x40 MLOAD DUP1 SWAP2 SUB SWAP1 RETURN JUMPDEST PUSH2 0x558 PUSH1 0x4 DUP1 CALLDATASIZE SUB DUP2 ADD SWAP1 PUSH2 0x553 SWAP2 SWAP1 PUSH2 0x490F JUMP JUMPDEST PUSH2 0xEBC JUMP JUMPDEST PUSH1 0x40 MLOAD PUSH2 0x565 SWAP2 SWAP1 PUSH2 0x474B JUMP JUMPDEST PUSH1 0x40 MLOAD DUP1 SWAP2 SUB SWAP1 RETURN JUMPDEST PUSH2 0x588 PUSH1 0x4 DUP1 CALLDATASIZE SUB DUP2 ADD SWAP1 PUSH2 0x583 SWAP2 SWAP1 PUSH2 0x4992 JUMP JUMPDEST PUSH2 0xEEA JUMP JUMPDEST PUSH1 0x40 MLOAD PUSH2 0x595 SWAP2 SWAP1 PUSH2 0x49CC JUMP JUMPDEST PUSH1 0x40 MLOAD DUP1 SWAP2 SUB SWAP1 RETURN JUMPDEST PUSH2 0x5A6 PUSH2 0xF07 JUMP JUMPDEST PUSH1 0x40 MLOAD PUSH2 0x5B3 SWAP2 SWAP1 PUSH2 0x49CC JUMP JUMPDEST PUSH1 0x40 MLOAD DUP1 SWAP2 SUB SWAP1 RETURN JUMPDEST PUSH2 0x5D6 PUSH1 0x4 DUP1 CALLDATASIZE SUB DUP2 ADD SWAP1 PUSH2 0x5D1 SWAP2 SWAP1 PUSH2 0x49E5 JUMP JUMPDEST PUSH2 0xF2B JUMP JUMPDEST STOP JUMPDEST PUSH2 0x5E0 PUSH2 0xF4D JUMP JUMPDEST PUSH1 0x40 MLOAD PUSH2 0x5ED SWAP2 SWAP1 PUSH2 0x477C JUMP JUMPDEST PUSH1 0x40 MLOAD DUP1 SWAP2 SUB SWAP1 RETURN JUMPDEST PUSH2 0x5FE PUSH2 0xF5C JUMP JUMPDEST PUSH1 0x40 MLOAD PUSH2 0x60B SWAP2 SWAP1 PUSH2 0x4A3E JUMP JUMPDEST PUSH1 0x40 MLOAD DUP1 SWAP2 SUB SWAP1 RETURN JUMPDEST PUSH2 0x61C PUSH2 0xF64 JUMP JUMPDEST PUSH1 0x40 MLOAD PUSH2 0x629 SWAP2 SWAP1 PUSH2 0x477C JUMP JUMPDEST PUSH1 0x40 MLOAD DUP1 SWAP2 SUB SWAP1 RETURN JUMPDEST PUSH2 0x63A PUSH2 0xF6A JUMP JUMPDEST PUSH1 0x40 MLOAD PUSH2 0x647 SWAP2 SWAP1 PUSH2 0x477C JUMP JUMPDEST PUSH1 0x40 MLOAD DUP1 SWAP2 SUB SWAP1 RETURN JUMPDEST PUSH2 0x658 PUSH2 0xF7A JUMP JUMPDEST PUSH1 0x40 MLOAD PUSH2 0x665 SWAP2 SWAP1 PUSH2 0x49CC JUMP JUMPDEST PUSH1 0x40 MLOAD DUP1 SWAP2 SUB SWAP1 RETURN JUMPDEST PUSH2 0x688 PUSH1 0x4 DUP1 CALLDATASIZE SUB DUP2 ADD SWAP1 PUSH2 0x683 SWAP2 SWAP1 PUSH2 0x49E5 JUMP JUMPDEST PUSH2 0xF88 JUMP JUMPDEST STOP JUMPDEST PUSH2 0x6A4 PUSH1 0x4 DUP1 CALLDATASIZE SUB DUP2 ADD SWAP1 PUSH2 0x69F SWAP2 SWAP1 PUSH2 0x48A9 JUMP JUMPDEST PUSH2 0x1003 JUMP JUMPDEST PUSH1 0x40 MLOAD PUSH2 0x6B1 SWAP2 SWAP1 PUSH2 0x477C JUMP JUMPDEST PUSH1 0x40 MLOAD DUP1 SWAP2 SUB SWAP1 RETURN JUMPDEST PUSH2 0x6C2 PUSH2 0x107F JUMP JUMPDEST PUSH1 0x40 MLOAD PUSH2 0x6CF SWAP2 SWAP1 PUSH2 0x4A93 JUMP JUMPDEST PUSH1 0x40 MLOAD DUP1 SWAP2 SUB SWAP1 RETURN JUMPDEST PUSH2 0x6E0 PUSH2 0x10B7 JUMP JUMPDEST STOP JUMPDEST PUSH2 0x6FC PUSH1 0x4 DUP1 CALLDATASIZE SUB DUP2 ADD SWAP1 PUSH2 0x6F7 SWAP2 SWAP1 PUSH2 0x48A9 JUMP JUMPDEST PUSH2 0x10EC JUMP JUMPDEST STOP JUMPDEST PUSH2 0x718 PUSH1 0x4 DUP1 CALLDATASIZE SUB DUP2 ADD SWAP1 PUSH2 0x713 SWAP2 SWAP1 PUSH2 0x4AAC JUMP JUMPDEST PUSH2 0x1185 JUMP JUMPDEST STOP JUMPDEST PUSH2 0x734 PUSH1 0x4 DUP1 CALLDATASIZE SUB DUP2 ADD SWAP1 PUSH2 0x72F SWAP2 SWAP1 PUSH2 0x4AD7 JUMP JUMPDEST PUSH2 0x11D4 JUMP JUMPDEST PUSH1 0x40 MLOAD PUSH2 0x741 SWAP2 SWAP1 PUSH2 0x477C JUMP JUMPDEST PUSH1 0x40 MLOAD DUP1 SWAP2 SUB SWAP1 RETURN JUMPDEST PUSH2 0x752 PUSH2 0x11E9 JUMP JUMPDEST PUSH1 0x40 MLOAD PUSH2 0x75F SWAP2 SWAP1 PUSH2 0x4805 JUMP JUMPDEST PUSH1 0x40 MLOAD DUP1 SWAP2 SUB SWAP1 RETURN JUMPDEST PUSH2 0x782 PUSH1 0x4 DUP1 CALLDATASIZE SUB DUP2 ADD SWAP1 PUSH2 0x77D SWAP2 SWAP1 PUSH2 0x4AD7 JUMP JUMPDEST PUSH2 0x127D JUMP JUMPDEST PUSH1 0x40 MLOAD PUSH2 0x78F SWAP2 SWAP1 PUSH2 0x48F6 JUMP JUMPDEST PUSH1 0x40 MLOAD DUP1 SWAP2 SUB SWAP1 RETURN JUMPDEST PUSH2 0x7B2 PUSH1 0x4 DUP1 CALLDATASIZE SUB DUP2 ADD SWAP1 PUSH2 0x7AD SWAP2 SWAP1 PUSH2 0x4AD7 JUMP JUMPDEST PUSH2 0x12E2 JUMP JUMPDEST STOP JUMPDEST PUSH2 0x7BC PUSH2 0x12FB JUMP JUMPDEST PUSH1 0x40 MLOAD PUSH2 0x7C9 SWAP2 SWAP1 PUSH2 0x474B JUMP JUMPDEST PUSH1 0x40 MLOAD DUP1 SWAP2 SUB SWAP1 RETURN JUMPDEST PUSH2 0x7EC PUSH1 0x4 DUP1 CALLDATASIZE SUB DUP2 ADD SWAP1 PUSH2 0x7E7 SWAP2 SWAP1 PUSH2 0x4AD7 JUMP JUMPDEST PUSH2 0x1310 JUMP JUMPDEST PUSH1 0x40 MLOAD PUSH2 0x7F9 SWAP2 SWAP1 PUSH2 0x477C JUMP JUMPDEST PUSH1 0x40 MLOAD DUP1 SWAP2 SUB SWAP1 RETURN JUMPDEST PUSH2 0x81C PUSH1 0x4 DUP1 CALLDATASIZE SUB DUP2 ADD SWAP1 PUSH2 0x817 SWAP2 SWAP1 PUSH2 0x4AAC JUMP JUMPDEST PUSH2 0x1325 JUMP JUMPDEST STOP JUMPDEST PUSH2 0x838 PUSH1 0x4 DUP1 CALLDATASIZE SUB DUP2 ADD SWAP1 PUSH2 0x833 SWAP2 SWAP1 PUSH2 0x4C2E JUMP JUMPDEST PUSH2 0x1486 JUMP JUMPDEST PUSH1 0x40 MLOAD PUSH2 0x845 SWAP2 SWAP1 PUSH2 0x477C JUMP JUMPDEST PUSH1 0x40 MLOAD DUP1 SWAP2 SUB SWAP1 RETURN JUMPDEST PUSH2 0x868 PUSH1 0x4 DUP1 CALLDATASIZE SUB DUP2 ADD SWAP1 PUSH2 0x863 SWAP2 SWAP1 PUSH2 0x4C75 JUMP JUMPDEST PUSH2 0x14AD JUMP JUMPDEST PUSH1 0x40 MLOAD PUSH2 0x875 SWAP2 SWAP1 PUSH2 0x477C JUMP JUMPDEST PUSH1 0x40 MLOAD DUP1 SWAP2 SUB SWAP1 RETURN JUMPDEST PUSH2 0x886 PUSH2 0x14E5 JUMP JUMPDEST STOP JUMPDEST PUSH2 0x890 PUSH2 0x1500 JUMP JUMPDEST PUSH1 0x40 MLOAD PUSH2 0x89D SWAP2 SWAP1 PUSH2 0x49CC JUMP JUMPDEST PUSH1 0x40 MLOAD DUP1 SWAP2 SUB SWAP1 RETURN JUMPDEST PUSH2 0x8C0 PUSH1 0x4 DUP1 CALLDATASIZE SUB DUP2 ADD SWAP1 PUSH2 0x8BB SWAP2 SWAP1 PUSH2 0x4AD7 JUMP JUMPDEST PUSH2 0x1524 JUMP JUMPDEST PUSH1 0x40 MLOAD PUSH2 0x8CD SWAP2 SWAP1 PUSH2 0x477C JUMP JUMPDEST PUSH1 0x40 MLOAD DUP1 SWAP2 SUB SWAP1 RETURN JUMPDEST PUSH2 0x8F0 PUSH1 0x4 DUP1 CALLDATASIZE SUB DUP2 ADD SWAP1 PUSH2 0x8EB SWAP2 SWAP1 PUSH2 0x4AAC JUMP JUMPDEST PUSH2 0x1569 JUMP JUMPDEST STOP JUMPDEST PUSH2 0x90C PUSH1 0x4 DUP1 CALLDATASIZE SUB DUP2 ADD SWAP1 PUSH2 0x907 SWAP2 SWAP1 PUSH2 0x48A9 JUMP JUMPDEST PUSH2 0x16CC JUMP JUMPDEST STOP JUMPDEST PUSH2 0x928 PUSH1 0x4 DUP1 CALLDATASIZE SUB DUP2 ADD SWAP1 PUSH2 0x923 SWAP2 SWAP1 PUSH2 0x4AD7 JUMP JUMPDEST PUSH2 0x1710 JUMP JUMPDEST PUSH1 0x40 MLOAD PUSH2 0x935 SWAP2 SWAP1 PUSH2 0x477C JUMP JUMPDEST PUSH1 0x40 MLOAD DUP1 SWAP2 SUB SWAP1 RETURN JUMPDEST PUSH2 0x946 PUSH2 0x1721 JUMP JUMPDEST PUSH1 0x40 MLOAD PUSH2 0x953 SWAP2 SWAP1 PUSH2 0x477C JUMP JUMPDEST PUSH1 0x40 MLOAD DUP1 SWAP2 SUB SWAP1 RETURN JUMPDEST PUSH2 0x964 PUSH2 0x1727 JUMP JUMPDEST STOP JUMPDEST PUSH2 0x96E PUSH2 0x175C JUMP JUMPDEST PUSH1 0x40 MLOAD PUSH2 0x981 SWAP8 SWAP7 SWAP6 SWAP5 SWAP4 SWAP3 SWAP2 SWAP1 PUSH2 0x4DB1 JUMP JUMPDEST PUSH1 0x40 MLOAD DUP1 SWAP2 SUB SWAP1 RETURN JUMPDEST PUSH2 0x992 PUSH2 0x1801 JUMP JUMPDEST PUSH1 0x40 MLOAD PUSH2 0x99F SWAP2 SWAP1 PUSH2 0x477C JUMP JUMPDEST PUSH1 0x40 MLOAD DUP1 SWAP2 SUB SWAP1 RETURN JUMPDEST PUSH2 0x9C2 PUSH1 0x4 DUP1 CALLDATASIZE SUB DUP2 ADD SWAP1 PUSH2 0x9BD SWAP2 SWAP1 PUSH2 0x4AAC JUMP JUMPDEST PUSH2 0x180D JUMP JUMPDEST PUSH1 0x40 MLOAD PUSH2 0x9CF SWAP2 SWAP1 PUSH2 0x477C JUMP JUMPDEST PUSH1 0x40 MLOAD DUP1 SWAP2 SUB SWAP1 RETURN JUMPDEST PUSH2 0x9F2 PUSH1 0x4 DUP1 CALLDATASIZE SUB DUP2 ADD SWAP1 PUSH2 0x9ED SWAP2 SWAP1 PUSH2 0x49E5 JUMP JUMPDEST PUSH2 0x184D JUMP JUMPDEST PUSH1 0x40 MLOAD PUSH2 0x9FF SWAP2 SWAP1 PUSH2 0x474B JUMP JUMPDEST PUSH1 0x40 MLOAD DUP1 SWAP2 SUB SWAP1 RETURN JUMPDEST PUSH2 0xA10 PUSH2 0x18B1 JUMP JUMPDEST PUSH1 0x40 MLOAD PUSH2 0xA1D SWAP2 SWAP1 PUSH2 0x4E53 JUMP JUMPDEST PUSH1 0x40 MLOAD DUP1 SWAP2 SUB SWAP1 RETURN JUMPDEST PUSH2 0xA2E PUSH2 0x18BF JUMP JUMPDEST PUSH1 0x40 MLOAD PUSH2 0xA3B SWAP2 SWAP1 PUSH2 0x4805 JUMP JUMPDEST PUSH1 0x40 MLOAD DUP1 SWAP2 SUB SWAP1 RETURN JUMPDEST PUSH2 0xA5E PUSH1 0x4 DUP1 CALLDATASIZE SUB DUP2 ADD SWAP1 PUSH2 0xA59 SWAP2 SWAP1 PUSH2 0x4AD7 JUMP JUMPDEST PUSH2 0x194F JUMP JUMPDEST STOP JUMPDEST PUSH2 0xA7A PUSH1 0x4 DUP1 CALLDATASIZE SUB DUP2 ADD SWAP1 PUSH2 0xA75 SWAP2 SWAP1 PUSH2 0x4AD7 JUMP JUMPDEST PUSH2 0x199F JUMP JUMPDEST PUSH1 0x40 MLOAD PUSH2 0xA87 SWAP2 SWAP1 PUSH2 0x477C JUMP JUMPDEST PUSH1 0x40 MLOAD DUP1 SWAP2 SUB SWAP1 RETURN JUMPDEST PUSH2 0xA98 PUSH2 0x1A08 JUMP JUMPDEST PUSH1 0x40 MLOAD PUSH2 0xAA5 SWAP2 SWAP1 PUSH2 0x49CC JUMP JUMPDEST PUSH1 0x40 MLOAD DUP1 SWAP2 SUB SWAP1 RETURN JUMPDEST PUSH2 0xAC8 PUSH1 0x4 DUP1 CALLDATASIZE SUB DUP2 ADD SWAP1 PUSH2 0xAC3 SWAP2 SWAP1 PUSH2 0x48A9 JUMP JUMPDEST PUSH2 0x1A0E JUMP JUMPDEST PUSH1 0x40 MLOAD PUSH2 0xAD5 SWAP2 SWAP1 PUSH2 0x474B JUMP JUMPDEST PUSH1 0x40 MLOAD DUP1 SWAP2 SUB SWAP1 RETURN JUMPDEST PUSH2 0xAF8 PUSH1 0x4 DUP1 CALLDATASIZE SUB DUP2 ADD SWAP1 PUSH2 0xAF3 SWAP2 SWAP1 PUSH2 0x4E6C JUMP JUMPDEST PUSH2 0x1A30 JUMP JUMPDEST STOP JUMPDEST PUSH2 0xB14 PUSH1 0x4 DUP1 CALLDATASIZE SUB DUP2 ADD SWAP1 PUSH2 0xB0F SWAP2 SWAP1 PUSH2 0x4AD7 JUMP JUMPDEST PUSH2 0x1AE0 JUMP JUMPDEST PUSH1 0x40 MLOAD PUSH2 0xB21 SWAP2 SWAP1 PUSH2 0x477C JUMP JUMPDEST PUSH1 0x40 MLOAD DUP1 SWAP2 SUB SWAP1 RETURN JUMPDEST PUSH2 0xB44 PUSH1 0x4 DUP1 CALLDATASIZE SUB DUP2 ADD SWAP1 PUSH2 0xB3F SWAP2 SWAP1 PUSH2 0x4C75 JUMP JUMPDEST PUSH2 0x1B39 JUMP JUMPDEST STOP JUMPDEST PUSH2 0xB4E PUSH2 0x1F07 JUMP JUMPDEST PUSH1 0x40 MLOAD PUSH2 0xB5B SWAP2 SWAP1 PUSH2 0x477C JUMP JUMPDEST PUSH1 0x40 MLOAD DUP1 SWAP2 SUB SWAP1 RETURN JUMPDEST PUSH2 0xB7E PUSH1 0x4 DUP1 CALLDATASIZE SUB DUP2 ADD SWAP1 PUSH2 0xB79 SWAP2 SWAP1 PUSH2 0x4EF0 JUMP JUMPDEST PUSH2 0x1F14 JUMP JUMPDEST STOP JUMPDEST PUSH2 0xB88 PUSH2 0x1FD9 JUMP JUMPDEST PUSH1 0x40 MLOAD PUSH2 0xB95 SWAP2 SWAP1 PUSH2 0x477C JUMP JUMPDEST PUSH1 0x40 MLOAD DUP1 SWAP2 SUB SWAP1 RETURN JUMPDEST PUSH2 0xBB8 PUSH1 0x4 DUP1 CALLDATASIZE SUB DUP2 ADD SWAP1 PUSH2 0xBB3 SWAP2 SWAP1 PUSH2 0x4F79 JUMP JUMPDEST PUSH2 0x1FE6 JUMP JUMPDEST STOP JUMPDEST PUSH2 0xBC2 PUSH2 0x212B JUMP JUMPDEST PUSH1 0x40 MLOAD PUSH2 0xBCF SWAP2 SWAP1 PUSH2 0x49CC JUMP JUMPDEST PUSH1 0x40 MLOAD DUP1 SWAP2 SUB SWAP1 RETURN JUMPDEST PUSH2 0xBF2 PUSH1 0x4 DUP1 CALLDATASIZE SUB DUP2 ADD SWAP1 PUSH2 0xBED SWAP2 SWAP1 PUSH2 0x49E5 JUMP JUMPDEST PUSH2 0x214F JUMP JUMPDEST STOP JUMPDEST PUSH2 0xBFC PUSH2 0x2171 JUMP JUMPDEST PUSH1 0x40 MLOAD PUSH2 0xC09 SWAP2 SWAP1 PUSH2 0x477C JUMP JUMPDEST PUSH1 0x40 MLOAD DUP1 SWAP2 SUB SWAP1 RETURN JUMPDEST PUSH2 0xC2C PUSH1 0x4 DUP1 CALLDATASIZE SUB DUP2 ADD SWAP1 PUSH2 0xC27 SWAP2 SWAP1 PUSH2 0x4AD7 JUMP JUMPDEST PUSH2 0x217D JUMP JUMPDEST PUSH1 0x40 MLOAD PUSH2 0xC39 SWAP2 SWAP1 PUSH2 0x477C JUMP JUMPDEST PUSH1 0x40 MLOAD DUP1 SWAP2 SUB SWAP1 RETURN JUMPDEST PUSH2 0xC4A PUSH2 0x2192 JUMP JUMPDEST PUSH1 0x40 MLOAD PUSH2 0xC57 SWAP2 SWAP1 PUSH2 0x477C JUMP JUMPDEST PUSH1 0x40 MLOAD DUP1 SWAP2 SUB SWAP1 RETURN JUMPDEST PUSH2 0xC7A PUSH1 0x4 DUP1 CALLDATASIZE SUB DUP2 ADD SWAP1 PUSH2 0xC75 SWAP2 SWAP1 PUSH2 0x5016 JUMP JUMPDEST PUSH2 0x219E JUMP JUMPDEST PUSH1 0x40 MLOAD PUSH2 0xC87 SWAP2 SWAP1 PUSH2 0x477C JUMP JUMPDEST PUSH1 0x40 MLOAD DUP1 SWAP2 SUB SWAP1 RETURN JUMPDEST PUSH2 0xC98 PUSH2 0x2220 JUMP JUMPDEST STOP JUMPDEST PUSH2 0xCA2 PUSH2 0x22CE JUMP JUMPDEST PUSH1 0x40 MLOAD PUSH2 0xCAF SWAP2 SWAP1 PUSH2 0x49CC JUMP JUMPDEST PUSH1 0x40 MLOAD DUP1 SWAP2 SUB SWAP1 RETURN JUMPDEST PUSH2 0xCD2 PUSH1 0x4 DUP1 CALLDATASIZE SUB DUP2 ADD SWAP1 PUSH2 0xCCD SWAP2 SWAP1 PUSH2 0x5054 JUMP JUMPDEST PUSH2 0x22F2 JUMP JUMPDEST STOP JUMPDEST PUSH2 0xCDC PUSH2 0x23A2 JUMP JUMPDEST PUSH1 0x40 MLOAD PUSH2 0xCE9 SWAP2 SWAP1 PUSH2 0x477C JUMP JUMPDEST PUSH1 0x40 MLOAD DUP1 SWAP2 SUB SWAP1 RETURN JUMPDEST PUSH2 0xCFA PUSH2 0x23A8 JUMP JUMPDEST PUSH1 0x40 MLOAD PUSH2 0xD07 SWAP2 SWAP1 PUSH2 0x477C JUMP JUMPDEST PUSH1 0x40 MLOAD DUP1 SWAP2 SUB SWAP1 RETURN JUMPDEST PUSH2 0xD2A PUSH1 0x4 DUP1 CALLDATASIZE SUB DUP2 ADD SWAP1 PUSH2 0xD25 SWAP2 SWAP1 PUSH2 0x4C75 JUMP JUMPDEST PUSH2 0x23B0 JUMP JUMPDEST PUSH1 0x40 MLOAD PUSH2 0xD37 SWAP2 SWAP1 PUSH2 0x477C JUMP JUMPDEST PUSH1 0x40 MLOAD DUP1 SWAP2 SUB SWAP1 RETURN JUMPDEST PUSH2 0xD5A PUSH1 0x4 DUP1 CALLDATASIZE SUB DUP2 ADD SWAP1 PUSH2 0xD55 SWAP2 SWAP1 PUSH2 0x4C2E JUMP JUMPDEST PUSH2 0x23E8 JUMP JUMPDEST PUSH1 0x40 MLOAD PUSH2 0xD67 SWAP2 SWAP1 PUSH2 0x477C JUMP JUMPDEST PUSH1 0x40 MLOAD DUP1 SWAP2 SUB SWAP1 RETURN JUMPDEST PUSH2 0xD78 PUSH2 0x2415 JUMP JUMPDEST PUSH1 0x40 MLOAD PUSH2 0xD85 SWAP2 SWAP1 PUSH2 0x477C JUMP JUMPDEST PUSH1 0x40 MLOAD DUP1 SWAP2 SUB SWAP1 RETURN JUMPDEST PUSH2 0xD96 PUSH2 0x2421 JUMP JUMPDEST PUSH1 0x40 MLOAD PUSH2 0xDA3 SWAP2 SWAP1 PUSH2 0x477C JUMP JUMPDEST PUSH1 0x40 MLOAD DUP1 SWAP2 SUB SWAP1 RETURN JUMPDEST PUSH0 PUSH2 0xDB6 DUP3 PUSH2 0x242D JUMP JUMPDEST SWAP1 POP SWAP2 SWAP1 POP JUMP JUMPDEST PUSH8 0xDE0B6B3A7640000 DUP2 JUMP JUMPDEST PUSH1 0x60 PUSH1 0x3 DUP1 SLOAD PUSH2 0xDD8 SWAP1 PUSH2 0x50DB JUMP JUMPDEST DUP1 PUSH1 0x1F ADD PUSH1 0x20 DUP1 SWAP2 DIV MUL PUSH1 0x20 ADD PUSH1 0x40 MLOAD SWAP1 DUP2 ADD PUSH1 0x40 MSTORE DUP1 SWAP3 SWAP2 SWAP1 DUP2 DUP2 MSTORE PUSH1 0x20 ADD DUP3 DUP1 SLOAD PUSH2 0xE04 SWAP1 PUSH2 0x50DB JUMP JUMPDEST DUP1 ISZERO PUSH2 0xE4F JUMPI DUP1 PUSH1 0x1F LT PUSH2 0xE26 JUMPI PUSH2 0x100 DUP1 DUP4 SLOAD DIV MUL DUP4 MSTORE SWAP2 PUSH1 0x20 ADD SWAP2 PUSH2 0xE4F JUMP JUMPDEST DUP3 ADD SWAP2 SWAP1 PUSH0 MSTORE PUSH1 0x20 PUSH0 KECCAK256 SWAP1 JUMPDEST DUP2 SLOAD DUP2 MSTORE SWAP1 PUSH1 0x1 ADD SWAP1 PUSH1 0x20 ADD DUP1 DUP4 GT PUSH2 0xE32 JUMPI DUP3 SWAP1 SUB PUSH1 0x1F AND DUP3 ADD SWAP2 JUMPDEST POP POP POP POP POP SWAP1 POP SWAP1 JUMP JUMPDEST PUSH0 PUSH0 PUSH2 0xE63 PUSH2 0x24A6 JUMP JUMPDEST SWAP1 POP PUSH2 0xE70 DUP2 DUP6 DUP6 PUSH2 0x24AD JUMP JUMPDEST PUSH1 0x1 SWAP2 POP POP SWAP3 SWAP2 POP POP JUMP JUMPDEST PUSH1 0x14 SLOAD DUP2 JUMP JUMPDEST PUSH0 PUSH1 0x2 SLOAD SWAP1 POP SWAP1 JUMP JUMPDEST PUSH9 0x2B5E3AF16B1880000 DUP2 JUMP JUMPDEST PUSH1 0xE PUSH0 SWAP1 SLOAD SWAP1 PUSH2 0x100 EXP SWAP1 DIV PUSH20 0xFFFFFFFFFFFFFFFFFFFFFFFFFFFFFFFFFFFFFFFF AND DUP2 JUMP JUMPDEST PUSH0 PUSH0 PUSH2 0xEC6 PUSH2 0x24A6 JUMP JUMPDEST SWAP1 POP PUSH2 0xED3 DUP6 DUP3 DUP6 PUSH2 0x24BF JUMP JUMPDEST PUSH2 0xEDE DUP6 DUP6 DUP6 PUSH2 0x2552 JUMP JUMPDEST PUSH1 0x1 SWAP2 POP POP SWAP4 SWAP3 POP POP POP JUMP JUMPDEST PUSH0 PUSH1 0xB PUSH0 DUP4 DUP2 MSTORE PUSH1 0x20 ADD SWAP1 DUP2 MSTORE PUSH1 0x20 ADD PUSH0 KECCAK256 PUSH1 0x1 ADD SLOAD SWAP1 POP SWAP2 SWAP1 POP JUMP JUMPDEST PUSH32 0x3C11D16CBAFFD01DF69CE1C404F6340EE057498F5F00246190EA54220576A848 DUP2 JUMP JUMPDEST PUSH2 0xF34 DUP3 PUSH2 0xEEA JUMP JUMPDEST PUSH2 0xF3D DUP2 PUSH2 0x2642 JUMP JUMPDEST PUSH2 0xF47 DUP4 DUP4 PUSH2 0x2656 JUMP JUMPDEST POP POP POP POP JUMP JUMPDEST PUSH11 0x52B7D2DCC80CD2E4000000 DUP2 JUMP JUMPDEST PUSH0 PUSH1 0x12 SWAP1 POP SWAP1 JUMP JUMPDEST PUSH1 0x17 SLOAD DUP2 JUMP JUMPDEST PUSH12 0x33B2E3C9FD0803CE8000000 DUP2 JUMP JUMPDEST PUSH0 PUSH2 0xF83 PUSH2 0x2740 JUMP JUMPDEST SWAP1 POP SWAP1 JUMP JUMPDEST PUSH2 0xF90 PUSH2 0x24A6 JUMP JUMPDEST PUSH20 0xFFFFFFFFFFFFFFFFFFFFFFFFFFFFFFFFFFFFFFFF AND DUP2 PUSH20 0xFFFFFFFFFFFFFFFFFFFFFFFFFFFFFFFFFFFFFFFF AND EQ PUSH2 0xFF4 JUMPI PUSH1 0x40 MLOAD PUSH32 0x6697B23200000000000000000000000000000000000000000000000000000000 DUP2 MSTORE PUSH1 0x4 ADD PUSH1 0x40 MLOAD DUP1 SWAP2 SUB SWAP1 REVERT JUMPDEST PUSH2 0xFFE DUP3 DUP3 PUSH2 0x27F6 JUMP JUMPDEST POP POP POP JUMP JUMPDEST PUSH0 PUSH2 0x105B PUSH2 0x1010 DUP4 PUSH2 0x28E0 JUMP JUMPDEST PUSH1 0x9 PUSH0 DUP7 PUSH20 0xFFFFFFFFFFFFFFFFFFFFFFFFFFFFFFFFFFFFFFFF AND PUSH20 0xFFFFFFFFFFFFFFFFFFFFFFFFFFFFFFFFFFFFFFFF AND DUP2 MSTORE PUSH1 0x20 ADD SWAP1 DUP2 MSTORE PUSH1 0x20 ADD PUSH0 KECCAK256 PUSH2 0x294B SWAP1 SWAP2 SWAP1 PUSH4 0xFFFFFFFF AND JUMP JUMPDEST PUSH26 0xFFFFFFFFFFFFFFFFFFFFFFFFFFFFFFFFFFFFFFFFFFFFFFFFFFFF AND SWAP1 POP SWAP3 SWAP2 POP POP JUMP JUMPDEST PUSH2 0x1087 PUSH2 0x4688 JUMP JUMPDEST PUSH0 PUSH1 0x40 MLOAD DUP1 PUSH1 0x40 ADD PUSH1 0x40 MSTORE DUP1 PUSH8 0x8AC7230489E80000 DUP2 MSTORE PUSH1 0x20 ADD PUSH9 0x3635C9ADC5DEA00000 DUP2 MSTORE POP SWAP1 POP DUP1 SWAP2 POP POP SWAP1 JUMP JUMPDEST PUSH32 0x65D7A28E3265B37A6474929F336521B332C1681B933F6CB9F3376673440D862A PUSH2 0x10E1 DUP2 PUSH2 0x2642 JUMP JUMPDEST PUSH2 0x10E9 PUSH2 0x2A3B JUMP JUMPDEST POP JUMP JUMPDEST PUSH32 0x9F2DF0FED2C77648DE5860A4CC508CD0818C85B8B8A1AB4CEEEF8D981C8956A6 PUSH2 0x1116 DUP2 PUSH2 0x2642 JUMP JUMPDEST PUSH2 0x111E PUSH2 0x2A9C JUMP JUMPDEST PUSH12 0x33B2E3C9FD0803CE8000000 DUP3 PUSH2 0x1134 PUSH2 0xE81 JUMP JUMPDEST PUSH2 0x113E SWAP2 SWAP1 PUSH2 0x5138 JUMP JUMPDEST GT ISZERO PUSH2 0x1176 JUMPI PUSH1 0x40 MLOAD PUSH32 0xC30436E900000000000000000000000000000000000000000000000000000000 DUP2 MSTORE PUSH1 0x4 ADD PUSH1 0x40 MLOAD DUP1 SWAP2 SUB SWAP1 REVERT JUMPDEST PUSH2 0x1180 DUP4 DUP4 PUSH2 0x2AE6 JUMP JUMPDEST POP POP POP JUMP JUMPDEST DUP1 PUSH2 0x118F CALLER PUSH2 0x1524 JUMP JUMPDEST LT ISZERO PUSH2 0x11C7 JUMPI PUSH1 0x40 MLOAD PUSH32 0xF4D678B800000000000000000000000000000000000000000000000000000000 DUP2 MSTORE PUSH1 0x4 ADD PUSH1 0x40 MLOAD DUP1 SWAP2 SUB SWAP1 REVERT JUMPDEST PUSH2 0x11D1 CALLER DUP3 PUSH2 0x2B65 JUMP JUMPDEST POP JUMP JUMPDEST PUSH1 0x15 PUSH1 0x20 MSTORE DUP1 PUSH0 MSTORE PUSH1 0x40 PUSH0 KECCAK256 PUSH0 SWAP2 POP SWAP1 POP SLOAD DUP2 JUMP JUMPDEST PUSH1 0x60 PUSH2 0x11F3 PUSH2 0x2BE4 JUMP JUMPDEST PUSH6 0xFFFFFFFFFFFF AND PUSH2 0x1203 PUSH2 0x18B1 JUMP JUMPDEST PUSH6 0xFFFFFFFFFFFF AND EQ PUSH2 0x1242 JUMPI PUSH1 0x40 MLOAD PUSH32 0x6FF0714000000000000000000000000000000000000000000000000000000000 DUP2 MSTORE PUSH1 0x4 ADD PUSH1 0x40 MLOAD DUP1 SWAP2 SUB SWAP1 REVERT JUMPDEST PUSH1 0x40 MLOAD DUP1 PUSH1 0x40 ADD PUSH1 0x40 MSTORE DUP1 PUSH1 0x1D DUP2 MSTORE PUSH1 0x20 ADD PUSH32 0x6D6F64653D626C6F636B6E756D6265722666726F6D3D64656661756C74000000 DUP2 MSTORE POP SWAP1 POP SWAP1 JUMP JUMPDEST PUSH0 PUSH1 0x8 PUSH0 DUP4 PUSH20 0xFFFFFFFFFFFFFFFFFFFFFFFFFFFFFFFFFFFFFFFF AND PUSH20 0xFFFFFFFFFFFFFFFFFFFFFFFFFFFFFFFFFFFFFFFF AND DUP2 MSTORE PUSH1 0x20 ADD SWAP1 DUP2 MSTORE PUSH1 0x20 ADD PUSH0 KECCAK256 PUSH0 SWAP1 SLOAD SWAP1 PUSH2 0x100 EXP SWAP1 DIV PUSH20 0xFFFFFFFFFFFFFFFFFFFFFFFFFFFFFFFFFFFFFFFF AND SWAP1 POP SWAP2 SWAP1 POP JUMP JUMPDEST PUSH0 PUSH2 0x12EB PUSH2 0x24A6 JUMP JUMPDEST SWAP1 POP PUSH2 0x12F7 DUP2 DUP4 PUSH2 0x2BF3 JUMP JUMPDEST POP POP JUMP JUMPDEST PUSH0 PUSH1 0xC PUSH0 SWAP1 SLOAD SWAP1 PUSH2 0x100 EXP SWAP1 DIV PUSH1 0xFF AND SWAP1 POP SWAP1 JUMP JUMPDEST PUSH1 0x12 PUSH1 0x20 MSTORE DUP1 PUSH0 MSTORE PUSH1 0x40 PUSH0 KECCAK256 PUSH0 SWAP2 POP SWAP1 POP SLOAD DUP2 JUMP JUMPDEST PUSH2 0x132D PUSH2 0x2C01 JUMP JUMPDEST PUSH0 DUP2 EQ DUP1 PUSH2 0x1377 JUMPI POP DUP1 PUSH1 0x12 PUSH0 CALLER PUSH20 0xFFFFFFFFFFFFFFFFFFFFFFFFFFFFFFFFFFFFFFFF AND PUSH20 0xFFFFFFFFFFFFFFFFFFFFFFFFFFFFFFFFFFFFFFFF AND DUP2 MSTORE PUSH1 0x20 ADD SWAP1 DUP2 MSTORE PUSH1 0x20 ADD PUSH0 KECCAK256 SLOAD LT JUMPDEST ISZERO PUSH2 0x13AE JUMPI PUSH1 0x40 MLOAD PUSH32 0xF4D678B800000000000000000000000000000000000000000000000000000000 DUP2 MSTORE PUSH1 0x4 ADD PUSH1 0x40 MLOAD DUP1 SWAP2 SUB SWAP1 REVERT JUMPDEST PUSH2 0x13B7 CALLER PUSH2 0x2C50 JUMP JUMPDEST DUP1 PUSH1 0x12 PUSH0 CALLER PUSH20 0xFFFFFFFFFFFFFFFFFFFFFFFFFFFFFFFFFFFFFFFF AND PUSH20 0xFFFFFFFFFFFFFFFFFFFFFFFFFFFFFFFFFFFFFFFF AND DUP2 MSTORE PUSH1 0x20 ADD SWAP1 DUP2 MSTORE PUSH1 0x20 ADD PUSH0 KECCAK256 PUSH0 DUP3 DUP3 SLOAD PUSH2 0x1403 SWAP2 SWAP1 PUSH2 0x516B JUMP JUMPDEST SWAP3 POP POP DUP2 SWAP1 SSTORE POP DUP1 PUSH1 0x13 PUSH0 DUP3 DUP3 SLOAD PUSH2 0x141B SWAP2 SWAP1 PUSH2 0x516B JUMP JUMPDEST SWAP3 POP POP DUP2 SWAP1 SSTORE POP PUSH2 0x142D ADDRESS CALLER DUP4 PUSH2 0x2552 JUMP JUMPDEST CALLER PUSH20 0xFFFFFFFFFFFFFFFFFFFFFFFFFFFFFFFFFFFFFFFF AND PUSH32 0x9845E367B683334E5C0B12D7B81721AC518E649376FA65E3D68324E8F34F2679 DUP3 PUSH1 0x40 MLOAD PUSH2 0x1473 SWAP2 SWAP1 PUSH2 0x477C JUMP JUMPDEST PUSH1 0x40 MLOAD DUP1 SWAP2 SUB SWAP1 LOG2 PUSH2 0x1483 PUSH2 0x2E4B JUMP JUMPDEST POP JUMP JUMPDEST PUSH0 PUSH1 0xF DUP3 PUSH1 0x40 MLOAD PUSH2 0x1497 SWAP2 SWAP1 PUSH2 0x51D8 JUMP JUMPDEST SWAP1 DUP2 MSTORE PUSH1 0x20 ADD PUSH1 0x40 MLOAD DUP1 SWAP2 SUB SWAP1 KECCAK256 SLOAD SWAP1 POP SWAP2 SWAP1 POP JUMP JUMPDEST PUSH1 0x10 PUSH1 0x20 MSTORE DUP2 PUSH0 MSTORE PUSH1 0x40 PUSH0 KECCAK256 DUP2 DUP1 MLOAD PUSH1 0x20 DUP2 ADD DUP3 ADD DUP1 MLOAD DUP5 DUP3 MSTORE PUSH1 0x20 DUP4 ADD PUSH1 0x20 DUP6 ADD KECCAK256 DUP2 DUP4 MSTORE DUP1 SWAP6 POP POP POP POP POP POP PUSH0 SWAP2 POP SWAP2 POP POP SLOAD DUP2 JUMP JUMPDEST PUSH2 0x14ED PUSH2 0x2C01 JUMP JUMPDEST PUSH2 0x14F6 CALLER PUSH2 0x2C50 JUMP JUMPDEST PUSH2 0x14FE PUSH2 0x2E4B JUMP JUMPDEST JUMP JUMPDEST PUSH32 0xF51ADB3F49E4A9BBB17B3783F025995EAF8C24BE2C8EEFFF214BDFDA05EF94D DUP2 JUMP JUMPDEST PUSH0 PUSH0 PUSH0 DUP4 PUSH20 0xFFFFFFFFFFFFFFFFFFFFFFFFFFFFFFFFFFFFFFFF AND PUSH20 0xFFFFFFFFFFFFFFFFFFFFFFFFFFFFFFFFFFFFFFFF AND DUP2 MSTORE PUSH1 0x20 ADD SWAP1 DUP2 MSTORE PUSH1 0x20 ADD PUSH0 KECCAK256 SLOAD SWAP1 POP SWAP2 SWAP1 POP JUMP JUMPDEST PUSH2 0x1571 PUSH2 0x2C01 JUMP JUMPDEST PUSH2 0x1579 PUSH2 0x2A9C JUMP JUMPDEST PUSH0 DUP2 SUB PUSH2 0x15B2 JUMPI PUSH1 0x40 MLOAD PUSH32 0xF4D678B800000000000000000000000000000000000000000000000000000000 DUP2 MSTORE PUSH1 0x4 ADD PUSH1 0x40 MLOAD DUP1 SWAP2 SUB SWAP1 REVERT JUMPDEST DUP1 PUSH2 0x15BC CALLER PUSH2 0x1524 JUMP JUMPDEST LT ISZERO PUSH2 0x15F4 JUMPI PUSH1 0x40 MLOAD PUSH32 0xF4D678B800000000000000000000000000000000000000000000000000000000 DUP2 MSTORE PUSH1 0x4 ADD PUSH1 0x40 MLOAD DUP1 SWAP2 SUB SWAP1 REVERT JUMPDEST PUSH2 0x15FD CALLER PUSH2 0x2C50 JUMP JUMPDEST PUSH2 0x1608 CALLER ADDRESS DUP4 PUSH2 0x2552 JUMP JUMPDEST DUP1 PUSH1 0x12 PUSH0 CALLER PUSH20 0xFFFFFFFFFFFFFFFFFFFFFFFFFFFFFFFFFFFFFFFF AND PUSH20 0xFFFFFFFFFFFFFFFFFFFFFFFFFFFFFFFFFFFFFFFF AND DUP2 MSTORE PUSH1 0x20 ADD SWAP1 DUP2 MSTORE PUSH1 0x20 ADD PUSH0 KECCAK256 PUSH0 DUP3 DUP3 SLOAD PUSH2 0x1654 SWAP2 SWAP1 PUSH2 0x5138 JUMP JUMPDEST SWAP3 POP POP DUP2 SWAP1 SSTORE POP DUP1 PUSH1 0x13 PUSH0 DUP3 DUP3 SLOAD PUSH2 0x166C SWAP2 SWAP1 PUSH2 0x5138 JUMP JUMPDEST SWAP3 POP POP DUP2 SWAP1 SSTORE POP CALLER PUSH20 0xFFFFFFFFFFFFFFFFFFFFFFFFFFFFFFFFFFFFFFFF AND PUSH32 0xB539CA1E5C8D398DDF1C41C30166F33404941683BE4683319B57669A93DAD4EF DUP3 PUSH1 0x40 MLOAD PUSH2 0x16B9 SWAP2 SWAP1 PUSH2 0x477C JUMP JUMPDEST PUSH1 0x40 MLOAD DUP1 SWAP2 SUB SWAP1 LOG2 PUSH2 0x16C9 PUSH2 0x2E4B JUMP JUMPDEST POP JUMP JUMPDEST PUSH32 0x3C11D16CBAFFD01DF69CE1C404F6340EE057498F5F00246190EA54220576A848 PUSH2 0x16F6 DUP2 PUSH2 0x2642 JUMP JUMPDEST PUSH2 0x1701 DUP4 CALLER DUP5 PUSH2 0x24BF JUMP JUMPDEST PUSH2 0x170B DUP4 DUP4 PUSH2 0x2B65 JUMP JUMPDEST POP POP POP JUMP JUMPDEST PUSH0 PUSH2 0x171A DUP3 PUSH2 0x2E55 JUMP JUMPDEST SWAP1 POP SWAP2 SWAP1 POP JUMP JUMPDEST PUSH1 0x13 SLOAD DUP2 JUMP JUMPDEST PUSH32 0x65D7A28E3265B37A6474929F336521B332C1681B933F6CB9F3376673440D862A PUSH2 0x1751 DUP2 PUSH2 0x2642 JUMP JUMPDEST PUSH2 0x1759 PUSH2 0x2E66 JUMP JUMPDEST POP JUMP JUMPDEST PUSH0 PUSH1 0x60 DUP1 PUSH0 PUSH0 PUSH0 PUSH1 0x60 PUSH2 0x176D PUSH2 0x2EC8 JUMP JUMPDEST PUSH2 0x1775 PUSH2 0x2F03 JUMP JUMPDEST CHAINID ADDRESS PUSH0 PUSH0 SHL PUSH0 PUSH8 0xFFFFFFFFFFFFFFFF DUP2 GT ISZERO PUSH2 0x1794 JUMPI PUSH2 0x1793 PUSH2 0x4B0A JUMP JUMPDEST JUMPDEST PUSH1 0x40 MLOAD SWAP1 DUP1 DUP3 MSTORE DUP1 PUSH1 0x20 MUL PUSH1 0x20 ADD DUP3 ADD PUSH1 0x40 MSTORE DUP1 ISZERO PUSH2 0x17C2 JUMPI DUP2 PUSH1 0x20 ADD PUSH1 0x20 DUP3 MUL DUP1 CALLDATASIZE DUP4 CALLDATACOPY DUP1 DUP3 ADD SWAP2 POP POP SWAP1 POP JUMPDEST POP PUSH32 0xF00000000000000000000000000000000000000000000000000000000000000 SWAP6 SWAP5 SWAP4 SWAP3 SWAP2 SWAP1 SWAP7 POP SWAP7 POP SWAP7 POP SWAP7 POP SWAP7 POP SWAP7 POP SWAP7 POP SWAP1 SWAP2 SWAP3 SWAP4 SWAP5 SWAP6 SWAP7 JUMP JUMPDEST PUSH8 0x8AC7230489E80000 DUP2 JUMP JUMPDEST PUSH0 PUSH2 0x182A PUSH2 0x181A DUP4 PUSH2 0x28E0 JUMP JUMPDEST PUSH1 0xA PUSH2 0x294B SWAP1 SWAP2 SWAP1 PUSH4 0xFFFFFFFF AND JUMP JUMPDEST PUSH26 0xFFFFFFFFFFFFFFFFFFFFFFFFFFFFFFFFFFFFFFFFFFFFFFFFFFFF AND SWAP1 POP SWAP2 SWAP1 POP JUMP JUMPDEST PUSH0 PUSH1 0xB PUSH0 DUP5 DUP2 MSTORE PUSH1 0x20 ADD SWAP1 DUP2 MSTORE PUSH1 0x20 ADD PUSH0 KECCAK256 PUSH0 ADD PUSH0 DUP4 PUSH20 0xFFFFFFFFFFFFFFFFFFFFFFFFFFFFFFFFFFFFFFFF AND PUSH20 0xFFFFFFFFFFFFFFFFFFFFFFFFFFFFFFFFFFFFFFFF AND DUP2 MSTORE PUSH1 0x20 ADD SWAP1 DUP2 MSTORE PUSH1 0x20 ADD PUSH0 KECCAK256 PUSH0 SWAP1 SLOAD SWAP1 PUSH2 0x100 EXP SWAP1 DIV PUSH1 0xFF AND SWAP1 POP SWAP3 SWAP2 POP POP JUMP JUMPDEST PUSH0 PUSH2 0x18BA PUSH2 0x2BE4 JUMP JUMPDEST SWAP1 POP SWAP1 JUMP JUMPDEST PUSH1 0x60 PUSH1 0x4 DUP1 SLOAD PUSH2 0x18CE SWAP1 PUSH2 0x50DB JUMP JUMPDEST DUP1 PUSH1 0x1F ADD PUSH1 0x20 DUP1 SWAP2 DIV MUL PUSH1 0x20 ADD PUSH1 0x40 MLOAD SWAP1 DUP2 ADD PUSH1 0x40 MSTORE DUP1 SWAP3 SWAP2 SWAP1 DUP2 DUP2 MSTORE PUSH1 0x20 ADD DUP3 DUP1 SLOAD PUSH2 0x18FA SWAP1 PUSH2 0x50DB JUMP JUMPDEST DUP1 ISZERO PUSH2 0x1945 JUMPI DUP1 PUSH1 0x1F LT PUSH2 0x191C JUMPI PUSH2 0x100 DUP1 DUP4 SLOAD DIV MUL DUP4 MSTORE SWAP2 PUSH1 0x20 ADD SWAP2 PUSH2 0x1945 JUMP JUMPDEST DUP3 ADD SWAP2 SWAP1 PUSH0 MSTORE PUSH1 0x20 PUSH0 KECCAK256 SWAP1 JUMPDEST DUP2 SLOAD DUP2 MSTORE SWAP1 PUSH1 0x1 ADD SWAP1 PUSH1 0x20 ADD DUP1 DUP4 GT PUSH2 0x1928 JUMPI DUP3 SWAP1 SUB PUSH1 0x1F AND DUP3 ADD SWAP2 JUMPDEST POP POP POP POP POP SWAP1 POP SWAP1 JUMP JUMPDEST PUSH0 PUSH0 SHL PUSH2 0x195B DUP2 PUSH2 0x2642 JUMP JUMPDEST DUP2 PUSH1 0xE PUSH0 PUSH2 0x100 EXP DUP2 SLOAD DUP2 PUSH20 0xFFFFFFFFFFFFFFFFFFFFFFFFFFFFFFFFFFFFFFFF MUL NOT AND SWAP1 DUP4 PUSH20 0xFFFFFFFFFFFFFFFFFFFFFFFFFFFFFFFFFFFFFFFF AND MUL OR SWAP1 SSTORE POP POP POP JUMP JUMPDEST PUSH0 PUSH2 0x19E5 PUSH1 0x9 PUSH0 DUP5 PUSH20 0xFFFFFFFFFFFFFFFFFFFFFFFFFFFFFFFFFFFFFFFF AND PUSH20 0xFFFFFFFFFFFFFFFFFFFFFFFFFFFFFFFFFFFFFFFF AND DUP2 MSTORE PUSH1 0x20 ADD SWAP1 DUP2 MSTORE PUSH1 0x20 ADD PUSH0 KECCAK256 PUSH2 0x2F3E JUMP JUMPDEST PUSH26 0xFFFFFFFFFFFFFFFFFFFFFFFFFFFFFFFFFFFFFFFFFFFFFFFFFFFF AND SWAP1 POP SWAP2 SWAP1 POP JUMP JUMPDEST PUSH0 PUSH0 SHL DUP2 JUMP JUMPDEST PUSH0 PUSH0 PUSH2 0x1A18 PUSH2 0x24A6 JUMP JUMPDEST SWAP1 POP PUSH2 0x1A25 DUP2 DUP6 DUP6 PUSH2 0x2552 JUMP JUMPDEST PUSH1 0x1 SWAP2 POP POP SWAP3 SWAP2 POP POP JUMP JUMPDEST PUSH32 0xF51ADB3F49E4A9BBB17B3783F025995EAF8C24BE2C8EEFFF214BDFDA05EF94D PUSH2 0x1A5A DUP2 PUSH2 0x2642 JUMP JUMPDEST PUSH0 PUSH1 0xF DUP5 PUSH1 0x40 MLOAD PUSH2 0x1A6B SWAP2 SWAP1 PUSH2 0x51D8 JUMP JUMPDEST SWAP1 DUP2 MSTORE PUSH1 0x20 ADD PUSH1 0x40 MLOAD DUP1 SWAP2 SUB SWAP1 KECCAK256 SLOAD SWAP1 POP DUP3 PUSH1 0xF DUP6 PUSH1 0x40 MLOAD PUSH2 0x1A8D SWAP2 SWAP1 PUSH2 0x51D8 JUMP JUMPDEST SWAP1 DUP2 MSTORE PUSH1 0x20 ADD PUSH1 0x40 MLOAD DUP1 SWAP2 SUB SWAP1 KECCAK256 DUP2 SWAP1 SSTORE POP PUSH32 0xFE018EB82A0D14A29F8608883823F09C51D1924CA236B965FAA558C727262882 DUP5 DUP3 DUP6 PUSH1 0x40 MLOAD PUSH2 0x1AD2 SWAP4 SWAP3 SWAP2 SWAP1 PUSH2 0x51EE JUMP JUMPDEST PUSH1 0x40 MLOAD DUP1 SWAP2 SUB SWAP1 LOG1 POP POP POP POP JUMP JUMPDEST PUSH0 PUSH1 0x12 PUSH0 DUP4 PUSH20 0xFFFFFFFFFFFFFFFFFFFFFFFFFFFFFFFFFFFFFFFF AND PUSH20 0xFFFFFFFFFFFFFFFFFFFFFFFFFFFFFFFFFFFFFFFF AND DUP2 MSTORE PUSH1 0x20 ADD SWAP1 DUP2 MSTORE PUSH1 0x20 ADD PUSH0 KECCAK256 SLOAD PUSH2 0x1B28 DUP4 PUSH2 0x199F JUMP JUMPDEST PUSH2 0x1B32 SWAP2 SWAP1 PUSH2 0x5138 JUMP JUMPDEST SWAP1 POP SWAP2 SWAP1 POP JUMP JUMPDEST PUSH32 0xF51ADB3F49E4A9BBB17B3783F025995EAF8C24BE2C8EEFFF214BDFDA05EF94D PUSH2 0x1B63 DUP2 PUSH2 0x2642 JUMP JUMPDEST PUSH2 0x1B6B PUSH2 0x2C01 JUMP JUMPDEST PUSH0 DUP3 MLOAD SUB PUSH2 0x1BA5 JUMPI PUSH1 0x40 MLOAD PUSH32 0xB3D4EB0200000000000000000000000000000000000000000000000000000000 DUP2 MSTORE PUSH1 0x4 ADD PUSH1 0x40 MLOAD DUP1 SWAP2 SUB SWAP1 REVERT JUMPDEST PUSH0 PUSH1 0xF DUP4 PUSH1 0x40 MLOAD PUSH2 0x1BB6 SWAP2 SWAP1 PUSH2 0x51D8 JUMP JUMPDEST SWAP1 DUP2 MSTORE PUSH1 0x20 ADD PUSH1 0x40 MLOAD DUP1 SWAP2 SUB SWAP1 KECCAK256 SLOAD SWAP1 POP PUSH0 DUP2 SUB PUSH2 0x1C00 JUMPI PUSH1 0x40 MLOAD PUSH32 0xB3D4EB0200000000000000000000000000000000000000000000000000000000 DUP2 MSTORE PUSH1 0x4 ADD PUSH1 0x40 MLOAD DUP1 SWAP2 SUB SWAP1 REVERT JUMPDEST PUSH0 DUP4 PUSH2 0x1C19 PUSH3 0x15180 TIMESTAMP PUSH2 0x1C14 SWAP2 SWAP1 PUSH2 0x5257 JUMP JUMPDEST PUSH2 0x2FA0 JUMP JUMPDEST PUSH1 0x40 MLOAD PUSH1 0x20 ADD PUSH2 0x1C2A SWAP3 SWAP2 SWAP1 PUSH2 0x52D1 JUMP JUMPDEST PUSH1 0x40 MLOAD PUSH1 0x20 DUP2 DUP4 SUB SUB DUP2 MSTORE SWAP1 PUSH1 0x40 MSTORE SWAP1 POP PUSH0 PUSH1 0x11 PUSH0 DUP8 PUSH20 0xFFFFFFFFFFFFFFFFFFFFFFFFFFFFFFFFFFFFFFFF AND PUSH20 0xFFFFFFFFFFFFFFFFFFFFFFFFFFFFFFFFFFFFFFFF AND DUP2 MSTORE PUSH1 0x20 ADD SWAP1 DUP2 MSTORE PUSH1 0x20 ADD PUSH0 KECCAK256 DUP3 PUSH1 0x40 MLOAD PUSH2 0x1C87 SWAP2 SWAP1 PUSH2 0x51D8 JUMP JUMPDEST SWAP1 DUP2 MSTORE PUSH1 0x20 ADD PUSH1 0x40 MLOAD DUP1 SWAP2 SUB SWAP1 KECCAK256 SLOAD EQ PUSH2 0x1CCD JUMPI PUSH1 0x40 MLOAD PUSH32 0xB3F8C0DC00000000000000000000000000000000000000000000000000000000 DUP2 MSTORE PUSH1 0x4 ADD PUSH1 0x40 MLOAD DUP1 SWAP2 SUB SWAP1 REVERT JUMPDEST PUSH0 PUSH1 0x10 PUSH0 DUP8 PUSH20 0xFFFFFFFFFFFFFFFFFFFFFFFFFFFFFFFFFFFFFFFF AND PUSH20 0xFFFFFFFFFFFFFFFFFFFFFFFFFFFFFFFFFFFFFFFF AND DUP2 MSTORE PUSH1 0x20 ADD SWAP1 DUP2 MSTORE PUSH1 0x20 ADD PUSH0 KECCAK256 DUP6 PUSH1 0x40 MLOAD PUSH2 0x1D19 SWAP2 SWAP1 PUSH2 0x51D8 JUMP JUMPDEST SWAP1 DUP2 MSTORE PUSH1 0x20 ADD PUSH1 0x40 MLOAD DUP1 SWAP2 SUB SWAP1 KECCAK256 SLOAD SWAP1 POP PUSH1 0xA DUP2 GT ISZERO PUSH2 0x1D53 JUMPI PUSH1 0x64 PUSH1 0x32 DUP5 PUSH2 0x1D42 SWAP2 SWAP1 PUSH2 0x52FF JUMP JUMPDEST PUSH2 0x1D4C SWAP2 SWAP1 PUSH2 0x5257 JUMP JUMPDEST SWAP3 POP PUSH2 0x1D79 JUMP JUMPDEST PUSH1 0x5 DUP2 GT ISZERO PUSH2 0x1D78 JUMPI PUSH1 0x64 PUSH1 0x4B DUP5 PUSH2 0x1D6B SWAP2 SWAP1 PUSH2 0x52FF JUMP JUMPDEST PUSH2 0x1D75 SWAP2 SWAP1 PUSH2 0x5257 JUMP JUMPDEST SWAP3 POP JUMPDEST JUMPDEST PUSH12 0x33B2E3C9FD0803CE8000000 DUP4 PUSH2 0x1D8F PUSH2 0xE81 JUMP JUMPDEST PUSH2 0x1D99 SWAP2 SWAP1 PUSH2 0x5138 JUMP JUMPDEST GT ISZERO PUSH2 0x1DD1 JUMPI PUSH1 0x40 MLOAD PUSH32 0xC30436E900000000000000000000000000000000000000000000000000000000 DUP2 MSTORE PUSH1 0x4 ADD PUSH1 0x40 MLOAD DUP1 SWAP2 SUB SWAP1 REVERT JUMPDEST PUSH1 0x10 PUSH0 DUP8 PUSH20 0xFFFFFFFFFFFFFFFFFFFFFFFFFFFFFFFFFFFFFFFF AND PUSH20 0xFFFFFFFFFFFFFFFFFFFFFFFFFFFFFFFFFFFFFFFF AND DUP2 MSTORE PUSH1 0x20 ADD SWAP1 DUP2 MSTORE PUSH1 0x20 ADD PUSH0 KECCAK256 DUP6 PUSH1 0x40 MLOAD PUSH2 0x1E1C SWAP2 SWAP1 PUSH2 0x51D8 JUMP JUMPDEST SWAP1 DUP2 MSTORE PUSH1 0x20 ADD PUSH1 0x40 MLOAD DUP1 SWAP2 SUB SWAP1 KECCAK256 PUSH0 DUP2 SLOAD DUP1 SWAP3 SWAP2 SWAP1 PUSH2 0x1E3A SWAP1 PUSH2 0x5340 JUMP JUMPDEST SWAP2 SWAP1 POP SSTORE POP TIMESTAMP PUSH1 0x11 PUSH0 DUP9 PUSH20 0xFFFFFFFFFFFFFFFFFFFFFFFFFFFFFFFFFFFFFFFF AND PUSH20 0xFFFFFFFFFFFFFFFFFFFFFFFFFFFFFFFFFFFFFFFF AND DUP2 MSTORE PUSH1 0x20 ADD SWAP1 DUP2 MSTORE PUSH1 0x20 ADD PUSH0 KECCAK256 DUP4 PUSH1 0x40 MLOAD PUSH2 0x1E8B SWAP2 SWAP1 PUSH2 0x51D8 JUMP JUMPDEST SWAP1 DUP2 MSTORE PUSH1 0x20 ADD PUSH1 0x40 MLOAD DUP1 SWAP2 SUB SWAP1 KECCAK256 DUP2 SWAP1 SSTORE POP PUSH2 0x1EA7 DUP7 DUP5 PUSH2 0x2AE6 JUMP JUMPDEST DUP6 PUSH20 0xFFFFFFFFFFFFFFFFFFFFFFFFFFFFFFFFFFFFFFFF AND PUSH32 0xFC68236754F28D2489A2CBEECDB68E69B7BB23D50868D22E11B1B8A4A951E9B8 DUP7 DUP6 PUSH1 0x40 MLOAD PUSH2 0x1EEF SWAP3 SWAP2 SWAP1 PUSH2 0x5387 JUMP JUMPDEST PUSH1 0x40 MLOAD DUP1 SWAP2 SUB SWAP1 LOG2 POP POP POP PUSH2 0x1F02 PUSH2 0x2E4B JUMP JUMPDEST POP POP POP JUMP JUMPDEST PUSH9 0x3635C9ADC5DEA00000 DUP2 JUMP JUMPDEST DUP4 TIMESTAMP GT ISZERO PUSH2 0x1F59 JUMPI DUP4 PUSH1 0x40 MLOAD PUSH32 0x4683AF0E00000000000000000000000000000000000000000000000000000000 DUP2 MSTORE PUSH1 0x4 ADD PUSH2 0x1F50 SWAP2 SWAP1 PUSH2 0x477C JUMP JUMPDEST PUSH1 0x40 MLOAD DUP1 SWAP2 SUB SWAP1 REVERT JUMPDEST PUSH0 PUSH2 0x1FBA PUSH2 0x1FB2 PUSH32 0xE48329057BFD03D55E49B547132E39CFFD9C1820AD7B9D4C5307691425D15ADF DUP10 DUP10 DUP10 PUSH1 0x40 MLOAD PUSH1 0x20 ADD PUSH2 0x1F97 SWAP5 SWAP4 SWAP3 SWAP2 SWAP1 PUSH2 0x53B5 JUMP JUMPDEST PUSH1 0x40 MLOAD PUSH1 0x20 DUP2 DUP4 SUB SUB DUP2 MSTORE SWAP1 PUSH1 0x40 MSTORE DUP1 MLOAD SWAP1 PUSH1 0x20 ADD KECCAK256 PUSH2 0x306A JUMP JUMPDEST DUP6 DUP6 DUP6 PUSH2 0x3083 JUMP JUMPDEST SWAP1 POP PUSH2 0x1FC6 DUP2 DUP8 PUSH2 0x30B1 JUMP JUMPDEST PUSH2 0x1FD0 DUP2 DUP9 PUSH2 0x2BF3 JUMP JUMPDEST POP POP POP POP POP POP POP JUMP JUMPDEST PUSH9 0x1158E460913D00000 DUP2 JUMP JUMPDEST DUP4 TIMESTAMP GT ISZERO PUSH2 0x202B JUMPI DUP4 PUSH1 0x40 MLOAD PUSH32 0x6279130200000000000000000000000000000000000000000000000000000000 DUP2 MSTORE PUSH1 0x4 ADD PUSH2 0x2022 SWAP2 SWAP1 PUSH2 0x477C JUMP JUMPDEST PUSH1 0x40 MLOAD DUP1 SWAP2 SUB SWAP1 REVERT JUMPDEST PUSH0 PUSH32 0x6E71EDAE12B1B97F4D1F60370FEF10105FA2FAAE0126114A169C64845D6126C9 DUP9 DUP9 DUP9 PUSH2 0x2059 DUP13 PUSH2 0x3108 JUMP JUMPDEST DUP10 PUSH1 0x40 MLOAD PUSH1 0x20 ADD PUSH2 0x206F SWAP7 SWAP6 SWAP5 SWAP4 SWAP3 SWAP2 SWAP1 PUSH2 0x53F8 JUMP JUMPDEST PUSH1 0x40 MLOAD PUSH1 0x20 DUP2 DUP4 SUB SUB DUP2 MSTORE SWAP1 PUSH1 0x40 MSTORE DUP1 MLOAD SWAP1 PUSH1 0x20 ADD KECCAK256 SWAP1 POP PUSH0 PUSH2 0x2091 DUP3 PUSH2 0x306A JUMP JUMPDEST SWAP1 POP PUSH0 PUSH2 0x20A0 DUP3 DUP8 DUP8 DUP8 PUSH2 0x3083 JUMP JUMPDEST SWAP1 POP DUP10 PUSH20 0xFFFFFFFFFFFFFFFFFFFFFFFFFFFFFFFFFFFFFFFF AND DUP2 PUSH20 0xFFFFFFFFFFFFFFFFFFFFFFFFFFFFFFFFFFFFFFFF AND EQ PUSH2 0x2114 JUMPI DUP1 DUP11 PUSH1 0x40 MLOAD PUSH32 0x4B800E4600000000000000000000000000000000000000000000000000000000 DUP2 MSTORE PUSH1 0x4 ADD PUSH2 0x210B SWAP3 SWAP2 SWAP1 PUSH2 0x5457 JUMP JUMPDEST PUSH1 0x40 MLOAD DUP1 SWAP2 SUB SWAP1 REVERT JUMPDEST PUSH2 0x211F DUP11 DUP11 DUP11 PUSH2 0x24AD JUMP JUMPDEST POP POP POP POP POP POP POP POP POP POP JUMP JUMPDEST PUSH32 0x9F2DF0FED2C77648DE5860A4CC508CD0818C85B8B8A1AB4CEEEF8D981C8956A6 DUP2 JUMP JUMPDEST PUSH2 0x2158 DUP3 PUSH2 0xEEA JUMP JUMPDEST PUSH2 0x2161 DUP2 PUSH2 0x2642 JUMP JUMPDEST PUSH2 0x216B DUP4 DUP4 PUSH2 0x27F6 JUMP JUMPDEST POP POP POP POP JUMP JUMPDEST PUSH8 0x4563918244F40000 DUP2 JUMP JUMPDEST PUSH1 0x16 PUSH1 0x20 MSTORE DUP1 PUSH0 MSTORE PUSH1 0x40 PUSH0 KECCAK256 PUSH0 SWAP2 POP SWAP1 POP SLOAD DUP2 JUMP JUMPDEST PUSH8 0x8AC7230489E80000 DUP2 JUMP JUMPDEST PUSH0 PUSH1 0x1 PUSH0 DUP5 PUSH20 0xFFFFFFFFFFFFFFFFFFFFFFFFFFFFFFFFFFFFFFFF AND PUSH20 0xFFFFFFFFFFFFFFFFFFFFFFFFFFFFFFFFFFFFFFFF AND DUP2 MSTORE PUSH1 0x20 ADD SWAP1 DUP2 MSTORE PUSH1 0x20 ADD PUSH0 KECCAK256 PUSH0 DUP4 PUSH20 0xFFFFFFFFFFFFFFFFFFFFFFFFFFFFFFFFFFFFFFFF AND PUSH20 0xFFFFFFFFFFFFFFFFFFFFFFFFFFFFFFFFFFFFFFFF AND DUP2 MSTORE PUSH1 0x20 ADD SWAP1 DUP2 MSTORE PUSH1 0x20 ADD PUSH0 KECCAK256 SLOAD SWAP1 POP SWAP3 SWAP2 POP POP JUMP JUMPDEST PUSH4 0x1E13380 PUSH1 0x18 SLOAD PUSH2 0x2232 SWAP2 SWAP1 PUSH2 0x5138 JUMP JUMPDEST TIMESTAMP LT ISZERO PUSH2 0x226B JUMPI PUSH1 0x40 MLOAD PUSH32 0xEA8E4EB500000000000000000000000000000000000000000000000000000000 DUP2 MSTORE PUSH1 0x4 ADD PUSH1 0x40 MLOAD DUP1 SWAP2 SUB SWAP1 REVERT JUMPDEST PUSH1 0x64 PUSH1 0x5A PUSH1 0x17 SLOAD PUSH2 0x227C SWAP2 SWAP1 PUSH2 0x52FF JUMP JUMPDEST PUSH2 0x2286 SWAP2 SWAP1 PUSH2 0x5257 JUMP JUMPDEST PUSH1 0x17 DUP2 SWAP1 SSTORE POP TIMESTAMP PUSH1 0x18 DUP2 SWAP1 SSTORE POP PUSH32 0x50FE4BDA021FC9F7A9DB1A82A053D8305B36B0B4307257411748C8EF1A68D0D4 PUSH1 0x17 SLOAD PUSH1 0x40 MLOAD PUSH2 0x22C4 SWAP2 SWAP1 PUSH2 0x477C JUMP JUMPDEST PUSH1 0x40 MLOAD DUP1 SWAP2 SUB SWAP1 LOG1 JUMP JUMPDEST PUSH32 0x65D7A28E3265B37A6474929F336521B332C1681B933F6CB9F3376673440D862A DUP2 JUMP JUMPDEST PUSH2 0x22FA PUSH2 0x2C01 JUMP JUMPDEST DUP2 PUSH2 0x2304 CALLER PUSH2 0x1524 JUMP JUMPDEST LT ISZERO PUSH2 0x233C JUMPI PUSH1 0x40 MLOAD PUSH32 0xF4D678B800000000000000000000000000000000000000000000000000000000 DUP2 MSTORE PUSH1 0x4 ADD PUSH1 0x40 MLOAD DUP1 SWAP2 SUB SWAP1 REVERT JUMPDEST PUSH2 0x2346 CALLER DUP4 PUSH2 0x2B65 JUMP JUMPDEST CALLER PUSH20 0xFFFFFFFFFFFFFFFFFFFFFFFFFFFFFFFFFFFFFFFF AND PUSH32 0x3E3D11FED2579AB23676D30F4893A503A2A74A2D3610026A21A83C39E2A85E2E DUP4 DUP4 PUSH1 0x40 MLOAD PUSH2 0x238E SWAP3 SWAP2 SWAP1 PUSH2 0x547E JUMP JUMPDEST PUSH1 0x40 MLOAD DUP1 SWAP2 SUB SWAP1 LOG2 PUSH2 0x239E PUSH2 0x2E4B JUMP JUMPDEST POP POP JUMP JUMPDEST PUSH1 0x18 SLOAD DUP2 JUMP JUMPDEST PUSH4 0x1E13380 DUP2 JUMP JUMPDEST PUSH1 0x11 PUSH1 0x20 MSTORE DUP2 PUSH0 MSTORE PUSH1 0x40 PUSH0 KECCAK256 DUP2 DUP1 MLOAD PUSH1 0x20 DUP2 ADD DUP3 ADD DUP1 MLOAD DUP5 DUP3 MSTORE PUSH1 0x20 DUP4 ADD PUSH1 0x20 DUP6 ADD KECCAK256 DUP2 DUP4 MSTORE DUP1 SWAP6 POP POP POP POP POP POP PUSH0 SWAP2 POP SWAP2 POP POP SLOAD DUP2 JUMP JUMPDEST PUSH1 0xF DUP2 DUP1 MLOAD PUSH1 0x20 DUP2 ADD DUP3 ADD DUP1 MLOAD DUP5 DUP3 MSTORE PUSH1 0x20 DUP4 ADD PUSH1 0x20 DUP6 ADD KECCAK256 DUP2 DUP4 MSTORE DUP1 SWAP6 POP POP POP POP POP POP PUSH0 SWAP2 POP SWAP1 POP SLOAD DUP2 JUMP JUMPDEST PUSH8 0xDE0B6B3A7640000 DUP2 JUMP JUMPDEST PUSH8 0xDE0B6B3A7640000 DUP2 JUMP JUMPDEST PUSH0 PUSH32 0x7965DB0B00000000000000000000000000000000000000000000000000000000 PUSH28 0xFFFFFFFFFFFFFFFFFFFFFFFFFFFFFFFFFFFFFFFFFFFFFFFFFFFFFFFF NOT AND DUP3 PUSH28 0xFFFFFFFFFFFFFFFFFFFFFFFFFFFFFFFFFFFFFFFFFFFFFFFFFFFFFFFF NOT AND EQ DUP1 PUSH2 0x249F JUMPI POP PUSH2 0x249E DUP3 PUSH2 0x315B JUMP JUMPDEST JUMPDEST SWAP1 POP SWAP2 SWAP1 POP JUMP JUMPDEST PUSH0 CALLER SWAP1 POP SWAP1 JUMP JUMPDEST PUSH2 0x24BA DUP4 DUP4 DUP4 PUSH1 0x1 PUSH2 0x31C4 JUMP JUMPDEST POP POP POP JUMP JUMPDEST PUSH0 PUSH2 0x24CA DUP5 DUP5 PUSH2 0x219E JUMP JUMPDEST SWAP1 POP PUSH32 0xFFFFFFFFFFFFFFFFFFFFFFFFFFFFFFFFFFFFFFFFFFFFFFFFFFFFFFFFFFFFFFFF DUP2 LT ISZERO PUSH2 0x254C JUMPI DUP2 DUP2 LT ISZERO PUSH2 0x253D JUMPI DUP3 DUP2 DUP4 PUSH1 0x40 MLOAD PUSH32 0xFB8F41B200000000000000000000000000000000000000000000000000000000 DUP2 MSTORE PUSH1 0x4 ADD PUSH2 0x2534 SWAP4 SWAP3 SWAP2 SWAP1 PUSH2 0x54AC JUMP JUMPDEST PUSH1 0x40 MLOAD DUP1 SWAP2 SUB SWAP1 REVERT JUMPDEST PUSH2 0x254B DUP5 DUP5 DUP5 DUP5 SUB PUSH0 PUSH2 0x31C4 JUMP JUMPDEST JUMPDEST POP POP POP POP JUMP JUMPDEST PUSH0 PUSH20 0xFFFFFFFFFFFFFFFFFFFFFFFFFFFFFFFFFFFFFFFF AND DUP4 PUSH20 0xFFFFFFFFFFFFFFFFFFFFFFFFFFFFFFFFFFFFFFFF AND SUB PUSH2 0x25C2 JUMPI PUSH0 PUSH1 0x40 MLOAD PUSH32 0x96C6FD1E00000000000000000000000000000000000000000000000000000000 DUP2 MSTORE PUSH1 0x4 ADD PUSH2 0x25B9 SWAP2 SWAP1 PUSH2 0x48F6 JUMP JUMPDEST PUSH1 0x40 MLOAD DUP1 SWAP2 SUB SWAP1 REVERT JUMPDEST PUSH0 PUSH20 0xFFFFFFFFFFFFFFFFFFFFFFFFFFFFFFFFFFFFFFFF AND DUP3 PUSH20 0xFFFFFFFFFFFFFFFFFFFFFFFFFFFFFFFFFFFFFFFF AND SUB PUSH2 0x2632 JUMPI PUSH0 PUSH1 0x40 MLOAD PUSH32 0xEC442F0500000000000000000000000000000000000000000000000000000000 DUP2 MSTORE PUSH1 0x4 ADD PUSH2 0x2629 SWAP2 SWAP1 PUSH2 0x48F6 JUMP JUMPDEST PUSH1 0x40 MLOAD DUP1 SWAP2 SUB SWAP1 REVERT JUMPDEST PUSH2 0x263D DUP4 DUP4 DUP4 PUSH2 0x3393 JUMP JUMPDEST POP POP POP JUMP JUMPDEST PUSH2 0x2653 DUP2 PUSH2 0x264E PUSH2 0x24A6 JUMP JUMPDEST PUSH2 0x35AC JUMP JUMPDEST POP JUMP JUMPDEST PUSH0 PUSH2 0x2661 DUP4 DUP4 PUSH2 0x184D JUMP JUMPDEST PUSH2 0x2736 JUMPI PUSH1 0x1 PUSH1 0xB PUSH0 DUP6 DUP2 MSTORE PUSH1 0x20 ADD SWAP1 DUP2 MSTORE PUSH1 0x20 ADD PUSH0 KECCAK256 PUSH0 ADD PUSH0 DUP5 PUSH20 0xFFFFFFFFFFFFFFFFFFFFFFFFFFFFFFFFFFFFFFFF AND PUSH20 0xFFFFFFFFFFFFFFFFFFFFFFFFFFFFFFFFFFFFFFFF AND DUP2 MSTORE PUSH1 0x20 ADD SWAP1 DUP2 MSTORE PUSH1 0x20 ADD PUSH0 KECCAK256 PUSH0 PUSH2 0x100 EXP DUP2 SLOAD DUP2 PUSH1 0xFF MUL NOT AND SWAP1 DUP4 ISZERO ISZERO MUL OR SWAP1 SSTORE POP PUSH2 0x26D3 PUSH2 0x24A6 JUMP JUMPDEST PUSH20 0xFFFFFFFFFFFFFFFFFFFFFFFFFFFFFFFFFFFFFFFF AND DUP3 PUSH20 0xFFFFFFFFFFFFFFFFFFFFFFFFFFFFFFFFFFFFFFFF AND DUP5 PUSH32 0x2F8788117E7EFF1D82E926EC794901D17C78024A50270940304540A733656F0D PUSH1 0x40 MLOAD PUSH1 0x40 MLOAD DUP1 SWAP2 SUB SWAP1 LOG4 PUSH1 0x1 SWAP1 POP PUSH2 0x273A JUMP JUMPDEST PUSH0 SWAP1 POP JUMPDEST SWAP3 SWAP2 POP POP JUMP JUMPDEST PUSH0 PUSH32 0x0 PUSH20 0xFFFFFFFFFFFFFFFFFFFFFFFFFFFFFFFFFFFFFFFF AND ADDRESS PUSH20 0xFFFFFFFFFFFFFFFFFFFFFFFFFFFFFFFFFFFFFFFF AND EQ DUP1 ISZERO PUSH2 0x27BB JUMPI POP PUSH32 0x0 CHAINID EQ JUMPDEST ISZERO PUSH2 0x27E8 JUMPI PUSH32 0x0 SWAP1 POP PUSH2 0x27F3 JUMP JUMPDEST PUSH2 0x27F0 PUSH2 0x35FD JUMP JUMPDEST SWAP1 POP JUMPDEST SWAP1 JUMP JUMPDEST PUSH0 PUSH2 0x2801 DUP4 DUP4 PUSH2 0x184D JUMP JUMPDEST ISZERO PUSH2 0x28D6 JUMPI PUSH0 PUSH1 0xB PUSH0 DUP6 DUP2 MSTORE PUSH1 0x20 ADD SWAP1 DUP2 MSTORE PUSH1 0x20 ADD PUSH0 KECCAK256 PUSH0 ADD PUSH0 DUP5 PUSH20 0xFFFFFFFFFFFFFFFFFFFFFFFFFFFFFFFFFFFFFFFF AND PUSH20 0xFFFFFFFFFFFFFFFFFFFFFFFFFFFFFFFFFFFFFFFF AND DUP2 MSTORE PUSH1 0x20 ADD SWAP1 DUP2 MSTORE PUSH1 0x20 ADD PUSH0 KECCAK256 PUSH0 PUSH2 0x100 EXP DUP2 SLOAD DUP2 PUSH1 0xFF MUL NOT AND SWAP1 DUP4 ISZERO ISZERO MUL OR SWAP1 SSTORE POP PUSH2 0x2873 PUSH2 0x24A6 JUMP JUMPDEST PUSH20 0xFFFFFFFFFFFFFFFFFFFFFFFFFFFFFFFFFFFFFFFF AND DUP3 PUSH20 0xFFFFFFFFFFFFFFFFFFFFFFFFFFFFFFFFFFFFFFFF AND DUP5 PUSH32 0xF6391F5C32D9C69D2A47EA670B442974B53935D1EDC7FD64EB21E047A839171B PUSH1 0x40 MLOAD PUSH1 0x40 MLOAD DUP1 SWAP2 SUB SWAP1 LOG4 PUSH1 0x1 SWAP1 POP PUSH2 0x28DA JUMP JUMPDEST PUSH0 SWAP1 POP JUMPDEST SWAP3 SWAP2 POP POP JUMP JUMPDEST PUSH0 PUSH0 PUSH2 0x28EA PUSH2 0x18B1 JUMP JUMPDEST SWAP1 POP DUP1 PUSH6 0xFFFFFFFFFFFF AND DUP4 LT PUSH2 0x293A JUMPI DUP3 DUP2 PUSH1 0x40 MLOAD PUSH32 0xECD3F81E00000000000000000000000000000000000000000000000000000000 DUP2 MSTORE PUSH1 0x4 ADD PUSH2 0x2931 SWAP3 SWAP2 SWAP1 PUSH2 0x54E1 JUMP JUMPDEST PUSH1 0x40 MLOAD DUP1 SWAP2 SUB SWAP1 REVERT JUMPDEST PUSH2 0x2943 DUP4 PUSH2 0x3692 JUMP JUMPDEST SWAP2 POP POP SWAP2 SWAP1 POP JUMP JUMPDEST PUSH0 PUSH0 DUP4 PUSH0 ADD DUP1 SLOAD SWAP1 POP SWAP1 POP PUSH0 PUSH0 SWAP1 POP PUSH0 DUP3 SWAP1 POP PUSH1 0x5 DUP4 GT ISZERO PUSH2 0x29CF JUMPI PUSH0 PUSH2 0x2971 DUP5 PUSH2 0x36EB JUMP JUMPDEST DUP5 PUSH2 0x297C SWAP2 SWAP1 PUSH2 0x516B JUMP JUMPDEST SWAP1 POP PUSH2 0x298A DUP8 PUSH0 ADD DUP3 PUSH2 0x3885 JUMP JUMPDEST PUSH0 ADD PUSH0 SWAP1 SLOAD SWAP1 PUSH2 0x100 EXP SWAP1 DIV PUSH6 0xFFFFFFFFFFFF AND PUSH6 0xFFFFFFFFFFFF AND DUP7 PUSH6 0xFFFFFFFFFFFF AND LT ISZERO PUSH2 0x29BD JUMPI DUP1 SWAP2 POP PUSH2 0x29CD JUMP JUMPDEST PUSH1 0x1 DUP2 PUSH2 0x29CA SWAP2 SWAP1 PUSH2 0x5138 JUMP JUMPDEST SWAP3 POP JUMPDEST POP JUMPDEST PUSH0 PUSH2 0x29DE DUP8 PUSH0 ADD DUP8 DUP6 DUP6 PUSH2 0x3897 JUMP JUMPDEST SWAP1 POP PUSH0 DUP2 EQ PUSH2 0x2A2D JUMPI PUSH2 0x29FF DUP8 PUSH0 ADD PUSH1 0x1 DUP4 PUSH2 0x29FA SWAP2 SWAP1 PUSH2 0x516B JUMP JUMPDEST PUSH2 0x3885 JUMP JUMPDEST PUSH0 ADD PUSH1 0x6 SWAP1 SLOAD SWAP1 PUSH2 0x100 EXP SWAP1 DIV PUSH26 0xFFFFFFFFFFFFFFFFFFFFFFFFFFFFFFFFFFFFFFFFFFFFFFFFFFFF AND PUSH2 0x2A2F JUMP JUMPDEST PUSH0 JUMPDEST SWAP5 POP POP POP POP POP SWAP3 SWAP2 POP POP JUMP JUMPDEST PUSH2 0x2A43 PUSH2 0x390C JUMP JUMPDEST PUSH0 PUSH1 0xC PUSH0 PUSH2 0x100 EXP DUP2 SLOAD DUP2 PUSH1 0xFF MUL NOT AND SWAP1 DUP4 ISZERO ISZERO MUL OR SWAP1 SSTORE POP PUSH32 0x5DB9EE0A495BF2E6FF9C91A7834C1BA4FDD244A5E8AA4E537BD38AEAE4B073AA PUSH2 0x2A85 PUSH2 0x24A6 JUMP JUMPDEST PUSH1 0x40 MLOAD PUSH2 0x2A92 SWAP2 SWAP1 PUSH2 0x48F6 JUMP JUMPDEST PUSH1 0x40 MLOAD DUP1 SWAP2 SUB SWAP1 LOG1 JUMP JUMPDEST PUSH2 0x2AA4 PUSH2 0x12FB JUMP JUMPDEST ISZERO PUSH2 0x2AE4 JUMPI PUSH1 0x40 MLOAD PUSH32 0x8C379A000000000000000000000000000000000000000000000000000000000 DUP2 MSTORE PUSH1 0x4 ADD PUSH2 0x2ADB SWAP1 PUSH2 0x5552 JUMP JUMPDEST PUSH1 0x40 MLOAD DUP1 SWAP2 SUB SWAP1 REVERT JUMPDEST JUMP JUMPDEST PUSH0 PUSH20 0xFFFFFFFFFFFFFFFFFFFFFFFFFFFFFFFFFFFFFFFF AND DUP3 PUSH20 0xFFFFFFFFFFFFFFFFFFFFFFFFFFFFFFFFFFFFFFFF AND SUB PUSH2 0x2B56 JUMPI PUSH0 PUSH1 0x40 MLOAD PUSH32 0xEC442F0500000000000000000000000000000000000000000000000000000000 DUP2 MSTORE PUSH1 0x4 ADD PUSH2 0x2B4D SWAP2 SWAP1 PUSH2 0x48F6 JUMP JUMPDEST PUSH1 0x40 MLOAD DUP1 SWAP2 SUB SWAP1 REVERT JUMPDEST PUSH2 0x2B61 PUSH0 DUP4 DUP4 PUSH2 0x3393 JUMP JUMPDEST POP POP JUMP JUMPDEST PUSH0 PUSH20 0xFFFFFFFFFFFFFFFFFFFFFFFFFFFFFFFFFFFFFFFF AND DUP3 PUSH20 0xFFFFFFFFFFFFFFFFFFFFFFFFFFFFFFFFFFFFFFFF AND SUB PUSH2 0x2BD5 JUMPI PUSH0 PUSH1 0x40 MLOAD PUSH32 0x96C6FD1E00000000000000000000000000000000000000000000000000000000 DUP2 MSTORE PUSH1 0x4 ADD PUSH2 0x2BCC SWAP2 SWAP1 PUSH2 0x48F6 JUMP JUMPDEST PUSH1 0x40 MLOAD DUP1 SWAP2 SUB SWAP1 REVERT JUMPDEST PUSH2 0x2BE0 DUP3 PUSH0 DUP4 PUSH2 0x3393 JUMP JUMPDEST POP POP JUMP JUMPDEST PUSH0 PUSH2 0x2BEE NUMBER PUSH2 0x3692 JUMP JUMPDEST SWAP1 POP SWAP1 JUMP JUMPDEST PUSH2 0x2BFD DUP3 DUP3 PUSH2 0x3955 JUMP JUMPDEST POP POP JUMP JUMPDEST PUSH1 0x2 PUSH1 0xD SLOAD SUB PUSH2 0x2C46 JUMPI PUSH1 0x40 MLOAD PUSH32 0x8C379A000000000000000000000000000000000000000000000000000000000 DUP2 MSTORE PUSH1 0x4 ADD PUSH2 0x2C3D SWAP1 PUSH2 0x55BA JUMP JUMPDEST PUSH1 0x40 MLOAD DUP1 SWAP2 SUB SWAP1 REVERT JUMPDEST PUSH1 0x2 PUSH1 0xD DUP2 SWAP1 SSTORE POP JUMP JUMPDEST PUSH0 PUSH1 0x12 PUSH0 DUP4 PUSH20 0xFFFFFFFFFFFFFFFFFFFFFFFFFFFFFFFFFFFFFFFF AND PUSH20 0xFFFFFFFFFFFFFFFFFFFFFFFFFFFFFFFFFFFFFFFF AND DUP2 MSTORE PUSH1 0x20 ADD SWAP1 DUP2 MSTORE PUSH1 0x20 ADD PUSH0 KECCAK256 SLOAD SWAP1 POP PUSH0 DUP2 SUB PUSH2 0x2C9E JUMPI POP PUSH2 0x2E48 JUMP JUMPDEST PUSH0 PUSH1 0x16 PUSH0 DUP5 PUSH20 0xFFFFFFFFFFFFFFFFFFFFFFFFFFFFFFFFFFFFFFFF AND PUSH20 0xFFFFFFFFFFFFFFFFFFFFFFFFFFFFFFFFFFFFFFFF AND DUP2 MSTORE PUSH1 0x20 ADD SWAP1 DUP2 MSTORE PUSH1 0x20 ADD PUSH0 KECCAK256 SLOAD TIMESTAMP PUSH2 0x2CE8 SWAP2 SWAP1 PUSH2 0x516B JUMP JUMPDEST SWAP1 POP PUSH0 DUP2 SUB PUSH2 0x2CF8 JUMPI POP POP PUSH2 0x2E48 JUMP JUMPDEST PUSH0 PUSH5 0x496CEBB800 DUP3 PUSH1 0x14 SLOAD DUP6 PUSH2 0x2D0E SWAP2 SWAP1 PUSH2 0x52FF JUMP JUMPDEST PUSH2 0x2D18 SWAP2 SWAP1 PUSH2 0x52FF JUMP JUMPDEST PUSH2 0x2D22 SWAP2 SWAP1 PUSH2 0x5257 JUMP JUMPDEST SWAP1 POP PUSH0 DUP2 GT DUP1 ISZERO PUSH2 0x2D51 JUMPI POP PUSH12 0x33B2E3C9FD0803CE8000000 DUP2 PUSH2 0x2D44 PUSH2 0xE81 JUMP JUMPDEST PUSH2 0x2D4E SWAP2 SWAP1 PUSH2 0x5138 JUMP JUMPDEST GT ISZERO JUMPDEST ISZERO PUSH2 0x2E44 JUMPI PUSH2 0x2D60 DUP5 DUP3 PUSH2 0x2AE6 JUMP JUMPDEST DUP1 PUSH1 0x15 PUSH0 DUP7 PUSH20 0xFFFFFFFFFFFFFFFFFFFFFFFFFFFFFFFFFFFFFFFF AND PUSH20 0xFFFFFFFFFFFFFFFFFFFFFFFFFFFFFFFFFFFFFFFF AND DUP2 MSTORE PUSH1 0x20 ADD SWAP1 DUP2 MSTORE PUSH1 0x20 ADD PUSH0 KECCAK256 PUSH0 DUP3 DUP3 SLOAD PUSH2 0x2DAC SWAP2 SWAP1 PUSH2 0x5138 JUMP JUMPDEST SWAP3 POP POP DUP2 SWAP1 SSTORE POP TIMESTAMP PUSH1 0x16 PUSH0 DUP7 PUSH20 0xFFFFFFFFFFFFFFFFFFFFFFFFFFFFFFFFFFFFFFFF AND PUSH20 0xFFFFFFFFFFFFFFFFFFFFFFFFFFFFFFFFFFFFFFFF AND DUP2 MSTORE PUSH1 0x20 ADD SWAP1 DUP2 MSTORE PUSH1 0x20 ADD PUSH0 KECCAK256 DUP2 SWAP1 SSTORE POP DUP4 PUSH20 0xFFFFFFFFFFFFFFFFFFFFFFFFFFFFFFFFFFFFFFFF AND PUSH32 0xC727C17294AD4F040BEC78BE22159F993FFB0F22F4DFCED8DAEAFC1EC2608A4C DUP3 PUSH1 0x40 MLOAD PUSH2 0x2E3B SWAP2 SWAP1 PUSH2 0x477C JUMP JUMPDEST PUSH1 0x40 MLOAD DUP1 SWAP2 SUB SWAP1 LOG2 JUMPDEST POP POP POP JUMPDEST POP JUMP JUMPDEST PUSH1 0x1 PUSH1 0xD DUP2 SWAP1 SSTORE POP JUMP JUMPDEST PUSH0 PUSH2 0x2E5F DUP3 PUSH2 0x3A65 JUMP JUMPDEST SWAP1 POP SWAP2 SWAP1 POP JUMP JUMPDEST PUSH2 0x2E6E PUSH2 0x2A9C JUMP JUMPDEST PUSH1 0x1 PUSH1 0xC PUSH0 PUSH2 0x100 EXP DUP2 SLOAD DUP2 PUSH1 0xFF MUL NOT AND SWAP1 DUP4 ISZERO ISZERO MUL OR SWAP1 SSTORE POP PUSH32 0x62E78CEA01BEE320CD4E420270B5EA74000D11B0C9F74754EBDBFC544B05A258 PUSH2 0x2EB1 PUSH2 0x24A6 JUMP JUMPDEST PUSH1 0x40 MLOAD PUSH2 0x2EBE SWAP2 SWAP1 PUSH2 0x48F6 JUMP JUMPDEST PUSH1 0x40 MLOAD DUP1 SWAP2 SUB SWAP1 LOG1 JUMP JUMPDEST PUSH1 0x60 PUSH2 0x2EFE PUSH1 0x5 PUSH32 0x0 PUSH2 0x3AAB SWAP1 SWAP2 SWAP1 PUSH4 0xFFFFFFFF AND JUMP JUMPDEST SWAP1 POP SWAP1 JUMP JUMPDEST PUSH1 0x60 PUSH2 0x2F39 PUSH1 0x6 PUSH32 0x0 PUSH2 0x3AAB SWAP1 SWAP2 SWAP1 PUSH4 0xFFFFFFFF AND JUMP JUMPDEST SWAP1 POP SWAP1 JUMP JUMPDEST PUSH0 PUSH0 DUP3 PUSH0 ADD DUP1 SLOAD SWAP1 POP SWAP1 POP PUSH0 DUP2 EQ PUSH2 0x2F96 JUMPI PUSH2 0x2F68 DUP4 PUSH0 ADD PUSH1 0x1 DUP4 PUSH2 0x2F63 SWAP2 SWAP1 PUSH2 0x516B JUMP JUMPDEST PUSH2 0x3885 JUMP JUMPDEST PUSH0 ADD PUSH1 0x6 SWAP1 SLOAD SWAP1 PUSH2 0x100 EXP SWAP1 DIV PUSH26 0xFFFFFFFFFFFFFFFFFFFFFFFFFFFFFFFFFFFFFFFFFFFFFFFFFFFF AND PUSH2 0x2F98 JUMP JUMPDEST PUSH0 JUMPDEST SWAP2 POP POP SWAP2 SWAP1 POP JUMP JUMPDEST PUSH1 0x60 PUSH0 PUSH1 0x1 PUSH2 0x2FAE DUP5 PUSH2 0x3B58 JUMP JUMPDEST ADD SWAP1 POP PUSH0 DUP2 PUSH8 0xFFFFFFFFFFFFFFFF DUP2 GT ISZERO PUSH2 0x2FCC JUMPI PUSH2 0x2FCB PUSH2 0x4B0A JUMP JUMPDEST JUMPDEST PUSH1 0x40 MLOAD SWAP1 DUP1 DUP3 MSTORE DUP1 PUSH1 0x1F ADD PUSH1 0x1F NOT AND PUSH1 0x20 ADD DUP3 ADD PUSH1 0x40 MSTORE DUP1 ISZERO PUSH2 0x2FFE JUMPI DUP2 PUSH1 0x20 ADD PUSH1 0x1 DUP3 MUL DUP1 CALLDATASIZE DUP4 CALLDATACOPY DUP1 DUP3 ADD SWAP2 POP POP SWAP1 POP JUMPDEST POP SWAP1 POP PUSH0 DUP3 PUSH1 0x20 ADD DUP3 ADD SWAP1 POP JUMPDEST PUSH1 0x1 ISZERO PUSH2 0x305F JUMPI DUP1 DUP1 PUSH1 0x1 SWAP1 SUB SWAP2 POP POP PUSH32 0x3031323334353637383961626364656600000000000000000000000000000000 PUSH1 0xA DUP7 MOD BYTE DUP2 MSTORE8 PUSH1 0xA DUP6 DUP2 PUSH2 0x3054 JUMPI PUSH2 0x3053 PUSH2 0x522A JUMP JUMPDEST JUMPDEST DIV SWAP5 POP PUSH0 DUP6 SUB PUSH2 0x300B JUMPI JUMPDEST DUP2 SWAP4 POP POP POP POP SWAP2 SWAP1 POP JUMP JUMPDEST PUSH0 PUSH2 0x307C PUSH2 0x3076 PUSH2 0x2740 JUMP JUMPDEST DUP4 PUSH2 0x3CA9 JUMP JUMPDEST SWAP1 POP SWAP2 SWAP1 POP JUMP JUMPDEST PUSH0 PUSH0 PUSH0 PUSH0 PUSH2 0x3093 DUP9 DUP9 DUP9 DUP9 PUSH2 0x3CE9 JUMP JUMPDEST SWAP3 POP SWAP3 POP SWAP3 POP PUSH2 0x30A3 DUP3 DUP3 PUSH2 0x3DD0 JUMP JUMPDEST DUP3 SWAP4 POP POP POP POP SWAP5 SWAP4 POP POP POP POP JUMP JUMPDEST PUSH0 PUSH2 0x30BB DUP4 PUSH2 0x3108 JUMP JUMPDEST SWAP1 POP DUP1 DUP3 EQ PUSH2 0x3103 JUMPI DUP3 DUP2 PUSH1 0x40 MLOAD PUSH32 0x752D88C000000000000000000000000000000000000000000000000000000000 DUP2 MSTORE PUSH1 0x4 ADD PUSH2 0x30FA SWAP3 SWAP2 SWAP1 PUSH2 0x55D8 JUMP JUMPDEST PUSH1 0x40 MLOAD DUP1 SWAP2 SUB SWAP1 REVERT JUMPDEST POP POP POP JUMP JUMPDEST PUSH0 PUSH1 0x7 PUSH0 DUP4 PUSH20 0xFFFFFFFFFFFFFFFFFFFFFFFFFFFFFFFFFFFFFFFF AND PUSH20 0xFFFFFFFFFFFFFFFFFFFFFFFFFFFFFFFFFFFFFFFF AND DUP2 MSTORE PUSH1 0x20 ADD SWAP1 DUP2 MSTORE PUSH1 0x20 ADD PUSH0 KECCAK256 PUSH0 DUP2 SLOAD DUP1 SWAP3 SWAP2 SWAP1 PUSH1 0x1 ADD SWAP2 SWAP1 POP SSTORE SWAP1 POP SWAP2 SWAP1 POP JUMP JUMPDEST PUSH0 PUSH32 0x1FFC9A700000000000000000000000000000000000000000000000000000000 PUSH28 0xFFFFFFFFFFFFFFFFFFFFFFFFFFFFFFFFFFFFFFFFFFFFFFFFFFFFFFFF NOT AND DUP3 PUSH28 0xFFFFFFFFFFFFFFFFFFFFFFFFFFFFFFFFFFFFFFFFFFFFFFFFFFFFFFFF NOT AND EQ SWAP1 POP SWAP2 SWAP1 POP JUMP JUMPDEST PUSH0 PUSH20 0xFFFFFFFFFFFFFFFFFFFFFFFFFFFFFFFFFFFFFFFF AND DUP5 PUSH20 0xFFFFFFFFFFFFFFFFFFFFFFFFFFFFFFFFFFFFFFFF AND SUB PUSH2 0x3234 JUMPI PUSH0 PUSH1 0x40 MLOAD PUSH32 0xE602DF0500000000000000000000000000000000000000000000000000000000 DUP2 MSTORE PUSH1 0x4 ADD PUSH2 0x322B SWAP2 SWAP1 PUSH2 0x48F6 JUMP JUMPDEST PUSH1 0x40 MLOAD DUP1 SWAP2 SUB SWAP1 REVERT JUMPDEST PUSH0 PUSH20 0xFFFFFFFFFFFFFFFFFFFFFFFFFFFFFFFFFFFFFFFF AND DUP4 PUSH20 0xFFFFFFFFFFFFFFFFFFFFFFFFFFFFFFFFFFFFFFFF AND SUB PUSH2 0x32A4 JUMPI PUSH0 PUSH1 0x40 MLOAD PUSH32 0x94280D6200000000000000000000000000000000000000000000000000000000 DUP2 MSTORE PUSH1 0x4 ADD PUSH2 0x329B SWAP2 SWAP1 PUSH2 0x48F6 JUMP JUMPDEST PUSH1 0x40 MLOAD DUP1 SWAP2 SUB SWAP1 REVERT JUMPDEST DUP2 PUSH1 0x1 PUSH0 DUP7 PUSH20 0xFFFFFFFFFFFFFFFFFFFFFFFFFFFFFFFFFFFFFFFF AND PUSH20 0xFFFFFFFFFFFFFFFFFFFFFFFFFFFFFFFFFFFFFFFF AND DUP2 MSTORE PUSH1 0x20 ADD SWAP1 DUP2 MSTORE PUSH1 0x20 ADD PUSH0 KECCAK256 PUSH0 DUP6 PUSH20 0xFFFFFFFFFFFFFFFFFFFFFFFFFFFFFFFFFFFFFFFF AND PUSH20 0xFFFFFFFFFFFFFFFFFFFFFFFFFFFFFFFFFFFFFFFF AND DUP2 MSTORE PUSH1 0x20 ADD SWAP1 DUP2 MSTORE PUSH1 0x20 ADD PUSH0 KECCAK256 DUP2 SWAP1 SSTORE POP DUP1 ISZERO PUSH2 0x338D JUMPI DUP3 PUSH20 0xFFFFFFFFFFFFFFFFFFFFFFFFFFFFFFFFFFFFFFFF AND DUP5 PUSH20 0xFFFFFFFFFFFFFFFFFFFFFFFFFFFFFFFFFFFFFFFF AND PUSH32 0x8C5BE1E5EBEC7D5BD14F71427D1E84F3DD0314C0F7B2291E5B200AC8C7C3B925 DUP5 PUSH1 0x40 MLOAD PUSH2 0x3384 SWAP2 SWAP1 PUSH2 0x477C JUMP JUMPDEST PUSH1 0x40 MLOAD DUP1 SWAP2 SUB SWAP1 LOG3 JUMPDEST POP POP POP POP JUMP JUMPDEST PUSH0 PUSH20 0xFFFFFFFFFFFFFFFFFFFFFFFFFFFFFFFFFFFFFFFF AND DUP4 PUSH20 0xFFFFFFFFFFFFFFFFFFFFFFFFFFFFFFFFFFFFFFFF AND SUB PUSH2 0x33E3 JUMPI DUP1 PUSH1 0x2 PUSH0 DUP3 DUP3 SLOAD PUSH2 0x33D7 SWAP2 SWAP1 PUSH2 0x5138 JUMP JUMPDEST SWAP3 POP POP DUP2 SWAP1 SSTORE POP PUSH2 0x34B1 JUMP JUMPDEST PUSH0 PUSH0 PUSH0 DUP6 PUSH20 0xFFFFFFFFFFFFFFFFFFFFFFFFFFFFFFFFFFFFFFFF AND PUSH20 0xFFFFFFFFFFFFFFFFFFFFFFFFFFFFFFFFFFFFFFFF AND DUP2 MSTORE PUSH1 0x20 ADD SWAP1 DUP2 MSTORE PUSH1 0x20 ADD PUSH0 KECCAK256 SLOAD SWAP1 POP DUP2 DUP2 LT ISZERO PUSH2 0x346C JUMPI DUP4 DUP2 DUP4 PUSH1 0x40 MLOAD PUSH32 0xE450D38C00000000000000000000000000000000000000000000000000000000 DUP2 MSTORE PUSH1 0x4 ADD PUSH2 0x3463 SWAP4 SWAP3 SWAP2 SWAP1 PUSH2 0x54AC JUMP JUMPDEST PUSH1 0x40 MLOAD DUP1 SWAP2 SUB SWAP1 REVERT JUMPDEST DUP2 DUP2 SUB PUSH0 PUSH0 DUP7 PUSH20 0xFFFFFFFFFFFFFFFFFFFFFFFFFFFFFFFFFFFFFFFF AND PUSH20 0xFFFFFFFFFFFFFFFFFFFFFFFFFFFFFFFFFFFFFFFF AND DUP2 MSTORE PUSH1 0x20 ADD SWAP1 DUP2 MSTORE PUSH1 0x20 ADD PUSH0 KECCAK256 DUP2 SWAP1 SSTORE POP POP JUMPDEST PUSH0 PUSH20 0xFFFFFFFFFFFFFFFFFFFFFFFFFFFFFFFFFFFFFFFF AND DUP3 PUSH20 0xFFFFFFFFFFFFFFFFFFFFFFFFFFFFFFFFFFFFFFFF AND SUB PUSH2 0x34F8 JUMPI DUP1 PUSH1 0x2 PUSH0 DUP3 DUP3 SLOAD SUB SWAP3 POP POP DUP2 SWAP1 SSTORE POP PUSH2 0x3542 JUMP JUMPDEST DUP1 PUSH0 PUSH0 DUP5 PUSH20 0xFFFFFFFFFFFFFFFFFFFFFFFFFFFFFFFFFFFFFFFF AND PUSH20 0xFFFFFFFFFFFFFFFFFFFFFFFFFFFFFFFFFFFFFFFF AND DUP2 MSTORE PUSH1 0x20 ADD SWAP1 DUP2 MSTORE PUSH1 0x20 ADD PUSH0 KECCAK256 PUSH0 DUP3 DUP3 SLOAD ADD SWAP3 POP POP DUP2 SWAP1 SSTORE POP JUMPDEST DUP2 PUSH20 0xFFFFFFFFFFFFFFFFFFFFFFFFFFFFFFFFFFFFFFFF AND DUP4 PUSH20 0xFFFFFFFFFFFFFFFFFFFFFFFFFFFFFFFFFFFFFFFF AND PUSH32 0xDDF252AD1BE2C89B69C2B068FC378DAA952BA7F163C4A11628F55A4DF523B3EF DUP4 PUSH1 0x40 MLOAD PUSH2 0x359F SWAP2 SWAP1 PUSH2 0x477C JUMP JUMPDEST PUSH1 0x40 MLOAD DUP1 SWAP2 SUB SWAP1 LOG3 POP POP POP JUMP JUMPDEST PUSH2 0x35B6 DUP3 DUP3 PUSH2 0x184D JUMP JUMPDEST PUSH2 0x35F9 JUMPI DUP1 DUP3 PUSH1 0x40 MLOAD PUSH32 0xE2517D3F00000000000000000000000000000000000000000000000000000000 DUP2 MSTORE PUSH1 0x4 ADD PUSH2 0x35F0 SWAP3 SWAP2 SWAP1 PUSH2 0x55FF JUMP JUMPDEST PUSH1 0x40 MLOAD DUP1 SWAP2 SUB SWAP1 REVERT JUMPDEST POP POP JUMP JUMPDEST PUSH0 PUSH32 0x8B73C3C69BB8FE3D512ECC4CF759CC79239F7B179B0FFACAA9A75D522B39400F PUSH32 0x0 PUSH32 0x0 CHAINID ADDRESS PUSH1 0x40 MLOAD PUSH1 0x20 ADD PUSH2 0x3677 SWAP6 SWAP5 SWAP4 SWAP3 SWAP2 SWAP1 PUSH2 0x5626 JUMP JUMPDEST PUSH1 0x40 MLOAD PUSH1 0x20 DUP2 DUP4 SUB SUB DUP2 MSTORE SWAP1 PUSH1 0x40 MSTORE DUP1 MLOAD SWAP1 PUSH1 0x20 ADD KECCAK256 SWAP1 POP SWAP1 JUMP JUMPDEST PUSH0 PUSH6 0xFFFFFFFFFFFF DUP1 AND DUP3 GT ISZERO PUSH2 0x36E3 JUMPI PUSH1 0x30 DUP3 PUSH1 0x40 MLOAD PUSH32 0x6DFCC65000000000000000000000000000000000000000000000000000000000 DUP2 MSTORE PUSH1 0x4 ADD PUSH2 0x36DA SWAP3 SWAP2 SWAP1 PUSH2 0x56B9 JUMP JUMPDEST PUSH1 0x40 MLOAD DUP1 SWAP2 SUB SWAP1 REVERT JUMPDEST DUP2 SWAP1 POP SWAP2 SWAP1 POP JUMP JUMPDEST PUSH0 PUSH1 0x1 DUP3 GT PUSH2 0x36FC JUMPI DUP2 SWAP1 POP PUSH2 0x3880 JUMP JUMPDEST PUSH0 DUP3 SWAP1 POP PUSH0 PUSH1 0x1 SWAP1 POP PUSH17 0x100000000000000000000000000000000 DUP3 LT PUSH2 0x372C JUMPI PUSH1 0x80 DUP3 SWAP1 SHR SWAP2 POP PUSH1 0x40 DUP2 SWAP1 SHL SWAP1 POP JUMPDEST PUSH9 0x10000000000000000 DUP3 LT PUSH2 0x374B JUMPI PUSH1 0x40 DUP3 SWAP1 SHR SWAP2 POP PUSH1 0x20 DUP2 SWAP1 SHL SWAP1 POP JUMPDEST PUSH5 0x100000000 DUP3 LT PUSH2 0x3766 JUMPI PUSH1 0x20 DUP3 SWAP1 SHR SWAP2 POP PUSH1 0x10 DUP2 SWAP1 SHL SWAP1 POP JUMPDEST PUSH3 0x10000 DUP3 LT PUSH2 0x377F JUMPI PUSH1 0x10 DUP3 SWAP1 SHR SWAP2 POP PUSH1 0x8 DUP2 SWAP1 SHL SWAP1 POP JUMPDEST PUSH2 0x100 DUP3 LT PUSH2 0x3797 JUMPI PUSH1 0x8 DUP3 SWAP1 SHR SWAP2 POP PUSH1 0x4 DUP2 SWAP1 SHL SWAP1 POP JUMPDEST PUSH1 0x10 DUP3 LT PUSH2 0x37AE JUMPI PUSH1 0x4 DUP3 SWAP1 SHR SWAP2 POP PUSH1 0x2 DUP2 SWAP1 SHL SWAP1 POP JUMPDEST PUSH1 0x4 DUP3 LT PUSH2 0x37BE JUMPI PUSH1 0x1 DUP2 SWAP1 SHL SWAP1 POP JUMPDEST PUSH1 0x1 DUP2 PUSH1 0x3 MUL SWAP1 SHR SWAP1 POP PUSH1 0x1 DUP2 DUP6 DUP2 PUSH2 0x37DA JUMPI PUSH2 0x37D9 PUSH2 0x522A JUMP JUMPDEST JUMPDEST DIV DUP3 ADD SWAP1 SHR SWAP1 POP PUSH1 0x1 DUP2 DUP6 DUP2 PUSH2 0x37F3 JUMPI PUSH2 0x37F2 PUSH2 0x522A JUMP JUMPDEST JUMPDEST DIV DUP3 ADD SWAP1 SHR SWAP1 POP PUSH1 0x1 DUP2 DUP6 DUP2 PUSH2 0x380C JUMPI PUSH2 0x380B PUSH2 0x522A JUMP JUMPDEST JUMPDEST DIV DUP3 ADD SWAP1 SHR SWAP1 POP PUSH1 0x1 DUP2 DUP6 DUP2 PUSH2 0x3825 JUMPI PUSH2 0x3824 PUSH2 0x522A JUMP JUMPDEST JUMPDEST DIV DUP3 ADD SWAP1 SHR SWAP1 POP PUSH1 0x1 DUP2 DUP6 DUP2 PUSH2 0x383E JUMPI PUSH2 0x383D PUSH2 0x522A JUMP JUMPDEST JUMPDEST DIV DUP3 ADD SWAP1 SHR SWAP1 POP PUSH1 0x1 DUP2 DUP6 DUP2 PUSH2 0x3857 JUMPI PUSH2 0x3856 PUSH2 0x522A JUMP JUMPDEST JUMPDEST DIV DUP3 ADD SWAP1 SHR SWAP1 POP PUSH2 0x3879 DUP2 DUP6 DUP2 PUSH2 0x3871 JUMPI PUSH2 0x3870 PUSH2 0x522A JUMP JUMPDEST JUMPDEST DIV DUP3 GT PUSH2 0x3F32 JUMP JUMPDEST DUP2 SUB SWAP3 POP POP POP JUMPDEST SWAP2 SWAP1 POP JUMP JUMPDEST PUSH0 DUP3 PUSH0 MSTORE DUP2 PUSH1 0x20 PUSH0 KECCAK256 ADD SWAP1 POP SWAP3 SWAP2 POP POP JUMP JUMPDEST PUSH0 JUMPDEST DUP2 DUP4 LT ISZERO PUSH2 0x3901 JUMPI PUSH0 PUSH2 0x38AC DUP5 DUP5 PUSH2 0x3F3D JUMP JUMPDEST SWAP1 POP DUP5 PUSH6 0xFFFFFFFFFFFF AND PUSH2 0x38C1 DUP8 DUP4 PUSH2 0x3885 JUMP JUMPDEST PUSH0 ADD PUSH0 SWAP1 SLOAD SWAP1 PUSH2 0x100 EXP SWAP1 DIV PUSH6 0xFFFFFFFFFFFF AND PUSH6 0xFFFFFFFFFFFF AND GT ISZERO PUSH2 0x38EB JUMPI DUP1 SWAP3 POP PUSH2 0x38FB JUMP JUMPDEST PUSH1 0x1 DUP2 PUSH2 0x38F8 SWAP2 SWAP1 PUSH2 0x5138 JUMP JUMPDEST SWAP4 POP JUMPDEST POP PUSH2 0x3899 JUMP JUMPDEST DUP2 SWAP1 POP SWAP5 SWAP4 POP POP POP POP JUMP JUMPDEST PUSH2 0x3914 PUSH2 0x12FB JUMP JUMPDEST PUSH2 0x3953 JUMPI PUSH1 0x40 MLOAD PUSH32 0x8C379A000000000000000000000000000000000000000000000000000000000 DUP2 MSTORE PUSH1 0x4 ADD PUSH2 0x394A SWAP1 PUSH2 0x572A JUMP JUMPDEST PUSH1 0x40 MLOAD DUP1 SWAP2 SUB SWAP1 REVERT JUMPDEST JUMP JUMPDEST PUSH0 PUSH2 0x395F DUP4 PUSH2 0x127D JUMP JUMPDEST SWAP1 POP DUP2 PUSH1 0x8 PUSH0 DUP6 PUSH20 0xFFFFFFFFFFFFFFFFFFFFFFFFFFFFFFFFFFFFFFFF AND PUSH20 0xFFFFFFFFFFFFFFFFFFFFFFFFFFFFFFFFFFFFFFFF AND DUP2 MSTORE PUSH1 0x20 ADD SWAP1 DUP2 MSTORE PUSH1 0x20 ADD PUSH0 KECCAK256 PUSH0 PUSH2 0x100 EXP DUP2 SLOAD DUP2 PUSH20 0xFFFFFFFFFFFFFFFFFFFFFFFFFFFFFFFFFFFFFFFF MUL NOT AND SWAP1 DUP4 PUSH20 0xFFFFFFFFFFFFFFFFFFFFFFFFFFFFFFFFFFFFFFFF AND MUL OR SWAP1 SSTORE POP DUP2 PUSH20 0xFFFFFFFFFFFFFFFFFFFFFFFFFFFFFFFFFFFFFFFF AND DUP2 PUSH20 0xFFFFFFFFFFFFFFFFFFFFFFFFFFFFFFFFFFFFFFFF AND DUP5 PUSH20 0xFFFFFFFFFFFFFFFFFFFFFFFFFFFFFFFFFFFFFFFF AND PUSH32 0x3134E8A2E6D97E929A7E54011EA5485D7D196DD5F0BA4D4EF95803E8E3FC257F PUSH1 0x40 MLOAD PUSH1 0x40 MLOAD DUP1 SWAP2 SUB SWAP1 LOG4 PUSH2 0x3A60 DUP2 DUP4 PUSH2 0x3A5B DUP7 PUSH2 0x3F62 JUMP JUMPDEST PUSH2 0x3F73 JUMP JUMPDEST POP POP POP JUMP JUMPDEST PUSH0 PUSH1 0x7 PUSH0 DUP4 PUSH20 0xFFFFFFFFFFFFFFFFFFFFFFFFFFFFFFFFFFFFFFFF AND PUSH20 0xFFFFFFFFFFFFFFFFFFFFFFFFFFFFFFFFFFFFFFFF AND DUP2 MSTORE PUSH1 0x20 ADD SWAP1 DUP2 MSTORE PUSH1 0x20 ADD PUSH0 KECCAK256 SLOAD SWAP1 POP SWAP2 SWAP1 POP JUMP JUMPDEST PUSH1 0x60 PUSH1 0xFF PUSH0 SHL DUP4 EQ PUSH2 0x3AC7 JUMPI PUSH2 0x3AC0 DUP4 PUSH2 0x41E3 JUMP JUMPDEST SWAP1 POP PUSH2 0x3B52 JUMP JUMPDEST DUP2 DUP1 SLOAD PUSH2 0x3AD3 SWAP1 PUSH2 0x50DB JUMP JUMPDEST DUP1 PUSH1 0x1F ADD PUSH1 0x20 DUP1 SWAP2 DIV MUL PUSH1 0x20 ADD PUSH1 0x40 MLOAD SWAP1 DUP2 ADD PUSH1 0x40 MSTORE DUP1 SWAP3 SWAP2 SWAP1 DUP2 DUP2 MSTORE PUSH1 0x20 ADD DUP3 DUP1 SLOAD PUSH2 0x3AFF SWAP1 PUSH2 0x50DB JUMP JUMPDEST DUP1 ISZERO PUSH2 0x3B4A JUMPI DUP1 PUSH1 0x1F LT PUSH2 0x3B21 JUMPI PUSH2 0x100 DUP1 DUP4 SLOAD DIV MUL DUP4 MSTORE SWAP2 PUSH1 0x20 ADD SWAP2 PUSH2 0x3B4A JUMP JUMPDEST DUP3 ADD SWAP2 SWAP1 PUSH0 MSTORE PUSH1 0x20 PUSH0 KECCAK256 SWAP1 JUMPDEST DUP2 SLOAD DUP2 MSTORE SWAP1 PUSH1 0x1 ADD SWAP1 PUSH1 0x20 ADD DUP1 DUP4 GT PUSH2 0x3B2D JUMPI DUP3 SWAP1 SUB PUSH1 0x1F AND DUP3 ADD SWAP2 JUMPDEST POP POP POP POP POP SWAP1 POP JUMPDEST SWAP3 SWAP2 POP POP JUMP JUMPDEST PUSH0 PUSH0 PUSH0 SWAP1 POP PUSH27 0x184F03E93FF9F4DAA797ED6E38ED64BF6A1F010000000000000000 DUP4 LT PUSH2 0x3BB4 JUMPI PUSH27 0x184F03E93FF9F4DAA797ED6E38ED64BF6A1F010000000000000000 DUP4 DUP2 PUSH2 0x3BAA JUMPI PUSH2 0x3BA9 PUSH2 0x522A JUMP JUMPDEST JUMPDEST DIV SWAP3 POP PUSH1 0x40 DUP2 ADD SWAP1 POP JUMPDEST PUSH14 0x4EE2D6D415B85ACEF8100000000 DUP4 LT PUSH2 0x3BF1 JUMPI PUSH14 0x4EE2D6D415B85ACEF8100000000 DUP4 DUP2 PUSH2 0x3BE7 JUMPI PUSH2 0x3BE6 PUSH2 0x522A JUMP JUMPDEST JUMPDEST DIV SWAP3 POP PUSH1 0x20 DUP2 ADD SWAP1 POP JUMPDEST PUSH7 0x2386F26FC10000 DUP4 LT PUSH2 0x3C20 JUMPI PUSH7 0x2386F26FC10000 DUP4 DUP2 PUSH2 0x3C16 JUMPI PUSH2 0x3C15 PUSH2 0x522A JUMP JUMPDEST JUMPDEST DIV SWAP3 POP PUSH1 0x10 DUP2 ADD SWAP1 POP JUMPDEST PUSH4 0x5F5E100 DUP4 LT PUSH2 0x3C49 JUMPI PUSH4 0x5F5E100 DUP4 DUP2 PUSH2 0x3C3F JUMPI PUSH2 0x3C3E PUSH2 0x522A JUMP JUMPDEST JUMPDEST DIV SWAP3 POP PUSH1 0x8 DUP2 ADD SWAP1 POP JUMPDEST PUSH2 0x2710 DUP4 LT PUSH2 0x3C6E JUMPI PUSH2 0x2710 DUP4 DUP2 PUSH2 0x3C64 JUMPI PUSH2 0x3C63 PUSH2 0x522A JUMP JUMPDEST JUMPDEST DIV SWAP3 POP PUSH1 0x4 DUP2 ADD SWAP1 POP JUMPDEST PUSH1 0x64 DUP4 LT PUSH2 0x3C91 JUMPI PUSH1 0x64 DUP4 DUP2 PUSH2 0x3C87 JUMPI PUSH2 0x3C86 PUSH2 0x522A JUMP JUMPDEST JUMPDEST DIV SWAP3 POP PUSH1 0x2 DUP2 ADD SWAP1 POP JUMPDEST PUSH1 0xA DUP4 LT PUSH2 0x3CA0 JUMPI PUSH1 0x1 DUP2 ADD SWAP1 POP JUMPDEST DUP1 SWAP2 POP POP SWAP2 SWAP1 POP JUMP JUMPDEST PUSH0 PUSH1 0x40 MLOAD PUSH32 0x1901000000000000000000000000000000000000000000000000000000000000 DUP2 MSTORE DUP4 PUSH1 0x2 DUP3 ADD MSTORE DUP3 PUSH1 0x22 DUP3 ADD MSTORE PUSH1 0x42 DUP2 KECCAK256 SWAP2 POP POP SWAP3 SWAP2 POP POP JUMP JUMPDEST PUSH0 PUSH0 PUSH0 PUSH32 0x7FFFFFFFFFFFFFFFFFFFFFFFFFFFFFFF5D576E7357A4501DDFE92F46681B20A0 DUP5 PUSH0 SHR GT ISZERO PUSH2 0x3D25 JUMPI PUSH0 PUSH1 0x3 DUP6 SWAP3 POP SWAP3 POP SWAP3 POP PUSH2 0x3DC6 JUMP JUMPDEST PUSH0 PUSH1 0x1 DUP9 DUP9 DUP9 DUP9 PUSH1 0x40 MLOAD PUSH0 DUP2 MSTORE PUSH1 0x20 ADD PUSH1 0x40 MSTORE PUSH1 0x40 MLOAD PUSH2 0x3D48 SWAP5 SWAP4 SWAP3 SWAP2 SWAP1 PUSH2 0x5748 JUMP JUMPDEST PUSH1 0x20 PUSH1 0x40 MLOAD PUSH1 0x20 DUP2 SUB SWAP1 DUP1 DUP5 SUB SWAP1 DUP6 GAS STATICCALL ISZERO DUP1 ISZERO PUSH2 0x3D68 JUMPI RETURNDATASIZE PUSH0 PUSH0 RETURNDATACOPY RETURNDATASIZE PUSH0 REVERT JUMPDEST POP POP POP PUSH1 0x20 PUSH1 0x40 MLOAD SUB MLOAD SWAP1 POP PUSH0 PUSH20 0xFFFFFFFFFFFFFFFFFFFFFFFFFFFFFFFFFFFFFFFF AND DUP2 PUSH20 0xFFFFFFFFFFFFFFFFFFFFFFFFFFFFFFFFFFFFFFFF AND SUB PUSH2 0x3DB9 JUMPI PUSH0 PUSH1 0x1 PUSH0 PUSH0 SHL SWAP4 POP SWAP4 POP SWAP4 POP POP PUSH2 0x3DC6 JUMP JUMPDEST DUP1 PUSH0 PUSH0 PUSH0 SHL SWAP4 POP SWAP4 POP SWAP4 POP POP JUMPDEST SWAP5 POP SWAP5 POP SWAP5 SWAP2 POP POP JUMP JUMPDEST PUSH0 PUSH1 0x3 DUP2 GT ISZERO PUSH2 0x3DE3 JUMPI PUSH2 0x3DE2 PUSH2 0x578B JUMP JUMPDEST JUMPDEST DUP3 PUSH1 0x3 DUP2 GT ISZERO PUSH2 0x3DF6 JUMPI PUSH2 0x3DF5 PUSH2 0x578B JUMP JUMPDEST JUMPDEST SUB ISZERO PUSH2 0x3F2E JUMPI PUSH1 0x1 PUSH1 0x3 DUP2 GT ISZERO PUSH2 0x3E10 JUMPI PUSH2 0x3E0F PUSH2 0x578B JUMP JUMPDEST JUMPDEST DUP3 PUSH1 0x3 DUP2 GT ISZERO PUSH2 0x3E23 JUMPI PUSH2 0x3E22 PUSH2 0x578B JUMP JUMPDEST JUMPDEST SUB PUSH2 0x3E5A JUMPI PUSH1 0x40 MLOAD PUSH32 0xF645EEDF00000000000000000000000000000000000000000000000000000000 DUP2 MSTORE PUSH1 0x4 ADD PUSH1 0x40 MLOAD DUP1 SWAP2 SUB SWAP1 REVERT JUMPDEST PUSH1 0x2 PUSH1 0x3 DUP2 GT ISZERO PUSH2 0x3E6E JUMPI PUSH2 0x3E6D PUSH2 0x578B JUMP JUMPDEST JUMPDEST DUP3 PUSH1 0x3 DUP2 GT ISZERO PUSH2 0x3E81 JUMPI PUSH2 0x3E80 PUSH2 0x578B JUMP JUMPDEST JUMPDEST SUB PUSH2 0x3EC5 JUMPI DUP1 PUSH0 SHR PUSH1 0x40 MLOAD PUSH32 0xFCE698F700000000000000000000000000000000000000000000000000000000 DUP2 MSTORE PUSH1 0x4 ADD PUSH2 0x3EBC SWAP2 SWAP1 PUSH2 0x477C JUMP JUMPDEST PUSH1 0x40 MLOAD DUP1 SWAP2 SUB SWAP1 REVERT JUMPDEST PUSH1 0x3 DUP1 DUP2 GT ISZERO PUSH2 0x3ED8 JUMPI PUSH2 0x3ED7 PUSH2 0x578B JUMP JUMPDEST JUMPDEST DUP3 PUSH1 0x3 DUP2 GT ISZERO PUSH2 0x3EEB JUMPI PUSH2 0x3EEA PUSH2 0x578B JUMP JUMPDEST JUMPDEST SUB PUSH2 0x3F2D JUMPI DUP1 PUSH1 0x40 MLOAD PUSH32 0xD78BCE0C00000000000000000000000000000000000000000000000000000000 DUP2 MSTORE PUSH1 0x4 ADD PUSH2 0x3F24 SWAP2 SWAP1 PUSH2 0x49CC JUMP JUMPDEST PUSH1 0x40 MLOAD DUP1 SWAP2 SUB SWAP1 REVERT JUMPDEST JUMPDEST POP POP JUMP JUMPDEST PUSH0 DUP2 ISZERO ISZERO SWAP1 POP SWAP2 SWAP1 POP JUMP JUMPDEST PUSH0 PUSH1 0x2 DUP3 DUP5 XOR PUSH2 0x3F4D SWAP2 SWAP1 PUSH2 0x5257 JUMP JUMPDEST DUP3 DUP5 AND PUSH2 0x3F5A SWAP2 SWAP1 PUSH2 0x5138 JUMP JUMPDEST SWAP1 POP SWAP3 SWAP2 POP POP JUMP JUMPDEST PUSH0 PUSH2 0x3F6C DUP3 PUSH2 0x1524 JUMP JUMPDEST SWAP1 POP SWAP2 SWAP1 POP JUMP JUMPDEST DUP2 PUSH20 0xFFFFFFFFFFFFFFFFFFFFFFFFFFFFFFFFFFFFFFFF AND DUP4 PUSH20 0xFFFFFFFFFFFFFFFFFFFFFFFFFFFFFFFFFFFFFFFF AND EQ ISZERO DUP1 ISZERO PUSH2 0x3FAE JUMPI POP PUSH0 DUP2 GT JUMPDEST ISZERO PUSH2 0x41DE JUMPI PUSH0 PUSH20 0xFFFFFFFFFFFFFFFFFFFFFFFFFFFFFFFFFFFFFFFF AND DUP4 PUSH20 0xFFFFFFFFFFFFFFFFFFFFFFFFFFFFFFFFFFFFFFFF AND EQ PUSH2 0x40C8 JUMPI PUSH0 PUSH0 PUSH2 0x4039 PUSH1 0x9 PUSH0 DUP8 PUSH20 0xFFFFFFFFFFFFFFFFFFFFFFFFFFFFFFFFFFFFFFFF AND PUSH20 0xFFFFFFFFFFFFFFFFFFFFFFFFFFFFFFFFFFFFFFFF AND DUP2 MSTORE PUSH1 0x20 ADD SWAP1 DUP2 MSTORE PUSH1 0x20 ADD PUSH0 KECCAK256 PUSH2 0x4255 PUSH2 0x4034 DUP7 PUSH2 0x426A JUMP JUMPDEST PUSH2 0x42D7 JUMP JUMPDEST PUSH26 0xFFFFFFFFFFFFFFFFFFFFFFFFFFFFFFFFFFFFFFFFFFFFFFFFFFFF AND SWAP2 POP PUSH26 0xFFFFFFFFFFFFFFFFFFFFFFFFFFFFFFFFFFFFFFFFFFFFFFFFFFFF AND SWAP2 POP DUP5 PUSH20 0xFFFFFFFFFFFFFFFFFFFFFFFFFFFFFFFFFFFFFFFF AND PUSH32 0xDEC2BACDD2F05B59DE34DA9B523DFF8BE42E5E38E818C82FDB0BAE774387A724 DUP4 DUP4 PUSH1 0x40 MLOAD PUSH2 0x40BD SWAP3 SWAP2 SWAP1 PUSH2 0x57B8 JUMP JUMPDEST PUSH1 0x40 MLOAD DUP1 SWAP2 SUB SWAP1 LOG2 POP POP JUMPDEST PUSH0 PUSH20 0xFFFFFFFFFFFFFFFFFFFFFFFFFFFFFFFFFFFFFFFF AND DUP3 PUSH20 0xFFFFFFFFFFFFFFFFFFFFFFFFFFFFFFFFFFFFFFFF AND EQ PUSH2 0x41DD JUMPI PUSH0 PUSH0 PUSH2 0x414E PUSH1 0x9 PUSH0 DUP7 PUSH20 0xFFFFFFFFFFFFFFFFFFFFFFFFFFFFFFFFFFFFFFFF AND PUSH20 0xFFFFFFFFFFFFFFFFFFFFFFFFFFFFFFFFFFFFFFFF AND DUP2 MSTORE PUSH1 0x20 ADD SWAP1 DUP2 MSTORE PUSH1 0x20 ADD PUSH0 KECCAK256 PUSH2 0x4316 PUSH2 0x4149 DUP7 PUSH2 0x426A JUMP JUMPDEST PUSH2 0x42D7 JUMP JUMPDEST PUSH26 0xFFFFFFFFFFFFFFFFFFFFFFFFFFFFFFFFFFFFFFFFFFFFFFFFFFFF AND SWAP2 POP PUSH26 0xFFFFFFFFFFFFFFFFFFFFFFFFFFFFFFFFFFFFFFFFFFFFFFFFFFFF AND SWAP2 POP DUP4 PUSH20 0xFFFFFFFFFFFFFFFFFFFFFFFFFFFFFFFFFFFFFFFF AND PUSH32 0xDEC2BACDD2F05B59DE34DA9B523DFF8BE42E5E38E818C82FDB0BAE774387A724 DUP4 DUP4 PUSH1 0x40 MLOAD PUSH2 0x41D2 SWAP3 SWAP2 SWAP1 PUSH2 0x57B8 JUMP JUMPDEST PUSH1 0x40 MLOAD DUP1 SWAP2 SUB SWAP1 LOG2 POP POP JUMPDEST JUMPDEST POP POP POP JUMP JUMPDEST PUSH1 0x60 PUSH0 PUSH2 0x41EF DUP4 PUSH2 0x432B JUMP JUMPDEST SWAP1 POP PUSH0 PUSH1 0x20 PUSH8 0xFFFFFFFFFFFFFFFF DUP2 GT ISZERO PUSH2 0x420D JUMPI PUSH2 0x420C PUSH2 0x4B0A JUMP JUMPDEST JUMPDEST PUSH1 0x40 MLOAD SWAP1 DUP1 DUP3 MSTORE DUP1 PUSH1 0x1F ADD PUSH1 0x1F NOT AND PUSH1 0x20 ADD DUP3 ADD PUSH1 0x40 MSTORE DUP1 ISZERO PUSH2 0x423F JUMPI DUP2 PUSH1 0x20 ADD PUSH1 0x1 DUP3 MUL DUP1 CALLDATASIZE DUP4 CALLDATACOPY DUP1 DUP3 ADD SWAP2 POP POP SWAP1 POP JUMPDEST POP SWAP1 POP DUP2 DUP2 MSTORE DUP4 PUSH1 0x20 DUP3 ADD MSTORE DUP1 SWAP3 POP POP POP SWAP2 SWAP1 POP JUMP JUMPDEST PUSH0 DUP2 DUP4 PUSH2 0x4262 SWAP2 SWAP1 PUSH2 0x5804 JUMP JUMPDEST SWAP1 POP SWAP3 SWAP2 POP POP JUMP JUMPDEST PUSH0 PUSH26 0xFFFFFFFFFFFFFFFFFFFFFFFFFFFFFFFFFFFFFFFFFFFFFFFFFFFF DUP1 AND DUP3 GT ISZERO PUSH2 0x42CF JUMPI PUSH1 0xD0 DUP3 PUSH1 0x40 MLOAD PUSH32 0x6DFCC65000000000000000000000000000000000000000000000000000000000 DUP2 MSTORE PUSH1 0x4 ADD PUSH2 0x42C6 SWAP3 SWAP2 SWAP1 PUSH2 0x588A JUMP JUMPDEST PUSH1 0x40 MLOAD DUP1 SWAP2 SUB SWAP1 REVERT JUMPDEST DUP2 SWAP1 POP SWAP2 SWAP1 POP JUMP JUMPDEST PUSH0 PUSH0 PUSH2 0x430A PUSH2 0x42E4 PUSH2 0x18B1 JUMP JUMPDEST PUSH2 0x42FA PUSH2 0x42F0 DUP9 PUSH2 0x2F3E JUMP JUMPDEST DUP7 DUP9 PUSH4 0xFFFFFFFF AND JUMP JUMPDEST DUP8 PUSH2 0x4379 SWAP1 SWAP3 SWAP2 SWAP1 PUSH4 0xFFFFFFFF AND JUMP JUMPDEST SWAP2 POP SWAP2 POP SWAP4 POP SWAP4 SWAP2 POP POP JUMP JUMPDEST PUSH0 DUP2 DUP4 PUSH2 0x4323 SWAP2 SWAP1 PUSH2 0x58B1 JUMP JUMPDEST SWAP1 POP SWAP3 SWAP2 POP POP JUMP JUMPDEST PUSH0 PUSH0 PUSH1 0xFF DUP4 PUSH0 SHR AND SWAP1 POP PUSH1 0x1F DUP2 GT ISZERO PUSH2 0x4370 JUMPI PUSH1 0x40 MLOAD PUSH32 0xB3512B0C00000000000000000000000000000000000000000000000000000000 DUP2 MSTORE PUSH1 0x4 ADD PUSH1 0x40 MLOAD DUP1 SWAP2 SUB SWAP1 REVERT JUMPDEST DUP1 SWAP2 POP POP SWAP2 SWAP1 POP JUMP JUMPDEST PUSH0 PUSH0 PUSH2 0x4388 DUP6 PUSH0 ADD DUP6 DUP6 PUSH2 0x4394 JUMP JUMPDEST SWAP2 POP SWAP2 POP SWAP4 POP SWAP4 SWAP2 POP POP JUMP JUMPDEST PUSH0 PUSH0 PUSH0 DUP6 DUP1 SLOAD SWAP1 POP SWAP1 POP PUSH0 DUP2 GT ISZERO PUSH2 0x45A0 JUMPI PUSH0 PUSH2 0x43BD DUP8 PUSH1 0x1 DUP5 PUSH2 0x43B8 SWAP2 SWAP1 PUSH2 0x516B JUMP JUMPDEST PUSH2 0x3885 JUMP JUMPDEST SWAP1 POP PUSH0 DUP2 PUSH0 ADD PUSH0 SWAP1 SLOAD SWAP1 PUSH2 0x100 EXP SWAP1 DIV PUSH6 0xFFFFFFFFFFFF AND SWAP1 POP PUSH0 DUP3 PUSH0 ADD PUSH1 0x6 SWAP1 SLOAD SWAP1 PUSH2 0x100 EXP SWAP1 DIV PUSH26 0xFFFFFFFFFFFFFFFFFFFFFFFFFFFFFFFFFFFFFFFFFFFFFFFFFFFF AND SWAP1 POP DUP8 PUSH6 0xFFFFFFFFFFFF AND DUP3 PUSH6 0xFFFFFFFFFFFF AND GT ISZERO PUSH2 0x444E JUMPI PUSH1 0x40 MLOAD PUSH32 0x2520601D00000000000000000000000000000000000000000000000000000000 DUP2 MSTORE PUSH1 0x4 ADD PUSH1 0x40 MLOAD DUP1 SWAP2 SUB SWAP1 REVERT JUMPDEST DUP8 PUSH6 0xFFFFFFFFFFFF AND DUP3 PUSH6 0xFFFFFFFFFFFF AND SUB PUSH2 0x44B8 JUMPI DUP7 DUP4 PUSH0 ADD PUSH1 0x6 PUSH2 0x100 EXP DUP2 SLOAD DUP2 PUSH26 0xFFFFFFFFFFFFFFFFFFFFFFFFFFFFFFFFFFFFFFFFFFFFFFFFFFFF MUL NOT AND SWAP1 DUP4 PUSH26 0xFFFFFFFFFFFFFFFFFFFFFFFFFFFFFFFFFFFFFFFFFFFFFFFFFFFF AND MUL OR SWAP1 SSTORE POP PUSH2 0x4591 JUMP JUMPDEST DUP9 PUSH1 0x40 MLOAD DUP1 PUSH1 0x40 ADD PUSH1 0x40 MSTORE DUP1 DUP11 PUSH6 0xFFFFFFFFFFFF AND DUP2 MSTORE PUSH1 0x20 ADD DUP10 PUSH26 0xFFFFFFFFFFFFFFFFFFFFFFFFFFFFFFFFFFFFFFFFFFFFFFFFFFFF AND DUP2 MSTORE POP SWAP1 DUP1 PUSH1 0x1 DUP2 SLOAD ADD DUP1 DUP3 SSTORE DUP1 SWAP2 POP POP PUSH1 0x1 SWAP1 SUB SWAP1 PUSH0 MSTORE PUSH1 0x20 PUSH0 KECCAK256 ADD PUSH0 SWAP1 SWAP2 SWAP1 SWAP2 SWAP1 SWAP2 POP PUSH0 DUP3 ADD MLOAD DUP2 PUSH0 ADD PUSH0 PUSH2 0x100 EXP DUP2 SLOAD DUP2 PUSH6 0xFFFFFFFFFFFF MUL NOT AND SWAP1 DUP4 PUSH6 0xFFFFFFFFFFFF AND MUL OR SWAP1 SSTORE POP PUSH1 0x20 DUP3 ADD MLOAD DUP2 PUSH0 ADD PUSH1 0x6 PUSH2 0x100 EXP DUP2 SLOAD DUP2 PUSH26 0xFFFFFFFFFFFFFFFFFFFFFFFFFFFFFFFFFFFFFFFFFFFFFFFFFFFF MUL NOT AND SWAP1 DUP4 PUSH26 0xFFFFFFFFFFFFFFFFFFFFFFFFFFFFFFFFFFFFFFFFFFFFFFFFFFFF AND MUL OR SWAP1 SSTORE POP POP POP JUMPDEST DUP1 DUP8 SWAP6 POP SWAP6 POP POP POP POP POP PUSH2 0x4680 JUMP JUMPDEST DUP6 PUSH1 0x40 MLOAD DUP1 PUSH1 0x40 ADD PUSH1 0x40 MSTORE DUP1 DUP8 PUSH6 0xFFFFFFFFFFFF AND DUP2 MSTORE PUSH1 0x20 ADD DUP7 PUSH26 0xFFFFFFFFFFFFFFFFFFFFFFFFFFFFFFFFFFFFFFFFFFFFFFFFFFFF AND DUP2 MSTORE POP SWAP1 DUP1 PUSH1 0x1 DUP2 SLOAD ADD DUP1 DUP3 SSTORE DUP1 SWAP2 POP POP PUSH1 0x1 SWAP1 SUB SWAP1 PUSH0 MSTORE PUSH1 0x20 PUSH0 KECCAK256 ADD PUSH0 SWAP1 SWAP2 SWAP1 SWAP2 SWAP1 SWAP2 POP PUSH0 DUP3 ADD MLOAD DUP2 PUSH0 ADD PUSH0 PUSH2 0x100 EXP DUP2 SLOAD DUP2 PUSH6 0xFFFFFFFFFFFF MUL NOT AND SWAP1 DUP4 PUSH6 0xFFFFFFFFFFFF AND MUL OR SWAP1 SSTORE POP PUSH1 0x20 DUP3 ADD MLOAD DUP2 PUSH0 ADD PUSH1 0x6 PUSH2 0x100 EXP DUP2 SLOAD DUP2 PUSH26 0xFFFFFFFFFFFFFFFFFFFFFFFFFFFFFFFFFFFFFFFFFFFFFFFFFFFF MUL NOT AND SWAP1 DUP4 PUSH26 0xFFFFFFFFFFFFFFFFFFFFFFFFFFFFFFFFFFFFFFFFFFFFFFFFFFFF AND MUL OR SWAP1 SSTORE POP POP POP PUSH0 DUP5 SWAP3 POP SWAP3 POP POP JUMPDEST SWAP4 POP SWAP4 SWAP2 POP POP JUMP JUMPDEST PUSH1 0x40 MLOAD DUP1 PUSH1 0x40 ADD PUSH1 0x40 MSTORE DUP1 PUSH0 DUP2 MSTORE PUSH1 0x20 ADD PUSH0 DUP2 MSTORE POP SWAP1 JUMP JUMPDEST PUSH0 PUSH1 0x40 MLOAD SWAP1 POP SWAP1 JUMP JUMPDEST PUSH0 PUSH0 REVERT JUMPDEST PUSH0 PUSH0 REVERT JUMPDEST PUSH0 PUSH32 0xFFFFFFFF00000000000000000000000000000000000000000000000000000000 DUP3 AND SWAP1 POP SWAP2 SWAP1 POP JUMP JUMPDEST PUSH2 0x46E5 DUP2 PUSH2 0x46B1 JUMP JUMPDEST DUP2 EQ PUSH2 0x46EF JUMPI PUSH0 PUSH0 REVERT JUMPDEST POP JUMP JUMPDEST PUSH0 DUP2 CALLDATALOAD SWAP1 POP PUSH2 0x4700 DUP2 PUSH2 0x46DC JUMP JUMPDEST SWAP3 SWAP2 POP POP JUMP JUMPDEST PUSH0 PUSH1 0x20 DUP3 DUP5 SUB SLT ISZERO PUSH2 0x471B JUMPI PUSH2 0x471A PUSH2 0x46A9 JUMP JUMPDEST JUMPDEST PUSH0 PUSH2 0x4728 DUP5 DUP3 DUP6 ADD PUSH2 0x46F2 JUMP JUMPDEST SWAP2 POP POP SWAP3 SWAP2 POP POP JUMP JUMPDEST PUSH0 DUP2 ISZERO ISZERO SWAP1 POP SWAP2 SWAP1 POP JUMP JUMPDEST PUSH2 0x4745 DUP2 PUSH2 0x4731 JUMP JUMPDEST DUP3 MSTORE POP POP JUMP JUMPDEST PUSH0 PUSH1 0x20 DUP3 ADD SWAP1 POP PUSH2 0x475E PUSH0 DUP4 ADD DUP5 PUSH2 0x473C JUMP JUMPDEST SWAP3 SWAP2 POP POP JUMP JUMPDEST PUSH0 DUP2 SWAP1 POP SWAP2 SWAP1 POP JUMP JUMPDEST PUSH2 0x4776 DUP2 PUSH2 0x4764 JUMP JUMPDEST DUP3 MSTORE POP POP JUMP JUMPDEST PUSH0 PUSH1 0x20 DUP3 ADD SWAP1 POP PUSH2 0x478F PUSH0 DUP4 ADD DUP5 PUSH2 0x476D JUMP JUMPDEST SWAP3 SWAP2 POP POP JUMP JUMPDEST PUSH0 DUP2 MLOAD SWAP1 POP SWAP2 SWAP1 POP JUMP JUMPDEST PUSH0 DUP3 DUP3 MSTORE PUSH1 0x20 DUP3 ADD SWAP1 POP SWAP3 SWAP2 POP POP JUMP JUMPDEST DUP3 DUP2 DUP4 MCOPY PUSH0 DUP4 DUP4 ADD MSTORE POP POP POP JUMP JUMPDEST PUSH0 PUSH1 0x1F NOT PUSH1 0x1F DUP4 ADD AND SWAP1 POP SWAP2 SWAP1 POP JUMP JUMPDEST PUSH0 PUSH2 0x47D7 DUP3 PUSH2 0x4795 JUMP JUMPDEST PUSH2 0x47E1 DUP2 DUP6 PUSH2 0x479F JUMP JUMPDEST SWAP4 POP PUSH2 0x47F1 DUP2 DUP6 PUSH1 0x20 DUP7 ADD PUSH2 0x47AF JUMP JUMPDEST PUSH2 0x47FA DUP2 PUSH2 0x47BD JUMP JUMPDEST DUP5 ADD SWAP2 POP POP SWAP3 SWAP2 POP POP JUMP JUMPDEST PUSH0 PUSH1 0x20 DUP3 ADD SWAP1 POP DUP2 DUP2 SUB PUSH0 DUP4 ADD MSTORE PUSH2 0x481D DUP2 DUP5 PUSH2 0x47CD JUMP JUMPDEST SWAP1 POP SWAP3 SWAP2 POP POP JUMP JUMPDEST PUSH0 PUSH20 0xFFFFFFFFFFFFFFFFFFFFFFFFFFFFFFFFFFFFFFFF DUP3 AND SWAP1 POP SWAP2 SWAP1 POP JUMP JUMPDEST PUSH0 PUSH2 0x484E DUP3 PUSH2 0x4825 JUMP JUMPDEST SWAP1 POP SWAP2 SWAP1 POP JUMP JUMPDEST PUSH2 0x485E DUP2 PUSH2 0x4844 JUMP JUMPDEST DUP2 EQ PUSH2 0x4868 JUMPI PUSH0 PUSH0 REVERT JUMPDEST POP JUMP JUMPDEST PUSH0 DUP2 CALLDATALOAD SWAP1 POP PUSH2 0x4879 DUP2 PUSH2 0x4855 JUMP JUMPDEST SWAP3 SWAP2 POP POP JUMP JUMPDEST PUSH2 0x4888 DUP2 PUSH2 0x4764 JUMP JUMPDEST DUP2 EQ PUSH2 0x4892 JUMPI PUSH0 PUSH0 REVERT JUMPDEST POP JUMP JUMPDEST PUSH0 DUP2 CALLDATALOAD SWAP1 POP PUSH2 0x48A3 DUP2 PUSH2 0x487F JUMP JUMPDEST SWAP3 SWAP2 POP POP JUMP JUMPDEST PUSH0 PUSH0 PUSH1 0x40 DUP4 DUP6 SUB SLT ISZERO PUSH2 0x48BF JUMPI PUSH2 0x48BE PUSH2 0x46A9 JUMP JUMPDEST JUMPDEST PUSH0 PUSH2 0x48CC DUP6 DUP3 DUP7 ADD PUSH2 0x486B JUMP JUMPDEST SWAP3 POP POP PUSH1 0x20 PUSH2 0x48DD DUP6 DUP3 DUP7 ADD PUSH2 0x4895 JUMP JUMPDEST SWAP2 POP POP SWAP3 POP SWAP3 SWAP1 POP JUMP JUMPDEST PUSH2 0x48F0 DUP2 PUSH2 0x4844 JUMP JUMPDEST DUP3 MSTORE POP POP JUMP JUMPDEST PUSH0 PUSH1 0x20 DUP3 ADD SWAP1 POP PUSH2 0x4909 PUSH0 DUP4 ADD DUP5 PUSH2 0x48E7 JUMP JUMPDEST SWAP3 SWAP2 POP POP JUMP JUMPDEST PUSH0 PUSH0 PUSH0 PUSH1 0x60 DUP5 DUP7 SUB SLT ISZERO PUSH2 0x4926 JUMPI PUSH2 0x4925 PUSH2 0x46A9 JUMP JUMPDEST JUMPDEST PUSH0 PUSH2 0x4933 DUP7 DUP3 DUP8 ADD PUSH2 0x486B JUMP JUMPDEST SWAP4 POP POP PUSH1 0x20 PUSH2 0x4944 DUP7 DUP3 DUP8 ADD PUSH2 0x486B JUMP JUMPDEST SWAP3 POP POP PUSH1 0x40 PUSH2 0x4955 DUP7 DUP3 DUP8 ADD PUSH2 0x4895 JUMP JUMPDEST SWAP2 POP POP SWAP3 POP SWAP3 POP SWAP3 JUMP JUMPDEST PUSH0 DUP2 SWAP1 POP SWAP2 SWAP1 POP JUMP JUMPDEST PUSH2 0x4971 DUP2 PUSH2 0x495F JUMP JUMPDEST DUP2 EQ PUSH2 0x497B JUMPI PUSH0 PUSH0 REVERT JUMPDEST POP JUMP JUMPDEST PUSH0 DUP2 CALLDATALOAD SWAP1 POP PUSH2 0x498C DUP2 PUSH2 0x4968 JUMP JUMPDEST SWAP3 SWAP2 POP POP JUMP JUMPDEST PUSH0 PUSH1 0x20 DUP3 DUP5 SUB SLT ISZERO PUSH2 0x49A7 JUMPI PUSH2 0x49A6 PUSH2 0x46A9 JUMP JUMPDEST JUMPDEST PUSH0 PUSH2 0x49B4 DUP5 DUP3 DUP6 ADD PUSH2 0x497E JUMP JUMPDEST SWAP2 POP POP SWAP3 SWAP2 POP POP JUMP JUMPDEST PUSH2 0x49C6 DUP2 PUSH2 0x495F JUMP JUMPDEST DUP3 MSTORE POP POP JUMP JUMPDEST PUSH0 PUSH1 0x20 DUP3 ADD SWAP1 POP PUSH2 0x49DF PUSH0 DUP4 ADD DUP5 PUSH2 0x49BD JUMP JUMPDEST SWAP3 SWAP2 POP POP JUMP JUMPDEST PUSH0 PUSH0 PUSH1 0x40 DUP4 DUP6 SUB SLT ISZERO PUSH2 0x49FB JUMPI PUSH2 0x49FA PUSH2 0x46A9 JUMP JUMPDEST JUMPDEST PUSH0 PUSH2 0x4A08 DUP6 DUP3 DUP7 ADD PUSH2 0x497E JUMP JUMPDEST SWAP3 POP POP PUSH1 0x20 PUSH2 0x4A19 DUP6 DUP3 DUP7 ADD PUSH2 0x486B JUMP JUMPDEST SWAP2 POP POP SWAP3 POP SWAP3 SWAP1 POP JUMP JUMPDEST PUSH0 PUSH1 0xFF DUP3 AND SWAP1 POP SWAP2 SWAP1 POP JUMP JUMPDEST PUSH2 0x4A38 DUP2 PUSH2 0x4A23 JUMP JUMPDEST DUP3 MSTORE POP POP JUMP JUMPDEST PUSH0 PUSH1 0x20 DUP3 ADD SWAP1 POP PUSH2 0x4A51 PUSH0 DUP4 ADD DUP5 PUSH2 0x4A2F JUMP JUMPDEST SWAP3 SWAP2 POP POP JUMP JUMPDEST PUSH2 0x4A60 DUP2 PUSH2 0x4764 JUMP JUMPDEST DUP3 MSTORE POP POP JUMP JUMPDEST PUSH1 0x40 DUP3 ADD PUSH0 DUP3 ADD MLOAD PUSH2 0x4A7A PUSH0 DUP6 ADD DUP3 PUSH2 0x4A57 JUMP JUMPDEST POP PUSH1 0x20 DUP3 ADD MLOAD PUSH2 0x4A8D PUSH1 0x20 DUP6 ADD DUP3 PUSH2 0x4A57 JUMP JUMPDEST POP POP POP POP JUMP JUMPDEST PUSH0 PUSH1 0x40 DUP3 ADD SWAP1 POP PUSH2 0x4AA6 PUSH0 DUP4 ADD DUP5 PUSH2 0x4A66 JUMP JUMPDEST SWAP3 SWAP2 POP POP JUMP JUMPDEST PUSH0 PUSH1 0x20 DUP3 DUP5 SUB SLT ISZERO PUSH2 0x4AC1 JUMPI PUSH2 0x4AC0 PUSH2 0x46A9 JUMP JUMPDEST JUMPDEST PUSH0 PUSH2 0x4ACE DUP5 DUP3 DUP6 ADD PUSH2 0x4895 JUMP JUMPDEST SWAP2 POP POP SWAP3 SWAP2 POP POP JUMP JUMPDEST PUSH0 PUSH1 0x20 DUP3 DUP5 SUB SLT ISZERO PUSH2 0x4AEC JUMPI PUSH2 0x4AEB PUSH2 0x46A9 JUMP JUMPDEST JUMPDEST PUSH0 PUSH2 0x4AF9 DUP5 DUP3 DUP6 ADD PUSH2 0x486B JUMP JUMPDEST SWAP2 POP POP SWAP3 SWAP2 POP POP JUMP JUMPDEST PUSH0 PUSH0 REVERT JUMPDEST PUSH0 PUSH0 REVERT JUMPDEST PUSH32 0x4E487B7100000000000000000000000000000000000000000000000000000000 PUSH0 MSTORE PUSH1 0x41 PUSH1 0x4 MSTORE PUSH1 0x24 PUSH0 REVERT JUMPDEST PUSH2 0x4B40 DUP3 PUSH2 0x47BD JUMP JUMPDEST DUP2 ADD DUP2 DUP2 LT PUSH8 0xFFFFFFFFFFFFFFFF DUP3 GT OR ISZERO PUSH2 0x4B5F JUMPI PUSH2 0x4B5E PUSH2 0x4B0A JUMP JUMPDEST JUMPDEST DUP1 PUSH1 0x40 MSTORE POP POP POP JUMP JUMPDEST PUSH0 PUSH2 0x4B71 PUSH2 0x46A0 JUMP JUMPDEST SWAP1 POP PUSH2 0x4B7D DUP3 DUP3 PUSH2 0x4B37 JUMP JUMPDEST SWAP2 SWAP1 POP JUMP JUMPDEST PUSH0 PUSH8 0xFFFFFFFFFFFFFFFF DUP3 GT ISZERO PUSH2 0x4B9C JUMPI PUSH2 0x4B9B PUSH2 0x4B0A JUMP JUMPDEST JUMPDEST PUSH2 0x4BA5 DUP3 PUSH2 0x47BD JUMP JUMPDEST SWAP1 POP PUSH1 0x20 DUP2 ADD SWAP1 POP SWAP2 SWAP1 POP JUMP JUMPDEST DUP3 DUP2 DUP4 CALLDATACOPY PUSH0 DUP4 DUP4 ADD MSTORE POP POP POP JUMP JUMPDEST PUSH0 PUSH2 0x4BD2 PUSH2 0x4BCD DUP5 PUSH2 0x4B82 JUMP JUMPDEST PUSH2 0x4B68 JUMP JUMPDEST SWAP1 POP DUP3 DUP2 MSTORE PUSH1 0x20 DUP2 ADD DUP5 DUP5 DUP5 ADD GT ISZERO PUSH2 0x4BEE JUMPI PUSH2 0x4BED PUSH2 0x4B06 JUMP JUMPDEST JUMPDEST PUSH2 0x4BF9 DUP5 DUP3 DUP6 PUSH2 0x4BB2 JUMP JUMPDEST POP SWAP4 SWAP3 POP POP POP JUMP JUMPDEST PUSH0 DUP3 PUSH1 0x1F DUP4 ADD SLT PUSH2 0x4C15 JUMPI PUSH2 0x4C14 PUSH2 0x4B02 JUMP JUMPDEST JUMPDEST DUP2 CALLDATALOAD PUSH2 0x4C25 DUP5 DUP3 PUSH1 0x20 DUP7 ADD PUSH2 0x4BC0 JUMP JUMPDEST SWAP2 POP POP SWAP3 SWAP2 POP POP JUMP JUMPDEST PUSH0 PUSH1 0x20 DUP3 DUP5 SUB SLT ISZERO PUSH2 0x4C43 JUMPI PUSH2 0x4C42 PUSH2 0x46A9 JUMP JUMPDEST JUMPDEST PUSH0 DUP3 ADD CALLDATALOAD PUSH8 0xFFFFFFFFFFFFFFFF DUP2 GT ISZERO PUSH2 0x4C60 JUMPI PUSH2 0x4C5F PUSH2 0x46AD JUMP JUMPDEST JUMPDEST PUSH2 0x4C6C DUP5 DUP3 DUP6 ADD PUSH2 0x4C01 JUMP JUMPDEST SWAP2 POP POP SWAP3 SWAP2 POP POP JUMP JUMPDEST PUSH0 PUSH0 PUSH1 0x40 DUP4 DUP6 SUB SLT ISZERO PUSH2 0x4C8B JUMPI PUSH2 0x4C8A PUSH2 0x46A9 JUMP JUMPDEST JUMPDEST PUSH0 PUSH2 0x4C98 DUP6 DUP3 DUP7 ADD PUSH2 0x486B JUMP JUMPDEST SWAP3 POP POP PUSH1 0x20 DUP4 ADD CALLDATALOAD PUSH8 0xFFFFFFFFFFFFFFFF DUP2 GT ISZERO PUSH2 0x4CB9 JUMPI PUSH2 0x4CB8 PUSH2 0x46AD JUMP JUMPDEST JUMPDEST PUSH2 0x4CC5 DUP6 DUP3 DUP7 ADD PUSH2 0x4C01 JUMP JUMPDEST SWAP2 POP POP SWAP3 POP SWAP3 SWAP1 POP JUMP JUMPDEST PUSH0 PUSH32 0xFF00000000000000000000000000000000000000000000000000000000000000 DUP3 AND SWAP1 POP SWAP2 SWAP1 POP JUMP JUMPDEST PUSH2 0x4D03 DUP2 PUSH2 0x4CCF JUMP JUMPDEST DUP3 MSTORE POP POP JUMP JUMPDEST PUSH0 DUP2 MLOAD SWAP1 POP SWAP2 SWAP1 POP JUMP JUMPDEST PUSH0 DUP3 DUP3 MSTORE PUSH1 0x20 DUP3 ADD SWAP1 POP SWAP3 SWAP2 POP POP JUMP JUMPDEST PUSH0 DUP2 SWAP1 POP PUSH1 0x20 DUP3 ADD SWAP1 POP SWAP2 SWAP1 POP JUMP JUMPDEST PUSH0 PUSH2 0x4D3D DUP4 DUP4 PUSH2 0x4A57 JUMP JUMPDEST PUSH1 0x20 DUP4 ADD SWAP1 POP SWAP3 SWAP2 POP POP JUMP JUMPDEST PUSH0 PUSH1 0x20 DUP3 ADD SWAP1 POP SWAP2 SWAP1 POP JUMP JUMPDEST PUSH0 PUSH2 0x4D5F DUP3 PUSH2 0x4D09 JUMP JUMPDEST PUSH2 0x4D69 DUP2 DUP6 PUSH2 0x4D13 JUMP JUMPDEST SWAP4 POP PUSH2 0x4D74 DUP4 PUSH2 0x4D23 JUMP JUMPDEST DUP1 PUSH0 JUMPDEST DUP4 DUP2 LT ISZERO PUSH2 0x4DA4 JUMPI DUP2 MLOAD PUSH2 0x4D8B DUP9 DUP3 PUSH2 0x4D32 JUMP JUMPDEST SWAP8 POP PUSH2 0x4D96 DUP4 PUSH2 0x4D49 JUMP JUMPDEST SWAP3 POP POP PUSH1 0x1 DUP2 ADD SWAP1 POP PUSH2 0x4D77 JUMP JUMPDEST POP DUP6 SWAP4 POP POP POP POP SWAP3 SWAP2 POP POP JUMP JUMPDEST PUSH0 PUSH1 0xE0 DUP3 ADD SWAP1 POP PUSH2 0x4DC4 PUSH0 DUP4 ADD DUP11 PUSH2 0x4CFA JUMP JUMPDEST DUP2 DUP2 SUB PUSH1 0x20 DUP4 ADD MSTORE PUSH2 0x4DD6 DUP2 DUP10 PUSH2 0x47CD JUMP JUMPDEST SWAP1 POP DUP2 DUP2 SUB PUSH1 0x40 DUP4 ADD MSTORE PUSH2 0x4DEA DUP2 DUP9 PUSH2 0x47CD JUMP JUMPDEST SWAP1 POP PUSH2 0x4DF9 PUSH1 0x60 DUP4 ADD DUP8 PUSH2 0x476D JUMP JUMPDEST PUSH2 0x4E06 PUSH1 0x80 DUP4 ADD DUP7 PUSH2 0x48E7 JUMP JUMPDEST PUSH2 0x4E13 PUSH1 0xA0 DUP4 ADD DUP6 PUSH2 0x49BD JUMP JUMPDEST DUP2 DUP2 SUB PUSH1 0xC0 DUP4 ADD MSTORE PUSH2 0x4E25 DUP2 DUP5 PUSH2 0x4D55 JUMP JUMPDEST SWAP1 POP SWAP9 SWAP8 POP POP POP POP POP POP POP POP JUMP JUMPDEST PUSH0 PUSH6 0xFFFFFFFFFFFF DUP3 AND SWAP1 POP SWAP2 SWAP1 POP JUMP JUMPDEST PUSH2 0x4E4D DUP2 PUSH2 0x4E33 JUMP JUMPDEST DUP3 MSTORE POP POP JUMP JUMPDEST PUSH0 PUSH1 0x20 DUP3 ADD SWAP1 POP PUSH2 0x4E66 PUSH0 DUP4 ADD DUP5 PUSH2 0x4E44 JUMP JUMPDEST SWAP3 SWAP2 POP POP JUMP JUMPDEST PUSH0 PUSH0 PUSH1 0x40 DUP4 DUP6 SUB SLT ISZERO PUSH2 0x4E82 JUMPI PUSH2 0x4E81 PUSH2 0x46A9 JUMP JUMPDEST JUMPDEST PUSH0 DUP4 ADD CALLDATALOAD PUSH8 0xFFFFFFFFFFFFFFFF DUP2 GT ISZERO PUSH2 0x4E9F JUMPI PUSH2 0x4E9E PUSH2 0x46AD JUMP JUMPDEST JUMPDEST PUSH2 0x4EAB DUP6 DUP3 DUP7 ADD PUSH2 0x4C01 JUMP JUMPDEST SWAP3 POP POP PUSH1 0x20 PUSH2 0x4EBC DUP6 DUP3 DUP7 ADD PUSH2 0x4895 JUMP JUMPDEST SWAP2 POP POP SWAP3 POP SWAP3 SWAP1 POP JUMP JUMPDEST PUSH2 0x4ECF DUP2 PUSH2 0x4A23 JUMP JUMPDEST DUP2 EQ PUSH2 0x4ED9 JUMPI PUSH0 PUSH0 REVERT JUMPDEST POP JUMP JUMPDEST PUSH0 DUP2 CALLDATALOAD SWAP1 POP PUSH2 0x4EEA DUP2 PUSH2 0x4EC6 JUMP JUMPDEST SWAP3 SWAP2 POP POP JUMP JUMPDEST PUSH0 PUSH0 PUSH0 PUSH0 PUSH0 PUSH0 PUSH1 0xC0 DUP8 DUP10 SUB SLT ISZERO PUSH2 0x4F0A JUMPI PUSH2 0x4F09 PUSH2 0x46A9 JUMP JUMPDEST JUMPDEST PUSH0 PUSH2 0x4F17 DUP10 DUP3 DUP11 ADD PUSH2 0x486B JUMP JUMPDEST SWAP7 POP POP PUSH1 0x20 PUSH2 0x4F28 DUP10 DUP3 DUP11 ADD PUSH2 0x4895 JUMP JUMPDEST SWAP6 POP POP PUSH1 0x40 PUSH2 0x4F39 DUP10 DUP3 DUP11 ADD PUSH2 0x4895 JUMP JUMPDEST SWAP5 POP POP PUSH1 0x60 PUSH2 0x4F4A DUP10 DUP3 DUP11 ADD PUSH2 0x4EDC JUMP JUMPDEST SWAP4 POP POP PUSH1 0x80 PUSH2 0x4F5B DUP10 DUP3 DUP11 ADD PUSH2 0x497E JUMP JUMPDEST SWAP3 POP POP PUSH1 0xA0 PUSH2 0x4F6C DUP10 DUP3 DUP11 ADD PUSH2 0x497E JUMP JUMPDEST SWAP2 POP POP SWAP3 SWAP6 POP SWAP3 SWAP6 POP SWAP3 SWAP6 JUMP JUMPDEST PUSH0 PUSH0 PUSH0 PUSH0 PUSH0 PUSH0 PUSH0 PUSH1 0xE0 DUP9 DUP11 SUB SLT ISZERO PUSH2 0x4F94 JUMPI PUSH2 0x4F93 PUSH2 0x46A9 JUMP JUMPDEST JUMPDEST PUSH0 PUSH2 0x4FA1 DUP11 DUP3 DUP12 ADD PUSH2 0x486B JUMP JUMPDEST SWAP8 POP POP PUSH1 0x20 PUSH2 0x4FB2 DUP11 DUP3 DUP12 ADD PUSH2 0x486B JUMP JUMPDEST SWAP7 POP POP PUSH1 0x40 PUSH2 0x4FC3 DUP11 DUP3 DUP12 ADD PUSH2 0x4895 JUMP JUMPDEST SWAP6 POP POP PUSH1 0x60 PUSH2 0x4FD4 DUP11 DUP3 DUP12 ADD PUSH2 0x4895 JUMP JUMPDEST SWAP5 POP POP PUSH1 0x80 PUSH2 0x4FE5 DUP11 DUP3 DUP12 ADD PUSH2 0x4EDC JUMP JUMPDEST SWAP4 POP POP PUSH1 0xA0 PUSH2 0x4FF6 DUP11 DUP3 DUP12 ADD PUSH2 0x497E JUMP JUMPDEST SWAP3 POP POP PUSH1 0xC0 PUSH2 0x5007 DUP11 DUP3 DUP12 ADD PUSH2 0x497E JUMP JUMPDEST SWAP2 POP POP SWAP3 SWAP6 SWAP9 SWAP2 SWAP5 SWAP8 POP SWAP3 SWAP6 POP JUMP JUMPDEST PUSH0 PUSH0 PUSH1 0x40 DUP4 DUP6 SUB SLT ISZERO PUSH2 0x502C JUMPI PUSH2 0x502B PUSH2 0x46A9 JUMP JUMPDEST JUMPDEST PUSH0 PUSH2 0x5039 DUP6 DUP3 DUP7 ADD PUSH2 0x486B JUMP JUMPDEST SWAP3 POP POP PUSH1 0x20 PUSH2 0x504A DUP6 DUP3 DUP7 ADD PUSH2 0x486B JUMP JUMPDEST SWAP2 POP POP SWAP3 POP SWAP3 SWAP1 POP JUMP JUMPDEST PUSH0 PUSH0 PUSH1 0x40 DUP4 DUP6 SUB SLT ISZERO PUSH2 0x506A JUMPI PUSH2 0x5069 PUSH2 0x46A9 JUMP JUMPDEST JUMPDEST PUSH0 PUSH2 0x5077 DUP6 DUP3 DUP7 ADD PUSH2 0x4895 JUMP JUMPDEST SWAP3 POP POP PUSH1 0x20 DUP4 ADD CALLDATALOAD PUSH8 0xFFFFFFFFFFFFFFFF DUP2 GT ISZERO PUSH2 0x5098 JUMPI PUSH2 0x5097 PUSH2 0x46AD JUMP JUMPDEST JUMPDEST PUSH2 0x50A4 DUP6 DUP3 DUP7 ADD PUSH2 0x4C01 JUMP JUMPDEST SWAP2 POP POP SWAP3 POP SWAP3 SWAP1 POP JUMP JUMPDEST PUSH32 0x4E487B7100000000000000000000000000000000000000000000000000000000 PUSH0 MSTORE PUSH1 0x22 PUSH1 0x4 MSTORE PUSH1 0x24 PUSH0 REVERT JUMPDEST PUSH0 PUSH1 0x2 DUP3 DIV SWAP1 POP PUSH1 0x1 DUP3 AND DUP1 PUSH2 0x50F2 JUMPI PUSH1 0x7F DUP3 AND SWAP2 POP JUMPDEST PUSH1 0x20 DUP3 LT DUP2 SUB PUSH2 0x5105 JUMPI PUSH2 0x5104 PUSH2 0x50AE JUMP JUMPDEST JUMPDEST POP SWAP2 SWAP1 POP JUMP JUMPDEST PUSH32 0x4E487B7100000000000000000000000000000000000000000000000000000000 PUSH0 MSTORE PUSH1 0x11 PUSH1 0x4 MSTORE PUSH1 0x24 PUSH0 REVERT JUMPDEST PUSH0 PUSH2 0x5142 DUP3 PUSH2 0x4764 JUMP JUMPDEST SWAP2 POP PUSH2 0x514D DUP4 PUSH2 0x4764 JUMP JUMPDEST SWAP3 POP DUP3 DUP3 ADD SWAP1 POP DUP1 DUP3 GT ISZERO PUSH2 0x5165 JUMPI PUSH2 0x5164 PUSH2 0x510B JUMP JUMPDEST JUMPDEST SWAP3 SWAP2 POP POP JUMP JUMPDEST PUSH0 PUSH2 0x5175 DUP3 PUSH2 0x4764 JUMP JUMPDEST SWAP2 POP PUSH2 0x5180 DUP4 PUSH2 0x4764 JUMP JUMPDEST SWAP3 POP DUP3 DUP3 SUB SWAP1 POP DUP2 DUP2 GT ISZERO PUSH2 0x5198 JUMPI PUSH2 0x5197 PUSH2 0x510B JUMP JUMPDEST JUMPDEST SWAP3 SWAP2 POP POP JUMP JUMPDEST PUSH0 DUP2 SWAP1 POP SWAP3 SWAP2 POP POP JUMP JUMPDEST PUSH0 PUSH2 0x51B2 DUP3 PUSH2 0x4795 JUMP JUMPDEST PUSH2 0x51BC DUP2 DUP6 PUSH2 0x519E JUMP JUMPDEST SWAP4 POP PUSH2 0x51CC DUP2 DUP6 PUSH1 0x20 DUP7 ADD PUSH2 0x47AF JUMP JUMPDEST DUP1 DUP5 ADD SWAP2 POP POP SWAP3 SWAP2 POP POP JUMP JUMPDEST PUSH0 PUSH2 0x51E3 DUP3 DUP5 PUSH2 0x51A8 JUMP JUMPDEST SWAP2 POP DUP2 SWAP1 POP SWAP3 SWAP2 POP POP JUMP JUMPDEST PUSH0 PUSH1 0x60 DUP3 ADD SWAP1 POP DUP2 DUP2 SUB PUSH0 DUP4 ADD MSTORE PUSH2 0x5206 DUP2 DUP7 PUSH2 0x47CD JUMP JUMPDEST SWAP1 POP PUSH2 0x5215 PUSH1 0x20 DUP4 ADD DUP6 PUSH2 0x476D JUMP JUMPDEST PUSH2 0x5222 PUSH1 0x40 DUP4 ADD DUP5 PUSH2 0x476D JUMP JUMPDEST SWAP5 SWAP4 POP POP POP POP JUMP JUMPDEST PUSH32 0x4E487B7100000000000000000000000000000000000000000000000000000000 PUSH0 MSTORE PUSH1 0x12 PUSH1 0x4 MSTORE PUSH1 0x24 PUSH0 REVERT JUMPDEST PUSH0 PUSH2 0x5261 DUP3 PUSH2 0x4764 JUMP JUMPDEST SWAP2 POP PUSH2 0x526C DUP4 PUSH2 0x4764 JUMP JUMPDEST SWAP3 POP DUP3 PUSH2 0x527C JUMPI PUSH2 0x527B PUSH2 0x522A JUMP JUMPDEST JUMPDEST DUP3 DUP3 DIV SWAP1 POP SWAP3 SWAP2 POP POP JUMP JUMPDEST PUSH32 0x5F00000000000000000000000000000000000000000000000000000000000000 PUSH0 DUP3 ADD MSTORE POP JUMP JUMPDEST PUSH0 PUSH2 0x52BB PUSH1 0x1 DUP4 PUSH2 0x519E JUMP JUMPDEST SWAP2 POP PUSH2 0x52C6 DUP3 PUSH2 0x5287 JUMP JUMPDEST PUSH1 0x1 DUP3 ADD SWAP1 POP SWAP2 SWAP1 POP JUMP JUMPDEST PUSH0 PUSH2 0x52DC DUP3 DUP6 PUSH2 0x51A8 JUMP JUMPDEST SWAP2 POP PUSH2 0x52E7 DUP3 PUSH2 0x52AF JUMP JUMPDEST SWAP2 POP PUSH2 0x52F3 DUP3 DUP5 PUSH2 0x51A8 JUMP JUMPDEST SWAP2 POP DUP2 SWAP1 POP SWAP4 SWAP3 POP POP POP JUMP JUMPDEST PUSH0 PUSH2 0x5309 DUP3 PUSH2 0x4764 JUMP JUMPDEST SWAP2 POP PUSH2 0x5314 DUP4 PUSH2 0x4764 JUMP JUMPDEST SWAP3 POP DUP3 DUP3 MUL PUSH2 0x5322 DUP2 PUSH2 0x4764 JUMP JUMPDEST SWAP2 POP DUP3 DUP3 DIV DUP5 EQ DUP4 ISZERO OR PUSH2 0x5339 JUMPI PUSH2 0x5338 PUSH2 0x510B JUMP JUMPDEST JUMPDEST POP SWAP3 SWAP2 POP POP JUMP JUMPDEST PUSH0 PUSH2 0x534A DUP3 PUSH2 0x4764 JUMP JUMPDEST SWAP2 POP PUSH32 0xFFFFFFFFFFFFFFFFFFFFFFFFFFFFFFFFFFFFFFFFFFFFFFFFFFFFFFFFFFFFFFFF DUP3 SUB PUSH2 0x537C JUMPI PUSH2 0x537B PUSH2 0x510B JUMP JUMPDEST JUMPDEST PUSH1 0x1 DUP3 ADD SWAP1 POP SWAP2 SWAP1 POP JUMP JUMPDEST PUSH0 PUSH1 0x40 DUP3 ADD SWAP1 POP DUP2 DUP2 SUB PUSH0 DUP4 ADD MSTORE PUSH2 0x539F DUP2 DUP6 PUSH2 0x47CD JUMP JUMPDEST SWAP1 POP PUSH2 0x53AE PUSH1 0x20 DUP4 ADD DUP5 PUSH2 0x476D JUMP JUMPDEST SWAP4 SWAP3 POP POP POP JUMP JUMPDEST PUSH0 PUSH1 0x80 DUP3 ADD SWAP1 POP PUSH2 0x53C8 PUSH0 DUP4 ADD DUP8 PUSH2 0x49BD JUMP JUMPDEST PUSH2 0x53D5 PUSH1 0x20 DUP4 ADD DUP7 PUSH2 0x48E7 JUMP JUMPDEST PUSH2 0x53E2 PUSH1 0x40 DUP4 ADD DUP6 PUSH2 0x476D JUMP JUMPDEST PUSH2 0x53EF PUSH1 0x60 DUP4 ADD DUP5 PUSH2 0x476D JUMP JUMPDEST SWAP6 SWAP5 POP POP POP POP POP JUMP JUMPDEST PUSH0 PUSH1 0xC0 DUP3 ADD SWAP1 POP PUSH2 0x540B PUSH0 DUP4 ADD DUP10 PUSH2 0x49BD JUMP JUMPDEST PUSH2 0x5418 PUSH1 0x20 DUP4 ADD DUP9 PUSH2 0x48E7 JUMP JUMPDEST PUSH2 0x5425 PUSH1 0x40 DUP4 ADD DUP8 PUSH2 0x48E7 JUMP JUMPDEST PUSH2 0x5432 PUSH1 0x60 DUP4 ADD DUP7 PUSH2 0x476D JUMP JUMPDEST PUSH2 0x543F PUSH1 0x80 DUP4 ADD DUP6 PUSH2 0x476D JUMP JUMPDEST PUSH2 0x544C PUSH1 0xA0 DUP4 ADD DUP5 PUSH2 0x476D JUMP JUMPDEST SWAP8 SWAP7 POP POP POP POP POP POP POP JUMP JUMPDEST PUSH0 PUSH1 0x40 DUP3 ADD SWAP1 POP PUSH2 0x546A PUSH0 DUP4 ADD DUP6 PUSH2 0x48E7 JUMP JUMPDEST PUSH2 0x5477 PUSH1 0x20 DUP4 ADD DUP5 PUSH2 0x48E7 JUMP JUMPDEST SWAP4 SWAP3 POP POP POP JUMP JUMPDEST PUSH0 PUSH1 0x40 DUP3 ADD SWAP1 POP PUSH2 0x5491 PUSH0 DUP4 ADD DUP6 PUSH2 0x476D JUMP JUMPDEST DUP2 DUP2 SUB PUSH1 0x20 DUP4 ADD MSTORE PUSH2 0x54A3 DUP2 DUP5 PUSH2 0x47CD JUMP JUMPDEST SWAP1 POP SWAP4 SWAP3 POP POP POP JUMP JUMPDEST PUSH0 PUSH1 0x60 DUP3 ADD SWAP1 POP PUSH2 0x54BF PUSH0 DUP4 ADD DUP7 PUSH2 0x48E7 JUMP JUMPDEST PUSH2 0x54CC PUSH1 0x20 DUP4 ADD DUP6 PUSH2 0x476D JUMP JUMPDEST PUSH2 0x54D9 PUSH1 0x40 DUP4 ADD DUP5 PUSH2 0x476D JUMP JUMPDEST SWAP5 SWAP4 POP POP POP POP JUMP JUMPDEST PUSH0 PUSH1 0x40 DUP3 ADD SWAP1 POP PUSH2 0x54F4 PUSH0 DUP4 ADD DUP6 PUSH2 0x476D JUMP JUMPDEST PUSH2 0x5501 PUSH1 0x20 DUP4 ADD DUP5 PUSH2 0x4E44 JUMP JUMPDEST SWAP4 SWAP3 POP POP POP JUMP JUMPDEST PUSH32 0x5061757361626C653A2070617573656400000000000000000000000000000000 PUSH0 DUP3 ADD MSTORE POP JUMP JUMPDEST PUSH0 PUSH2 0x553C PUSH1 0x10 DUP4 PUSH2 0x479F JUMP JUMPDEST SWAP2 POP PUSH2 0x5547 DUP3 PUSH2 0x5508 JUMP JUMPDEST PUSH1 0x20 DUP3 ADD SWAP1 POP SWAP2 SWAP1 POP JUMP JUMPDEST PUSH0 PUSH1 0x20 DUP3 ADD SWAP1 POP DUP2 DUP2 SUB PUSH0 DUP4 ADD MSTORE PUSH2 0x5569 DUP2 PUSH2 0x5530 JUMP JUMPDEST SWAP1 POP SWAP2 SWAP1 POP JUMP JUMPDEST PUSH32 0x5265656E7472616E637947756172643A207265656E7472616E742063616C6C00 PUSH0 DUP3 ADD MSTORE POP JUMP JUMPDEST PUSH0 PUSH2 0x55A4 PUSH1 0x1F DUP4 PUSH2 0x479F JUMP JUMPDEST SWAP2 POP PUSH2 0x55AF DUP3 PUSH2 0x5570 JUMP JUMPDEST PUSH1 0x20 DUP3 ADD SWAP1 POP SWAP2 SWAP1 POP JUMP JUMPDEST PUSH0 PUSH1 0x20 DUP3 ADD SWAP1 POP DUP2 DUP2 SUB PUSH0 DUP4 ADD MSTORE PUSH2 0x55D1 DUP2 PUSH2 0x5598 JUMP JUMPDEST SWAP1 POP SWAP2 SWAP1 POP JUMP JUMPDEST PUSH0 PUSH1 0x40 DUP3 ADD SWAP1 POP PUSH2 0x55EB PUSH0 DUP4 ADD DUP6 PUSH2 0x48E7 JUMP JUMPDEST PUSH2 0x55F8 PUSH1 0x20 DUP4 ADD DUP5 PUSH2 0x476D JUMP JUMPDEST SWAP4 SWAP3 POP POP POP JUMP JUMPDEST PUSH0 PUSH1 0x40 DUP3 ADD SWAP1 POP PUSH2 0x5612 PUSH0 DUP4 ADD DUP6 PUSH2 0x48E7 JUMP JUMPDEST PUSH2 0x561F PUSH1 0x20 DUP4 ADD DUP5 PUSH2 0x49BD JUMP JUMPDEST SWAP4 SWAP3 POP POP POP JUMP JUMPDEST PUSH0 PUSH1 0xA0 DUP3 ADD SWAP1 POP PUSH2 0x5639 PUSH0 DUP4 ADD DUP9 PUSH2 0x49BD JUMP JUMPDEST PUSH2 0x5646 PUSH1 0x20 DUP4 ADD DUP8 PUSH2 0x49BD JUMP JUMPDEST PUSH2 0x5653 PUSH1 0x40 DUP4 ADD DUP7 PUSH2 0x49BD JUMP JUMPDEST PUSH2 0x5660 PUSH1 0x60 DUP4 ADD DUP6 PUSH2 0x476D JUMP JUMPDEST PUSH2 0x566D PUSH1 0x80 DUP4 ADD DUP5 PUSH2 0x48E7 JUMP JUMPDEST SWAP7 SWAP6 POP POP POP POP POP POP JUMP JUMPDEST PUSH0 DUP2 SWAP1 POP SWAP2 SWAP1 POP JUMP JUMPDEST PUSH0 DUP2 SWAP1 POP SWAP2 SWAP1 POP JUMP JUMPDEST PUSH0 PUSH2 0x56A3 PUSH2 0x569E PUSH2 0x5699 DUP5 PUSH2 0x5677 JUMP JUMPDEST PUSH2 0x5680 JUMP JUMPDEST PUSH2 0x4A23 JUMP JUMPDEST SWAP1 POP SWAP2 SWAP1 POP JUMP JUMPDEST PUSH2 0x56B3 DUP2 PUSH2 0x5689 JUMP JUMPDEST DUP3 MSTORE POP POP JUMP JUMPDEST PUSH0 PUSH1 0x40 DUP3 ADD SWAP1 POP PUSH2 0x56CC PUSH0 DUP4 ADD DUP6 PUSH2 0x56AA JUMP JUMPDEST PUSH2 0x56D9 PUSH1 0x20 DUP4 ADD DUP5 PUSH2 0x476D JUMP JUMPDEST SWAP4 SWAP3 POP POP POP JUMP JUMPDEST PUSH32 0x5061757361626C653A206E6F7420706175736564000000000000000000000000 PUSH0 DUP3 ADD MSTORE POP JUMP JUMPDEST PUSH0 PUSH2 0x5714 PUSH1 0x14 DUP4 PUSH2 0x479F JUMP JUMPDEST SWAP2 POP PUSH2 0x571F DUP3 PUSH2 0x56E0 JUMP JUMPDEST PUSH1 0x20 DUP3 ADD SWAP1 POP SWAP2 SWAP1 POP JUMP JUMPDEST PUSH0 PUSH1 0x20 DUP3 ADD SWAP1 POP DUP2 DUP2 SUB PUSH0 DUP4 ADD MSTORE PUSH2 0x5741 DUP2 PUSH2 0x5708 JUMP JUMPDEST SWAP1 POP SWAP2 SWAP1 POP JUMP JUMPDEST PUSH0 PUSH1 0x80 DUP3 ADD SWAP1 POP PUSH2 0x575B PUSH0 DUP4 ADD DUP8 PUSH2 0x49BD JUMP JUMPDEST PUSH2 0x5768 PUSH1 0x20 DUP4 ADD DUP7 PUSH2 0x4A2F JUMP JUMPDEST PUSH2 0x5775 PUSH1 0x40 DUP4 ADD DUP6 PUSH2 0x49BD JUMP JUMPDEST PUSH2 0x5782 PUSH1 0x60 DUP4 ADD DUP5 PUSH2 0x49BD JUMP JUMPDEST SWAP6 SWAP5 POP POP POP POP POP JUMP JUMPDEST PUSH32 0x4E487B7100000000000000000000000000000000000000000000000000000000 PUSH0 MSTORE PUSH1 0x21 PUSH1 0x4 MSTORE PUSH1 0x24 PUSH0 REVERT JUMPDEST PUSH0 PUSH1 0x40 DUP3 ADD SWAP1 POP PUSH2 0x57CB PUSH0 DUP4 ADD DUP6 PUSH2 0x476D JUMP JUMPDEST PUSH2 0x57D8 PUSH1 0x20 DUP4 ADD DUP5 PUSH2 0x476D JUMP JUMPDEST SWAP4 SWAP3 POP POP POP JUMP JUMPDEST PUSH0 PUSH26 0xFFFFFFFFFFFFFFFFFFFFFFFFFFFFFFFFFFFFFFFFFFFFFFFFFFFF DUP3 AND SWAP1 POP SWAP2 SWAP1 POP JUMP JUMPDEST PUSH0 PUSH2 0x580E DUP3 PUSH2 0x57DF JUMP JUMPDEST SWAP2 POP PUSH2 0x5819 DUP4 PUSH2 0x57DF JUMP JUMPDEST SWAP3 POP DUP3 DUP3 SUB SWAP1 POP PUSH26 0xFFFFFFFFFFFFFFFFFFFFFFFFFFFFFFFFFFFFFFFFFFFFFFFFFFFF DUP2 GT ISZERO PUSH2 0x584B JUMPI PUSH2 0x584A PUSH2 0x510B JUMP JUMPDEST JUMPDEST SWAP3 SWAP2 POP POP JUMP JUMPDEST PUSH0 DUP2 SWAP1 POP SWAP2 SWAP1 POP JUMP JUMPDEST PUSH0 PUSH2 0x5874 PUSH2 0x586F PUSH2 0x586A DUP5 PUSH2 0x5851 JUMP JUMPDEST PUSH2 0x5680 JUMP JUMPDEST PUSH2 0x4A23 JUMP JUMPDEST SWAP1 POP SWAP2 SWAP1 POP JUMP JUMPDEST PUSH2 0x5884 DUP2 PUSH2 0x585A JUMP JUMPDEST DUP3 MSTORE POP POP JUMP JUMPDEST PUSH0 PUSH1 0x40 DUP3 ADD SWAP1 POP PUSH2 0x589D PUSH0 DUP4 ADD DUP6 PUSH2 0x587B JUMP JUMPDEST PUSH2 0x58AA PUSH1 0x20 DUP4 ADD DUP5 PUSH2 0x476D JUMP JUMPDEST SWAP4 SWAP3 POP POP POP JUMP JUMPDEST PUSH0 PUSH2 0x58BB DUP3 PUSH2 0x57DF JUMP JUMPDEST SWAP2 POP PUSH2 0x58C6 DUP4 PUSH2 0x57DF JUMP JUMPDEST SWAP3 POP DUP3 DUP3 ADD SWAP1 POP PUSH26 0xFFFFFFFFFFFFFFFFFFFFFFFFFFFFFFFFFFFFFFFFFFFFFFFFFFFF DUP2 GT ISZERO PUSH2 0x58F8 JUMPI PUSH2 0x58F7 PUSH2 0x510B JUMP JUMPDEST JUMPDEST SWAP3 SWAP2 POP POP JUMP INVALID LOG2 PUSH5 0x6970667358 0x22 SLT KECCAK256 JUMP PUSH29 0x1DB689465A128EAFED117DE2FE7DB45718D0242F48CA79077F8EE91BB4 0xD5 PUSH5 0x736F6C6343 STOP ADDMOD SHR STOP CALLER "
		},
		"gasEstimates": {
			"creation": {
				"codeDepositCost": "4567200",
				"executionCost": "infinite",
				"totalCost": "infinite"
			},
			"external": {
				"BURNER_ROLE()": "416",
				"CLOCK_MODE()": "infinite",
				"CREDENTIAL_MINT_REWARD()": "414",
				"CREDENTIAL_VERIFICATION_REWARD()": "415",
				"DAO_STAKE_AMOUNT()": "480",
				"DAO_VOTE_REWARD()": "479",
				"DEFAULT_ADMIN_ROLE()": "463",
				"DOMAIN_SEPARATOR()": "infinite",
				"INFLATION_ADJUSTMENT_PERIOD()": "391",
				"INITIAL_SUPPLY()": "460",
				"JOB_APPLICATION_REWARD()": "457",
				"JOB_COMPLETION_REWARD()": "438",
				"JOB_POSTING_FEE()": "415",
				"MAX_SUPPLY()": "437",
				"MINTER_ROLE()": "459",
				"PAUSER_ROLE()": "414",
				"PROFILE_CREATION_REWARD()": "458",
				"RATING_REWARD()": "417",
				"REWARD_MANAGER_ROLE()": "436",
				"actionCounts(address,string)": "infinite",
				"actionTimestamps(address,string)": "infinite",
				"adjustInflationRate()": "infinite",
				"allowance(address,address)": "infinite",
				"approve(address,uint256)": "infinite",
				"balanceOf(address)": "2961",
				"burn(uint256)": "infinite",
				"burnFrom(address,uint256)": "infinite",
				"claimStakingRewards()": "infinite",
				"clock()": "790",
				"daoAddress()": "2643",
				"decimals()": "406",
				"delegate(address)": "infinite",
				"delegateBySig(address,uint256,uint256,uint8,bytes32,bytes32)": "infinite",
				"delegates(address)": "infinite",
				"eip712Domain()": "infinite",
				"getFeeAmounts()": "infinite",
				"getPastTotalSupply(uint256)": "infinite",
				"getPastVotes(address,uint256)": "infinite",
				"getRewardAmount(string)": "infinite",
				"getRoleAdmin(bytes32)": "infinite",
				"getVotes(address)": "infinite",
				"getVotingPower(address)": "infinite",
				"grantRole(bytes32,address)": "infinite",
				"hasRole(bytes32,address)": "3255",
				"inflationRate()": "2515",
				"lastInflationAdjustment()": "2558",
				"lastRewardClaim(address)": "2913",
				"mint(address,uint256)": "infinite",
				"name()": "infinite",
				"nonces(address)": "3004",
				"pause()": "infinite",
				"paused()": "2541",
				"payFee(uint256,string)": "infinite",
				"payReward(address,string)": "infinite",
				"permit(address,address,uint256,uint256,uint8,bytes32,bytes32)": "infinite",
				"renounceRole(bytes32,address)": "infinite",
				"revokeRole(bytes32,address)": "infinite",
				"rewardAmounts(string)": "infinite",
				"setDaoAddress(address)": "infinite",
				"stakeTokens(uint256)": "infinite",
				"stakedBalance(address)": "2892",
				"stakingAPY()": "2494",
				"stakingRewards(address)": "2892",
				"supportsInterface(bytes4)": "829",
				"symbol()": "infinite",
				"totalStaked()": "2538",
				"totalSupply()": "2523",
				"transfer(address,uint256)": "infinite",
				"transferFrom(address,address,uint256)": "infinite",
				"unpause()": "infinite",
				"unstakeTokens(uint256)": "infinite",
				"updateRewardAmount(string,uint256)": "infinite"
			},
			"internal": {
				"_claimStakingRewards(address)": "infinite",
				"_delegate(address,address)": "infinite",
				"_getVotingUnits(address)": "2262",
				"_initializeRewards()": "infinite",
				"_transferVotingUnits(address,address,uint256)": "infinite"
			}
		},
		"methodIdentifiers": {
			"BURNER_ROLE()": "282c51f3",
			"CLOCK_MODE()": "4bf5d7e9",
			"CREDENTIAL_MINT_REWARD()": "d689343a",
			"CREDENTIAL_VERIFICATION_REWARD()": "d2d3a32a",
			"DAO_STAKE_AMOUNT()": "c1ad6172",
			"DAO_VOTE_REWARD()": "fb9ccb68",
			"DEFAULT_ADMIN_ROLE()": "a217fddf",
			"DOMAIN_SEPARATOR()": "3644e515",
			"INFLATION_ADJUSTMENT_PERIOD()": "e91a2754",
			"INITIAL_SUPPLY()": "2ff2e9dc",
			"JOB_APPLICATION_REWARD()": "f90cde7b",
			"JOB_COMPLETION_REWARD()": "1c59df3a",
			"JOB_POSTING_FEE()": "8a82e8e8",
			"MAX_SUPPLY()": "32cb6b0c",
			"MINTER_ROLE()": "d5391393",
			"PAUSER_ROLE()": "e63ab1e9",
			"PROFILE_CREATION_REWARD()": "dce838b7",
			"RATING_REWARD()": "03fe8734",
			"REWARD_MANAGER_ROLE()": "6d750d80",
			"actionCounts(address,string)": "6a56e60f",
			"actionTimestamps(address,string)": "ea7fd521",
			"adjustInflationRate()": "e4bb7160",
			"allowance(address,address)": "dd62ed3e",
			"approve(address,uint256)": "095ea7b3",
			"balanceOf(address)": "70a08231",
			"burn(uint256)": "42966c68",
			"burnFrom(address,uint256)": "79cc6790",
			"claimStakingRewards()": "6b69e05b",
			"clock()": "91ddadf4",
			"daoAddress()": "2131c68c",
			"decimals()": "313ce567",
			"delegate(address)": "5c19a95c",
			"delegateBySig(address,uint256,uint256,uint8,bytes32,bytes32)": "c3cda520",
			"delegates(address)": "587cde1e",
			"eip712Domain()": "84b0196e",
			"getFeeAmounts()": "3eb26b03",
			"getPastTotalSupply(uint256)": "8e539e8c",
			"getPastVotes(address,uint256)": "3a46b1a8",
			"getRewardAmount(string)": "6984bf07",
			"getRoleAdmin(bytes32)": "248a9ca3",
			"getVotes(address)": "9ab24eb0",
			"getVotingPower(address)": "bb4d4436",
			"grantRole(bytes32,address)": "2f2ff15d",
			"hasRole(bytes32,address)": "91d14854",
			"inflationRate()": "31f9e35b",
			"lastInflationAdjustment()": "e714da10",
			"lastRewardClaim(address)": "d8ad5231",
			"mint(address,uint256)": "40c10f19",
			"name()": "06fdde03",
			"nonces(address)": "7ecebe00",
			"pause()": "8456cb59",
			"paused()": "5c975abb",
			"payFee(uint256,string)": "e6d0f10e",
			"payReward(address,string)": "c0008d0c",
			"permit(address,address,uint256,uint256,uint8,bytes32,bytes32)": "d505accf",
			"renounceRole(bytes32,address)": "36568abe",
			"revokeRole(bytes32,address)": "d547741f",
			"rewardAmounts(string)": "f6018da0",
			"setDaoAddress(address)": "9a3cac6a",
			"stakeTokens(uint256)": "7547c7a3",
			"stakedBalance(address)": "60217267",
			"stakingAPY()": "1531b62a",
			"stakingRewards(address)": "499d7f96",
			"supportsInterface(bytes4)": "01ffc9a7",
			"symbol()": "95d89b41",
			"totalStaked()": "817b1cd2",
			"totalSupply()": "18160ddd",
			"transfer(address,uint256)": "a9059cbb",
			"transferFrom(address,address,uint256)": "23b872dd",
			"unpause()": "3f4ba83a",
			"unstakeTokens(uint256)": "608e4dd0",
			"updateRewardAmount(string,uint256)": "aeba5631"
		}
	},
	"abi": [
		{
			"inputs": [],
			"stateMutability": "nonpayable",
			"type": "constructor"
		},
		{
			"inputs": [],
			"name": "AccessControlBadConfirmation",
			"type": "error"
		},
		{
			"inputs": [
				{
					"internalType": "address",
					"name": "account",
					"type": "address"
				},
				{
					"internalType": "bytes32",
					"name": "neededRole",
					"type": "bytes32"
				}
			],
			"name": "AccessControlUnauthorizedAccount",
			"type": "error"
		},
		{
			"inputs": [],
			"name": "CheckpointUnorderedInsertion",
			"type": "error"
		},
		{
			"inputs": [],
			"name": "ECDSAInvalidSignature",
			"type": "error"
		},
		{
			"inputs": [
				{
					"internalType": "uint256",
					"name": "length",
					"type": "uint256"
				}
			],
			"name": "ECDSAInvalidSignatureLength",
			"type": "error"
		},
		{
			"inputs": [
				{
					"internalType": "bytes32",
					"name": "s",
					"type": "bytes32"
				}
			],
			"name": "ECDSAInvalidSignatureS",
			"type": "error"
		},
		{
			"inputs": [
				{
					"internalType": "address",
					"name": "spender",
					"type": "address"
				},
				{
					"internalType": "uint256",
					"name": "allowance",
					"type": "uint256"
				},
				{
					"internalType": "uint256",
					"name": "needed",
					"type": "uint256"
				}
			],
			"name": "ERC20InsufficientAllowance",
			"type": "error"
		},
		{
			"inputs": [
				{
					"internalType": "address",
					"name": "sender",
					"type": "address"
				},
				{
					"internalType": "uint256",
					"name": "balance",
					"type": "uint256"
				},
				{
					"internalType": "uint256",
					"name": "needed",
					"type": "uint256"
				}
			],
			"name": "ERC20InsufficientBalance",
			"type": "error"
		},
		{
			"inputs": [
				{
					"internalType": "address",
					"name": "approver",
					"type": "address"
				}
			],
			"name": "ERC20InvalidApprover",
			"type": "error"
		},
		{
			"inputs": [
				{
					"internalType": "address",
					"name": "receiver",
					"type": "address"
				}
			],
			"name": "ERC20InvalidReceiver",
			"type": "error"
		},
		{
			"inputs": [
				{
					"internalType": "address",
					"name": "sender",
					"type": "address"
				}
			],
			"name": "ERC20InvalidSender",
			"type": "error"
		},
		{
			"inputs": [
				{
					"internalType": "address",
					"name": "spender",
					"type": "address"
				}
			],
			"name": "ERC20InvalidSpender",
			"type": "error"
		},
		{
			"inputs": [
				{
					"internalType": "uint256",
					"name": "deadline",
					"type": "uint256"
				}
			],
			"name": "ERC2612ExpiredSignature",
			"type": "error"
		},
		{
			"inputs": [
				{
					"internalType": "address",
					"name": "signer",
					"type": "address"
				},
				{
					"internalType": "address",
					"name": "owner",
					"type": "address"
				}
			],
			"name": "ERC2612InvalidSigner",
			"type": "error"
		},
		{
			"inputs": [
				{
					"internalType": "uint256",
					"name": "timepoint",
					"type": "uint256"
				},
				{
					"internalType": "uint48",
					"name": "clock",
					"type": "uint48"
				}
			],
			"name": "ERC5805FutureLookup",
			"type": "error"
		},
		{
			"inputs": [],
			"name": "ERC6372InconsistentClock",
			"type": "error"
		},
		{
			"inputs": [],
			"name": "ExceedsMaxSupply",
			"type": "error"
		},
		{
			"inputs": [],
			"name": "InsufficientBalance",
			"type": "error"
		},
		{
			"inputs": [
				{
					"internalType": "address",
					"name": "account",
					"type": "address"
				},
				{
					"internalType": "uint256",
					"name": "currentNonce",
					"type": "uint256"
				}
			],
			"name": "InvalidAccountNonce",
			"type": "error"
		},
		{
			"inputs": [],
			"name": "InvalidRewardType",
			"type": "error"
		},
		{
			"inputs": [],
			"name": "InvalidShortString",
			"type": "error"
		},
		{
			"inputs": [],
			"name": "NotAuthorized",
			"type": "error"
		},
		{
			"inputs": [],
			"name": "RewardAlreadyClaimed",
			"type": "error"
		},
		{
			"inputs": [
				{
					"internalType": "uint8",
					"name": "bits",
					"type": "uint8"
				},
				{
					"internalType": "uint256",
					"name": "value",
					"type": "uint256"
				}
			],
			"name": "SafeCastOverflowedUintDowncast",
			"type": "error"
		},
		{
			"inputs": [
				{
					"internalType": "string",
					"name": "str",
					"type": "string"
				}
			],
			"name": "StringTooLong",
			"type": "error"
		},
		{
			"inputs": [
				{
					"internalType": "uint256",
					"name": "expiry",
					"type": "uint256"
				}
			],
			"name": "VotesExpiredSignature",
			"type": "error"
		},
		{
			"anonymous": false,
			"inputs": [
				{
					"indexed": true,
					"internalType": "address",
					"name": "owner",
					"type": "address"
				},
				{
					"indexed": true,
					"internalType": "address",
					"name": "spender",
					"type": "address"
				},
				{
					"indexed": false,
					"internalType": "uint256",
					"name": "value",
					"type": "uint256"
				}
			],
			"name": "Approval",
			"type": "event"
		},
		{
			"anonymous": false,
			"inputs": [
				{
					"indexed": true,
					"internalType": "address",
					"name": "delegator",
					"type": "address"
				},
				{
					"indexed": true,
					"internalType": "address",
					"name": "fromDelegate",
					"type": "address"
				},
				{
					"indexed": true,
					"internalType": "address",
					"name": "toDelegate",
					"type": "address"
				}
			],
			"name": "DelegateChanged",
			"type": "event"
		},
		{
			"anonymous": false,
			"inputs": [
				{
					"indexed": true,
					"internalType": "address",
					"name": "delegate",
					"type": "address"
				},
				{
					"indexed": false,
					"internalType": "uint256",
					"name": "previousVotes",
					"type": "uint256"
				},
				{
					"indexed": false,
					"internalType": "uint256",
					"name": "newVotes",
					"type": "uint256"
				}
			],
			"name": "DelegateVotesChanged",
			"type": "event"
		},
		{
			"anonymous": false,
			"inputs": [],
			"name": "EIP712DomainChanged",
			"type": "event"
		},
		{
			"anonymous": false,
			"inputs": [
				{
					"indexed": true,
					"internalType": "address",
					"name": "from",
					"type": "address"
				},
				{
					"indexed": false,
					"internalType": "uint256",
					"name": "amount",
					"type": "uint256"
				},
				{
					"indexed": false,
					"internalType": "string",
					"name": "purpose",
					"type": "string"
				}
			],
			"name": "FeePaid",
			"type": "event"
		},
		{
			"anonymous": false,
			"inputs": [
				{
					"indexed": false,
					"internalType": "uint256",
					"name": "newRate",
					"type": "uint256"
				}
			],
			"name": "InflationAdjusted",
			"type": "event"
		},
		{
			"anonymous": false,
			"inputs": [
				{
					"indexed": false,
					"internalType": "address",
					"name": "account",
					"type": "address"
				}
			],
			"name": "Paused",
			"type": "event"
		},
		{
			"anonymous": false,
			"inputs": [
				{
					"indexed": false,
					"internalType": "string",
					"name": "action",
					"type": "string"
				},
				{
					"indexed": false,
					"internalType": "uint256",
					"name": "oldAmount",
					"type": "uint256"
				},
				{
					"indexed": false,
					"internalType": "uint256",
					"name": "newAmount",
					"type": "uint256"
				}
			],
			"name": "RewardAmountUpdated",
			"type": "event"
		},
		{
			"anonymous": false,
			"inputs": [
				{
					"indexed": true,
					"internalType": "address",
					"name": "recipient",
					"type": "address"
				},
				{
					"indexed": false,
					"internalType": "string",
					"name": "action",
					"type": "string"
				},
				{
					"indexed": false,
					"internalType": "uint256",
					"name": "amount",
					"type": "uint256"
				}
			],
			"name": "RewardPaid",
			"type": "event"
		},
		{
			"anonymous": false,
			"inputs": [
				{
					"indexed": true,
					"internalType": "bytes32",
					"name": "role",
					"type": "bytes32"
				},
				{
					"indexed": true,
					"internalType": "bytes32",
					"name": "previousAdminRole",
					"type": "bytes32"
				},
				{
					"indexed": true,
					"internalType": "bytes32",
					"name": "newAdminRole",
					"type": "bytes32"
				}
			],
			"name": "RoleAdminChanged",
			"type": "event"
		},
		{
			"anonymous": false,
			"inputs": [
				{
					"indexed": true,
					"internalType": "bytes32",
					"name": "role",
					"type": "bytes32"
				},
				{
					"indexed": true,
					"internalType": "address",
					"name": "account",
					"type": "address"
				},
				{
					"indexed": true,
					"internalType": "address",
					"name": "sender",
					"type": "address"
				}
			],
			"name": "RoleGranted",
			"type": "event"
		},
		{
			"anonymous": false,
			"inputs": [
				{
					"indexed": true,
					"internalType": "bytes32",
					"name": "role",
					"type": "bytes32"
				},
				{
					"indexed": true,
					"internalType": "address",
					"name": "account",
					"type": "address"
				},
				{
					"indexed": true,
					"internalType": "address",
					"name": "sender",
					"type": "address"
				}
			],
			"name": "RoleRevoked",
			"type": "event"
		},
		{
			"anonymous": false,
			"inputs": [
				{
					"indexed": true,
					"internalType": "address",
					"name": "user",
					"type": "address"
				},
				{
					"indexed": false,
					"internalType": "uint256",
					"name": "amount",
					"type": "uint256"
				}
			],
			"name": "StakingRewardsClaimed",
			"type": "event"
		},
		{
			"anonymous": false,
			"inputs": [
				{
					"indexed": true,
					"internalType": "address",
					"name": "user",
					"type": "address"
				},
				{
					"indexed": false,
					"internalType": "uint256",
					"name": "amount",
					"type": "uint256"
				}
			],
			"name": "TokensStaked",
			"type": "event"
		},
		{
			"anonymous": false,
			"inputs": [
				{
					"indexed": true,
					"internalType": "address",
					"name": "user",
					"type": "address"
				},
				{
					"indexed": false,
					"internalType": "uint256",
					"name": "amount",
					"type": "uint256"
				}
			],
			"name": "TokensUnstaked",
			"type": "event"
		},
		{
			"anonymous": false,
			"inputs": [
				{
					"indexed": true,
					"internalType": "address",
					"name": "from",
					"type": "address"
				},
				{
					"indexed": true,
					"internalType": "address",
					"name": "to",
					"type": "address"
				},
				{
					"indexed": false,
					"internalType": "uint256",
					"name": "value",
					"type": "uint256"
				}
			],
			"name": "Transfer",
			"type": "event"
		},
		{
			"anonymous": false,
			"inputs": [
				{
					"indexed": false,
					"internalType": "address",
					"name": "account",
					"type": "address"
				}
			],
			"name": "Unpaused",
			"type": "event"
		},
		{
			"inputs": [],
			"name": "BURNER_ROLE",
			"outputs": [
				{
					"internalType": "bytes32",
					"name": "",
					"type": "bytes32"
				}
			],
			"stateMutability": "view",
			"type": "function"
		},
		{
			"inputs": [],
			"name": "CLOCK_MODE",
			"outputs": [
				{
					"internalType": "string",
					"name": "",
					"type": "string"
				}
			],
			"stateMutability": "view",
			"type": "function"
		},
		{
			"inputs": [],
			"name": "CREDENTIAL_MINT_REWARD",
			"outputs": [
				{
					"internalType": "uint256",
					"name": "",
					"type": "uint256"
				}
			],
			"stateMutability": "view",
			"type": "function"
		},
		{
			"inputs": [],
			"name": "CREDENTIAL_VERIFICATION_REWARD",
			"outputs": [
				{
					"internalType": "uint256",
					"name": "",
					"type": "uint256"
				}
			],
			"stateMutability": "view",
			"type": "function"
		},
		{
			"inputs": [],
			"name": "DAO_STAKE_AMOUNT",
			"outputs": [
				{
					"internalType": "uint256",
					"name": "",
					"type": "uint256"
				}
			],
			"stateMutability": "view",
			"type": "function"
		},
		{
			"inputs": [],
			"name": "DAO_VOTE_REWARD",
			"outputs": [
				{
					"internalType": "uint256",
					"name": "",
					"type": "uint256"
				}
			],
			"stateMutability": "view",
			"type": "function"
		},
		{
			"inputs": [],
			"name": "DEFAULT_ADMIN_ROLE",
			"outputs": [
				{
					"internalType": "bytes32",
					"name": "",
					"type": "bytes32"
				}
			],
			"stateMutability": "view",
			"type": "function"
		},
		{
			"inputs": [],
			"name": "DOMAIN_SEPARATOR",
			"outputs": [
				{
					"internalType": "bytes32",
					"name": "",
					"type": "bytes32"
				}
			],
			"stateMutability": "view",
			"type": "function"
		},
		{
			"inputs": [],
			"name": "INFLATION_ADJUSTMENT_PERIOD",
			"outputs": [
				{
					"internalType": "uint256",
					"name": "",
					"type": "uint256"
				}
			],
			"stateMutability": "view",
			"type": "function"
		},
		{
			"inputs": [],
			"name": "INITIAL_SUPPLY",
			"outputs": [
				{
					"internalType": "uint256",
					"name": "",
					"type": "uint256"
				}
			],
			"stateMutability": "view",
			"type": "function"
		},
		{
			"inputs": [],
			"name": "JOB_APPLICATION_REWARD",
			"outputs": [
				{
					"internalType": "uint256",
					"name": "",
					"type": "uint256"
				}
			],
			"stateMutability": "view",
			"type": "function"
		},
		{
			"inputs": [],
			"name": "JOB_COMPLETION_REWARD",
			"outputs": [
				{
					"internalType": "uint256",
					"name": "",
					"type": "uint256"
				}
			],
			"stateMutability": "view",
			"type": "function"
		},
		{
			"inputs": [],
			"name": "JOB_POSTING_FEE",
			"outputs": [
				{
					"internalType": "uint256",
					"name": "",
					"type": "uint256"
				}
			],
			"stateMutability": "view",
			"type": "function"
		},
		{
			"inputs": [],
			"name": "MAX_SUPPLY",
			"outputs": [
				{
					"internalType": "uint256",
					"name": "",
					"type": "uint256"
				}
			],
			"stateMutability": "view",
			"type": "function"
		},
		{
			"inputs": [],
			"name": "MINTER_ROLE",
			"outputs": [
				{
					"internalType": "bytes32",
					"name": "",
					"type": "bytes32"
				}
			],
			"stateMutability": "view",
			"type": "function"
		},
		{
			"inputs": [],
			"name": "PAUSER_ROLE",
			"outputs": [
				{
					"internalType": "bytes32",
					"name": "",
					"type": "bytes32"
				}
			],
			"stateMutability": "view",
			"type": "function"
		},
		{
			"inputs": [],
			"name": "PROFILE_CREATION_REWARD",
			"outputs": [
				{
					"internalType": "uint256",
					"name": "",
					"type": "uint256"
				}
			],
			"stateMutability": "view",
			"type": "function"
		},
		{
			"inputs": [],
			"name": "RATING_REWARD",
			"outputs": [
				{
					"internalType": "uint256",
					"name": "",
					"type": "uint256"
				}
			],
			"stateMutability": "view",
			"type": "function"
		},
		{
			"inputs": [],
			"name": "REWARD_MANAGER_ROLE",
			"outputs": [
				{
					"internalType": "bytes32",
					"name": "",
					"type": "bytes32"
				}
			],
			"stateMutability": "view",
			"type": "function"
		},
		{
			"inputs": [
				{
					"internalType": "address",
					"name": "",
					"type": "address"
				},
				{
					"internalType": "string",
					"name": "",
					"type": "string"
				}
			],
			"name": "actionCounts",
			"outputs": [
				{
					"internalType": "uint256",
					"name": "",
					"type": "uint256"
				}
			],
			"stateMutability": "view",
			"type": "function"
		},
		{
			"inputs": [
				{
					"internalType": "address",
					"name": "",
					"type": "address"
				},
				{
					"internalType": "string",
					"name": "",
					"type": "string"
				}
			],
			"name": "actionTimestamps",
			"outputs": [
				{
					"internalType": "uint256",
					"name": "",
					"type": "uint256"
				}
			],
			"stateMutability": "view",
			"type": "function"
		},
		{
			"inputs": [],
			"name": "adjustInflationRate",
			"outputs": [],
			"stateMutability": "nonpayable",
			"type": "function"
		},
		{
			"inputs": [
				{
					"internalType": "address",
					"name": "owner",
					"type": "address"
				},
				{
					"internalType": "address",
					"name": "spender",
					"type": "address"
				}
			],
			"name": "allowance",
			"outputs": [
				{
					"internalType": "uint256",
					"name": "",
					"type": "uint256"
				}
			],
			"stateMutability": "view",
			"type": "function"
		},
		{
			"inputs": [
				{
					"internalType": "address",
					"name": "spender",
					"type": "address"
				},
				{
					"internalType": "uint256",
					"name": "value",
					"type": "uint256"
				}
			],
			"name": "approve",
			"outputs": [
				{
					"internalType": "bool",
					"name": "",
					"type": "bool"
				}
			],
			"stateMutability": "nonpayable",
			"type": "function"
		},
		{
			"inputs": [
				{
					"internalType": "address",
					"name": "account",
					"type": "address"
				}
			],
			"name": "balanceOf",
			"outputs": [
				{
					"internalType": "uint256",
					"name": "",
					"type": "uint256"
				}
			],
			"stateMutability": "view",
			"type": "function"
		},
		{
			"inputs": [
				{
					"internalType": "uint256",
					"name": "amount",
					"type": "uint256"
				}
			],
			"name": "burn",
			"outputs": [],
			"stateMutability": "nonpayable",
			"type": "function"
		},
		{
			"inputs": [
				{
					"internalType": "address",
					"name": "account",
					"type": "address"
				},
				{
					"internalType": "uint256",
					"name": "amount",
					"type": "uint256"
				}
			],
			"name": "burnFrom",
			"outputs": [],
			"stateMutability": "nonpayable",
			"type": "function"
		},
		{
			"inputs": [],
			"name": "claimStakingRewards",
			"outputs": [],
			"stateMutability": "nonpayable",
			"type": "function"
		},
		{
			"inputs": [],
			"name": "clock",
			"outputs": [
				{
					"internalType": "uint48",
					"name": "",
					"type": "uint48"
				}
			],
			"stateMutability": "view",
			"type": "function"
		},
		{
			"inputs": [],
			"name": "daoAddress",
			"outputs": [
				{
					"internalType": "address",
					"name": "",
					"type": "address"
				}
			],
			"stateMutability": "view",
			"type": "function"
		},
		{
			"inputs": [],
			"name": "decimals",
			"outputs": [
				{
					"internalType": "uint8",
					"name": "",
					"type": "uint8"
				}
			],
			"stateMutability": "view",
			"type": "function"
		},
		{
			"inputs": [
				{
					"internalType": "address",
					"name": "delegatee",
					"type": "address"
				}
			],
			"name": "delegate",
			"outputs": [],
			"stateMutability": "nonpayable",
			"type": "function"
		},
		{
			"inputs": [
				{
					"internalType": "address",
					"name": "delegatee",
					"type": "address"
				},
				{
					"internalType": "uint256",
					"name": "nonce",
					"type": "uint256"
				},
				{
					"internalType": "uint256",
					"name": "expiry",
					"type": "uint256"
				},
				{
					"internalType": "uint8",
					"name": "v",
					"type": "uint8"
				},
				{
					"internalType": "bytes32",
					"name": "r",
					"type": "bytes32"
				},
				{
					"internalType": "bytes32",
					"name": "s",
					"type": "bytes32"
				}
			],
			"name": "delegateBySig",
			"outputs": [],
			"stateMutability": "nonpayable",
			"type": "function"
		},
		{
			"inputs": [
				{
					"internalType": "address",
					"name": "account",
					"type": "address"
				}
			],
			"name": "delegates",
			"outputs": [
				{
					"internalType": "address",
					"name": "",
					"type": "address"
				}
			],
			"stateMutability": "view",
			"type": "function"
		},
		{
			"inputs": [],
			"name": "eip712Domain",
			"outputs": [
				{
					"internalType": "bytes1",
					"name": "fields",
					"type": "bytes1"
				},
				{
					"internalType": "string",
					"name": "name",
					"type": "string"
				},
				{
					"internalType": "string",
					"name": "version",
					"type": "string"
				},
				{
					"internalType": "uint256",
					"name": "chainId",
					"type": "uint256"
				},
				{
					"internalType": "address",
					"name": "verifyingContract",
					"type": "address"
				},
				{
					"internalType": "bytes32",
					"name": "salt",
					"type": "bytes32"
				},
				{
					"internalType": "uint256[]",
					"name": "extensions",
					"type": "uint256[]"
				}
			],
			"stateMutability": "view",
			"type": "function"
		},
		{
			"inputs": [],
			"name": "getFeeAmounts",
			"outputs": [
				{
					"components": [
						{
							"internalType": "uint256",
							"name": "jobFee",
							"type": "uint256"
						},
						{
							"internalType": "uint256",
							"name": "daoStake",
							"type": "uint256"
						}
					],
					"internalType": "struct CREDToken.FeeAmounts",
					"name": "",
					"type": "tuple"
				}
			],
			"stateMutability": "pure",
			"type": "function"
		},
		{
			"inputs": [
				{
					"internalType": "uint256",
					"name": "timepoint",
					"type": "uint256"
				}
			],
			"name": "getPastTotalSupply",
			"outputs": [
				{
					"internalType": "uint256",
					"name": "",
					"type": "uint256"
				}
			],
			"stateMutability": "view",
			"type": "function"
		},
		{
			"inputs": [
				{
					"internalType": "address",
					"name": "account",
					"type": "address"
				},
				{
					"internalType": "uint256",
					"name": "timepoint",
					"type": "uint256"
				}
			],
			"name": "getPastVotes",
			"outputs": [
				{
					"internalType": "uint256",
					"name": "",
					"type": "uint256"
				}
			],
			"stateMutability": "view",
			"type": "function"
		},
		{
			"inputs": [
				{
					"internalType": "string",
					"name": "action",
					"type": "string"
				}
			],
			"name": "getRewardAmount",
			"outputs": [
				{
					"internalType": "uint256",
					"name": "",
					"type": "uint256"
				}
			],
			"stateMutability": "view",
			"type": "function"
		},
		{
			"inputs": [
				{
					"internalType": "bytes32",
					"name": "role",
					"type": "bytes32"
				}
			],
			"name": "getRoleAdmin",
			"outputs": [
				{
					"internalType": "bytes32",
					"name": "",
					"type": "bytes32"
				}
			],
			"stateMutability": "view",
			"type": "function"
		},
		{
			"inputs": [
				{
					"internalType": "address",
					"name": "account",
					"type": "address"
				}
			],
			"name": "getVotes",
			"outputs": [
				{
					"internalType": "uint256",
					"name": "",
					"type": "uint256"
				}
			],
			"stateMutability": "view",
			"type": "function"
		},
		{
			"inputs": [
				{
					"internalType": "address",
					"name": "account",
					"type": "address"
				}
			],
			"name": "getVotingPower",
			"outputs": [
				{
					"internalType": "uint256",
					"name": "",
					"type": "uint256"
				}
			],
			"stateMutability": "view",
			"type": "function"
		},
		{
			"inputs": [
				{
					"internalType": "bytes32",
					"name": "role",
					"type": "bytes32"
				},
				{
					"internalType": "address",
					"name": "account",
					"type": "address"
				}
			],
			"name": "grantRole",
			"outputs": [],
			"stateMutability": "nonpayable",
			"type": "function"
		},
		{
			"inputs": [
				{
					"internalType": "bytes32",
					"name": "role",
					"type": "bytes32"
				},
				{
					"internalType": "address",
					"name": "account",
					"type": "address"
				}
			],
			"name": "hasRole",
			"outputs": [
				{
					"internalType": "bool",
					"name": "",
					"type": "bool"
				}
			],
			"stateMutability": "view",
			"type": "function"
		},
		{
			"inputs": [],
			"name": "inflationRate",
			"outputs": [
				{
					"internalType": "uint256",
					"name": "",
					"type": "uint256"
				}
			],
			"stateMutability": "view",
			"type": "function"
		},
		{
			"inputs": [],
			"name": "lastInflationAdjustment",
			"outputs": [
				{
					"internalType": "uint256",
					"name": "",
					"type": "uint256"
				}
			],
			"stateMutability": "view",
			"type": "function"
		},
		{
			"inputs": [
				{
					"internalType": "address",
					"name": "",
					"type": "address"
				}
			],
			"name": "lastRewardClaim",
			"outputs": [
				{
					"internalType": "uint256",
					"name": "",
					"type": "uint256"
				}
			],
			"stateMutability": "view",
			"type": "function"
		},
		{
			"inputs": [
				{
					"internalType": "address",
					"name": "to",
					"type": "address"
				},
				{
					"internalType": "uint256",
					"name": "amount",
					"type": "uint256"
				}
			],
			"name": "mint",
			"outputs": [],
			"stateMutability": "nonpayable",
			"type": "function"
		},
		{
			"inputs": [],
			"name": "name",
			"outputs": [
				{
					"internalType": "string",
					"name": "",
					"type": "string"
				}
			],
			"stateMutability": "view",
			"type": "function"
		},
		{
			"inputs": [
				{
					"internalType": "address",
					"name": "owner",
					"type": "address"
				}
			],
			"name": "nonces",
			"outputs": [
				{
					"internalType": "uint256",
					"name": "",
					"type": "uint256"
				}
			],
			"stateMutability": "view",
			"type": "function"
		},
		{
			"inputs": [],
			"name": "pause",
			"outputs": [],
			"stateMutability": "nonpayable",
			"type": "function"
		},
		{
			"inputs": [],
			"name": "paused",
			"outputs": [
				{
					"internalType": "bool",
					"name": "",
					"type": "bool"
				}
			],
			"stateMutability": "view",
			"type": "function"
		},
		{
			"inputs": [
				{
					"internalType": "uint256",
					"name": "amount",
					"type": "uint256"
				},
				{
					"internalType": "string",
					"name": "purpose",
					"type": "string"
				}
			],
			"name": "payFee",
			"outputs": [],
			"stateMutability": "nonpayable",
			"type": "function"
		},
		{
			"inputs": [
				{
					"internalType": "address",
					"name": "to",
					"type": "address"
				},
				{
					"internalType": "string",
					"name": "action",
					"type": "string"
				}
			],
			"name": "payReward",
			"outputs": [],
			"stateMutability": "nonpayable",
			"type": "function"
		},
		{
			"inputs": [
				{
					"internalType": "address",
					"name": "owner",
					"type": "address"
				},
				{
					"internalType": "address",
					"name": "spender",
					"type": "address"
				},
				{
					"internalType": "uint256",
					"name": "value",
					"type": "uint256"
				},
				{
					"internalType": "uint256",
					"name": "deadline",
					"type": "uint256"
				},
				{
					"internalType": "uint8",
					"name": "v",
					"type": "uint8"
				},
				{
					"internalType": "bytes32",
					"name": "r",
					"type": "bytes32"
				},
				{
					"internalType": "bytes32",
					"name": "s",
					"type": "bytes32"
				}
			],
			"name": "permit",
			"outputs": [],
			"stateMutability": "nonpayable",
			"type": "function"
		},
		{
			"inputs": [
				{
					"internalType": "bytes32",
					"name": "role",
					"type": "bytes32"
				},
				{
					"internalType": "address",
					"name": "callerConfirmation",
					"type": "address"
				}
			],
			"name": "renounceRole",
			"outputs": [],
			"stateMutability": "nonpayable",
			"type": "function"
		},
		{
			"inputs": [
				{
					"internalType": "bytes32",
					"name": "role",
					"type": "bytes32"
				},
				{
					"internalType": "address",
					"name": "account",
					"type": "address"
				}
			],
			"name": "revokeRole",
			"outputs": [],
			"stateMutability": "nonpayable",
			"type": "function"
		},
		{
			"inputs": [
				{
					"internalType": "string",
					"name": "",
					"type": "string"
				}
			],
			"name": "rewardAmounts",
			"outputs": [
				{
					"internalType": "uint256",
					"name": "",
					"type": "uint256"
				}
			],
			"stateMutability": "view",
			"type": "function"
		},
		{
			"inputs": [
				{
					"internalType": "address",
					"name": "_daoAddress",
					"type": "address"
				}
			],
			"name": "setDaoAddress",
			"outputs": [],
			"stateMutability": "nonpayable",
			"type": "function"
		},
		{
			"inputs": [
				{
					"internalType": "uint256",
					"name": "amount",
					"type": "uint256"
				}
			],
			"name": "stakeTokens",
			"outputs": [],
			"stateMutability": "nonpayable",
			"type": "function"
		},
		{
			"inputs": [
				{
					"internalType": "address",
					"name": "",
					"type": "address"
				}
			],
			"name": "stakedBalance",
			"outputs": [
				{
					"internalType": "uint256",
					"name": "",
					"type": "uint256"
				}
			],
			"stateMutability": "view",
			"type": "function"
		},
		{
			"inputs": [],
			"name": "stakingAPY",
			"outputs": [
				{
					"internalType": "uint256",
					"name": "",
					"type": "uint256"
				}
			],
			"stateMutability": "view",
			"type": "function"
		},
		{
			"inputs": [
				{
					"internalType": "address",
					"name": "",
					"type": "address"
				}
			],
			"name": "stakingRewards",
			"outputs": [
				{
					"internalType": "uint256",
					"name": "",
					"type": "uint256"
				}
			],
			"stateMutability": "view",
			"type": "function"
		},
		{
			"inputs": [
				{
					"internalType": "bytes4",
					"name": "interfaceId",
					"type": "bytes4"
				}
			],
			"name": "supportsInterface",
			"outputs": [
				{
					"internalType": "bool",
					"name": "",
					"type": "bool"
				}
			],
			"stateMutability": "view",
			"type": "function"
		},
		{
			"inputs": [],
			"name": "symbol",
			"outputs": [
				{
					"internalType": "string",
					"name": "",
					"type": "string"
				}
			],
			"stateMutability": "view",
			"type": "function"
		},
		{
			"inputs": [],
			"name": "totalStaked",
			"outputs": [
				{
					"internalType": "uint256",
					"name": "",
					"type": "uint256"
				}
			],
			"stateMutability": "view",
			"type": "function"
		},
		{
			"inputs": [],
			"name": "totalSupply",
			"outputs": [
				{
					"internalType": "uint256",
					"name": "",
					"type": "uint256"
				}
			],
			"stateMutability": "view",
			"type": "function"
		},
		{
			"inputs": [
				{
					"internalType": "address",
					"name": "to",
					"type": "address"
				},
				{
					"internalType": "uint256",
					"name": "value",
					"type": "uint256"
				}
			],
			"name": "transfer",
			"outputs": [
				{
					"internalType": "bool",
					"name": "",
					"type": "bool"
				}
			],
			"stateMutability": "nonpayable",
			"type": "function"
		},
		{
			"inputs": [
				{
					"internalType": "address",
					"name": "from",
					"type": "address"
				},
				{
					"internalType": "address",
					"name": "to",
					"type": "address"
				},
				{
					"internalType": "uint256",
					"name": "value",
					"type": "uint256"
				}
			],
			"name": "transferFrom",
			"outputs": [
				{
					"internalType": "bool",
					"name": "",
					"type": "bool"
				}
			],
			"stateMutability": "nonpayable",
			"type": "function"
		},
		{
			"inputs": [],
			"name": "unpause",
			"outputs": [],
			"stateMutability": "nonpayable",
			"type": "function"
		},
		{
			"inputs": [
				{
					"internalType": "uint256",
					"name": "amount",
					"type": "uint256"
				}
			],
			"name": "unstakeTokens",
			"outputs": [],
			"stateMutability": "nonpayable",
			"type": "function"
		},
		{
			"inputs": [
				{
					"internalType": "string",
					"name": "action",
					"type": "string"
				},
				{
					"internalType": "uint256",
					"name": "newAmount",
					"type": "uint256"
				}
			],
			"name": "updateRewardAmount",
			"outputs": [],
			"stateMutability": "nonpayable",
			"type": "function"
		}
	]
}