{
	"data": {
		"bytecode": {
			"linkReferences": {},
			"object": "610200604052348015610010575f5ffd5b506040516172e23803806172e28339818101604052810190610032919061066a565b836201518062093a80683635c9adc5dea000006040518060400160405280600d81526020017f4372656453706865726544414f000000000000000000000000000000000000008152508061008a61028760201b60201c565b61009d5f836102c460201b90919060201c565b61012081815250506100b96001826102c460201b90919060201c565b6101408181525050818051906020012060e08181525050808051906020012061010081815250504660a081815250506100f661031160201b60201c565b608081815250503073ffffffffffffffffffffffffffffffffffffffff1660c08173ffffffffffffffffffffffffffffffffffffffff168152505050508060039081610142919061090b565b50506101538361036b60201b60201c565b610162826103de60201b60201c565b6101718161049760201b60201c565b5050508073ffffffffffffffffffffffffffffffffffffffff166101608173ffffffffffffffffffffffffffffffffffffffff1681525050508373ffffffffffffffffffffffffffffffffffffffff166101c08173ffffffffffffffffffffffffffffffffffffffff16815250508273ffffffffffffffffffffffffffffffffffffffff166101808173ffffffffffffffffffffffffffffffffffffffff16815250508173ffffffffffffffffffffffffffffffffffffffff166101a08173ffffffffffffffffffffffffffffffffffffffff16815250508073ffffffffffffffffffffffffffffffffffffffff166101e08173ffffffffffffffffffffffffffffffffffffffff168152505050505050610cc1565b60606040518060400160405280600181526020017f3100000000000000000000000000000000000000000000000000000000000000815250905090565b5f6020835110156102e5576102de836104dc60201b60201c565b905061030b565b826102f58361054160201b60201c565b5f019081610303919061090b565b5060ff5f1b90505b92915050565b5f7f8b73c3c69bb8fe3d512ecc4cf759cc79239f7b179b0ffacaa9a75d522b39400f60e051610100514630604051602001610350959493929190610a10565b60405160208183030381529060405280519060200120905090565b7fc565b045403dc03c2eea82b81a0465edad9e2e7fc4d97e11421c209da93d7a9360085f9054906101000a900465ffffffffffff16826040516103af929190610aa2565b60405180910390a18060085f6101000a81548165ffffffffffff021916908365ffffffffffff16021790555050565b5f8163ffffffff1603610428575f6040517ff1cfbf0500000000000000000000000000000000000000000000000000000000815260040161041f9190610b02565b60405180910390fd5b7f7e3f7f0708a84de9203036abaa450dccc85ad5ff52f78c170f3edb55cf5e8828600860069054906101000a900463ffffffff168260405161046b929190610b5a565b60405180910390a180600860066101000a81548163ffffffff021916908363ffffffff16021790555050565b7fccb45da8d5717e6c4544694297c4ba5cf151d455c9bb0ed4fc7a38411bc05461600754826040516104ca929190610b81565b60405180910390a18060078190555050565b5f5f829050601f8151111561052857826040517f305a27a900000000000000000000000000000000000000000000000000000000815260040161051f9190610c0e565b60405180910390fd5b80518161053490610c5b565b5f1c175f1b915050919050565b5f819050919050565b5f5ffd5b5f73ffffffffffffffffffffffffffffffffffffffff82169050919050565b5f6105778261054e565b9050919050565b5f6105888261056d565b9050919050565b6105988161057e565b81146105a2575f5ffd5b50565b5f815190506105b38161058f565b92915050565b5f6105c38261056d565b9050919050565b6105d3816105b9565b81146105dd575f5ffd5b50565b5f815190506105ee816105ca565b92915050565b5f6105fe8261056d565b9050919050565b61060e816105f4565b8114610618575f5ffd5b50565b5f8151905061062981610605565b92915050565b5f6106398261056d565b9050919050565b6106498161062f565b8114610653575f5ffd5b50565b5f8151905061066481610640565b92915050565b5f5f5f5f608085870312156106825761068161054a565b5b5f61068f878288016105a5565b94505060206106a0878288016105e0565b93505060406106b18782880161061b565b92505060606106c287828801610656565b91505092959194509250565b5f81519050919050565b7f4e487b71000000000000000000000000000000000000000000000000000000005f52604160045260245ffd5b7f4e487b71000000000000000000000000000000000000000000000000000000005f52602260045260245ffd5b5f600282049050600182168061074957607f821691505b60208210810361075c5761075b610705565b5b50919050565b5f819050815f5260205f209050919050565b5f6020601f8301049050919050565b5f82821b905092915050565b5f600883026107be7fffffffffffffffffffffffffffffffffffffffffffffffffffffffffffffffff82610783565b6107c88683610783565b95508019841693508086168417925050509392505050565b5f819050919050565b5f819050919050565b5f61080c610807610802846107e0565b6107e9565b6107e0565b9050919050565b5f819050919050565b610825836107f2565b61083961083182610813565b84845461078f565b825550505050565b5f5f905090565b610850610841565b61085b81848461081c565b505050565b5b8181101561087e576108735f82610848565b600181019050610861565b5050565b601f8211156108c35761089481610762565b61089d84610774565b810160208510156108ac578190505b6108c06108b885610774565b830182610860565b50505b505050565b5f82821c905092915050565b5f6108e35f19846008026108c8565b1980831691505092915050565b5f6108fb83836108d4565b9150826002028217905092915050565b610914826106ce565b67ffffffffffffffff81111561092d5761092c6106d8565b5b6109378254610732565b610942828285610882565b5f60209050601f831160018114610973575f8415610961578287015190505b61096b85826108f0565b8655506109d2565b601f19841661098186610762565b5f5b828110156109a857848901518255600182019150602085019450602081019050610983565b868310156109c557848901516109c1601f8916826108d4565b8355505b6001600288020188555050505b505050505050565b5f819050919050565b6109ec816109da565b82525050565b6109fb816107e0565b82525050565b610a0a8161056d565b82525050565b5f60a082019050610a235f8301886109e3565b610a3060208301876109e3565b610a3d60408301866109e3565b610a4a60608301856109f2565b610a576080830184610a01565b9695505050505050565b5f65ffffffffffff82169050919050565b5f610a8c610a87610a8284610a61565b6107e9565b6107e0565b9050919050565b610a9c81610a72565b82525050565b5f604082019050610ab55f830185610a93565b610ac26020830184610a93565b9392505050565b5f819050919050565b5f610aec610ae7610ae284610ac9565b6107e9565b6107e0565b9050919050565b610afc81610ad2565b82525050565b5f602082019050610b155f830184610af3565b92915050565b5f63ffffffff82169050919050565b5f610b44610b3f610b3a84610b1b565b6107e9565b6107e0565b9050919050565b610b5481610b2a565b82525050565b5f604082019050610b6d5f830185610b4b565b610b7a6020830184610b4b565b9392505050565b5f604082019050610b945f8301856109f2565b610ba160208301846109f2565b9392505050565b5f82825260208201905092915050565b8281835e5f83830152505050565b5f601f19601f8301169050919050565b5f610be0826106ce565b610bea8185610ba8565b9350610bfa818560208601610bb8565b610c0381610bc6565b840191505092915050565b5f6020820190508181035f830152610c268184610bd6565b905092915050565b5f81519050919050565b5f819050602082019050919050565b5f610c5282516109da565b80915050919050565b5f610c6582610c2e565b82610c6f84610c38565b9050610c7a81610c47565b92506020821015610cba57610cb57fffffffffffffffffffffffffffffffffffffffffffffffffffffffffffffffff83602003600802610783565b831692505b5050919050565b60805160a05160c05160e05161010051610120516101405161016051610180516101a0516101c0516101e05161657b610d675f395f81816110df0152611f1801525f8181611d7301528181612058015261249201525f611cc001525f8181611cf901528181611f77015261221d01525f61253101525f61323e01525f61320301525f613cff01525f613cde01525f61345f01525f6134b501525f6134de015261657b5ff3fe6080604052600436106102b1575f3560e01c806384b0196e11610174578063c01f9e37116100db578063deaaa7cc11610094578063ece40cc11161006e578063ece40cc114610c5a578063f23a6e6114610c82578063f8ce560a14610cbe578063fc0c546a14610cfa57610324565b8063deaaa7cc14610bcc578063e540d01d14610bf6578063eb9019d414610c1e57610324565b8063c01f9e3714610aa8578063c28bc2fa14610ae4578063c52164c614610b00578063c59057e414610b2a578063cb0c10c714610b66578063dd4e2ba514610ba257610324565b8063a8f8a6681161012d578063a8f8a66814610964578063a9a95294146109a0578063ab58fb8e146109dc578063af98375314610a18578063b58131b014610a42578063bc197c8114610a6c57610324565b806384b0196e1461083e5780638ff262e31461086e57806391ddadf4146108aa578063934fcd1b146108d45780639a802a6d146108fe578063a48665841461093a57610324565b806343859632116102185780635b8d0e0d116101d15780635b8d0e0d146106ea5780635f398a141461072657806379051887146107625780637b3c71d31461078a5780637d5e81e2146107c65780637ecebe001461080257610324565b806343859632146105a4578063452115d6146105e05780634bf5d7e91461061c578063544ffc9c1461064657806354fd4d501461068457806356781388146106ae57610324565b80631b3b74f11161026a5780631b3b74f11461046c5780632656227d146104a85780632d63f693146104d85780632fe3e261146105145780633932abb11461053e5780633e4f49e61461056857610324565b806301ffc9a71461032857806302a251a31461036457806306fdde031461038e578063143489d0146103b8578063150b7a02146103f4578063160cbed71461043057610324565b36610324573073ffffffffffffffffffffffffffffffffffffffff166102d5610d24565b73ffffffffffffffffffffffffffffffffffffffff1614610322576040517fe90a651e00000000000000000000000000000000000000000000000000000000815260040160405180910390fd5b005b5f5ffd5b348015610333575f5ffd5b5061034e60048036038101906103499190614135565b610d2b565b60405161035b919061417a565b60405180910390f35b34801561036f575f5ffd5b50610378610e7d565b60405161038591906141ab565b60405180910390f35b348015610399575f5ffd5b506103a2610e9c565b6040516103af9190614234565b60405180910390f35b3480156103c3575f5ffd5b506103de60048036038101906103d9919061427e565b610f2c565b6040516103eb91906142e8565b60405180910390f35b3480156103ff575f5ffd5b5061041a60048036038101906104159190614457565b610f67565b60405161042791906144e6565b60405180910390f35b34801561043b575f5ffd5b5061045660048036038101906104519190614794565b610fe6565b60405161046391906141ab565b60405180910390f35b348015610477575f5ffd5b50610492600480360381019061048d919061484c565b6110dc565b60405161049f91906141ab565b60405180910390f35b6104c260048036038101906104bd9190614794565b61117c565b6040516104cf91906141ab565b60405180910390f35b3480156104e3575f5ffd5b506104fe60048036038101906104f9919061427e565b611359565b60405161050b91906141ab565b60405180910390f35b34801561051f575f5ffd5b5061052861138f565b6040516105359190614886565b60405180910390f35b348015610549575f5ffd5b506105526113b3565b60405161055f91906141ab565b60405180910390f35b348015610573575f5ffd5b5061058e6004803603810190610589919061427e565b6113d5565b60405161059b9190614912565b60405180910390f35b3480156105af575f5ffd5b506105ca60048036038101906105c5919061492b565b61152c565b6040516105d7919061417a565b60405180910390f35b3480156105eb575f5ffd5b5061060660048036038101906106019190614794565b611591565b60405161061391906141ab565b60405180910390f35b348015610627575f5ffd5b50610630611611565b60405161063d9190614234565b60405180910390f35b348015610651575f5ffd5b5061066c6004803603810190610667919061427e565b6116ce565b60405161067b93929190614969565b60405180910390f35b34801561068f575f5ffd5b50610698611701565b6040516106a59190614234565b60405180910390f35b3480156106b9575f5ffd5b506106d460048036038101906106cf91906149d4565b61173e565b6040516106e191906141ab565b60405180910390f35b3480156106f5575f5ffd5b50610710600480360381019061070b9190614a6b565b61176d565b60405161071d91906141ab565b60405180910390f35b348015610731575f5ffd5b5061074c60048036038101906107479190614b4d565b61189c565b60405161075991906141ab565b60405180910390f35b34801561076d575f5ffd5b5061078860048036038101906107839190614c28565b611904565b005b348015610795575f5ffd5b506107b060048036038101906107ab9190614c53565b611918565b6040516107bd91906141ab565b60405180910390f35b3480156107d1575f5ffd5b506107ec60048036038101906107e79190614d62565b61197e565b6040516107f991906141ab565b60405180910390f35b34801561080d575f5ffd5b506108286004803603810190610823919061484c565b611a74565b60405161083591906141ab565b60405180910390f35b348015610849575f5ffd5b50610852611aba565b6040516108659796959493929190614f27565b60405180910390f35b348015610879575f5ffd5b50610894600480360381019061088f9190614fa9565b611b5f565b6040516108a191906141ab565b60405180910390f35b3480156108b5575f5ffd5b506108be611c33565b6040516108cb9190615038565b60405180910390f35b3480156108df575f5ffd5b506108e8611cbe565b6040516108f591906150ac565b60405180910390f35b348015610909575f5ffd5b50610924600480360381019061091f91906150c5565b611ce2565b60405161093191906141ab565b60405180910390f35b348015610945575f5ffd5b5061094e611cf7565b60405161095b9190615151565b60405180910390f35b34801561096f575f5ffd5b5061098a60048036038101906109859190614794565b611d1b565b60405161099791906141ab565b60405180910390f35b3480156109ab575f5ffd5b506109c660048036038101906109c1919061427e565b611d32565b6040516109d3919061417a565b60405180910390f35b3480156109e7575f5ffd5b50610a0260048036038101906109fd919061427e565b611d3b565b604051610a0f91906141ab565b60405180910390f35b348015610a23575f5ffd5b50610a2c611d71565b604051610a39919061518a565b60405180910390f35b348015610a4d575f5ffd5b50610a56611d95565b604051610a6391906141ab565b60405180910390f35b348015610a77575f5ffd5b50610a926004803603810190610a8d91906151a3565b611da3565b604051610a9f91906144e6565b60405180910390f35b348015610ab3575f5ffd5b50610ace6004803603810190610ac9919061427e565b611e23565b604051610adb91906141ab565b60405180910390f35b610afe6004803603810190610af991906152c3565b611e8d565b005b348015610b0b575f5ffd5b50610b14611f16565b604051610b219190615354565b60405180910390f35b348015610b35575f5ffd5b50610b506004803603810190610b4b9190614794565b611f3a565b604051610b5d91906141ab565b60405180910390f35b348015610b71575f5ffd5b50610b8c6004803603810190610b87919061536d565b611f74565b604051610b9991906141ab565b60405180910390f35b348015610bad575f5ffd5b50610bb6612369565b604051610bc39190614234565b60405180910390f35b348015610bd7575f5ffd5b50610be06123a6565b604051610bed9190614886565b60405180910390f35b348015610c01575f5ffd5b50610c1c6004803603810190610c179190615400565b6123ca565b005b348015610c29575f5ffd5b50610c446004803603810190610c3f919061542b565b6123de565b604051610c5191906141ab565b60405180910390f35b348015610c65575f5ffd5b50610c806004803603810190610c7b919061427e565b6123f9565b005b348015610c8d575f5ffd5b50610ca86004803603810190610ca39190615469565b61240d565b604051610cb591906144e6565b60405180910390f35b348015610cc9575f5ffd5b50610ce46004803603810190610cdf919061427e565b61248d565b604051610cf191906141ab565b60405180910390f35b348015610d05575f5ffd5b50610d0e61252e565b604051610d1b919061551c565b60405180910390f35b5f30905090565b5f7fcdbdfcee000000000000000000000000000000000000000000000000000000007bffffffffffffffffffffffffffffffffffffffffffffffffffffffff1916827bffffffffffffffffffffffffffffffffffffffffffffffffffffffff19161480610dfe575063a8f8a66860e01b7fcdbdfcee00000000000000000000000000000000000000000000000000000000187bffffffffffffffffffffffffffffffffffffffffffffffffffffffff1916827bffffffffffffffffffffffffffffffffffffffffffffffffffffffff1916145b80610e6657507f4e2312e0000000000000000000000000000000000000000000000000000000007bffffffffffffffffffffffffffffffffffffffffffffffffffffffff1916827bffffffffffffffffffffffffffffffffffffffffffffffffffffffff1916145b80610e765750610e7582612555565b5b9050919050565b5f600860069054906101000a900463ffffffff1663ffffffff16905090565b606060038054610eab90615562565b80601f0160208091040260200160405190810160405280929190818152602001828054610ed790615562565b8015610f225780601f10610ef957610100808354040283529160200191610f22565b820191905f5260205f20905b815481529060010190602001808311610f0557829003601f168201915b5050505050905090565b5f60045f8381526020019081526020015f205f015f9054906101000a900473ffffffffffffffffffffffffffffffffffffffff169050919050565b5f3073ffffffffffffffffffffffffffffffffffffffff16610f87610d24565b73ffffffffffffffffffffffffffffffffffffffff1614610fd4576040517fe90a651e00000000000000000000000000000000000000000000000000000000815260040160405180910390fd5b63150b7a0260e01b9050949350505050565b5f5f610ff486868686611d1b565b90506110098161100460046125be565b6125e2565b505f611018828888888861264d565b90505f8165ffffffffffff161461109d578060045f8481526020019081526020015f206001015f6101000a81548165ffffffffffff021916908365ffffffffffff1602179055507f9a2e42fd6722813d69113e7d0079d3d940171428df7373df9c7f7617cfda289282826040516110909291906155c2565b60405180910390a16110cf565b6040517f90884a4600000000000000000000000000000000000000000000000000000000815260040160405180910390fd5b8192505050949350505050565b5f7f000000000000000000000000000000000000000000000000000000000000000073ffffffffffffffffffffffffffffffffffffffff16639c89a0e2836040518263ffffffff1660e01b815260040161113691906142e8565b602060405180830381865afa158015611151573d5f5f3e3d5ffd5b505050506040513d601f19601f8201168201806040525081019061117591906155fd565b9050919050565b5f5f61118a86868686611d1b565b90506111aa8161119a60056125be565b6111a460046125be565b176125e2565b50600160045f8381526020019081526020015f205f01601e6101000a81548160ff0219169083151502179055503073ffffffffffffffffffffffffffffffffffffffff166111f6610d24565b73ffffffffffffffffffffffffffffffffffffffff16146112af575f5f90505b86518110156112ad573073ffffffffffffffffffffffffffffffffffffffff1687828151811061124957611248615628565b5b602002602001015173ffffffffffffffffffffffffffffffffffffffff16036112a2576112a185828151811061128257611281615628565b5b602002602001015180519060200120600561265a90919063ffffffff16565b5b806001019050611216565b505b6112bc8187878787612752565b3073ffffffffffffffffffffffffffffffffffffffff166112db610d24565b73ffffffffffffffffffffffffffffffffffffffff16141580156113065750611304600561283a565b155b156113165761131560056128a6565b5b7f712ae1383f79ac853f8d882153778e0260ef8f03b504e2866e0593e04d2b291f8160405161134591906141ab565b60405180910390a180915050949350505050565b5f60045f8381526020019081526020015f205f0160149054906101000a900465ffffffffffff1665ffffffffffff169050919050565b7f3e83946653575f9a39005e1545185629e92736b7528ab20ca3816f315424a81181565b5f60085f9054906101000a900465ffffffffffff1665ffffffffffff16905090565b5f5f60045f8481526020019081526020015f2090505f815f01601e9054906101000a900460ff1690505f825f01601f9054906101000a900460ff16905081156114245760079350505050611527565b80156114365760029350505050611527565b5f61144086611359565b90505f810361148657856040517f6ad0607500000000000000000000000000000000000000000000000000000000815260040161147d91906141ab565b60405180910390fd5b5f61148f611c33565b65ffffffffffff1690508082106114ad575f95505050505050611527565b5f6114b788611e23565b90508181106114cf5760019650505050505050611527565b6114d88861291c565b15806114ea57506114e888612960565b155b156114fe5760039650505050505050611527565b5f61150889611d3b565b0361151c5760049650505050505050611527565b600596505050505050505b919050565b5f60095f8481526020019081526020015f206003015f8373ffffffffffffffffffffffffffffffffffffffff1673ffffffffffffffffffffffffffffffffffffffff1681526020019081526020015f205f9054906101000a900460ff16905092915050565b5f5f61159f86868686611d1b565b90505f6115aa612987565b90506115b6828261298e565b6115f95781816040517f8fe5d8a90000000000000000000000000000000000000000000000000000000081526004016115f0929190615655565b60405180910390fd5b61160587878787612a05565b92505050949350505050565b606061161b61252e565b73ffffffffffffffffffffffffffffffffffffffff16634bf5d7e96040518163ffffffff1660e01b81526004015f60405180830381865afa92505050801561168557506040513d5f823e3d601f19601f8201168201806040525081019061168291906156ea565b60015b6116c6576040518060400160405280601d81526020017f6d6f64653d626c6f636b6e756d6265722666726f6d3d64656661756c7400000081525090506116cb565b809150505b90565b5f5f5f5f60095f8681526020019081526020015f209050805f015481600101548260020154935093509350509193909250565b60606040518060400160405280600181526020017f3100000000000000000000000000000000000000000000000000000000000000815250905090565b5f5f611748612987565b905061176484828560405180602001604052805f815250612ae7565b91505092915050565b5f5f6117fa876117f47f3e83946653575f9a39005e1545185629e92736b7528ab20ca3816f315424a8118c8c8c6117a38e612b06565b8d8d6040516117b392919061575f565b60405180910390208c805190602001206040516020016117d99796959493929190615786565b60405160208183030381529060405280519060200120612b59565b85612b72565b90508061183e57866040517f94ab6c0700000000000000000000000000000000000000000000000000000000815260040161183591906142e8565b60405180910390fd5b61188e89888a89898080601f0160208091040260200160405190810160405280939291908181526020018383808284375f81840152601f19601f8201169050808301925050505050505088612c1e565b915050979650505050505050565b5f5f6118a6612987565b90506118f887828888888080601f0160208091040260200160405190810160405280939291908181526020018383808284375f81840152601f19601f8201169050808301925050505050505087612c1e565b91505095945050505050565b61190c612d28565b61191581612e1d565b50565b5f5f611922612987565b905061197386828787878080601f0160208091040260200160405190810160405280939291908181526020018383808284375f81840152601f19601f82011690508083019250505050505050612ae7565b915050949350505050565b5f5f611988612987565b90506119948184612e90565b6119d557806040517fd9b395570000000000000000000000000000000000000000000000000000000081526004016119cc91906142e8565b60405180910390fd5b5f6119de611d95565b90505f811115611a5b575f611a0e8360016119f7611c33565b611a019190615820565b65ffffffffffff166123de565b905081811015611a59578281836040517fc242ee16000000000000000000000000000000000000000000000000000000008152600401611a5093929190615859565b60405180910390fd5b505b611a688787878786612f76565b92505050949350505050565b5f60025f8373ffffffffffffffffffffffffffffffffffffffff1673ffffffffffffffffffffffffffffffffffffffff1681526020019081526020015f20549050919050565b5f6060805f5f5f6060611acb6131fb565b611ad3613235565b46305f5f1b5f67ffffffffffffffff811115611af257611af1614333565b5b604051908082528060200260200182016040528015611b205781602001602082028036833780820191505090505b507f0f00000000000000000000000000000000000000000000000000000000000000959493929190965096509650965096509650965090919293949596565b5f5f611bca84611bc47ff2aad550cf55f045cb27e9c559f9889fdfb6e6cdaa032301d6ea397784ae51d7898989611b958b612b06565b604051602001611ba995949392919061588e565b60405160208183030381529060405280519060200120612b59565b85612b72565b905080611c0e57836040517f94ab6c07000000000000000000000000000000000000000000000000000000008152600401611c0591906142e8565b60405180910390fd5b611c2886858760405180602001604052805f815250612ae7565b915050949350505050565b5f611c3c61252e565b73ffffffffffffffffffffffffffffffffffffffff166391ddadf46040518163ffffffff1660e01b8152600401602060405180830381865afa925050508015611ca357506040513d601f19601f82011682018060405250810190611ca091906158f3565b60015b611cb657611caf613270565b9050611cbb565b809150505b90565b7f000000000000000000000000000000000000000000000000000000000000000081565b5f611cee84848461327f565b90509392505050565b7f000000000000000000000000000000000000000000000000000000000000000081565b5f611d2885858585611f3a565b9050949350505050565b5f5f9050919050565b5f60045f8381526020019081526020015f206001015f9054906101000a900465ffffffffffff1665ffffffffffff169050919050565b7f000000000000000000000000000000000000000000000000000000000000000081565b5f611d9e61330a565b905090565b5f3073ffffffffffffffffffffffffffffffffffffffff16611dc3610d24565b73ffffffffffffffffffffffffffffffffffffffff1614611e10576040517fe90a651e00000000000000000000000000000000000000000000000000000000815260040160405180910390fd5b63bc197c8160e01b905095945050505050565b5f60045f8381526020019081526020015f205f01601a9054906101000a900463ffffffff1663ffffffff1660045f8481526020019081526020015f205f0160149054906101000a900465ffffffffffff16611e7e919061591e565b65ffffffffffff169050919050565b611e95612d28565b5f5f8573ffffffffffffffffffffffffffffffffffffffff16858585604051611ebf92919061575f565b5f6040518083038185875af1925050503d805f8114611ef9576040519150601f19603f3d011682016040523d82523d5f602084013e611efe565b606091505b5091509150611f0d8282613313565b50505050505050565b7f000000000000000000000000000000000000000000000000000000000000000081565b5f84848484604051602001611f529493929190615b1b565b604051602081830303815290604052805190602001205f1c9050949350505050565b5f7f000000000000000000000000000000000000000000000000000000000000000073ffffffffffffffffffffffffffffffffffffffff166311461014846040518263ffffffff1660e01b8152600401611fce91906141ab565b602060405180830381865afa158015611fe9573d5f5f3e3d5ffd5b505050506040513d601f19601f8201168201806040525081019061200d9190615b9d565b61204c576040517f08c379a000000000000000000000000000000000000000000000000000000000815260040161204390615c12565b60405180910390fd5b683635c9adc5dea000007f000000000000000000000000000000000000000000000000000000000000000073ffffffffffffffffffffffffffffffffffffffff166370a08231336040518263ffffffff1660e01b81526004016120af91906142e8565b602060405180830381865afa1580156120ca573d5f5f3e3d5ffd5b505050506040513d601f19601f820116820180604052508101906120ee91906155fd565b101561212f576040517f08c379a000000000000000000000000000000000000000000000000000000000815260040161212690615c7a565b60405180910390fd5b5f600167ffffffffffffffff81111561214b5761214a614333565b5b6040519080825280602002602001820160405280156121795781602001602082028036833780820191505090505b5090505f600167ffffffffffffffff81111561219857612197614333565b5b6040519080825280602002602001820160405280156121c65781602001602082028036833780820191505090505b5090505f600167ffffffffffffffff8111156121e5576121e4614333565b5b60405190808252806020026020018201604052801561221857816020015b60608152602001906001900390816122035790505b5090507f0000000000000000000000000000000000000000000000000000000000000000835f8151811061224f5761224e615628565b5b602002602001019073ffffffffffffffffffffffffffffffffffffffff16908173ffffffffffffffffffffffffffffffffffffffff168152505063f3a4735a60e01b86336040516024016122a4929190615655565b604051602081830303815290604052907bffffffffffffffffffffffffffffffffffffffffffffffffffffffff19166020820180517bffffffffffffffffffffffffffffffffffffffffffffffffffffffff8381831617835250505050815f8151811061231457612313615628565b5b60200260200101819052505f61232c8484848961197e565b905086817f1e873190ff9044df2c87bc6e2678dc766cd32989c837d9df94f0cd243545e84a60405160405180910390a38094505050505092915050565b60606040518060400160405280602081526020017f737570706f72743d627261766f2671756f72756d3d666f722c6162737461696e815250905090565b7ff2aad550cf55f045cb27e9c559f9889fdfb6e6cdaa032301d6ea397784ae51d781565b6123d2612d28565b6123db81613337565b50565b5f6123f183836123ec6133f0565b61327f565b905092915050565b612401612d28565b61240a81613406565b50565b5f3073ffffffffffffffffffffffffffffffffffffffff1661242d610d24565b73ffffffffffffffffffffffffffffffffffffffff161461247a576040517fe90a651e00000000000000000000000000000000000000000000000000000000815260040160405180910390fd5b63f23a6e6160e01b905095945050505050565b5f60647f000000000000000000000000000000000000000000000000000000000000000073ffffffffffffffffffffffffffffffffffffffff166318160ddd6040518163ffffffff1660e01b8152600401602060405180830381865afa1580156124f9573d5f5f3e3d5ffd5b505050506040513d601f19601f8201168201806040525081019061251d91906155fd565b6125279190615cc5565b9050919050565b5f7f0000000000000000000000000000000000000000000000000000000000000000905090565b5f7f01ffc9a7000000000000000000000000000000000000000000000000000000007bffffffffffffffffffffffffffffffffffffffffffffffffffffffff1916827bffffffffffffffffffffffffffffffffffffffffffffffffffffffff1916149050919050565b5f8160078111156125d2576125d161489f565b5b60ff166001901b5f1b9050919050565b5f5f6125ed846113d5565b90505f5f1b836125fc836125be565b1603612643578381846040517f31b75e4d00000000000000000000000000000000000000000000000000000000815260040161263a93929190615cf5565b60405180910390fd5b8091505092915050565b5f5f905095945050505050565b5f825f0160109054906101000a90046fffffffffffffffffffffffffffffffff169050825f015f9054906101000a90046fffffffffffffffffffffffffffffffff166fffffffffffffffffffffffffffffffff16600182016fffffffffffffffffffffffffffffffff16036126d4576126d3604161344b565b5b81836001015f836fffffffffffffffffffffffffffffffff166fffffffffffffffffffffffffffffffff1681526020019081526020015f208190555060018101835f0160106101000a8154816fffffffffffffffffffffffffffffffff02191690836fffffffffffffffffffffffffffffffff160217905550505050565b5f5f90505b8451811015612832575f5f86838151811061277557612774615628565b5b602002602001015173ffffffffffffffffffffffffffffffffffffffff168684815181106127a6576127a5615628565b5b60200260200101518685815181106127c1576127c0615628565b5b60200260200101516040516127d69190615d5a565b5f6040518083038185875af1925050503d805f8114612810576040519150601f19603f3d011682016040523d82523d5f602084013e612815565b606091505b50915091506128248282613313565b505050806001019050612757565b505050505050565b5f815f015f9054906101000a90046fffffffffffffffffffffffffffffffff166fffffffffffffffffffffffffffffffff16825f0160109054906101000a90046fffffffffffffffffffffffffffffffff166fffffffffffffffffffffffffffffffff16149050919050565b5f815f015f6101000a8154816fffffffffffffffffffffffffffffffff02191690836fffffffffffffffffffffffffffffffff1602179055505f815f0160106101000a8154816fffffffffffffffffffffffffffffffff02191690836fffffffffffffffffffffffffffffffff16021790555050565b5f5f60095f8481526020019081526020015f209050806002015481600101546129459190615d70565b61295661295185611359565b61248d565b1115915050919050565b5f5f60095f8481526020019081526020015f209050805f0154816001015411915050919050565b5f33905090565b5f5f60078111156129a2576129a161489f565b5b6129ab846113d5565b60078111156129bd576129bc61489f565b5b1480156129fd57506129ce83610f2c565b73ffffffffffffffffffffffffffffffffffffffff168273ffffffffffffffffffffffffffffffffffffffff16145b905092915050565b5f5f612a1386868686611d1b565b9050612a7781612a2360076125be565b612a2d60066125be565b612a3760026125be565b600180600780811115612a4d57612a4c61489f565b5b612a579190615da3565b6002612a639190615f06565b612a6d9190615f50565b5f1b1818186125e2565b50600160045f8381526020019081526020015f205f01601f6101000a81548160ff0219169083151502179055507f789cf55be980739dad1d0699b93b58e806b51c9d96619bfa8fe0a28abaa7b30c81604051612ad391906141ab565b60405180910390a180915050949350505050565b5f612afc85858585612af76133f0565b612c1e565b9050949350505050565b5f60025f8373ffffffffffffffffffffffffffffffffffffffff1673ffffffffffffffffffffffffffffffffffffffff1681526020019081526020015f205f815480929190600101919050559050919050565b5f612b6b612b6561345c565b83613512565b9050919050565b5f5f8473ffffffffffffffffffffffffffffffffffffffff163b03612c09575f5f612b9d8585613552565b50915091505f6003811115612bb557612bb461489f565b5b816003811115612bc857612bc761489f565b5b148015612c0057508573ffffffffffffffffffffffffffffffffffffffff168273ffffffffffffffffffffffffffffffffffffffff16145b92505050612c17565b612c148484846135a7565b90505b9392505050565b5f612c3286612c2d60016125be565b6125e2565b505f612c4786612c4189611359565b8561327f565b90505f612c5788888885886136c6565b90505f845103612cba578673ffffffffffffffffffffffffffffffffffffffff167fb8e138887d0aa13bab447e82de9d5c1777041ecd21ca36ba824ff1e6c07ddda489888489604051612cad9493929190615f83565b60405180910390a2612d11565b8673ffffffffffffffffffffffffffffffffffffffff167fe2babfbac5889a709b63bb7f598b324e08bc5a4fb9ec647fb3cbc9ec07eb87128988848989604051612d08959493929190616015565b60405180910390a25b612d1a886138bb565b809250505095945050505050565b612d30612987565b73ffffffffffffffffffffffffffffffffffffffff16612d4e610d24565b73ffffffffffffffffffffffffffffffffffffffff1614612dad57612d71612987565b6040517f47096e47000000000000000000000000000000000000000000000000000000008152600401612da491906142e8565b60405180910390fd5b3073ffffffffffffffffffffffffffffffffffffffff16612dcc610d24565b73ffffffffffffffffffffffffffffffffffffffff1614612e1b575f612df06138be565b604051612dfe92919061575f565b604051809103902090505b80612e1460056138ca565b03612e0957505b565b7fc565b045403dc03c2eea82b81a0465edad9e2e7fc4d97e11421c209da93d7a9360085f9054906101000a900465ffffffffffff1682604051612e61929190616074565b60405180910390a18060085f6101000a81548165ffffffffffff021916908365ffffffffffff16021790555050565b5f5f825190506034811015612ea9576001915050612f70565b5f612eb784603484036139f8565b90507f2370726f706f7365723d0000000000000000000000000000000000000000000075ffffffffffffffffffffffffffffffffffffffffffff19168175ffffffffffffffffffffffffffffffffffffffffffff191614612f1d57600192505050612f70565b5f5f612f2d86602a860386613a08565b91509150811580612f6957508673ffffffffffffffffffffffffffffffffffffffff168173ffffffffffffffffffffffffffffffffffffffff16145b9450505050505b92915050565b5f612f8a8686868680519060200120611d1b565b905084518651141580612f9f57508351865114155b80612faa57505f8651145b15612ff3578551845186516040517f447b05d0000000000000000000000000000000000000000000000000000000008152600401612fea93929190614969565b60405180910390fd5b5f60045f8381526020019081526020015f205f0160149054906101000a900465ffffffffffff1665ffffffffffff16146130725780613031826113d5565b5f5f1b6040517f31b75e4d00000000000000000000000000000000000000000000000000000000815260040161306993929190615cf5565b60405180910390fd5b5f61307b6113b3565b613083611c33565b65ffffffffffff166130959190615d70565b90505f6130a0610e7d565b90505f60045f8581526020019081526020015f20905084815f015f6101000a81548173ffffffffffffffffffffffffffffffffffffffff021916908373ffffffffffffffffffffffffffffffffffffffff16021790555061310083613b19565b815f0160146101000a81548165ffffffffffff021916908365ffffffffffff16021790555061312e82613b72565b815f01601a6101000a81548163ffffffff021916908363ffffffff1602179055507f7d84a6263ae0d98d3329bd7b46bb4e8d6f98cd35a7adb45c274c8b7fd5ebd5e084868b8b8d5167ffffffffffffffff81111561318f5761318e614333565b5b6040519080825280602002602001820160405280156131c257816020015b60608152602001906001900390816131ad5790505b508c89898b6131d19190615d70565b8e6040516131e79998979695949392919061619e565b60405180910390a150505095945050505050565b60606132305f7f0000000000000000000000000000000000000000000000000000000000000000613bc990919063ffffffff16565b905090565b606061326b60017f0000000000000000000000000000000000000000000000000000000000000000613bc990919063ffffffff16565b905090565b5f61327a43613b19565b905090565b5f61328861252e565b73ffffffffffffffffffffffffffffffffffffffff16633a46b1a885856040518363ffffffff1660e01b81526004016132c292919061624c565b602060405180830381865afa1580156132dd573d5f5f3e3d5ffd5b505050506040513d601f19601f8201168201806040525081019061330191906155fd565b90509392505050565b5f600754905090565b6060826133285761332382613c76565b613330565b819050613331565b5b92915050565b5f8163ffffffff1603613381575f6040517ff1cfbf0500000000000000000000000000000000000000000000000000000000815260040161337891906162ac565b60405180910390fd5b7f7e3f7f0708a84de9203036abaa450dccc85ad5ff52f78c170f3edb55cf5e8828600860069054906101000a900463ffffffff16826040516133c49291906162f5565b60405180910390a180600860066101000a81548163ffffffff021916908363ffffffff16021790555050565b606060405180602001604052805f815250905090565b7fccb45da8d5717e6c4544694297c4ba5cf151d455c9bb0ed4fc7a38411bc054616007548260405161343992919061631c565b60405180910390a18060078190555050565b634e487b715f52806020526024601cfd5b5f7f000000000000000000000000000000000000000000000000000000000000000073ffffffffffffffffffffffffffffffffffffffff163073ffffffffffffffffffffffffffffffffffffffff161480156134d757507f000000000000000000000000000000000000000000000000000000000000000046145b15613504577f0000000000000000000000000000000000000000000000000000000000000000905061350f565b61350c613cba565b90505b90565b5f6040517f190100000000000000000000000000000000000000000000000000000000000081528360028201528260228201526042812091505092915050565b5f5f5f6041845103613592575f5f5f602087015192506040870151915060608701515f1a905061358488828585613d4f565b9550955095505050506135a0565b5f600285515f1b9250925092505b9250925092565b5f5f5f8573ffffffffffffffffffffffffffffffffffffffff1685856040516024016135d4929190616343565b604051602081830303815290604052631626ba7e60e01b6020820180517bffffffffffffffffffffffffffffffffffffffffffffffffffffffff83818316178352505050506040516136269190615d5a565b5f60405180830381855afa9150503d805f811461365e576040519150601f19603f3d011682016040523d82523d5f602084013e613663565b606091505b509150915081801561367757506020815110155b80156136bb5750631626ba7e60e01b7bffffffffffffffffffffffffffffffffffffffffffffffffffffffff1916818060200190518101906136b99190616385565b145b925050509392505050565b5f5f60095f8881526020019081526020015f209050806003015f8773ffffffffffffffffffffffffffffffffffffffff1673ffffffffffffffffffffffffffffffffffffffff1681526020019081526020015f205f9054906101000a900460ff161561376957856040517f71c6af4900000000000000000000000000000000000000000000000000000000815260040161376091906142e8565b60405180910390fd5b6001816003015f8873ffffffffffffffffffffffffffffffffffffffff1673ffffffffffffffffffffffffffffffffffffffff1681526020019081526020015f205f6101000a81548160ff0219169083151502179055505f60028111156137d3576137d261489f565b5b60ff168560ff16036137fd5783815f015f8282546137f19190615d70565b925050819055506138ae565b600160028111156138115761381061489f565b5b60ff168560ff160361383c5783816001015f8282546138309190615d70565b925050819055506138ad565b60028081111561384f5761384e61489f565b5b60ff168560ff160361387a5783816002015f82825461386e9190615d70565b925050819055506138ac565b6040517f06b337c200000000000000000000000000000000000000000000000000000000815260040160405180910390fd5b5b5b8391505095945050505050565b50565b365f5f36915091509091565b5f5f825f015f9054906101000a90046fffffffffffffffffffffffffffffffff169050825f0160109054906101000a90046fffffffffffffffffffffffffffffffff166fffffffffffffffffffffffffffffffff16816fffffffffffffffffffffffffffffffff160361394257613941603161344b565b5b826001015f826fffffffffffffffffffffffffffffffff166fffffffffffffffffffffffffffffffff1681526020019081526020015f20549150826001015f826fffffffffffffffffffffffffffffffff166fffffffffffffffffffffffffffffffff1681526020019081526020015f205f905560018101835f015f6101000a8154816fffffffffffffffffffffffffffffffff02191690836fffffffffffffffffffffffffffffffff16021790555050919050565b5f81602001830151905092915050565b5f5f8451831180613a1857508284115b15613a28575f5f91509150613b11565b5f600185613a369190615d70565b84118015613aae57507f30780000000000000000000000000000000000000000000000000000000000007dffffffffffffffffffffffffffffffffffffffffffffffffffffffffffff1916613a8b8787613e36565b7dffffffffffffffffffffffffffffffffffffffffffffffffffffffffffff1916145b90505f6002613abe831515613e46565b613ac891906163b0565b6028613ad49190615d70565b9050808686613ae39190615f50565b03613b08575f5f613af5898989613e51565b9150915081819550955050505050613b11565b5f5f9350935050505b935093915050565b5f65ffffffffffff8016821115613b6a576030826040517f6dfcc650000000000000000000000000000000000000000000000000000000008152600401613b6192919061642a565b60405180910390fd5b819050919050565b5f63ffffffff8016821115613bc1576020826040517f6dfcc650000000000000000000000000000000000000000000000000000000008152600401613bb892919061648a565b60405180910390fd5b819050919050565b606060ff5f1b8314613be557613bde83613f7f565b9050613c70565b818054613bf190615562565b80601f0160208091040260200160405190810160405280929190818152602001828054613c1d90615562565b8015613c685780601f10613c3f57610100808354040283529160200191613c68565b820191905f5260205f20905b815481529060010190602001808311613c4b57829003601f168201915b505050505090505b92915050565b5f81511115613c885780518082602001fd5b6040517fd6bda27500000000000000000000000000000000000000000000000000000000815260040160405180910390fd5b5f7f8b73c3c69bb8fe3d512ecc4cf759cc79239f7b179b0ffacaa9a75d522b39400f7f00000000000000000000000000000000000000000000000000000000000000007f00000000000000000000000000000000000000000000000000000000000000004630604051602001613d349594939291906164b1565b60405160208183030381529060405280519060200120905090565b5f5f5f7f7fffffffffffffffffffffffffffffff5d576e7357a4501ddfe92f46681b20a0845f1c1115613d8b575f600385925092509250613e2c565b5f6001888888886040515f8152602001604052604051613dae9493929190616502565b6020604051602081039080840390855afa158015613dce573d5f5f3e3d5ffd5b5050506020604051035190505f73ffffffffffffffffffffffffffffffffffffffff168173ffffffffffffffffffffffffffffffffffffffff1603613e1f575f60015f5f1b93509350935050613e2c565b805f5f5f1b935093509350505b9450945094915050565b5f81602001830151905092915050565b5f8115159050919050565b5f5f5f8590505f600186613e659190615d70565b85118015613edd57507f30780000000000000000000000000000000000000000000000000000000000007dffffffffffffffffffffffffffffffffffffffffffffffffffffffffffff1916613eba8388613e36565b7dffffffffffffffffffffffffffffffffffffffffffffffffffffffffffff1916145b90505f6002613eed831515613e46565b613ef791906163b0565b90505f5f90505f8289613f0a9190615d70565b90505b87811015613f6a575f613f28613f238784613e36565b613ff1565b9050600f8160ff161115613f47575f5f97509750505050505050613f77565b601083613f5491906163b0565b92508060ff168301925050806001019050613f0d565b5060018195509550505050505b935093915050565b60605f613f8b83614081565b90505f602067ffffffffffffffff811115613fa957613fa8614333565b5b6040519080825280601f01601f191660200182016040528015613fdb5781602001600182028036833780820191505090505b5090508181528360208201528092505050919050565b5f5f8260f81c9050602f8160ff1611801561400f5750603a8160ff16105b1561401f57603081039050614077565b60608160ff16118015614035575060678160ff16105b1561404557605781039050614076565b60408160ff1611801561405b575060478160ff16105b1561406b57603781039050614075565b60ff91505061407c565b5b5b809150505b919050565b5f5f60ff835f1c169050601f8111156140c6576040517fb3512b0c00000000000000000000000000000000000000000000000000000000815260040160405180910390fd5b80915050919050565b5f604051905090565b5f5ffd5b5f5ffd5b5f7fffffffff0000000000000000000000000000000000000000000000000000000082169050919050565b614114816140e0565b811461411e575f5ffd5b50565b5f8135905061412f8161410b565b92915050565b5f6020828403121561414a576141496140d8565b5b5f61415784828501614121565b91505092915050565b5f8115159050919050565b61417481614160565b82525050565b5f60208201905061418d5f83018461416b565b92915050565b5f819050919050565b6141a581614193565b82525050565b5f6020820190506141be5f83018461419c565b92915050565b5f81519050919050565b5f82825260208201905092915050565b8281835e5f83830152505050565b5f601f19601f8301169050919050565b5f614206826141c4565b61421081856141ce565b93506142208185602086016141de565b614229816141ec565b840191505092915050565b5f6020820190508181035f83015261424c81846141fc565b905092915050565b61425d81614193565b8114614267575f5ffd5b50565b5f8135905061427881614254565b92915050565b5f60208284031215614293576142926140d8565b5b5f6142a08482850161426a565b91505092915050565b5f73ffffffffffffffffffffffffffffffffffffffff82169050919050565b5f6142d2826142a9565b9050919050565b6142e2816142c8565b82525050565b5f6020820190506142fb5f8301846142d9565b92915050565b61430a816142c8565b8114614314575f5ffd5b50565b5f8135905061432581614301565b92915050565b5f5ffd5b5f5ffd5b7f4e487b71000000000000000000000000000000000000000000000000000000005f52604160045260245ffd5b614369826141ec565b810181811067ffffffffffffffff8211171561438857614387614333565b5b80604052505050565b5f61439a6140cf565b90506143a68282614360565b919050565b5f67ffffffffffffffff8211156143c5576143c4614333565b5b6143ce826141ec565b9050602081019050919050565b828183375f83830152505050565b5f6143fb6143f6846143ab565b614391565b9050828152602081018484840111156144175761441661432f565b5b6144228482856143db565b509392505050565b5f82601f83011261443e5761443d61432b565b5b813561444e8482602086016143e9565b91505092915050565b5f5f5f5f6080858703121561446f5761446e6140d8565b5b5f61447c87828801614317565b945050602061448d87828801614317565b935050604061449e8782880161426a565b925050606085013567ffffffffffffffff8111156144bf576144be6140dc565b5b6144cb8782880161442a565b91505092959194509250565b6144e0816140e0565b82525050565b5f6020820190506144f95f8301846144d7565b92915050565b5f67ffffffffffffffff82111561451957614518614333565b5b602082029050602081019050919050565b5f5ffd5b5f61454061453b846144ff565b614391565b905080838252602082019050602084028301858111156145635761456261452a565b5b835b8181101561458c57806145788882614317565b845260208401935050602081019050614565565b5050509392505050565b5f82601f8301126145aa576145a961432b565b5b81356145ba84826020860161452e565b91505092915050565b5f67ffffffffffffffff8211156145dd576145dc614333565b5b602082029050602081019050919050565b5f6146006145fb846145c3565b614391565b905080838252602082019050602084028301858111156146235761462261452a565b5b835b8181101561464c5780614638888261426a565b845260208401935050602081019050614625565b5050509392505050565b5f82601f83011261466a5761466961432b565b5b813561467a8482602086016145ee565b91505092915050565b5f67ffffffffffffffff82111561469d5761469c614333565b5b602082029050602081019050919050565b5f6146c06146bb84614683565b614391565b905080838252602082019050602084028301858111156146e3576146e261452a565b5b835b8181101561472a57803567ffffffffffffffff8111156147085761470761432b565b5b808601614715898261442a565b855260208501945050506020810190506146e5565b5050509392505050565b5f82601f8301126147485761474761432b565b5b81356147588482602086016146ae565b91505092915050565b5f819050919050565b61477381614761565b811461477d575f5ffd5b50565b5f8135905061478e8161476a565b92915050565b5f5f5f5f608085870312156147ac576147ab6140d8565b5b5f85013567ffffffffffffffff8111156147c9576147c86140dc565b5b6147d587828801614596565b945050602085013567ffffffffffffffff8111156147f6576147f56140dc565b5b61480287828801614656565b935050604085013567ffffffffffffffff811115614823576148226140dc565b5b61482f87828801614734565b925050606061484087828801614780565b91505092959194509250565b5f60208284031215614861576148606140d8565b5b5f61486e84828501614317565b91505092915050565b61488081614761565b82525050565b5f6020820190506148995f830184614877565b92915050565b7f4e487b71000000000000000000000000000000000000000000000000000000005f52602160045260245ffd5b600881106148dd576148dc61489f565b5b50565b5f8190506148ed826148cc565b919050565b5f6148fc826148e0565b9050919050565b61490c816148f2565b82525050565b5f6020820190506149255f830184614903565b92915050565b5f5f60408385031215614941576149406140d8565b5b5f61494e8582860161426a565b925050602061495f85828601614317565b9150509250929050565b5f60608201905061497c5f83018661419c565b614989602083018561419c565b614996604083018461419c565b949350505050565b5f60ff82169050919050565b6149b38161499e565b81146149bd575f5ffd5b50565b5f813590506149ce816149aa565b92915050565b5f5f604083850312156149ea576149e96140d8565b5b5f6149f78582860161426a565b9250506020614a08858286016149c0565b9150509250929050565b5f5ffd5b5f5f83601f840112614a2b57614a2a61432b565b5b8235905067ffffffffffffffff811115614a4857614a47614a12565b5b602083019150836001820283011115614a6457614a6361452a565b5b9250929050565b5f5f5f5f5f5f5f60c0888a031215614a8657614a856140d8565b5b5f614a938a828b0161426a565b9750506020614aa48a828b016149c0565b9650506040614ab58a828b01614317565b955050606088013567ffffffffffffffff811115614ad657614ad56140dc565b5b614ae28a828b01614a16565b9450945050608088013567ffffffffffffffff811115614b0557614b046140dc565b5b614b118a828b0161442a565b92505060a088013567ffffffffffffffff811115614b3257614b316140dc565b5b614b3e8a828b0161442a565b91505092959891949750929550565b5f5f5f5f5f60808688031215614b6657614b656140d8565b5b5f614b738882890161426a565b9550506020614b84888289016149c0565b945050604086013567ffffffffffffffff811115614ba557614ba46140dc565b5b614bb188828901614a16565b9350935050606086013567ffffffffffffffff811115614bd457614bd36140dc565b5b614be08882890161442a565b9150509295509295909350565b5f65ffffffffffff82169050919050565b614c0781614bed565b8114614c11575f5ffd5b50565b5f81359050614c2281614bfe565b92915050565b5f60208284031215614c3d57614c3c6140d8565b5b5f614c4a84828501614c14565b91505092915050565b5f5f5f5f60608587031215614c6b57614c6a6140d8565b5b5f614c788782880161426a565b9450506020614c89878288016149c0565b935050604085013567ffffffffffffffff811115614caa57614ca96140dc565b5b614cb687828801614a16565b925092505092959194509250565b5f67ffffffffffffffff821115614cde57614cdd614333565b5b614ce7826141ec565b9050602081019050919050565b5f614d06614d0184614cc4565b614391565b905082815260208101848484011115614d2257614d2161432f565b5b614d2d8482856143db565b509392505050565b5f82601f830112614d4957614d4861432b565b5b8135614d59848260208601614cf4565b91505092915050565b5f5f5f5f60808587031215614d7a57614d796140d8565b5b5f85013567ffffffffffffffff811115614d9757614d966140dc565b5b614da387828801614596565b945050602085013567ffffffffffffffff811115614dc457614dc36140dc565b5b614dd087828801614656565b935050604085013567ffffffffffffffff811115614df157614df06140dc565b5b614dfd87828801614734565b925050606085013567ffffffffffffffff811115614e1e57614e1d6140dc565b5b614e2a87828801614d35565b91505092959194509250565b5f7fff0000000000000000000000000000000000000000000000000000000000000082169050919050565b614e6a81614e36565b82525050565b5f81519050919050565b5f82825260208201905092915050565b5f819050602082019050919050565b614ea281614193565b82525050565b5f614eb38383614e99565b60208301905092915050565b5f602082019050919050565b5f614ed582614e70565b614edf8185614e7a565b9350614eea83614e8a565b805f5b83811015614f1a578151614f018882614ea8565b9750614f0c83614ebf565b925050600181019050614eed565b5085935050505092915050565b5f60e082019050614f3a5f83018a614e61565b8181036020830152614f4c81896141fc565b90508181036040830152614f6081886141fc565b9050614f6f606083018761419c565b614f7c60808301866142d9565b614f8960a0830185614877565b81810360c0830152614f9b8184614ecb565b905098975050505050505050565b5f5f5f5f60808587031215614fc157614fc06140d8565b5b5f614fce8782880161426a565b9450506020614fdf878288016149c0565b9350506040614ff087828801614317565b925050606085013567ffffffffffffffff811115615011576150106140dc565b5b61501d8782880161442a565b91505092959194509250565b61503281614bed565b82525050565b5f60208201905061504b5f830184615029565b92915050565b5f819050919050565b5f61507461506f61506a846142a9565b615051565b6142a9565b9050919050565b5f6150858261505a565b9050919050565b5f6150968261507b565b9050919050565b6150a68161508c565b82525050565b5f6020820190506150bf5f83018461509d565b92915050565b5f5f5f606084860312156150dc576150db6140d8565b5b5f6150e986828701614317565b93505060206150fa8682870161426a565b925050604084013567ffffffffffffffff81111561511b5761511a6140dc565b5b6151278682870161442a565b9150509250925092565b5f61513b8261507b565b9050919050565b61514b81615131565b82525050565b5f6020820190506151645f830184615142565b92915050565b5f6151748261507b565b9050919050565b6151848161516a565b82525050565b5f60208201905061519d5f83018461517b565b92915050565b5f5f5f5f5f60a086880312156151bc576151bb6140d8565b5b5f6151c988828901614317565b95505060206151da88828901614317565b945050604086013567ffffffffffffffff8111156151fb576151fa6140dc565b5b61520788828901614656565b935050606086013567ffffffffffffffff811115615228576152276140dc565b5b61523488828901614656565b925050608086013567ffffffffffffffff811115615255576152546140dc565b5b6152618882890161442a565b9150509295509295909350565b5f5f83601f8401126152835761528261432b565b5b8235905067ffffffffffffffff8111156152a05761529f614a12565b5b6020830191508360018202830111156152bc576152bb61452a565b5b9250929050565b5f5f5f5f606085870312156152db576152da6140d8565b5b5f6152e887828801614317565b94505060206152f98782880161426a565b935050604085013567ffffffffffffffff81111561531a576153196140dc565b5b6153268782880161526e565b925092505092959194509250565b5f61533e8261507b565b9050919050565b61534e81615334565b82525050565b5f6020820190506153675f830184615345565b92915050565b5f5f60408385031215615383576153826140d8565b5b5f6153908582860161426a565b925050602083013567ffffffffffffffff8111156153b1576153b06140dc565b5b6153bd85828601614d35565b9150509250929050565b5f63ffffffff82169050919050565b6153df816153c7565b81146153e9575f5ffd5b50565b5f813590506153fa816153d6565b92915050565b5f60208284031215615415576154146140d8565b5b5f615422848285016153ec565b91505092915050565b5f5f60408385031215615441576154406140d8565b5b5f61544e85828601614317565b925050602061545f8582860161426a565b9150509250929050565b5f5f5f5f5f60a08688031215615482576154816140d8565b5b5f61548f88828901614317565b95505060206154a088828901614317565b94505060406154b18882890161426a565b93505060606154c28882890161426a565b925050608086013567ffffffffffffffff8111156154e3576154e26140dc565b5b6154ef8882890161442a565b9150509295509295909350565b5f6155068261507b565b9050919050565b615516816154fc565b82525050565b5f60208201905061552f5f83018461550d565b92915050565b7f4e487b71000000000000000000000000000000000000000000000000000000005f52602260045260245ffd5b5f600282049050600182168061557957607f821691505b60208210810361558c5761558b615535565b5b50919050565b5f6155ac6155a76155a284614bed565b615051565b614193565b9050919050565b6155bc81615592565b82525050565b5f6040820190506155d55f83018561419c565b6155e260208301846155b3565b9392505050565b5f815190506155f781614254565b92915050565b5f60208284031215615612576156116140d8565b5b5f61561f848285016155e9565b91505092915050565b7f4e487b71000000000000000000000000000000000000000000000000000000005f52603260045260245ffd5b5f6040820190506156685f83018561419c565b61567560208301846142d9565b9392505050565b5f61568e61568984614cc4565b614391565b9050828152602081018484840111156156aa576156a961432f565b5b6156b58482856141de565b509392505050565b5f82601f8301126156d1576156d061432b565b5b81516156e184826020860161567c565b91505092915050565b5f602082840312156156ff576156fe6140d8565b5b5f82015167ffffffffffffffff81111561571c5761571b6140dc565b5b615728848285016156bd565b91505092915050565b5f81905092915050565b5f6157468385615731565b93506157538385846143db565b82840190509392505050565b5f61576b82848661573b565b91508190509392505050565b6157808161499e565b82525050565b5f60e0820190506157995f83018a614877565b6157a6602083018961419c565b6157b36040830188615777565b6157c060608301876142d9565b6157cd608083018661419c565b6157da60a0830185614877565b6157e760c0830184614877565b98975050505050505050565b7f4e487b71000000000000000000000000000000000000000000000000000000005f52601160045260245ffd5b5f61582a82614bed565b915061583583614bed565b9250828203905065ffffffffffff811115615853576158526157f3565b5b92915050565b5f60608201905061586c5f8301866142d9565b615879602083018561419c565b615886604083018461419c565b949350505050565b5f60a0820190506158a15f830188614877565b6158ae602083018761419c565b6158bb6040830186615777565b6158c860608301856142d9565b6158d5608083018461419c565b9695505050505050565b5f815190506158ed81614bfe565b92915050565b5f60208284031215615908576159076140d8565b5b5f615915848285016158df565b91505092915050565b5f61592882614bed565b915061593383614bed565b9250828201905065ffffffffffff811115615951576159506157f3565b5b92915050565b5f81519050919050565b5f82825260208201905092915050565b5f819050602082019050919050565b615989816142c8565b82525050565b5f61599a8383615980565b60208301905092915050565b5f602082019050919050565b5f6159bc82615957565b6159c68185615961565b93506159d183615971565b805f5b83811015615a015781516159e8888261598f565b97506159f3836159a6565b9250506001810190506159d4565b5085935050505092915050565b5f81519050919050565b5f82825260208201905092915050565b5f819050602082019050919050565b5f81519050919050565b5f82825260208201905092915050565b5f615a5b82615a37565b615a658185615a41565b9350615a758185602086016141de565b615a7e816141ec565b840191505092915050565b5f615a948383615a51565b905092915050565b5f602082019050919050565b5f615ab282615a0e565b615abc8185615a18565b935083602082028501615ace85615a28565b805f5b85811015615b095784840389528151615aea8582615a89565b9450615af583615a9c565b925060208a01995050600181019050615ad1565b50829750879550505050505092915050565b5f6080820190508181035f830152615b3381876159b2565b90508181036020830152615b478186614ecb565b90508181036040830152615b5b8185615aa8565b9050615b6a6060830184614877565b95945050505050565b615b7c81614160565b8114615b86575f5ffd5b50565b5f81519050615b9781615b73565b92915050565b5f60208284031215615bb257615bb16140d8565b5b5f615bbf84828501615b89565b91505092915050565b7f4a6f6220646f6573206e6f7420657869737400000000000000000000000000005f82015250565b5f615bfc6012836141ce565b9150615c0782615bc8565b602082019050919050565b5f6020820190508181035f830152615c2981615bf0565b9050919050565b7f496e73756666696369656e74207374616b6500000000000000000000000000005f82015250565b5f615c646012836141ce565b9150615c6f82615c30565b602082019050919050565b5f6020820190508181035f830152615c9181615c58565b9050919050565b7f4e487b71000000000000000000000000000000000000000000000000000000005f52601260045260245ffd5b5f615ccf82614193565b9150615cda83614193565b925082615cea57615ce9615c98565b5b828204905092915050565b5f606082019050615d085f83018661419c565b615d156020830185614903565b615d226040830184614877565b949350505050565b5f615d3482615a37565b615d3e8185615731565b9350615d4e8185602086016141de565b80840191505092915050565b5f615d658284615d2a565b915081905092915050565b5f615d7a82614193565b9150615d8583614193565b9250828201905080821115615d9d57615d9c6157f3565b5b92915050565b5f615dad8261499e565b9150615db88361499e565b9250828201905060ff811115615dd157615dd06157f3565b5b92915050565b5f8160011c9050919050565b5f5f8291508390505b6001851115615e2c57808604811115615e0857615e076157f3565b5b6001851615615e175780820291505b8081029050615e2585615dd7565b9450615dec565b94509492505050565b5f82615e445760019050615eff565b81615e51575f9050615eff565b8160018114615e675760028114615e7157615ea0565b6001915050615eff565b60ff841115615e8357615e826157f3565b5b8360020a915084821115615e9a57615e996157f3565b5b50615eff565b5060208310610133831016604e8410600b8410161715615ed55782820a905083811115615ed057615ecf6157f3565b5b615eff565b615ee28484846001615de3565b92509050818404811115615ef957615ef86157f3565b5b81810290505b9392505050565b5f615f1082614193565b9150615f1b8361499e565b9250615f487fffffffffffffffffffffffffffffffffffffffffffffffffffffffffffffffff8484615e35565b905092915050565b5f615f5a82614193565b9150615f6583614193565b9250828203905081811115615f7d57615f7c6157f3565b5b92915050565b5f608082019050615f965f83018761419c565b615fa36020830186615777565b615fb0604083018561419c565b8181036060830152615fc281846141fc565b905095945050505050565b5f82825260208201905092915050565b5f615fe782615a37565b615ff18185615fcd565b93506160018185602086016141de565b61600a816141ec565b840191505092915050565b5f60a0820190506160285f83018861419c565b6160356020830187615777565b616042604083018661419c565b818103606083015261605481856141fc565b905081810360808301526160688184615fdd565b90509695505050505050565b5f6040820190506160875f8301856155b3565b61609460208301846155b3565b9392505050565b5f81519050919050565b5f82825260208201905092915050565b5f819050602082019050919050565b5f82825260208201905092915050565b5f6160de826141c4565b6160e881856160c4565b93506160f88185602086016141de565b616101816141ec565b840191505092915050565b5f61611783836160d4565b905092915050565b5f602082019050919050565b5f6161358261609b565b61613f81856160a5565b935083602082028501616151856160b5565b805f5b8581101561618c578484038952815161616d858261610c565b94506161788361611f565b925060208a01995050600181019050616154565b50829750879550505050505092915050565b5f610120820190506161b25f83018c61419c565b6161bf602083018b6142d9565b81810360408301526161d1818a6159b2565b905081810360608301526161e58189614ecb565b905081810360808301526161f9818861612b565b905081810360a083015261620d8187615aa8565b905061621c60c083018661419c565b61622960e083018561419c565b81810361010083015261623c81846141fc565b90509a9950505050505050505050565b5f60408201905061625f5f8301856142d9565b61626c602083018461419c565b9392505050565b5f819050919050565b5f61629661629161628c84616273565b615051565b614193565b9050919050565b6162a68161627c565b82525050565b5f6020820190506162bf5f83018461629d565b92915050565b5f6162df6162da6162d5846153c7565b615051565b614193565b9050919050565b6162ef816162c5565b82525050565b5f6040820190506163085f8301856162e6565b61631560208301846162e6565b9392505050565b5f60408201905061632f5f83018561419c565b61633c602083018461419c565b9392505050565b5f6040820190506163565f830185614877565b81810360208301526163688184615fdd565b90509392505050565b5f8151905061637f8161476a565b92915050565b5f6020828403121561639a576163996140d8565b5b5f6163a784828501616371565b91505092915050565b5f6163ba82614193565b91506163c583614193565b92508282026163d381614193565b915082820484148315176163ea576163e96157f3565b5b5092915050565b5f819050919050565b5f61641461640f61640a846163f1565b615051565b61499e565b9050919050565b616424816163fa565b82525050565b5f60408201905061643d5f83018561641b565b61644a602083018461419c565b9392505050565b5f819050919050565b5f61647461646f61646a84616451565b615051565b61499e565b9050919050565b6164848161645a565b82525050565b5f60408201905061649d5f83018561647b565b6164aa602083018461419c565b9392505050565b5f60a0820190506164c45f830188614877565b6164d16020830187614877565b6164de6040830186614877565b6164eb606083018561419c565b6164f860808301846142d9565b9695505050505050565b5f6080820190506165155f830187614877565b6165226020830186615777565b61652f6040830185614877565b61653c6060830184614877565b9594505050505056fea26469706673582212209edb213981dfc749130c018894261c98ba960190377cd54c84c7d40887c8b87c64736f6c634300081c0033",
			"opcodes": "PUSH2 0x200 PUSH1 0x40 MSTORE CALLVALUE DUP1 ISZERO PUSH2 0x10 JUMPI PUSH0 PUSH0 REVERT JUMPDEST POP PUSH1 0x40 MLOAD PUSH2 0x72E2 CODESIZE SUB DUP1 PUSH2 0x72E2 DUP4 CODECOPY DUP2 DUP2 ADD PUSH1 0x40 MSTORE DUP2 ADD SWAP1 PUSH2 0x32 SWAP2 SWAP1 PUSH2 0x66A JUMP JUMPDEST DUP4 PUSH3 0x15180 PUSH3 0x93A80 PUSH9 0x3635C9ADC5DEA00000 PUSH1 0x40 MLOAD DUP1 PUSH1 0x40 ADD PUSH1 0x40 MSTORE DUP1 PUSH1 0xD DUP2 MSTORE PUSH1 0x20 ADD PUSH32 0x4372656453706865726544414F00000000000000000000000000000000000000 DUP2 MSTORE POP DUP1 PUSH2 0x8A PUSH2 0x287 PUSH1 0x20 SHL PUSH1 0x20 SHR JUMP JUMPDEST PUSH2 0x9D PUSH0 DUP4 PUSH2 0x2C4 PUSH1 0x20 SHL SWAP1 SWAP2 SWAP1 PUSH1 0x20 SHR JUMP JUMPDEST PUSH2 0x120 DUP2 DUP2 MSTORE POP POP PUSH2 0xB9 PUSH1 0x1 DUP3 PUSH2 0x2C4 PUSH1 0x20 SHL SWAP1 SWAP2 SWAP1 PUSH1 0x20 SHR JUMP JUMPDEST PUSH2 0x140 DUP2 DUP2 MSTORE POP POP DUP2 DUP1 MLOAD SWAP1 PUSH1 0x20 ADD KECCAK256 PUSH1 0xE0 DUP2 DUP2 MSTORE POP POP DUP1 DUP1 MLOAD SWAP1 PUSH1 0x20 ADD KECCAK256 PUSH2 0x100 DUP2 DUP2 MSTORE POP POP CHAINID PUSH1 0xA0 DUP2 DUP2 MSTORE POP POP PUSH2 0xF6 PUSH2 0x311 PUSH1 0x20 SHL PUSH1 0x20 SHR JUMP JUMPDEST PUSH1 0x80 DUP2 DUP2 MSTORE POP POP ADDRESS PUSH20 0xFFFFFFFFFFFFFFFFFFFFFFFFFFFFFFFFFFFFFFFF AND PUSH1 0xC0 DUP2 PUSH20 0xFFFFFFFFFFFFFFFFFFFFFFFFFFFFFFFFFFFFFFFF AND DUP2 MSTORE POP POP POP POP DUP1 PUSH1 0x3 SWAP1 DUP2 PUSH2 0x142 SWAP2 SWAP1 PUSH2 0x90B JUMP JUMPDEST POP POP PUSH2 0x153 DUP4 PUSH2 0x36B PUSH1 0x20 SHL PUSH1 0x20 SHR JUMP JUMPDEST PUSH2 0x162 DUP3 PUSH2 0x3DE PUSH1 0x20 SHL PUSH1 0x20 SHR JUMP JUMPDEST PUSH2 0x171 DUP2 PUSH2 0x497 PUSH1 0x20 SHL PUSH1 0x20 SHR JUMP JUMPDEST POP POP POP DUP1 PUSH20 0xFFFFFFFFFFFFFFFFFFFFFFFFFFFFFFFFFFFFFFFF AND PUSH2 0x160 DUP2 PUSH20 0xFFFFFFFFFFFFFFFFFFFFFFFFFFFFFFFFFFFFFFFF AND DUP2 MSTORE POP POP POP DUP4 PUSH20 0xFFFFFFFFFFFFFFFFFFFFFFFFFFFFFFFFFFFFFFFF AND PUSH2 0x1C0 DUP2 PUSH20 0xFFFFFFFFFFFFFFFFFFFFFFFFFFFFFFFFFFFFFFFF AND DUP2 MSTORE POP POP DUP3 PUSH20 0xFFFFFFFFFFFFFFFFFFFFFFFFFFFFFFFFFFFFFFFF AND PUSH2 0x180 DUP2 PUSH20 0xFFFFFFFFFFFFFFFFFFFFFFFFFFFFFFFFFFFFFFFF AND DUP2 MSTORE POP POP DUP2 PUSH20 0xFFFFFFFFFFFFFFFFFFFFFFFFFFFFFFFFFFFFFFFF AND PUSH2 0x1A0 DUP2 PUSH20 0xFFFFFFFFFFFFFFFFFFFFFFFFFFFFFFFFFFFFFFFF AND DUP2 MSTORE POP POP DUP1 PUSH20 0xFFFFFFFFFFFFFFFFFFFFFFFFFFFFFFFFFFFFFFFF AND PUSH2 0x1E0 DUP2 PUSH20 0xFFFFFFFFFFFFFFFFFFFFFFFFFFFFFFFFFFFFFFFF AND DUP2 MSTORE POP POP POP POP POP POP PUSH2 0xCC1 JUMP JUMPDEST PUSH1 0x60 PUSH1 0x40 MLOAD DUP1 PUSH1 0x40 ADD PUSH1 0x40 MSTORE DUP1 PUSH1 0x1 DUP2 MSTORE PUSH1 0x20 ADD PUSH32 0x3100000000000000000000000000000000000000000000000000000000000000 DUP2 MSTORE POP SWAP1 POP SWAP1 JUMP JUMPDEST PUSH0 PUSH1 0x20 DUP4 MLOAD LT ISZERO PUSH2 0x2E5 JUMPI PUSH2 0x2DE DUP4 PUSH2 0x4DC PUSH1 0x20 SHL PUSH1 0x20 SHR JUMP JUMPDEST SWAP1 POP PUSH2 0x30B JUMP JUMPDEST DUP3 PUSH2 0x2F5 DUP4 PUSH2 0x541 PUSH1 0x20 SHL PUSH1 0x20 SHR JUMP JUMPDEST PUSH0 ADD SWAP1 DUP2 PUSH2 0x303 SWAP2 SWAP1 PUSH2 0x90B JUMP JUMPDEST POP PUSH1 0xFF PUSH0 SHL SWAP1 POP JUMPDEST SWAP3 SWAP2 POP POP JUMP JUMPDEST PUSH0 PUSH32 0x8B73C3C69BB8FE3D512ECC4CF759CC79239F7B179B0FFACAA9A75D522B39400F PUSH1 0xE0 MLOAD PUSH2 0x100 MLOAD CHAINID ADDRESS PUSH1 0x40 MLOAD PUSH1 0x20 ADD PUSH2 0x350 SWAP6 SWAP5 SWAP4 SWAP3 SWAP2 SWAP1 PUSH2 0xA10 JUMP JUMPDEST PUSH1 0x40 MLOAD PUSH1 0x20 DUP2 DUP4 SUB SUB DUP2 MSTORE SWAP1 PUSH1 0x40 MSTORE DUP1 MLOAD SWAP1 PUSH1 0x20 ADD KECCAK256 SWAP1 POP SWAP1 JUMP JUMPDEST PUSH32 0xC565B045403DC03C2EEA82B81A0465EDAD9E2E7FC4D97E11421C209DA93D7A93 PUSH1 0x8 PUSH0 SWAP1 SLOAD SWAP1 PUSH2 0x100 EXP SWAP1 DIV PUSH6 0xFFFFFFFFFFFF AND DUP3 PUSH1 0x40 MLOAD PUSH2 0x3AF SWAP3 SWAP2 SWAP1 PUSH2 0xAA2 JUMP JUMPDEST PUSH1 0x40 MLOAD DUP1 SWAP2 SUB SWAP1 LOG1 DUP1 PUSH1 0x8 PUSH0 PUSH2 0x100 EXP DUP2 SLOAD DUP2 PUSH6 0xFFFFFFFFFFFF MUL NOT AND SWAP1 DUP4 PUSH6 0xFFFFFFFFFFFF AND MUL OR SWAP1 SSTORE POP POP JUMP JUMPDEST PUSH0 DUP2 PUSH4 0xFFFFFFFF AND SUB PUSH2 0x428 JUMPI PUSH0 PUSH1 0x40 MLOAD PUSH32 0xF1CFBF0500000000000000000000000000000000000000000000000000000000 DUP2 MSTORE PUSH1 0x4 ADD PUSH2 0x41F SWAP2 SWAP1 PUSH2 0xB02 JUMP JUMPDEST PUSH1 0x40 MLOAD DUP1 SWAP2 SUB SWAP1 REVERT JUMPDEST PUSH32 0x7E3F7F0708A84DE9203036ABAA450DCCC85AD5FF52F78C170F3EDB55CF5E8828 PUSH1 0x8 PUSH1 0x6 SWAP1 SLOAD SWAP1 PUSH2 0x100 EXP SWAP1 DIV PUSH4 0xFFFFFFFF AND DUP3 PUSH1 0x40 MLOAD PUSH2 0x46B SWAP3 SWAP2 SWAP1 PUSH2 0xB5A JUMP JUMPDEST PUSH1 0x40 MLOAD DUP1 SWAP2 SUB SWAP1 LOG1 DUP1 PUSH1 0x8 PUSH1 0x6 PUSH2 0x100 EXP DUP2 SLOAD DUP2 PUSH4 0xFFFFFFFF MUL NOT AND SWAP1 DUP4 PUSH4 0xFFFFFFFF AND MUL OR SWAP1 SSTORE POP POP JUMP JUMPDEST PUSH32 0xCCB45DA8D5717E6C4544694297C4BA5CF151D455C9BB0ED4FC7A38411BC05461 PUSH1 0x7 SLOAD DUP3 PUSH1 0x40 MLOAD PUSH2 0x4CA SWAP3 SWAP2 SWAP1 PUSH2 0xB81 JUMP JUMPDEST PUSH1 0x40 MLOAD DUP1 SWAP2 SUB SWAP1 LOG1 DUP1 PUSH1 0x7 DUP2 SWAP1 SSTORE POP POP JUMP JUMPDEST PUSH0 PUSH0 DUP3 SWAP1 POP PUSH1 0x1F DUP2 MLOAD GT ISZERO PUSH2 0x528 JUMPI DUP3 PUSH1 0x40 MLOAD PUSH32 0x305A27A900000000000000000000000000000000000000000000000000000000 DUP2 MSTORE PUSH1 0x4 ADD PUSH2 0x51F SWAP2 SWAP1 PUSH2 0xC0E JUMP JUMPDEST PUSH1 0x40 MLOAD DUP1 SWAP2 SUB SWAP1 REVERT JUMPDEST DUP1 MLOAD DUP2 PUSH2 0x534 SWAP1 PUSH2 0xC5B JUMP JUMPDEST PUSH0 SHR OR PUSH0 SHL SWAP2 POP POP SWAP2 SWAP1 POP JUMP JUMPDEST PUSH0 DUP2 SWAP1 POP SWAP2 SWAP1 POP JUMP JUMPDEST PUSH0 PUSH0 REVERT JUMPDEST PUSH0 PUSH20 0xFFFFFFFFFFFFFFFFFFFFFFFFFFFFFFFFFFFFFFFF DUP3 AND SWAP1 POP SWAP2 SWAP1 POP JUMP JUMPDEST PUSH0 PUSH2 0x577 DUP3 PUSH2 0x54E JUMP JUMPDEST SWAP1 POP SWAP2 SWAP1 POP JUMP JUMPDEST PUSH0 PUSH2 0x588 DUP3 PUSH2 0x56D JUMP JUMPDEST SWAP1 POP SWAP2 SWAP1 POP JUMP JUMPDEST PUSH2 0x598 DUP2 PUSH2 0x57E JUMP JUMPDEST DUP2 EQ PUSH2 0x5A2 JUMPI PUSH0 PUSH0 REVERT JUMPDEST POP JUMP JUMPDEST PUSH0 DUP2 MLOAD SWAP1 POP PUSH2 0x5B3 DUP2 PUSH2 0x58F JUMP JUMPDEST SWAP3 SWAP2 POP POP JUMP JUMPDEST PUSH0 PUSH2 0x5C3 DUP3 PUSH2 0x56D JUMP JUMPDEST SWAP1 POP SWAP2 SWAP1 POP JUMP JUMPDEST PUSH2 0x5D3 DUP2 PUSH2 0x5B9 JUMP JUMPDEST DUP2 EQ PUSH2 0x5DD JUMPI PUSH0 PUSH0 REVERT JUMPDEST POP JUMP JUMPDEST PUSH0 DUP2 MLOAD SWAP1 POP PUSH2 0x5EE DUP2 PUSH2 0x5CA JUMP JUMPDEST SWAP3 SWAP2 POP POP JUMP JUMPDEST PUSH0 PUSH2 0x5FE DUP3 PUSH2 0x56D JUMP JUMPDEST SWAP1 POP SWAP2 SWAP1 POP JUMP JUMPDEST PUSH2 0x60E DUP2 PUSH2 0x5F4 JUMP JUMPDEST DUP2 EQ PUSH2 0x618 JUMPI PUSH0 PUSH0 REVERT JUMPDEST POP JUMP JUMPDEST PUSH0 DUP2 MLOAD SWAP1 POP PUSH2 0x629 DUP2 PUSH2 0x605 JUMP JUMPDEST SWAP3 SWAP2 POP POP JUMP JUMPDEST PUSH0 PUSH2 0x639 DUP3 PUSH2 0x56D JUMP JUMPDEST SWAP1 POP SWAP2 SWAP1 POP JUMP JUMPDEST PUSH2 0x649 DUP2 PUSH2 0x62F JUMP JUMPDEST DUP2 EQ PUSH2 0x653 JUMPI PUSH0 PUSH0 REVERT JUMPDEST POP JUMP JUMPDEST PUSH0 DUP2 MLOAD SWAP1 POP PUSH2 0x664 DUP2 PUSH2 0x640 JUMP JUMPDEST SWAP3 SWAP2 POP POP JUMP JUMPDEST PUSH0 PUSH0 PUSH0 PUSH0 PUSH1 0x80 DUP6 DUP8 SUB SLT ISZERO PUSH2 0x682 JUMPI PUSH2 0x681 PUSH2 0x54A JUMP JUMPDEST JUMPDEST PUSH0 PUSH2 0x68F DUP8 DUP3 DUP9 ADD PUSH2 0x5A5 JUMP JUMPDEST SWAP5 POP POP PUSH1 0x20 PUSH2 0x6A0 DUP8 DUP3 DUP9 ADD PUSH2 0x5E0 JUMP JUMPDEST SWAP4 POP POP PUSH1 0x40 PUSH2 0x6B1 DUP8 DUP3 DUP9 ADD PUSH2 0x61B JUMP JUMPDEST SWAP3 POP POP PUSH1 0x60 PUSH2 0x6C2 DUP8 DUP3 DUP9 ADD PUSH2 0x656 JUMP JUMPDEST SWAP2 POP POP SWAP3 SWAP6 SWAP2 SWAP5 POP SWAP3 POP JUMP JUMPDEST PUSH0 DUP2 MLOAD SWAP1 POP SWAP2 SWAP1 POP JUMP JUMPDEST PUSH32 0x4E487B7100000000000000000000000000000000000000000000000000000000 PUSH0 MSTORE PUSH1 0x41 PUSH1 0x4 MSTORE PUSH1 0x24 PUSH0 REVERT JUMPDEST PUSH32 0x4E487B7100000000000000000000000000000000000000000000000000000000 PUSH0 MSTORE PUSH1 0x22 PUSH1 0x4 MSTORE PUSH1 0x24 PUSH0 REVERT JUMPDEST PUSH0 PUSH1 0x2 DUP3 DIV SWAP1 POP PUSH1 0x1 DUP3 AND DUP1 PUSH2 0x749 JUMPI PUSH1 0x7F DUP3 AND SWAP2 POP JUMPDEST PUSH1 0x20 DUP3 LT DUP2 SUB PUSH2 0x75C JUMPI PUSH2 0x75B PUSH2 0x705 JUMP JUMPDEST JUMPDEST POP SWAP2 SWAP1 POP JUMP JUMPDEST PUSH0 DUP2 SWAP1 POP DUP2 PUSH0 MSTORE PUSH1 0x20 PUSH0 KECCAK256 SWAP1 POP SWAP2 SWAP1 POP JUMP JUMPDEST PUSH0 PUSH1 0x20 PUSH1 0x1F DUP4 ADD DIV SWAP1 POP SWAP2 SWAP1 POP JUMP JUMPDEST PUSH0 DUP3 DUP3 SHL SWAP1 POP SWAP3 SWAP2 POP POP JUMP JUMPDEST PUSH0 PUSH1 0x8 DUP4 MUL PUSH2 0x7BE PUSH32 0xFFFFFFFFFFFFFFFFFFFFFFFFFFFFFFFFFFFFFFFFFFFFFFFFFFFFFFFFFFFFFFFF DUP3 PUSH2 0x783 JUMP JUMPDEST PUSH2 0x7C8 DUP7 DUP4 PUSH2 0x783 JUMP JUMPDEST SWAP6 POP DUP1 NOT DUP5 AND SWAP4 POP DUP1 DUP7 AND DUP5 OR SWAP3 POP POP POP SWAP4 SWAP3 POP POP POP JUMP JUMPDEST PUSH0 DUP2 SWAP1 POP SWAP2 SWAP1 POP JUMP JUMPDEST PUSH0 DUP2 SWAP1 POP SWAP2 SWAP1 POP JUMP JUMPDEST PUSH0 PUSH2 0x80C PUSH2 0x807 PUSH2 0x802 DUP5 PUSH2 0x7E0 JUMP JUMPDEST PUSH2 0x7E9 JUMP JUMPDEST PUSH2 0x7E0 JUMP JUMPDEST SWAP1 POP SWAP2 SWAP1 POP JUMP JUMPDEST PUSH0 DUP2 SWAP1 POP SWAP2 SWAP1 POP JUMP JUMPDEST PUSH2 0x825 DUP4 PUSH2 0x7F2 JUMP JUMPDEST PUSH2 0x839 PUSH2 0x831 DUP3 PUSH2 0x813 JUMP JUMPDEST DUP5 DUP5 SLOAD PUSH2 0x78F JUMP JUMPDEST DUP3 SSTORE POP POP POP POP JUMP JUMPDEST PUSH0 PUSH0 SWAP1 POP SWAP1 JUMP JUMPDEST PUSH2 0x850 PUSH2 0x841 JUMP JUMPDEST PUSH2 0x85B DUP2 DUP5 DUP5 PUSH2 0x81C JUMP JUMPDEST POP POP POP JUMP JUMPDEST JUMPDEST DUP2 DUP2 LT ISZERO PUSH2 0x87E JUMPI PUSH2 0x873 PUSH0 DUP3 PUSH2 0x848 JUMP JUMPDEST PUSH1 0x1 DUP2 ADD SWAP1 POP PUSH2 0x861 JUMP JUMPDEST POP POP JUMP JUMPDEST PUSH1 0x1F DUP3 GT ISZERO PUSH2 0x8C3 JUMPI PUSH2 0x894 DUP2 PUSH2 0x762 JUMP JUMPDEST PUSH2 0x89D DUP5 PUSH2 0x774 JUMP JUMPDEST DUP2 ADD PUSH1 0x20 DUP6 LT ISZERO PUSH2 0x8AC JUMPI DUP2 SWAP1 POP JUMPDEST PUSH2 0x8C0 PUSH2 0x8B8 DUP6 PUSH2 0x774 JUMP JUMPDEST DUP4 ADD DUP3 PUSH2 0x860 JUMP JUMPDEST POP POP JUMPDEST POP POP POP JUMP JUMPDEST PUSH0 DUP3 DUP3 SHR SWAP1 POP SWAP3 SWAP2 POP POP JUMP JUMPDEST PUSH0 PUSH2 0x8E3 PUSH0 NOT DUP5 PUSH1 0x8 MUL PUSH2 0x8C8 JUMP JUMPDEST NOT DUP1 DUP4 AND SWAP2 POP POP SWAP3 SWAP2 POP POP JUMP JUMPDEST PUSH0 PUSH2 0x8FB DUP4 DUP4 PUSH2 0x8D4 JUMP JUMPDEST SWAP2 POP DUP3 PUSH1 0x2 MUL DUP3 OR SWAP1 POP SWAP3 SWAP2 POP POP JUMP JUMPDEST PUSH2 0x914 DUP3 PUSH2 0x6CE JUMP JUMPDEST PUSH8 0xFFFFFFFFFFFFFFFF DUP2 GT ISZERO PUSH2 0x92D JUMPI PUSH2 0x92C PUSH2 0x6D8 JUMP JUMPDEST JUMPDEST PUSH2 0x937 DUP3 SLOAD PUSH2 0x732 JUMP JUMPDEST PUSH2 0x942 DUP3 DUP3 DUP6 PUSH2 0x882 JUMP JUMPDEST PUSH0 PUSH1 0x20 SWAP1 POP PUSH1 0x1F DUP4 GT PUSH1 0x1 DUP2 EQ PUSH2 0x973 JUMPI PUSH0 DUP5 ISZERO PUSH2 0x961 JUMPI DUP3 DUP8 ADD MLOAD SWAP1 POP JUMPDEST PUSH2 0x96B DUP6 DUP3 PUSH2 0x8F0 JUMP JUMPDEST DUP7 SSTORE POP PUSH2 0x9D2 JUMP JUMPDEST PUSH1 0x1F NOT DUP5 AND PUSH2 0x981 DUP7 PUSH2 0x762 JUMP JUMPDEST PUSH0 JUMPDEST DUP3 DUP2 LT ISZERO PUSH2 0x9A8 JUMPI DUP5 DUP10 ADD MLOAD DUP3 SSTORE PUSH1 0x1 DUP3 ADD SWAP2 POP PUSH1 0x20 DUP6 ADD SWAP5 POP PUSH1 0x20 DUP2 ADD SWAP1 POP PUSH2 0x983 JUMP JUMPDEST DUP7 DUP4 LT ISZERO PUSH2 0x9C5 JUMPI DUP5 DUP10 ADD MLOAD PUSH2 0x9C1 PUSH1 0x1F DUP10 AND DUP3 PUSH2 0x8D4 JUMP JUMPDEST DUP4 SSTORE POP JUMPDEST PUSH1 0x1 PUSH1 0x2 DUP9 MUL ADD DUP9 SSTORE POP POP POP JUMPDEST POP POP POP POP POP POP JUMP JUMPDEST PUSH0 DUP2 SWAP1 POP SWAP2 SWAP1 POP JUMP JUMPDEST PUSH2 0x9EC DUP2 PUSH2 0x9DA JUMP JUMPDEST DUP3 MSTORE POP POP JUMP JUMPDEST PUSH2 0x9FB DUP2 PUSH2 0x7E0 JUMP JUMPDEST DUP3 MSTORE POP POP JUMP JUMPDEST PUSH2 0xA0A DUP2 PUSH2 0x56D JUMP JUMPDEST DUP3 MSTORE POP POP JUMP JUMPDEST PUSH0 PUSH1 0xA0 DUP3 ADD SWAP1 POP PUSH2 0xA23 PUSH0 DUP4 ADD DUP9 PUSH2 0x9E3 JUMP JUMPDEST PUSH2 0xA30 PUSH1 0x20 DUP4 ADD DUP8 PUSH2 0x9E3 JUMP JUMPDEST PUSH2 0xA3D PUSH1 0x40 DUP4 ADD DUP7 PUSH2 0x9E3 JUMP JUMPDEST PUSH2 0xA4A PUSH1 0x60 DUP4 ADD DUP6 PUSH2 0x9F2 JUMP JUMPDEST PUSH2 0xA57 PUSH1 0x80 DUP4 ADD DUP5 PUSH2 0xA01 JUMP JUMPDEST SWAP7 SWAP6 POP POP POP POP POP POP JUMP JUMPDEST PUSH0 PUSH6 0xFFFFFFFFFFFF DUP3 AND SWAP1 POP SWAP2 SWAP1 POP JUMP JUMPDEST PUSH0 PUSH2 0xA8C PUSH2 0xA87 PUSH2 0xA82 DUP5 PUSH2 0xA61 JUMP JUMPDEST PUSH2 0x7E9 JUMP JUMPDEST PUSH2 0x7E0 JUMP JUMPDEST SWAP1 POP SWAP2 SWAP1 POP JUMP JUMPDEST PUSH2 0xA9C DUP2 PUSH2 0xA72 JUMP JUMPDEST DUP3 MSTORE POP POP JUMP JUMPDEST PUSH0 PUSH1 0x40 DUP3 ADD SWAP1 POP PUSH2 0xAB5 PUSH0 DUP4 ADD DUP6 PUSH2 0xA93 JUMP JUMPDEST PUSH2 0xAC2 PUSH1 0x20 DUP4 ADD DUP5 PUSH2 0xA93 JUMP JUMPDEST SWAP4 SWAP3 POP POP POP JUMP JUMPDEST PUSH0 DUP2 SWAP1 POP SWAP2 SWAP1 POP JUMP JUMPDEST PUSH0 PUSH2 0xAEC PUSH2 0xAE7 PUSH2 0xAE2 DUP5 PUSH2 0xAC9 JUMP JUMPDEST PUSH2 0x7E9 JUMP JUMPDEST PUSH2 0x7E0 JUMP JUMPDEST SWAP1 POP SWAP2 SWAP1 POP JUMP JUMPDEST PUSH2 0xAFC DUP2 PUSH2 0xAD2 JUMP JUMPDEST DUP3 MSTORE POP POP JUMP JUMPDEST PUSH0 PUSH1 0x20 DUP3 ADD SWAP1 POP PUSH2 0xB15 PUSH0 DUP4 ADD DUP5 PUSH2 0xAF3 JUMP JUMPDEST SWAP3 SWAP2 POP POP JUMP JUMPDEST PUSH0 PUSH4 0xFFFFFFFF DUP3 AND SWAP1 POP SWAP2 SWAP1 POP JUMP JUMPDEST PUSH0 PUSH2 0xB44 PUSH2 0xB3F PUSH2 0xB3A DUP5 PUSH2 0xB1B JUMP JUMPDEST PUSH2 0x7E9 JUMP JUMPDEST PUSH2 0x7E0 JUMP JUMPDEST SWAP1 POP SWAP2 SWAP1 POP JUMP JUMPDEST PUSH2 0xB54 DUP2 PUSH2 0xB2A JUMP JUMPDEST DUP3 MSTORE POP POP JUMP JUMPDEST PUSH0 PUSH1 0x40 DUP3 ADD SWAP1 POP PUSH2 0xB6D PUSH0 DUP4 ADD DUP6 PUSH2 0xB4B JUMP JUMPDEST PUSH2 0xB7A PUSH1 0x20 DUP4 ADD DUP5 PUSH2 0xB4B JUMP JUMPDEST SWAP4 SWAP3 POP POP POP JUMP JUMPDEST PUSH0 PUSH1 0x40 DUP3 ADD SWAP1 POP PUSH2 0xB94 PUSH0 DUP4 ADD DUP6 PUSH2 0x9F2 JUMP JUMPDEST PUSH2 0xBA1 PUSH1 0x20 DUP4 ADD DUP5 PUSH2 0x9F2 JUMP JUMPDEST SWAP4 SWAP3 POP POP POP JUMP JUMPDEST PUSH0 DUP3 DUP3 MSTORE PUSH1 0x20 DUP3 ADD SWAP1 POP SWAP3 SWAP2 POP POP JUMP JUMPDEST DUP3 DUP2 DUP4 MCOPY PUSH0 DUP4 DUP4 ADD MSTORE POP POP POP JUMP JUMPDEST PUSH0 PUSH1 0x1F NOT PUSH1 0x1F DUP4 ADD AND SWAP1 POP SWAP2 SWAP1 POP JUMP JUMPDEST PUSH0 PUSH2 0xBE0 DUP3 PUSH2 0x6CE JUMP JUMPDEST PUSH2 0xBEA DUP2 DUP6 PUSH2 0xBA8 JUMP JUMPDEST SWAP4 POP PUSH2 0xBFA DUP2 DUP6 PUSH1 0x20 DUP7 ADD PUSH2 0xBB8 JUMP JUMPDEST PUSH2 0xC03 DUP2 PUSH2 0xBC6 JUMP JUMPDEST DUP5 ADD SWAP2 POP POP SWAP3 SWAP2 POP POP JUMP JUMPDEST PUSH0 PUSH1 0x20 DUP3 ADD SWAP1 POP DUP2 DUP2 SUB PUSH0 DUP4 ADD MSTORE PUSH2 0xC26 DUP2 DUP5 PUSH2 0xBD6 JUMP JUMPDEST SWAP1 POP SWAP3 SWAP2 POP POP JUMP JUMPDEST PUSH0 DUP2 MLOAD SWAP1 POP SWAP2 SWAP1 POP JUMP JUMPDEST PUSH0 DUP2 SWAP1 POP PUSH1 0x20 DUP3 ADD SWAP1 POP SWAP2 SWAP1 POP JUMP JUMPDEST PUSH0 PUSH2 0xC52 DUP3 MLOAD PUSH2 0x9DA JUMP JUMPDEST DUP1 SWAP2 POP POP SWAP2 SWAP1 POP JUMP JUMPDEST PUSH0 PUSH2 0xC65 DUP3 PUSH2 0xC2E JUMP JUMPDEST DUP3 PUSH2 0xC6F DUP5 PUSH2 0xC38 JUMP JUMPDEST SWAP1 POP PUSH2 0xC7A DUP2 PUSH2 0xC47 JUMP JUMPDEST SWAP3 POP PUSH1 0x20 DUP3 LT ISZERO PUSH2 0xCBA JUMPI PUSH2 0xCB5 PUSH32 0xFFFFFFFFFFFFFFFFFFFFFFFFFFFFFFFFFFFFFFFFFFFFFFFFFFFFFFFFFFFFFFFF DUP4 PUSH1 0x20 SUB PUSH1 0x8 MUL PUSH2 0x783 JUMP JUMPDEST DUP4 AND SWAP3 POP JUMPDEST POP POP SWAP2 SWAP1 POP JUMP JUMPDEST PUSH1 0x80 MLOAD PUSH1 0xA0 MLOAD PUSH1 0xC0 MLOAD PUSH1 0xE0 MLOAD PUSH2 0x100 MLOAD PUSH2 0x120 MLOAD PUSH2 0x140 MLOAD PUSH2 0x160 MLOAD PUSH2 0x180 MLOAD PUSH2 0x1A0 MLOAD PUSH2 0x1C0 MLOAD PUSH2 0x1E0 MLOAD PUSH2 0x657B PUSH2 0xD67 PUSH0 CODECOPY PUSH0 DUP2 DUP2 PUSH2 0x10DF ADD MSTORE PUSH2 0x1F18 ADD MSTORE PUSH0 DUP2 DUP2 PUSH2 0x1D73 ADD MSTORE DUP2 DUP2 PUSH2 0x2058 ADD MSTORE PUSH2 0x2492 ADD MSTORE PUSH0 PUSH2 0x1CC0 ADD MSTORE PUSH0 DUP2 DUP2 PUSH2 0x1CF9 ADD MSTORE DUP2 DUP2 PUSH2 0x1F77 ADD MSTORE PUSH2 0x221D ADD MSTORE PUSH0 PUSH2 0x2531 ADD MSTORE PUSH0 PUSH2 0x323E ADD MSTORE PUSH0 PUSH2 0x3203 ADD MSTORE PUSH0 PUSH2 0x3CFF ADD MSTORE PUSH0 PUSH2 0x3CDE ADD MSTORE PUSH0 PUSH2 0x345F ADD MSTORE PUSH0 PUSH2 0x34B5 ADD MSTORE PUSH0 PUSH2 0x34DE ADD MSTORE PUSH2 0x657B PUSH0 RETURN INVALID PUSH1 0x80 PUSH1 0x40 MSTORE PUSH1 0x4 CALLDATASIZE LT PUSH2 0x2B1 JUMPI PUSH0 CALLDATALOAD PUSH1 0xE0 SHR DUP1 PUSH4 0x84B0196E GT PUSH2 0x174 JUMPI DUP1 PUSH4 0xC01F9E37 GT PUSH2 0xDB JUMPI DUP1 PUSH4 0xDEAAA7CC GT PUSH2 0x94 JUMPI DUP1 PUSH4 0xECE40CC1 GT PUSH2 0x6E JUMPI DUP1 PUSH4 0xECE40CC1 EQ PUSH2 0xC5A JUMPI DUP1 PUSH4 0xF23A6E61 EQ PUSH2 0xC82 JUMPI DUP1 PUSH4 0xF8CE560A EQ PUSH2 0xCBE JUMPI DUP1 PUSH4 0xFC0C546A EQ PUSH2 0xCFA JUMPI PUSH2 0x324 JUMP JUMPDEST DUP1 PUSH4 0xDEAAA7CC EQ PUSH2 0xBCC JUMPI DUP1 PUSH4 0xE540D01D EQ PUSH2 0xBF6 JUMPI DUP1 PUSH4 0xEB9019D4 EQ PUSH2 0xC1E JUMPI PUSH2 0x324 JUMP JUMPDEST DUP1 PUSH4 0xC01F9E37 EQ PUSH2 0xAA8 JUMPI DUP1 PUSH4 0xC28BC2FA EQ PUSH2 0xAE4 JUMPI DUP1 PUSH4 0xC52164C6 EQ PUSH2 0xB00 JUMPI DUP1 PUSH4 0xC59057E4 EQ PUSH2 0xB2A JUMPI DUP1 PUSH4 0xCB0C10C7 EQ PUSH2 0xB66 JUMPI DUP1 PUSH4 0xDD4E2BA5 EQ PUSH2 0xBA2 JUMPI PUSH2 0x324 JUMP JUMPDEST DUP1 PUSH4 0xA8F8A668 GT PUSH2 0x12D JUMPI DUP1 PUSH4 0xA8F8A668 EQ PUSH2 0x964 JUMPI DUP1 PUSH4 0xA9A95294 EQ PUSH2 0x9A0 JUMPI DUP1 PUSH4 0xAB58FB8E EQ PUSH2 0x9DC JUMPI DUP1 PUSH4 0xAF983753 EQ PUSH2 0xA18 JUMPI DUP1 PUSH4 0xB58131B0 EQ PUSH2 0xA42 JUMPI DUP1 PUSH4 0xBC197C81 EQ PUSH2 0xA6C JUMPI PUSH2 0x324 JUMP JUMPDEST DUP1 PUSH4 0x84B0196E EQ PUSH2 0x83E JUMPI DUP1 PUSH4 0x8FF262E3 EQ PUSH2 0x86E JUMPI DUP1 PUSH4 0x91DDADF4 EQ PUSH2 0x8AA JUMPI DUP1 PUSH4 0x934FCD1B EQ PUSH2 0x8D4 JUMPI DUP1 PUSH4 0x9A802A6D EQ PUSH2 0x8FE JUMPI DUP1 PUSH4 0xA4866584 EQ PUSH2 0x93A JUMPI PUSH2 0x324 JUMP JUMPDEST DUP1 PUSH4 0x43859632 GT PUSH2 0x218 JUMPI DUP1 PUSH4 0x5B8D0E0D GT PUSH2 0x1D1 JUMPI DUP1 PUSH4 0x5B8D0E0D EQ PUSH2 0x6EA JUMPI DUP1 PUSH4 0x5F398A14 EQ PUSH2 0x726 JUMPI DUP1 PUSH4 0x79051887 EQ PUSH2 0x762 JUMPI DUP1 PUSH4 0x7B3C71D3 EQ PUSH2 0x78A JUMPI DUP1 PUSH4 0x7D5E81E2 EQ PUSH2 0x7C6 JUMPI DUP1 PUSH4 0x7ECEBE00 EQ PUSH2 0x802 JUMPI PUSH2 0x324 JUMP JUMPDEST DUP1 PUSH4 0x43859632 EQ PUSH2 0x5A4 JUMPI DUP1 PUSH4 0x452115D6 EQ PUSH2 0x5E0 JUMPI DUP1 PUSH4 0x4BF5D7E9 EQ PUSH2 0x61C JUMPI DUP1 PUSH4 0x544FFC9C EQ PUSH2 0x646 JUMPI DUP1 PUSH4 0x54FD4D50 EQ PUSH2 0x684 JUMPI DUP1 PUSH4 0x56781388 EQ PUSH2 0x6AE JUMPI PUSH2 0x324 JUMP JUMPDEST DUP1 PUSH4 0x1B3B74F1 GT PUSH2 0x26A JUMPI DUP1 PUSH4 0x1B3B74F1 EQ PUSH2 0x46C JUMPI DUP1 PUSH4 0x2656227D EQ PUSH2 0x4A8 JUMPI DUP1 PUSH4 0x2D63F693 EQ PUSH2 0x4D8 JUMPI DUP1 PUSH4 0x2FE3E261 EQ PUSH2 0x514 JUMPI DUP1 PUSH4 0x3932ABB1 EQ PUSH2 0x53E JUMPI DUP1 PUSH4 0x3E4F49E6 EQ PUSH2 0x568 JUMPI PUSH2 0x324 JUMP JUMPDEST DUP1 PUSH4 0x1FFC9A7 EQ PUSH2 0x328 JUMPI DUP1 PUSH4 0x2A251A3 EQ PUSH2 0x364 JUMPI DUP1 PUSH4 0x6FDDE03 EQ PUSH2 0x38E JUMPI DUP1 PUSH4 0x143489D0 EQ PUSH2 0x3B8 JUMPI DUP1 PUSH4 0x150B7A02 EQ PUSH2 0x3F4 JUMPI DUP1 PUSH4 0x160CBED7 EQ PUSH2 0x430 JUMPI PUSH2 0x324 JUMP JUMPDEST CALLDATASIZE PUSH2 0x324 JUMPI ADDRESS PUSH20 0xFFFFFFFFFFFFFFFFFFFFFFFFFFFFFFFFFFFFFFFF AND PUSH2 0x2D5 PUSH2 0xD24 JUMP JUMPDEST PUSH20 0xFFFFFFFFFFFFFFFFFFFFFFFFFFFFFFFFFFFFFFFF AND EQ PUSH2 0x322 JUMPI PUSH1 0x40 MLOAD PUSH32 0xE90A651E00000000000000000000000000000000000000000000000000000000 DUP2 MSTORE PUSH1 0x4 ADD PUSH1 0x40 MLOAD DUP1 SWAP2 SUB SWAP1 REVERT JUMPDEST STOP JUMPDEST PUSH0 PUSH0 REVERT JUMPDEST CALLVALUE DUP1 ISZERO PUSH2 0x333 JUMPI PUSH0 PUSH0 REVERT JUMPDEST POP PUSH2 0x34E PUSH1 0x4 DUP1 CALLDATASIZE SUB DUP2 ADD SWAP1 PUSH2 0x349 SWAP2 SWAP1 PUSH2 0x4135 JUMP JUMPDEST PUSH2 0xD2B JUMP JUMPDEST PUSH1 0x40 MLOAD PUSH2 0x35B SWAP2 SWAP1 PUSH2 0x417A JUMP JUMPDEST PUSH1 0x40 MLOAD DUP1 SWAP2 SUB SWAP1 RETURN JUMPDEST CALLVALUE DUP1 ISZERO PUSH2 0x36F JUMPI PUSH0 PUSH0 REVERT JUMPDEST POP PUSH2 0x378 PUSH2 0xE7D JUMP JUMPDEST PUSH1 0x40 MLOAD PUSH2 0x385 SWAP2 SWAP1 PUSH2 0x41AB JUMP JUMPDEST PUSH1 0x40 MLOAD DUP1 SWAP2 SUB SWAP1 RETURN JUMPDEST CALLVALUE DUP1 ISZERO PUSH2 0x399 JUMPI PUSH0 PUSH0 REVERT JUMPDEST POP PUSH2 0x3A2 PUSH2 0xE9C JUMP JUMPDEST PUSH1 0x40 MLOAD PUSH2 0x3AF SWAP2 SWAP1 PUSH2 0x4234 JUMP JUMPDEST PUSH1 0x40 MLOAD DUP1 SWAP2 SUB SWAP1 RETURN JUMPDEST CALLVALUE DUP1 ISZERO PUSH2 0x3C3 JUMPI PUSH0 PUSH0 REVERT JUMPDEST POP PUSH2 0x3DE PUSH1 0x4 DUP1 CALLDATASIZE SUB DUP2 ADD SWAP1 PUSH2 0x3D9 SWAP2 SWAP1 PUSH2 0x427E JUMP JUMPDEST PUSH2 0xF2C JUMP JUMPDEST PUSH1 0x40 MLOAD PUSH2 0x3EB SWAP2 SWAP1 PUSH2 0x42E8 JUMP JUMPDEST PUSH1 0x40 MLOAD DUP1 SWAP2 SUB SWAP1 RETURN JUMPDEST CALLVALUE DUP1 ISZERO PUSH2 0x3FF JUMPI PUSH0 PUSH0 REVERT JUMPDEST POP PUSH2 0x41A PUSH1 0x4 DUP1 CALLDATASIZE SUB DUP2 ADD SWAP1 PUSH2 0x415 SWAP2 SWAP1 PUSH2 0x4457 JUMP JUMPDEST PUSH2 0xF67 JUMP JUMPDEST PUSH1 0x40 MLOAD PUSH2 0x427 SWAP2 SWAP1 PUSH2 0x44E6 JUMP JUMPDEST PUSH1 0x40 MLOAD DUP1 SWAP2 SUB SWAP1 RETURN JUMPDEST CALLVALUE DUP1 ISZERO PUSH2 0x43B JUMPI PUSH0 PUSH0 REVERT JUMPDEST POP PUSH2 0x456 PUSH1 0x4 DUP1 CALLDATASIZE SUB DUP2 ADD SWAP1 PUSH2 0x451 SWAP2 SWAP1 PUSH2 0x4794 JUMP JUMPDEST PUSH2 0xFE6 JUMP JUMPDEST PUSH1 0x40 MLOAD PUSH2 0x463 SWAP2 SWAP1 PUSH2 0x41AB JUMP JUMPDEST PUSH1 0x40 MLOAD DUP1 SWAP2 SUB SWAP1 RETURN JUMPDEST CALLVALUE DUP1 ISZERO PUSH2 0x477 JUMPI PUSH0 PUSH0 REVERT JUMPDEST POP PUSH2 0x492 PUSH1 0x4 DUP1 CALLDATASIZE SUB DUP2 ADD SWAP1 PUSH2 0x48D SWAP2 SWAP1 PUSH2 0x484C JUMP JUMPDEST PUSH2 0x10DC JUMP JUMPDEST PUSH1 0x40 MLOAD PUSH2 0x49F SWAP2 SWAP1 PUSH2 0x41AB JUMP JUMPDEST PUSH1 0x40 MLOAD DUP1 SWAP2 SUB SWAP1 RETURN JUMPDEST PUSH2 0x4C2 PUSH1 0x4 DUP1 CALLDATASIZE SUB DUP2 ADD SWAP1 PUSH2 0x4BD SWAP2 SWAP1 PUSH2 0x4794 JUMP JUMPDEST PUSH2 0x117C JUMP JUMPDEST PUSH1 0x40 MLOAD PUSH2 0x4CF SWAP2 SWAP1 PUSH2 0x41AB JUMP JUMPDEST PUSH1 0x40 MLOAD DUP1 SWAP2 SUB SWAP1 RETURN JUMPDEST CALLVALUE DUP1 ISZERO PUSH2 0x4E3 JUMPI PUSH0 PUSH0 REVERT JUMPDEST POP PUSH2 0x4FE PUSH1 0x4 DUP1 CALLDATASIZE SUB DUP2 ADD SWAP1 PUSH2 0x4F9 SWAP2 SWAP1 PUSH2 0x427E JUMP JUMPDEST PUSH2 0x1359 JUMP JUMPDEST PUSH1 0x40 MLOAD PUSH2 0x50B SWAP2 SWAP1 PUSH2 0x41AB JUMP JUMPDEST PUSH1 0x40 MLOAD DUP1 SWAP2 SUB SWAP1 RETURN JUMPDEST CALLVALUE DUP1 ISZERO PUSH2 0x51F JUMPI PUSH0 PUSH0 REVERT JUMPDEST POP PUSH2 0x528 PUSH2 0x138F JUMP JUMPDEST PUSH1 0x40 MLOAD PUSH2 0x535 SWAP2 SWAP1 PUSH2 0x4886 JUMP JUMPDEST PUSH1 0x40 MLOAD DUP1 SWAP2 SUB SWAP1 RETURN JUMPDEST CALLVALUE DUP1 ISZERO PUSH2 0x549 JUMPI PUSH0 PUSH0 REVERT JUMPDEST POP PUSH2 0x552 PUSH2 0x13B3 JUMP JUMPDEST PUSH1 0x40 MLOAD PUSH2 0x55F SWAP2 SWAP1 PUSH2 0x41AB JUMP JUMPDEST PUSH1 0x40 MLOAD DUP1 SWAP2 SUB SWAP1 RETURN JUMPDEST CALLVALUE DUP1 ISZERO PUSH2 0x573 JUMPI PUSH0 PUSH0 REVERT JUMPDEST POP PUSH2 0x58E PUSH1 0x4 DUP1 CALLDATASIZE SUB DUP2 ADD SWAP1 PUSH2 0x589 SWAP2 SWAP1 PUSH2 0x427E JUMP JUMPDEST PUSH2 0x13D5 JUMP JUMPDEST PUSH1 0x40 MLOAD PUSH2 0x59B SWAP2 SWAP1 PUSH2 0x4912 JUMP JUMPDEST PUSH1 0x40 MLOAD DUP1 SWAP2 SUB SWAP1 RETURN JUMPDEST CALLVALUE DUP1 ISZERO PUSH2 0x5AF JUMPI PUSH0 PUSH0 REVERT JUMPDEST POP PUSH2 0x5CA PUSH1 0x4 DUP1 CALLDATASIZE SUB DUP2 ADD SWAP1 PUSH2 0x5C5 SWAP2 SWAP1 PUSH2 0x492B JUMP JUMPDEST PUSH2 0x152C JUMP JUMPDEST PUSH1 0x40 MLOAD PUSH2 0x5D7 SWAP2 SWAP1 PUSH2 0x417A JUMP JUMPDEST PUSH1 0x40 MLOAD DUP1 SWAP2 SUB SWAP1 RETURN JUMPDEST CALLVALUE DUP1 ISZERO PUSH2 0x5EB JUMPI PUSH0 PUSH0 REVERT JUMPDEST POP PUSH2 0x606 PUSH1 0x4 DUP1 CALLDATASIZE SUB DUP2 ADD SWAP1 PUSH2 0x601 SWAP2 SWAP1 PUSH2 0x4794 JUMP JUMPDEST PUSH2 0x1591 JUMP JUMPDEST PUSH1 0x40 MLOAD PUSH2 0x613 SWAP2 SWAP1 PUSH2 0x41AB JUMP JUMPDEST PUSH1 0x40 MLOAD DUP1 SWAP2 SUB SWAP1 RETURN JUMPDEST CALLVALUE DUP1 ISZERO PUSH2 0x627 JUMPI PUSH0 PUSH0 REVERT JUMPDEST POP PUSH2 0x630 PUSH2 0x1611 JUMP JUMPDEST PUSH1 0x40 MLOAD PUSH2 0x63D SWAP2 SWAP1 PUSH2 0x4234 JUMP JUMPDEST PUSH1 0x40 MLOAD DUP1 SWAP2 SUB SWAP1 RETURN JUMPDEST CALLVALUE DUP1 ISZERO PUSH2 0x651 JUMPI PUSH0 PUSH0 REVERT JUMPDEST POP PUSH2 0x66C PUSH1 0x4 DUP1 CALLDATASIZE SUB DUP2 ADD SWAP1 PUSH2 0x667 SWAP2 SWAP1 PUSH2 0x427E JUMP JUMPDEST PUSH2 0x16CE JUMP JUMPDEST PUSH1 0x40 MLOAD PUSH2 0x67B SWAP4 SWAP3 SWAP2 SWAP1 PUSH2 0x4969 JUMP JUMPDEST PUSH1 0x40 MLOAD DUP1 SWAP2 SUB SWAP1 RETURN JUMPDEST CALLVALUE DUP1 ISZERO PUSH2 0x68F JUMPI PUSH0 PUSH0 REVERT JUMPDEST POP PUSH2 0x698 PUSH2 0x1701 JUMP JUMPDEST PUSH1 0x40 MLOAD PUSH2 0x6A5 SWAP2 SWAP1 PUSH2 0x4234 JUMP JUMPDEST PUSH1 0x40 MLOAD DUP1 SWAP2 SUB SWAP1 RETURN JUMPDEST CALLVALUE DUP1 ISZERO PUSH2 0x6B9 JUMPI PUSH0 PUSH0 REVERT JUMPDEST POP PUSH2 0x6D4 PUSH1 0x4 DUP1 CALLDATASIZE SUB DUP2 ADD SWAP1 PUSH2 0x6CF SWAP2 SWAP1 PUSH2 0x49D4 JUMP JUMPDEST PUSH2 0x173E JUMP JUMPDEST PUSH1 0x40 MLOAD PUSH2 0x6E1 SWAP2 SWAP1 PUSH2 0x41AB JUMP JUMPDEST PUSH1 0x40 MLOAD DUP1 SWAP2 SUB SWAP1 RETURN JUMPDEST CALLVALUE DUP1 ISZERO PUSH2 0x6F5 JUMPI PUSH0 PUSH0 REVERT JUMPDEST POP PUSH2 0x710 PUSH1 0x4 DUP1 CALLDATASIZE SUB DUP2 ADD SWAP1 PUSH2 0x70B SWAP2 SWAP1 PUSH2 0x4A6B JUMP JUMPDEST PUSH2 0x176D JUMP JUMPDEST PUSH1 0x40 MLOAD PUSH2 0x71D SWAP2 SWAP1 PUSH2 0x41AB JUMP JUMPDEST PUSH1 0x40 MLOAD DUP1 SWAP2 SUB SWAP1 RETURN JUMPDEST CALLVALUE DUP1 ISZERO PUSH2 0x731 JUMPI PUSH0 PUSH0 REVERT JUMPDEST POP PUSH2 0x74C PUSH1 0x4 DUP1 CALLDATASIZE SUB DUP2 ADD SWAP1 PUSH2 0x747 SWAP2 SWAP1 PUSH2 0x4B4D JUMP JUMPDEST PUSH2 0x189C JUMP JUMPDEST PUSH1 0x40 MLOAD PUSH2 0x759 SWAP2 SWAP1 PUSH2 0x41AB JUMP JUMPDEST PUSH1 0x40 MLOAD DUP1 SWAP2 SUB SWAP1 RETURN JUMPDEST CALLVALUE DUP1 ISZERO PUSH2 0x76D JUMPI PUSH0 PUSH0 REVERT JUMPDEST POP PUSH2 0x788 PUSH1 0x4 DUP1 CALLDATASIZE SUB DUP2 ADD SWAP1 PUSH2 0x783 SWAP2 SWAP1 PUSH2 0x4C28 JUMP JUMPDEST PUSH2 0x1904 JUMP JUMPDEST STOP JUMPDEST CALLVALUE DUP1 ISZERO PUSH2 0x795 JUMPI PUSH0 PUSH0 REVERT JUMPDEST POP PUSH2 0x7B0 PUSH1 0x4 DUP1 CALLDATASIZE SUB DUP2 ADD SWAP1 PUSH2 0x7AB SWAP2 SWAP1 PUSH2 0x4C53 JUMP JUMPDEST PUSH2 0x1918 JUMP JUMPDEST PUSH1 0x40 MLOAD PUSH2 0x7BD SWAP2 SWAP1 PUSH2 0x41AB JUMP JUMPDEST PUSH1 0x40 MLOAD DUP1 SWAP2 SUB SWAP1 RETURN JUMPDEST CALLVALUE DUP1 ISZERO PUSH2 0x7D1 JUMPI PUSH0 PUSH0 REVERT JUMPDEST POP PUSH2 0x7EC PUSH1 0x4 DUP1 CALLDATASIZE SUB DUP2 ADD SWAP1 PUSH2 0x7E7 SWAP2 SWAP1 PUSH2 0x4D62 JUMP JUMPDEST PUSH2 0x197E JUMP JUMPDEST PUSH1 0x40 MLOAD PUSH2 0x7F9 SWAP2 SWAP1 PUSH2 0x41AB JUMP JUMPDEST PUSH1 0x40 MLOAD DUP1 SWAP2 SUB SWAP1 RETURN JUMPDEST CALLVALUE DUP1 ISZERO PUSH2 0x80D JUMPI PUSH0 PUSH0 REVERT JUMPDEST POP PUSH2 0x828 PUSH1 0x4 DUP1 CALLDATASIZE SUB DUP2 ADD SWAP1 PUSH2 0x823 SWAP2 SWAP1 PUSH2 0x484C JUMP JUMPDEST PUSH2 0x1A74 JUMP JUMPDEST PUSH1 0x40 MLOAD PUSH2 0x835 SWAP2 SWAP1 PUSH2 0x41AB JUMP JUMPDEST PUSH1 0x40 MLOAD DUP1 SWAP2 SUB SWAP1 RETURN JUMPDEST CALLVALUE DUP1 ISZERO PUSH2 0x849 JUMPI PUSH0 PUSH0 REVERT JUMPDEST POP PUSH2 0x852 PUSH2 0x1ABA JUMP JUMPDEST PUSH1 0x40 MLOAD PUSH2 0x865 SWAP8 SWAP7 SWAP6 SWAP5 SWAP4 SWAP3 SWAP2 SWAP1 PUSH2 0x4F27 JUMP JUMPDEST PUSH1 0x40 MLOAD DUP1 SWAP2 SUB SWAP1 RETURN JUMPDEST CALLVALUE DUP1 ISZERO PUSH2 0x879 JUMPI PUSH0 PUSH0 REVERT JUMPDEST POP PUSH2 0x894 PUSH1 0x4 DUP1 CALLDATASIZE SUB DUP2 ADD SWAP1 PUSH2 0x88F SWAP2 SWAP1 PUSH2 0x4FA9 JUMP JUMPDEST PUSH2 0x1B5F JUMP JUMPDEST PUSH1 0x40 MLOAD PUSH2 0x8A1 SWAP2 SWAP1 PUSH2 0x41AB JUMP JUMPDEST PUSH1 0x40 MLOAD DUP1 SWAP2 SUB SWAP1 RETURN JUMPDEST CALLVALUE DUP1 ISZERO PUSH2 0x8B5 JUMPI PUSH0 PUSH0 REVERT JUMPDEST POP PUSH2 0x8BE PUSH2 0x1C33 JUMP JUMPDEST PUSH1 0x40 MLOAD PUSH2 0x8CB SWAP2 SWAP1 PUSH2 0x5038 JUMP JUMPDEST PUSH1 0x40 MLOAD DUP1 SWAP2 SUB SWAP1 RETURN JUMPDEST CALLVALUE DUP1 ISZERO PUSH2 0x8DF JUMPI PUSH0 PUSH0 REVERT JUMPDEST POP PUSH2 0x8E8 PUSH2 0x1CBE JUMP JUMPDEST PUSH1 0x40 MLOAD PUSH2 0x8F5 SWAP2 SWAP1 PUSH2 0x50AC JUMP JUMPDEST PUSH1 0x40 MLOAD DUP1 SWAP2 SUB SWAP1 RETURN JUMPDEST CALLVALUE DUP1 ISZERO PUSH2 0x909 JUMPI PUSH0 PUSH0 REVERT JUMPDEST POP PUSH2 0x924 PUSH1 0x4 DUP1 CALLDATASIZE SUB DUP2 ADD SWAP1 PUSH2 0x91F SWAP2 SWAP1 PUSH2 0x50C5 JUMP JUMPDEST PUSH2 0x1CE2 JUMP JUMPDEST PUSH1 0x40 MLOAD PUSH2 0x931 SWAP2 SWAP1 PUSH2 0x41AB JUMP JUMPDEST PUSH1 0x40 MLOAD DUP1 SWAP2 SUB SWAP1 RETURN JUMPDEST CALLVALUE DUP1 ISZERO PUSH2 0x945 JUMPI PUSH0 PUSH0 REVERT JUMPDEST POP PUSH2 0x94E PUSH2 0x1CF7 JUMP JUMPDEST PUSH1 0x40 MLOAD PUSH2 0x95B SWAP2 SWAP1 PUSH2 0x5151 JUMP JUMPDEST PUSH1 0x40 MLOAD DUP1 SWAP2 SUB SWAP1 RETURN JUMPDEST CALLVALUE DUP1 ISZERO PUSH2 0x96F JUMPI PUSH0 PUSH0 REVERT JUMPDEST POP PUSH2 0x98A PUSH1 0x4 DUP1 CALLDATASIZE SUB DUP2 ADD SWAP1 PUSH2 0x985 SWAP2 SWAP1 PUSH2 0x4794 JUMP JUMPDEST PUSH2 0x1D1B JUMP JUMPDEST PUSH1 0x40 MLOAD PUSH2 0x997 SWAP2 SWAP1 PUSH2 0x41AB JUMP JUMPDEST PUSH1 0x40 MLOAD DUP1 SWAP2 SUB SWAP1 RETURN JUMPDEST CALLVALUE DUP1 ISZERO PUSH2 0x9AB JUMPI PUSH0 PUSH0 REVERT JUMPDEST POP PUSH2 0x9C6 PUSH1 0x4 DUP1 CALLDATASIZE SUB DUP2 ADD SWAP1 PUSH2 0x9C1 SWAP2 SWAP1 PUSH2 0x427E JUMP JUMPDEST PUSH2 0x1D32 JUMP JUMPDEST PUSH1 0x40 MLOAD PUSH2 0x9D3 SWAP2 SWAP1 PUSH2 0x417A JUMP JUMPDEST PUSH1 0x40 MLOAD DUP1 SWAP2 SUB SWAP1 RETURN JUMPDEST CALLVALUE DUP1 ISZERO PUSH2 0x9E7 JUMPI PUSH0 PUSH0 REVERT JUMPDEST POP PUSH2 0xA02 PUSH1 0x4 DUP1 CALLDATASIZE SUB DUP2 ADD SWAP1 PUSH2 0x9FD SWAP2 SWAP1 PUSH2 0x427E JUMP JUMPDEST PUSH2 0x1D3B JUMP JUMPDEST PUSH1 0x40 MLOAD PUSH2 0xA0F SWAP2 SWAP1 PUSH2 0x41AB JUMP JUMPDEST PUSH1 0x40 MLOAD DUP1 SWAP2 SUB SWAP1 RETURN JUMPDEST CALLVALUE DUP1 ISZERO PUSH2 0xA23 JUMPI PUSH0 PUSH0 REVERT JUMPDEST POP PUSH2 0xA2C PUSH2 0x1D71 JUMP JUMPDEST PUSH1 0x40 MLOAD PUSH2 0xA39 SWAP2 SWAP1 PUSH2 0x518A JUMP JUMPDEST PUSH1 0x40 MLOAD DUP1 SWAP2 SUB SWAP1 RETURN JUMPDEST CALLVALUE DUP1 ISZERO PUSH2 0xA4D JUMPI PUSH0 PUSH0 REVERT JUMPDEST POP PUSH2 0xA56 PUSH2 0x1D95 JUMP JUMPDEST PUSH1 0x40 MLOAD PUSH2 0xA63 SWAP2 SWAP1 PUSH2 0x41AB JUMP JUMPDEST PUSH1 0x40 MLOAD DUP1 SWAP2 SUB SWAP1 RETURN JUMPDEST CALLVALUE DUP1 ISZERO PUSH2 0xA77 JUMPI PUSH0 PUSH0 REVERT JUMPDEST POP PUSH2 0xA92 PUSH1 0x4 DUP1 CALLDATASIZE SUB DUP2 ADD SWAP1 PUSH2 0xA8D SWAP2 SWAP1 PUSH2 0x51A3 JUMP JUMPDEST PUSH2 0x1DA3 JUMP JUMPDEST PUSH1 0x40 MLOAD PUSH2 0xA9F SWAP2 SWAP1 PUSH2 0x44E6 JUMP JUMPDEST PUSH1 0x40 MLOAD DUP1 SWAP2 SUB SWAP1 RETURN JUMPDEST CALLVALUE DUP1 ISZERO PUSH2 0xAB3 JUMPI PUSH0 PUSH0 REVERT JUMPDEST POP PUSH2 0xACE PUSH1 0x4 DUP1 CALLDATASIZE SUB DUP2 ADD SWAP1 PUSH2 0xAC9 SWAP2 SWAP1 PUSH2 0x427E JUMP JUMPDEST PUSH2 0x1E23 JUMP JUMPDEST PUSH1 0x40 MLOAD PUSH2 0xADB SWAP2 SWAP1 PUSH2 0x41AB JUMP JUMPDEST PUSH1 0x40 MLOAD DUP1 SWAP2 SUB SWAP1 RETURN JUMPDEST PUSH2 0xAFE PUSH1 0x4 DUP1 CALLDATASIZE SUB DUP2 ADD SWAP1 PUSH2 0xAF9 SWAP2 SWAP1 PUSH2 0x52C3 JUMP JUMPDEST PUSH2 0x1E8D JUMP JUMPDEST STOP JUMPDEST CALLVALUE DUP1 ISZERO PUSH2 0xB0B JUMPI PUSH0 PUSH0 REVERT JUMPDEST POP PUSH2 0xB14 PUSH2 0x1F16 JUMP JUMPDEST PUSH1 0x40 MLOAD PUSH2 0xB21 SWAP2 SWAP1 PUSH2 0x5354 JUMP JUMPDEST PUSH1 0x40 MLOAD DUP1 SWAP2 SUB SWAP1 RETURN JUMPDEST CALLVALUE DUP1 ISZERO PUSH2 0xB35 JUMPI PUSH0 PUSH0 REVERT JUMPDEST POP PUSH2 0xB50 PUSH1 0x4 DUP1 CALLDATASIZE SUB DUP2 ADD SWAP1 PUSH2 0xB4B SWAP2 SWAP1 PUSH2 0x4794 JUMP JUMPDEST PUSH2 0x1F3A JUMP JUMPDEST PUSH1 0x40 MLOAD PUSH2 0xB5D SWAP2 SWAP1 PUSH2 0x41AB JUMP JUMPDEST PUSH1 0x40 MLOAD DUP1 SWAP2 SUB SWAP1 RETURN JUMPDEST CALLVALUE DUP1 ISZERO PUSH2 0xB71 JUMPI PUSH0 PUSH0 REVERT JUMPDEST POP PUSH2 0xB8C PUSH1 0x4 DUP1 CALLDATASIZE SUB DUP2 ADD SWAP1 PUSH2 0xB87 SWAP2 SWAP1 PUSH2 0x536D JUMP JUMPDEST PUSH2 0x1F74 JUMP JUMPDEST PUSH1 0x40 MLOAD PUSH2 0xB99 SWAP2 SWAP1 PUSH2 0x41AB JUMP JUMPDEST PUSH1 0x40 MLOAD DUP1 SWAP2 SUB SWAP1 RETURN JUMPDEST CALLVALUE DUP1 ISZERO PUSH2 0xBAD JUMPI PUSH0 PUSH0 REVERT JUMPDEST POP PUSH2 0xBB6 PUSH2 0x2369 JUMP JUMPDEST PUSH1 0x40 MLOAD PUSH2 0xBC3 SWAP2 SWAP1 PUSH2 0x4234 JUMP JUMPDEST PUSH1 0x40 MLOAD DUP1 SWAP2 SUB SWAP1 RETURN JUMPDEST CALLVALUE DUP1 ISZERO PUSH2 0xBD7 JUMPI PUSH0 PUSH0 REVERT JUMPDEST POP PUSH2 0xBE0 PUSH2 0x23A6 JUMP JUMPDEST PUSH1 0x40 MLOAD PUSH2 0xBED SWAP2 SWAP1 PUSH2 0x4886 JUMP JUMPDEST PUSH1 0x40 MLOAD DUP1 SWAP2 SUB SWAP1 RETURN JUMPDEST CALLVALUE DUP1 ISZERO PUSH2 0xC01 JUMPI PUSH0 PUSH0 REVERT JUMPDEST POP PUSH2 0xC1C PUSH1 0x4 DUP1 CALLDATASIZE SUB DUP2 ADD SWAP1 PUSH2 0xC17 SWAP2 SWAP1 PUSH2 0x5400 JUMP JUMPDEST PUSH2 0x23CA JUMP JUMPDEST STOP JUMPDEST CALLVALUE DUP1 ISZERO PUSH2 0xC29 JUMPI PUSH0 PUSH0 REVERT JUMPDEST POP PUSH2 0xC44 PUSH1 0x4 DUP1 CALLDATASIZE SUB DUP2 ADD SWAP1 PUSH2 0xC3F SWAP2 SWAP1 PUSH2 0x542B JUMP JUMPDEST PUSH2 0x23DE JUMP JUMPDEST PUSH1 0x40 MLOAD PUSH2 0xC51 SWAP2 SWAP1 PUSH2 0x41AB JUMP JUMPDEST PUSH1 0x40 MLOAD DUP1 SWAP2 SUB SWAP1 RETURN JUMPDEST CALLVALUE DUP1 ISZERO PUSH2 0xC65 JUMPI PUSH0 PUSH0 REVERT JUMPDEST POP PUSH2 0xC80 PUSH1 0x4 DUP1 CALLDATASIZE SUB DUP2 ADD SWAP1 PUSH2 0xC7B SWAP2 SWAP1 PUSH2 0x427E JUMP JUMPDEST PUSH2 0x23F9 JUMP JUMPDEST STOP JUMPDEST CALLVALUE DUP1 ISZERO PUSH2 0xC8D JUMPI PUSH0 PUSH0 REVERT JUMPDEST POP PUSH2 0xCA8 PUSH1 0x4 DUP1 CALLDATASIZE SUB DUP2 ADD SWAP1 PUSH2 0xCA3 SWAP2 SWAP1 PUSH2 0x5469 JUMP JUMPDEST PUSH2 0x240D JUMP JUMPDEST PUSH1 0x40 MLOAD PUSH2 0xCB5 SWAP2 SWAP1 PUSH2 0x44E6 JUMP JUMPDEST PUSH1 0x40 MLOAD DUP1 SWAP2 SUB SWAP1 RETURN JUMPDEST CALLVALUE DUP1 ISZERO PUSH2 0xCC9 JUMPI PUSH0 PUSH0 REVERT JUMPDEST POP PUSH2 0xCE4 PUSH1 0x4 DUP1 CALLDATASIZE SUB DUP2 ADD SWAP1 PUSH2 0xCDF SWAP2 SWAP1 PUSH2 0x427E JUMP JUMPDEST PUSH2 0x248D JUMP JUMPDEST PUSH1 0x40 MLOAD PUSH2 0xCF1 SWAP2 SWAP1 PUSH2 0x41AB JUMP JUMPDEST PUSH1 0x40 MLOAD DUP1 SWAP2 SUB SWAP1 RETURN JUMPDEST CALLVALUE DUP1 ISZERO PUSH2 0xD05 JUMPI PUSH0 PUSH0 REVERT JUMPDEST POP PUSH2 0xD0E PUSH2 0x252E JUMP JUMPDEST PUSH1 0x40 MLOAD PUSH2 0xD1B SWAP2 SWAP1 PUSH2 0x551C JUMP JUMPDEST PUSH1 0x40 MLOAD DUP1 SWAP2 SUB SWAP1 RETURN JUMPDEST PUSH0 ADDRESS SWAP1 POP SWAP1 JUMP JUMPDEST PUSH0 PUSH32 0xCDBDFCEE00000000000000000000000000000000000000000000000000000000 PUSH28 0xFFFFFFFFFFFFFFFFFFFFFFFFFFFFFFFFFFFFFFFFFFFFFFFFFFFFFFFF NOT AND DUP3 PUSH28 0xFFFFFFFFFFFFFFFFFFFFFFFFFFFFFFFFFFFFFFFFFFFFFFFFFFFFFFFF NOT AND EQ DUP1 PUSH2 0xDFE JUMPI POP PUSH4 0xA8F8A668 PUSH1 0xE0 SHL PUSH32 0xCDBDFCEE00000000000000000000000000000000000000000000000000000000 XOR PUSH28 0xFFFFFFFFFFFFFFFFFFFFFFFFFFFFFFFFFFFFFFFFFFFFFFFFFFFFFFFF NOT AND DUP3 PUSH28 0xFFFFFFFFFFFFFFFFFFFFFFFFFFFFFFFFFFFFFFFFFFFFFFFFFFFFFFFF NOT AND EQ JUMPDEST DUP1 PUSH2 0xE66 JUMPI POP PUSH32 0x4E2312E000000000000000000000000000000000000000000000000000000000 PUSH28 0xFFFFFFFFFFFFFFFFFFFFFFFFFFFFFFFFFFFFFFFFFFFFFFFFFFFFFFFF NOT AND DUP3 PUSH28 0xFFFFFFFFFFFFFFFFFFFFFFFFFFFFFFFFFFFFFFFFFFFFFFFFFFFFFFFF NOT AND EQ JUMPDEST DUP1 PUSH2 0xE76 JUMPI POP PUSH2 0xE75 DUP3 PUSH2 0x2555 JUMP JUMPDEST JUMPDEST SWAP1 POP SWAP2 SWAP1 POP JUMP JUMPDEST PUSH0 PUSH1 0x8 PUSH1 0x6 SWAP1 SLOAD SWAP1 PUSH2 0x100 EXP SWAP1 DIV PUSH4 0xFFFFFFFF AND PUSH4 0xFFFFFFFF AND SWAP1 POP SWAP1 JUMP JUMPDEST PUSH1 0x60 PUSH1 0x3 DUP1 SLOAD PUSH2 0xEAB SWAP1 PUSH2 0x5562 JUMP JUMPDEST DUP1 PUSH1 0x1F ADD PUSH1 0x20 DUP1 SWAP2 DIV MUL PUSH1 0x20 ADD PUSH1 0x40 MLOAD SWAP1 DUP2 ADD PUSH1 0x40 MSTORE DUP1 SWAP3 SWAP2 SWAP1 DUP2 DUP2 MSTORE PUSH1 0x20 ADD DUP3 DUP1 SLOAD PUSH2 0xED7 SWAP1 PUSH2 0x5562 JUMP JUMPDEST DUP1 ISZERO PUSH2 0xF22 JUMPI DUP1 PUSH1 0x1F LT PUSH2 0xEF9 JUMPI PUSH2 0x100 DUP1 DUP4 SLOAD DIV MUL DUP4 MSTORE SWAP2 PUSH1 0x20 ADD SWAP2 PUSH2 0xF22 JUMP JUMPDEST DUP3 ADD SWAP2 SWAP1 PUSH0 MSTORE PUSH1 0x20 PUSH0 KECCAK256 SWAP1 JUMPDEST DUP2 SLOAD DUP2 MSTORE SWAP1 PUSH1 0x1 ADD SWAP1 PUSH1 0x20 ADD DUP1 DUP4 GT PUSH2 0xF05 JUMPI DUP3 SWAP1 SUB PUSH1 0x1F AND DUP3 ADD SWAP2 JUMPDEST POP POP POP POP POP SWAP1 POP SWAP1 JUMP JUMPDEST PUSH0 PUSH1 0x4 PUSH0 DUP4 DUP2 MSTORE PUSH1 0x20 ADD SWAP1 DUP2 MSTORE PUSH1 0x20 ADD PUSH0 KECCAK256 PUSH0 ADD PUSH0 SWAP1 SLOAD SWAP1 PUSH2 0x100 EXP SWAP1 DIV PUSH20 0xFFFFFFFFFFFFFFFFFFFFFFFFFFFFFFFFFFFFFFFF AND SWAP1 POP SWAP2 SWAP1 POP JUMP JUMPDEST PUSH0 ADDRESS PUSH20 0xFFFFFFFFFFFFFFFFFFFFFFFFFFFFFFFFFFFFFFFF AND PUSH2 0xF87 PUSH2 0xD24 JUMP JUMPDEST PUSH20 0xFFFFFFFFFFFFFFFFFFFFFFFFFFFFFFFFFFFFFFFF AND EQ PUSH2 0xFD4 JUMPI PUSH1 0x40 MLOAD PUSH32 0xE90A651E00000000000000000000000000000000000000000000000000000000 DUP2 MSTORE PUSH1 0x4 ADD PUSH1 0x40 MLOAD DUP1 SWAP2 SUB SWAP1 REVERT JUMPDEST PUSH4 0x150B7A02 PUSH1 0xE0 SHL SWAP1 POP SWAP5 SWAP4 POP POP POP POP JUMP JUMPDEST PUSH0 PUSH0 PUSH2 0xFF4 DUP7 DUP7 DUP7 DUP7 PUSH2 0x1D1B JUMP JUMPDEST SWAP1 POP PUSH2 0x1009 DUP2 PUSH2 0x1004 PUSH1 0x4 PUSH2 0x25BE JUMP JUMPDEST PUSH2 0x25E2 JUMP JUMPDEST POP PUSH0 PUSH2 0x1018 DUP3 DUP9 DUP9 DUP9 DUP9 PUSH2 0x264D JUMP JUMPDEST SWAP1 POP PUSH0 DUP2 PUSH6 0xFFFFFFFFFFFF AND EQ PUSH2 0x109D JUMPI DUP1 PUSH1 0x4 PUSH0 DUP5 DUP2 MSTORE PUSH1 0x20 ADD SWAP1 DUP2 MSTORE PUSH1 0x20 ADD PUSH0 KECCAK256 PUSH1 0x1 ADD PUSH0 PUSH2 0x100 EXP DUP2 SLOAD DUP2 PUSH6 0xFFFFFFFFFFFF MUL NOT AND SWAP1 DUP4 PUSH6 0xFFFFFFFFFFFF AND MUL OR SWAP1 SSTORE POP PUSH32 0x9A2E42FD6722813D69113E7D0079D3D940171428DF7373DF9C7F7617CFDA2892 DUP3 DUP3 PUSH1 0x40 MLOAD PUSH2 0x1090 SWAP3 SWAP2 SWAP1 PUSH2 0x55C2 JUMP JUMPDEST PUSH1 0x40 MLOAD DUP1 SWAP2 SUB SWAP1 LOG1 PUSH2 0x10CF JUMP JUMPDEST PUSH1 0x40 MLOAD PUSH32 0x90884A4600000000000000000000000000000000000000000000000000000000 DUP2 MSTORE PUSH1 0x4 ADD PUSH1 0x40 MLOAD DUP1 SWAP2 SUB SWAP1 REVERT JUMPDEST DUP2 SWAP3 POP POP POP SWAP5 SWAP4 POP POP POP POP JUMP JUMPDEST PUSH0 PUSH32 0x0 PUSH20 0xFFFFFFFFFFFFFFFFFFFFFFFFFFFFFFFFFFFFFFFF AND PUSH4 0x9C89A0E2 DUP4 PUSH1 0x40 MLOAD DUP3 PUSH4 0xFFFFFFFF AND PUSH1 0xE0 SHL DUP2 MSTORE PUSH1 0x4 ADD PUSH2 0x1136 SWAP2 SWAP1 PUSH2 0x42E8 JUMP JUMPDEST PUSH1 0x20 PUSH1 0x40 MLOAD DUP1 DUP4 SUB DUP2 DUP7 GAS STATICCALL ISZERO DUP1 ISZERO PUSH2 0x1151 JUMPI RETURNDATASIZE PUSH0 PUSH0 RETURNDATACOPY RETURNDATASIZE PUSH0 REVERT JUMPDEST POP POP POP POP PUSH1 0x40 MLOAD RETURNDATASIZE PUSH1 0x1F NOT PUSH1 0x1F DUP3 ADD AND DUP3 ADD DUP1 PUSH1 0x40 MSTORE POP DUP2 ADD SWAP1 PUSH2 0x1175 SWAP2 SWAP1 PUSH2 0x55FD JUMP JUMPDEST SWAP1 POP SWAP2 SWAP1 POP JUMP JUMPDEST PUSH0 PUSH0 PUSH2 0x118A DUP7 DUP7 DUP7 DUP7 PUSH2 0x1D1B JUMP JUMPDEST SWAP1 POP PUSH2 0x11AA DUP2 PUSH2 0x119A PUSH1 0x5 PUSH2 0x25BE JUMP JUMPDEST PUSH2 0x11A4 PUSH1 0x4 PUSH2 0x25BE JUMP JUMPDEST OR PUSH2 0x25E2 JUMP JUMPDEST POP PUSH1 0x1 PUSH1 0x4 PUSH0 DUP4 DUP2 MSTORE PUSH1 0x20 ADD SWAP1 DUP2 MSTORE PUSH1 0x20 ADD PUSH0 KECCAK256 PUSH0 ADD PUSH1 0x1E PUSH2 0x100 EXP DUP2 SLOAD DUP2 PUSH1 0xFF MUL NOT AND SWAP1 DUP4 ISZERO ISZERO MUL OR SWAP1 SSTORE POP ADDRESS PUSH20 0xFFFFFFFFFFFFFFFFFFFFFFFFFFFFFFFFFFFFFFFF AND PUSH2 0x11F6 PUSH2 0xD24 JUMP JUMPDEST PUSH20 0xFFFFFFFFFFFFFFFFFFFFFFFFFFFFFFFFFFFFFFFF AND EQ PUSH2 0x12AF JUMPI PUSH0 PUSH0 SWAP1 POP JUMPDEST DUP7 MLOAD DUP2 LT ISZERO PUSH2 0x12AD JUMPI ADDRESS PUSH20 0xFFFFFFFFFFFFFFFFFFFFFFFFFFFFFFFFFFFFFFFF AND DUP8 DUP3 DUP2 MLOAD DUP2 LT PUSH2 0x1249 JUMPI PUSH2 0x1248 PUSH2 0x5628 JUMP JUMPDEST JUMPDEST PUSH1 0x20 MUL PUSH1 0x20 ADD ADD MLOAD PUSH20 0xFFFFFFFFFFFFFFFFFFFFFFFFFFFFFFFFFFFFFFFF AND SUB PUSH2 0x12A2 JUMPI PUSH2 0x12A1 DUP6 DUP3 DUP2 MLOAD DUP2 LT PUSH2 0x1282 JUMPI PUSH2 0x1281 PUSH2 0x5628 JUMP JUMPDEST JUMPDEST PUSH1 0x20 MUL PUSH1 0x20 ADD ADD MLOAD DUP1 MLOAD SWAP1 PUSH1 0x20 ADD KECCAK256 PUSH1 0x5 PUSH2 0x265A SWAP1 SWAP2 SWAP1 PUSH4 0xFFFFFFFF AND JUMP JUMPDEST JUMPDEST DUP1 PUSH1 0x1 ADD SWAP1 POP PUSH2 0x1216 JUMP JUMPDEST POP JUMPDEST PUSH2 0x12BC DUP2 DUP8 DUP8 DUP8 DUP8 PUSH2 0x2752 JUMP JUMPDEST ADDRESS PUSH20 0xFFFFFFFFFFFFFFFFFFFFFFFFFFFFFFFFFFFFFFFF AND PUSH2 0x12DB PUSH2 0xD24 JUMP JUMPDEST PUSH20 0xFFFFFFFFFFFFFFFFFFFFFFFFFFFFFFFFFFFFFFFF AND EQ ISZERO DUP1 ISZERO PUSH2 0x1306 JUMPI POP PUSH2 0x1304 PUSH1 0x5 PUSH2 0x283A JUMP JUMPDEST ISZERO JUMPDEST ISZERO PUSH2 0x1316 JUMPI PUSH2 0x1315 PUSH1 0x5 PUSH2 0x28A6 JUMP JUMPDEST JUMPDEST PUSH32 0x712AE1383F79AC853F8D882153778E0260EF8F03B504E2866E0593E04D2B291F DUP2 PUSH1 0x40 MLOAD PUSH2 0x1345 SWAP2 SWAP1 PUSH2 0x41AB JUMP JUMPDEST PUSH1 0x40 MLOAD DUP1 SWAP2 SUB SWAP1 LOG1 DUP1 SWAP2 POP POP SWAP5 SWAP4 POP POP POP POP JUMP JUMPDEST PUSH0 PUSH1 0x4 PUSH0 DUP4 DUP2 MSTORE PUSH1 0x20 ADD SWAP1 DUP2 MSTORE PUSH1 0x20 ADD PUSH0 KECCAK256 PUSH0 ADD PUSH1 0x14 SWAP1 SLOAD SWAP1 PUSH2 0x100 EXP SWAP1 DIV PUSH6 0xFFFFFFFFFFFF AND PUSH6 0xFFFFFFFFFFFF AND SWAP1 POP SWAP2 SWAP1 POP JUMP JUMPDEST PUSH32 0x3E83946653575F9A39005E1545185629E92736B7528AB20CA3816F315424A811 DUP2 JUMP JUMPDEST PUSH0 PUSH1 0x8 PUSH0 SWAP1 SLOAD SWAP1 PUSH2 0x100 EXP SWAP1 DIV PUSH6 0xFFFFFFFFFFFF AND PUSH6 0xFFFFFFFFFFFF AND SWAP1 POP SWAP1 JUMP JUMPDEST PUSH0 PUSH0 PUSH1 0x4 PUSH0 DUP5 DUP2 MSTORE PUSH1 0x20 ADD SWAP1 DUP2 MSTORE PUSH1 0x20 ADD PUSH0 KECCAK256 SWAP1 POP PUSH0 DUP2 PUSH0 ADD PUSH1 0x1E SWAP1 SLOAD SWAP1 PUSH2 0x100 EXP SWAP1 DIV PUSH1 0xFF AND SWAP1 POP PUSH0 DUP3 PUSH0 ADD PUSH1 0x1F SWAP1 SLOAD SWAP1 PUSH2 0x100 EXP SWAP1 DIV PUSH1 0xFF AND SWAP1 POP DUP2 ISZERO PUSH2 0x1424 JUMPI PUSH1 0x7 SWAP4 POP POP POP POP PUSH2 0x1527 JUMP JUMPDEST DUP1 ISZERO PUSH2 0x1436 JUMPI PUSH1 0x2 SWAP4 POP POP POP POP PUSH2 0x1527 JUMP JUMPDEST PUSH0 PUSH2 0x1440 DUP7 PUSH2 0x1359 JUMP JUMPDEST SWAP1 POP PUSH0 DUP2 SUB PUSH2 0x1486 JUMPI DUP6 PUSH1 0x40 MLOAD PUSH32 0x6AD0607500000000000000000000000000000000000000000000000000000000 DUP2 MSTORE PUSH1 0x4 ADD PUSH2 0x147D SWAP2 SWAP1 PUSH2 0x41AB JUMP JUMPDEST PUSH1 0x40 MLOAD DUP1 SWAP2 SUB SWAP1 REVERT JUMPDEST PUSH0 PUSH2 0x148F PUSH2 0x1C33 JUMP JUMPDEST PUSH6 0xFFFFFFFFFFFF AND SWAP1 POP DUP1 DUP3 LT PUSH2 0x14AD JUMPI PUSH0 SWAP6 POP POP POP POP POP POP PUSH2 0x1527 JUMP JUMPDEST PUSH0 PUSH2 0x14B7 DUP9 PUSH2 0x1E23 JUMP JUMPDEST SWAP1 POP DUP2 DUP2 LT PUSH2 0x14CF JUMPI PUSH1 0x1 SWAP7 POP POP POP POP POP POP POP PUSH2 0x1527 JUMP JUMPDEST PUSH2 0x14D8 DUP9 PUSH2 0x291C JUMP JUMPDEST ISZERO DUP1 PUSH2 0x14EA JUMPI POP PUSH2 0x14E8 DUP9 PUSH2 0x2960 JUMP JUMPDEST ISZERO JUMPDEST ISZERO PUSH2 0x14FE JUMPI PUSH1 0x3 SWAP7 POP POP POP POP POP POP POP PUSH2 0x1527 JUMP JUMPDEST PUSH0 PUSH2 0x1508 DUP10 PUSH2 0x1D3B JUMP JUMPDEST SUB PUSH2 0x151C JUMPI PUSH1 0x4 SWAP7 POP POP POP POP POP POP POP PUSH2 0x1527 JUMP JUMPDEST PUSH1 0x5 SWAP7 POP POP POP POP POP POP POP JUMPDEST SWAP2 SWAP1 POP JUMP JUMPDEST PUSH0 PUSH1 0x9 PUSH0 DUP5 DUP2 MSTORE PUSH1 0x20 ADD SWAP1 DUP2 MSTORE PUSH1 0x20 ADD PUSH0 KECCAK256 PUSH1 0x3 ADD PUSH0 DUP4 PUSH20 0xFFFFFFFFFFFFFFFFFFFFFFFFFFFFFFFFFFFFFFFF AND PUSH20 0xFFFFFFFFFFFFFFFFFFFFFFFFFFFFFFFFFFFFFFFF AND DUP2 MSTORE PUSH1 0x20 ADD SWAP1 DUP2 MSTORE PUSH1 0x20 ADD PUSH0 KECCAK256 PUSH0 SWAP1 SLOAD SWAP1 PUSH2 0x100 EXP SWAP1 DIV PUSH1 0xFF AND SWAP1 POP SWAP3 SWAP2 POP POP JUMP JUMPDEST PUSH0 PUSH0 PUSH2 0x159F DUP7 DUP7 DUP7 DUP7 PUSH2 0x1D1B JUMP JUMPDEST SWAP1 POP PUSH0 PUSH2 0x15AA PUSH2 0x2987 JUMP JUMPDEST SWAP1 POP PUSH2 0x15B6 DUP3 DUP3 PUSH2 0x298E JUMP JUMPDEST PUSH2 0x15F9 JUMPI DUP2 DUP2 PUSH1 0x40 MLOAD PUSH32 0x8FE5D8A900000000000000000000000000000000000000000000000000000000 DUP2 MSTORE PUSH1 0x4 ADD PUSH2 0x15F0 SWAP3 SWAP2 SWAP1 PUSH2 0x5655 JUMP JUMPDEST PUSH1 0x40 MLOAD DUP1 SWAP2 SUB SWAP1 REVERT JUMPDEST PUSH2 0x1605 DUP8 DUP8 DUP8 DUP8 PUSH2 0x2A05 JUMP JUMPDEST SWAP3 POP POP POP SWAP5 SWAP4 POP POP POP POP JUMP JUMPDEST PUSH1 0x60 PUSH2 0x161B PUSH2 0x252E JUMP JUMPDEST PUSH20 0xFFFFFFFFFFFFFFFFFFFFFFFFFFFFFFFFFFFFFFFF AND PUSH4 0x4BF5D7E9 PUSH1 0x40 MLOAD DUP2 PUSH4 0xFFFFFFFF AND PUSH1 0xE0 SHL DUP2 MSTORE PUSH1 0x4 ADD PUSH0 PUSH1 0x40 MLOAD DUP1 DUP4 SUB DUP2 DUP7 GAS STATICCALL SWAP3 POP POP POP DUP1 ISZERO PUSH2 0x1685 JUMPI POP PUSH1 0x40 MLOAD RETURNDATASIZE PUSH0 DUP3 RETURNDATACOPY RETURNDATASIZE PUSH1 0x1F NOT PUSH1 0x1F DUP3 ADD AND DUP3 ADD DUP1 PUSH1 0x40 MSTORE POP DUP2 ADD SWAP1 PUSH2 0x1682 SWAP2 SWAP1 PUSH2 0x56EA JUMP JUMPDEST PUSH1 0x1 JUMPDEST PUSH2 0x16C6 JUMPI PUSH1 0x40 MLOAD DUP1 PUSH1 0x40 ADD PUSH1 0x40 MSTORE DUP1 PUSH1 0x1D DUP2 MSTORE PUSH1 0x20 ADD PUSH32 0x6D6F64653D626C6F636B6E756D6265722666726F6D3D64656661756C74000000 DUP2 MSTORE POP SWAP1 POP PUSH2 0x16CB JUMP JUMPDEST DUP1 SWAP2 POP POP JUMPDEST SWAP1 JUMP JUMPDEST PUSH0 PUSH0 PUSH0 PUSH0 PUSH1 0x9 PUSH0 DUP7 DUP2 MSTORE PUSH1 0x20 ADD SWAP1 DUP2 MSTORE PUSH1 0x20 ADD PUSH0 KECCAK256 SWAP1 POP DUP1 PUSH0 ADD SLOAD DUP2 PUSH1 0x1 ADD SLOAD DUP3 PUSH1 0x2 ADD SLOAD SWAP4 POP SWAP4 POP SWAP4 POP POP SWAP2 SWAP4 SWAP1 SWAP3 POP JUMP JUMPDEST PUSH1 0x60 PUSH1 0x40 MLOAD DUP1 PUSH1 0x40 ADD PUSH1 0x40 MSTORE DUP1 PUSH1 0x1 DUP2 MSTORE PUSH1 0x20 ADD PUSH32 0x3100000000000000000000000000000000000000000000000000000000000000 DUP2 MSTORE POP SWAP1 POP SWAP1 JUMP JUMPDEST PUSH0 PUSH0 PUSH2 0x1748 PUSH2 0x2987 JUMP JUMPDEST SWAP1 POP PUSH2 0x1764 DUP5 DUP3 DUP6 PUSH1 0x40 MLOAD DUP1 PUSH1 0x20 ADD PUSH1 0x40 MSTORE DUP1 PUSH0 DUP2 MSTORE POP PUSH2 0x2AE7 JUMP JUMPDEST SWAP2 POP POP SWAP3 SWAP2 POP POP JUMP JUMPDEST PUSH0 PUSH0 PUSH2 0x17FA DUP8 PUSH2 0x17F4 PUSH32 0x3E83946653575F9A39005E1545185629E92736B7528AB20CA3816F315424A811 DUP13 DUP13 DUP13 PUSH2 0x17A3 DUP15 PUSH2 0x2B06 JUMP JUMPDEST DUP14 DUP14 PUSH1 0x40 MLOAD PUSH2 0x17B3 SWAP3 SWAP2 SWAP1 PUSH2 0x575F JUMP JUMPDEST PUSH1 0x40 MLOAD DUP1 SWAP2 SUB SWAP1 KECCAK256 DUP13 DUP1 MLOAD SWAP1 PUSH1 0x20 ADD KECCAK256 PUSH1 0x40 MLOAD PUSH1 0x20 ADD PUSH2 0x17D9 SWAP8 SWAP7 SWAP6 SWAP5 SWAP4 SWAP3 SWAP2 SWAP1 PUSH2 0x5786 JUMP JUMPDEST PUSH1 0x40 MLOAD PUSH1 0x20 DUP2 DUP4 SUB SUB DUP2 MSTORE SWAP1 PUSH1 0x40 MSTORE DUP1 MLOAD SWAP1 PUSH1 0x20 ADD KECCAK256 PUSH2 0x2B59 JUMP JUMPDEST DUP6 PUSH2 0x2B72 JUMP JUMPDEST SWAP1 POP DUP1 PUSH2 0x183E JUMPI DUP7 PUSH1 0x40 MLOAD PUSH32 0x94AB6C0700000000000000000000000000000000000000000000000000000000 DUP2 MSTORE PUSH1 0x4 ADD PUSH2 0x1835 SWAP2 SWAP1 PUSH2 0x42E8 JUMP JUMPDEST PUSH1 0x40 MLOAD DUP1 SWAP2 SUB SWAP1 REVERT JUMPDEST PUSH2 0x188E DUP10 DUP9 DUP11 DUP10 DUP10 DUP1 DUP1 PUSH1 0x1F ADD PUSH1 0x20 DUP1 SWAP2 DIV MUL PUSH1 0x20 ADD PUSH1 0x40 MLOAD SWAP1 DUP2 ADD PUSH1 0x40 MSTORE DUP1 SWAP4 SWAP3 SWAP2 SWAP1 DUP2 DUP2 MSTORE PUSH1 0x20 ADD DUP4 DUP4 DUP1 DUP3 DUP5 CALLDATACOPY PUSH0 DUP2 DUP5 ADD MSTORE PUSH1 0x1F NOT PUSH1 0x1F DUP3 ADD AND SWAP1 POP DUP1 DUP4 ADD SWAP3 POP POP POP POP POP POP POP DUP9 PUSH2 0x2C1E JUMP JUMPDEST SWAP2 POP POP SWAP8 SWAP7 POP POP POP POP POP POP POP JUMP JUMPDEST PUSH0 PUSH0 PUSH2 0x18A6 PUSH2 0x2987 JUMP JUMPDEST SWAP1 POP PUSH2 0x18F8 DUP8 DUP3 DUP9 DUP9 DUP9 DUP1 DUP1 PUSH1 0x1F ADD PUSH1 0x20 DUP1 SWAP2 DIV MUL PUSH1 0x20 ADD PUSH1 0x40 MLOAD SWAP1 DUP2 ADD PUSH1 0x40 MSTORE DUP1 SWAP4 SWAP3 SWAP2 SWAP1 DUP2 DUP2 MSTORE PUSH1 0x20 ADD DUP4 DUP4 DUP1 DUP3 DUP5 CALLDATACOPY PUSH0 DUP2 DUP5 ADD MSTORE PUSH1 0x1F NOT PUSH1 0x1F DUP3 ADD AND SWAP1 POP DUP1 DUP4 ADD SWAP3 POP POP POP POP POP POP POP DUP8 PUSH2 0x2C1E JUMP JUMPDEST SWAP2 POP POP SWAP6 SWAP5 POP POP POP POP POP JUMP JUMPDEST PUSH2 0x190C PUSH2 0x2D28 JUMP JUMPDEST PUSH2 0x1915 DUP2 PUSH2 0x2E1D JUMP JUMPDEST POP JUMP JUMPDEST PUSH0 PUSH0 PUSH2 0x1922 PUSH2 0x2987 JUMP JUMPDEST SWAP1 POP PUSH2 0x1973 DUP7 DUP3 DUP8 DUP8 DUP8 DUP1 DUP1 PUSH1 0x1F ADD PUSH1 0x20 DUP1 SWAP2 DIV MUL PUSH1 0x20 ADD PUSH1 0x40 MLOAD SWAP1 DUP2 ADD PUSH1 0x40 MSTORE DUP1 SWAP4 SWAP3 SWAP2 SWAP1 DUP2 DUP2 MSTORE PUSH1 0x20 ADD DUP4 DUP4 DUP1 DUP3 DUP5 CALLDATACOPY PUSH0 DUP2 DUP5 ADD MSTORE PUSH1 0x1F NOT PUSH1 0x1F DUP3 ADD AND SWAP1 POP DUP1 DUP4 ADD SWAP3 POP POP POP POP POP POP POP PUSH2 0x2AE7 JUMP JUMPDEST SWAP2 POP POP SWAP5 SWAP4 POP POP POP POP JUMP JUMPDEST PUSH0 PUSH0 PUSH2 0x1988 PUSH2 0x2987 JUMP JUMPDEST SWAP1 POP PUSH2 0x1994 DUP2 DUP5 PUSH2 0x2E90 JUMP JUMPDEST PUSH2 0x19D5 JUMPI DUP1 PUSH1 0x40 MLOAD PUSH32 0xD9B3955700000000000000000000000000000000000000000000000000000000 DUP2 MSTORE PUSH1 0x4 ADD PUSH2 0x19CC SWAP2 SWAP1 PUSH2 0x42E8 JUMP JUMPDEST PUSH1 0x40 MLOAD DUP1 SWAP2 SUB SWAP1 REVERT JUMPDEST PUSH0 PUSH2 0x19DE PUSH2 0x1D95 JUMP JUMPDEST SWAP1 POP PUSH0 DUP2 GT ISZERO PUSH2 0x1A5B JUMPI PUSH0 PUSH2 0x1A0E DUP4 PUSH1 0x1 PUSH2 0x19F7 PUSH2 0x1C33 JUMP JUMPDEST PUSH2 0x1A01 SWAP2 SWAP1 PUSH2 0x5820 JUMP JUMPDEST PUSH6 0xFFFFFFFFFFFF AND PUSH2 0x23DE JUMP JUMPDEST SWAP1 POP DUP2 DUP2 LT ISZERO PUSH2 0x1A59 JUMPI DUP3 DUP2 DUP4 PUSH1 0x40 MLOAD PUSH32 0xC242EE1600000000000000000000000000000000000000000000000000000000 DUP2 MSTORE PUSH1 0x4 ADD PUSH2 0x1A50 SWAP4 SWAP3 SWAP2 SWAP1 PUSH2 0x5859 JUMP JUMPDEST PUSH1 0x40 MLOAD DUP1 SWAP2 SUB SWAP1 REVERT JUMPDEST POP JUMPDEST PUSH2 0x1A68 DUP8 DUP8 DUP8 DUP8 DUP7 PUSH2 0x2F76 JUMP JUMPDEST SWAP3 POP POP POP SWAP5 SWAP4 POP POP POP POP JUMP JUMPDEST PUSH0 PUSH1 0x2 PUSH0 DUP4 PUSH20 0xFFFFFFFFFFFFFFFFFFFFFFFFFFFFFFFFFFFFFFFF AND PUSH20 0xFFFFFFFFFFFFFFFFFFFFFFFFFFFFFFFFFFFFFFFF AND DUP2 MSTORE PUSH1 0x20 ADD SWAP1 DUP2 MSTORE PUSH1 0x20 ADD PUSH0 KECCAK256 SLOAD SWAP1 POP SWAP2 SWAP1 POP JUMP JUMPDEST PUSH0 PUSH1 0x60 DUP1 PUSH0 PUSH0 PUSH0 PUSH1 0x60 PUSH2 0x1ACB PUSH2 0x31FB JUMP JUMPDEST PUSH2 0x1AD3 PUSH2 0x3235 JUMP JUMPDEST CHAINID ADDRESS PUSH0 PUSH0 SHL PUSH0 PUSH8 0xFFFFFFFFFFFFFFFF DUP2 GT ISZERO PUSH2 0x1AF2 JUMPI PUSH2 0x1AF1 PUSH2 0x4333 JUMP JUMPDEST JUMPDEST PUSH1 0x40 MLOAD SWAP1 DUP1 DUP3 MSTORE DUP1 PUSH1 0x20 MUL PUSH1 0x20 ADD DUP3 ADD PUSH1 0x40 MSTORE DUP1 ISZERO PUSH2 0x1B20 JUMPI DUP2 PUSH1 0x20 ADD PUSH1 0x20 DUP3 MUL DUP1 CALLDATASIZE DUP4 CALLDATACOPY DUP1 DUP3 ADD SWAP2 POP POP SWAP1 POP JUMPDEST POP PUSH32 0xF00000000000000000000000000000000000000000000000000000000000000 SWAP6 SWAP5 SWAP4 SWAP3 SWAP2 SWAP1 SWAP7 POP SWAP7 POP SWAP7 POP SWAP7 POP SWAP7 POP SWAP7 POP SWAP7 POP SWAP1 SWAP2 SWAP3 SWAP4 SWAP5 SWAP6 SWAP7 JUMP JUMPDEST PUSH0 PUSH0 PUSH2 0x1BCA DUP5 PUSH2 0x1BC4 PUSH32 0xF2AAD550CF55F045CB27E9C559F9889FDFB6E6CDAA032301D6EA397784AE51D7 DUP10 DUP10 DUP10 PUSH2 0x1B95 DUP12 PUSH2 0x2B06 JUMP JUMPDEST PUSH1 0x40 MLOAD PUSH1 0x20 ADD PUSH2 0x1BA9 SWAP6 SWAP5 SWAP4 SWAP3 SWAP2 SWAP1 PUSH2 0x588E JUMP JUMPDEST PUSH1 0x40 MLOAD PUSH1 0x20 DUP2 DUP4 SUB SUB DUP2 MSTORE SWAP1 PUSH1 0x40 MSTORE DUP1 MLOAD SWAP1 PUSH1 0x20 ADD KECCAK256 PUSH2 0x2B59 JUMP JUMPDEST DUP6 PUSH2 0x2B72 JUMP JUMPDEST SWAP1 POP DUP1 PUSH2 0x1C0E JUMPI DUP4 PUSH1 0x40 MLOAD PUSH32 0x94AB6C0700000000000000000000000000000000000000000000000000000000 DUP2 MSTORE PUSH1 0x4 ADD PUSH2 0x1C05 SWAP2 SWAP1 PUSH2 0x42E8 JUMP JUMPDEST PUSH1 0x40 MLOAD DUP1 SWAP2 SUB SWAP1 REVERT JUMPDEST PUSH2 0x1C28 DUP7 DUP6 DUP8 PUSH1 0x40 MLOAD DUP1 PUSH1 0x20 ADD PUSH1 0x40 MSTORE DUP1 PUSH0 DUP2 MSTORE POP PUSH2 0x2AE7 JUMP JUMPDEST SWAP2 POP POP SWAP5 SWAP4 POP POP POP POP JUMP JUMPDEST PUSH0 PUSH2 0x1C3C PUSH2 0x252E JUMP JUMPDEST PUSH20 0xFFFFFFFFFFFFFFFFFFFFFFFFFFFFFFFFFFFFFFFF AND PUSH4 0x91DDADF4 PUSH1 0x40 MLOAD DUP2 PUSH4 0xFFFFFFFF AND PUSH1 0xE0 SHL DUP2 MSTORE PUSH1 0x4 ADD PUSH1 0x20 PUSH1 0x40 MLOAD DUP1 DUP4 SUB DUP2 DUP7 GAS STATICCALL SWAP3 POP POP POP DUP1 ISZERO PUSH2 0x1CA3 JUMPI POP PUSH1 0x40 MLOAD RETURNDATASIZE PUSH1 0x1F NOT PUSH1 0x1F DUP3 ADD AND DUP3 ADD DUP1 PUSH1 0x40 MSTORE POP DUP2 ADD SWAP1 PUSH2 0x1CA0 SWAP2 SWAP1 PUSH2 0x58F3 JUMP JUMPDEST PUSH1 0x1 JUMPDEST PUSH2 0x1CB6 JUMPI PUSH2 0x1CAF PUSH2 0x3270 JUMP JUMPDEST SWAP1 POP PUSH2 0x1CBB JUMP JUMPDEST DUP1 SWAP2 POP POP JUMPDEST SWAP1 JUMP JUMPDEST PUSH32 0x0 DUP2 JUMP JUMPDEST PUSH0 PUSH2 0x1CEE DUP5 DUP5 DUP5 PUSH2 0x327F JUMP JUMPDEST SWAP1 POP SWAP4 SWAP3 POP POP POP JUMP JUMPDEST PUSH32 0x0 DUP2 JUMP JUMPDEST PUSH0 PUSH2 0x1D28 DUP6 DUP6 DUP6 DUP6 PUSH2 0x1F3A JUMP JUMPDEST SWAP1 POP SWAP5 SWAP4 POP POP POP POP JUMP JUMPDEST PUSH0 PUSH0 SWAP1 POP SWAP2 SWAP1 POP JUMP JUMPDEST PUSH0 PUSH1 0x4 PUSH0 DUP4 DUP2 MSTORE PUSH1 0x20 ADD SWAP1 DUP2 MSTORE PUSH1 0x20 ADD PUSH0 KECCAK256 PUSH1 0x1 ADD PUSH0 SWAP1 SLOAD SWAP1 PUSH2 0x100 EXP SWAP1 DIV PUSH6 0xFFFFFFFFFFFF AND PUSH6 0xFFFFFFFFFFFF AND SWAP1 POP SWAP2 SWAP1 POP JUMP JUMPDEST PUSH32 0x0 DUP2 JUMP JUMPDEST PUSH0 PUSH2 0x1D9E PUSH2 0x330A JUMP JUMPDEST SWAP1 POP SWAP1 JUMP JUMPDEST PUSH0 ADDRESS PUSH20 0xFFFFFFFFFFFFFFFFFFFFFFFFFFFFFFFFFFFFFFFF AND PUSH2 0x1DC3 PUSH2 0xD24 JUMP JUMPDEST PUSH20 0xFFFFFFFFFFFFFFFFFFFFFFFFFFFFFFFFFFFFFFFF AND EQ PUSH2 0x1E10 JUMPI PUSH1 0x40 MLOAD PUSH32 0xE90A651E00000000000000000000000000000000000000000000000000000000 DUP2 MSTORE PUSH1 0x4 ADD PUSH1 0x40 MLOAD DUP1 SWAP2 SUB SWAP1 REVERT JUMPDEST PUSH4 0xBC197C81 PUSH1 0xE0 SHL SWAP1 POP SWAP6 SWAP5 POP POP POP POP POP JUMP JUMPDEST PUSH0 PUSH1 0x4 PUSH0 DUP4 DUP2 MSTORE PUSH1 0x20 ADD SWAP1 DUP2 MSTORE PUSH1 0x20 ADD PUSH0 KECCAK256 PUSH0 ADD PUSH1 0x1A SWAP1 SLOAD SWAP1 PUSH2 0x100 EXP SWAP1 DIV PUSH4 0xFFFFFFFF AND PUSH4 0xFFFFFFFF AND PUSH1 0x4 PUSH0 DUP5 DUP2 MSTORE PUSH1 0x20 ADD SWAP1 DUP2 MSTORE PUSH1 0x20 ADD PUSH0 KECCAK256 PUSH0 ADD PUSH1 0x14 SWAP1 SLOAD SWAP1 PUSH2 0x100 EXP SWAP1 DIV PUSH6 0xFFFFFFFFFFFF AND PUSH2 0x1E7E SWAP2 SWAP1 PUSH2 0x591E JUMP JUMPDEST PUSH6 0xFFFFFFFFFFFF AND SWAP1 POP SWAP2 SWAP1 POP JUMP JUMPDEST PUSH2 0x1E95 PUSH2 0x2D28 JUMP JUMPDEST PUSH0 PUSH0 DUP6 PUSH20 0xFFFFFFFFFFFFFFFFFFFFFFFFFFFFFFFFFFFFFFFF AND DUP6 DUP6 DUP6 PUSH1 0x40 MLOAD PUSH2 0x1EBF SWAP3 SWAP2 SWAP1 PUSH2 0x575F JUMP JUMPDEST PUSH0 PUSH1 0x40 MLOAD DUP1 DUP4 SUB DUP2 DUP6 DUP8 GAS CALL SWAP3 POP POP POP RETURNDATASIZE DUP1 PUSH0 DUP2 EQ PUSH2 0x1EF9 JUMPI PUSH1 0x40 MLOAD SWAP2 POP PUSH1 0x1F NOT PUSH1 0x3F RETURNDATASIZE ADD AND DUP3 ADD PUSH1 0x40 MSTORE RETURNDATASIZE DUP3 MSTORE RETURNDATASIZE PUSH0 PUSH1 0x20 DUP5 ADD RETURNDATACOPY PUSH2 0x1EFE JUMP JUMPDEST PUSH1 0x60 SWAP2 POP JUMPDEST POP SWAP2 POP SWAP2 POP PUSH2 0x1F0D DUP3 DUP3 PUSH2 0x3313 JUMP JUMPDEST POP POP POP POP POP POP POP JUMP JUMPDEST PUSH32 0x0 DUP2 JUMP JUMPDEST PUSH0 DUP5 DUP5 DUP5 DUP5 PUSH1 0x40 MLOAD PUSH1 0x20 ADD PUSH2 0x1F52 SWAP5 SWAP4 SWAP3 SWAP2 SWAP1 PUSH2 0x5B1B JUMP JUMPDEST PUSH1 0x40 MLOAD PUSH1 0x20 DUP2 DUP4 SUB SUB DUP2 MSTORE SWAP1 PUSH1 0x40 MSTORE DUP1 MLOAD SWAP1 PUSH1 0x20 ADD KECCAK256 PUSH0 SHR SWAP1 POP SWAP5 SWAP4 POP POP POP POP JUMP JUMPDEST PUSH0 PUSH32 0x0 PUSH20 0xFFFFFFFFFFFFFFFFFFFFFFFFFFFFFFFFFFFFFFFF AND PUSH4 0x11461014 DUP5 PUSH1 0x40 MLOAD DUP3 PUSH4 0xFFFFFFFF AND PUSH1 0xE0 SHL DUP2 MSTORE PUSH1 0x4 ADD PUSH2 0x1FCE SWAP2 SWAP1 PUSH2 0x41AB JUMP JUMPDEST PUSH1 0x20 PUSH1 0x40 MLOAD DUP1 DUP4 SUB DUP2 DUP7 GAS STATICCALL ISZERO DUP1 ISZERO PUSH2 0x1FE9 JUMPI RETURNDATASIZE PUSH0 PUSH0 RETURNDATACOPY RETURNDATASIZE PUSH0 REVERT JUMPDEST POP POP POP POP PUSH1 0x40 MLOAD RETURNDATASIZE PUSH1 0x1F NOT PUSH1 0x1F DUP3 ADD AND DUP3 ADD DUP1 PUSH1 0x40 MSTORE POP DUP2 ADD SWAP1 PUSH2 0x200D SWAP2 SWAP1 PUSH2 0x5B9D JUMP JUMPDEST PUSH2 0x204C JUMPI PUSH1 0x40 MLOAD PUSH32 0x8C379A000000000000000000000000000000000000000000000000000000000 DUP2 MSTORE PUSH1 0x4 ADD PUSH2 0x2043 SWAP1 PUSH2 0x5C12 JUMP JUMPDEST PUSH1 0x40 MLOAD DUP1 SWAP2 SUB SWAP1 REVERT JUMPDEST PUSH9 0x3635C9ADC5DEA00000 PUSH32 0x0 PUSH20 0xFFFFFFFFFFFFFFFFFFFFFFFFFFFFFFFFFFFFFFFF AND PUSH4 0x70A08231 CALLER PUSH1 0x40 MLOAD DUP3 PUSH4 0xFFFFFFFF AND PUSH1 0xE0 SHL DUP2 MSTORE PUSH1 0x4 ADD PUSH2 0x20AF SWAP2 SWAP1 PUSH2 0x42E8 JUMP JUMPDEST PUSH1 0x20 PUSH1 0x40 MLOAD DUP1 DUP4 SUB DUP2 DUP7 GAS STATICCALL ISZERO DUP1 ISZERO PUSH2 0x20CA JUMPI RETURNDATASIZE PUSH0 PUSH0 RETURNDATACOPY RETURNDATASIZE PUSH0 REVERT JUMPDEST POP POP POP POP PUSH1 0x40 MLOAD RETURNDATASIZE PUSH1 0x1F NOT PUSH1 0x1F DUP3 ADD AND DUP3 ADD DUP1 PUSH1 0x40 MSTORE POP DUP2 ADD SWAP1 PUSH2 0x20EE SWAP2 SWAP1 PUSH2 0x55FD JUMP JUMPDEST LT ISZERO PUSH2 0x212F JUMPI PUSH1 0x40 MLOAD PUSH32 0x8C379A000000000000000000000000000000000000000000000000000000000 DUP2 MSTORE PUSH1 0x4 ADD PUSH2 0x2126 SWAP1 PUSH2 0x5C7A JUMP JUMPDEST PUSH1 0x40 MLOAD DUP1 SWAP2 SUB SWAP1 REVERT JUMPDEST PUSH0 PUSH1 0x1 PUSH8 0xFFFFFFFFFFFFFFFF DUP2 GT ISZERO PUSH2 0x214B JUMPI PUSH2 0x214A PUSH2 0x4333 JUMP JUMPDEST JUMPDEST PUSH1 0x40 MLOAD SWAP1 DUP1 DUP3 MSTORE DUP1 PUSH1 0x20 MUL PUSH1 0x20 ADD DUP3 ADD PUSH1 0x40 MSTORE DUP1 ISZERO PUSH2 0x2179 JUMPI DUP2 PUSH1 0x20 ADD PUSH1 0x20 DUP3 MUL DUP1 CALLDATASIZE DUP4 CALLDATACOPY DUP1 DUP3 ADD SWAP2 POP POP SWAP1 POP JUMPDEST POP SWAP1 POP PUSH0 PUSH1 0x1 PUSH8 0xFFFFFFFFFFFFFFFF DUP2 GT ISZERO PUSH2 0x2198 JUMPI PUSH2 0x2197 PUSH2 0x4333 JUMP JUMPDEST JUMPDEST PUSH1 0x40 MLOAD SWAP1 DUP1 DUP3 MSTORE DUP1 PUSH1 0x20 MUL PUSH1 0x20 ADD DUP3 ADD PUSH1 0x40 MSTORE DUP1 ISZERO PUSH2 0x21C6 JUMPI DUP2 PUSH1 0x20 ADD PUSH1 0x20 DUP3 MUL DUP1 CALLDATASIZE DUP4 CALLDATACOPY DUP1 DUP3 ADD SWAP2 POP POP SWAP1 POP JUMPDEST POP SWAP1 POP PUSH0 PUSH1 0x1 PUSH8 0xFFFFFFFFFFFFFFFF DUP2 GT ISZERO PUSH2 0x21E5 JUMPI PUSH2 0x21E4 PUSH2 0x4333 JUMP JUMPDEST JUMPDEST PUSH1 0x40 MLOAD SWAP1 DUP1 DUP3 MSTORE DUP1 PUSH1 0x20 MUL PUSH1 0x20 ADD DUP3 ADD PUSH1 0x40 MSTORE DUP1 ISZERO PUSH2 0x2218 JUMPI DUP2 PUSH1 0x20 ADD JUMPDEST PUSH1 0x60 DUP2 MSTORE PUSH1 0x20 ADD SWAP1 PUSH1 0x1 SWAP1 SUB SWAP1 DUP2 PUSH2 0x2203 JUMPI SWAP1 POP JUMPDEST POP SWAP1 POP PUSH32 0x0 DUP4 PUSH0 DUP2 MLOAD DUP2 LT PUSH2 0x224F JUMPI PUSH2 0x224E PUSH2 0x5628 JUMP JUMPDEST JUMPDEST PUSH1 0x20 MUL PUSH1 0x20 ADD ADD SWAP1 PUSH20 0xFFFFFFFFFFFFFFFFFFFFFFFFFFFFFFFFFFFFFFFF AND SWAP1 DUP2 PUSH20 0xFFFFFFFFFFFFFFFFFFFFFFFFFFFFFFFFFFFFFFFF AND DUP2 MSTORE POP POP PUSH4 0xF3A4735A PUSH1 0xE0 SHL DUP7 CALLER PUSH1 0x40 MLOAD PUSH1 0x24 ADD PUSH2 0x22A4 SWAP3 SWAP2 SWAP1 PUSH2 0x5655 JUMP JUMPDEST PUSH1 0x40 MLOAD PUSH1 0x20 DUP2 DUP4 SUB SUB DUP2 MSTORE SWAP1 PUSH1 0x40 MSTORE SWAP1 PUSH28 0xFFFFFFFFFFFFFFFFFFFFFFFFFFFFFFFFFFFFFFFFFFFFFFFFFFFFFFFF NOT AND PUSH1 0x20 DUP3 ADD DUP1 MLOAD PUSH28 0xFFFFFFFFFFFFFFFFFFFFFFFFFFFFFFFFFFFFFFFFFFFFFFFFFFFFFFFF DUP4 DUP2 DUP4 AND OR DUP4 MSTORE POP POP POP POP DUP2 PUSH0 DUP2 MLOAD DUP2 LT PUSH2 0x2314 JUMPI PUSH2 0x2313 PUSH2 0x5628 JUMP JUMPDEST JUMPDEST PUSH1 0x20 MUL PUSH1 0x20 ADD ADD DUP2 SWAP1 MSTORE POP PUSH0 PUSH2 0x232C DUP5 DUP5 DUP5 DUP10 PUSH2 0x197E JUMP JUMPDEST SWAP1 POP DUP7 DUP2 PUSH32 0x1E873190FF9044DF2C87BC6E2678DC766CD32989C837D9DF94F0CD243545E84A PUSH1 0x40 MLOAD PUSH1 0x40 MLOAD DUP1 SWAP2 SUB SWAP1 LOG3 DUP1 SWAP5 POP POP POP POP POP SWAP3 SWAP2 POP POP JUMP JUMPDEST PUSH1 0x60 PUSH1 0x40 MLOAD DUP1 PUSH1 0x40 ADD PUSH1 0x40 MSTORE DUP1 PUSH1 0x20 DUP2 MSTORE PUSH1 0x20 ADD PUSH32 0x737570706F72743D627261766F2671756F72756D3D666F722C6162737461696E DUP2 MSTORE POP SWAP1 POP SWAP1 JUMP JUMPDEST PUSH32 0xF2AAD550CF55F045CB27E9C559F9889FDFB6E6CDAA032301D6EA397784AE51D7 DUP2 JUMP JUMPDEST PUSH2 0x23D2 PUSH2 0x2D28 JUMP JUMPDEST PUSH2 0x23DB DUP2 PUSH2 0x3337 JUMP JUMPDEST POP JUMP JUMPDEST PUSH0 PUSH2 0x23F1 DUP4 DUP4 PUSH2 0x23EC PUSH2 0x33F0 JUMP JUMPDEST PUSH2 0x327F JUMP JUMPDEST SWAP1 POP SWAP3 SWAP2 POP POP JUMP JUMPDEST PUSH2 0x2401 PUSH2 0x2D28 JUMP JUMPDEST PUSH2 0x240A DUP2 PUSH2 0x3406 JUMP JUMPDEST POP JUMP JUMPDEST PUSH0 ADDRESS PUSH20 0xFFFFFFFFFFFFFFFFFFFFFFFFFFFFFFFFFFFFFFFF AND PUSH2 0x242D PUSH2 0xD24 JUMP JUMPDEST PUSH20 0xFFFFFFFFFFFFFFFFFFFFFFFFFFFFFFFFFFFFFFFF AND EQ PUSH2 0x247A JUMPI PUSH1 0x40 MLOAD PUSH32 0xE90A651E00000000000000000000000000000000000000000000000000000000 DUP2 MSTORE PUSH1 0x4 ADD PUSH1 0x40 MLOAD DUP1 SWAP2 SUB SWAP1 REVERT JUMPDEST PUSH4 0xF23A6E61 PUSH1 0xE0 SHL SWAP1 POP SWAP6 SWAP5 POP POP POP POP POP JUMP JUMPDEST PUSH0 PUSH1 0x64 PUSH32 0x0 PUSH20 0xFFFFFFFFFFFFFFFFFFFFFFFFFFFFFFFFFFFFFFFF AND PUSH4 0x18160DDD PUSH1 0x40 MLOAD DUP2 PUSH4 0xFFFFFFFF AND PUSH1 0xE0 SHL DUP2 MSTORE PUSH1 0x4 ADD PUSH1 0x20 PUSH1 0x40 MLOAD DUP1 DUP4 SUB DUP2 DUP7 GAS STATICCALL ISZERO DUP1 ISZERO PUSH2 0x24F9 JUMPI RETURNDATASIZE PUSH0 PUSH0 RETURNDATACOPY RETURNDATASIZE PUSH0 REVERT JUMPDEST POP POP POP POP PUSH1 0x40 MLOAD RETURNDATASIZE PUSH1 0x1F NOT PUSH1 0x1F DUP3 ADD AND DUP3 ADD DUP1 PUSH1 0x40 MSTORE POP DUP2 ADD SWAP1 PUSH2 0x251D SWAP2 SWAP1 PUSH2 0x55FD JUMP JUMPDEST PUSH2 0x2527 SWAP2 SWAP1 PUSH2 0x5CC5 JUMP JUMPDEST SWAP1 POP SWAP2 SWAP1 POP JUMP JUMPDEST PUSH0 PUSH32 0x0 SWAP1 POP SWAP1 JUMP JUMPDEST PUSH0 PUSH32 0x1FFC9A700000000000000000000000000000000000000000000000000000000 PUSH28 0xFFFFFFFFFFFFFFFFFFFFFFFFFFFFFFFFFFFFFFFFFFFFFFFFFFFFFFFF NOT AND DUP3 PUSH28 0xFFFFFFFFFFFFFFFFFFFFFFFFFFFFFFFFFFFFFFFFFFFFFFFFFFFFFFFF NOT AND EQ SWAP1 POP SWAP2 SWAP1 POP JUMP JUMPDEST PUSH0 DUP2 PUSH1 0x7 DUP2 GT ISZERO PUSH2 0x25D2 JUMPI PUSH2 0x25D1 PUSH2 0x489F JUMP JUMPDEST JUMPDEST PUSH1 0xFF AND PUSH1 0x1 SWAP1 SHL PUSH0 SHL SWAP1 POP SWAP2 SWAP1 POP JUMP JUMPDEST PUSH0 PUSH0 PUSH2 0x25ED DUP5 PUSH2 0x13D5 JUMP JUMPDEST SWAP1 POP PUSH0 PUSH0 SHL DUP4 PUSH2 0x25FC DUP4 PUSH2 0x25BE JUMP JUMPDEST AND SUB PUSH2 0x2643 JUMPI DUP4 DUP2 DUP5 PUSH1 0x40 MLOAD PUSH32 0x31B75E4D00000000000000000000000000000000000000000000000000000000 DUP2 MSTORE PUSH1 0x4 ADD PUSH2 0x263A SWAP4 SWAP3 SWAP2 SWAP1 PUSH2 0x5CF5 JUMP JUMPDEST PUSH1 0x40 MLOAD DUP1 SWAP2 SUB SWAP1 REVERT JUMPDEST DUP1 SWAP2 POP POP SWAP3 SWAP2 POP POP JUMP JUMPDEST PUSH0 PUSH0 SWAP1 POP SWAP6 SWAP5 POP POP POP POP POP JUMP JUMPDEST PUSH0 DUP3 PUSH0 ADD PUSH1 0x10 SWAP1 SLOAD SWAP1 PUSH2 0x100 EXP SWAP1 DIV PUSH16 0xFFFFFFFFFFFFFFFFFFFFFFFFFFFFFFFF AND SWAP1 POP DUP3 PUSH0 ADD PUSH0 SWAP1 SLOAD SWAP1 PUSH2 0x100 EXP SWAP1 DIV PUSH16 0xFFFFFFFFFFFFFFFFFFFFFFFFFFFFFFFF AND PUSH16 0xFFFFFFFFFFFFFFFFFFFFFFFFFFFFFFFF AND PUSH1 0x1 DUP3 ADD PUSH16 0xFFFFFFFFFFFFFFFFFFFFFFFFFFFFFFFF AND SUB PUSH2 0x26D4 JUMPI PUSH2 0x26D3 PUSH1 0x41 PUSH2 0x344B JUMP JUMPDEST JUMPDEST DUP2 DUP4 PUSH1 0x1 ADD PUSH0 DUP4 PUSH16 0xFFFFFFFFFFFFFFFFFFFFFFFFFFFFFFFF AND PUSH16 0xFFFFFFFFFFFFFFFFFFFFFFFFFFFFFFFF AND DUP2 MSTORE PUSH1 0x20 ADD SWAP1 DUP2 MSTORE PUSH1 0x20 ADD PUSH0 KECCAK256 DUP2 SWAP1 SSTORE POP PUSH1 0x1 DUP2 ADD DUP4 PUSH0 ADD PUSH1 0x10 PUSH2 0x100 EXP DUP2 SLOAD DUP2 PUSH16 0xFFFFFFFFFFFFFFFFFFFFFFFFFFFFFFFF MUL NOT AND SWAP1 DUP4 PUSH16 0xFFFFFFFFFFFFFFFFFFFFFFFFFFFFFFFF AND MUL OR SWAP1 SSTORE POP POP POP POP JUMP JUMPDEST PUSH0 PUSH0 SWAP1 POP JUMPDEST DUP5 MLOAD DUP2 LT ISZERO PUSH2 0x2832 JUMPI PUSH0 PUSH0 DUP7 DUP4 DUP2 MLOAD DUP2 LT PUSH2 0x2775 JUMPI PUSH2 0x2774 PUSH2 0x5628 JUMP JUMPDEST JUMPDEST PUSH1 0x20 MUL PUSH1 0x20 ADD ADD MLOAD PUSH20 0xFFFFFFFFFFFFFFFFFFFFFFFFFFFFFFFFFFFFFFFF AND DUP7 DUP5 DUP2 MLOAD DUP2 LT PUSH2 0x27A6 JUMPI PUSH2 0x27A5 PUSH2 0x5628 JUMP JUMPDEST JUMPDEST PUSH1 0x20 MUL PUSH1 0x20 ADD ADD MLOAD DUP7 DUP6 DUP2 MLOAD DUP2 LT PUSH2 0x27C1 JUMPI PUSH2 0x27C0 PUSH2 0x5628 JUMP JUMPDEST JUMPDEST PUSH1 0x20 MUL PUSH1 0x20 ADD ADD MLOAD PUSH1 0x40 MLOAD PUSH2 0x27D6 SWAP2 SWAP1 PUSH2 0x5D5A JUMP JUMPDEST PUSH0 PUSH1 0x40 MLOAD DUP1 DUP4 SUB DUP2 DUP6 DUP8 GAS CALL SWAP3 POP POP POP RETURNDATASIZE DUP1 PUSH0 DUP2 EQ PUSH2 0x2810 JUMPI PUSH1 0x40 MLOAD SWAP2 POP PUSH1 0x1F NOT PUSH1 0x3F RETURNDATASIZE ADD AND DUP3 ADD PUSH1 0x40 MSTORE RETURNDATASIZE DUP3 MSTORE RETURNDATASIZE PUSH0 PUSH1 0x20 DUP5 ADD RETURNDATACOPY PUSH2 0x2815 JUMP JUMPDEST PUSH1 0x60 SWAP2 POP JUMPDEST POP SWAP2 POP SWAP2 POP PUSH2 0x2824 DUP3 DUP3 PUSH2 0x3313 JUMP JUMPDEST POP POP POP DUP1 PUSH1 0x1 ADD SWAP1 POP PUSH2 0x2757 JUMP JUMPDEST POP POP POP POP POP POP JUMP JUMPDEST PUSH0 DUP2 PUSH0 ADD PUSH0 SWAP1 SLOAD SWAP1 PUSH2 0x100 EXP SWAP1 DIV PUSH16 0xFFFFFFFFFFFFFFFFFFFFFFFFFFFFFFFF AND PUSH16 0xFFFFFFFFFFFFFFFFFFFFFFFFFFFFFFFF AND DUP3 PUSH0 ADD PUSH1 0x10 SWAP1 SLOAD SWAP1 PUSH2 0x100 EXP SWAP1 DIV PUSH16 0xFFFFFFFFFFFFFFFFFFFFFFFFFFFFFFFF AND PUSH16 0xFFFFFFFFFFFFFFFFFFFFFFFFFFFFFFFF AND EQ SWAP1 POP SWAP2 SWAP1 POP JUMP JUMPDEST PUSH0 DUP2 PUSH0 ADD PUSH0 PUSH2 0x100 EXP DUP2 SLOAD DUP2 PUSH16 0xFFFFFFFFFFFFFFFFFFFFFFFFFFFFFFFF MUL NOT AND SWAP1 DUP4 PUSH16 0xFFFFFFFFFFFFFFFFFFFFFFFFFFFFFFFF AND MUL OR SWAP1 SSTORE POP PUSH0 DUP2 PUSH0 ADD PUSH1 0x10 PUSH2 0x100 EXP DUP2 SLOAD DUP2 PUSH16 0xFFFFFFFFFFFFFFFFFFFFFFFFFFFFFFFF MUL NOT AND SWAP1 DUP4 PUSH16 0xFFFFFFFFFFFFFFFFFFFFFFFFFFFFFFFF AND MUL OR SWAP1 SSTORE POP POP JUMP JUMPDEST PUSH0 PUSH0 PUSH1 0x9 PUSH0 DUP5 DUP2 MSTORE PUSH1 0x20 ADD SWAP1 DUP2 MSTORE PUSH1 0x20 ADD PUSH0 KECCAK256 SWAP1 POP DUP1 PUSH1 0x2 ADD SLOAD DUP2 PUSH1 0x1 ADD SLOAD PUSH2 0x2945 SWAP2 SWAP1 PUSH2 0x5D70 JUMP JUMPDEST PUSH2 0x2956 PUSH2 0x2951 DUP6 PUSH2 0x1359 JUMP JUMPDEST PUSH2 0x248D JUMP JUMPDEST GT ISZERO SWAP2 POP POP SWAP2 SWAP1 POP JUMP JUMPDEST PUSH0 PUSH0 PUSH1 0x9 PUSH0 DUP5 DUP2 MSTORE PUSH1 0x20 ADD SWAP1 DUP2 MSTORE PUSH1 0x20 ADD PUSH0 KECCAK256 SWAP1 POP DUP1 PUSH0 ADD SLOAD DUP2 PUSH1 0x1 ADD SLOAD GT SWAP2 POP POP SWAP2 SWAP1 POP JUMP JUMPDEST PUSH0 CALLER SWAP1 POP SWAP1 JUMP JUMPDEST PUSH0 PUSH0 PUSH1 0x7 DUP2 GT ISZERO PUSH2 0x29A2 JUMPI PUSH2 0x29A1 PUSH2 0x489F JUMP JUMPDEST JUMPDEST PUSH2 0x29AB DUP5 PUSH2 0x13D5 JUMP JUMPDEST PUSH1 0x7 DUP2 GT ISZERO PUSH2 0x29BD JUMPI PUSH2 0x29BC PUSH2 0x489F JUMP JUMPDEST JUMPDEST EQ DUP1 ISZERO PUSH2 0x29FD JUMPI POP PUSH2 0x29CE DUP4 PUSH2 0xF2C JUMP JUMPDEST PUSH20 0xFFFFFFFFFFFFFFFFFFFFFFFFFFFFFFFFFFFFFFFF AND DUP3 PUSH20 0xFFFFFFFFFFFFFFFFFFFFFFFFFFFFFFFFFFFFFFFF AND EQ JUMPDEST SWAP1 POP SWAP3 SWAP2 POP POP JUMP JUMPDEST PUSH0 PUSH0 PUSH2 0x2A13 DUP7 DUP7 DUP7 DUP7 PUSH2 0x1D1B JUMP JUMPDEST SWAP1 POP PUSH2 0x2A77 DUP2 PUSH2 0x2A23 PUSH1 0x7 PUSH2 0x25BE JUMP JUMPDEST PUSH2 0x2A2D PUSH1 0x6 PUSH2 0x25BE JUMP JUMPDEST PUSH2 0x2A37 PUSH1 0x2 PUSH2 0x25BE JUMP JUMPDEST PUSH1 0x1 DUP1 PUSH1 0x7 DUP1 DUP2 GT ISZERO PUSH2 0x2A4D JUMPI PUSH2 0x2A4C PUSH2 0x489F JUMP JUMPDEST JUMPDEST PUSH2 0x2A57 SWAP2 SWAP1 PUSH2 0x5DA3 JUMP JUMPDEST PUSH1 0x2 PUSH2 0x2A63 SWAP2 SWAP1 PUSH2 0x5F06 JUMP JUMPDEST PUSH2 0x2A6D SWAP2 SWAP1 PUSH2 0x5F50 JUMP JUMPDEST PUSH0 SHL XOR XOR XOR PUSH2 0x25E2 JUMP JUMPDEST POP PUSH1 0x1 PUSH1 0x4 PUSH0 DUP4 DUP2 MSTORE PUSH1 0x20 ADD SWAP1 DUP2 MSTORE PUSH1 0x20 ADD PUSH0 KECCAK256 PUSH0 ADD PUSH1 0x1F PUSH2 0x100 EXP DUP2 SLOAD DUP2 PUSH1 0xFF MUL NOT AND SWAP1 DUP4 ISZERO ISZERO MUL OR SWAP1 SSTORE POP PUSH32 0x789CF55BE980739DAD1D0699B93B58E806B51C9D96619BFA8FE0A28ABAA7B30C DUP2 PUSH1 0x40 MLOAD PUSH2 0x2AD3 SWAP2 SWAP1 PUSH2 0x41AB JUMP JUMPDEST PUSH1 0x40 MLOAD DUP1 SWAP2 SUB SWAP1 LOG1 DUP1 SWAP2 POP POP SWAP5 SWAP4 POP POP POP POP JUMP JUMPDEST PUSH0 PUSH2 0x2AFC DUP6 DUP6 DUP6 DUP6 PUSH2 0x2AF7 PUSH2 0x33F0 JUMP JUMPDEST PUSH2 0x2C1E JUMP JUMPDEST SWAP1 POP SWAP5 SWAP4 POP POP POP POP JUMP JUMPDEST PUSH0 PUSH1 0x2 PUSH0 DUP4 PUSH20 0xFFFFFFFFFFFFFFFFFFFFFFFFFFFFFFFFFFFFFFFF AND PUSH20 0xFFFFFFFFFFFFFFFFFFFFFFFFFFFFFFFFFFFFFFFF AND DUP2 MSTORE PUSH1 0x20 ADD SWAP1 DUP2 MSTORE PUSH1 0x20 ADD PUSH0 KECCAK256 PUSH0 DUP2 SLOAD DUP1 SWAP3 SWAP2 SWAP1 PUSH1 0x1 ADD SWAP2 SWAP1 POP SSTORE SWAP1 POP SWAP2 SWAP1 POP JUMP JUMPDEST PUSH0 PUSH2 0x2B6B PUSH2 0x2B65 PUSH2 0x345C JUMP JUMPDEST DUP4 PUSH2 0x3512 JUMP JUMPDEST SWAP1 POP SWAP2 SWAP1 POP JUMP JUMPDEST PUSH0 PUSH0 DUP5 PUSH20 0xFFFFFFFFFFFFFFFFFFFFFFFFFFFFFFFFFFFFFFFF AND EXTCODESIZE SUB PUSH2 0x2C09 JUMPI PUSH0 PUSH0 PUSH2 0x2B9D DUP6 DUP6 PUSH2 0x3552 JUMP JUMPDEST POP SWAP2 POP SWAP2 POP PUSH0 PUSH1 0x3 DUP2 GT ISZERO PUSH2 0x2BB5 JUMPI PUSH2 0x2BB4 PUSH2 0x489F JUMP JUMPDEST JUMPDEST DUP2 PUSH1 0x3 DUP2 GT ISZERO PUSH2 0x2BC8 JUMPI PUSH2 0x2BC7 PUSH2 0x489F JUMP JUMPDEST JUMPDEST EQ DUP1 ISZERO PUSH2 0x2C00 JUMPI POP DUP6 PUSH20 0xFFFFFFFFFFFFFFFFFFFFFFFFFFFFFFFFFFFFFFFF AND DUP3 PUSH20 0xFFFFFFFFFFFFFFFFFFFFFFFFFFFFFFFFFFFFFFFF AND EQ JUMPDEST SWAP3 POP POP POP PUSH2 0x2C17 JUMP JUMPDEST PUSH2 0x2C14 DUP5 DUP5 DUP5 PUSH2 0x35A7 JUMP JUMPDEST SWAP1 POP JUMPDEST SWAP4 SWAP3 POP POP POP JUMP JUMPDEST PUSH0 PUSH2 0x2C32 DUP7 PUSH2 0x2C2D PUSH1 0x1 PUSH2 0x25BE JUMP JUMPDEST PUSH2 0x25E2 JUMP JUMPDEST POP PUSH0 PUSH2 0x2C47 DUP7 PUSH2 0x2C41 DUP10 PUSH2 0x1359 JUMP JUMPDEST DUP6 PUSH2 0x327F JUMP JUMPDEST SWAP1 POP PUSH0 PUSH2 0x2C57 DUP9 DUP9 DUP9 DUP6 DUP9 PUSH2 0x36C6 JUMP JUMPDEST SWAP1 POP PUSH0 DUP5 MLOAD SUB PUSH2 0x2CBA JUMPI DUP7 PUSH20 0xFFFFFFFFFFFFFFFFFFFFFFFFFFFFFFFFFFFFFFFF AND PUSH32 0xB8E138887D0AA13BAB447E82DE9D5C1777041ECD21CA36BA824FF1E6C07DDDA4 DUP10 DUP9 DUP5 DUP10 PUSH1 0x40 MLOAD PUSH2 0x2CAD SWAP5 SWAP4 SWAP3 SWAP2 SWAP1 PUSH2 0x5F83 JUMP JUMPDEST PUSH1 0x40 MLOAD DUP1 SWAP2 SUB SWAP1 LOG2 PUSH2 0x2D11 JUMP JUMPDEST DUP7 PUSH20 0xFFFFFFFFFFFFFFFFFFFFFFFFFFFFFFFFFFFFFFFF AND PUSH32 0xE2BABFBAC5889A709B63BB7F598B324E08BC5A4FB9EC647FB3CBC9EC07EB8712 DUP10 DUP9 DUP5 DUP10 DUP10 PUSH1 0x40 MLOAD PUSH2 0x2D08 SWAP6 SWAP5 SWAP4 SWAP3 SWAP2 SWAP1 PUSH2 0x6015 JUMP JUMPDEST PUSH1 0x40 MLOAD DUP1 SWAP2 SUB SWAP1 LOG2 JUMPDEST PUSH2 0x2D1A DUP9 PUSH2 0x38BB JUMP JUMPDEST DUP1 SWAP3 POP POP POP SWAP6 SWAP5 POP POP POP POP POP JUMP JUMPDEST PUSH2 0x2D30 PUSH2 0x2987 JUMP JUMPDEST PUSH20 0xFFFFFFFFFFFFFFFFFFFFFFFFFFFFFFFFFFFFFFFF AND PUSH2 0x2D4E PUSH2 0xD24 JUMP JUMPDEST PUSH20 0xFFFFFFFFFFFFFFFFFFFFFFFFFFFFFFFFFFFFFFFF AND EQ PUSH2 0x2DAD JUMPI PUSH2 0x2D71 PUSH2 0x2987 JUMP JUMPDEST PUSH1 0x40 MLOAD PUSH32 0x47096E4700000000000000000000000000000000000000000000000000000000 DUP2 MSTORE PUSH1 0x4 ADD PUSH2 0x2DA4 SWAP2 SWAP1 PUSH2 0x42E8 JUMP JUMPDEST PUSH1 0x40 MLOAD DUP1 SWAP2 SUB SWAP1 REVERT JUMPDEST ADDRESS PUSH20 0xFFFFFFFFFFFFFFFFFFFFFFFFFFFFFFFFFFFFFFFF AND PUSH2 0x2DCC PUSH2 0xD24 JUMP JUMPDEST PUSH20 0xFFFFFFFFFFFFFFFFFFFFFFFFFFFFFFFFFFFFFFFF AND EQ PUSH2 0x2E1B JUMPI PUSH0 PUSH2 0x2DF0 PUSH2 0x38BE JUMP JUMPDEST PUSH1 0x40 MLOAD PUSH2 0x2DFE SWAP3 SWAP2 SWAP1 PUSH2 0x575F JUMP JUMPDEST PUSH1 0x40 MLOAD DUP1 SWAP2 SUB SWAP1 KECCAK256 SWAP1 POP JUMPDEST DUP1 PUSH2 0x2E14 PUSH1 0x5 PUSH2 0x38CA JUMP JUMPDEST SUB PUSH2 0x2E09 JUMPI POP JUMPDEST JUMP JUMPDEST PUSH32 0xC565B045403DC03C2EEA82B81A0465EDAD9E2E7FC4D97E11421C209DA93D7A93 PUSH1 0x8 PUSH0 SWAP1 SLOAD SWAP1 PUSH2 0x100 EXP SWAP1 DIV PUSH6 0xFFFFFFFFFFFF AND DUP3 PUSH1 0x40 MLOAD PUSH2 0x2E61 SWAP3 SWAP2 SWAP1 PUSH2 0x6074 JUMP JUMPDEST PUSH1 0x40 MLOAD DUP1 SWAP2 SUB SWAP1 LOG1 DUP1 PUSH1 0x8 PUSH0 PUSH2 0x100 EXP DUP2 SLOAD DUP2 PUSH6 0xFFFFFFFFFFFF MUL NOT AND SWAP1 DUP4 PUSH6 0xFFFFFFFFFFFF AND MUL OR SWAP1 SSTORE POP POP JUMP JUMPDEST PUSH0 PUSH0 DUP3 MLOAD SWAP1 POP PUSH1 0x34 DUP2 LT ISZERO PUSH2 0x2EA9 JUMPI PUSH1 0x1 SWAP2 POP POP PUSH2 0x2F70 JUMP JUMPDEST PUSH0 PUSH2 0x2EB7 DUP5 PUSH1 0x34 DUP5 SUB PUSH2 0x39F8 JUMP JUMPDEST SWAP1 POP PUSH32 0x2370726F706F7365723D00000000000000000000000000000000000000000000 PUSH22 0xFFFFFFFFFFFFFFFFFFFFFFFFFFFFFFFFFFFFFFFFFFFF NOT AND DUP2 PUSH22 0xFFFFFFFFFFFFFFFFFFFFFFFFFFFFFFFFFFFFFFFFFFFF NOT AND EQ PUSH2 0x2F1D JUMPI PUSH1 0x1 SWAP3 POP POP POP PUSH2 0x2F70 JUMP JUMPDEST PUSH0 PUSH0 PUSH2 0x2F2D DUP7 PUSH1 0x2A DUP7 SUB DUP7 PUSH2 0x3A08 JUMP JUMPDEST SWAP2 POP SWAP2 POP DUP2 ISZERO DUP1 PUSH2 0x2F69 JUMPI POP DUP7 PUSH20 0xFFFFFFFFFFFFFFFFFFFFFFFFFFFFFFFFFFFFFFFF AND DUP2 PUSH20 0xFFFFFFFFFFFFFFFFFFFFFFFFFFFFFFFFFFFFFFFF AND EQ JUMPDEST SWAP5 POP POP POP POP POP JUMPDEST SWAP3 SWAP2 POP POP JUMP JUMPDEST PUSH0 PUSH2 0x2F8A DUP7 DUP7 DUP7 DUP7 DUP1 MLOAD SWAP1 PUSH1 0x20 ADD KECCAK256 PUSH2 0x1D1B JUMP JUMPDEST SWAP1 POP DUP5 MLOAD DUP7 MLOAD EQ ISZERO DUP1 PUSH2 0x2F9F JUMPI POP DUP4 MLOAD DUP7 MLOAD EQ ISZERO JUMPDEST DUP1 PUSH2 0x2FAA JUMPI POP PUSH0 DUP7 MLOAD EQ JUMPDEST ISZERO PUSH2 0x2FF3 JUMPI DUP6 MLOAD DUP5 MLOAD DUP7 MLOAD PUSH1 0x40 MLOAD PUSH32 0x447B05D000000000000000000000000000000000000000000000000000000000 DUP2 MSTORE PUSH1 0x4 ADD PUSH2 0x2FEA SWAP4 SWAP3 SWAP2 SWAP1 PUSH2 0x4969 JUMP JUMPDEST PUSH1 0x40 MLOAD DUP1 SWAP2 SUB SWAP1 REVERT JUMPDEST PUSH0 PUSH1 0x4 PUSH0 DUP4 DUP2 MSTORE PUSH1 0x20 ADD SWAP1 DUP2 MSTORE PUSH1 0x20 ADD PUSH0 KECCAK256 PUSH0 ADD PUSH1 0x14 SWAP1 SLOAD SWAP1 PUSH2 0x100 EXP SWAP1 DIV PUSH6 0xFFFFFFFFFFFF AND PUSH6 0xFFFFFFFFFFFF AND EQ PUSH2 0x3072 JUMPI DUP1 PUSH2 0x3031 DUP3 PUSH2 0x13D5 JUMP JUMPDEST PUSH0 PUSH0 SHL PUSH1 0x40 MLOAD PUSH32 0x31B75E4D00000000000000000000000000000000000000000000000000000000 DUP2 MSTORE PUSH1 0x4 ADD PUSH2 0x3069 SWAP4 SWAP3 SWAP2 SWAP1 PUSH2 0x5CF5 JUMP JUMPDEST PUSH1 0x40 MLOAD DUP1 SWAP2 SUB SWAP1 REVERT JUMPDEST PUSH0 PUSH2 0x307B PUSH2 0x13B3 JUMP JUMPDEST PUSH2 0x3083 PUSH2 0x1C33 JUMP JUMPDEST PUSH6 0xFFFFFFFFFFFF AND PUSH2 0x3095 SWAP2 SWAP1 PUSH2 0x5D70 JUMP JUMPDEST SWAP1 POP PUSH0 PUSH2 0x30A0 PUSH2 0xE7D JUMP JUMPDEST SWAP1 POP PUSH0 PUSH1 0x4 PUSH0 DUP6 DUP2 MSTORE PUSH1 0x20 ADD SWAP1 DUP2 MSTORE PUSH1 0x20 ADD PUSH0 KECCAK256 SWAP1 POP DUP5 DUP2 PUSH0 ADD PUSH0 PUSH2 0x100 EXP DUP2 SLOAD DUP2 PUSH20 0xFFFFFFFFFFFFFFFFFFFFFFFFFFFFFFFFFFFFFFFF MUL NOT AND SWAP1 DUP4 PUSH20 0xFFFFFFFFFFFFFFFFFFFFFFFFFFFFFFFFFFFFFFFF AND MUL OR SWAP1 SSTORE POP PUSH2 0x3100 DUP4 PUSH2 0x3B19 JUMP JUMPDEST DUP2 PUSH0 ADD PUSH1 0x14 PUSH2 0x100 EXP DUP2 SLOAD DUP2 PUSH6 0xFFFFFFFFFFFF MUL NOT AND SWAP1 DUP4 PUSH6 0xFFFFFFFFFFFF AND MUL OR SWAP1 SSTORE POP PUSH2 0x312E DUP3 PUSH2 0x3B72 JUMP JUMPDEST DUP2 PUSH0 ADD PUSH1 0x1A PUSH2 0x100 EXP DUP2 SLOAD DUP2 PUSH4 0xFFFFFFFF MUL NOT AND SWAP1 DUP4 PUSH4 0xFFFFFFFF AND MUL OR SWAP1 SSTORE POP PUSH32 0x7D84A6263AE0D98D3329BD7B46BB4E8D6F98CD35A7ADB45C274C8B7FD5EBD5E0 DUP5 DUP7 DUP12 DUP12 DUP14 MLOAD PUSH8 0xFFFFFFFFFFFFFFFF DUP2 GT ISZERO PUSH2 0x318F JUMPI PUSH2 0x318E PUSH2 0x4333 JUMP JUMPDEST JUMPDEST PUSH1 0x40 MLOAD SWAP1 DUP1 DUP3 MSTORE DUP1 PUSH1 0x20 MUL PUSH1 0x20 ADD DUP3 ADD PUSH1 0x40 MSTORE DUP1 ISZERO PUSH2 0x31C2 JUMPI DUP2 PUSH1 0x20 ADD JUMPDEST PUSH1 0x60 DUP2 MSTORE PUSH1 0x20 ADD SWAP1 PUSH1 0x1 SWAP1 SUB SWAP1 DUP2 PUSH2 0x31AD JUMPI SWAP1 POP JUMPDEST POP DUP13 DUP10 DUP10 DUP12 PUSH2 0x31D1 SWAP2 SWAP1 PUSH2 0x5D70 JUMP JUMPDEST DUP15 PUSH1 0x40 MLOAD PUSH2 0x31E7 SWAP10 SWAP9 SWAP8 SWAP7 SWAP6 SWAP5 SWAP4 SWAP3 SWAP2 SWAP1 PUSH2 0x619E JUMP JUMPDEST PUSH1 0x40 MLOAD DUP1 SWAP2 SUB SWAP1 LOG1 POP POP POP SWAP6 SWAP5 POP POP POP POP POP JUMP JUMPDEST PUSH1 0x60 PUSH2 0x3230 PUSH0 PUSH32 0x0 PUSH2 0x3BC9 SWAP1 SWAP2 SWAP1 PUSH4 0xFFFFFFFF AND JUMP JUMPDEST SWAP1 POP SWAP1 JUMP JUMPDEST PUSH1 0x60 PUSH2 0x326B PUSH1 0x1 PUSH32 0x0 PUSH2 0x3BC9 SWAP1 SWAP2 SWAP1 PUSH4 0xFFFFFFFF AND JUMP JUMPDEST SWAP1 POP SWAP1 JUMP JUMPDEST PUSH0 PUSH2 0x327A NUMBER PUSH2 0x3B19 JUMP JUMPDEST SWAP1 POP SWAP1 JUMP JUMPDEST PUSH0 PUSH2 0x3288 PUSH2 0x252E JUMP JUMPDEST PUSH20 0xFFFFFFFFFFFFFFFFFFFFFFFFFFFFFFFFFFFFFFFF AND PUSH4 0x3A46B1A8 DUP6 DUP6 PUSH1 0x40 MLOAD DUP4 PUSH4 0xFFFFFFFF AND PUSH1 0xE0 SHL DUP2 MSTORE PUSH1 0x4 ADD PUSH2 0x32C2 SWAP3 SWAP2 SWAP1 PUSH2 0x624C JUMP JUMPDEST PUSH1 0x20 PUSH1 0x40 MLOAD DUP1 DUP4 SUB DUP2 DUP7 GAS STATICCALL ISZERO DUP1 ISZERO PUSH2 0x32DD JUMPI RETURNDATASIZE PUSH0 PUSH0 RETURNDATACOPY RETURNDATASIZE PUSH0 REVERT JUMPDEST POP POP POP POP PUSH1 0x40 MLOAD RETURNDATASIZE PUSH1 0x1F NOT PUSH1 0x1F DUP3 ADD AND DUP3 ADD DUP1 PUSH1 0x40 MSTORE POP DUP2 ADD SWAP1 PUSH2 0x3301 SWAP2 SWAP1 PUSH2 0x55FD JUMP JUMPDEST SWAP1 POP SWAP4 SWAP3 POP POP POP JUMP JUMPDEST PUSH0 PUSH1 0x7 SLOAD SWAP1 POP SWAP1 JUMP JUMPDEST PUSH1 0x60 DUP3 PUSH2 0x3328 JUMPI PUSH2 0x3323 DUP3 PUSH2 0x3C76 JUMP JUMPDEST PUSH2 0x3330 JUMP JUMPDEST DUP2 SWAP1 POP PUSH2 0x3331 JUMP JUMPDEST JUMPDEST SWAP3 SWAP2 POP POP JUMP JUMPDEST PUSH0 DUP2 PUSH4 0xFFFFFFFF AND SUB PUSH2 0x3381 JUMPI PUSH0 PUSH1 0x40 MLOAD PUSH32 0xF1CFBF0500000000000000000000000000000000000000000000000000000000 DUP2 MSTORE PUSH1 0x4 ADD PUSH2 0x3378 SWAP2 SWAP1 PUSH2 0x62AC JUMP JUMPDEST PUSH1 0x40 MLOAD DUP1 SWAP2 SUB SWAP1 REVERT JUMPDEST PUSH32 0x7E3F7F0708A84DE9203036ABAA450DCCC85AD5FF52F78C170F3EDB55CF5E8828 PUSH1 0x8 PUSH1 0x6 SWAP1 SLOAD SWAP1 PUSH2 0x100 EXP SWAP1 DIV PUSH4 0xFFFFFFFF AND DUP3 PUSH1 0x40 MLOAD PUSH2 0x33C4 SWAP3 SWAP2 SWAP1 PUSH2 0x62F5 JUMP JUMPDEST PUSH1 0x40 MLOAD DUP1 SWAP2 SUB SWAP1 LOG1 DUP1 PUSH1 0x8 PUSH1 0x6 PUSH2 0x100 EXP DUP2 SLOAD DUP2 PUSH4 0xFFFFFFFF MUL NOT AND SWAP1 DUP4 PUSH4 0xFFFFFFFF AND MUL OR SWAP1 SSTORE POP POP JUMP JUMPDEST PUSH1 0x60 PUSH1 0x40 MLOAD DUP1 PUSH1 0x20 ADD PUSH1 0x40 MSTORE DUP1 PUSH0 DUP2 MSTORE POP SWAP1 POP SWAP1 JUMP JUMPDEST PUSH32 0xCCB45DA8D5717E6C4544694297C4BA5CF151D455C9BB0ED4FC7A38411BC05461 PUSH1 0x7 SLOAD DUP3 PUSH1 0x40 MLOAD PUSH2 0x3439 SWAP3 SWAP2 SWAP1 PUSH2 0x631C JUMP JUMPDEST PUSH1 0x40 MLOAD DUP1 SWAP2 SUB SWAP1 LOG1 DUP1 PUSH1 0x7 DUP2 SWAP1 SSTORE POP POP JUMP JUMPDEST PUSH4 0x4E487B71 PUSH0 MSTORE DUP1 PUSH1 0x20 MSTORE PUSH1 0x24 PUSH1 0x1C REVERT JUMPDEST PUSH0 PUSH32 0x0 PUSH20 0xFFFFFFFFFFFFFFFFFFFFFFFFFFFFFFFFFFFFFFFF AND ADDRESS PUSH20 0xFFFFFFFFFFFFFFFFFFFFFFFFFFFFFFFFFFFFFFFF AND EQ DUP1 ISZERO PUSH2 0x34D7 JUMPI POP PUSH32 0x0 CHAINID EQ JUMPDEST ISZERO PUSH2 0x3504 JUMPI PUSH32 0x0 SWAP1 POP PUSH2 0x350F JUMP JUMPDEST PUSH2 0x350C PUSH2 0x3CBA JUMP JUMPDEST SWAP1 POP JUMPDEST SWAP1 JUMP JUMPDEST PUSH0 PUSH1 0x40 MLOAD PUSH32 0x1901000000000000000000000000000000000000000000000000000000000000 DUP2 MSTORE DUP4 PUSH1 0x2 DUP3 ADD MSTORE DUP3 PUSH1 0x22 DUP3 ADD MSTORE PUSH1 0x42 DUP2 KECCAK256 SWAP2 POP POP SWAP3 SWAP2 POP POP JUMP JUMPDEST PUSH0 PUSH0 PUSH0 PUSH1 0x41 DUP5 MLOAD SUB PUSH2 0x3592 JUMPI PUSH0 PUSH0 PUSH0 PUSH1 0x20 DUP8 ADD MLOAD SWAP3 POP PUSH1 0x40 DUP8 ADD MLOAD SWAP2 POP PUSH1 0x60 DUP8 ADD MLOAD PUSH0 BYTE SWAP1 POP PUSH2 0x3584 DUP9 DUP3 DUP6 DUP6 PUSH2 0x3D4F JUMP JUMPDEST SWAP6 POP SWAP6 POP SWAP6 POP POP POP POP PUSH2 0x35A0 JUMP JUMPDEST PUSH0 PUSH1 0x2 DUP6 MLOAD PUSH0 SHL SWAP3 POP SWAP3 POP SWAP3 POP JUMPDEST SWAP3 POP SWAP3 POP SWAP3 JUMP JUMPDEST PUSH0 PUSH0 PUSH0 DUP6 PUSH20 0xFFFFFFFFFFFFFFFFFFFFFFFFFFFFFFFFFFFFFFFF AND DUP6 DUP6 PUSH1 0x40 MLOAD PUSH1 0x24 ADD PUSH2 0x35D4 SWAP3 SWAP2 SWAP1 PUSH2 0x6343 JUMP JUMPDEST PUSH1 0x40 MLOAD PUSH1 0x20 DUP2 DUP4 SUB SUB DUP2 MSTORE SWAP1 PUSH1 0x40 MSTORE PUSH4 0x1626BA7E PUSH1 0xE0 SHL PUSH1 0x20 DUP3 ADD DUP1 MLOAD PUSH28 0xFFFFFFFFFFFFFFFFFFFFFFFFFFFFFFFFFFFFFFFFFFFFFFFFFFFFFFFF DUP4 DUP2 DUP4 AND OR DUP4 MSTORE POP POP POP POP PUSH1 0x40 MLOAD PUSH2 0x3626 SWAP2 SWAP1 PUSH2 0x5D5A JUMP JUMPDEST PUSH0 PUSH1 0x40 MLOAD DUP1 DUP4 SUB DUP2 DUP6 GAS STATICCALL SWAP2 POP POP RETURNDATASIZE DUP1 PUSH0 DUP2 EQ PUSH2 0x365E JUMPI PUSH1 0x40 MLOAD SWAP2 POP PUSH1 0x1F NOT PUSH1 0x3F RETURNDATASIZE ADD AND DUP3 ADD PUSH1 0x40 MSTORE RETURNDATASIZE DUP3 MSTORE RETURNDATASIZE PUSH0 PUSH1 0x20 DUP5 ADD RETURNDATACOPY PUSH2 0x3663 JUMP JUMPDEST PUSH1 0x60 SWAP2 POP JUMPDEST POP SWAP2 POP SWAP2 POP DUP2 DUP1 ISZERO PUSH2 0x3677 JUMPI POP PUSH1 0x20 DUP2 MLOAD LT ISZERO JUMPDEST DUP1 ISZERO PUSH2 0x36BB JUMPI POP PUSH4 0x1626BA7E PUSH1 0xE0 SHL PUSH28 0xFFFFFFFFFFFFFFFFFFFFFFFFFFFFFFFFFFFFFFFFFFFFFFFFFFFFFFFF NOT AND DUP2 DUP1 PUSH1 0x20 ADD SWAP1 MLOAD DUP2 ADD SWAP1 PUSH2 0x36B9 SWAP2 SWAP1 PUSH2 0x6385 JUMP JUMPDEST EQ JUMPDEST SWAP3 POP POP POP SWAP4 SWAP3 POP POP POP JUMP JUMPDEST PUSH0 PUSH0 PUSH1 0x9 PUSH0 DUP9 DUP2 MSTORE PUSH1 0x20 ADD SWAP1 DUP2 MSTORE PUSH1 0x20 ADD PUSH0 KECCAK256 SWAP1 POP DUP1 PUSH1 0x3 ADD PUSH0 DUP8 PUSH20 0xFFFFFFFFFFFFFFFFFFFFFFFFFFFFFFFFFFFFFFFF AND PUSH20 0xFFFFFFFFFFFFFFFFFFFFFFFFFFFFFFFFFFFFFFFF AND DUP2 MSTORE PUSH1 0x20 ADD SWAP1 DUP2 MSTORE PUSH1 0x20 ADD PUSH0 KECCAK256 PUSH0 SWAP1 SLOAD SWAP1 PUSH2 0x100 EXP SWAP1 DIV PUSH1 0xFF AND ISZERO PUSH2 0x3769 JUMPI DUP6 PUSH1 0x40 MLOAD PUSH32 0x71C6AF4900000000000000000000000000000000000000000000000000000000 DUP2 MSTORE PUSH1 0x4 ADD PUSH2 0x3760 SWAP2 SWAP1 PUSH2 0x42E8 JUMP JUMPDEST PUSH1 0x40 MLOAD DUP1 SWAP2 SUB SWAP1 REVERT JUMPDEST PUSH1 0x1 DUP2 PUSH1 0x3 ADD PUSH0 DUP9 PUSH20 0xFFFFFFFFFFFFFFFFFFFFFFFFFFFFFFFFFFFFFFFF AND PUSH20 0xFFFFFFFFFFFFFFFFFFFFFFFFFFFFFFFFFFFFFFFF AND DUP2 MSTORE PUSH1 0x20 ADD SWAP1 DUP2 MSTORE PUSH1 0x20 ADD PUSH0 KECCAK256 PUSH0 PUSH2 0x100 EXP DUP2 SLOAD DUP2 PUSH1 0xFF MUL NOT AND SWAP1 DUP4 ISZERO ISZERO MUL OR SWAP1 SSTORE POP PUSH0 PUSH1 0x2 DUP2 GT ISZERO PUSH2 0x37D3 JUMPI PUSH2 0x37D2 PUSH2 0x489F JUMP JUMPDEST JUMPDEST PUSH1 0xFF AND DUP6 PUSH1 0xFF AND SUB PUSH2 0x37FD JUMPI DUP4 DUP2 PUSH0 ADD PUSH0 DUP3 DUP3 SLOAD PUSH2 0x37F1 SWAP2 SWAP1 PUSH2 0x5D70 JUMP JUMPDEST SWAP3 POP POP DUP2 SWAP1 SSTORE POP PUSH2 0x38AE JUMP JUMPDEST PUSH1 0x1 PUSH1 0x2 DUP2 GT ISZERO PUSH2 0x3811 JUMPI PUSH2 0x3810 PUSH2 0x489F JUMP JUMPDEST JUMPDEST PUSH1 0xFF AND DUP6 PUSH1 0xFF AND SUB PUSH2 0x383C JUMPI DUP4 DUP2 PUSH1 0x1 ADD PUSH0 DUP3 DUP3 SLOAD PUSH2 0x3830 SWAP2 SWAP1 PUSH2 0x5D70 JUMP JUMPDEST SWAP3 POP POP DUP2 SWAP1 SSTORE POP PUSH2 0x38AD JUMP JUMPDEST PUSH1 0x2 DUP1 DUP2 GT ISZERO PUSH2 0x384F JUMPI PUSH2 0x384E PUSH2 0x489F JUMP JUMPDEST JUMPDEST PUSH1 0xFF AND DUP6 PUSH1 0xFF AND SUB PUSH2 0x387A JUMPI DUP4 DUP2 PUSH1 0x2 ADD PUSH0 DUP3 DUP3 SLOAD PUSH2 0x386E SWAP2 SWAP1 PUSH2 0x5D70 JUMP JUMPDEST SWAP3 POP POP DUP2 SWAP1 SSTORE POP PUSH2 0x38AC JUMP JUMPDEST PUSH1 0x40 MLOAD PUSH32 0x6B337C200000000000000000000000000000000000000000000000000000000 DUP2 MSTORE PUSH1 0x4 ADD PUSH1 0x40 MLOAD DUP1 SWAP2 SUB SWAP1 REVERT JUMPDEST JUMPDEST JUMPDEST DUP4 SWAP2 POP POP SWAP6 SWAP5 POP POP POP POP POP JUMP JUMPDEST POP JUMP JUMPDEST CALLDATASIZE PUSH0 PUSH0 CALLDATASIZE SWAP2 POP SWAP2 POP SWAP1 SWAP2 JUMP JUMPDEST PUSH0 PUSH0 DUP3 PUSH0 ADD PUSH0 SWAP1 SLOAD SWAP1 PUSH2 0x100 EXP SWAP1 DIV PUSH16 0xFFFFFFFFFFFFFFFFFFFFFFFFFFFFFFFF AND SWAP1 POP DUP3 PUSH0 ADD PUSH1 0x10 SWAP1 SLOAD SWAP1 PUSH2 0x100 EXP SWAP1 DIV PUSH16 0xFFFFFFFFFFFFFFFFFFFFFFFFFFFFFFFF AND PUSH16 0xFFFFFFFFFFFFFFFFFFFFFFFFFFFFFFFF AND DUP2 PUSH16 0xFFFFFFFFFFFFFFFFFFFFFFFFFFFFFFFF AND SUB PUSH2 0x3942 JUMPI PUSH2 0x3941 PUSH1 0x31 PUSH2 0x344B JUMP JUMPDEST JUMPDEST DUP3 PUSH1 0x1 ADD PUSH0 DUP3 PUSH16 0xFFFFFFFFFFFFFFFFFFFFFFFFFFFFFFFF AND PUSH16 0xFFFFFFFFFFFFFFFFFFFFFFFFFFFFFFFF AND DUP2 MSTORE PUSH1 0x20 ADD SWAP1 DUP2 MSTORE PUSH1 0x20 ADD PUSH0 KECCAK256 SLOAD SWAP2 POP DUP3 PUSH1 0x1 ADD PUSH0 DUP3 PUSH16 0xFFFFFFFFFFFFFFFFFFFFFFFFFFFFFFFF AND PUSH16 0xFFFFFFFFFFFFFFFFFFFFFFFFFFFFFFFF AND DUP2 MSTORE PUSH1 0x20 ADD SWAP1 DUP2 MSTORE PUSH1 0x20 ADD PUSH0 KECCAK256 PUSH0 SWAP1 SSTORE PUSH1 0x1 DUP2 ADD DUP4 PUSH0 ADD PUSH0 PUSH2 0x100 EXP DUP2 SLOAD DUP2 PUSH16 0xFFFFFFFFFFFFFFFFFFFFFFFFFFFFFFFF MUL NOT AND SWAP1 DUP4 PUSH16 0xFFFFFFFFFFFFFFFFFFFFFFFFFFFFFFFF AND MUL OR SWAP1 SSTORE POP POP SWAP2 SWAP1 POP JUMP JUMPDEST PUSH0 DUP2 PUSH1 0x20 ADD DUP4 ADD MLOAD SWAP1 POP SWAP3 SWAP2 POP POP JUMP JUMPDEST PUSH0 PUSH0 DUP5 MLOAD DUP4 GT DUP1 PUSH2 0x3A18 JUMPI POP DUP3 DUP5 GT JUMPDEST ISZERO PUSH2 0x3A28 JUMPI PUSH0 PUSH0 SWAP2 POP SWAP2 POP PUSH2 0x3B11 JUMP JUMPDEST PUSH0 PUSH1 0x1 DUP6 PUSH2 0x3A36 SWAP2 SWAP1 PUSH2 0x5D70 JUMP JUMPDEST DUP5 GT DUP1 ISZERO PUSH2 0x3AAE JUMPI POP PUSH32 0x3078000000000000000000000000000000000000000000000000000000000000 PUSH30 0xFFFFFFFFFFFFFFFFFFFFFFFFFFFFFFFFFFFFFFFFFFFFFFFFFFFFFFFFFFFF NOT AND PUSH2 0x3A8B DUP8 DUP8 PUSH2 0x3E36 JUMP JUMPDEST PUSH30 0xFFFFFFFFFFFFFFFFFFFFFFFFFFFFFFFFFFFFFFFFFFFFFFFFFFFFFFFFFFFF NOT AND EQ JUMPDEST SWAP1 POP PUSH0 PUSH1 0x2 PUSH2 0x3ABE DUP4 ISZERO ISZERO PUSH2 0x3E46 JUMP JUMPDEST PUSH2 0x3AC8 SWAP2 SWAP1 PUSH2 0x63B0 JUMP JUMPDEST PUSH1 0x28 PUSH2 0x3AD4 SWAP2 SWAP1 PUSH2 0x5D70 JUMP JUMPDEST SWAP1 POP DUP1 DUP7 DUP7 PUSH2 0x3AE3 SWAP2 SWAP1 PUSH2 0x5F50 JUMP JUMPDEST SUB PUSH2 0x3B08 JUMPI PUSH0 PUSH0 PUSH2 0x3AF5 DUP10 DUP10 DUP10 PUSH2 0x3E51 JUMP JUMPDEST SWAP2 POP SWAP2 POP DUP2 DUP2 SWAP6 POP SWAP6 POP POP POP POP POP PUSH2 0x3B11 JUMP JUMPDEST PUSH0 PUSH0 SWAP4 POP SWAP4 POP POP POP JUMPDEST SWAP4 POP SWAP4 SWAP2 POP POP JUMP JUMPDEST PUSH0 PUSH6 0xFFFFFFFFFFFF DUP1 AND DUP3 GT ISZERO PUSH2 0x3B6A JUMPI PUSH1 0x30 DUP3 PUSH1 0x40 MLOAD PUSH32 0x6DFCC65000000000000000000000000000000000000000000000000000000000 DUP2 MSTORE PUSH1 0x4 ADD PUSH2 0x3B61 SWAP3 SWAP2 SWAP1 PUSH2 0x642A JUMP JUMPDEST PUSH1 0x40 MLOAD DUP1 SWAP2 SUB SWAP1 REVERT JUMPDEST DUP2 SWAP1 POP SWAP2 SWAP1 POP JUMP JUMPDEST PUSH0 PUSH4 0xFFFFFFFF DUP1 AND DUP3 GT ISZERO PUSH2 0x3BC1 JUMPI PUSH1 0x20 DUP3 PUSH1 0x40 MLOAD PUSH32 0x6DFCC65000000000000000000000000000000000000000000000000000000000 DUP2 MSTORE PUSH1 0x4 ADD PUSH2 0x3BB8 SWAP3 SWAP2 SWAP1 PUSH2 0x648A JUMP JUMPDEST PUSH1 0x40 MLOAD DUP1 SWAP2 SUB SWAP1 REVERT JUMPDEST DUP2 SWAP1 POP SWAP2 SWAP1 POP JUMP JUMPDEST PUSH1 0x60 PUSH1 0xFF PUSH0 SHL DUP4 EQ PUSH2 0x3BE5 JUMPI PUSH2 0x3BDE DUP4 PUSH2 0x3F7F JUMP JUMPDEST SWAP1 POP PUSH2 0x3C70 JUMP JUMPDEST DUP2 DUP1 SLOAD PUSH2 0x3BF1 SWAP1 PUSH2 0x5562 JUMP JUMPDEST DUP1 PUSH1 0x1F ADD PUSH1 0x20 DUP1 SWAP2 DIV MUL PUSH1 0x20 ADD PUSH1 0x40 MLOAD SWAP1 DUP2 ADD PUSH1 0x40 MSTORE DUP1 SWAP3 SWAP2 SWAP1 DUP2 DUP2 MSTORE PUSH1 0x20 ADD DUP3 DUP1 SLOAD PUSH2 0x3C1D SWAP1 PUSH2 0x5562 JUMP JUMPDEST DUP1 ISZERO PUSH2 0x3C68 JUMPI DUP1 PUSH1 0x1F LT PUSH2 0x3C3F JUMPI PUSH2 0x100 DUP1 DUP4 SLOAD DIV MUL DUP4 MSTORE SWAP2 PUSH1 0x20 ADD SWAP2 PUSH2 0x3C68 JUMP JUMPDEST DUP3 ADD SWAP2 SWAP1 PUSH0 MSTORE PUSH1 0x20 PUSH0 KECCAK256 SWAP1 JUMPDEST DUP2 SLOAD DUP2 MSTORE SWAP1 PUSH1 0x1 ADD SWAP1 PUSH1 0x20 ADD DUP1 DUP4 GT PUSH2 0x3C4B JUMPI DUP3 SWAP1 SUB PUSH1 0x1F AND DUP3 ADD SWAP2 JUMPDEST POP POP POP POP POP SWAP1 POP JUMPDEST SWAP3 SWAP2 POP POP JUMP JUMPDEST PUSH0 DUP2 MLOAD GT ISZERO PUSH2 0x3C88 JUMPI DUP1 MLOAD DUP1 DUP3 PUSH1 0x20 ADD REVERT JUMPDEST PUSH1 0x40 MLOAD PUSH32 0xD6BDA27500000000000000000000000000000000000000000000000000000000 DUP2 MSTORE PUSH1 0x4 ADD PUSH1 0x40 MLOAD DUP1 SWAP2 SUB SWAP1 REVERT JUMPDEST PUSH0 PUSH32 0x8B73C3C69BB8FE3D512ECC4CF759CC79239F7B179B0FFACAA9A75D522B39400F PUSH32 0x0 PUSH32 0x0 CHAINID ADDRESS PUSH1 0x40 MLOAD PUSH1 0x20 ADD PUSH2 0x3D34 SWAP6 SWAP5 SWAP4 SWAP3 SWAP2 SWAP1 PUSH2 0x64B1 JUMP JUMPDEST PUSH1 0x40 MLOAD PUSH1 0x20 DUP2 DUP4 SUB SUB DUP2 MSTORE SWAP1 PUSH1 0x40 MSTORE DUP1 MLOAD SWAP1 PUSH1 0x20 ADD KECCAK256 SWAP1 POP SWAP1 JUMP JUMPDEST PUSH0 PUSH0 PUSH0 PUSH32 0x7FFFFFFFFFFFFFFFFFFFFFFFFFFFFFFF5D576E7357A4501DDFE92F46681B20A0 DUP5 PUSH0 SHR GT ISZERO PUSH2 0x3D8B JUMPI PUSH0 PUSH1 0x3 DUP6 SWAP3 POP SWAP3 POP SWAP3 POP PUSH2 0x3E2C JUMP JUMPDEST PUSH0 PUSH1 0x1 DUP9 DUP9 DUP9 DUP9 PUSH1 0x40 MLOAD PUSH0 DUP2 MSTORE PUSH1 0x20 ADD PUSH1 0x40 MSTORE PUSH1 0x40 MLOAD PUSH2 0x3DAE SWAP5 SWAP4 SWAP3 SWAP2 SWAP1 PUSH2 0x6502 JUMP JUMPDEST PUSH1 0x20 PUSH1 0x40 MLOAD PUSH1 0x20 DUP2 SUB SWAP1 DUP1 DUP5 SUB SWAP1 DUP6 GAS STATICCALL ISZERO DUP1 ISZERO PUSH2 0x3DCE JUMPI RETURNDATASIZE PUSH0 PUSH0 RETURNDATACOPY RETURNDATASIZE PUSH0 REVERT JUMPDEST POP POP POP PUSH1 0x20 PUSH1 0x40 MLOAD SUB MLOAD SWAP1 POP PUSH0 PUSH20 0xFFFFFFFFFFFFFFFFFFFFFFFFFFFFFFFFFFFFFFFF AND DUP2 PUSH20 0xFFFFFFFFFFFFFFFFFFFFFFFFFFFFFFFFFFFFFFFF AND SUB PUSH2 0x3E1F JUMPI PUSH0 PUSH1 0x1 PUSH0 PUSH0 SHL SWAP4 POP SWAP4 POP SWAP4 POP POP PUSH2 0x3E2C JUMP JUMPDEST DUP1 PUSH0 PUSH0 PUSH0 SHL SWAP4 POP SWAP4 POP SWAP4 POP POP JUMPDEST SWAP5 POP SWAP5 POP SWAP5 SWAP2 POP POP JUMP JUMPDEST PUSH0 DUP2 PUSH1 0x20 ADD DUP4 ADD MLOAD SWAP1 POP SWAP3 SWAP2 POP POP JUMP JUMPDEST PUSH0 DUP2 ISZERO ISZERO SWAP1 POP SWAP2 SWAP1 POP JUMP JUMPDEST PUSH0 PUSH0 PUSH0 DUP6 SWAP1 POP PUSH0 PUSH1 0x1 DUP7 PUSH2 0x3E65 SWAP2 SWAP1 PUSH2 0x5D70 JUMP JUMPDEST DUP6 GT DUP1 ISZERO PUSH2 0x3EDD JUMPI POP PUSH32 0x3078000000000000000000000000000000000000000000000000000000000000 PUSH30 0xFFFFFFFFFFFFFFFFFFFFFFFFFFFFFFFFFFFFFFFFFFFFFFFFFFFFFFFFFFFF NOT AND PUSH2 0x3EBA DUP4 DUP9 PUSH2 0x3E36 JUMP JUMPDEST PUSH30 0xFFFFFFFFFFFFFFFFFFFFFFFFFFFFFFFFFFFFFFFFFFFFFFFFFFFFFFFFFFFF NOT AND EQ JUMPDEST SWAP1 POP PUSH0 PUSH1 0x2 PUSH2 0x3EED DUP4 ISZERO ISZERO PUSH2 0x3E46 JUMP JUMPDEST PUSH2 0x3EF7 SWAP2 SWAP1 PUSH2 0x63B0 JUMP JUMPDEST SWAP1 POP PUSH0 PUSH0 SWAP1 POP PUSH0 DUP3 DUP10 PUSH2 0x3F0A SWAP2 SWAP1 PUSH2 0x5D70 JUMP JUMPDEST SWAP1 POP JUMPDEST DUP8 DUP2 LT ISZERO PUSH2 0x3F6A JUMPI PUSH0 PUSH2 0x3F28 PUSH2 0x3F23 DUP8 DUP5 PUSH2 0x3E36 JUMP JUMPDEST PUSH2 0x3FF1 JUMP JUMPDEST SWAP1 POP PUSH1 0xF DUP2 PUSH1 0xFF AND GT ISZERO PUSH2 0x3F47 JUMPI PUSH0 PUSH0 SWAP8 POP SWAP8 POP POP POP POP POP POP POP PUSH2 0x3F77 JUMP JUMPDEST PUSH1 0x10 DUP4 PUSH2 0x3F54 SWAP2 SWAP1 PUSH2 0x63B0 JUMP JUMPDEST SWAP3 POP DUP1 PUSH1 0xFF AND DUP4 ADD SWAP3 POP POP DUP1 PUSH1 0x1 ADD SWAP1 POP PUSH2 0x3F0D JUMP JUMPDEST POP PUSH1 0x1 DUP2 SWAP6 POP SWAP6 POP POP POP POP POP JUMPDEST SWAP4 POP SWAP4 SWAP2 POP POP JUMP JUMPDEST PUSH1 0x60 PUSH0 PUSH2 0x3F8B DUP4 PUSH2 0x4081 JUMP JUMPDEST SWAP1 POP PUSH0 PUSH1 0x20 PUSH8 0xFFFFFFFFFFFFFFFF DUP2 GT ISZERO PUSH2 0x3FA9 JUMPI PUSH2 0x3FA8 PUSH2 0x4333 JUMP JUMPDEST JUMPDEST PUSH1 0x40 MLOAD SWAP1 DUP1 DUP3 MSTORE DUP1 PUSH1 0x1F ADD PUSH1 0x1F NOT AND PUSH1 0x20 ADD DUP3 ADD PUSH1 0x40 MSTORE DUP1 ISZERO PUSH2 0x3FDB JUMPI DUP2 PUSH1 0x20 ADD PUSH1 0x1 DUP3 MUL DUP1 CALLDATASIZE DUP4 CALLDATACOPY DUP1 DUP3 ADD SWAP2 POP POP SWAP1 POP JUMPDEST POP SWAP1 POP DUP2 DUP2 MSTORE DUP4 PUSH1 0x20 DUP3 ADD MSTORE DUP1 SWAP3 POP POP POP SWAP2 SWAP1 POP JUMP JUMPDEST PUSH0 PUSH0 DUP3 PUSH1 0xF8 SHR SWAP1 POP PUSH1 0x2F DUP2 PUSH1 0xFF AND GT DUP1 ISZERO PUSH2 0x400F JUMPI POP PUSH1 0x3A DUP2 PUSH1 0xFF AND LT JUMPDEST ISZERO PUSH2 0x401F JUMPI PUSH1 0x30 DUP2 SUB SWAP1 POP PUSH2 0x4077 JUMP JUMPDEST PUSH1 0x60 DUP2 PUSH1 0xFF AND GT DUP1 ISZERO PUSH2 0x4035 JUMPI POP PUSH1 0x67 DUP2 PUSH1 0xFF AND LT JUMPDEST ISZERO PUSH2 0x4045 JUMPI PUSH1 0x57 DUP2 SUB SWAP1 POP PUSH2 0x4076 JUMP JUMPDEST PUSH1 0x40 DUP2 PUSH1 0xFF AND GT DUP1 ISZERO PUSH2 0x405B JUMPI POP PUSH1 0x47 DUP2 PUSH1 0xFF AND LT JUMPDEST ISZERO PUSH2 0x406B JUMPI PUSH1 0x37 DUP2 SUB SWAP1 POP PUSH2 0x4075 JUMP JUMPDEST PUSH1 0xFF SWAP2 POP POP PUSH2 0x407C JUMP JUMPDEST JUMPDEST JUMPDEST DUP1 SWAP2 POP POP JUMPDEST SWAP2 SWAP1 POP JUMP JUMPDEST PUSH0 PUSH0 PUSH1 0xFF DUP4 PUSH0 SHR AND SWAP1 POP PUSH1 0x1F DUP2 GT ISZERO PUSH2 0x40C6 JUMPI PUSH1 0x40 MLOAD PUSH32 0xB3512B0C00000000000000000000000000000000000000000000000000000000 DUP2 MSTORE PUSH1 0x4 ADD PUSH1 0x40 MLOAD DUP1 SWAP2 SUB SWAP1 REVERT JUMPDEST DUP1 SWAP2 POP POP SWAP2 SWAP1 POP JUMP JUMPDEST PUSH0 PUSH1 0x40 MLOAD SWAP1 POP SWAP1 JUMP JUMPDEST PUSH0 PUSH0 REVERT JUMPDEST PUSH0 PUSH0 REVERT JUMPDEST PUSH0 PUSH32 0xFFFFFFFF00000000000000000000000000000000000000000000000000000000 DUP3 AND SWAP1 POP SWAP2 SWAP1 POP JUMP JUMPDEST PUSH2 0x4114 DUP2 PUSH2 0x40E0 JUMP JUMPDEST DUP2 EQ PUSH2 0x411E JUMPI PUSH0 PUSH0 REVERT JUMPDEST POP JUMP JUMPDEST PUSH0 DUP2 CALLDATALOAD SWAP1 POP PUSH2 0x412F DUP2 PUSH2 0x410B JUMP JUMPDEST SWAP3 SWAP2 POP POP JUMP JUMPDEST PUSH0 PUSH1 0x20 DUP3 DUP5 SUB SLT ISZERO PUSH2 0x414A JUMPI PUSH2 0x4149 PUSH2 0x40D8 JUMP JUMPDEST JUMPDEST PUSH0 PUSH2 0x4157 DUP5 DUP3 DUP6 ADD PUSH2 0x4121 JUMP JUMPDEST SWAP2 POP POP SWAP3 SWAP2 POP POP JUMP JUMPDEST PUSH0 DUP2 ISZERO ISZERO SWAP1 POP SWAP2 SWAP1 POP JUMP JUMPDEST PUSH2 0x4174 DUP2 PUSH2 0x4160 JUMP JUMPDEST DUP3 MSTORE POP POP JUMP JUMPDEST PUSH0 PUSH1 0x20 DUP3 ADD SWAP1 POP PUSH2 0x418D PUSH0 DUP4 ADD DUP5 PUSH2 0x416B JUMP JUMPDEST SWAP3 SWAP2 POP POP JUMP JUMPDEST PUSH0 DUP2 SWAP1 POP SWAP2 SWAP1 POP JUMP JUMPDEST PUSH2 0x41A5 DUP2 PUSH2 0x4193 JUMP JUMPDEST DUP3 MSTORE POP POP JUMP JUMPDEST PUSH0 PUSH1 0x20 DUP3 ADD SWAP1 POP PUSH2 0x41BE PUSH0 DUP4 ADD DUP5 PUSH2 0x419C JUMP JUMPDEST SWAP3 SWAP2 POP POP JUMP JUMPDEST PUSH0 DUP2 MLOAD SWAP1 POP SWAP2 SWAP1 POP JUMP JUMPDEST PUSH0 DUP3 DUP3 MSTORE PUSH1 0x20 DUP3 ADD SWAP1 POP SWAP3 SWAP2 POP POP JUMP JUMPDEST DUP3 DUP2 DUP4 MCOPY PUSH0 DUP4 DUP4 ADD MSTORE POP POP POP JUMP JUMPDEST PUSH0 PUSH1 0x1F NOT PUSH1 0x1F DUP4 ADD AND SWAP1 POP SWAP2 SWAP1 POP JUMP JUMPDEST PUSH0 PUSH2 0x4206 DUP3 PUSH2 0x41C4 JUMP JUMPDEST PUSH2 0x4210 DUP2 DUP6 PUSH2 0x41CE JUMP JUMPDEST SWAP4 POP PUSH2 0x4220 DUP2 DUP6 PUSH1 0x20 DUP7 ADD PUSH2 0x41DE JUMP JUMPDEST PUSH2 0x4229 DUP2 PUSH2 0x41EC JUMP JUMPDEST DUP5 ADD SWAP2 POP POP SWAP3 SWAP2 POP POP JUMP JUMPDEST PUSH0 PUSH1 0x20 DUP3 ADD SWAP1 POP DUP2 DUP2 SUB PUSH0 DUP4 ADD MSTORE PUSH2 0x424C DUP2 DUP5 PUSH2 0x41FC JUMP JUMPDEST SWAP1 POP SWAP3 SWAP2 POP POP JUMP JUMPDEST PUSH2 0x425D DUP2 PUSH2 0x4193 JUMP JUMPDEST DUP2 EQ PUSH2 0x4267 JUMPI PUSH0 PUSH0 REVERT JUMPDEST POP JUMP JUMPDEST PUSH0 DUP2 CALLDATALOAD SWAP1 POP PUSH2 0x4278 DUP2 PUSH2 0x4254 JUMP JUMPDEST SWAP3 SWAP2 POP POP JUMP JUMPDEST PUSH0 PUSH1 0x20 DUP3 DUP5 SUB SLT ISZERO PUSH2 0x4293 JUMPI PUSH2 0x4292 PUSH2 0x40D8 JUMP JUMPDEST JUMPDEST PUSH0 PUSH2 0x42A0 DUP5 DUP3 DUP6 ADD PUSH2 0x426A JUMP JUMPDEST SWAP2 POP POP SWAP3 SWAP2 POP POP JUMP JUMPDEST PUSH0 PUSH20 0xFFFFFFFFFFFFFFFFFFFFFFFFFFFFFFFFFFFFFFFF DUP3 AND SWAP1 POP SWAP2 SWAP1 POP JUMP JUMPDEST PUSH0 PUSH2 0x42D2 DUP3 PUSH2 0x42A9 JUMP JUMPDEST SWAP1 POP SWAP2 SWAP1 POP JUMP JUMPDEST PUSH2 0x42E2 DUP2 PUSH2 0x42C8 JUMP JUMPDEST DUP3 MSTORE POP POP JUMP JUMPDEST PUSH0 PUSH1 0x20 DUP3 ADD SWAP1 POP PUSH2 0x42FB PUSH0 DUP4 ADD DUP5 PUSH2 0x42D9 JUMP JUMPDEST SWAP3 SWAP2 POP POP JUMP JUMPDEST PUSH2 0x430A DUP2 PUSH2 0x42C8 JUMP JUMPDEST DUP2 EQ PUSH2 0x4314 JUMPI PUSH0 PUSH0 REVERT JUMPDEST POP JUMP JUMPDEST PUSH0 DUP2 CALLDATALOAD SWAP1 POP PUSH2 0x4325 DUP2 PUSH2 0x4301 JUMP JUMPDEST SWAP3 SWAP2 POP POP JUMP JUMPDEST PUSH0 PUSH0 REVERT JUMPDEST PUSH0 PUSH0 REVERT JUMPDEST PUSH32 0x4E487B7100000000000000000000000000000000000000000000000000000000 PUSH0 MSTORE PUSH1 0x41 PUSH1 0x4 MSTORE PUSH1 0x24 PUSH0 REVERT JUMPDEST PUSH2 0x4369 DUP3 PUSH2 0x41EC JUMP JUMPDEST DUP2 ADD DUP2 DUP2 LT PUSH8 0xFFFFFFFFFFFFFFFF DUP3 GT OR ISZERO PUSH2 0x4388 JUMPI PUSH2 0x4387 PUSH2 0x4333 JUMP JUMPDEST JUMPDEST DUP1 PUSH1 0x40 MSTORE POP POP POP JUMP JUMPDEST PUSH0 PUSH2 0x439A PUSH2 0x40CF JUMP JUMPDEST SWAP1 POP PUSH2 0x43A6 DUP3 DUP3 PUSH2 0x4360 JUMP JUMPDEST SWAP2 SWAP1 POP JUMP JUMPDEST PUSH0 PUSH8 0xFFFFFFFFFFFFFFFF DUP3 GT ISZERO PUSH2 0x43C5 JUMPI PUSH2 0x43C4 PUSH2 0x4333 JUMP JUMPDEST JUMPDEST PUSH2 0x43CE DUP3 PUSH2 0x41EC JUMP JUMPDEST SWAP1 POP PUSH1 0x20 DUP2 ADD SWAP1 POP SWAP2 SWAP1 POP JUMP JUMPDEST DUP3 DUP2 DUP4 CALLDATACOPY PUSH0 DUP4 DUP4 ADD MSTORE POP POP POP JUMP JUMPDEST PUSH0 PUSH2 0x43FB PUSH2 0x43F6 DUP5 PUSH2 0x43AB JUMP JUMPDEST PUSH2 0x4391 JUMP JUMPDEST SWAP1 POP DUP3 DUP2 MSTORE PUSH1 0x20 DUP2 ADD DUP5 DUP5 DUP5 ADD GT ISZERO PUSH2 0x4417 JUMPI PUSH2 0x4416 PUSH2 0x432F JUMP JUMPDEST JUMPDEST PUSH2 0x4422 DUP5 DUP3 DUP6 PUSH2 0x43DB JUMP JUMPDEST POP SWAP4 SWAP3 POP POP POP JUMP JUMPDEST PUSH0 DUP3 PUSH1 0x1F DUP4 ADD SLT PUSH2 0x443E JUMPI PUSH2 0x443D PUSH2 0x432B JUMP JUMPDEST JUMPDEST DUP2 CALLDATALOAD PUSH2 0x444E DUP5 DUP3 PUSH1 0x20 DUP7 ADD PUSH2 0x43E9 JUMP JUMPDEST SWAP2 POP POP SWAP3 SWAP2 POP POP JUMP JUMPDEST PUSH0 PUSH0 PUSH0 PUSH0 PUSH1 0x80 DUP6 DUP8 SUB SLT ISZERO PUSH2 0x446F JUMPI PUSH2 0x446E PUSH2 0x40D8 JUMP JUMPDEST JUMPDEST PUSH0 PUSH2 0x447C DUP8 DUP3 DUP9 ADD PUSH2 0x4317 JUMP JUMPDEST SWAP5 POP POP PUSH1 0x20 PUSH2 0x448D DUP8 DUP3 DUP9 ADD PUSH2 0x4317 JUMP JUMPDEST SWAP4 POP POP PUSH1 0x40 PUSH2 0x449E DUP8 DUP3 DUP9 ADD PUSH2 0x426A JUMP JUMPDEST SWAP3 POP POP PUSH1 0x60 DUP6 ADD CALLDATALOAD PUSH8 0xFFFFFFFFFFFFFFFF DUP2 GT ISZERO PUSH2 0x44BF JUMPI PUSH2 0x44BE PUSH2 0x40DC JUMP JUMPDEST JUMPDEST PUSH2 0x44CB DUP8 DUP3 DUP9 ADD PUSH2 0x442A JUMP JUMPDEST SWAP2 POP POP SWAP3 SWAP6 SWAP2 SWAP5 POP SWAP3 POP JUMP JUMPDEST PUSH2 0x44E0 DUP2 PUSH2 0x40E0 JUMP JUMPDEST DUP3 MSTORE POP POP JUMP JUMPDEST PUSH0 PUSH1 0x20 DUP3 ADD SWAP1 POP PUSH2 0x44F9 PUSH0 DUP4 ADD DUP5 PUSH2 0x44D7 JUMP JUMPDEST SWAP3 SWAP2 POP POP JUMP JUMPDEST PUSH0 PUSH8 0xFFFFFFFFFFFFFFFF DUP3 GT ISZERO PUSH2 0x4519 JUMPI PUSH2 0x4518 PUSH2 0x4333 JUMP JUMPDEST JUMPDEST PUSH1 0x20 DUP3 MUL SWAP1 POP PUSH1 0x20 DUP2 ADD SWAP1 POP SWAP2 SWAP1 POP JUMP JUMPDEST PUSH0 PUSH0 REVERT JUMPDEST PUSH0 PUSH2 0x4540 PUSH2 0x453B DUP5 PUSH2 0x44FF JUMP JUMPDEST PUSH2 0x4391 JUMP JUMPDEST SWAP1 POP DUP1 DUP4 DUP3 MSTORE PUSH1 0x20 DUP3 ADD SWAP1 POP PUSH1 0x20 DUP5 MUL DUP4 ADD DUP6 DUP2 GT ISZERO PUSH2 0x4563 JUMPI PUSH2 0x4562 PUSH2 0x452A JUMP JUMPDEST JUMPDEST DUP4 JUMPDEST DUP2 DUP2 LT ISZERO PUSH2 0x458C JUMPI DUP1 PUSH2 0x4578 DUP9 DUP3 PUSH2 0x4317 JUMP JUMPDEST DUP5 MSTORE PUSH1 0x20 DUP5 ADD SWAP4 POP POP PUSH1 0x20 DUP2 ADD SWAP1 POP PUSH2 0x4565 JUMP JUMPDEST POP POP POP SWAP4 SWAP3 POP POP POP JUMP JUMPDEST PUSH0 DUP3 PUSH1 0x1F DUP4 ADD SLT PUSH2 0x45AA JUMPI PUSH2 0x45A9 PUSH2 0x432B JUMP JUMPDEST JUMPDEST DUP2 CALLDATALOAD PUSH2 0x45BA DUP5 DUP3 PUSH1 0x20 DUP7 ADD PUSH2 0x452E JUMP JUMPDEST SWAP2 POP POP SWAP3 SWAP2 POP POP JUMP JUMPDEST PUSH0 PUSH8 0xFFFFFFFFFFFFFFFF DUP3 GT ISZERO PUSH2 0x45DD JUMPI PUSH2 0x45DC PUSH2 0x4333 JUMP JUMPDEST JUMPDEST PUSH1 0x20 DUP3 MUL SWAP1 POP PUSH1 0x20 DUP2 ADD SWAP1 POP SWAP2 SWAP1 POP JUMP JUMPDEST PUSH0 PUSH2 0x4600 PUSH2 0x45FB DUP5 PUSH2 0x45C3 JUMP JUMPDEST PUSH2 0x4391 JUMP JUMPDEST SWAP1 POP DUP1 DUP4 DUP3 MSTORE PUSH1 0x20 DUP3 ADD SWAP1 POP PUSH1 0x20 DUP5 MUL DUP4 ADD DUP6 DUP2 GT ISZERO PUSH2 0x4623 JUMPI PUSH2 0x4622 PUSH2 0x452A JUMP JUMPDEST JUMPDEST DUP4 JUMPDEST DUP2 DUP2 LT ISZERO PUSH2 0x464C JUMPI DUP1 PUSH2 0x4638 DUP9 DUP3 PUSH2 0x426A JUMP JUMPDEST DUP5 MSTORE PUSH1 0x20 DUP5 ADD SWAP4 POP POP PUSH1 0x20 DUP2 ADD SWAP1 POP PUSH2 0x4625 JUMP JUMPDEST POP POP POP SWAP4 SWAP3 POP POP POP JUMP JUMPDEST PUSH0 DUP3 PUSH1 0x1F DUP4 ADD SLT PUSH2 0x466A JUMPI PUSH2 0x4669 PUSH2 0x432B JUMP JUMPDEST JUMPDEST DUP2 CALLDATALOAD PUSH2 0x467A DUP5 DUP3 PUSH1 0x20 DUP7 ADD PUSH2 0x45EE JUMP JUMPDEST SWAP2 POP POP SWAP3 SWAP2 POP POP JUMP JUMPDEST PUSH0 PUSH8 0xFFFFFFFFFFFFFFFF DUP3 GT ISZERO PUSH2 0x469D JUMPI PUSH2 0x469C PUSH2 0x4333 JUMP JUMPDEST JUMPDEST PUSH1 0x20 DUP3 MUL SWAP1 POP PUSH1 0x20 DUP2 ADD SWAP1 POP SWAP2 SWAP1 POP JUMP JUMPDEST PUSH0 PUSH2 0x46C0 PUSH2 0x46BB DUP5 PUSH2 0x4683 JUMP JUMPDEST PUSH2 0x4391 JUMP JUMPDEST SWAP1 POP DUP1 DUP4 DUP3 MSTORE PUSH1 0x20 DUP3 ADD SWAP1 POP PUSH1 0x20 DUP5 MUL DUP4 ADD DUP6 DUP2 GT ISZERO PUSH2 0x46E3 JUMPI PUSH2 0x46E2 PUSH2 0x452A JUMP JUMPDEST JUMPDEST DUP4 JUMPDEST DUP2 DUP2 LT ISZERO PUSH2 0x472A JUMPI DUP1 CALLDATALOAD PUSH8 0xFFFFFFFFFFFFFFFF DUP2 GT ISZERO PUSH2 0x4708 JUMPI PUSH2 0x4707 PUSH2 0x432B JUMP JUMPDEST JUMPDEST DUP1 DUP7 ADD PUSH2 0x4715 DUP10 DUP3 PUSH2 0x442A JUMP JUMPDEST DUP6 MSTORE PUSH1 0x20 DUP6 ADD SWAP5 POP POP POP PUSH1 0x20 DUP2 ADD SWAP1 POP PUSH2 0x46E5 JUMP JUMPDEST POP POP POP SWAP4 SWAP3 POP POP POP JUMP JUMPDEST PUSH0 DUP3 PUSH1 0x1F DUP4 ADD SLT PUSH2 0x4748 JUMPI PUSH2 0x4747 PUSH2 0x432B JUMP JUMPDEST JUMPDEST DUP2 CALLDATALOAD PUSH2 0x4758 DUP5 DUP3 PUSH1 0x20 DUP7 ADD PUSH2 0x46AE JUMP JUMPDEST SWAP2 POP POP SWAP3 SWAP2 POP POP JUMP JUMPDEST PUSH0 DUP2 SWAP1 POP SWAP2 SWAP1 POP JUMP JUMPDEST PUSH2 0x4773 DUP2 PUSH2 0x4761 JUMP JUMPDEST DUP2 EQ PUSH2 0x477D JUMPI PUSH0 PUSH0 REVERT JUMPDEST POP JUMP JUMPDEST PUSH0 DUP2 CALLDATALOAD SWAP1 POP PUSH2 0x478E DUP2 PUSH2 0x476A JUMP JUMPDEST SWAP3 SWAP2 POP POP JUMP JUMPDEST PUSH0 PUSH0 PUSH0 PUSH0 PUSH1 0x80 DUP6 DUP8 SUB SLT ISZERO PUSH2 0x47AC JUMPI PUSH2 0x47AB PUSH2 0x40D8 JUMP JUMPDEST JUMPDEST PUSH0 DUP6 ADD CALLDATALOAD PUSH8 0xFFFFFFFFFFFFFFFF DUP2 GT ISZERO PUSH2 0x47C9 JUMPI PUSH2 0x47C8 PUSH2 0x40DC JUMP JUMPDEST JUMPDEST PUSH2 0x47D5 DUP8 DUP3 DUP9 ADD PUSH2 0x4596 JUMP JUMPDEST SWAP5 POP POP PUSH1 0x20 DUP6 ADD CALLDATALOAD PUSH8 0xFFFFFFFFFFFFFFFF DUP2 GT ISZERO PUSH2 0x47F6 JUMPI PUSH2 0x47F5 PUSH2 0x40DC JUMP JUMPDEST JUMPDEST PUSH2 0x4802 DUP8 DUP3 DUP9 ADD PUSH2 0x4656 JUMP JUMPDEST SWAP4 POP POP PUSH1 0x40 DUP6 ADD CALLDATALOAD PUSH8 0xFFFFFFFFFFFFFFFF DUP2 GT ISZERO PUSH2 0x4823 JUMPI PUSH2 0x4822 PUSH2 0x40DC JUMP JUMPDEST JUMPDEST PUSH2 0x482F DUP8 DUP3 DUP9 ADD PUSH2 0x4734 JUMP JUMPDEST SWAP3 POP POP PUSH1 0x60 PUSH2 0x4840 DUP8 DUP3 DUP9 ADD PUSH2 0x4780 JUMP JUMPDEST SWAP2 POP POP SWAP3 SWAP6 SWAP2 SWAP5 POP SWAP3 POP JUMP JUMPDEST PUSH0 PUSH1 0x20 DUP3 DUP5 SUB SLT ISZERO PUSH2 0x4861 JUMPI PUSH2 0x4860 PUSH2 0x40D8 JUMP JUMPDEST JUMPDEST PUSH0 PUSH2 0x486E DUP5 DUP3 DUP6 ADD PUSH2 0x4317 JUMP JUMPDEST SWAP2 POP POP SWAP3 SWAP2 POP POP JUMP JUMPDEST PUSH2 0x4880 DUP2 PUSH2 0x4761 JUMP JUMPDEST DUP3 MSTORE POP POP JUMP JUMPDEST PUSH0 PUSH1 0x20 DUP3 ADD SWAP1 POP PUSH2 0x4899 PUSH0 DUP4 ADD DUP5 PUSH2 0x4877 JUMP JUMPDEST SWAP3 SWAP2 POP POP JUMP JUMPDEST PUSH32 0x4E487B7100000000000000000000000000000000000000000000000000000000 PUSH0 MSTORE PUSH1 0x21 PUSH1 0x4 MSTORE PUSH1 0x24 PUSH0 REVERT JUMPDEST PUSH1 0x8 DUP2 LT PUSH2 0x48DD JUMPI PUSH2 0x48DC PUSH2 0x489F JUMP JUMPDEST JUMPDEST POP JUMP JUMPDEST PUSH0 DUP2 SWAP1 POP PUSH2 0x48ED DUP3 PUSH2 0x48CC JUMP JUMPDEST SWAP2 SWAP1 POP JUMP JUMPDEST PUSH0 PUSH2 0x48FC DUP3 PUSH2 0x48E0 JUMP JUMPDEST SWAP1 POP SWAP2 SWAP1 POP JUMP JUMPDEST PUSH2 0x490C DUP2 PUSH2 0x48F2 JUMP JUMPDEST DUP3 MSTORE POP POP JUMP JUMPDEST PUSH0 PUSH1 0x20 DUP3 ADD SWAP1 POP PUSH2 0x4925 PUSH0 DUP4 ADD DUP5 PUSH2 0x4903 JUMP JUMPDEST SWAP3 SWAP2 POP POP JUMP JUMPDEST PUSH0 PUSH0 PUSH1 0x40 DUP4 DUP6 SUB SLT ISZERO PUSH2 0x4941 JUMPI PUSH2 0x4940 PUSH2 0x40D8 JUMP JUMPDEST JUMPDEST PUSH0 PUSH2 0x494E DUP6 DUP3 DUP7 ADD PUSH2 0x426A JUMP JUMPDEST SWAP3 POP POP PUSH1 0x20 PUSH2 0x495F DUP6 DUP3 DUP7 ADD PUSH2 0x4317 JUMP JUMPDEST SWAP2 POP POP SWAP3 POP SWAP3 SWAP1 POP JUMP JUMPDEST PUSH0 PUSH1 0x60 DUP3 ADD SWAP1 POP PUSH2 0x497C PUSH0 DUP4 ADD DUP7 PUSH2 0x419C JUMP JUMPDEST PUSH2 0x4989 PUSH1 0x20 DUP4 ADD DUP6 PUSH2 0x419C JUMP JUMPDEST PUSH2 0x4996 PUSH1 0x40 DUP4 ADD DUP5 PUSH2 0x419C JUMP JUMPDEST SWAP5 SWAP4 POP POP POP POP JUMP JUMPDEST PUSH0 PUSH1 0xFF DUP3 AND SWAP1 POP SWAP2 SWAP1 POP JUMP JUMPDEST PUSH2 0x49B3 DUP2 PUSH2 0x499E JUMP JUMPDEST DUP2 EQ PUSH2 0x49BD JUMPI PUSH0 PUSH0 REVERT JUMPDEST POP JUMP JUMPDEST PUSH0 DUP2 CALLDATALOAD SWAP1 POP PUSH2 0x49CE DUP2 PUSH2 0x49AA JUMP JUMPDEST SWAP3 SWAP2 POP POP JUMP JUMPDEST PUSH0 PUSH0 PUSH1 0x40 DUP4 DUP6 SUB SLT ISZERO PUSH2 0x49EA JUMPI PUSH2 0x49E9 PUSH2 0x40D8 JUMP JUMPDEST JUMPDEST PUSH0 PUSH2 0x49F7 DUP6 DUP3 DUP7 ADD PUSH2 0x426A JUMP JUMPDEST SWAP3 POP POP PUSH1 0x20 PUSH2 0x4A08 DUP6 DUP3 DUP7 ADD PUSH2 0x49C0 JUMP JUMPDEST SWAP2 POP POP SWAP3 POP SWAP3 SWAP1 POP JUMP JUMPDEST PUSH0 PUSH0 REVERT JUMPDEST PUSH0 PUSH0 DUP4 PUSH1 0x1F DUP5 ADD SLT PUSH2 0x4A2B JUMPI PUSH2 0x4A2A PUSH2 0x432B JUMP JUMPDEST JUMPDEST DUP3 CALLDATALOAD SWAP1 POP PUSH8 0xFFFFFFFFFFFFFFFF DUP2 GT ISZERO PUSH2 0x4A48 JUMPI PUSH2 0x4A47 PUSH2 0x4A12 JUMP JUMPDEST JUMPDEST PUSH1 0x20 DUP4 ADD SWAP2 POP DUP4 PUSH1 0x1 DUP3 MUL DUP4 ADD GT ISZERO PUSH2 0x4A64 JUMPI PUSH2 0x4A63 PUSH2 0x452A JUMP JUMPDEST JUMPDEST SWAP3 POP SWAP3 SWAP1 POP JUMP JUMPDEST PUSH0 PUSH0 PUSH0 PUSH0 PUSH0 PUSH0 PUSH0 PUSH1 0xC0 DUP9 DUP11 SUB SLT ISZERO PUSH2 0x4A86 JUMPI PUSH2 0x4A85 PUSH2 0x40D8 JUMP JUMPDEST JUMPDEST PUSH0 PUSH2 0x4A93 DUP11 DUP3 DUP12 ADD PUSH2 0x426A JUMP JUMPDEST SWAP8 POP POP PUSH1 0x20 PUSH2 0x4AA4 DUP11 DUP3 DUP12 ADD PUSH2 0x49C0 JUMP JUMPDEST SWAP7 POP POP PUSH1 0x40 PUSH2 0x4AB5 DUP11 DUP3 DUP12 ADD PUSH2 0x4317 JUMP JUMPDEST SWAP6 POP POP PUSH1 0x60 DUP9 ADD CALLDATALOAD PUSH8 0xFFFFFFFFFFFFFFFF DUP2 GT ISZERO PUSH2 0x4AD6 JUMPI PUSH2 0x4AD5 PUSH2 0x40DC JUMP JUMPDEST JUMPDEST PUSH2 0x4AE2 DUP11 DUP3 DUP12 ADD PUSH2 0x4A16 JUMP JUMPDEST SWAP5 POP SWAP5 POP POP PUSH1 0x80 DUP9 ADD CALLDATALOAD PUSH8 0xFFFFFFFFFFFFFFFF DUP2 GT ISZERO PUSH2 0x4B05 JUMPI PUSH2 0x4B04 PUSH2 0x40DC JUMP JUMPDEST JUMPDEST PUSH2 0x4B11 DUP11 DUP3 DUP12 ADD PUSH2 0x442A JUMP JUMPDEST SWAP3 POP POP PUSH1 0xA0 DUP9 ADD CALLDATALOAD PUSH8 0xFFFFFFFFFFFFFFFF DUP2 GT ISZERO PUSH2 0x4B32 JUMPI PUSH2 0x4B31 PUSH2 0x40DC JUMP JUMPDEST JUMPDEST PUSH2 0x4B3E DUP11 DUP3 DUP12 ADD PUSH2 0x442A JUMP JUMPDEST SWAP2 POP POP SWAP3 SWAP6 SWAP9 SWAP2 SWAP5 SWAP8 POP SWAP3 SWAP6 POP JUMP JUMPDEST PUSH0 PUSH0 PUSH0 PUSH0 PUSH0 PUSH1 0x80 DUP7 DUP9 SUB SLT ISZERO PUSH2 0x4B66 JUMPI PUSH2 0x4B65 PUSH2 0x40D8 JUMP JUMPDEST JUMPDEST PUSH0 PUSH2 0x4B73 DUP9 DUP3 DUP10 ADD PUSH2 0x426A JUMP JUMPDEST SWAP6 POP POP PUSH1 0x20 PUSH2 0x4B84 DUP9 DUP3 DUP10 ADD PUSH2 0x49C0 JUMP JUMPDEST SWAP5 POP POP PUSH1 0x40 DUP7 ADD CALLDATALOAD PUSH8 0xFFFFFFFFFFFFFFFF DUP2 GT ISZERO PUSH2 0x4BA5 JUMPI PUSH2 0x4BA4 PUSH2 0x40DC JUMP JUMPDEST JUMPDEST PUSH2 0x4BB1 DUP9 DUP3 DUP10 ADD PUSH2 0x4A16 JUMP JUMPDEST SWAP4 POP SWAP4 POP POP PUSH1 0x60 DUP7 ADD CALLDATALOAD PUSH8 0xFFFFFFFFFFFFFFFF DUP2 GT ISZERO PUSH2 0x4BD4 JUMPI PUSH2 0x4BD3 PUSH2 0x40DC JUMP JUMPDEST JUMPDEST PUSH2 0x4BE0 DUP9 DUP3 DUP10 ADD PUSH2 0x442A JUMP JUMPDEST SWAP2 POP POP SWAP3 SWAP6 POP SWAP3 SWAP6 SWAP1 SWAP4 POP JUMP JUMPDEST PUSH0 PUSH6 0xFFFFFFFFFFFF DUP3 AND SWAP1 POP SWAP2 SWAP1 POP JUMP JUMPDEST PUSH2 0x4C07 DUP2 PUSH2 0x4BED JUMP JUMPDEST DUP2 EQ PUSH2 0x4C11 JUMPI PUSH0 PUSH0 REVERT JUMPDEST POP JUMP JUMPDEST PUSH0 DUP2 CALLDATALOAD SWAP1 POP PUSH2 0x4C22 DUP2 PUSH2 0x4BFE JUMP JUMPDEST SWAP3 SWAP2 POP POP JUMP JUMPDEST PUSH0 PUSH1 0x20 DUP3 DUP5 SUB SLT ISZERO PUSH2 0x4C3D JUMPI PUSH2 0x4C3C PUSH2 0x40D8 JUMP JUMPDEST JUMPDEST PUSH0 PUSH2 0x4C4A DUP5 DUP3 DUP6 ADD PUSH2 0x4C14 JUMP JUMPDEST SWAP2 POP POP SWAP3 SWAP2 POP POP JUMP JUMPDEST PUSH0 PUSH0 PUSH0 PUSH0 PUSH1 0x60 DUP6 DUP8 SUB SLT ISZERO PUSH2 0x4C6B JUMPI PUSH2 0x4C6A PUSH2 0x40D8 JUMP JUMPDEST JUMPDEST PUSH0 PUSH2 0x4C78 DUP8 DUP3 DUP9 ADD PUSH2 0x426A JUMP JUMPDEST SWAP5 POP POP PUSH1 0x20 PUSH2 0x4C89 DUP8 DUP3 DUP9 ADD PUSH2 0x49C0 JUMP JUMPDEST SWAP4 POP POP PUSH1 0x40 DUP6 ADD CALLDATALOAD PUSH8 0xFFFFFFFFFFFFFFFF DUP2 GT ISZERO PUSH2 0x4CAA JUMPI PUSH2 0x4CA9 PUSH2 0x40DC JUMP JUMPDEST JUMPDEST PUSH2 0x4CB6 DUP8 DUP3 DUP9 ADD PUSH2 0x4A16 JUMP JUMPDEST SWAP3 POP SWAP3 POP POP SWAP3 SWAP6 SWAP2 SWAP5 POP SWAP3 POP JUMP JUMPDEST PUSH0 PUSH8 0xFFFFFFFFFFFFFFFF DUP3 GT ISZERO PUSH2 0x4CDE JUMPI PUSH2 0x4CDD PUSH2 0x4333 JUMP JUMPDEST JUMPDEST PUSH2 0x4CE7 DUP3 PUSH2 0x41EC JUMP JUMPDEST SWAP1 POP PUSH1 0x20 DUP2 ADD SWAP1 POP SWAP2 SWAP1 POP JUMP JUMPDEST PUSH0 PUSH2 0x4D06 PUSH2 0x4D01 DUP5 PUSH2 0x4CC4 JUMP JUMPDEST PUSH2 0x4391 JUMP JUMPDEST SWAP1 POP DUP3 DUP2 MSTORE PUSH1 0x20 DUP2 ADD DUP5 DUP5 DUP5 ADD GT ISZERO PUSH2 0x4D22 JUMPI PUSH2 0x4D21 PUSH2 0x432F JUMP JUMPDEST JUMPDEST PUSH2 0x4D2D DUP5 DUP3 DUP6 PUSH2 0x43DB JUMP JUMPDEST POP SWAP4 SWAP3 POP POP POP JUMP JUMPDEST PUSH0 DUP3 PUSH1 0x1F DUP4 ADD SLT PUSH2 0x4D49 JUMPI PUSH2 0x4D48 PUSH2 0x432B JUMP JUMPDEST JUMPDEST DUP2 CALLDATALOAD PUSH2 0x4D59 DUP5 DUP3 PUSH1 0x20 DUP7 ADD PUSH2 0x4CF4 JUMP JUMPDEST SWAP2 POP POP SWAP3 SWAP2 POP POP JUMP JUMPDEST PUSH0 PUSH0 PUSH0 PUSH0 PUSH1 0x80 DUP6 DUP8 SUB SLT ISZERO PUSH2 0x4D7A JUMPI PUSH2 0x4D79 PUSH2 0x40D8 JUMP JUMPDEST JUMPDEST PUSH0 DUP6 ADD CALLDATALOAD PUSH8 0xFFFFFFFFFFFFFFFF DUP2 GT ISZERO PUSH2 0x4D97 JUMPI PUSH2 0x4D96 PUSH2 0x40DC JUMP JUMPDEST JUMPDEST PUSH2 0x4DA3 DUP8 DUP3 DUP9 ADD PUSH2 0x4596 JUMP JUMPDEST SWAP5 POP POP PUSH1 0x20 DUP6 ADD CALLDATALOAD PUSH8 0xFFFFFFFFFFFFFFFF DUP2 GT ISZERO PUSH2 0x4DC4 JUMPI PUSH2 0x4DC3 PUSH2 0x40DC JUMP JUMPDEST JUMPDEST PUSH2 0x4DD0 DUP8 DUP3 DUP9 ADD PUSH2 0x4656 JUMP JUMPDEST SWAP4 POP POP PUSH1 0x40 DUP6 ADD CALLDATALOAD PUSH8 0xFFFFFFFFFFFFFFFF DUP2 GT ISZERO PUSH2 0x4DF1 JUMPI PUSH2 0x4DF0 PUSH2 0x40DC JUMP JUMPDEST JUMPDEST PUSH2 0x4DFD DUP8 DUP3 DUP9 ADD PUSH2 0x4734 JUMP JUMPDEST SWAP3 POP POP PUSH1 0x60 DUP6 ADD CALLDATALOAD PUSH8 0xFFFFFFFFFFFFFFFF DUP2 GT ISZERO PUSH2 0x4E1E JUMPI PUSH2 0x4E1D PUSH2 0x40DC JUMP JUMPDEST JUMPDEST PUSH2 0x4E2A DUP8 DUP3 DUP9 ADD PUSH2 0x4D35 JUMP JUMPDEST SWAP2 POP POP SWAP3 SWAP6 SWAP2 SWAP5 POP SWAP3 POP JUMP JUMPDEST PUSH0 PUSH32 0xFF00000000000000000000000000000000000000000000000000000000000000 DUP3 AND SWAP1 POP SWAP2 SWAP1 POP JUMP JUMPDEST PUSH2 0x4E6A DUP2 PUSH2 0x4E36 JUMP JUMPDEST DUP3 MSTORE POP POP JUMP JUMPDEST PUSH0 DUP2 MLOAD SWAP1 POP SWAP2 SWAP1 POP JUMP JUMPDEST PUSH0 DUP3 DUP3 MSTORE PUSH1 0x20 DUP3 ADD SWAP1 POP SWAP3 SWAP2 POP POP JUMP JUMPDEST PUSH0 DUP2 SWAP1 POP PUSH1 0x20 DUP3 ADD SWAP1 POP SWAP2 SWAP1 POP JUMP JUMPDEST PUSH2 0x4EA2 DUP2 PUSH2 0x4193 JUMP JUMPDEST DUP3 MSTORE POP POP JUMP JUMPDEST PUSH0 PUSH2 0x4EB3 DUP4 DUP4 PUSH2 0x4E99 JUMP JUMPDEST PUSH1 0x20 DUP4 ADD SWAP1 POP SWAP3 SWAP2 POP POP JUMP JUMPDEST PUSH0 PUSH1 0x20 DUP3 ADD SWAP1 POP SWAP2 SWAP1 POP JUMP JUMPDEST PUSH0 PUSH2 0x4ED5 DUP3 PUSH2 0x4E70 JUMP JUMPDEST PUSH2 0x4EDF DUP2 DUP6 PUSH2 0x4E7A JUMP JUMPDEST SWAP4 POP PUSH2 0x4EEA DUP4 PUSH2 0x4E8A JUMP JUMPDEST DUP1 PUSH0 JUMPDEST DUP4 DUP2 LT ISZERO PUSH2 0x4F1A JUMPI DUP2 MLOAD PUSH2 0x4F01 DUP9 DUP3 PUSH2 0x4EA8 JUMP JUMPDEST SWAP8 POP PUSH2 0x4F0C DUP4 PUSH2 0x4EBF JUMP JUMPDEST SWAP3 POP POP PUSH1 0x1 DUP2 ADD SWAP1 POP PUSH2 0x4EED JUMP JUMPDEST POP DUP6 SWAP4 POP POP POP POP SWAP3 SWAP2 POP POP JUMP JUMPDEST PUSH0 PUSH1 0xE0 DUP3 ADD SWAP1 POP PUSH2 0x4F3A PUSH0 DUP4 ADD DUP11 PUSH2 0x4E61 JUMP JUMPDEST DUP2 DUP2 SUB PUSH1 0x20 DUP4 ADD MSTORE PUSH2 0x4F4C DUP2 DUP10 PUSH2 0x41FC JUMP JUMPDEST SWAP1 POP DUP2 DUP2 SUB PUSH1 0x40 DUP4 ADD MSTORE PUSH2 0x4F60 DUP2 DUP9 PUSH2 0x41FC JUMP JUMPDEST SWAP1 POP PUSH2 0x4F6F PUSH1 0x60 DUP4 ADD DUP8 PUSH2 0x419C JUMP JUMPDEST PUSH2 0x4F7C PUSH1 0x80 DUP4 ADD DUP7 PUSH2 0x42D9 JUMP JUMPDEST PUSH2 0x4F89 PUSH1 0xA0 DUP4 ADD DUP6 PUSH2 0x4877 JUMP JUMPDEST DUP2 DUP2 SUB PUSH1 0xC0 DUP4 ADD MSTORE PUSH2 0x4F9B DUP2 DUP5 PUSH2 0x4ECB JUMP JUMPDEST SWAP1 POP SWAP9 SWAP8 POP POP POP POP POP POP POP POP JUMP JUMPDEST PUSH0 PUSH0 PUSH0 PUSH0 PUSH1 0x80 DUP6 DUP8 SUB SLT ISZERO PUSH2 0x4FC1 JUMPI PUSH2 0x4FC0 PUSH2 0x40D8 JUMP JUMPDEST JUMPDEST PUSH0 PUSH2 0x4FCE DUP8 DUP3 DUP9 ADD PUSH2 0x426A JUMP JUMPDEST SWAP5 POP POP PUSH1 0x20 PUSH2 0x4FDF DUP8 DUP3 DUP9 ADD PUSH2 0x49C0 JUMP JUMPDEST SWAP4 POP POP PUSH1 0x40 PUSH2 0x4FF0 DUP8 DUP3 DUP9 ADD PUSH2 0x4317 JUMP JUMPDEST SWAP3 POP POP PUSH1 0x60 DUP6 ADD CALLDATALOAD PUSH8 0xFFFFFFFFFFFFFFFF DUP2 GT ISZERO PUSH2 0x5011 JUMPI PUSH2 0x5010 PUSH2 0x40DC JUMP JUMPDEST JUMPDEST PUSH2 0x501D DUP8 DUP3 DUP9 ADD PUSH2 0x442A JUMP JUMPDEST SWAP2 POP POP SWAP3 SWAP6 SWAP2 SWAP5 POP SWAP3 POP JUMP JUMPDEST PUSH2 0x5032 DUP2 PUSH2 0x4BED JUMP JUMPDEST DUP3 MSTORE POP POP JUMP JUMPDEST PUSH0 PUSH1 0x20 DUP3 ADD SWAP1 POP PUSH2 0x504B PUSH0 DUP4 ADD DUP5 PUSH2 0x5029 JUMP JUMPDEST SWAP3 SWAP2 POP POP JUMP JUMPDEST PUSH0 DUP2 SWAP1 POP SWAP2 SWAP1 POP JUMP JUMPDEST PUSH0 PUSH2 0x5074 PUSH2 0x506F PUSH2 0x506A DUP5 PUSH2 0x42A9 JUMP JUMPDEST PUSH2 0x5051 JUMP JUMPDEST PUSH2 0x42A9 JUMP JUMPDEST SWAP1 POP SWAP2 SWAP1 POP JUMP JUMPDEST PUSH0 PUSH2 0x5085 DUP3 PUSH2 0x505A JUMP JUMPDEST SWAP1 POP SWAP2 SWAP1 POP JUMP JUMPDEST PUSH0 PUSH2 0x5096 DUP3 PUSH2 0x507B JUMP JUMPDEST SWAP1 POP SWAP2 SWAP1 POP JUMP JUMPDEST PUSH2 0x50A6 DUP2 PUSH2 0x508C JUMP JUMPDEST DUP3 MSTORE POP POP JUMP JUMPDEST PUSH0 PUSH1 0x20 DUP3 ADD SWAP1 POP PUSH2 0x50BF PUSH0 DUP4 ADD DUP5 PUSH2 0x509D JUMP JUMPDEST SWAP3 SWAP2 POP POP JUMP JUMPDEST PUSH0 PUSH0 PUSH0 PUSH1 0x60 DUP5 DUP7 SUB SLT ISZERO PUSH2 0x50DC JUMPI PUSH2 0x50DB PUSH2 0x40D8 JUMP JUMPDEST JUMPDEST PUSH0 PUSH2 0x50E9 DUP7 DUP3 DUP8 ADD PUSH2 0x4317 JUMP JUMPDEST SWAP4 POP POP PUSH1 0x20 PUSH2 0x50FA DUP7 DUP3 DUP8 ADD PUSH2 0x426A JUMP JUMPDEST SWAP3 POP POP PUSH1 0x40 DUP5 ADD CALLDATALOAD PUSH8 0xFFFFFFFFFFFFFFFF DUP2 GT ISZERO PUSH2 0x511B JUMPI PUSH2 0x511A PUSH2 0x40DC JUMP JUMPDEST JUMPDEST PUSH2 0x5127 DUP7 DUP3 DUP8 ADD PUSH2 0x442A JUMP JUMPDEST SWAP2 POP POP SWAP3 POP SWAP3 POP SWAP3 JUMP JUMPDEST PUSH0 PUSH2 0x513B DUP3 PUSH2 0x507B JUMP JUMPDEST SWAP1 POP SWAP2 SWAP1 POP JUMP JUMPDEST PUSH2 0x514B DUP2 PUSH2 0x5131 JUMP JUMPDEST DUP3 MSTORE POP POP JUMP JUMPDEST PUSH0 PUSH1 0x20 DUP3 ADD SWAP1 POP PUSH2 0x5164 PUSH0 DUP4 ADD DUP5 PUSH2 0x5142 JUMP JUMPDEST SWAP3 SWAP2 POP POP JUMP JUMPDEST PUSH0 PUSH2 0x5174 DUP3 PUSH2 0x507B JUMP JUMPDEST SWAP1 POP SWAP2 SWAP1 POP JUMP JUMPDEST PUSH2 0x5184 DUP2 PUSH2 0x516A JUMP JUMPDEST DUP3 MSTORE POP POP JUMP JUMPDEST PUSH0 PUSH1 0x20 DUP3 ADD SWAP1 POP PUSH2 0x519D PUSH0 DUP4 ADD DUP5 PUSH2 0x517B JUMP JUMPDEST SWAP3 SWAP2 POP POP JUMP JUMPDEST PUSH0 PUSH0 PUSH0 PUSH0 PUSH0 PUSH1 0xA0 DUP7 DUP9 SUB SLT ISZERO PUSH2 0x51BC JUMPI PUSH2 0x51BB PUSH2 0x40D8 JUMP JUMPDEST JUMPDEST PUSH0 PUSH2 0x51C9 DUP9 DUP3 DUP10 ADD PUSH2 0x4317 JUMP JUMPDEST SWAP6 POP POP PUSH1 0x20 PUSH2 0x51DA DUP9 DUP3 DUP10 ADD PUSH2 0x4317 JUMP JUMPDEST SWAP5 POP POP PUSH1 0x40 DUP7 ADD CALLDATALOAD PUSH8 0xFFFFFFFFFFFFFFFF DUP2 GT ISZERO PUSH2 0x51FB JUMPI PUSH2 0x51FA PUSH2 0x40DC JUMP JUMPDEST JUMPDEST PUSH2 0x5207 DUP9 DUP3 DUP10 ADD PUSH2 0x4656 JUMP JUMPDEST SWAP4 POP POP PUSH1 0x60 DUP7 ADD CALLDATALOAD PUSH8 0xFFFFFFFFFFFFFFFF DUP2 GT ISZERO PUSH2 0x5228 JUMPI PUSH2 0x5227 PUSH2 0x40DC JUMP JUMPDEST JUMPDEST PUSH2 0x5234 DUP9 DUP3 DUP10 ADD PUSH2 0x4656 JUMP JUMPDEST SWAP3 POP POP PUSH1 0x80 DUP7 ADD CALLDATALOAD PUSH8 0xFFFFFFFFFFFFFFFF DUP2 GT ISZERO PUSH2 0x5255 JUMPI PUSH2 0x5254 PUSH2 0x40DC JUMP JUMPDEST JUMPDEST PUSH2 0x5261 DUP9 DUP3 DUP10 ADD PUSH2 0x442A JUMP JUMPDEST SWAP2 POP POP SWAP3 SWAP6 POP SWAP3 SWAP6 SWAP1 SWAP4 POP JUMP JUMPDEST PUSH0 PUSH0 DUP4 PUSH1 0x1F DUP5 ADD SLT PUSH2 0x5283 JUMPI PUSH2 0x5282 PUSH2 0x432B JUMP JUMPDEST JUMPDEST DUP3 CALLDATALOAD SWAP1 POP PUSH8 0xFFFFFFFFFFFFFFFF DUP2 GT ISZERO PUSH2 0x52A0 JUMPI PUSH2 0x529F PUSH2 0x4A12 JUMP JUMPDEST JUMPDEST PUSH1 0x20 DUP4 ADD SWAP2 POP DUP4 PUSH1 0x1 DUP3 MUL DUP4 ADD GT ISZERO PUSH2 0x52BC JUMPI PUSH2 0x52BB PUSH2 0x452A JUMP JUMPDEST JUMPDEST SWAP3 POP SWAP3 SWAP1 POP JUMP JUMPDEST PUSH0 PUSH0 PUSH0 PUSH0 PUSH1 0x60 DUP6 DUP8 SUB SLT ISZERO PUSH2 0x52DB JUMPI PUSH2 0x52DA PUSH2 0x40D8 JUMP JUMPDEST JUMPDEST PUSH0 PUSH2 0x52E8 DUP8 DUP3 DUP9 ADD PUSH2 0x4317 JUMP JUMPDEST SWAP5 POP POP PUSH1 0x20 PUSH2 0x52F9 DUP8 DUP3 DUP9 ADD PUSH2 0x426A JUMP JUMPDEST SWAP4 POP POP PUSH1 0x40 DUP6 ADD CALLDATALOAD PUSH8 0xFFFFFFFFFFFFFFFF DUP2 GT ISZERO PUSH2 0x531A JUMPI PUSH2 0x5319 PUSH2 0x40DC JUMP JUMPDEST JUMPDEST PUSH2 0x5326 DUP8 DUP3 DUP9 ADD PUSH2 0x526E JUMP JUMPDEST SWAP3 POP SWAP3 POP POP SWAP3 SWAP6 SWAP2 SWAP5 POP SWAP3 POP JUMP JUMPDEST PUSH0 PUSH2 0x533E DUP3 PUSH2 0x507B JUMP JUMPDEST SWAP1 POP SWAP2 SWAP1 POP JUMP JUMPDEST PUSH2 0x534E DUP2 PUSH2 0x5334 JUMP JUMPDEST DUP3 MSTORE POP POP JUMP JUMPDEST PUSH0 PUSH1 0x20 DUP3 ADD SWAP1 POP PUSH2 0x5367 PUSH0 DUP4 ADD DUP5 PUSH2 0x5345 JUMP JUMPDEST SWAP3 SWAP2 POP POP JUMP JUMPDEST PUSH0 PUSH0 PUSH1 0x40 DUP4 DUP6 SUB SLT ISZERO PUSH2 0x5383 JUMPI PUSH2 0x5382 PUSH2 0x40D8 JUMP JUMPDEST JUMPDEST PUSH0 PUSH2 0x5390 DUP6 DUP3 DUP7 ADD PUSH2 0x426A JUMP JUMPDEST SWAP3 POP POP PUSH1 0x20 DUP4 ADD CALLDATALOAD PUSH8 0xFFFFFFFFFFFFFFFF DUP2 GT ISZERO PUSH2 0x53B1 JUMPI PUSH2 0x53B0 PUSH2 0x40DC JUMP JUMPDEST JUMPDEST PUSH2 0x53BD DUP6 DUP3 DUP7 ADD PUSH2 0x4D35 JUMP JUMPDEST SWAP2 POP POP SWAP3 POP SWAP3 SWAP1 POP JUMP JUMPDEST PUSH0 PUSH4 0xFFFFFFFF DUP3 AND SWAP1 POP SWAP2 SWAP1 POP JUMP JUMPDEST PUSH2 0x53DF DUP2 PUSH2 0x53C7 JUMP JUMPDEST DUP2 EQ PUSH2 0x53E9 JUMPI PUSH0 PUSH0 REVERT JUMPDEST POP JUMP JUMPDEST PUSH0 DUP2 CALLDATALOAD SWAP1 POP PUSH2 0x53FA DUP2 PUSH2 0x53D6 JUMP JUMPDEST SWAP3 SWAP2 POP POP JUMP JUMPDEST PUSH0 PUSH1 0x20 DUP3 DUP5 SUB SLT ISZERO PUSH2 0x5415 JUMPI PUSH2 0x5414 PUSH2 0x40D8 JUMP JUMPDEST JUMPDEST PUSH0 PUSH2 0x5422 DUP5 DUP3 DUP6 ADD PUSH2 0x53EC JUMP JUMPDEST SWAP2 POP POP SWAP3 SWAP2 POP POP JUMP JUMPDEST PUSH0 PUSH0 PUSH1 0x40 DUP4 DUP6 SUB SLT ISZERO PUSH2 0x5441 JUMPI PUSH2 0x5440 PUSH2 0x40D8 JUMP JUMPDEST JUMPDEST PUSH0 PUSH2 0x544E DUP6 DUP3 DUP7 ADD PUSH2 0x4317 JUMP JUMPDEST SWAP3 POP POP PUSH1 0x20 PUSH2 0x545F DUP6 DUP3 DUP7 ADD PUSH2 0x426A JUMP JUMPDEST SWAP2 POP POP SWAP3 POP SWAP3 SWAP1 POP JUMP JUMPDEST PUSH0 PUSH0 PUSH0 PUSH0 PUSH0 PUSH1 0xA0 DUP7 DUP9 SUB SLT ISZERO PUSH2 0x5482 JUMPI PUSH2 0x5481 PUSH2 0x40D8 JUMP JUMPDEST JUMPDEST PUSH0 PUSH2 0x548F DUP9 DUP3 DUP10 ADD PUSH2 0x4317 JUMP JUMPDEST SWAP6 POP POP PUSH1 0x20 PUSH2 0x54A0 DUP9 DUP3 DUP10 ADD PUSH2 0x4317 JUMP JUMPDEST SWAP5 POP POP PUSH1 0x40 PUSH2 0x54B1 DUP9 DUP3 DUP10 ADD PUSH2 0x426A JUMP JUMPDEST SWAP4 POP POP PUSH1 0x60 PUSH2 0x54C2 DUP9 DUP3 DUP10 ADD PUSH2 0x426A JUMP JUMPDEST SWAP3 POP POP PUSH1 0x80 DUP7 ADD CALLDATALOAD PUSH8 0xFFFFFFFFFFFFFFFF DUP2 GT ISZERO PUSH2 0x54E3 JUMPI PUSH2 0x54E2 PUSH2 0x40DC JUMP JUMPDEST JUMPDEST PUSH2 0x54EF DUP9 DUP3 DUP10 ADD PUSH2 0x442A JUMP JUMPDEST SWAP2 POP POP SWAP3 SWAP6 POP SWAP3 SWAP6 SWAP1 SWAP4 POP JUMP JUMPDEST PUSH0 PUSH2 0x5506 DUP3 PUSH2 0x507B JUMP JUMPDEST SWAP1 POP SWAP2 SWAP1 POP JUMP JUMPDEST PUSH2 0x5516 DUP2 PUSH2 0x54FC JUMP JUMPDEST DUP3 MSTORE POP POP JUMP JUMPDEST PUSH0 PUSH1 0x20 DUP3 ADD SWAP1 POP PUSH2 0x552F PUSH0 DUP4 ADD DUP5 PUSH2 0x550D JUMP JUMPDEST SWAP3 SWAP2 POP POP JUMP JUMPDEST PUSH32 0x4E487B7100000000000000000000000000000000000000000000000000000000 PUSH0 MSTORE PUSH1 0x22 PUSH1 0x4 MSTORE PUSH1 0x24 PUSH0 REVERT JUMPDEST PUSH0 PUSH1 0x2 DUP3 DIV SWAP1 POP PUSH1 0x1 DUP3 AND DUP1 PUSH2 0x5579 JUMPI PUSH1 0x7F DUP3 AND SWAP2 POP JUMPDEST PUSH1 0x20 DUP3 LT DUP2 SUB PUSH2 0x558C JUMPI PUSH2 0x558B PUSH2 0x5535 JUMP JUMPDEST JUMPDEST POP SWAP2 SWAP1 POP JUMP JUMPDEST PUSH0 PUSH2 0x55AC PUSH2 0x55A7 PUSH2 0x55A2 DUP5 PUSH2 0x4BED JUMP JUMPDEST PUSH2 0x5051 JUMP JUMPDEST PUSH2 0x4193 JUMP JUMPDEST SWAP1 POP SWAP2 SWAP1 POP JUMP JUMPDEST PUSH2 0x55BC DUP2 PUSH2 0x5592 JUMP JUMPDEST DUP3 MSTORE POP POP JUMP JUMPDEST PUSH0 PUSH1 0x40 DUP3 ADD SWAP1 POP PUSH2 0x55D5 PUSH0 DUP4 ADD DUP6 PUSH2 0x419C JUMP JUMPDEST PUSH2 0x55E2 PUSH1 0x20 DUP4 ADD DUP5 PUSH2 0x55B3 JUMP JUMPDEST SWAP4 SWAP3 POP POP POP JUMP JUMPDEST PUSH0 DUP2 MLOAD SWAP1 POP PUSH2 0x55F7 DUP2 PUSH2 0x4254 JUMP JUMPDEST SWAP3 SWAP2 POP POP JUMP JUMPDEST PUSH0 PUSH1 0x20 DUP3 DUP5 SUB SLT ISZERO PUSH2 0x5612 JUMPI PUSH2 0x5611 PUSH2 0x40D8 JUMP JUMPDEST JUMPDEST PUSH0 PUSH2 0x561F DUP5 DUP3 DUP6 ADD PUSH2 0x55E9 JUMP JUMPDEST SWAP2 POP POP SWAP3 SWAP2 POP POP JUMP JUMPDEST PUSH32 0x4E487B7100000000000000000000000000000000000000000000000000000000 PUSH0 MSTORE PUSH1 0x32 PUSH1 0x4 MSTORE PUSH1 0x24 PUSH0 REVERT JUMPDEST PUSH0 PUSH1 0x40 DUP3 ADD SWAP1 POP PUSH2 0x5668 PUSH0 DUP4 ADD DUP6 PUSH2 0x419C JUMP JUMPDEST PUSH2 0x5675 PUSH1 0x20 DUP4 ADD DUP5 PUSH2 0x42D9 JUMP JUMPDEST SWAP4 SWAP3 POP POP POP JUMP JUMPDEST PUSH0 PUSH2 0x568E PUSH2 0x5689 DUP5 PUSH2 0x4CC4 JUMP JUMPDEST PUSH2 0x4391 JUMP JUMPDEST SWAP1 POP DUP3 DUP2 MSTORE PUSH1 0x20 DUP2 ADD DUP5 DUP5 DUP5 ADD GT ISZERO PUSH2 0x56AA JUMPI PUSH2 0x56A9 PUSH2 0x432F JUMP JUMPDEST JUMPDEST PUSH2 0x56B5 DUP5 DUP3 DUP6 PUSH2 0x41DE JUMP JUMPDEST POP SWAP4 SWAP3 POP POP POP JUMP JUMPDEST PUSH0 DUP3 PUSH1 0x1F DUP4 ADD SLT PUSH2 0x56D1 JUMPI PUSH2 0x56D0 PUSH2 0x432B JUMP JUMPDEST JUMPDEST DUP2 MLOAD PUSH2 0x56E1 DUP5 DUP3 PUSH1 0x20 DUP7 ADD PUSH2 0x567C JUMP JUMPDEST SWAP2 POP POP SWAP3 SWAP2 POP POP JUMP JUMPDEST PUSH0 PUSH1 0x20 DUP3 DUP5 SUB SLT ISZERO PUSH2 0x56FF JUMPI PUSH2 0x56FE PUSH2 0x40D8 JUMP JUMPDEST JUMPDEST PUSH0 DUP3 ADD MLOAD PUSH8 0xFFFFFFFFFFFFFFFF DUP2 GT ISZERO PUSH2 0x571C JUMPI PUSH2 0x571B PUSH2 0x40DC JUMP JUMPDEST JUMPDEST PUSH2 0x5728 DUP5 DUP3 DUP6 ADD PUSH2 0x56BD JUMP JUMPDEST SWAP2 POP POP SWAP3 SWAP2 POP POP JUMP JUMPDEST PUSH0 DUP2 SWAP1 POP SWAP3 SWAP2 POP POP JUMP JUMPDEST PUSH0 PUSH2 0x5746 DUP4 DUP6 PUSH2 0x5731 JUMP JUMPDEST SWAP4 POP PUSH2 0x5753 DUP4 DUP6 DUP5 PUSH2 0x43DB JUMP JUMPDEST DUP3 DUP5 ADD SWAP1 POP SWAP4 SWAP3 POP POP POP JUMP JUMPDEST PUSH0 PUSH2 0x576B DUP3 DUP5 DUP7 PUSH2 0x573B JUMP JUMPDEST SWAP2 POP DUP2 SWAP1 POP SWAP4 SWAP3 POP POP POP JUMP JUMPDEST PUSH2 0x5780 DUP2 PUSH2 0x499E JUMP JUMPDEST DUP3 MSTORE POP POP JUMP JUMPDEST PUSH0 PUSH1 0xE0 DUP3 ADD SWAP1 POP PUSH2 0x5799 PUSH0 DUP4 ADD DUP11 PUSH2 0x4877 JUMP JUMPDEST PUSH2 0x57A6 PUSH1 0x20 DUP4 ADD DUP10 PUSH2 0x419C JUMP JUMPDEST PUSH2 0x57B3 PUSH1 0x40 DUP4 ADD DUP9 PUSH2 0x5777 JUMP JUMPDEST PUSH2 0x57C0 PUSH1 0x60 DUP4 ADD DUP8 PUSH2 0x42D9 JUMP JUMPDEST PUSH2 0x57CD PUSH1 0x80 DUP4 ADD DUP7 PUSH2 0x419C JUMP JUMPDEST PUSH2 0x57DA PUSH1 0xA0 DUP4 ADD DUP6 PUSH2 0x4877 JUMP JUMPDEST PUSH2 0x57E7 PUSH1 0xC0 DUP4 ADD DUP5 PUSH2 0x4877 JUMP JUMPDEST SWAP9 SWAP8 POP POP POP POP POP POP POP POP JUMP JUMPDEST PUSH32 0x4E487B7100000000000000000000000000000000000000000000000000000000 PUSH0 MSTORE PUSH1 0x11 PUSH1 0x4 MSTORE PUSH1 0x24 PUSH0 REVERT JUMPDEST PUSH0 PUSH2 0x582A DUP3 PUSH2 0x4BED JUMP JUMPDEST SWAP2 POP PUSH2 0x5835 DUP4 PUSH2 0x4BED JUMP JUMPDEST SWAP3 POP DUP3 DUP3 SUB SWAP1 POP PUSH6 0xFFFFFFFFFFFF DUP2 GT ISZERO PUSH2 0x5853 JUMPI PUSH2 0x5852 PUSH2 0x57F3 JUMP JUMPDEST JUMPDEST SWAP3 SWAP2 POP POP JUMP JUMPDEST PUSH0 PUSH1 0x60 DUP3 ADD SWAP1 POP PUSH2 0x586C PUSH0 DUP4 ADD DUP7 PUSH2 0x42D9 JUMP JUMPDEST PUSH2 0x5879 PUSH1 0x20 DUP4 ADD DUP6 PUSH2 0x419C JUMP JUMPDEST PUSH2 0x5886 PUSH1 0x40 DUP4 ADD DUP5 PUSH2 0x419C JUMP JUMPDEST SWAP5 SWAP4 POP POP POP POP JUMP JUMPDEST PUSH0 PUSH1 0xA0 DUP3 ADD SWAP1 POP PUSH2 0x58A1 PUSH0 DUP4 ADD DUP9 PUSH2 0x4877 JUMP JUMPDEST PUSH2 0x58AE PUSH1 0x20 DUP4 ADD DUP8 PUSH2 0x419C JUMP JUMPDEST PUSH2 0x58BB PUSH1 0x40 DUP4 ADD DUP7 PUSH2 0x5777 JUMP JUMPDEST PUSH2 0x58C8 PUSH1 0x60 DUP4 ADD DUP6 PUSH2 0x42D9 JUMP JUMPDEST PUSH2 0x58D5 PUSH1 0x80 DUP4 ADD DUP5 PUSH2 0x419C JUMP JUMPDEST SWAP7 SWAP6 POP POP POP POP POP POP JUMP JUMPDEST PUSH0 DUP2 MLOAD SWAP1 POP PUSH2 0x58ED DUP2 PUSH2 0x4BFE JUMP JUMPDEST SWAP3 SWAP2 POP POP JUMP JUMPDEST PUSH0 PUSH1 0x20 DUP3 DUP5 SUB SLT ISZERO PUSH2 0x5908 JUMPI PUSH2 0x5907 PUSH2 0x40D8 JUMP JUMPDEST JUMPDEST PUSH0 PUSH2 0x5915 DUP5 DUP3 DUP6 ADD PUSH2 0x58DF JUMP JUMPDEST SWAP2 POP POP SWAP3 SWAP2 POP POP JUMP JUMPDEST PUSH0 PUSH2 0x5928 DUP3 PUSH2 0x4BED JUMP JUMPDEST SWAP2 POP PUSH2 0x5933 DUP4 PUSH2 0x4BED JUMP JUMPDEST SWAP3 POP DUP3 DUP3 ADD SWAP1 POP PUSH6 0xFFFFFFFFFFFF DUP2 GT ISZERO PUSH2 0x5951 JUMPI PUSH2 0x5950 PUSH2 0x57F3 JUMP JUMPDEST JUMPDEST SWAP3 SWAP2 POP POP JUMP JUMPDEST PUSH0 DUP2 MLOAD SWAP1 POP SWAP2 SWAP1 POP JUMP JUMPDEST PUSH0 DUP3 DUP3 MSTORE PUSH1 0x20 DUP3 ADD SWAP1 POP SWAP3 SWAP2 POP POP JUMP JUMPDEST PUSH0 DUP2 SWAP1 POP PUSH1 0x20 DUP3 ADD SWAP1 POP SWAP2 SWAP1 POP JUMP JUMPDEST PUSH2 0x5989 DUP2 PUSH2 0x42C8 JUMP JUMPDEST DUP3 MSTORE POP POP JUMP JUMPDEST PUSH0 PUSH2 0x599A DUP4 DUP4 PUSH2 0x5980 JUMP JUMPDEST PUSH1 0x20 DUP4 ADD SWAP1 POP SWAP3 SWAP2 POP POP JUMP JUMPDEST PUSH0 PUSH1 0x20 DUP3 ADD SWAP1 POP SWAP2 SWAP1 POP JUMP JUMPDEST PUSH0 PUSH2 0x59BC DUP3 PUSH2 0x5957 JUMP JUMPDEST PUSH2 0x59C6 DUP2 DUP6 PUSH2 0x5961 JUMP JUMPDEST SWAP4 POP PUSH2 0x59D1 DUP4 PUSH2 0x5971 JUMP JUMPDEST DUP1 PUSH0 JUMPDEST DUP4 DUP2 LT ISZERO PUSH2 0x5A01 JUMPI DUP2 MLOAD PUSH2 0x59E8 DUP9 DUP3 PUSH2 0x598F JUMP JUMPDEST SWAP8 POP PUSH2 0x59F3 DUP4 PUSH2 0x59A6 JUMP JUMPDEST SWAP3 POP POP PUSH1 0x1 DUP2 ADD SWAP1 POP PUSH2 0x59D4 JUMP JUMPDEST POP DUP6 SWAP4 POP POP POP POP SWAP3 SWAP2 POP POP JUMP JUMPDEST PUSH0 DUP2 MLOAD SWAP1 POP SWAP2 SWAP1 POP JUMP JUMPDEST PUSH0 DUP3 DUP3 MSTORE PUSH1 0x20 DUP3 ADD SWAP1 POP SWAP3 SWAP2 POP POP JUMP JUMPDEST PUSH0 DUP2 SWAP1 POP PUSH1 0x20 DUP3 ADD SWAP1 POP SWAP2 SWAP1 POP JUMP JUMPDEST PUSH0 DUP2 MLOAD SWAP1 POP SWAP2 SWAP1 POP JUMP JUMPDEST PUSH0 DUP3 DUP3 MSTORE PUSH1 0x20 DUP3 ADD SWAP1 POP SWAP3 SWAP2 POP POP JUMP JUMPDEST PUSH0 PUSH2 0x5A5B DUP3 PUSH2 0x5A37 JUMP JUMPDEST PUSH2 0x5A65 DUP2 DUP6 PUSH2 0x5A41 JUMP JUMPDEST SWAP4 POP PUSH2 0x5A75 DUP2 DUP6 PUSH1 0x20 DUP7 ADD PUSH2 0x41DE JUMP JUMPDEST PUSH2 0x5A7E DUP2 PUSH2 0x41EC JUMP JUMPDEST DUP5 ADD SWAP2 POP POP SWAP3 SWAP2 POP POP JUMP JUMPDEST PUSH0 PUSH2 0x5A94 DUP4 DUP4 PUSH2 0x5A51 JUMP JUMPDEST SWAP1 POP SWAP3 SWAP2 POP POP JUMP JUMPDEST PUSH0 PUSH1 0x20 DUP3 ADD SWAP1 POP SWAP2 SWAP1 POP JUMP JUMPDEST PUSH0 PUSH2 0x5AB2 DUP3 PUSH2 0x5A0E JUMP JUMPDEST PUSH2 0x5ABC DUP2 DUP6 PUSH2 0x5A18 JUMP JUMPDEST SWAP4 POP DUP4 PUSH1 0x20 DUP3 MUL DUP6 ADD PUSH2 0x5ACE DUP6 PUSH2 0x5A28 JUMP JUMPDEST DUP1 PUSH0 JUMPDEST DUP6 DUP2 LT ISZERO PUSH2 0x5B09 JUMPI DUP5 DUP5 SUB DUP10 MSTORE DUP2 MLOAD PUSH2 0x5AEA DUP6 DUP3 PUSH2 0x5A89 JUMP JUMPDEST SWAP5 POP PUSH2 0x5AF5 DUP4 PUSH2 0x5A9C JUMP JUMPDEST SWAP3 POP PUSH1 0x20 DUP11 ADD SWAP10 POP POP PUSH1 0x1 DUP2 ADD SWAP1 POP PUSH2 0x5AD1 JUMP JUMPDEST POP DUP3 SWAP8 POP DUP8 SWAP6 POP POP POP POP POP POP SWAP3 SWAP2 POP POP JUMP JUMPDEST PUSH0 PUSH1 0x80 DUP3 ADD SWAP1 POP DUP2 DUP2 SUB PUSH0 DUP4 ADD MSTORE PUSH2 0x5B33 DUP2 DUP8 PUSH2 0x59B2 JUMP JUMPDEST SWAP1 POP DUP2 DUP2 SUB PUSH1 0x20 DUP4 ADD MSTORE PUSH2 0x5B47 DUP2 DUP7 PUSH2 0x4ECB JUMP JUMPDEST SWAP1 POP DUP2 DUP2 SUB PUSH1 0x40 DUP4 ADD MSTORE PUSH2 0x5B5B DUP2 DUP6 PUSH2 0x5AA8 JUMP JUMPDEST SWAP1 POP PUSH2 0x5B6A PUSH1 0x60 DUP4 ADD DUP5 PUSH2 0x4877 JUMP JUMPDEST SWAP6 SWAP5 POP POP POP POP POP JUMP JUMPDEST PUSH2 0x5B7C DUP2 PUSH2 0x4160 JUMP JUMPDEST DUP2 EQ PUSH2 0x5B86 JUMPI PUSH0 PUSH0 REVERT JUMPDEST POP JUMP JUMPDEST PUSH0 DUP2 MLOAD SWAP1 POP PUSH2 0x5B97 DUP2 PUSH2 0x5B73 JUMP JUMPDEST SWAP3 SWAP2 POP POP JUMP JUMPDEST PUSH0 PUSH1 0x20 DUP3 DUP5 SUB SLT ISZERO PUSH2 0x5BB2 JUMPI PUSH2 0x5BB1 PUSH2 0x40D8 JUMP JUMPDEST JUMPDEST PUSH0 PUSH2 0x5BBF DUP5 DUP3 DUP6 ADD PUSH2 0x5B89 JUMP JUMPDEST SWAP2 POP POP SWAP3 SWAP2 POP POP JUMP JUMPDEST PUSH32 0x4A6F6220646F6573206E6F742065786973740000000000000000000000000000 PUSH0 DUP3 ADD MSTORE POP JUMP JUMPDEST PUSH0 PUSH2 0x5BFC PUSH1 0x12 DUP4 PUSH2 0x41CE JUMP JUMPDEST SWAP2 POP PUSH2 0x5C07 DUP3 PUSH2 0x5BC8 JUMP JUMPDEST PUSH1 0x20 DUP3 ADD SWAP1 POP SWAP2 SWAP1 POP JUMP JUMPDEST PUSH0 PUSH1 0x20 DUP3 ADD SWAP1 POP DUP2 DUP2 SUB PUSH0 DUP4 ADD MSTORE PUSH2 0x5C29 DUP2 PUSH2 0x5BF0 JUMP JUMPDEST SWAP1 POP SWAP2 SWAP1 POP JUMP JUMPDEST PUSH32 0x496E73756666696369656E74207374616B650000000000000000000000000000 PUSH0 DUP3 ADD MSTORE POP JUMP JUMPDEST PUSH0 PUSH2 0x5C64 PUSH1 0x12 DUP4 PUSH2 0x41CE JUMP JUMPDEST SWAP2 POP PUSH2 0x5C6F DUP3 PUSH2 0x5C30 JUMP JUMPDEST PUSH1 0x20 DUP3 ADD SWAP1 POP SWAP2 SWAP1 POP JUMP JUMPDEST PUSH0 PUSH1 0x20 DUP3 ADD SWAP1 POP DUP2 DUP2 SUB PUSH0 DUP4 ADD MSTORE PUSH2 0x5C91 DUP2 PUSH2 0x5C58 JUMP JUMPDEST SWAP1 POP SWAP2 SWAP1 POP JUMP JUMPDEST PUSH32 0x4E487B7100000000000000000000000000000000000000000000000000000000 PUSH0 MSTORE PUSH1 0x12 PUSH1 0x4 MSTORE PUSH1 0x24 PUSH0 REVERT JUMPDEST PUSH0 PUSH2 0x5CCF DUP3 PUSH2 0x4193 JUMP JUMPDEST SWAP2 POP PUSH2 0x5CDA DUP4 PUSH2 0x4193 JUMP JUMPDEST SWAP3 POP DUP3 PUSH2 0x5CEA JUMPI PUSH2 0x5CE9 PUSH2 0x5C98 JUMP JUMPDEST JUMPDEST DUP3 DUP3 DIV SWAP1 POP SWAP3 SWAP2 POP POP JUMP JUMPDEST PUSH0 PUSH1 0x60 DUP3 ADD SWAP1 POP PUSH2 0x5D08 PUSH0 DUP4 ADD DUP7 PUSH2 0x419C JUMP JUMPDEST PUSH2 0x5D15 PUSH1 0x20 DUP4 ADD DUP6 PUSH2 0x4903 JUMP JUMPDEST PUSH2 0x5D22 PUSH1 0x40 DUP4 ADD DUP5 PUSH2 0x4877 JUMP JUMPDEST SWAP5 SWAP4 POP POP POP POP JUMP JUMPDEST PUSH0 PUSH2 0x5D34 DUP3 PUSH2 0x5A37 JUMP JUMPDEST PUSH2 0x5D3E DUP2 DUP6 PUSH2 0x5731 JUMP JUMPDEST SWAP4 POP PUSH2 0x5D4E DUP2 DUP6 PUSH1 0x20 DUP7 ADD PUSH2 0x41DE JUMP JUMPDEST DUP1 DUP5 ADD SWAP2 POP POP SWAP3 SWAP2 POP POP JUMP JUMPDEST PUSH0 PUSH2 0x5D65 DUP3 DUP5 PUSH2 0x5D2A JUMP JUMPDEST SWAP2 POP DUP2 SWAP1 POP SWAP3 SWAP2 POP POP JUMP JUMPDEST PUSH0 PUSH2 0x5D7A DUP3 PUSH2 0x4193 JUMP JUMPDEST SWAP2 POP PUSH2 0x5D85 DUP4 PUSH2 0x4193 JUMP JUMPDEST SWAP3 POP DUP3 DUP3 ADD SWAP1 POP DUP1 DUP3 GT ISZERO PUSH2 0x5D9D JUMPI PUSH2 0x5D9C PUSH2 0x57F3 JUMP JUMPDEST JUMPDEST SWAP3 SWAP2 POP POP JUMP JUMPDEST PUSH0 PUSH2 0x5DAD DUP3 PUSH2 0x499E JUMP JUMPDEST SWAP2 POP PUSH2 0x5DB8 DUP4 PUSH2 0x499E JUMP JUMPDEST SWAP3 POP DUP3 DUP3 ADD SWAP1 POP PUSH1 0xFF DUP2 GT ISZERO PUSH2 0x5DD1 JUMPI PUSH2 0x5DD0 PUSH2 0x57F3 JUMP JUMPDEST JUMPDEST SWAP3 SWAP2 POP POP JUMP JUMPDEST PUSH0 DUP2 PUSH1 0x1 SHR SWAP1 POP SWAP2 SWAP1 POP JUMP JUMPDEST PUSH0 PUSH0 DUP3 SWAP2 POP DUP4 SWAP1 POP JUMPDEST PUSH1 0x1 DUP6 GT ISZERO PUSH2 0x5E2C JUMPI DUP1 DUP7 DIV DUP2 GT ISZERO PUSH2 0x5E08 JUMPI PUSH2 0x5E07 PUSH2 0x57F3 JUMP JUMPDEST JUMPDEST PUSH1 0x1 DUP6 AND ISZERO PUSH2 0x5E17 JUMPI DUP1 DUP3 MUL SWAP2 POP JUMPDEST DUP1 DUP2 MUL SWAP1 POP PUSH2 0x5E25 DUP6 PUSH2 0x5DD7 JUMP JUMPDEST SWAP5 POP PUSH2 0x5DEC JUMP JUMPDEST SWAP5 POP SWAP5 SWAP3 POP POP POP JUMP JUMPDEST PUSH0 DUP3 PUSH2 0x5E44 JUMPI PUSH1 0x1 SWAP1 POP PUSH2 0x5EFF JUMP JUMPDEST DUP2 PUSH2 0x5E51 JUMPI PUSH0 SWAP1 POP PUSH2 0x5EFF JUMP JUMPDEST DUP2 PUSH1 0x1 DUP2 EQ PUSH2 0x5E67 JUMPI PUSH1 0x2 DUP2 EQ PUSH2 0x5E71 JUMPI PUSH2 0x5EA0 JUMP JUMPDEST PUSH1 0x1 SWAP2 POP POP PUSH2 0x5EFF JUMP JUMPDEST PUSH1 0xFF DUP5 GT ISZERO PUSH2 0x5E83 JUMPI PUSH2 0x5E82 PUSH2 0x57F3 JUMP JUMPDEST JUMPDEST DUP4 PUSH1 0x2 EXP SWAP2 POP DUP5 DUP3 GT ISZERO PUSH2 0x5E9A JUMPI PUSH2 0x5E99 PUSH2 0x57F3 JUMP JUMPDEST JUMPDEST POP PUSH2 0x5EFF JUMP JUMPDEST POP PUSH1 0x20 DUP4 LT PUSH2 0x133 DUP4 LT AND PUSH1 0x4E DUP5 LT PUSH1 0xB DUP5 LT AND OR ISZERO PUSH2 0x5ED5 JUMPI DUP3 DUP3 EXP SWAP1 POP DUP4 DUP2 GT ISZERO PUSH2 0x5ED0 JUMPI PUSH2 0x5ECF PUSH2 0x57F3 JUMP JUMPDEST JUMPDEST PUSH2 0x5EFF JUMP JUMPDEST PUSH2 0x5EE2 DUP5 DUP5 DUP5 PUSH1 0x1 PUSH2 0x5DE3 JUMP JUMPDEST SWAP3 POP SWAP1 POP DUP2 DUP5 DIV DUP2 GT ISZERO PUSH2 0x5EF9 JUMPI PUSH2 0x5EF8 PUSH2 0x57F3 JUMP JUMPDEST JUMPDEST DUP2 DUP2 MUL SWAP1 POP JUMPDEST SWAP4 SWAP3 POP POP POP JUMP JUMPDEST PUSH0 PUSH2 0x5F10 DUP3 PUSH2 0x4193 JUMP JUMPDEST SWAP2 POP PUSH2 0x5F1B DUP4 PUSH2 0x499E JUMP JUMPDEST SWAP3 POP PUSH2 0x5F48 PUSH32 0xFFFFFFFFFFFFFFFFFFFFFFFFFFFFFFFFFFFFFFFFFFFFFFFFFFFFFFFFFFFFFFFF DUP5 DUP5 PUSH2 0x5E35 JUMP JUMPDEST SWAP1 POP SWAP3 SWAP2 POP POP JUMP JUMPDEST PUSH0 PUSH2 0x5F5A DUP3 PUSH2 0x4193 JUMP JUMPDEST SWAP2 POP PUSH2 0x5F65 DUP4 PUSH2 0x4193 JUMP JUMPDEST SWAP3 POP DUP3 DUP3 SUB SWAP1 POP DUP2 DUP2 GT ISZERO PUSH2 0x5F7D JUMPI PUSH2 0x5F7C PUSH2 0x57F3 JUMP JUMPDEST JUMPDEST SWAP3 SWAP2 POP POP JUMP JUMPDEST PUSH0 PUSH1 0x80 DUP3 ADD SWAP1 POP PUSH2 0x5F96 PUSH0 DUP4 ADD DUP8 PUSH2 0x419C JUMP JUMPDEST PUSH2 0x5FA3 PUSH1 0x20 DUP4 ADD DUP7 PUSH2 0x5777 JUMP JUMPDEST PUSH2 0x5FB0 PUSH1 0x40 DUP4 ADD DUP6 PUSH2 0x419C JUMP JUMPDEST DUP2 DUP2 SUB PUSH1 0x60 DUP4 ADD MSTORE PUSH2 0x5FC2 DUP2 DUP5 PUSH2 0x41FC JUMP JUMPDEST SWAP1 POP SWAP6 SWAP5 POP POP POP POP POP JUMP JUMPDEST PUSH0 DUP3 DUP3 MSTORE PUSH1 0x20 DUP3 ADD SWAP1 POP SWAP3 SWAP2 POP POP JUMP JUMPDEST PUSH0 PUSH2 0x5FE7 DUP3 PUSH2 0x5A37 JUMP JUMPDEST PUSH2 0x5FF1 DUP2 DUP6 PUSH2 0x5FCD JUMP JUMPDEST SWAP4 POP PUSH2 0x6001 DUP2 DUP6 PUSH1 0x20 DUP7 ADD PUSH2 0x41DE JUMP JUMPDEST PUSH2 0x600A DUP2 PUSH2 0x41EC JUMP JUMPDEST DUP5 ADD SWAP2 POP POP SWAP3 SWAP2 POP POP JUMP JUMPDEST PUSH0 PUSH1 0xA0 DUP3 ADD SWAP1 POP PUSH2 0x6028 PUSH0 DUP4 ADD DUP9 PUSH2 0x419C JUMP JUMPDEST PUSH2 0x6035 PUSH1 0x20 DUP4 ADD DUP8 PUSH2 0x5777 JUMP JUMPDEST PUSH2 0x6042 PUSH1 0x40 DUP4 ADD DUP7 PUSH2 0x419C JUMP JUMPDEST DUP2 DUP2 SUB PUSH1 0x60 DUP4 ADD MSTORE PUSH2 0x6054 DUP2 DUP6 PUSH2 0x41FC JUMP JUMPDEST SWAP1 POP DUP2 DUP2 SUB PUSH1 0x80 DUP4 ADD MSTORE PUSH2 0x6068 DUP2 DUP5 PUSH2 0x5FDD JUMP JUMPDEST SWAP1 POP SWAP7 SWAP6 POP POP POP POP POP POP JUMP JUMPDEST PUSH0 PUSH1 0x40 DUP3 ADD SWAP1 POP PUSH2 0x6087 PUSH0 DUP4 ADD DUP6 PUSH2 0x55B3 JUMP JUMPDEST PUSH2 0x6094 PUSH1 0x20 DUP4 ADD DUP5 PUSH2 0x55B3 JUMP JUMPDEST SWAP4 SWAP3 POP POP POP JUMP JUMPDEST PUSH0 DUP2 MLOAD SWAP1 POP SWAP2 SWAP1 POP JUMP JUMPDEST PUSH0 DUP3 DUP3 MSTORE PUSH1 0x20 DUP3 ADD SWAP1 POP SWAP3 SWAP2 POP POP JUMP JUMPDEST PUSH0 DUP2 SWAP1 POP PUSH1 0x20 DUP3 ADD SWAP1 POP SWAP2 SWAP1 POP JUMP JUMPDEST PUSH0 DUP3 DUP3 MSTORE PUSH1 0x20 DUP3 ADD SWAP1 POP SWAP3 SWAP2 POP POP JUMP JUMPDEST PUSH0 PUSH2 0x60DE DUP3 PUSH2 0x41C4 JUMP JUMPDEST PUSH2 0x60E8 DUP2 DUP6 PUSH2 0x60C4 JUMP JUMPDEST SWAP4 POP PUSH2 0x60F8 DUP2 DUP6 PUSH1 0x20 DUP7 ADD PUSH2 0x41DE JUMP JUMPDEST PUSH2 0x6101 DUP2 PUSH2 0x41EC JUMP JUMPDEST DUP5 ADD SWAP2 POP POP SWAP3 SWAP2 POP POP JUMP JUMPDEST PUSH0 PUSH2 0x6117 DUP4 DUP4 PUSH2 0x60D4 JUMP JUMPDEST SWAP1 POP SWAP3 SWAP2 POP POP JUMP JUMPDEST PUSH0 PUSH1 0x20 DUP3 ADD SWAP1 POP SWAP2 SWAP1 POP JUMP JUMPDEST PUSH0 PUSH2 0x6135 DUP3 PUSH2 0x609B JUMP JUMPDEST PUSH2 0x613F DUP2 DUP6 PUSH2 0x60A5 JUMP JUMPDEST SWAP4 POP DUP4 PUSH1 0x20 DUP3 MUL DUP6 ADD PUSH2 0x6151 DUP6 PUSH2 0x60B5 JUMP JUMPDEST DUP1 PUSH0 JUMPDEST DUP6 DUP2 LT ISZERO PUSH2 0x618C JUMPI DUP5 DUP5 SUB DUP10 MSTORE DUP2 MLOAD PUSH2 0x616D DUP6 DUP3 PUSH2 0x610C JUMP JUMPDEST SWAP5 POP PUSH2 0x6178 DUP4 PUSH2 0x611F JUMP JUMPDEST SWAP3 POP PUSH1 0x20 DUP11 ADD SWAP10 POP POP PUSH1 0x1 DUP2 ADD SWAP1 POP PUSH2 0x6154 JUMP JUMPDEST POP DUP3 SWAP8 POP DUP8 SWAP6 POP POP POP POP POP POP SWAP3 SWAP2 POP POP JUMP JUMPDEST PUSH0 PUSH2 0x120 DUP3 ADD SWAP1 POP PUSH2 0x61B2 PUSH0 DUP4 ADD DUP13 PUSH2 0x419C JUMP JUMPDEST PUSH2 0x61BF PUSH1 0x20 DUP4 ADD DUP12 PUSH2 0x42D9 JUMP JUMPDEST DUP2 DUP2 SUB PUSH1 0x40 DUP4 ADD MSTORE PUSH2 0x61D1 DUP2 DUP11 PUSH2 0x59B2 JUMP JUMPDEST SWAP1 POP DUP2 DUP2 SUB PUSH1 0x60 DUP4 ADD MSTORE PUSH2 0x61E5 DUP2 DUP10 PUSH2 0x4ECB JUMP JUMPDEST SWAP1 POP DUP2 DUP2 SUB PUSH1 0x80 DUP4 ADD MSTORE PUSH2 0x61F9 DUP2 DUP9 PUSH2 0x612B JUMP JUMPDEST SWAP1 POP DUP2 DUP2 SUB PUSH1 0xA0 DUP4 ADD MSTORE PUSH2 0x620D DUP2 DUP8 PUSH2 0x5AA8 JUMP JUMPDEST SWAP1 POP PUSH2 0x621C PUSH1 0xC0 DUP4 ADD DUP7 PUSH2 0x419C JUMP JUMPDEST PUSH2 0x6229 PUSH1 0xE0 DUP4 ADD DUP6 PUSH2 0x419C JUMP JUMPDEST DUP2 DUP2 SUB PUSH2 0x100 DUP4 ADD MSTORE PUSH2 0x623C DUP2 DUP5 PUSH2 0x41FC JUMP JUMPDEST SWAP1 POP SWAP11 SWAP10 POP POP POP POP POP POP POP POP POP POP JUMP JUMPDEST PUSH0 PUSH1 0x40 DUP3 ADD SWAP1 POP PUSH2 0x625F PUSH0 DUP4 ADD DUP6 PUSH2 0x42D9 JUMP JUMPDEST PUSH2 0x626C PUSH1 0x20 DUP4 ADD DUP5 PUSH2 0x419C JUMP JUMPDEST SWAP4 SWAP3 POP POP POP JUMP JUMPDEST PUSH0 DUP2 SWAP1 POP SWAP2 SWAP1 POP JUMP JUMPDEST PUSH0 PUSH2 0x6296 PUSH2 0x6291 PUSH2 0x628C DUP5 PUSH2 0x6273 JUMP JUMPDEST PUSH2 0x5051 JUMP JUMPDEST PUSH2 0x4193 JUMP JUMPDEST SWAP1 POP SWAP2 SWAP1 POP JUMP JUMPDEST PUSH2 0x62A6 DUP2 PUSH2 0x627C JUMP JUMPDEST DUP3 MSTORE POP POP JUMP JUMPDEST PUSH0 PUSH1 0x20 DUP3 ADD SWAP1 POP PUSH2 0x62BF PUSH0 DUP4 ADD DUP5 PUSH2 0x629D JUMP JUMPDEST SWAP3 SWAP2 POP POP JUMP JUMPDEST PUSH0 PUSH2 0x62DF PUSH2 0x62DA PUSH2 0x62D5 DUP5 PUSH2 0x53C7 JUMP JUMPDEST PUSH2 0x5051 JUMP JUMPDEST PUSH2 0x4193 JUMP JUMPDEST SWAP1 POP SWAP2 SWAP1 POP JUMP JUMPDEST PUSH2 0x62EF DUP2 PUSH2 0x62C5 JUMP JUMPDEST DUP3 MSTORE POP POP JUMP JUMPDEST PUSH0 PUSH1 0x40 DUP3 ADD SWAP1 POP PUSH2 0x6308 PUSH0 DUP4 ADD DUP6 PUSH2 0x62E6 JUMP JUMPDEST PUSH2 0x6315 PUSH1 0x20 DUP4 ADD DUP5 PUSH2 0x62E6 JUMP JUMPDEST SWAP4 SWAP3 POP POP POP JUMP JUMPDEST PUSH0 PUSH1 0x40 DUP3 ADD SWAP1 POP PUSH2 0x632F PUSH0 DUP4 ADD DUP6 PUSH2 0x419C JUMP JUMPDEST PUSH2 0x633C PUSH1 0x20 DUP4 ADD DUP5 PUSH2 0x419C JUMP JUMPDEST SWAP4 SWAP3 POP POP POP JUMP JUMPDEST PUSH0 PUSH1 0x40 DUP3 ADD SWAP1 POP PUSH2 0x6356 PUSH0 DUP4 ADD DUP6 PUSH2 0x4877 JUMP JUMPDEST DUP2 DUP2 SUB PUSH1 0x20 DUP4 ADD MSTORE PUSH2 0x6368 DUP2 DUP5 PUSH2 0x5FDD JUMP JUMPDEST SWAP1 POP SWAP4 SWAP3 POP POP POP JUMP JUMPDEST PUSH0 DUP2 MLOAD SWAP1 POP PUSH2 0x637F DUP2 PUSH2 0x476A JUMP JUMPDEST SWAP3 SWAP2 POP POP JUMP JUMPDEST PUSH0 PUSH1 0x20 DUP3 DUP5 SUB SLT ISZERO PUSH2 0x639A JUMPI PUSH2 0x6399 PUSH2 0x40D8 JUMP JUMPDEST JUMPDEST PUSH0 PUSH2 0x63A7 DUP5 DUP3 DUP6 ADD PUSH2 0x6371 JUMP JUMPDEST SWAP2 POP POP SWAP3 SWAP2 POP POP JUMP JUMPDEST PUSH0 PUSH2 0x63BA DUP3 PUSH2 0x4193 JUMP JUMPDEST SWAP2 POP PUSH2 0x63C5 DUP4 PUSH2 0x4193 JUMP JUMPDEST SWAP3 POP DUP3 DUP3 MUL PUSH2 0x63D3 DUP2 PUSH2 0x4193 JUMP JUMPDEST SWAP2 POP DUP3 DUP3 DIV DUP5 EQ DUP4 ISZERO OR PUSH2 0x63EA JUMPI PUSH2 0x63E9 PUSH2 0x57F3 JUMP JUMPDEST JUMPDEST POP SWAP3 SWAP2 POP POP JUMP JUMPDEST PUSH0 DUP2 SWAP1 POP SWAP2 SWAP1 POP JUMP JUMPDEST PUSH0 PUSH2 0x6414 PUSH2 0x640F PUSH2 0x640A DUP5 PUSH2 0x63F1 JUMP JUMPDEST PUSH2 0x5051 JUMP JUMPDEST PUSH2 0x499E JUMP JUMPDEST SWAP1 POP SWAP2 SWAP1 POP JUMP JUMPDEST PUSH2 0x6424 DUP2 PUSH2 0x63FA JUMP JUMPDEST DUP3 MSTORE POP POP JUMP JUMPDEST PUSH0 PUSH1 0x40 DUP3 ADD SWAP1 POP PUSH2 0x643D PUSH0 DUP4 ADD DUP6 PUSH2 0x641B JUMP JUMPDEST PUSH2 0x644A PUSH1 0x20 DUP4 ADD DUP5 PUSH2 0x419C JUMP JUMPDEST SWAP4 SWAP3 POP POP POP JUMP JUMPDEST PUSH0 DUP2 SWAP1 POP SWAP2 SWAP1 POP JUMP JUMPDEST PUSH0 PUSH2 0x6474 PUSH2 0x646F PUSH2 0x646A DUP5 PUSH2 0x6451 JUMP JUMPDEST PUSH2 0x5051 JUMP JUMPDEST PUSH2 0x499E JUMP JUMPDEST SWAP1 POP SWAP2 SWAP1 POP JUMP JUMPDEST PUSH2 0x6484 DUP2 PUSH2 0x645A JUMP JUMPDEST DUP3 MSTORE POP POP JUMP JUMPDEST PUSH0 PUSH1 0x40 DUP3 ADD SWAP1 POP PUSH2 0x649D PUSH0 DUP4 ADD DUP6 PUSH2 0x647B JUMP JUMPDEST PUSH2 0x64AA PUSH1 0x20 DUP4 ADD DUP5 PUSH2 0x419C JUMP JUMPDEST SWAP4 SWAP3 POP POP POP JUMP JUMPDEST PUSH0 PUSH1 0xA0 DUP3 ADD SWAP1 POP PUSH2 0x64C4 PUSH0 DUP4 ADD DUP9 PUSH2 0x4877 JUMP JUMPDEST PUSH2 0x64D1 PUSH1 0x20 DUP4 ADD DUP8 PUSH2 0x4877 JUMP JUMPDEST PUSH2 0x64DE PUSH1 0x40 DUP4 ADD DUP7 PUSH2 0x4877 JUMP JUMPDEST PUSH2 0x64EB PUSH1 0x60 DUP4 ADD DUP6 PUSH2 0x419C JUMP JUMPDEST PUSH2 0x64F8 PUSH1 0x80 DUP4 ADD DUP5 PUSH2 0x42D9 JUMP JUMPDEST SWAP7 SWAP6 POP POP POP POP POP POP JUMP JUMPDEST PUSH0 PUSH1 0x80 DUP3 ADD SWAP1 POP PUSH2 0x6515 PUSH0 DUP4 ADD DUP8 PUSH2 0x4877 JUMP JUMPDEST PUSH2 0x6522 PUSH1 0x20 DUP4 ADD DUP7 PUSH2 0x5777 JUMP JUMPDEST PUSH2 0x652F PUSH1 0x40 DUP4 ADD DUP6 PUSH2 0x4877 JUMP JUMPDEST PUSH2 0x653C PUSH1 0x60 DUP4 ADD DUP5 PUSH2 0x4877 JUMP JUMPDEST SWAP6 SWAP5 POP POP POP POP POP JUMP INVALID LOG2 PUSH5 0x6970667358 0x22 SLT KECCAK256 SWAP15 0xDB 0x21 CODECOPY DUP2 0xDF 0xC7 BLOBHASH SGT 0xC ADD DUP9 SWAP5 0x26 SHR SWAP9 0xBA SWAP7 ADD SWAP1 CALLDATACOPY PUSH29 0xD54C84C7D40887C8B87C64736F6C634300081C00330000000000000000 "
		},
		"gasEstimates": {
			"creation": {
				"codeDepositCost": "5195800",
				"executionCost": "infinite",
				"totalCost": "infinite"
			},
			"external": {
				"BALLOT_TYPEHASH()": "392",
				"CLOCK_MODE()": "infinite",
				"COUNTING_MODE()": "infinite",
				"EXTENDED_BALLOT_TYPEHASH()": "437",
				"cancel(address[],uint256[],bytes[],bytes32)": "infinite",
				"castVote(uint256,uint8)": "infinite",
				"castVoteBySig(uint256,uint8,address,bytes)": "infinite",
				"castVoteWithReason(uint256,uint8,string)": "infinite",
				"castVoteWithReasonAndParams(uint256,uint8,string,bytes)": "infinite",
				"castVoteWithReasonAndParamsBySig(uint256,uint8,address,string,bytes,bytes)": "infinite",
				"clock()": "infinite",
				"credToken()": "infinite",
				"credentialNFT()": "infinite",
				"eip712Domain()": "infinite",
				"execute(address[],uint256[],bytes[],bytes32)": "infinite",
				"getMemberReputation(address)": "infinite",
				"getProposalId(address[],uint256[],bytes[],bytes32)": "infinite",
				"getVotes(address,uint256)": "infinite",
				"getVotesWithParams(address,uint256,bytes)": "infinite",
				"hasVoted(uint256,address)": "3168",
				"hashProposal(address[],uint256[],bytes[],bytes32)": "infinite",
				"jobsContract()": "infinite",
				"name()": "infinite",
				"nonces(address)": "2984",
				"onERC1155BatchReceived(address,address,uint256[],uint256[],bytes)": "infinite",
				"onERC1155Received(address,address,uint256,uint256,bytes)": "infinite",
				"onERC721Received(address,address,uint256,bytes)": "infinite",
				"proposalDeadline(uint256)": "infinite",
				"proposalEta(uint256)": "infinite",
				"proposalNeedsQueuing(uint256)": "665",
				"proposalProposer(uint256)": "2970",
				"proposalSnapshot(uint256)": "infinite",
				"proposalThreshold()": "2599",
				"proposalVotes(uint256)": "infinite",
				"propose(address[],uint256[],bytes[],string)": "infinite",
				"proposeJobVerification(uint256,string)": "infinite",
				"queue(address[],uint256[],bytes[],bytes32)": "infinite",
				"quorum(uint256)": "infinite",
				"relay(address,uint256,bytes)": "infinite",
				"reputation()": "infinite",
				"setProposalThreshold(uint256)": "infinite",
				"setVotingDelay(uint48)": "infinite",
				"setVotingPeriod(uint32)": "infinite",
				"state(uint256)": "infinite",
				"supportsInterface(bytes4)": "868",
				"token()": "infinite",
				"version()": "infinite",
				"votingDelay()": "2607",
				"votingPeriod()": "2593"
			}
		},
		"methodIdentifiers": {
			"BALLOT_TYPEHASH()": "deaaa7cc",
			"CLOCK_MODE()": "4bf5d7e9",
			"COUNTING_MODE()": "dd4e2ba5",
			"EXTENDED_BALLOT_TYPEHASH()": "2fe3e261",
			"cancel(address[],uint256[],bytes[],bytes32)": "452115d6",
			"castVote(uint256,uint8)": "56781388",
			"castVoteBySig(uint256,uint8,address,bytes)": "8ff262e3",
			"castVoteWithReason(uint256,uint8,string)": "7b3c71d3",
			"castVoteWithReasonAndParams(uint256,uint8,string,bytes)": "5f398a14",
			"castVoteWithReasonAndParamsBySig(uint256,uint8,address,string,bytes,bytes)": "5b8d0e0d",
			"clock()": "91ddadf4",
			"credToken()": "af983753",
			"credentialNFT()": "934fcd1b",
			"eip712Domain()": "84b0196e",
			"execute(address[],uint256[],bytes[],bytes32)": "2656227d",
			"getMemberReputation(address)": "1b3b74f1",
			"getProposalId(address[],uint256[],bytes[],bytes32)": "a8f8a668",
			"getVotes(address,uint256)": "eb9019d4",
			"getVotesWithParams(address,uint256,bytes)": "9a802a6d",
			"hasVoted(uint256,address)": "43859632",
			"hashProposal(address[],uint256[],bytes[],bytes32)": "c59057e4",
			"jobsContract()": "a4866584",
			"name()": "06fdde03",
			"nonces(address)": "7ecebe00",
			"onERC1155BatchReceived(address,address,uint256[],uint256[],bytes)": "bc197c81",
			"onERC1155Received(address,address,uint256,uint256,bytes)": "f23a6e61",
			"onERC721Received(address,address,uint256,bytes)": "150b7a02",
			"proposalDeadline(uint256)": "c01f9e37",
			"proposalEta(uint256)": "ab58fb8e",
			"proposalNeedsQueuing(uint256)": "a9a95294",
			"proposalProposer(uint256)": "143489d0",
			"proposalSnapshot(uint256)": "2d63f693",
			"proposalThreshold()": "b58131b0",
			"proposalVotes(uint256)": "544ffc9c",
			"propose(address[],uint256[],bytes[],string)": "7d5e81e2",
			"proposeJobVerification(uint256,string)": "cb0c10c7",
			"queue(address[],uint256[],bytes[],bytes32)": "160cbed7",
			"quorum(uint256)": "f8ce560a",
			"relay(address,uint256,bytes)": "c28bc2fa",
			"reputation()": "c52164c6",
			"setProposalThreshold(uint256)": "ece40cc1",
			"setVotingDelay(uint48)": "79051887",
			"setVotingPeriod(uint32)": "e540d01d",
			"state(uint256)": "3e4f49e6",
			"supportsInterface(bytes4)": "01ffc9a7",
			"token()": "fc0c546a",
			"version()": "54fd4d50",
			"votingDelay()": "3932abb1",
			"votingPeriod()": "02a251a3"
		}
	},
	"abi": [
		{
			"inputs": [
				{
					"internalType": "contract CREDToken",
					"name": "_token",
					"type": "address"
				},
				{
					"internalType": "contract Jobs",
					"name": "_jobsContract",
					"type": "address"
				},
				{
					"internalType": "contract CredentialNFT",
					"name": "_credentialNFT",
					"type": "address"
				},
				{
					"internalType": "contract Reputation",
					"name": "_reputation",
					"type": "address"
				}
			],
			"stateMutability": "nonpayable",
			"type": "constructor"
		},
		{
			"inputs": [],
			"name": "FailedCall",
			"type": "error"
		},
		{
			"inputs": [
				{
					"internalType": "address",
					"name": "voter",
					"type": "address"
				}
			],
			"name": "GovernorAlreadyCastVote",
			"type": "error"
		},
		{
			"inputs": [
				{
					"internalType": "uint256",
					"name": "proposalId",
					"type": "uint256"
				}
			],
			"name": "GovernorAlreadyQueuedProposal",
			"type": "error"
		},
		{
			"inputs": [],
			"name": "GovernorDisabledDeposit",
			"type": "error"
		},
		{
			"inputs": [
				{
					"internalType": "address",
					"name": "proposer",
					"type": "address"
				},
				{
					"internalType": "uint256",
					"name": "votes",
					"type": "uint256"
				},
				{
					"internalType": "uint256",
					"name": "threshold",
					"type": "uint256"
				}
			],
			"name": "GovernorInsufficientProposerVotes",
			"type": "error"
		},
		{
			"inputs": [
				{
					"internalType": "uint256",
					"name": "targets",
					"type": "uint256"
				},
				{
					"internalType": "uint256",
					"name": "calldatas",
					"type": "uint256"
				},
				{
					"internalType": "uint256",
					"name": "values",
					"type": "uint256"
				}
			],
			"name": "GovernorInvalidProposalLength",
			"type": "error"
		},
		{
			"inputs": [
				{
					"internalType": "address",
					"name": "voter",
					"type": "address"
				}
			],
			"name": "GovernorInvalidSignature",
			"type": "error"
		},
		{
			"inputs": [],
			"name": "GovernorInvalidVoteParams",
			"type": "error"
		},
		{
			"inputs": [],
			"name": "GovernorInvalidVoteType",
			"type": "error"
		},
		{
			"inputs": [
				{
					"internalType": "uint256",
					"name": "votingPeriod",
					"type": "uint256"
				}
			],
			"name": "GovernorInvalidVotingPeriod",
			"type": "error"
		},
		{
			"inputs": [
				{
					"internalType": "uint256",
					"name": "proposalId",
					"type": "uint256"
				}
			],
			"name": "GovernorNonexistentProposal",
			"type": "error"
		},
		{
			"inputs": [
				{
					"internalType": "uint256",
					"name": "proposalId",
					"type": "uint256"
				}
			],
			"name": "GovernorNotQueuedProposal",
			"type": "error"
		},
		{
			"inputs": [
				{
					"internalType": "address",
					"name": "account",
					"type": "address"
				}
			],
			"name": "GovernorOnlyExecutor",
			"type": "error"
		},
		{
			"inputs": [],
			"name": "GovernorQueueNotImplemented",
			"type": "error"
		},
		{
			"inputs": [
				{
					"internalType": "address",
					"name": "proposer",
					"type": "address"
				}
			],
			"name": "GovernorRestrictedProposer",
			"type": "error"
		},
		{
			"inputs": [
				{
					"internalType": "uint256",
					"name": "proposalId",
					"type": "uint256"
				},
				{
					"internalType": "address",
					"name": "account",
					"type": "address"
				}
			],
			"name": "GovernorUnableToCancel",
			"type": "error"
		},
		{
			"inputs": [
				{
					"internalType": "uint256",
					"name": "proposalId",
					"type": "uint256"
				},
				{
					"internalType": "enum IGovernor.ProposalState",
					"name": "current",
					"type": "uint8"
				},
				{
					"internalType": "bytes32",
					"name": "expectedStates",
					"type": "bytes32"
				}
			],
			"name": "GovernorUnexpectedProposalState",
			"type": "error"
		},
		{
			"inputs": [
				{
					"internalType": "address",
					"name": "account",
					"type": "address"
				},
				{
					"internalType": "uint256",
					"name": "currentNonce",
					"type": "uint256"
				}
			],
			"name": "InvalidAccountNonce",
			"type": "error"
		},
		{
			"inputs": [],
			"name": "InvalidShortString",
			"type": "error"
		},
		{
			"inputs": [
				{
					"internalType": "uint8",
					"name": "bits",
					"type": "uint8"
				},
				{
					"internalType": "uint256",
					"name": "value",
					"type": "uint256"
				}
			],
			"name": "SafeCastOverflowedUintDowncast",
			"type": "error"
		},
		{
			"inputs": [
				{
					"internalType": "string",
					"name": "str",
					"type": "string"
				}
			],
			"name": "StringTooLong",
			"type": "error"
		},
		{
			"anonymous": false,
			"inputs": [],
			"name": "EIP712DomainChanged",
			"type": "event"
		},
		{
			"anonymous": false,
			"inputs": [
				{
					"indexed": true,
					"internalType": "uint256",
					"name": "proposalId",
					"type": "uint256"
				},
				{
					"indexed": true,
					"internalType": "uint256",
					"name": "jobId",
					"type": "uint256"
				}
			],
			"name": "JobVerificationProposed",
			"type": "event"
		},
		{
			"anonymous": false,
			"inputs": [
				{
					"indexed": false,
					"internalType": "uint256",
					"name": "proposalId",
					"type": "uint256"
				}
			],
			"name": "ProposalCanceled",
			"type": "event"
		},
		{
			"anonymous": false,
			"inputs": [
				{
					"indexed": false,
					"internalType": "uint256",
					"name": "proposalId",
					"type": "uint256"
				},
				{
					"indexed": false,
					"internalType": "address",
					"name": "proposer",
					"type": "address"
				},
				{
					"indexed": false,
					"internalType": "address[]",
					"name": "targets",
					"type": "address[]"
				},
				{
					"indexed": false,
					"internalType": "uint256[]",
					"name": "values",
					"type": "uint256[]"
				},
				{
					"indexed": false,
					"internalType": "string[]",
					"name": "signatures",
					"type": "string[]"
				},
				{
					"indexed": false,
					"internalType": "bytes[]",
					"name": "calldatas",
					"type": "bytes[]"
				},
				{
					"indexed": false,
					"internalType": "uint256",
					"name": "voteStart",
					"type": "uint256"
				},
				{
					"indexed": false,
					"internalType": "uint256",
					"name": "voteEnd",
					"type": "uint256"
				},
				{
					"indexed": false,
					"internalType": "string",
					"name": "description",
					"type": "string"
				}
			],
			"name": "ProposalCreated",
			"type": "event"
		},
		{
			"anonymous": false,
			"inputs": [
				{
					"indexed": false,
					"internalType": "uint256",
					"name": "proposalId",
					"type": "uint256"
				}
			],
			"name": "ProposalExecuted",
			"type": "event"
		},
		{
			"anonymous": false,
			"inputs": [
				{
					"indexed": false,
					"internalType": "uint256",
					"name": "proposalId",
					"type": "uint256"
				},
				{
					"indexed": false,
					"internalType": "uint256",
					"name": "etaSeconds",
					"type": "uint256"
				}
			],
			"name": "ProposalQueued",
			"type": "event"
		},
		{
			"anonymous": false,
			"inputs": [
				{
					"indexed": false,
					"internalType": "uint256",
					"name": "oldProposalThreshold",
					"type": "uint256"
				},
				{
					"indexed": false,
					"internalType": "uint256",
					"name": "newProposalThreshold",
					"type": "uint256"
				}
			],
			"name": "ProposalThresholdSet",
			"type": "event"
		},
		{
			"anonymous": false,
			"inputs": [
				{
					"indexed": true,
					"internalType": "address",
					"name": "voter",
					"type": "address"
				},
				{
					"indexed": false,
					"internalType": "uint256",
					"name": "proposalId",
					"type": "uint256"
				},
				{
					"indexed": false,
					"internalType": "uint8",
					"name": "support",
					"type": "uint8"
				},
				{
					"indexed": false,
					"internalType": "uint256",
					"name": "weight",
					"type": "uint256"
				},
				{
					"indexed": false,
					"internalType": "string",
					"name": "reason",
					"type": "string"
				}
			],
			"name": "VoteCast",
			"type": "event"
		},
		{
			"anonymous": false,
			"inputs": [
				{
					"indexed": true,
					"internalType": "address",
					"name": "voter",
					"type": "address"
				},
				{
					"indexed": false,
					"internalType": "uint256",
					"name": "proposalId",
					"type": "uint256"
				},
				{
					"indexed": false,
					"internalType": "uint8",
					"name": "support",
					"type": "uint8"
				},
				{
					"indexed": false,
					"internalType": "uint256",
					"name": "weight",
					"type": "uint256"
				},
				{
					"indexed": false,
					"internalType": "string",
					"name": "reason",
					"type": "string"
				},
				{
					"indexed": false,
					"internalType": "bytes",
					"name": "params",
					"type": "bytes"
				}
			],
			"name": "VoteCastWithParams",
			"type": "event"
		},
		{
			"anonymous": false,
			"inputs": [
				{
					"indexed": false,
					"internalType": "uint256",
					"name": "oldVotingDelay",
					"type": "uint256"
				},
				{
					"indexed": false,
					"internalType": "uint256",
					"name": "newVotingDelay",
					"type": "uint256"
				}
			],
			"name": "VotingDelaySet",
			"type": "event"
		},
		{
			"anonymous": false,
			"inputs": [
				{
					"indexed": false,
					"internalType": "uint256",
					"name": "oldVotingPeriod",
					"type": "uint256"
				},
				{
					"indexed": false,
					"internalType": "uint256",
					"name": "newVotingPeriod",
					"type": "uint256"
				}
			],
			"name": "VotingPeriodSet",
			"type": "event"
		},
		{
			"inputs": [],
			"name": "BALLOT_TYPEHASH",
			"outputs": [
				{
					"internalType": "bytes32",
					"name": "",
					"type": "bytes32"
				}
			],
			"stateMutability": "view",
			"type": "function"
		},
		{
			"inputs": [],
			"name": "CLOCK_MODE",
			"outputs": [
				{
					"internalType": "string",
					"name": "",
					"type": "string"
				}
			],
			"stateMutability": "view",
			"type": "function"
		},
		{
			"inputs": [],
			"name": "COUNTING_MODE",
			"outputs": [
				{
					"internalType": "string",
					"name": "",
					"type": "string"
				}
			],
			"stateMutability": "pure",
			"type": "function"
		},
		{
			"inputs": [],
			"name": "EXTENDED_BALLOT_TYPEHASH",
			"outputs": [
				{
					"internalType": "bytes32",
					"name": "",
					"type": "bytes32"
				}
			],
			"stateMutability": "view",
			"type": "function"
		},
		{
			"inputs": [
				{
					"internalType": "address[]",
					"name": "targets",
					"type": "address[]"
				},
				{
					"internalType": "uint256[]",
					"name": "values",
					"type": "uint256[]"
				},
				{
					"internalType": "bytes[]",
					"name": "calldatas",
					"type": "bytes[]"
				},
				{
					"internalType": "bytes32",
					"name": "descriptionHash",
					"type": "bytes32"
				}
			],
			"name": "cancel",
			"outputs": [
				{
					"internalType": "uint256",
					"name": "",
					"type": "uint256"
				}
			],
			"stateMutability": "nonpayable",
			"type": "function"
		},
		{
			"inputs": [
				{
					"internalType": "uint256",
					"name": "proposalId",
					"type": "uint256"
				},
				{
					"internalType": "uint8",
					"name": "support",
					"type": "uint8"
				}
			],
			"name": "castVote",
			"outputs": [
				{
					"internalType": "uint256",
					"name": "",
					"type": "uint256"
				}
			],
			"stateMutability": "nonpayable",
			"type": "function"
		},
		{
			"inputs": [
				{
					"internalType": "uint256",
					"name": "proposalId",
					"type": "uint256"
				},
				{
					"internalType": "uint8",
					"name": "support",
					"type": "uint8"
				},
				{
					"internalType": "address",
					"name": "voter",
					"type": "address"
				},
				{
					"internalType": "bytes",
					"name": "signature",
					"type": "bytes"
				}
			],
			"name": "castVoteBySig",
			"outputs": [
				{
					"internalType": "uint256",
					"name": "",
					"type": "uint256"
				}
			],
			"stateMutability": "nonpayable",
			"type": "function"
		},
		{
			"inputs": [
				{
					"internalType": "uint256",
					"name": "proposalId",
					"type": "uint256"
				},
				{
					"internalType": "uint8",
					"name": "support",
					"type": "uint8"
				},
				{
					"internalType": "string",
					"name": "reason",
					"type": "string"
				}
			],
			"name": "castVoteWithReason",
			"outputs": [
				{
					"internalType": "uint256",
					"name": "",
					"type": "uint256"
				}
			],
			"stateMutability": "nonpayable",
			"type": "function"
		},
		{
			"inputs": [
				{
					"internalType": "uint256",
					"name": "proposalId",
					"type": "uint256"
				},
				{
					"internalType": "uint8",
					"name": "support",
					"type": "uint8"
				},
				{
					"internalType": "string",
					"name": "reason",
					"type": "string"
				},
				{
					"internalType": "bytes",
					"name": "params",
					"type": "bytes"
				}
			],
			"name": "castVoteWithReasonAndParams",
			"outputs": [
				{
					"internalType": "uint256",
					"name": "",
					"type": "uint256"
				}
			],
			"stateMutability": "nonpayable",
			"type": "function"
		},
		{
			"inputs": [
				{
					"internalType": "uint256",
					"name": "proposalId",
					"type": "uint256"
				},
				{
					"internalType": "uint8",
					"name": "support",
					"type": "uint8"
				},
				{
					"internalType": "address",
					"name": "voter",
					"type": "address"
				},
				{
					"internalType": "string",
					"name": "reason",
					"type": "string"
				},
				{
					"internalType": "bytes",
					"name": "params",
					"type": "bytes"
				},
				{
					"internalType": "bytes",
					"name": "signature",
					"type": "bytes"
				}
			],
			"name": "castVoteWithReasonAndParamsBySig",
			"outputs": [
				{
					"internalType": "uint256",
					"name": "",
					"type": "uint256"
				}
			],
			"stateMutability": "nonpayable",
			"type": "function"
		},
		{
			"inputs": [],
			"name": "clock",
			"outputs": [
				{
					"internalType": "uint48",
					"name": "",
					"type": "uint48"
				}
			],
			"stateMutability": "view",
			"type": "function"
		},
		{
			"inputs": [],
			"name": "credToken",
			"outputs": [
				{
					"internalType": "contract CREDToken",
					"name": "",
					"type": "address"
				}
			],
			"stateMutability": "view",
			"type": "function"
		},
		{
			"inputs": [],
			"name": "credentialNFT",
			"outputs": [
				{
					"internalType": "contract CredentialNFT",
					"name": "",
					"type": "address"
				}
			],
			"stateMutability": "view",
			"type": "function"
		},
		{
			"inputs": [],
			"name": "eip712Domain",
			"outputs": [
				{
					"internalType": "bytes1",
					"name": "fields",
					"type": "bytes1"
				},
				{
					"internalType": "string",
					"name": "name",
					"type": "string"
				},
				{
					"internalType": "string",
					"name": "version",
					"type": "string"
				},
				{
					"internalType": "uint256",
					"name": "chainId",
					"type": "uint256"
				},
				{
					"internalType": "address",
					"name": "verifyingContract",
					"type": "address"
				},
				{
					"internalType": "bytes32",
					"name": "salt",
					"type": "bytes32"
				},
				{
					"internalType": "uint256[]",
					"name": "extensions",
					"type": "uint256[]"
				}
			],
			"stateMutability": "view",
			"type": "function"
		},
		{
			"inputs": [
				{
					"internalType": "address[]",
					"name": "targets",
					"type": "address[]"
				},
				{
					"internalType": "uint256[]",
					"name": "values",
					"type": "uint256[]"
				},
				{
					"internalType": "bytes[]",
					"name": "calldatas",
					"type": "bytes[]"
				},
				{
					"internalType": "bytes32",
					"name": "descriptionHash",
					"type": "bytes32"
				}
			],
			"name": "execute",
			"outputs": [
				{
					"internalType": "uint256",
					"name": "",
					"type": "uint256"
				}
			],
			"stateMutability": "payable",
			"type": "function"
		},
		{
			"inputs": [
				{
					"internalType": "address",
					"name": "member",
					"type": "address"
				}
			],
			"name": "getMemberReputation",
			"outputs": [
				{
					"internalType": "uint256",
					"name": "",
					"type": "uint256"
				}
			],
			"stateMutability": "view",
			"type": "function"
		},
		{
			"inputs": [
				{
					"internalType": "address[]",
					"name": "targets",
					"type": "address[]"
				},
				{
					"internalType": "uint256[]",
					"name": "values",
					"type": "uint256[]"
				},
				{
					"internalType": "bytes[]",
					"name": "calldatas",
					"type": "bytes[]"
				},
				{
					"internalType": "bytes32",
					"name": "descriptionHash",
					"type": "bytes32"
				}
			],
			"name": "getProposalId",
			"outputs": [
				{
					"internalType": "uint256",
					"name": "",
					"type": "uint256"
				}
			],
			"stateMutability": "view",
			"type": "function"
		},
		{
			"inputs": [
				{
					"internalType": "address",
					"name": "account",
					"type": "address"
				},
				{
					"internalType": "uint256",
					"name": "timepoint",
					"type": "uint256"
				}
			],
			"name": "getVotes",
			"outputs": [
				{
					"internalType": "uint256",
					"name": "",
					"type": "uint256"
				}
			],
			"stateMutability": "view",
			"type": "function"
		},
		{
			"inputs": [
				{
					"internalType": "address",
					"name": "account",
					"type": "address"
				},
				{
					"internalType": "uint256",
					"name": "timepoint",
					"type": "uint256"
				},
				{
					"internalType": "bytes",
					"name": "params",
					"type": "bytes"
				}
			],
			"name": "getVotesWithParams",
			"outputs": [
				{
					"internalType": "uint256",
					"name": "",
					"type": "uint256"
				}
			],
			"stateMutability": "view",
			"type": "function"
		},
		{
			"inputs": [
				{
					"internalType": "uint256",
					"name": "proposalId",
					"type": "uint256"
				},
				{
					"internalType": "address",
					"name": "account",
					"type": "address"
				}
			],
			"name": "hasVoted",
			"outputs": [
				{
					"internalType": "bool",
					"name": "",
					"type": "bool"
				}
			],
			"stateMutability": "view",
			"type": "function"
		},
		{
			"inputs": [
				{
					"internalType": "address[]",
					"name": "targets",
					"type": "address[]"
				},
				{
					"internalType": "uint256[]",
					"name": "values",
					"type": "uint256[]"
				},
				{
					"internalType": "bytes[]",
					"name": "calldatas",
					"type": "bytes[]"
				},
				{
					"internalType": "bytes32",
					"name": "descriptionHash",
					"type": "bytes32"
				}
			],
			"name": "hashProposal",
			"outputs": [
				{
					"internalType": "uint256",
					"name": "",
					"type": "uint256"
				}
			],
			"stateMutability": "pure",
			"type": "function"
		},
		{
			"inputs": [],
			"name": "jobsContract",
			"outputs": [
				{
					"internalType": "contract Jobs",
					"name": "",
					"type": "address"
				}
			],
			"stateMutability": "view",
			"type": "function"
		},
		{
			"inputs": [],
			"name": "name",
			"outputs": [
				{
					"internalType": "string",
					"name": "",
					"type": "string"
				}
			],
			"stateMutability": "view",
			"type": "function"
		},
		{
			"inputs": [
				{
					"internalType": "address",
					"name": "owner",
					"type": "address"
				}
			],
			"name": "nonces",
			"outputs": [
				{
					"internalType": "uint256",
					"name": "",
					"type": "uint256"
				}
			],
			"stateMutability": "view",
			"type": "function"
		},
		{
			"inputs": [
				{
					"internalType": "address",
					"name": "",
					"type": "address"
				},
				{
					"internalType": "address",
					"name": "",
					"type": "address"
				},
				{
					"internalType": "uint256[]",
					"name": "",
					"type": "uint256[]"
				},
				{
					"internalType": "uint256[]",
					"name": "",
					"type": "uint256[]"
				},
				{
					"internalType": "bytes",
					"name": "",
					"type": "bytes"
				}
			],
			"name": "onERC1155BatchReceived",
			"outputs": [
				{
					"internalType": "bytes4",
					"name": "",
					"type": "bytes4"
				}
			],
			"stateMutability": "nonpayable",
			"type": "function"
		},
		{
			"inputs": [
				{
					"internalType": "address",
					"name": "",
					"type": "address"
				},
				{
					"internalType": "address",
					"name": "",
					"type": "address"
				},
				{
					"internalType": "uint256",
					"name": "",
					"type": "uint256"
				},
				{
					"internalType": "uint256",
					"name": "",
					"type": "uint256"
				},
				{
					"internalType": "bytes",
					"name": "",
					"type": "bytes"
				}
			],
			"name": "onERC1155Received",
			"outputs": [
				{
					"internalType": "bytes4",
					"name": "",
					"type": "bytes4"
				}
			],
			"stateMutability": "nonpayable",
			"type": "function"
		},
		{
			"inputs": [
				{
					"internalType": "address",
					"name": "",
					"type": "address"
				},
				{
					"internalType": "address",
					"name": "",
					"type": "address"
				},
				{
					"internalType": "uint256",
					"name": "",
					"type": "uint256"
				},
				{
					"internalType": "bytes",
					"name": "",
					"type": "bytes"
				}
			],
			"name": "onERC721Received",
			"outputs": [
				{
					"internalType": "bytes4",
					"name": "",
					"type": "bytes4"
				}
			],
			"stateMutability": "nonpayable",
			"type": "function"
		},
		{
			"inputs": [
				{
					"internalType": "uint256",
					"name": "proposalId",
					"type": "uint256"
				}
			],
			"name": "proposalDeadline",
			"outputs": [
				{
					"internalType": "uint256",
					"name": "",
					"type": "uint256"
				}
			],
			"stateMutability": "view",
			"type": "function"
		},
		{
			"inputs": [
				{
					"internalType": "uint256",
					"name": "proposalId",
					"type": "uint256"
				}
			],
			"name": "proposalEta",
			"outputs": [
				{
					"internalType": "uint256",
					"name": "",
					"type": "uint256"
				}
			],
			"stateMutability": "view",
			"type": "function"
		},
		{
			"inputs": [
				{
					"internalType": "uint256",
					"name": "",
					"type": "uint256"
				}
			],
			"name": "proposalNeedsQueuing",
			"outputs": [
				{
					"internalType": "bool",
					"name": "",
					"type": "bool"
				}
			],
			"stateMutability": "view",
			"type": "function"
		},
		{
			"inputs": [
				{
					"internalType": "uint256",
					"name": "proposalId",
					"type": "uint256"
				}
			],
			"name": "proposalProposer",
			"outputs": [
				{
					"internalType": "address",
					"name": "",
					"type": "address"
				}
			],
			"stateMutability": "view",
			"type": "function"
		},
		{
			"inputs": [
				{
					"internalType": "uint256",
					"name": "proposalId",
					"type": "uint256"
				}
			],
			"name": "proposalSnapshot",
			"outputs": [
				{
					"internalType": "uint256",
					"name": "",
					"type": "uint256"
				}
			],
			"stateMutability": "view",
			"type": "function"
		},
		{
			"inputs": [],
			"name": "proposalThreshold",
			"outputs": [
				{
					"internalType": "uint256",
					"name": "",
					"type": "uint256"
				}
			],
			"stateMutability": "view",
			"type": "function"
		},
		{
			"inputs": [
				{
					"internalType": "uint256",
					"name": "proposalId",
					"type": "uint256"
				}
			],
			"name": "proposalVotes",
			"outputs": [
				{
					"internalType": "uint256",
					"name": "againstVotes",
					"type": "uint256"
				},
				{
					"internalType": "uint256",
					"name": "forVotes",
					"type": "uint256"
				},
				{
					"internalType": "uint256",
					"name": "abstainVotes",
					"type": "uint256"
				}
			],
			"stateMutability": "view",
			"type": "function"
		},
		{
			"inputs": [
				{
					"internalType": "address[]",
					"name": "targets",
					"type": "address[]"
				},
				{
					"internalType": "uint256[]",
					"name": "values",
					"type": "uint256[]"
				},
				{
					"internalType": "bytes[]",
					"name": "calldatas",
					"type": "bytes[]"
				},
				{
					"internalType": "string",
					"name": "description",
					"type": "string"
				}
			],
			"name": "propose",
			"outputs": [
				{
					"internalType": "uint256",
					"name": "",
					"type": "uint256"
				}
			],
			"stateMutability": "nonpayable",
			"type": "function"
		},
		{
			"inputs": [
				{
					"internalType": "uint256",
					"name": "jobId",
					"type": "uint256"
				},
				{
					"internalType": "string",
					"name": "description",
					"type": "string"
				}
			],
			"name": "proposeJobVerification",
			"outputs": [
				{
					"internalType": "uint256",
					"name": "",
					"type": "uint256"
				}
			],
			"stateMutability": "nonpayable",
			"type": "function"
		},
		{
			"inputs": [
				{
					"internalType": "address[]",
					"name": "targets",
					"type": "address[]"
				},
				{
					"internalType": "uint256[]",
					"name": "values",
					"type": "uint256[]"
				},
				{
					"internalType": "bytes[]",
					"name": "calldatas",
					"type": "bytes[]"
				},
				{
					"internalType": "bytes32",
					"name": "descriptionHash",
					"type": "bytes32"
				}
			],
			"name": "queue",
			"outputs": [
				{
					"internalType": "uint256",
					"name": "",
					"type": "uint256"
				}
			],
			"stateMutability": "nonpayable",
			"type": "function"
		},
		{
			"inputs": [
				{
					"internalType": "uint256",
					"name": "",
					"type": "uint256"
				}
			],
			"name": "quorum",
			"outputs": [
				{
					"internalType": "uint256",
					"name": "",
					"type": "uint256"
				}
			],
			"stateMutability": "view",
			"type": "function"
		},
		{
			"inputs": [
				{
					"internalType": "address",
					"name": "target",
					"type": "address"
				},
				{
					"internalType": "uint256",
					"name": "value",
					"type": "uint256"
				},
				{
					"internalType": "bytes",
					"name": "data",
					"type": "bytes"
				}
			],
			"name": "relay",
			"outputs": [],
			"stateMutability": "payable",
			"type": "function"
		},
		{
			"inputs": [],
			"name": "reputation",
			"outputs": [
				{
					"internalType": "contract Reputation",
					"name": "",
					"type": "address"
				}
			],
			"stateMutability": "view",
			"type": "function"
		},
		{
			"inputs": [
				{
					"internalType": "uint256",
					"name": "newProposalThreshold",
					"type": "uint256"
				}
			],
			"name": "setProposalThreshold",
			"outputs": [],
			"stateMutability": "nonpayable",
			"type": "function"
		},
		{
			"inputs": [
				{
					"internalType": "uint48",
					"name": "newVotingDelay",
					"type": "uint48"
				}
			],
			"name": "setVotingDelay",
			"outputs": [],
			"stateMutability": "nonpayable",
			"type": "function"
		},
		{
			"inputs": [
				{
					"internalType": "uint32",
					"name": "newVotingPeriod",
					"type": "uint32"
				}
			],
			"name": "setVotingPeriod",
			"outputs": [],
			"stateMutability": "nonpayable",
			"type": "function"
		},
		{
			"inputs": [
				{
					"internalType": "uint256",
					"name": "proposalId",
					"type": "uint256"
				}
			],
			"name": "state",
			"outputs": [
				{
					"internalType": "enum IGovernor.ProposalState",
					"name": "",
					"type": "uint8"
				}
			],
			"stateMutability": "view",
			"type": "function"
		},
		{
			"inputs": [
				{
					"internalType": "bytes4",
					"name": "interfaceId",
					"type": "bytes4"
				}
			],
			"name": "supportsInterface",
			"outputs": [
				{
					"internalType": "bool",
					"name": "",
					"type": "bool"
				}
			],
			"stateMutability": "view",
			"type": "function"
		},
		{
			"inputs": [],
			"name": "token",
			"outputs": [
				{
					"internalType": "contract IERC5805",
					"name": "",
					"type": "address"
				}
			],
			"stateMutability": "view",
			"type": "function"
		},
		{
			"inputs": [],
			"name": "version",
			"outputs": [
				{
					"internalType": "string",
					"name": "",
					"type": "string"
				}
			],
			"stateMutability": "view",
			"type": "function"
		},
		{
			"inputs": [],
			"name": "votingDelay",
			"outputs": [
				{
					"internalType": "uint256",
					"name": "",
					"type": "uint256"
				}
			],
			"stateMutability": "view",
			"type": "function"
		},
		{
			"inputs": [],
			"name": "votingPeriod",
			"outputs": [
				{
					"internalType": "uint256",
					"name": "",
					"type": "uint256"
				}
			],
			"stateMutability": "view",
			"type": "function"
		},
		{
			"stateMutability": "payable",
			"type": "receive"
		}
	]
}